:100000000C94E7010C94361E0C94671E0C94981EF9
:100010000C94C91E0C94FA1E0C942B1F0C945C1F9C
:100020000C948D1F0C940F020C940F020C940F0271
:100030000C94580F0C940F020C940F020C94BA0DF0
:100040000C940F020C940F020C940F020C940F02EC
:100050000C940F020C940F020C940F020C94950D4B
:100060000C940F020C9470100C940F020C940F025D
:100070000C940F020C940F020C940F020C940F02BC
:100080000C940F020C940F020C940F020C940F02AC
:100090000C94B1100C940F020C940F020C948F0B63
:1000A0000C940F020C940F020C940F020C940F028C
:1000B0000C940F020C940F020C940F020C940F027C
:1000C0000C940F020C940F020C940F024301570181
:1000D0007D01A401C401DC01EA01FA010F0225023D
:1000E000360242024902660284029A02A802B8025B
:1000F000DB02E10257726F6E672074696D652066DE
:100100006F726D61742E204D7573742062652022AC
:1001100064643A68683A6D6D220057726F6E6720AA
:1001200074696D6520666F726D61742E204D7573F4
:1001300074206265202264643A68683A6D6D3A738F
:10014000732200416C61726D204D6F6465206D619A
:10015000746368657320005B446179203A20686F9E
:10016000757273203A206D696E75746573203A203C
:100170007365636F6E64735D202D3E20005B446188
:100180007465203A20686F757273203A206D696E2D
:1001900075746573203A207365636F6E64735D20B8
:1001A0002D3E20005B486F757273203A206D696E9A
:1001B00075746573203A207365636F6E64735D2098
:1001C0002D3E20005B4D696E75746573203A207377
:1001D00065636F6E64735D202D3E20005B53656325
:1001E0006F6E64735D202D3E20004F6E636520703E
:1001F0006572207365636F6E6400496E636F72721F
:1002000065637420616C61726D206D6F6465005B65
:10021000253032753A253032753A253032753A2517
:100220003032755D005B253032753A253032753AD3
:10023000253032755D005B253032753A25303275D8
:100240005D005B253032755D005B446179203A20AA
:10025000686F757273203A206D696E7574657320CE
:100260005D202D3E20005B44617465203A20686F5C
:10027000757273203A206D696E75746573205D2008
:100280002D3E20005B486F757273203A206D696EB9
:10029000757465735D202D3E20005B4D696E75742D
:1002A00065735D202D3E20004F6E63652070657282
:1002B000206D696E7574650025732C2025303275AC
:1002C0002F253032752F253032752C202530327590
:1002D0003A253032753A25303275006572726F7288
:1002E000002530327525632530327525632530327F
:1002F00075256325303275256325303275256325D4
:1003000030327525632530327500002124272A2DCF
:100310003033002225282B2E313400202326292C8F
:100320002F3205050505030303030101010404033E
:100330000606060606060606010405010501030277
:100340000202020202010202050504040304040180
:10035000030407070701020810102040800408105A
:100360002040020204081020408001028020400446
:100370002001010204081020014080408001020891
:1003800004088004100402010000080900000000B5
:10039000000000000000000000000000000000005D
:1003A000000000000000000000000000000000004D
:1003B000000000000000000000000000EF0995139D
:1003C00041193B1AD41AA51CBE1F272191211124C3
:1003D0001FBECFEFD1E2DEBFCDBF13E0A0E0B2E0A1
:1003E000ECE1FEE402C005900D92A63DB107D9F7FD
:1003F0001DE0A6EDB3E001C01D92A134B107E1F705
:1004000013E0CEECD3E004C02297FE010E947E23CD
:10041000CC3BD107C9F70E9459120C940C270C94BD
:100420000000EF92FF920F93DF93CF93CDB7DEB72B
:1004300060970FB6F894DEBF0FBECDBFA82F002384
:1004400009F461C07E010894E11CF11C88E0F70109
:1004500011928A95E9F729833A834B835C836D83F4
:100460007E83AF83988780E2801BE82FFF27E7FD1C
:10047000F09549815A816B817C81181684F0198628
:100480001A861B861C86882799278E1B9F0B04C003
:10049000440F551F661F771F8A95D2F728C0202F5B
:1004A000332727FD3095DB01CA01022E04C0880FD7
:1004B000991FAA1FBB1F0A94D2F789879A87AB8717
:1004C000BC8704C07695679557954795EA95D2F70E
:1004D0008D819E81AF81B88504C0880F991FAA1FA6
:1004E000BB1F2A95D2F7482B592B6A2B7B2B4D87A4
:1004F0005E876F87788B29853A854B855C856D850E
:100500007E85AF8598898A2F60960FB6F894DEBFF6
:100510000FBECDBFCF91DF910F91FF90EF90089567
:10052000AEE5B0E0E6E9F2E00C944523A8E04E0128
:100530000894811C911CF4016A2E11926A94E9F7C7
:1005400029833A834B835C836D837E838F83988773
:10055000CE010996FC011192AA95E9F7A986BA86FF
:10056000CB86DC86ED86FE860F87188B29843A843D
:100570004B845C84ED84FE840F85188969807A80C1
:100580008B809C806DA67EA68FA698AA6D807E80AB
:100590008F809884E114F1040105110509F0B3C3BB
:1005A000621473048404950408F03DC100E0201631
:1005B00000E0300601E0400600E0500688F41FEF3E
:1005C000211631044104510439F030F048E0E42EA2
:1005D000F12C012D112D18C0EE24FF24870114C029
:1005E00020E0221620E0320620E0420621E05206FA
:1005F00030F038E1E32EF12C012D112D05C020E162
:10060000E22EF12C012D112DD201C1010E2C04C0BE
:10061000B695A795979587950A94D2F780539D4FE5
:10062000DC012C9180E290E0A0E0B0E08E199F09FF
:10063000A00BB10B7C018D01E21AF108010911092F
:10064000E114F10401051105A1F10E2C04C0220CE6
:10065000331C441C551C0A94D2F7A40193010E2CA0
:1006600004C0220F331F441F551F0A94D2F780E2A3
:1006700090E08E199F096DA47EA48FA498A804C051
:1006800096948794779467948A95D2F7622A732A0E
:10069000842A952AADA4BEA4CFA4D8A804C0AA0CCD
:1006A000BB1CCC1CDD1CEA94D2F7ADA6BEA6CFA61F
:1006B000D8AA6201EE24FF24CDAADEAAEFAAF8AEE2
:1006C000920181012070307009AF1AAF2BAF3CAF9F
:1006D000C401B301A70196010E9408237B018C018C
:1006E000C401B3012DA93EA94FA958AD0E9408230A
:1006F000C901DA013C014D01C401B30129AD3AAD94
:100700004BAD5CAD0E94C2229B01AC018701FF246E
:10071000EE24ADA4BEA4CFA4D8A8C601AA27BB27A7
:1007200057016801A82AB92ACA2ADB2AA216B306E9
:10073000C406D506E0F408946108710881089108A0
:10074000A20CB31CC41CD51CA214B304C404D5044D
:1007500070F0A216B306C406D50648F408946108E2
:10076000710881089108A20CB31CC41CD51CA21AE4
:10077000B30AC40AD50AC601B5012DA93EA94FA9DD
:1007800058AD0E9408237B018C01C601B5012DA93B
:100790003EA94FA958AD0E940823C901DA015C01A6
:1007A0006D01C601B50129AD3AAD4BAD5CAD0E94FE
:1007B000C2229B01AC018701FF24EE248DA59EA5DA
:1007C000AFA5B8A9A070B070E82AF92A0A2B1B2B94
:1007D000E216F30604071507C0F40894A108B1084F
:1007E000C108D108E20CF31C041D151DE214F3042A
:1007F0000405150550F0E216F3060407150728F462
:100800000894A108B108C108D108D3019927882705
:1008100086017501E82AF92A0A2B1B2BE9AAFAAAF4
:100820000BAB1CABCFC4211431044104510471F44F
:1008300061E070E080E090E020E030E040E050E0F7
:100840000E940823C901DA011C012D0100E02016D5
:1008500000E0300601E0400600E0500688F41FEF9B
:10086000211631044104510431F028F048E050E0F1
:1008700060E070E017C040E050E060E070E012C05F
:1008800020E0221620E0320620E0420621E0520657
:1008900028F048E150E060E070E004C040E150E042
:1008A00060E070E0D201C101042E04C0B695A795A6
:1008B000979587950A94D2F780539D4FDC012C9130
:1008C000E0E2EE2EF12C012D112DD801C701841B81
:1008D000950BA60BB70B821B9109A109B1090097D3
:1008E000A105B10561F464015301A218B308C4085D
:1008F000D50831E0632E712C812C912C1EC16F968E
:100900008FAF6F97082E04C0220C331C441C551C5B
:100910000A94D2F7EE2DE81B640153010E2E04C099
:10092000D694C794B794A7940A94D2F7A4019301DC
:100930006F960FAC6F9704C0220F331F441F551FD3
:100940000A94D2F76DA47EA48FA498A80E2E04C09A
:1009500096948794779467940A94D2F784017301EC
:10096000E22AF32A042B152BE9A6FAA60BA71CA74B
:1009700032018824992492018101207030702196DF
:100980000CAF1DAF2EAF3FAF2197C601B501A4013B
:1009900093010E9408237B018C01C601B501A401CB
:1009A00093010E940823C901DA0125968CAF9DAFFF
:1009B000AEAFBFAF2597BC01CD0121962CAD3DADAB
:1009C0004EAD5FAD21970E94C2229B01AC01870111
:1009D000FF24EE24A9A4BAA4CBA4DCA4C601AA27B0
:1009E000BB275C016D01AE28BF28C02AD12AA21600
:1009F000B306C406D50660F525966CAD7DAD8EAD0B
:100A00009FAD2597615070408040904025966CAF17
:100A10007DAF8EAF9FAF2597A20CB31CC41CD51C15
:100A2000A214B304C404D50498F0A216B306C406F5
:100A3000D50670F4615070408040904025966CAFB0
:100A40007DAF8EAF9FAF2597A20CB31CC41CD51CE5
:100A5000A21AB30AC40AD50AC601B501A4019301BA
:100A60000E9408237B018C01C601B501A4019301FA
:100A70000E940823C901DA013C014D01C401B30100
:100A800021962CAD3DAD4EAD5FAD21970E94C222A7
:100A90009B01AC018701FF24EE2489A59AA5ABA593
:100AA000BCA5A070B07057016801A82AB92ACA2A4B
:100AB000DB2AA216B306C406D506E0F40894610842
:100AC000710881089108A20CB31CC41CD51CA21487
:100AD000B304C404D50470F0A216B306C406D50648
:100AE00048F408946108710881089108A20CB31CAD
:100AF000C41CD51C8DA59EA5AFA5B8A96F960FAC3B
:100B00006F9704C0880F991FAA1FBB1F0A94D2F7C2
:100B10008DA79EA7AFA7B8ABA21AB30AC40AD50A7D
:100B20002596ECACFDAC0EAD1FAD2597D7019927EE
:100B30008827682A792A8A2A9B2A82012227332732
:100B400029960CAF1DAF2EAF3FAF2997A20191019F
:100B5000407050702D962CAF3DAF4EAF5FAF2D97CC
:100B6000C601B50129962CAD3DAD4EAD5FAD2997BF
:100B70000E9408237B018C01C601B50129962CAD8A
:100B80003DAD4EAD5FAD29970E940823C901DA0142
:100B900061968CAF9DAFAEAFBFAF6197BC01CD0189
:100BA0002D962CAD3DAD4EAD5FAD2D970E94C2226E
:100BB0009B01AC018701FF24EE24ADA4BEA4CFA409
:100BC000D8A8C601AA27BB2757016801A82AB92AB5
:100BD000CA2ADB2AA216B306C406D50660F56196BA
:100BE0006CAD7DAD8EAD9FAD619761507040804022
:100BF000904061966CAF7DAF8EAF9FAF6197A20CB6
:100C0000B31CC41CD51CA214B304C404D50498F0AE
:100C1000A216B306C406D50670F461507040804039
:100C2000904061966CAF7DAF8EAF9FAF6197A20C85
:100C3000B31CC41CD51CA21AB30AC40AD50AC60127
:100C4000B50129962CAD3DAD4EAD5FAD29970E9403
:100C500008237B018C01C601B50129962CAD3DAD61
:100C60004EAD5FAD29970E940823C901DA015C01EE
:100C70006D01C601B5012D962CAD3DAD4EAD5FADFC
:100C80002D970E94C2229B01AC018701FF24EE2414
:100C90008DA59EA5AFA5B8A9A070B070E82AF92AC5
:100CA0000A2B1B2BE216F30604071507C0F4089461
:100CB000A108B108C108D108E20CF31C041D151DE0
:100CC000E214F3040405150550F0E216F3060407D8
:100CD000150728F40894A108B108C108D108619645
:100CE000ECACFDAC0EAD1FAD6197D70199278827FD
:100CF00096018501082B192B2A2B3B2B09AB1AAB2C
:100D00002BAB3CAB62C26E147F048006910608F4E4
:100D100051C220E0E21620E0F20621E0020720E0C6
:100D2000120788F43FEFE316F1040105110531F0D5
:100D300028F048E050E060E070E017C040E050E08C
:100D400060E070E012C040E0E41640E0F40640E0ED
:100D5000040741E0140728F048E150E060E070E04B
:100D600004C040E150E060E070E0D801C701042E0B
:100D700004C0B695A795979587950A94D2F78053A6
:100D80009D4FDC012C9130E2A32EB12CC12CD12C33
:100D9000D601C501841B950BA60BB70B821B9109CD
:100DA000A109B1090097A105B10589F4E614F7047A
:100DB0000805190508F4F2C16DA47EA48FA498A8B3
:100DC000621473048404950408F0E8C1F3C16E96BC
:100DD0008FAF6E97082E04C0EE0CFF1C001F111F72
:100DE0000A94D2F76A2D681BD201C101062E04C0F5
:100DF000B695A795979587950A94D2F75C016D01F2
:100E0000AE28BF28C02AD12AADA2BEA2CFA2D8A6A2
:100E1000720161016E960FAC6E9704C0CC0CDD1CA4
:100E2000EE1CFF1C0A94D2F7C9A2DAA2EBA2FCA224
:100E300064015301062E04C0D694C794B794A794B6
:100E40000A94D2F7D401C3016E960FAC6E9704C01A
:100E5000880F991FAA1FBB1F0A94D2F7EDA4FEA406
:100E60000FA518A904C016950795F794E7946A95FD
:100E7000D2F737014801682A792A8A2A9B2A6D8E7F
:100E80007E8E8F8E98A2EDA0FEA00FA118A538012E
:100E900088249924980187012070307065960CAFE2
:100EA0001DAF2EAF3FAF6597C601B501A4019301F9
:100EB0000E9408237B018C01C601B501A4019301A6
:100EC0000E940823C901DA011C012D01C201B101F0
:100ED00065962CAD3DAD4EAD5FAD65970E94C222CB
:100EE0009B01AC018701FF24EE24AD8CBE8CCF8C1E
:100EF000D8A0C601AA27BB2757016801A82AB92A8A
:100F0000CA2ADB2AA216B306C406D50600F5089441
:100F10002108310841085108EDA0FEA00FA118A535
:100F2000AE0CBF1CC01ED11EAE14BF04C006D1063D
:100F300070F0A216B306C406D50648F4089421083A
:100F4000310841085108AE0CBF1CC01ED11EA21AA8
:100F5000B30AC40AD50AC601B501A40193010E94CF
:100F600008237B018C01C601B501A40193010E94F5
:100F70000823C901DA013C014D01C401B3016596A2
:100F80002CAD3DAD4EAD5FAD65970E94C2229B0179
:100F9000AC018701FF24EE248D8D9E8DAF8DB8A10D
:100FA000A070B07057016801A82AB92ACA2ADB2AA2
:100FB000A216B306C406D50600F5089461087108A8
:100FC000810891086DA17EA18FA198A5A60EB71EDC
:100FD000C81ED91EA616B706C806D90670F0A216F6
:100FE000B306C406D50648F4089461087108810860
:100FF0009108A60EB71EC81ED91ED601C501821BB8
:10100000930BA40BB50B898F9A8FAB8FBC8FD1013B
:101010009927882764015301A82AB92ACA2ADB2AFA
:10102000A9AABAAACBAADCAA860175012FEF3FEFC5
:1010300040E050E0E222F32204231523A6016627B4
:1010400077276D964CAF5DAF6EAF7FAF6D97A9A060
:10105000BAA0CBA0DCA06FEF7FEF80E090E0A622EB
:10106000B722C822D92289A19AA1ABA1BCA11D0196
:1010700044245524C801B701A60195010E94C2224B
:1010800069966CAF7DAF8EAF9FAF6997C801B7010E
:10109000A20191010E94C2223B014C016D966CADF0
:1010A0007DAD8EAD9FAD6D97A60195010E94C222C8
:1010B0007B018C016D966CAD7DAD8EAD9FAD6D9756
:1010C000A20191010E94C2225B016C01A80197015B
:1010D000260D371D481D591D69966CAC7DAC8EAC34
:1010E0009FAC6997C401AA27BB27280F391F4A1F45
:1010F0005B1F2E153F054007510748F4E12CF12CEA
:1011000061E0062F112DAE0CBF1CC01ED11ECA01FE
:10111000AA27BB27BC01CD016A0D7B1D8C1D9D1D1F
:10112000698C7A8C8B8C9C8C66167706880699065F
:1011300040F1661577058805990509F043C0D90186
:101140009927882769962CAD3DAD4EAD5FAD699767
:1011500040705070820F931FA41FB51F2DA53EA590
:101160004FA558A96E960FAC6E9704C0220F331F7F
:10117000441F551F0A94D2F7281739074A075B07FF
:1011800008F509A91AA92BA93CA901501040204033
:10119000304009AB1AAB2BAB3CAB14C066247724B0
:1011A000430121E030E040E050E029AB3AAB4BABEB
:1011B0005CAB0BC066247724430119AA1AAA1BAAA8
:1011C0001CAA03C0662477244301FE01719688E0BF
:1011D000DF011D928A95E9F7A9A8BAA8CBA8DCA8D7
:1011E000A98ABA8ACB8ADC8A6D8A7E8A8F8A988E8F
:1011F00029A93A894B895C89662D7E898F89988DCA
:10120000C25ADF4FE2E10C946123CF92DF92EF925A
:10121000FF920F931F9381E00E948F0F7C0182E069
:101220000E948F0F6C0106ED13E0C80160E072E0D0
:101230000E943F0AC801B7010E94170A8AE1E82EFE
:1012400082E0F82EC801B7010E943F0AC8016CE194
:1012500072E00E943F0AC801B6010E94170AC80145
:10126000B7010E943F0A60ED77E080E090E00E94C5
:10127000750E1F910F91FF90EF90DF90CF90089522
:10128000EF92FF920F931F939CEFE92E96E0F92EB9
:10129000C7010E94B31A64E670E080E090E00E940B
:1012A000750E06ED13E0C80160E00E94560A64E680
:1012B00070E080E090E00E94750EC80140E052ECC2
:1012C00061E070E00E944B0AC80160E00E9487095B
:1012D000C80161E00E94CB0964E670E080E090E024
:1012E0000E94750EC70166E372E00E949A1AC70158
:1012F00068E672E00E949A1A64E670E080E090E08E
:101300000E94750E1F910F91FF90EF900895FC01C0
:10131000E081EE23F1F4662321F48091C2008F7DF9
:1013200005C0623049F48091C20080628093C2009F
:101330008091C2008F7E0AC0633061F58091C20047
:1013400080628093C2008091C20080618093C2005D
:101350000895E130F9F4662321F48091CA008F7D6D
:1013600005C0623059F48091CA0080628093CA003F
:101370008091CA008F7E8093CA000895633051F433
:101380008091CA0080628093CA008091CA00806107
:101390008093CA000895FC01E081EE2371F461306E
:1013A00021F48091C200877F05C06230B9F480913A
:1013B000C20088608093C2000895E13079F4613002
:1013C00031F48091CA00877F8093CA00089562300B
:1013D00029F48091CA0088608093CA00089580E053
:1013E00092ECA1E0B0E08093D7039093D803A09350
:1013F000D903B093DA0388E893E1A0E0B0E08093EA
:10140000DB039093DC03A093DD03B093DE0384E65B
:1014100090E0A0E0B0E08093DF039093E003A0931E
:10142000E103B093E20381E08093E30308950F9317
:101430001F93CF93DF938C01EB0177FF08C08DE200
:10144000F80160810E94F210D095C195DF4FBE0176
:10145000882777FD8095982F2AE030E040E050E023
:10146000F80100810E943B1162E070E080E090E0B2
:101470000E94750EDF91CF911F910F910895FC018D
:10148000CB0160810E94251162E070E080E090E075
:101490000E94750E0895FC01418352836383748317
:1014A000CB01BA0140810E94DD1108951F93CF93B3
:1014B000DF93EC01162F662371F481E097E00E9420
:1014C000E11A86E161E00E94BB0F86E161E00E94C3
:1014D000D90F18820FC0613069F481E097E00E9453
:1014E000F21A86E061E00E94BB0F86E061E00E9494
:1014F000D90F18838881882351F48091270990910E
:101500002809A0912909B0912A0984600BC0813073
:1015100089F48091270990912809A0912909B09117
:101520002A0988608093270990932809A0932909A4
:10153000B0932A0964E670E080E090E00E94750EA6
:10154000DF91CF911F910895482F613210F081E013
:1015500008958091E605843011F082E0089560934B
:101560002F06AEE0B6E0842F9C01F90102C0819104
:101570008D938E2F841B8617D0F380E008955898A2
:1015800059988091B90081608093B9008091B90029
:1015900082608093B9008091BC0080688093BC0019
:1015A0008091BC0080618093BC008091BC008F7BE7
:1015B0008093BC008091BC008F7D8093BC008091A3
:1015C000BC00877F8093BC008091270990912809F7
:1015D000A0912909B0912A0986FD14C0809127099C
:1015E00090912809A0912909B0912A0990FD0AC07B
:1015F0008091270990912809A0912909B0912A0981
:1016000093FF04C08091BC008B7F03C08091BC001D
:1016100084608093BC008091BC008E7F8093BC006E
:101620008091640080688093640008951092E605BC
:10163000E4E6F0E080818F778083589A599AE9EB4D
:10164000F0E080818E7F808380818D7F808381E444
:101650008093B80085E48093BC0080E2ECEEF5E076
:10166000DF01982F1D929A95E9F7EEE0F6E0DF0191
:10167000982F1D929A95E9F7E0E3F6E0DF011D92BD
:101680008A95E9F70895882349F01092520610923E
:101690005306109254061092550613C080915206BC
:1016A00090915306A0915406B09155060196A11D44
:1016B000B11D8093520690935306A0935406B093A5
:1016C00055068091520690915306A0915406B09110
:1016D0005506805A9648A140B04010F480E0089525
:1016E000109252061092530610925406109255060C
:1016F0000E94160B81E0089585ED8093BC0081E087
:101700000E94430B05C080E00E94430B882321F414
:101710008091BC0084FDF7CF1092E60508951F92DA
:101720000F920FB60F920BB60F9211242F933F9387
:101730004F935F936F937F938F939F93AF93BF93D9
:10174000EF93FF938091B90090E0887F907080368E
:10175000910509F4C3C081369105CCF58832910515
:1017600009F47BC089329105B4F48031910509F404
:101770006FC0813191053CF4009709F40EC10897C0
:1017800009F00FC165C08831910509F466C08097E2
:1017900009F007C177C08034910509F48DC0813408
:1017A000910544F48033910509F472C0C89709F09B
:1017B000F8C072C08035910509F472C08835910572
:1017C00009F47FC08834910509F0EBC0E8C088397E
:1017D000910509F4D8C089399105ECF48837910551
:1017E00009F47CC0893791054CF48836910509F4D9
:1017F00075C08037910509F0D4C070C08838910554
:1018000009F4C1C08039910509F46EC08038910592
:1018100009F0C7C069C0803B910509F48CC0813BC9
:1018200091054CF4803A910509F470C0883A91050D
:1018300009F0B7C080C0803C910509F4A8C0883C7D
:10184000910509F4A4C0883B910509F0AAC088C09D
:101850008091E7058093BB0013C090910C068091A6
:101860000D06981708F09BC090910C06E92FF0E048
:10187000E451FA4F80818093BB009F5F90930C06E8
:1018800085EC82C00E947C0B80E28093510689C067
:1018900080E38093510683C088E38093510677C02C
:1018A00080910C069091BB00E82FF0E0E451FA4FD4
:1018B00090838F5F80930C0690910C0680910D06AB
:1018C0005FC080910C069091BB00E82FF0E0E451DE
:1018D000FA4F90838F5F80930C0661C083E0809302
:1018E000E60510925006CCCF80915006803208F069
:1018F0004AC0809150069091BB00E82FF0E0E05D77
:10190000F94F90838F5F80935006BACF8091500635
:10191000803230F4E0915006F0E0E05DF94F108243
:1019200060915006E091EA05F091EB0580E396E0C6
:1019300070E009952CC084E08093E60510922E0695
:1019400010922F06E091E805F091E9050995809144
:101950002F06882329F481E080932F0610920E062B
:1019600090912E06E92FF0E0E25FF94F808180939D
:10197000BB009F5F90932E0690912E0680912F06BC
:10198000981708F47DCF85E88093BC000AC085ECE9
:101990008093BC001092E60504C0109251060E948C
:1019A0007C0BFF91EF91BF91AF919F918F917F91B0
:1019B0006F915F914F913F912F910F900BBE0F90C0
:1019C0000FBE0F901F901895DF92EF92FF920F932A
:1019D0001F93E82E062FF72E142FD22E413210F02F
:1019E00081E051C081E00E94430B05C080E00E946D
:1019F000430B882321F48091E6058823B9F782E020
:101A00008093E6058FEF8093510610920C06109399
:101A10000D06ACEEB5E0202F3F2DC901FC0102C040
:101A200081918D938E2F801B8117D0F38E2D90E0A6
:101A3000880F991F8093E70585EE8093BC0081E0B5
:101A40000E94430BDD2041F40BC080E00E94430B59
:101A5000882311F085E017C08091E6058230A9F354
:101A6000809151068F3F11F480E00DC080915106A6
:101A7000803211F482E007C080915106803311F06A
:101A800084E001C083E01F910F91FF90EF90DF9001
:101A900008950F931F93CF93DF93182FEB01042F1B
:101AA000413210F081E03CC081E00E94430B05C050
:101AB00080E00E94430B882321F48091E60588236F
:101AC000B9F781E08093E6058FEF8093510610927D
:101AD0000C0600930D06110F11601093E70585EEBB
:101AE0008093BC0081E00E94430B08C080E00E940C
:101AF000430B882319F020E030E00FC08091E60509
:101B00008130A1F3F8CFFE01E20FF31FD901A451F8
:101B1000BA4F8C9180832F5F3F4F2017A0F380E056
:101B2000DF91CF911F910F9108951F920F920FB6E1
:101B30000F9211248F939F93AF93BF938091390994
:101B400090913A09A0913B09B0913C090196A11DE1
:101B5000B11D8093390990933A09A0933B09B09342
:101B60003C09BF91AF919F918F910F900FBE0F9045
:101B70001F9018951F920F920FB60F9211248F93FA
:101B80009F93AF93BF9380913D0990913E09A0919F
:101B90003F09B09140090196A11DB11D80933D09F7
:101BA00090933E09A0933F09B0934009BF91AF9134
:101BB0009F918F910F900FBE0F901F9018958F924D
:101BC0009F92AF92BF92CF92DF92EF92FF920F93CC
:101BD0001F938FB7F894A0903909B0903A09C0903C
:101BE0003B09D0903C098FBF9501A60160E070E0F1
:101BF00080E090E001E00E941102122FF32EE42E0B
:101C0000D52EC62EB72EA82E892E02E00E941102D4
:101C1000B92F210FE1E0211708F0E0E03F0DF1E0DE
:101C20003F1508F0F0E09E2E930EE1E0931608F0C9
:101C3000E0E0FE2B4E0DA1E04E1508F0A0E0FF2ED7
:101C4000F40EE1E0F41608F0E0E0AE2B5D0DF1E0FB
:101C50005D1508F0F0E00A2F050FE1E0051708F028
:101C6000E0E0FE2B6C0DA1E06C1508F0A0E01F2F4A
:101C7000160FE1E0161708F0E0E0AE2B7B0DF1E067
:101C80007B1508F0F0E0A70FE1E0A71708F0E0E00F
:101C9000FE2B8A0D91E08A1508F090E0F80FE1E044
:101CA000F81708F0E0E09E2BB80D392D4F2D502F7E
:101CB000612F7A2F8F2F9B0FE9E0AE2EBB24CC240F
:101CC000DD24EE24FF2400E010E00E949002952F16
:101CD000B901842F1F910F91FF90EF90DF90CF906B
:101CE000BF90AF909F908F900895AF92BF92CF9288
:101CF000DF92EF92FF920F931F935B016C0107C07D
:101D00000E94DF0D6E157F058007910720F40E9469
:101D1000DF0D7B018C010E94DF0D6E197F09800BA6
:101D2000910B6A157B058C059D0550F31F910F9152
:101D3000FF90EF90DF90CF90BF90AF9008958430E8
:101D4000910570F0BC0180E090E00E94D12126E670
:101D500036E646EE5FE30E945F220E94A52103C0A3
:101D6000BC01660F771F6150704061F06150704098
:101D700049F0FB01EE0FFF1F31978FB7F8943197B1
:101D8000F1F78FBF0895789484B7877F84BF10924E
:101D9000390910923A0910923B0910923C0984B516
:101DA000826084BD84B5816084BD85B5826085BD57
:101DB00085B5816085BDEEE6F0E08081816080833D
:101DC000E1E8F0E0808182608083808181608083AF
:101DD000E0E8F0E0808181608083E1EBF0E08081E9
:101DE00084608083E1E9F0E0808184608083E0EBBF
:101DF000F0E0808181608083E0E9F0E080818160B3
:101E00008083E4E6F0E080818E7F8083ECE7F0E081
:101E100080818F778083808180648083EAE7F0E02F
:101E200080818460808380818260808380818068FB
:101E300080831092C1001092C900089590915606B7
:101E4000982B9093560680FF32C0809164008E7F5D
:101E50008093640080917C008F7780937C008091D8
:101E60007C00806480937C0080917A008460809301
:101E70007A0080917A00826080937A0080917A0063
:101E8000806880937A00809164008F7780936400EB
:101E9000809164008B7F80936400809164008D7FCB
:101EA00080936400809165008E7F80936500089523
:101EB0001F920F920FB60F920BB60F9211242F9311
:101EC0003F934F935F936F937F938F939F93AF93C2
:101ED000BF93EF93FF93F89481E08093D403E0E6FF
:101EE000F0E080818068808380818F7B808383E0C5
:101EF00060E00E94D90F7894FF91EF91BF91AF916C
:101F00009F918F917F916F915F914F913F912F9111
:101F10000F900BBE0F900FBE0F901F901895282F9B
:101F200090917C0080917A00806880937A009F7005
:101F3000921769F080917C002F70807F822B8093B4
:101F40007C0061E070E080E090E00E94750E80917E
:101F50007A00806480937A0080917A0086FDFCCFBD
:101F60002091780040917900942F80E030E0282B78
:101F7000392BC9010895282F30E0C9018B5A9C4F95
:101F8000FC0194912E5D3C4FF9018491882381F0EE
:101F9000E82FF0E0E65FFC4FE491F0E0662329F4DF
:101FA000808190958923808308958081892B808307
:101FB0000895482F50E0CA0188579C4FFC01249196
:101FC000CA018B5A9C4FFC0194914E5D5C4FFA0103
:101FD00034913323C1F1222331F1233021F4809154
:101FE00080008F7705C0243031F4809180008F7D90
:101FF0008093800018C0213019F484B58F7704C015
:10200000223021F484B58F7D84BD0DC0263021F4AB
:102010008091B0008F7705C0273029F48091B000FF
:102020008F7D8093B000E32FF0E0EE5EFC4FE491F3
:10203000F0E0662329F480819095892380830895B8
:102040008081892B80830895482F50E0CA018857EA
:102050009C4FFC012491CA018B5A9C4FFC01949126
:102060004E5D5C4FFA013491332319F420E030E0E7
:1020700035C0222331F1233021F4809180008F7705
:1020800005C0243031F4809180008F7D80938000E2
:1020900018C0213019F484B58F7704C0223021F4A0
:1020A00084B58F7D84BD0DC0263021F48091B000B1
:1020B0008F7705C0273029F48091B0008F7D809301
:1020C000B000E32FF0E0E65EFC4FE491F0E08081A9
:1020D00020E030E0892311F021E030E0C9010895CB
:1020E0001F920F920FB60F920BB60F9211242F93DF
:1020F0003F934F935F936F937F938F939F93AF9390
:10210000BF93EF93FF934091C600E0915706F09183
:102110005806CF01019660E072E00E94F5229C0112
:102120008091590690915A062817390739F0EF5BCC
:10213000F44F40833093580620935706FF91EF9158
:10214000BF91AF919F918F917F916F915F914F91CF
:102150003F912F910F900BBE0F900FBE0F901F90CD
:1021600018951F920F920FB60F920BB60F92112473
:102170002F933F934F935F936F937F938F939F938F
:10218000AF93BF93EF93FF934091CE00E0915B0636
:10219000F0915C06CF01019660E072E00E94F522AA
:1021A0009C0180915D0690915E062817390739F0F1
:1021B000EF5BF64F408330935C0620935B06FF9104
:1021C000EF91BF91AF919F918F917F916F915F91AF
:1021D0004F913F912F910F900BBE0F900FBE0F901C
:1021E0001F901895982F662339F48091C00085FFC1
:1021F000FCCF9093C60008958091C80085FFFCCF66
:102200009093CE000895882341F48091C00085FF0B
:10221000FCCF8DE08093C60008C08091C80085FF88
:10222000FCCF8DE08093CE0008C08091C00085FF78
:10223000FCCF8AE08093C60008958091C80085FF96
:10224000FCCF8AE08093CE000895FC0110C0319647
:10225000662339F48091C00085FFFCCF9093C600BF
:1022600006C08091C80085FFFCCF9093CE0090817E
:10227000992369F708952F923F924F925F926F9240
:102280007F928F929F92AF92BF92CF92DF92EF9206
:10229000FF920F931F93DF93CF93CDB7DEB7A19734
:1022A0000FB6F894DEBF0FBECDBF6B017C012901D4
:1022B0003A0109A3611571058105910591F4002387
:1022C00041F48091C00085FFFCCF80E38093C6007D
:1022D0005BC08091C80085FFFCCF80E38093CE0077
:1022E00053C08824992454011E010894211C311CD8
:1022F0008101080D191DC701B601A30192010E94B9
:102300000823F80160830894811C911CA11CB11C56
:10231000C701B601A30192010E940823C901DA0195
:102320006C017D01C114D104E104F10409F79101AC
:10233000280D391DBE016F5F7F4FD501C401019784
:10234000A109B109AC01481959091BC0FA01E20FF2
:10235000F31FE081EA3010F4E05D01C0E95CF9A10F
:10236000FF2339F48091C00085FFFCCFE093C600C5
:1023700006C08091C80085FFFCCFE093CE002150BD
:1023800030406217730711F7A1960FB6F894DEBFBD
:102390000FBECDBFCF91DF911F910F91FF90EF90B6
:1023A000DF90CF90BF90AF909F908F907F906F9075
:1023B0005F904F903F902F900895EF92FF920F9370
:1023C0001F937B018C014423C1F588E00E941E0FFE
:1023D000C801B70122E030E040E050E00E942A232B
:1023E0002050304F414F5F4FCA01B901A8019701FA
:1023F0000E942A23C901DA010197A109B109292FF5
:102400003A2F4B2F552747FD5A950196A11DB11D17
:102410002093C50081508093C4008091C1008061E9
:102420008093C1008091C10088608093C100809139
:10243000C10080688093C10037C080E10E941E0FF8
:10244000C801B70122E030E040E050E00E942A23BA
:102450002050304F414F5F4FCA01B901A801970189
:102460000E942A23C901DA010197A109B109292F84
:102470003A2F4B2F552747FD5A950196A11DB11DA7
:102480002093CD0081508093CC008091C900806161
:102490008093C9008091C90088608093C9008091B1
:1024A000C90080688093C9001F910F91FF90EF9041
:1024B00008950E94C30E81E097E00E94D51A8534EA
:1024C00040F081E361E00E94BB0F81E361E00E9484
:1024D000D90F81E097E061E070E00E94DD1A813061
:1024E000B1F48091270990912809A0912909B09110
:1024F0002A0990688093270990932809A0932909B5
:10250000B0932A0981E090E060E00E944E2687E2C5
:102510000E942410892B09F44FC081E097E060E00D
:1025200070E00E94DD1A8A3009F046C083E696E02A
:102530000E94ED1883E696E00E94041783E696E079
:102540000E94B41880917C06482F50E080917E064E
:10255000481B510980917B06282F30E080917F062F
:10256000281B3109121613065CF48CE390E0BC01C1
:10257000269FC001279F900D369F900D11240EC0FD
:1025800037FF0EC08CE390E0BC01269FC001279F5F
:10259000900D369F900D1124805F914F480F591F69
:1025A0004330510548F48091360990913709806293
:1025B000909337098093360983E696E00E94ED18E0
:1025C00083E696E00E94A01583E696E00E948F15B0
:1025D00083E696E00E94161963E070E080E090E0E8
:1025E0000E94750E8091270990912809A0912909D0
:1025F000B0912A09A1FF5EC063E070E080E090E046
:102600000E94750E86E161E00E94BB0F63E070E0FE
:1026100080E090E00E94750E86E161E00E94D90F93
:1026200063E070E080E090E00E94750E0E944E1919
:1026300063E070E080E090E00E94750E81E00E940F
:10264000271963E070E080E090E00E94750E84E05E
:102650000E94351963E070E080E090E00E94750E02
:1026600080E00E94301963E070E080E090E00E941A
:10267000750E0E94231963E070E080E090E00E94F4
:10268000750E86EF96E066E00E946D1963E070E0DB
:1026900080E090E00E94750E86E161E00E94BB0F31
:1026A00086E160E00E94D90F63E070E080E090E096
:1026B0000E94750E63E070E080E090E00E94750E6D
:1026C00081E097E00E945A1C60935F067093600659
:1026D000809361069093620680915F0690916006F8
:1026E000A0916106B09162060E94D5230E94400924
:1026F0000E940509FDCFFC01148A158A168A178AE3
:10270000108E118E128E138E148E158E168E178EBD
:1027100010A211A212A213A280E090E0A0E0B0E00B
:1027200084A395A3A6A3B7A308951092F4061092CC
:1027300076060895EF92FF920F931F93DF93CF9346
:10274000CDB7DEB7EC970FB6F894DEBF0FBECDBFA6
:102750008C01EEEEF0E065917491B5E1EB2EF12C79
:10276000EC0EFD1EC7010E94E023E0EFF0E0659152
:102770007491CE0101960E94E023D80156968C9167
:10278000843009F46DC0853048F4823069F18330BB
:1027900008F048C0813009F000C10AC0863009F451
:1027A0009BC0863008F47AC0873009F0F6C0B2C00A
:1027B000EDB7FEB774970FB6F894FEBF0FBEEDBF2E
:1027C0003196075D1F4FADB7BEB712961C930E939F
:1027D00011970952104084E690E093838283F5823A
:1027E000E4828DEA92E0B3C08DB79EB744970FB6EE
:1027F000F8949EBF0FBE8DBFEDB7FEB73196075D53
:102800001F4FADB7BEB712961C930E931197095286
:10281000104084E690E093838283F582E48281EB2A
:1028200092E095C08DB79EB744970FB6F8949EBFBF
:102830000FBE8DBFEDB7FEB73196075D1F4FADB729
:10284000BEB712961C930E9311970952104084E65E
:1028500090E093838283F582E48285EB92E077C0F7
:102860008DB79EB744970FB6F8949EBF0FBE8DBF2D
:10287000EDB7FEB73196075D1F4FADB7BEB71296E5
:102880001C930E9311970952104084E690E09383B5
:102890008283F582E48289EB92E059C08DB79EB7BE
:1028A00044970FB6F8949EBF0FBE8DBFEDB7FEB72D
:1028B0003196075D1F4FADB7BEB712961C930E93AE
:1028C00011970952104084E690E093838283F58249
:1028D000E4828DEB92E03BC08DB79EB744970FB674
:1028E000F8949EBF0FBE8DBFEDB7FEB73196075D62
:1028F0001F4FADB7BEB712961C930E931197095296
:10290000104084E690E093838283F582E48281EC38
:1029100092E01DC08DB79EB744970FB6F8949EBF46
:102920000FBE8DBFEDB7FEB73196075D1F4FADB738
:10293000BEB712961C930E9311970952104084E66D
:1029400090E093838283F582E48285EC92E0978322
:102950008683D80154968C9154978087118655961A
:102960008C915597828713865A968C915A978487B3
:10297000158657968C9157978687178658968C910F
:102980005897808B118A59968C91828B138A0E945A
:10299000F223EDB7FEB774961DC000D000D000D072
:1029A000EDB7FEB73196075D1F4FADB7BEB71296B4
:1029B0001C930E9311970952104084E690E0938384
:1029C0008283CE010196958384830E94F223EDB722
:1029D000FEB736960FB6F894FEBF0FBEEDBF980156
:1029E000275D3F4FC901EC960FB6F894DEBF0FBECE
:1029F000CDBFCF91DF911F910F91FF90EF90089580
:102A00001F93CF93DF93EC01162F80914E078823FD
:102A100021F488E497E00E94111E88E497E068E6BC
:102A200070E00E94841C88E497E0612F0E949E1D44
:102A3000C10FD11D88E497E068810E949E1D88E443
:102A400097E00E94CD1DDF91CF911F910895FF92D5
:102A50000F931F93CF93DF938C01F62E80914E0737
:102A6000882321F488E497E00E94111E88E497E00F
:102A700068E670E00E94841C88E497E06F2D0E9455
:102A80009E1D88E497E00E94CD1D88E497E068E6EB
:102A900070E041E050E00E940E1EC0E0D0E088E40B
:102AA00097E00E948E1C882329F4CA30D10511F0CA
:102AB0002196F5CF88E497E00E94941C0F0D111D1C
:102AC000F801808388E497E00E94CD1DDF91CF91CB
:102AD0001F910F91FF9008950F931F938C016FE04A
:102AE0000E942715F801878583701F910F91089523
:102AF000CF93DF93EC010E946C15882319F0CE561A
:102B0000DF4F8883809172068C7F8093720683E604
:102B100096E06FE00E940015DF91CF9108950F932A
:102B20001F938C016EE00E942715F80186858D7F2A
:102B30008687C8016EE00E9400151F910F910895CD
:102B40000F931F938C016EE00E942715F801868574
:102B50008E7F8687C8016EE00E9400151F910F913D
:102B60000895AF92BF92CF92DF92FF920F931F937F
:102B7000CF93DF938C01F62E80914E07882321F4AA
:102B800088E497E00E94111E88E497E068E670E010
:102B90000E94841C88E497E060E070E00E94CA1DF7
:102BA00088E497E00E94CD1D88E497E068E670E035
:102BB00043E150E00E940E1EC0E0D0E0CC24DD24B2
:102BC000AF2CBB245AE0F52E0DC188E497E00E949B
:102BD0008E1C882309F403C188E497E00E94941CAA
:102BE000282FF801EC0FFD1F8083C630D10509F4B2
:102BF00082C0C730D105B8F4C230D10509F44EC047
:102C0000C330D10538F4209769F1C130D10509F0FE
:102C1000E4C036C0C430D10509F451C0C530D10577
:102C200008F05BC049C0CA30D10509F49BC0CB3065
:102C3000D10558F4C830D10509F478C090E02F7060
:102C4000C930D10508F081C064C0CC30D10509F489
:102C5000A7C0CC30D10508F494C0CD30D10509F01F
:102C6000BCC0ADC090E044E0959587954A95E1F7EA
:102C70008F9DC00111242F70280FF801218FADC046
:102C800090E034E0959587953A95E1F78F9DC001E6
:102C900011242F70280FF801208F9FC090E0B4E01E
:102CA00095958795BA95E1F78F9DC00111242F70F6
:102CB000280FF801278B91C0F801868B8EC090E019
:102CC000A4E095958795AA95E1F78F9DC001112401
:102CD0002F70280FF801228F80C090E0F4E09595C6
:102CE0008795FA95E1F78F9DC00111242F70280F69
:102CF000F801258B72C090E0E4E095958795EA9500
:102D0000E1F78F9DC00111242F70280FF801248B4B
:102D100064C074E0959587957A95E1F787708F9DEB
:102D2000C0011124280FF801238F57C090E064E000
:102D3000959587956A95E1F787708F9DC00111245D
:102D40002F70280FF801248F48C054E0959587957F
:102D50005A95E1F783708F9DC0011124280FF80167
:102D6000258F3BC090E044E0959587954A95E1F723
:102D700083708F9DC00111242F70280FF801268FBA
:102D80002CC090E034E0959587953A95E1F78770EF
:102D90008F9DC00111242F70280FF801278F1DC0AF
:102DA00090E0B4E095958795BA95E1F783708F9D93
:102DB000C00111242F70280FF80120A30EC090E04D
:102DC000A4E095958795AA95E1F783708F9DC00142
:102DD00011242F70280FF80121A3219603C0089415
:102DE000C11CD11CAC16BD0628F0FAE0CF16D104E8
:102DF00008F4EBCEDF91CF911F910F91FF90DF9000
:102E0000CF90BF90AF900895AF92BF92CF92DF92D4
:102E1000EF92FF920F931F93DF93CF93CDB7DEB75F
:102E2000C857D0400FB6F894DEBF0FBECDBF6C01BF
:102E30006AE00E94B11549E2A42EB12CAC0CBD1C75
:102E400084E6D5011D928A95E9F7ECECF0E06591F6
:102E500074918E010F5F1F4FC8010E94E023C501CE
:102E6000B8010E94E723F60182A1823009F476C0FE
:102E7000833030F4882371F0813009F03CC11AC0EE
:102E8000843009F4F2C0843008F4AEC0853009F013
:102E900032C127C1EEECF0E065917491C8010E9447
:102EA000E023C501B8010E94E723ECEDF0E0659155
:102EB00074910FC0E0EDF0E065917491C8010E943B
:102EC000E023C501B8010E94E723ECEDF0E0659135
:102ED00074918E01075D1F4FC8010E94E0238DB7DA
:102EE0009EB70E970FB6F8949EBF0FBE8DBFEDB77D
:102EF000FEB7319631E5E32EF12CEC0EFD1EADB799
:102F0000BEB71296FC92EE92119788E290E09383FE
:102F1000828315830483D6015E968C915E978683A7
:102F200017825D968C915D97808711865C968C9157
:102F30005C97828713865B968C91848715860E94A6
:102F4000F223EDB7FEB73E960FB6F894FEBF0FBE64
:102F5000EDBFC501B7010E94E723F3C0E2EDF0E049
:102F600065917491C8010E94E023C501B8010E94D7
:102F7000E723EEEDF0E0659174918E01075D1F4F40
:102F8000C8010E94E0238DB79EB70C970FB6F89446
:102F90009EBF0FBE8DBFEDB7FEB7319621E5E22E85
:102FA000F12CEC0EFD1EADB7BEB71296FC92EE9260
:102FB000119788E290E09383828315830483D6017E
:102FC0005D968C915D97868317825C968C915C9759
:102FD000808711865B968C91828713860E94F223EC
:102FE000EDB7FEB73C96B0CFE4EDF0E0659174919B
:102FF000C8010E94E023C501B8010E94E723E0EE6A
:10300000F0E0659174918E01075D1F4FC8010E9429
:10301000E0238DB79EB70A970FB6F8949EBF0FBEF8
:103020008DBFEDB7FEB7319691E5E92EF12CEC0E90
:10303000FD1EADB7BEB71296FC92EE92119788E2D4
:1030400090E09383828315830483D6015C968C91F0
:103050005C97868317825B968C91808711860E948D
:10306000F223EDB7FEB73A966FCFE6EDF0E065914B
:103070007491C8010E94E023C501B8010E94E723B2
:10308000E2EEF0E0659174918E01075D1F4FC8017B
:103090000E94E0238DB79EB708970FB6F8949EBFA5
:1030A0000FBE8DBFEDB7FEB7319681E5E82EF12C4E
:1030B000EC0EFD1EADB7BEB71296FC92EE921197C4
:1030C00088E290E09383828315830483D6015B9624
:1030D0008C91868317820E94F223EDB7FEB7389653
:1030E00033CFE8EDF0E065917491C8010E94E023D0
:1030F000C501B80130CFEAEDF0E0659174918E0121
:103100000F5F1F4FC8010E94E02300D000D000D005
:10311000EDB7FEB73196ADB7BEB71296BC92AE9280
:10312000119784E690E093838283158304830E9441
:10313000F223EDB7FEB736960FB6F894FEBF0FBE7A
:10314000EDBFC501C858DF4F0FB6F894DEBF0FBE04
:10315000CDBFCF91DF911F910F91FF90EF90DF9046
:10316000CF90BF90AF9008950F931F938C0166E0AE
:103170000E94B115C8010E949A131F910F910895E2
:103180000F931F93CF93DF93EC01042F68A780E385
:1031900061E00E94BB0F18A5112379F0113091F462
:1031A00080E361E00E94D90F013019F482E08B8B3B
:1031B00009C0002339F41B8B05C080E360E00E9446
:1031C000D90F1B8A6AE070E080E090E00E94750EE3
:1031D000DF91CF911F910F9108950F931F938C0151
:1031E00061E040E00E94C018C8010E947815C80143
:1031F0000E947B13C8016DE00E94B1158BE261E073
:103200000E94BB0F8BE260E00E94D90F1F910F91CB
:10321000089580914E07882341F0809164078823A8
:1032200021F489E697E00E94842108950F931F936B
:103230008C010E940919C80160E040E00E94C0189A
:103240001F910F9108958CB58F7B8CBD08958823B5
:1032500019F48CB5806202C08CB58F7D8CBD089549
:103260009CB5937F982B9CBD08959CB5282F237007
:103270009C7F292B2CBD9DB581709E7F982B9DBD79
:1032800008951092F7061092F6061092F806109222
:10329000F9061092FA061092FB0608958EE161E09D
:1032A0000E94BB0F8FE161E00E94BB0F8DE161E0E6
:1032B0000E94BB0F8EE160E00E94D90F8FE160E0B9
:1032C0000E94D90F8DE161E00E94D90F8CB5806119
:1032D0008CBD8CB580648CBD08951F93162F8DE135
:1032E00061E00E94BB0F82E261E00E94BB0F8DE1B2
:1032F00061E00E94D90F82E261E00E94D90F8091C3
:10330000270990912809A0912909B0912A09A2FFC3
:1033100008C088E061E00E94BB0F88E061E00E9485
:10332000D90F8091270990912809A0912909B0917E
:103330002A0996FF08C089E061E00E94BB0F89E07E
:1033400061E00E94D90F8091270990912809A091EE
:103350002909B0912A09A3FF08C082E061E00E9418
:10336000BB0F82E061E00E94D90F80912709909104
:103370002809A0912909B0912A09A4FF08C082E276
:1033800061E00E94BB0F82E261E00E94D90F13301E
:10339000C9F0143028F4113069F0123068F408C014
:1033A000153041F11530D0F0163009F062C02FC051
:1033B0008DE12BC082E229C081E097E00E94F21AE1
:1033C0008CE223C08091270990912809A0912909B6
:1033D000B0912A09A2FF4DC088E017C0809127094B
:1033E00090912809A0912909B0912A0996FF41C01E
:1033F00089E00BC08091270990912809A0912909A3
:10340000B0912A09A3FF35C082E060E030C08DE1B1
:1034100061E00E94D90F82E261E00E94D90F8091A1
:10342000270990912809A0912909B0912A09A2FFA2
:1034300004C088E061E00E94D90F80912709909133
:103440002809A0912909B0912A0996FF04C089E0B2
:1034500061E00E94D90F8091270990912809A091DD
:103460002909B0912A09A3FF04C082E061E00E940B
:10347000D90F1F9108951092FC060895CF93DF9302
:10348000EC018091270990912809A0912909B09118
:103490002A0982FF0BC063E070E080E090E00E94A8
:1034A000750E8BE061E00E94D90F06C063E070E00A
:1034B00080E090E00E94750E89818093C5008A812A
:1034C0008093C4008B818093C2008C818093CA005A
:1034D000DF91CF910895DC018091C50011968C9306
:1034E00011978091C40012968C931297E2ECF0E051
:1034F000808113968C9313978091CA0014968C93B5
:10350000149780818F7D808380818F7E80838081EE
:10351000877F808360E072EC81E090E04C910E94B4
:10352000DD1187E161E00E94D90F8BE060E00E942D
:10353000D90F0895EF92FF920F931F938C017B0197
:103540000E946B1AC701F80160810E942511F801E1
:1035500080810E940311C8010E943E1A1F910F91A1
:10356000FF90EF900895FC0160E072EC81E090E044
:1035700040810E94DD1187E161E00E94BB0F87E17D
:1035800061E00E94D90F8BE061E00E94BB0F8BE0ED
:1035900060E00E94D90F8DE261E00E94BB0F8DE2D6
:1035A00060E00E94D90F089508958FED90E00E9489
:1035B00040268F3F09F480E00895CB010E94402609
:1035C000089587E161E00E94BB0F8BE061E00E94FB
:1035D000BB0F87E161E00E94D90F8BE061E00E94A0
:1035E000D90F089587E161E00E94BB0F84E261E09A
:1035F0000E94BB0F85E261E00E94BB0F87E161E0A2
:103600000E94D90F84E261E00E94D90F85E261E057
:103610000E94D90F08950F931F93162F042F862F02
:1036200061E00E94BB0F013019F4812F61E004C0FA
:10363000002321F4812F60E00E94D90F1F910F9188
:1036400008952F923F924F925F926F927F928F9246
:103650009F92AF92BF92CF92DF92EF92FF920F9321
:103660001F93DF93CF93CDB7DEB7C75FD0400FB6C0
:10367000F894DEBF0FBECDBF2DB63EB68DB79EB758
:1036800008970FB6F8949EBF0FBE8DBFADB6BEB6FD
:103690000894A11CB11C7501CC24DD244E010894B2
:1036A000811C911CCE0180599F4FAEEF4A2EAFEF87
:1036B0005A2E480E591EF0E16F2E712C680E791E9D
:1036C000DE01A052BF4FC051DF4FB983A883C05F56
:1036D000D040FE013E96CE50DF4FF983E883C25FB3
:1036E000D040C4016DE00E94752081E097E06CE05D
:1036F00040E00E940B1B81E097E06DE040E00E94FB
:103700000B1BD7011D921D921D921C9213978CE0EA
:1037100061E00E94BB0F8CE061E00E94D90FC40100
:103720000E94AD2081E097E06DE041E00E940B1B1C
:103730006AE070E080E090E00E94750EC40163E3EF
:1037400040E00E94352062E370E080E090E00E945B
:10375000750E8E0102511F4FC4010E94CD1FF8014A
:103760008083118261E070E080E090E00E94750E3D
:10377000025010400415150579F7F301DE0150964B
:10378000819191918D939D93C051DF4F8881998153
:10379000C05FD040E817F90799F7BE0162597F4F23
:1037A00021E030E040E050E0DB018D919C910197F9
:1037B00079F4D7018D919D910D90BC91A02D820F30
:1037C000931FA41FB51FF70180839183A283B38346
:1037D00062507040CE50DF4F88819981C25FD040E7
:1037E0006817790729F0220F331F441F551FDCCFBC
:1037F000F70180819181A281B3818F5F9F4FAF4F8D
:10380000BF4F31F4D7011D921D921D921C92139748
:103810008CE060E00E94D90F81E097E06CE040E02E
:103820000E940B1B81E097E06DE040E00E940B1BC3
:103830000894C11CD11CE4E0F0E0EE0EFF1EF2E0A3
:10384000CF16D10409F04DCFD5012D913D914D9169
:103850005C91139714968D919D910D90BC91A02D24
:10386000281739074A075B0721F020E030E040E0E5
:1038700050E0B901CA010FB6F8943EBE0FBE2DBE8E
:10388000C950DF4F0FB6F894DEBF0FBECDBFCF914A
:10389000DF911F910F91FF90EF90DF90CF90BF903D
:1038A000AF909F908F907F906F905F904F903F90E0
:1038B0002F900895EF92FF920F931F930E94211B68
:1038C0007B018C016115710581059105B1F483EED1
:1038D00090E00E9448266A302AE072072AE08207B8
:1038E0002AE0920751F06F3F2FEF72072FEF820708
:1038F0002FEF920711F07B018C01B701C8011F91D6
:103900000F91FF90EF90089581E0809347076093B7
:1039100024071092450710924607089580912307C7
:1039200090912207891B0895909122078091230787
:10393000981710F080E00895E92FF0E0EE5FF84F5F
:1039400080819F5F90932207089510924F071092F5
:103950004807109249078AEF90E0A0E0B0E080931A
:103960004A0790934B07A0934C07B0934D070895D7
:10397000CF93DF93EC018091270990912809A091C2
:103980002909B0912A0984FD3CC0809127099091B2
:103990002809A0912909B0912A0985FD32C080919A
:1039A000270990912809A0912909B0912A0986FD3B
:1039B00028C08091270990912809A0912909B091E8
:1039C0002A0987FD1EC08091270990912809A0919E
:1039D0002909B0912A0990FD14C08091270990917E
:1039E0002809A0912909B0912A0991FD0AC0809166
:1039F000270990912809A0912909B0912A0993FFDC
:103A00001DC080914F07882339F489E697E060E074
:103A100041E00E9428210CC08981882331F489E685
:103A200097E060E041E00E9428218881882331F4FA
:103A300089E697E061E041E00E942821DF91CF9183
:103A40000895FC018091270990912809A0912909E6
:103A5000B0912A0981709070A070B07080838091BD
:103A6000270990912809A0912909B0912A09B695B2
:103A7000A79597958795817081838091270990916B
:103A80002809A0912909B0912A0984FD3CC08091A0
:103A9000270990912809A0912909B0912A0985FD4B
:103AA00032C08091270990912809A0912909B091ED
:103AB0002A0986FD28C08091270990912809A091A4
:103AC0002909B0912A0987FD1EC08091270990918C
:103AD0002809A0912909B0912A0990FD14C080916C
:103AE000270990912809A0912909B0912A0991FDEF
:103AF0000AC08091270990912809A0912909B091C5
:103B00002A0993FF10C080914F07882361F489E64A
:103B100097E060E040E00E94282189E697E061E0BC
:103B200040E00E94282108950F931F938C010E946A
:103B3000BF0AF80116821F910F910895DF93CF936A
:103B40000F92CDB7DEB7698380914707882389F04C
:103B5000809146078032D0F480914507E82FF0E04D
:103B6000EB5DF84F60838F5F809345078093460736
:103B70000DC088E497E00E94211DCE01019661E00E
:103B80000E94A40A88E497E00E94B81C0F90CF918D
:103B9000DF9108950E949E1D0895FF920F931F9339
:103BA00008E417E0C8010E94211D8091240765E206
:103BB00077E04091460721E00E94E40CF82E109235
:103BC00045071092460710924707C8010E94B81C8B
:103BD0008F2D1F910F91FF900895FF920F931F93C8
:103BE000F62E142F88E497E00E94211D012F113238
:103BF00008F000E28F2D62E077E0402F0E94490D2F
:103C0000182F109222070093230788E497E00E9460
:103C1000B81C812F1F910F91FF9008950E94ED1DF8
:103C200008950F931F938C0180E2E2E0F7E0DF013B
:103C3000982F1D929A95E9F7109222071092230768
:103C4000E5E2F7E0DF011D928A95E9F7109245075A
:103C5000109246070E94160B81E0F801868384E0EB
:103C600090E00E949F0E1F910F9108951F920F9256
:103C70000FB60F920BB60F9211242F933F934F93D1
:103C80005F936F937F938F939F93AF93BF93EF93C4
:103C9000FF938091500790915107892B29F0E09173
:103CA0005007F09151070995FF91EF91BF91AF91A6
:103CB0009F918F917F916F915F914F913F912F9144
:103CC0000F900BBE0F900FBE0F901F9018951F9274
:103CD0000F920FB60F920BB60F9211242F933F93B2
:103CE0004F935F936F937F938F939F93AF93BF9304
:103CF000EF93FF938091520790915307892B29F0FE
:103D0000E0915207F09153070995FF91EF91BF9110
:103D1000AF919F918F917F916F915F914F913F9163
:103D20002F910F900BBE0F900FBE0F901F90189504
:103D30001F920F920FB60F920BB60F9211242F9372
:103D40003F934F935F936F937F938F939F93AF9323
:103D5000BF93EF93FF938091540790915507892B60
:103D600029F0E0915407F09155070995FF91EF91E3
:103D7000BF91AF919F918F917F916F915F914F9183
:103D80003F912F910F900BBE0F900FBE0F901F9081
:103D900018951F920F920FB60F920BB60F92112427
:103DA0002F933F934F935F936F937F938F939F9343
:103DB000AF93BF93EF93FF9380915607909157076E
:103DC000892B29F0E0915607F09157070995FF914B
:103DD000EF91BF91AF919F918F917F916F915F9183
:103DE0004F913F912F910F900BBE0F900FBE0F90F0
:103DF0001F9018951F920F920FB60F920BB60F924D
:103E000011242F933F934F935F936F937F938F93DF
:103E10009F93AF93BF93EF93FF9380915807909137
:103E20005907892B29F0E0915807F0915907099516
:103E3000FF91EF91BF91AF919F918F917F916F9182
:103E40005F914F913F912F910F900BBE0F900FBE3E
:103E50000F901F9018951F920F920FB60F920BB6EE
:103E60000F9211242F933F934F935F936F937F9300
:103E70008F939F93AF93BF93EF93FF9380915A07D4
:103E800090915B07892B29F0E0915A07F0915B072D
:103E90000995FF91EF91BF91AF919F918F917F9184
:103EA0006F915F914F913F912F910F900BBE0F90AB
:103EB0000FBE0F901F9018951F920F920FB60F9282
:103EC0000BB60F9211242F933F934F935F936F93F1
:103ED0007F938F939F93AF93BF93EF93FF938091C3
:103EE0005C0790915D07892B29F0E0915C07F091C8
:103EF0005D070995FF91EF91BF91AF919F918F91D0
:103F00007F916F915F914F913F912F910F900BBED9
:103F10000F900FBE0F901F9018951F920F920FB623
:103F20000F920BB60F9211242F933F934F935F93F1
:103F30006F937F938F939F93AF93BF93EF93FF9371
:103F400080915E0790915F07892B29F0E0915E07D1
:103F5000F0915F070995FF91EF91BF91AF919F910C
:103F60008F917F916F915F914F913F912F910F9022
:103F70000BBE0F900FBE0F901F9018951092650703
:103F800082E0809361078CE18093660780EC91E08A
:103F900090936807809367070895DF92EF92FF92EE
:103FA0000F931F93FC01E08001811281F894F801C6
:103FB00081818E2981838281DE2CD0948D21828320
:103FC00082E090E00E949F0EF80181818D21818323
:103FD00087E090E00E949F0EF801008178948DE2C6
:103FE00090E00E949F0E80E010E0FF240E211F2130
:103FF000012B09F081E01F910F91FF90EF90DF906E
:1040000008951F93CF93DF93FC011081C181D2816A
:10401000912F909560FF12C0F8948A8189238A833A
:104020008981812B898389E090E00E949F0E8A819B
:10403000812B8A8378948FE290E011C0F8948A8172
:1040400089238A838981812B898387E390E00E9479
:104050009F0E8A81812B8A83789485E090E00E946C
:104060009F0EDF91CF911F910895CF92DF92EF9233
:10407000FF920F931F93CF93DF938C01E42EFF24C5
:10408000F394C0E0D0E0C62EDD2460E08F2D90E0F8
:104090008C219D21892B09F061E0C8010E9401203B
:1040A000FF0C2196C830D10581F7EE20A9F4F894D1
:1040B000D8011196ED91FC91129791818C91809588
:1040C000982391831196ED91FC91129792818C9196
:1040D0008095982392837894DF91CF911F910F91CF
:1040E000FF90EF90DF90CF9008950F931F938C0176
:1040F000862FD8011E966C9360E00E94BB0FD801FA
:104100001E96EC911E978E2F90E0FC01EB5AFC4F0F
:10411000E491EC938E5D9C4FFC018491E82FF0E0DC
:10412000E65EFC4FE4911196EC93119712961C9267
:1041300012971B961C921B971D961C921D971C96FE
:104140001C92F80187E090E012863197009711F0F9
:104150000197FACF1F910F910895CF92DF92EF92BE
:10416000FF920F931F93CF93DF93EC018E8560E056
:104170000E94BB0F0E94DF0D7B018C018DE7D82EC2
:10418000DA942FEFD21609F441C082E090E00E9449
:104190009F0E0E94DF0D6E157F058007910720F4AA
:1041A0000E94DF0D7B018C018E850E942410892BDB
:1041B000B9F50E94DF0D6E197F09800B910B645FCA
:1041C00071408040904060F5DBCF0E94DF0D7B01A5
:1041D0008C01CD28D1F10E94DF0D6E197F09800B73
:1041E000910B645F71408040904080F48E850E9406
:1041F00024106C0189E090E00E949F0E0E94DF0D68
:104200006E157F058007910720F7DFCF80E0DF91F3
:10421000CF911F910F91FF90EF90DF90CF90089575
:104220008E8561E00E94BB0F8E8560E00E94D90FF1
:1042300084E591E00E949F0E0E94DF0D7B018C01BE
:104240008E850E942410892B31F681E0E0CF0895FD
:104250000F931F93062F142F8AE161E00E94BB0F7A
:1042600088E161E00E94BB0F002321F0013009F0DA
:1042700048C020C0112371F48AE161E00E94D90F87
:104280008091270990912809A0912909B0912A09C4
:1042900082602FC01130A9F58AE160E00E94D90F39
:1042A0008091270990912809A0912909B0912A09A4
:1042B0008D7F1FC0112371F488E161E00E94D90F46
:1042C0008091270990912809A0912909B0912A0984
:1042D00081600FC01130A9F488E160E00E94D90F1D
:1042E0008091270990912809A0912909B0912A0964
:1042F0008E7F8093270990932809A0932909B09372
:104300002A091F910F91089589E261E00E94BB0F75
:1043100088E261E00E94BB0F88E497E00E94941D50
:10432000089510927D07109284071092860789E104
:104330008093090910920C0910920D0910920F092F
:104340001092030910920209089598D088F09F579F
:1043500090F0B92F9927B751A0F0D1F0660F771FD1
:10436000881F991F1AF0BA95C9F712C0B13081F0B1
:104370009FD0B1E008959CC0672F782F8827B85F41
:1043800039F0B93FCCF3869577956795B395D9F712
:104390003EF490958095709561957F4F8F4F9F4F1C
:1043A0000895E89409C097FB3EF490958095709528
:1043B00061957F4F8F4F9F4F9923A9F0F92F96E971
:1043C000BB279395F695879577956795B795F111E6
:1043D000F8CFFAF4BB0F11F460FF1BC06F5F7F4F83
:1043E0008F4F9F4F16C0882311F096E911C0772395
:1043F00021F09EE8872F762F05C0662371F096E89E
:10440000862F70E060E02AF09A95660F771F881F6C
:10441000DAF7880F9695879597F9089597F99F672A
:1044200080E870E060E008959FEF80EC089500243C
:104430000A941616170618060906089500240A9409
:1044400012161306140605060895092E0394000C8F
:1044500011F4882352F0BB0F40F4BF2B11F460FF1E
:1044600004C06F5F7F4F8F4F9F4F089557FD905847
:10447000440F551F59F05F3F71F04795880F97FB28
:10448000991F61F09F3F79F08795089512161306E2
:104490001406551FF2CF4695F1DF08C01616170611
:1044A0001806991FF1CF8695710561050894089546
:1044B000E894BB2766277727CB0197F908950BD09F
:1044C000C4CFB5DF28F0BADF18F0952309F0A6CFE6
:1044D000ABCF1124EECFCADFA0F3959FD1F3950F98
:1044E00050E0551F629FF001729FBB27F00DB11D78
:1044F000639FAA27F00DB11DAA1F649F6627B00D08
:10450000A11D661F829F2227B00DA11D621F739FF0
:10451000B00DA11D621F839FA00D611D221F749FFE
:104520003327A00D611D231F849F600D211D822F45
:10453000762F6A2F11249F5750408AF0E1F088238C
:104540004AF0EE0FFF1FBB1F661F771F881F915099
:104550005040A9F79E3F510570F060CFAACF5F3F52
:10456000ECF3983EDCF3869577956795B795F795CC
:10457000E7959F5FC1F7FE2B880F911D9695879554
:1045800097F90895629FD001739FF001829FE00D1B
:10459000F11D649FE00DF11D929FF00D839FF00DC2
:1045A000749FF00D659FF00D9927729FB00DE11D6E
:1045B000F91F639FB00DE11DF91FBD01CF0111244B
:1045C0000895AA1BBB1B51E107C0AA1FBB1FA6175A
:1045D000B70710F0A61BB70B881F991F5A95A9F7AC
:1045E00080959095BC01CD01089597FB092E072673
:1045F0000AD077FD04D0E5DF06D000201AF47095CC
:1046000061957F4F0895F6F7909581959F4F089596
:10461000A1E21A2EAA1BBB1BFD010DC0AA1FBB1FC6
:10462000EE1FFF1FA217B307E407F50720F0A21B38
:10463000B30BE40BF50B661F771F881F991F1A94A5
:1046400069F760957095809590959B01AC01BD01CF
:10465000CF01089597FB092E05260ED057FD04D0F3
:10466000D7DF0AD0001C38F450954095309521953D
:104670003F4F4F4F5F4F0895F6F790958095709597
:1046800061957F4F8F4F9F4F08952F923F924F928A
:104690005F926F927F928F929F92AF92BF92CF92D2
:1046A000DF92EF92FF920F931F93CF93DF93CDB7DB
:1046B000DEB7CA1BDB0B0FB6F894DEBF0FBECDBF53
:1046C00009942A88398848885F846E847D848C8424
:1046D0009B84AA84B984C884DF80EE80FD800C812D
:1046E0001B81AA81B981CE0FD11D0FB6F894DEBF10
:1046F0000FBECDBFED010895EE0FFF1F0590F491A1
:10470000E02D0994AF92BF92CF92DF92EF92FF9289
:104710000F931F93CF93DF93EC01688179818A8196
:104720009B81611571058105910521F464E279EDA4
:104730008BE597E02DE133EF41E050E00E942A2322
:1047400079018A0127EA31E440E050E00E94C22268
:104750005B016C01C801B7012CEE34EF4FEF5FEF46
:104760000E94C2226A0D7B1D8C1D9D1D97FF04C0F7
:104770006150704080409048688379838A839B832E
:104780007F77CB01DF91CF911F910F91FF90EF9039
:10479000DF90CF90BF90AF9008950E94822308953C
:1047A00080ED93E00E9482230895A0E0B0E0809322
:1047B000D0039093D103A093D203B093D303089571
:1047C000FB01DC0105900D920020E1F70895FB014B
:1047D000DC010D900020E9F7119701900D92002067
:1047E000E1F708950F931F93DF93CF93CDB7DEB713
:1047F0002E970FB6F894DEBF0FBECDBF0D891E8970
:104800008F89988D26E02C831A83098397FF02C035
:1048100080E090E801979E838D839E01255E3F4F47
:10482000CE010196698D7A8DA9010E9430244D81B7
:104830005E8157FD0AC02F813885421753070CF45B
:104840009A01020F131FF80110822E960FB6F894EA
:10485000DEBF0FBECDBFCF91DF911F910F910895A5
:104860002F923F924F925F926F927F928F929F9280
:10487000AF92BF92CF92DF92EF92FF920F931F936E
:10488000DF93CF93CDB7DEB72C970FB6F894DEBF8A
:104890000FBECDBF6C011B018A01FC01178216827D
:1048A000838181FFD1C12E010894411C511CF60166
:1048B0009381F10193FD859193FF81911F018823DD
:1048C00009F4BEC1853239F493FD859193FF81913E
:1048D0001F01853229F490E0B6010E947226E7CFCD
:1048E000EE24FF2420E02032B0F48B3269F08C32C9
:1048F00028F4803251F0833271F40BC08D3239F0DC
:10490000803349F421602CC02260246029C02860D3
:1049100027C0206125C027FD2CC0382F30533A30E6
:1049200098F426FF08C08E2D880FE82EEE0CEE0CB2
:10493000E80EE30E15C08F2D880FF82EFF0CFF0C2C
:10494000F80EF30E20620CC08E3221F426FD78C1E1
:10495000206406C08C3611F4206802C0883649F401
:10496000F10193FD859193FF81911F01882309F047
:10497000BACF982F9554933018F09052933028F472
:104980000C5F1F4FFFE3F9830DC0833631F083378F
:1049900071F0833509F060C022C0F80180818983FD
:1049A0000E5F1F4F420171E0A72EB12C16C062E0CE
:1049B000662E712C600E711EF8018080918026FF9A
:1049C00003C06E2D70E002C06FEF7FEFC4012C8733
:1049D0000E9467265C0183012C852F7717C052E067
:1049E000652E712C600E711EF8018080918026FF6B
:1049F00003C06E2D70E002C06FEF7FEFC4012C8703
:104A00000E945C265C012C852068830123FD20C068
:104A100008C080E290E0B6012C870E947226FA94CA
:104A20002C858F2D90E0A816B90698F311C0F401DB
:104A300027FD859127FF81914F0190E0B6012C87DA
:104A40000E9472262C85F110FA940894A108B108EE
:104A5000A114B10461F7F1C0843611F0893649F52B
:104A600027FF08C0F80160817181828193810C5F0A
:104A70001F4F09C0F80160817181882777FD8095FB
:104A8000982F0E5F1F4F4FE6B42EB22297FF09C03A
:104A900090958095709561957F4F8F4F9F4FF0E86F
:104AA000BF2AA2012AE030E00E949E26782E7418C8
:104AB00045C0853731F43FEEB32EB2222AE030E014
:104AC00025C099EFB92EB2228F36C1F0803720F47D
:104AD000883509F0B5C00DC0803721F0883709F05E
:104AE000AFC002C020E1B22AB4FE0BC084E0B82AF5
:104AF00008C0B4FE09C0E6E0BE2A06C028E030E0E7
:104B000005C020E130E002C020E132E0B7FE08C07D
:104B1000F80160817181828193810C5F1F4F07C012
:104B2000F8016081718180E090E00E5F1F4FA2016B
:104B30000E949E26782E7418FFE7BF22B6FE0BC097
:104B40002EEFB2227E1438F4B4FE07C0B2FC05C0CA
:104B50008FEEB82202C0A72C01C0AE2C8B2D90E0A6
:104B6000B4FE0DC0FE01E70DF11D2081203319F4C4
:104B7000E9EEBE2209C0A394B2FE06C004C0867846
:104B80009070009709F0A3948B2C9924B3FC14C067
:104B9000B0FE0FC0AF1428F4E72CEF0CEA18AF2CCE
:104BA00008C0E72C06C080E290E0B6010E947226A1
:104BB000A394AF14C0F304C0AF1410F4FA1801C0EA
:104BC000FF2484FE0FC080E390E0B6010E947226AD
:104BD00082FE1FC081FE03C088E590E010C088E718
:104BE00090E00DC0C40186789070009791F081FC30
:104BF00002C080E201C08BE2B7FC8DE290E0B6011A
:104C00000E94722606C080E390E0B6010E947226E0
:104C1000EA947E14C0F37A94F201E70DF11D8081CD
:104C200090E0B6010E9472267720A9F706C080E2C4
:104C300090E0B6010E947226FA94FF20C1F737CEA9
:104C4000F6012681378102C02FEF3FEFC9012C9674
:104C50000FB6F894DEBF0FBECDBFCF91DF911F918D
:104C60000F91FF90EF90DF90CF90BF90AF909F900B
:104C70008F907F906F905F904F903F902F9008950E
:104C8000F999FECF92BD81BDF89A992780B5089514
:104C9000A6E1B0E044E050E00C94FE26262FF999FE
:104CA000FECF1FBA92BD81BD20BD0FB6F894FA9A0F
:104CB000F99A0FBE01960895FC010590615070406D
:104CC0000110D8F7809590958E0F9F1F0895FC01D5
:104CD0006150704001900110D8F7809590958E0F2B
:104CE0009F1F08950F931F93CF93DF938C01EB01C8
:104CF0008B8181FF1BC082FF0DC02E813F818C8183
:104D00009D812817390764F4E881F9810193F983BB
:104D1000E88306C0E885F985802F0995009731F46E
:104D20008E819F8101969F838E8302C00FEF1FEFBC
:104D3000C801DF91CF911F910F910895FA01AA2721
:104D4000283051F1203181F1E8946F936E7F6E5FCE
:104D50007F4F8F4F9F4FAF4FB1E03ED0B4E03CD07C
:104D6000670F781F891F9A1FA11D680F791F8A1F5F
:104D7000911DA11D6A0F711D811D911DA11D20D0C6
:104D800009F468943F912AE0269F11243019305D80
:104D90003193DEF6CF010895462F4770405D419371
:104DA000B3E00FD0C9F7F6CF462F4F70405D4A33BE
:104DB00018F0495D31FD4052419302D0A9F7EACF86
:104DC000B4E0A6959795879577956795BA95C9F7B5
:104DD00000976105710508959B01AC010A2E0694A8
:104DE0005795479537952795BA95C9F7620F731F61
:104DF000841F951FA01D0895DC01CB01FC01F999CA
:104E0000FECF06C0F2BDE1BDF89A319600B40D9216
:0C4E100041505040B8F70895F894FFCFCF
:104E1C00446174612066726F6D20616E616C6F67A6
:104E2C003120696E7075743A20000A004461746117
:104E3C002066726F6D20616E616C6F673220696ED7
:104E4C007075743A200052532D32333220736572D0
:104E5C0069616C20636F6D6D756E69636174696FE8
:104E6C006E2070726F7065726C7920696E697469EE
:104E7C00616C697A65642E0048656C6C6F2C2074CB
:104E8C006869732069732052532D32333220636F5B
:104E9C006D6D756E69636174696F6E2073656E6498
:104EAC00206578616D706C65212000496E76616CAF
:104EBC00696420474D542076616C75650053756E9E
:104ECC00004D6F6E0054756500576564005468752D
:104EDC000046726900536174003A3A3A3A3A3A0021
:104EEC000001020203030303040404040404040485
:104EFC000505050505050505050505050505050556
:104F0C000606060606060606060606060606060635
:104F1C000606060606060606060606060606060625
:104F2C000707070707070707070707070707070705
:104F3C0007070707070707070707070707070707F5
:104F4C0007070707070707070707070707070707E5
:104F5C0007070707070707070707070707070707D5
:104F6C0008080808080808080808080808080808B5
:104F7C0008080808080808080808080808080808A5
:104F8C000808080808080808080808080808080895
:104F9C000808080808080808080808080808080885
:104FAC000808080808080808080808080808080875
:104FBC000808080808080808080808080808080865
:104FCC000808080808080808080808080808080855
:104FDC000808080808080808080808080808080845
:064FEC00010000000100BD
:00000001FF
