:100000000C9416030C9496280C94C7280C94F8288A
:100010000C9429290C945A290C948B290C94BC29F2
:100020000C94ED290C943E030C943E030C943E0377
:100030000C9445180C943E030C943E030C94A716A4
:100040000C943E030C943E030C943E030C943E032C
:100050000C943E030C943E030C943E030C948216C5
:100060000C943E030C94A4190C943E030C943E0390
:100070000C943E030C943E030C943E030C943E03FC
:100080000C943E030C943E030C943E030C943E03EC
:100090000C94E5190C943E030C943E030C947C14D0
:1000A0000C943E030C943E030C943E030C943E03CC
:1000B0000C943E030C943E030C943E030C943E03BC
:1000C0000C943E030C943E030C943E035072696EF4
:1000D00074696E67204C61737420696E7175697202
:1000E00079207361766564206F6E20454550524FCC
:1000F0004D3A004E6577207363616E206174204D28
:10010000415820545820706F776572005072696EA4
:1001100074696E67204C61737420696E71756972C1
:1001200079207361766564206F6E20454550524F8B
:100130004D3A004E6577207363616E20666F7220C2
:1001400035732E2E00424C455F3031204578616D6D
:10015000706C65008C019501A301C801DC01E90107
:10016000FD0111027802AC02C402CF02E002F102EA
:1001700004031103424C45206D6F64756C65206E5D
:100180006F7420646574656374656400303030306A
:1001900030373043005363616E20706172616D735C
:1001A0003A200031253032782530327825303278C7
:1001B0002530327825303278253032783B2025645E
:1001C0003B2025753B0D0A00443A25782578257893
:1001D0002578257825783B2025642C003B20496E26
:1001E0006465783D25750D0A0053746F7020666153
:1001F000696C2E206572723A2025780A005363617B
:100200006E206661696C2E206572723A2025780A2C
:10021000005363616E20706172616D733A204741D3
:1002200050206D6F64653D25753B207363616E5F83
:10023000696E74657276616C3D25753A20736361F1
:100240006E5F77696E646F773D25753B20736361E0
:100250006E5F6475706C69636174655F66696C7408
:100260006572696E673D25753B205458506F776500
:10027000723D25753B0D0A0044657669636520254E
:10028000753B20253032782530327825303278257C
:1002900030327825303278253032783B2052535333
:1002A000493A25643B204E616D653A006572726F74
:1002B000722077726974696E672E206572723A20B7
:1002C00025780A00092065633A2025780D0A004147
:1002D000444376616C28484558293A25780D0A0030
:1002E00041444376616C28444543293A25640D0A0C
:1002F0000041444356616C6D5628444543293A25D4
:10030000730D0A00546128444543293A25730D0AA8
:100310000041747472696275746520257520496E98
:1003200064696361746564210D0A00A203B603DC8D
:1003300003030423043B04490459046E0484049514
:1003400004A104A804C504E304F904070517053A49
:1003500005400557726F6E672074696D6520666F82
:10036000726D61742E204D75737420626520226455
:10037000643A68683A6D6D220057726F6E67207438
:10038000696D6520666F726D61742E204D75737492
:10039000206265202264643A68683A6D6D3A73732E
:1003A0002200416C61726D204D6F6465206D617437
:1003B0006368657320005B446179203A20686F753B
:1003C0007273203A206D696E75746573203A2073DC
:1003D00065636F6E64735D202D3E20005B44617425
:1003E00065203A20686F757273203A206D696E75CA
:1003F000746573203A207365636F6E64735D202D9E
:100400003E20005B486F757273203A206D696E75EF
:10041000746573203A207365636F6E64735D202D7D
:100420003E20005B4D696E75746573203A207365DC
:10043000636F6E64735D202D3E20005B5365636FB8
:100440006E64735D202D3E20004F6E6365207065E5
:1004500072207365636F6E6400496E636F727265BC
:10046000637420616C61726D206D6F6465005B2543
:100470003032753A253032753A253032753A2530AA
:1004800032755D005B253032753A253032753A257C
:100490003032755D005B253032753A253032755D3E
:1004A000005B253032755D005B446179203A20683D
:1004B0006F757273203A206D696E75746573205D77
:1004C000202D3E20005B44617465203A20686F75E2
:1004D0007273203A206D696E75746573205D202DEE
:1004E0003E20005B486F757273203A206D696E750F
:1004F0007465735D202D3E20005B4D696E757465DB
:10050000735D202D3E20004F6E6365207065722064
:100510006D696E7574650025732C20253032752F3A
:10052000253032752F253032752C20253032753A22
:10053000253032753A25303275006572726F72005F
:1005400025303275256325303275256325303275A7
:1005500025632530327525632530327525632530B6
:10056000327525632530327500002124272A2D306D
:1005700033002225282B2E313400202326292C2F2E
:100580003205050505030303030101010404030605
:100590000606060606060601040501050103020219
:1005A000020202020102020505040403040401031D
:1005B00004070707010208101020408004081020DB
:1005C00040020204081020408001028020400420E4
:1005D000010102040810200140804080010208044B
:1005E0000880041004020100000809000000000057
:1005F00000000000000000000000000000000000FB
:1006000000000000000000000000000000000000EA
:1006100000000000000000000000D00BF41CA0222D
:100620009A232B2505271E2A872BF12B11241FBE69
:10063000CFEFD1E2DEBFCDBF13E0A0E0B2E0E6E84D
:10064000F3E602C005900D92A236B107D9F71BE080
:10065000A2E6B3E001C01D92A83FB107E1F716E0A2
:10066000CCE2D6E004C02297FE010E94DE2DCA3102
:10067000D107C9F70E94B81B0C94C1310C9400003B
:10068000EF92FF920F93DF93CF93CDB7DEB76097D2
:100690000FB6F894DEBF0FBECDBFA82F002309F41C
:1006A00061C07E010894E11CF11C88E0F701119201
:1006B0008A95E9F729833A834B835C836D837E8334
:1006C000AF83988780E2801BE82FFF27E7FDF09536
:1006D00049815A816B817C81181684F019861A86AB
:1006E0001B861C86882799278E1B9F0B04C0440FEE
:1006F000551F661F771F8A95D2F728C0202F3327F2
:1007000027FD3095DB01CA01022E04C0880F991F16
:10071000AA1FBB1F0A94D2F789879A87AB87BC8729
:1007200004C07695679557954795EA95D2F78D81E0
:100730009E81AF81B88504C0880F991FAA1FBB1F77
:100740002A95D2F7482B592B6A2B7B2B4D875E8736
:100750006F87788B29853A854B855C856D857E858D
:10076000AF8598898A2F60960FB6F894DEBF0FBECA
:10077000CDBFCF91DF910F91FF90EF900895AEE53F
:10078000B0E0E5ECF3E00C94A52DA8E04E01089450
:10079000811C911CF4016A2E11926A94E9F7298355
:1007A0003A834B835C836D837E838F839887CE01EE
:1007B0000996FC011192AA95E9F7A986BA86CB861B
:1007C000DC86ED86FE860F87188B29843A844B845D
:1007D0005C84ED84FE840F85188969807A808B8023
:1007E0009C806DA67EA68FA698AA6D807E808F8045
:1007F0009884E114F1040105110509F0B3C36214F2
:1008000073048404950408F03DC100E0201600E064
:10081000300601E0400600E0500688F41FEF211684
:1008200031044104510439F030F048E0E42EF12C59
:10083000012D112D18C0EE24FF24870114C020E0E3
:10084000221620E0320620E0420621E0520630F077
:1008500038E1E32EF12C012D112D05C020E1E22E0F
:10086000F12C012D112DD201C1010E2C04C0B69521
:10087000A795979587950A94D2F7845A9D4FDC01E6
:100880002C9180E290E0A0E0B0E08E199F09A00BCF
:10089000B10B7C018D01E21AF10801091109E11483
:1008A000F10401051105A1F10E2C04C0220C331C2A
:1008B000441C551C0A94D2F7A40193010E2C04C0C9
:1008C000220F331F441F551F0A94D2F780E290E095
:1008D0008E199F096DA47EA48FA498A804C0969435
:1008E0008794779467948A95D2F7622A732A842A28
:1008F000952AADA4BEA4CFA4D8A804C0AA0CBB1C42
:10090000CC1CDD1CEA94D2F7ADA6BEA6CFA6D8AA11
:100910006201EE24FF24CDAADEAAEFAAF8AE92016E
:1009200081012070307009AF1AAF2BAF3CAFC4010A
:10093000B301A70196010E94682D7B018C01C401BF
:10094000B3012DA93EA94FA958AD0E94682DC90138
:10095000DA013C014D01C401B30129AD3AAD4BAD03
:100960005CAD0E94222D9B01AC018701FF24EE2487
:10097000ADA4BEA4CFA4D8A8C601AA27BB275701FF
:100980006801A82AB92ACA2ADB2AA216B306C40615
:10099000D506E0F408946108710881089108A20C5A
:1009A000B31CC41CD51CA214B304C404D50470F039
:1009B000A216B306C406D50648F408946108710867
:1009C00081089108A20CB31CC41CD51CA21AB30A3E
:1009D000C40AD50AC601B5012DA93EA94FA958AD33
:1009E0000E94682D7B018C01C601B5012DA93EA98D
:1009F0004FA958AD0E94682DC901DA015C016D0153
:100A0000C601B50129AD3AAD4BAD5CAD0E94222DBA
:100A10009B01AC018701FF24EE248DA59EA5AFA507
:100A2000B8A9A070B070E82AF92A0A2B1B2BE2168D
:100A3000F30604071507C0F40894A108B108C1081B
:100A4000D108E20CF31C041D151DE214F304040587
:100A5000150550F0E216F3060407150728F408946C
:100A6000A108B108C108D108D301992788278601B8
:100A70007501E82AF92A0A2B1B2BE9AAFAAA0BAB63
:100A80001CABCFC4211431044104510471F461E062
:100A900070E080E090E020E030E040E050E00E9434
:100AA000682DC901DA011C012D0100E0201600E0CB
:100AB000300601E0400600E0500688F41FEF2116E2
:100AC00031044104510431F028F048E050E060E086
:100AD00070E017C040E050E060E070E012C020E03D
:100AE000221620E0320620E0420621E0520628F0DD
:100AF00048E150E060E070E004C040E150E060E0B8
:100B000070E0D201C101042E04C0B695A795979557
:100B100087950A94D2F7845A9D4FDC012C91E0E22C
:100B2000EE2EF12C012D112DD801C701841B950B40
:100B3000A60BB70B821B9109A109B1090097A1056A
:100B4000B10561F464015301A218B308C408D508C3
:100B500031E0632E712C812C912C1EC16F968FAFCA
:100B60006F97082E04C0220C331C441C551C0A9499
:100B7000D2F7EE2DE81B640153010E2E04C0D6946B
:100B8000C794B794A7940A94D2F7A40193016F96DF
:100B90000FAC6F9704C0220F331F441F551F0A94D8
:100BA000D2F76DA47EA48FA498A80E2E04C09694AC
:100BB0008794779467940A94D2F784017301E22AA8
:100BC000F32A042B152BE9A6FAA60BA71CA73201C2
:100BD00088249924920181012070307021960CAFF5
:100BE0001DAF2EAF3FAF2197C601B501A401930100
:100BF0000E94682D7B018C01C601B501A4019301FF
:100C00000E94682DC901DA0125968CAF9DAFAEAF69
:100C1000BFAF2597BC01CD0121962CAD3DAD4EADAA
:100C20005FAD21970E94222D9B01AC018701FF241B
:100C3000EE24A9A4BAA4CBA4DCA4C601AA27BB278E
:100C40005C016D01AE28BF28C02AD12AA216B306C6
:100C5000C406D50660F525966CAD7DAD8EAD9FAD15
:100C60002597615070408040904025966CAF7DAFD5
:100C70008EAF9FAF2597A20CB31CC41CD51CA21429
:100C8000B304C404D50498F0A216B306C406D5066E
:100C900070F4615070408040904025966CAF7DAFFD
:100CA0008EAF9FAF2597A20CB31CC41CD51CA21AF3
:100CB000B30AC40AD50AC601B501A40193010E9472
:100CC000682D7B018C01C601B501A40193010E942E
:100CD000682DC901DA013C014D01C401B30121961F
:100CE0002CAD3DAD4EAD5FAD21970E94222D9B01F5
:100CF000AC018701FF24EE2489A59AA5ABA5BCA56C
:100D0000A070B07057016801A82AB92ACA2ADB2A44
:100D1000A216B306C406D506E0F40894610871086B
:100D200081089108A20CB31CC41CD51CA214B304E6
:100D3000C404D50470F0A216B306C406D50648F460
:100D400008946108710881089108A20CB31CC41CA6
:100D5000D51C8DA59EA5AFA5B8A96F960FAC6F97B2
:100D600004C0880F991FAA1FBB1F0A94D2F78DA732
:100D70009EA7AFA7B8ABA21AB30AC40AD50A259694
:100D8000ECACFDAC0EAD1FAD2597D7019927882798
:100D9000682A792A8A2A9B2A8201222733272996C0
:100DA0000CAF1DAF2EAF3FAF2997A201910140704C
:100DB00050702D962CAF3DAF4EAF5FAF2D97C60153
:100DC000B50129962CAD3DAD4EAD5FAD29970E9482
:100DD000682D7B018C01C601B50129962CAD3DAD76
:100DE0004EAD5FAD29970E94682DC901DA01619669
:100DF0008CAF9DAFAEAFBFAF6197BC01CD012D965B
:100E00002CAD3DAD4EAD5FAD2D970E94222D9B01C7
:100E1000AC018701FF24EE24ADA4BEA4CFA4D8A8C2
:100E2000C601AA27BB2757016801A82AB92ACA2ADE
:100E3000DB2AA216B306C406D50660F561966CAD32
:100E40007DAD8EAD9FAD6197615070408040904008
:100E500061966CAF7DAF8EAF9FAF6197A20CB31C54
:100E6000C41CD51CA214B304C404D50498F0A21663
:100E7000B306C406D50670F46150704080409040BF
:100E800061966CAF7DAF8EAF9FAF6197A20CB31C24
:100E9000C41CD51CA21AB30AC40AD50AC601B501DE
:100EA00029962CAD3DAD4EAD5FAD29970E94682DC2
:100EB0007B018C01C601B50129962CAD3DAD4EAD2F
:100EC0005FAD29970E94682DC901DA015C016D01AF
:100ED000C601B5012D962CAD3DAD4EAD5FAD2D9744
:100EE0000E94222D9B01AC018701FF24EE248DA5D9
:100EF0009EA5AFA5B8A9A070B070E82AF92A0A2B60
:100F00001B2BE216F30604071507C0F40894A1088A
:100F1000B108C108D108E20CF31C041D151DE21430
:100F2000F3040405150550F0E216F306040715074F
:100F300028F40894A108B108C108D1086196ECAC66
:100F4000FDAC0EAD1FAD6197D7019927882796019B
:100F50008501082B192B2A2B3B2B09AB1AAB2BAB8A
:100F60003CAB62C26E147F048006910608F451C245
:100F700020E0E21620E0F20621E0020720E012075E
:100F800088F43FEFE316F1040105110531F028F074
:100F900048E050E060E070E017C040E050E060E002
:100FA00070E012C040E0E41640E0F40640E00407C0
:100FB00041E0140728F048E150E060E070E004C030
:100FC00040E150E060E070E0D801C701042E04C0A9
:100FD000B695A795979587950A94D2F7845A9D4F11
:100FE000DC012C9130E2A32EB12CC12CD12CD601E6
:100FF000C501841B950BA60BB70B821B9109A10998
:10100000B1090097A105B10589F4E614F7040805B4
:10101000190508F4F2C16DA47EA48FA498A86214E7
:1010200073048404950408F0E8C1F3C16E968FAF91
:101030006E97082E04C0EE0CFF1C001F111F0A94AF
:10104000D2F76A2D681BD201C101062E04C0B695E5
:10105000A795979587950A94D2F75C016D01AE2804
:10106000BF28C02AD12AADA2BEA2CFA2D8A67201A3
:1010700061016E960FAC6E9704C0CC0CDD1CEE1CAB
:10108000FF1C0A94D2F7C9A2DAA2EBA2FCA2640167
:101090005301062E04C0D694C794B794A7940A941B
:1010A000D2F7D401C3016E960FAC6E9704C0880FBF
:1010B000991FAA1FBB1F0A94D2F7EDA4FEA40FA587
:1010C00018A904C016950795F794E7946A95D2F786
:1010D00037014801682A792A8A2A9B2A6D8E7E8EDA
:1010E0008F8E98A2EDA0FEA00FA118A5380188242C
:1010F0009924980187012070307065960CAF1DAF60
:101100002EAF3FAF6597C601B501A40193010E94C0
:10111000682D7B018C01C601B501A40193010E94D9
:10112000682DC901DA011C012D01C201B1016596CA
:101130002CAD3DAD4EAD5FAD65970E94222D9B015C
:10114000AC018701FF24EE24AD8CBE8CCF8CD8A0DF
:10115000C601AA27BB2757016801A82AB92ACA2AAB
:10116000DB2AA216B306C406D50600F508942108AA
:10117000310841085108EDA0FEA00FA118A5AE0C42
:10118000BF1CC01ED11EAE14BF04C006D10670F035
:10119000A216B306C406D50648F4089421083108FF
:1011A00041085108AE0CBF1CC01ED11EA21AB30AC2
:1011B000C40AD50AC601B501A40193010E94682D95
:1011C0007B018C01C601B501A40193010E94682D29
:1011D000C901DA013C014D01C401B30165962CAD92
:1011E0003DAD4EAD5FAD65970E94222D9B01AC01D8
:1011F0008701FF24EE248D8D9E8DAF8DB8A1A07048
:10120000B07057016801A82AB92ACA2ADB2AA21697
:10121000B306C406D50600F5089461087108810874
:1012200091086DA17EA18FA198A5A60EB71EC81E1C
:10123000D91EA616B706C806D90670F0A216B306C0
:10124000C406D50648F4089461087108810891081D
:10125000A60EB71EC81ED91ED601C501821B930B50
:10126000A40BB50B898F9A8FAB8FBC8FD1019927B7
:10127000882764015301A82AB92ACA2ADB2AA9AA05
:10128000BAAACBAADCAA860175012FEF3FEF40E096
:1012900050E0E222F32204231523A60166277727D4
:1012A0006D964CAF5DAF6EAF7FAF6D97A9A0BAA042
:1012B000CBA0DCA06FEF7FEF80E090E0A622B7220A
:1012C000C822D92289A19AA1ABA1BCA11D014424A5
:1012D0005524C801B701A60195010E94222D6996E7
:1012E0006CAF7DAF8EAF9FAF6997C801B701A20108
:1012F00091010E94222D3B014C016D966CAD7DAD9C
:101300008EAD9FAD6D97A60195010E94222D7B01A8
:101310008C016D966CAD7DAD8EAD9FAD6D97A201CC
:1013200091010E94222D5B016C01A8019701260DFD
:10133000371D481D591D69966CAC7DAC8EAC9FACB9
:101340006997C401AA27BB27280F391F4A1F5B1FB3
:101350002E153F054007510748F4E12CF12C61E0C0
:10136000062F112DAE0CBF1CC01ED11ECA01AA270C
:10137000BB27BC01CD016A0D7B1D8C1D9D1D698C99
:101380007A8C8B8C9C8C661677068806990640F1C1
:10139000661577058805990509F043C0D901992795
:1013A000882769962CAD3DAD4EAD5FAD6997407015
:1013B0005070820F931FA41FB51F2DA53EA54FA5EA
:1013C00058A96E960FAC6E9704C0220F331F441FAE
:1013D000551F0A94D2F7281739074A075B0708F503
:1013E00009A91AA92BA93CA901501040204030405E
:1013F00009AB1AAB2BAB3CAB14C06624772443017A
:1014000021E030E040E050E029AB3AAB4BAB5CABC5
:101410000BC066247724430119AA1AAA1BAA1CAA86
:1014200003C0662477244301FE01719688E0DF0142
:101430001D928A95E9F7A9A8BAA8CBA8DCA8A98A21
:10144000BA8ACB8ADC8A6D8A7E8A8F8A988E29A98D
:101450003A894B895C89662D7E898F89988DC25A1D
:10146000DF4FE2E10C94C12DAF92BF92CF92DF9299
:10147000EF92FF920F931F9303EB15E0C80163E314
:1014800071E00E94372423E6E22E23E0F22EC7010A
:1014900065E00E94D21190E0A92E92E0B92EC80119
:1014A000B5010E94A62440911504509116046627A8
:1014B00057FD6095762FC8012AE030E00E94BB24DA
:1014C000C8010E94F923C8016CE071E00E94372432
:1014D000C7010E942D0E8093620385E1C82E82E031
:1014E000D82EC801B6010E94A6244091620350E0A4
:1014F00060E070E0C8012AE030E00E94BB24C8012F
:101500000E94F923C80163EF70E00E943724C701ED
:1015100065E04FE00E948113C801B5010E94A62436
:101520004091150450911604662757FD6095762F5B
:10153000C8012AE030E00E94BB24C8010E94F923C0
:10154000C8016CEC70E00E943724C7010E942D0E88
:1015500080936203C801B6010E94A62440916203F1
:1015600050E060E070E0C8012AE030E00E94BB2457
:10157000C8010E94F9231F910F91FF90EF90DF9017
:10158000CF90BF90AF90089583EB95E065E471E054
:101590000E94372483E693E060E00E94AA12089537
:1015A000FC01E950FF4F8081E75FF040882309F498
:1015B000C4C0E750FF4F8081E95FF040882309F500
:1015C000E650FF4F80818230A1F0833030F48823D1
:1015D00071F0813009F0B1C008C0843071F08430FE
:1015E00050F0853009F0A9C00AC082E0089581E07A
:1015F000089583E0089584E0089585E0089586E0E5
:101600000895813041F4E650FF4F8081882309F02E
:1016100094C087E00895823089F4E650FF4F8081BE
:10162000813031F0813030F0823009F086C004C062
:1016300089E0089588E008958AE008958330E9F408
:10164000E650FF4F8081823091F0833030F4882360
:1016500061F0813009F071C006C0833051F08430F0
:1016600009F06BC008C08CE008958BE008958DE010
:1016700008958EE008958FE00895843011F5E650C6
:10168000FF4F80818330A9F0843028F4813059F0F5
:10169000823068F40AC0853081F0853060F0863091
:1016A00009F04BC00CC081E1089580E1089582E10A
:1016B000089583E1089584E1089585E1089586E120
:1016C00008958530D9F4E650FF4F8081823081F053
:1016D000833028F4882351F0813079F505C08330B8
:1016E00049F0843051F508C088E1089587E10895F4
:1016F00089E108958AE108958BE10895863059F4CF
:10170000E650FF4F8081882321F08130B1F48DE1D4
:1017100008958CE10895873081F4E650FF4F808171
:10172000813029F0813028F0823039F404C08FE113
:1017300008958EE1089580E2089580E00895CF93A2
:10174000DF93FC0180E092ECA1E0B0E08083918324
:10175000A283B383E055FF4F11821082E05BF0401B
:10176000CF018A5B9F4FDC0186E0ED0119928A95DB
:10177000E9F7EB5AFF4F8FE08083399782E081933E
:10178000119211928BE4819382E3819311921082E2
:10179000389680E094E091838083DF91CF91089523
:1017A00083E693E00E949F0B0895CF93DF93EC01B3
:1017B0008D599F4FFC018FE1DF011D928A95E9F75A
:1017C000CE57DF4F2881C258D04081E056C0FE017D
:1017D000E80FF11DEE57FF4F90818F5FFE01E80F7C
:1017E000F11DEE57FF4FE081482F4F5FE930F1F4D4
:1017F000E92F903208F0EFE190E02E2F30E02150F9
:1018000030400CC0AC0FBD1FAD59BF4FFE01E80FFB
:10181000F11DEE57FF4F80818C939F5F892F840FBE
:10182000A92FB0E0A217B3076CF325C0E830F9F494
:10183000E92F903208F0EFE190E02E2F30E02150B8
:1018400030400CC0AC0FBD1FAD59BF4FFE01E80FBB
:10185000F11DEE57FF4F80818C939F5F892F840F7E
:10186000A92FB0E0A217B3076CF382E00AC0892F5A
:10187000840F815002C081E004C0821708F4A7CF12
:1018800080E0DF91CF9108958F929F92AF92BF92A7
:10189000CF92DF92EF92FF920F931F93CF93DF933C
:1018A000EC014A015B018C0109501F4F81E4D80112
:1018B0001D928A95E9F762C08C810E9431190497C4
:1018C0000CF455C08C810E945519F8018083803832
:1018D00009F04DC08C810E9455198E0108501F4F90
:1018E000D8018C938C810E945519C750DF4F888393
:1018F000C95FD0408C810E945519C650DF4F888344
:10190000CA5FD0400E94CC166B017C018C810E9482
:101910003119F801208130E0821793070CF04EC096
:101920000E94CC166C197D098E099F0968157905EE
:101930008A059B0508F042C00E94CC166C157D05F7
:101940008E059F0518F7DECF8C810E945519D701AF
:101950008D937D010F5F1F4F02341105F9F0F601E1
:10196000808190E003968017910774F717C00E945A
:10197000CC166C157D058E059F0520F40E94CC16B3
:101980006B017C010E94CC166C197D098E099F09A0
:10199000681579058A059B0508F48ECFCE010E9453
:1019A000D00ADF91CF911F910F91FF90EF90DF90C0
:1019B000CF90BF90AF909F908F9008959BEFE92EAE
:1019C000F12CEC0EFD1E04E010E088EFC82ED12CA7
:1019D000CC0EDD1EC4CFBF92CF92DF92EF92FF926A
:1019E0000F931F93CF93DF93EC01C62EB42E059671
:1019F000FC0181E4DF011D928A95E9F70E94CC1673
:101A00007B018C01DD2418C08C810E945519FE01D8
:101A1000ED0DF11D8583D394DC1438F5B0E4BD15CC
:101A200020F10E94CC166E157F058007910720F4E7
:101A30000E94CC167B018C01DC1428F08C810E9462
:101A40003119892B91F00E94CC166E197F09800BF9
:101A5000910B643171058105910538F48C810E94E8
:101A600031191816190684F2DCCFDE01A055BF4FDC
:101A700081E0B81661F4FE01ED0DF11D948180E066
:101A8000238130E0822B932B8D939C9302C01D9277
:101A90001C92DD2041F4C055DF4F8FEF9FEF9983FB
:101AA0008883C05BD040FE01E055FF4F808191816B
:101AB000DF91CF911F910F91FF90EF90DF90CF902A
:101AC000BF900895CF93DF93EC018C818823A1F41C
:101AD00088EB95E00E944125688179818A819B810C
:101AE0004C810E943C1B8C810E9490198FE261E026
:101AF0000E947C188FE215C08130B1F488EB95E02C
:101B00000E945225688179818A819B814C810E9443
:101B10003C1B8C810E94901984E061E00E947C183B
:101B200084E061E00E949A188C81882351F48091AE
:101B3000DE079091DF07A091E007B091E107846094
:101B40000BC0813089F48091DE079091DF07A0916E
:101B5000E007B091E10788608093DE079093DF078C
:101B6000A093E007B093E107CE0148EE53E060E0B8
:101B700070E00E94440C8E3109F481E0DF91CF9136
:101B80000895EF92FF920F931F93DF93CF93CDB7FA
:101B9000DEB7C857D0400FB6F894DEBF0FBECDBF3A
:101BA0008C0119821A821B821C82FE01359684E701
:101BB000DF011D928A95E9F7E2E6F1E06591749103
:101BC0007E010894E11CF11CC7010E94402E8DB7D4
:101BD0009EB70E970FB6F8949EBF0FBE8DBFEDB7A0
:101BE000FEB7319683EB95E0ADB7BEB712969C93E6
:101BF0008E931197F382E282045B1F4FD8018C9180
:101C0000848315820D5F1F4FD8018D918D018683CE
:101C100017828C91808711860C5F1F4FD8018D91A0
:101C2000828713868C91848715860E9465248DB7E0
:101C30009EB70E960FB6F8949EBF0FBE8DBFC858C4
:101C4000DF4F0FB6F894DEBF0FBECDBFCF91DF914F
:101C50001F910F91FF90EF9008952F923F924F9216
:101C60005F926F927F928F929F92AF92BF92CF922C
:101C7000DF92EF92FF920F931F93DF93CF93CDB735
:101C8000DEB7C356D0400FB6F894DEBF0FBECDBF4F
:101C90008C010E94C10DA12C34E0B32E44245524A4
:101CA0002CE5622E712C600E711EC801835A9F4F65
:101CB00064969FAF8EAF6497D801AE59BF4F6696BA
:101CC000BFAFAEAF6697F801ED59FF4F6896FFAF13
:101CD000EEAF6897CE010596A4969FAF8EAFA497FE
:101CE000E4E6F1E0A591B4916A96BFAFAEAF6A9712
:101CF000F801E25AFF4F6C96FFAFEEAF6C97C80148
:101D0000815A9F4F6E969FAF8EAF6E97D801A05AA3
:101D1000BF4FA096BFAFAEAFA097F801EF59FF4FEE
:101D2000A296FFAFEEAFA29762964FAE629788EB96
:101D300095E0B5010E943425D3018C937501B5015E
:101D40006F5F7F4F88EB95E00E943425982F649653
:101D5000EEADFFAD64978083D3018C91803F19F085
:101D60004301DD2403C0903FD9F7C2C085010F5F56
:101D70001F4F88EB95E0B5010E943425F401819353
:101D80004F01D3945801F6E0DF1681F78701095F10
:101D90001F4F86E090E0E80EF91E88EB95E0B70152
:101DA0000E9434256696AEADBFAD66978C9368965B
:101DB0008EAC9FAC68976401E0E2F0E0EE0EFF1E8F
:101DC00018010894211C311C88EB95E0B8010E9491
:101DD0003425D6018D936D0181012E143F0481F7C6
:101DE000510119821A821B821C82A496EEADFFADAE
:101DF000A4978CE411928A95E9F7CE0101966A9630
:101E00006EAD7FAD6A970E94402EADB7BEB75497B6
:101E10000FB6F894BEBF0FBEADBFEDB7FEB731969B
:101E200083EB95E012969C938E931197A1E0B0E01E
:101E3000AC0FBD1FB383A28355824482D3018C9122
:101E4000868317826496AEADBFAD64978C91808710
:101E500011866C96AEADBFAD6C978C918287138660
:101E60006E96AEADBFAD6E978C9184871586A096A9
:101E7000AEADBFADA0978C9186871786A296AEAD0A
:101E8000BFADA2978C91808B118A6696AEADBFAD27
:101E900066978C91992787FD9095938B828B0E94F2
:101EA000652410E0EDB7FEB774960FB6F894FEBF48
:101EB0000FBEEDBF83EB95E0D4016D914D010E9403
:101EC00052241F5F1F31B1F783EB95E00E94F92385
:101ED0006296BFAD6297BF5F6296BFAF629708948C
:101EE000411C511CE4E42E16E7E03E0609F01CCF2D
:101EF00062968FAD6297CD59DF4F0FB6F894DEBF73
:101F00000FBECDBFCF91DF911F910F91FF90EF904A
:101F1000DF90CF90BF90AF909F908F907F906F9009
:101F20005F904F903F902F900895AF92BF92CF92C5
:101F3000DF92EF92FF920F931F93CF93DF937C0179
:101F40005AE5C52ED12CC80ED91EF601808191818B
:101F50008F51974019F420E030E053C08701045AB4
:101F60001F4FE60142E6A42EB12CAE0CBF1C6881C7
:101F7000798188EB95E0F80141918F010E94382525
:101F8000688179816F5F7F4F798368830A151B05AC
:101F900071F788EB95E0F80140810E943825F60141
:101FA0008081918101969183808387010D591F4F14
:101FB000E701C65ADF4F82E890E0E80EF91E68811B
:101FC000798188EB95E0F80141918F010E943825D5
:101FD000688179816F5F7F4F798368830E151F0554
:101FE00071F788EB95E040EF0E9438256881798190
:101FF0006F5F7F4F88EB95E040EF0E94382521E02E
:1020000030E0C901DF91CF911F910F91FF90EF90C8
:10201000DF90CF90BF90AF900895DF92EF92FF9244
:102020000F931F93CF93DF93EC01C950DF4F88814B
:10203000C75FD040803839F0C750DF4F8881C95F13
:10204000D040863041F47CE5E72EF12CEC0EFD1EED
:10205000D70195E009C0C650DF4F8881CA5FD040E4
:10206000882389F380E068C0FE01E90FF11DE35089
:10207000FF4F80818D939150B8F7FE01EE59FF4FCD
:10208000C550DF4F888180832A962881C550D14072
:10209000203208F02FE1CE018E579F4FFC0181E2E4
:1020A000DF011D928A95E9F730E0422F50E00AC027
:1020B000FE01E80FF91FEB5FFE4F8081E358F0400F
:1020C00080833F5F832F90E0481759078CF761307A
:1020D00029F4CE010E94D50BD82E0BC09E012D599C
:1020E0003F4FC90160E270E04FE150E00E94542E82
:1020F000DD248E010A5B1F4FC701B80146E050E0A6
:102100000E94472E0097B9F0FE01EE54FF4F8081E8
:102110009181019691838083D801F70186E0019037
:102120000D928150E1F7CE016D2D0E94950F892B04
:1021300011F482E001C081E0DF91CF911F910F91F6
:10214000FF90EF90DF9008956F927F929F92AF92F1
:10215000BF92CF92DF92EF92FF920F931F93DF9384
:10216000CF93CDB7DEB75C01F62EE42ED22EC02E73
:10217000912E6DB67EB68CE3861718F421E030E020
:1021800052C0262F30E02B5F3F4FEDB7FEB7E21B6A
:10219000F30B0FB6F894FEBF0FBEEDBF0DB71EB721
:1021A0000F5F1F4FC80160E070E0A9010E94542E2C
:1021B000F4E0FF0EF801F082FCEFFF0EF80111824F
:1021C000F282E382D482FF2021F4F5E0EF2EF12C9D
:1021D00015C0D8018C2D992D9C01F901819115967E
:1021E0008C93159711968E2F8C198F15B8F3FA943E
:1021F000EF2CFF2486E090E0E80EF91EF5018481C3
:102200000E949019DD2408C0E00FF11F8081F501C4
:1022100064810E94261AD394ED2DF0E0EE15FF059F
:1022200098F320E030E0C9010FB6F8947EBE0FBEEF
:102230006DBECF91DF911F910F91FF90EF90DF90D6
:10224000CF90BF90AF909F907F906F900895BF9276
:10225000CF92DF92EF92FF920F931F93DF93CF9372
:1022600000D00F92CDB7DEB77C01D62EC42EB22E91
:1022700069834A832B8363E046E026E08E010F5F8B
:102280001F4F0E94A410C70166E041E00E94EB0CC2
:1022900020EB30E0E20EF31EF7018081918120E512
:1022A0003FEFE20EF31E892B91F481E590E0E80EFA
:1022B000F91EF701D1927F01C08222E030E0E20EE8
:1022C000F31EF701B0822CEA3FEFE20EF31EF70196
:1022D000E055FF4F808191810F900F900F90CF912B
:1022E000DF911F910F91FF90EF90DF90CF90BF9003
:1022F0000895FC01262FDC01AE5ABF4FEF5AFF4F65
:1023000060814C910E9427110895EF92FF920F93E4
:102310001F937C0160E046E024E000E010E00E94B2
:10232000A410C70166E041E00E94EB0C1F910F91E1
:10233000FF90EF900895FF920F931F93CF93DF9339
:10234000EC010E948511CE0161E00E947911892B78
:1023500019F0E2E0FE2E07C0CC5ADF4F81E08883FF
:10236000C455D040FF248E01065A1F4FF8016081EA
:10237000718188EB95E040EF0E943825F80160817B
:1023800071816F5F7F4F88EB95E040EF0E943825A9
:1023900080E0FF2009F481E0DF91CF911F910F9140
:1023A000FF900895AF92BF92CF92DF92EF92FF928B
:1023B0000F931F93CF93DF93EC01D62E32EBE32ED6
:1023C000F12CE80EF91ED7011D921C928A5B9F4FDB
:1023D000FC0186E0DF011D928A95E9F78E01065A1D
:1023E0001F4F80E094E0F8019183808388EB95E0B3
:1023F00060E074E040EF0E943825D8016D917C9137
:102400006F5F7F4F88EB95E040EF0E9438258E018B
:102410000C5A1F4FF8018081813081F0CE0161E0BC
:102420000E947911892B21F481E0D8018C9306C098
:102430008FEF9FEFF7019183808310C08E01045BC3
:102440001F4FCE0161E046E022E00E94A410CE01C1
:1024500066E041E00E94EB0C892B31F0FE01E05573
:10246000FF4F8081918148C08D2D90E028EE33E0B0
:10247000AC01429FC001439F900D529F900D1124CB
:102480005C01CC24B7FCC094DC2C51EEA51653E9BA
:10249000B50654E0C50650E0D506E0F020EEA22EC9
:1024A00023E9B22E24E0C22ED12C14C0CE0148EE76
:1024B00053E060E070E00E94440C8C3121F4CE01C6
:1024C00060E00E940D100E94CC166E157F058007FB
:1024D000910720F40E94CC167B018C010E94CC163F
:1024E0006E197F09800B910B6A157B058C059D0584
:1024F000E8F2CE010E948511DF91CF911F910F91DB
:10250000FF90EF90DF90CF90BF90AF900895EF9243
:10251000FF920F931F937C0161E049E020E000E00F
:1025200010E00E94A41064EF71E080E090E00E944F
:102530006217C70148EE53E060E070E00E94440C6F
:1025400090E0813009F491E0892F1F910F91FF9065
:10255000EF900895CF93DF93EC01623018F081E0A3
:102560008C8301C06C838C81882331F486E161E027
:102570000E947C1886E107C0813041F486E061E06A
:102580000E947C1886E061E00E949A1864E670E080
:1025900080E090E00E946217CE010E94620D8130BF
:1025A000A1F1C850DF4F8881C85FD0408C3071F4F2
:1025B000C750DF4F8881C95FD040882339F4C650A7
:1025C000DF4F8881CA5FD0408823F9F0CE010E9496
:1025D00087128823D1F483EB95E064E771E00E94D1
:1025E000372488EB95E06CE041E00E946B2560E3C6
:1025F00075E780E090E00E94621788EB95E06CE060
:1026000040E00E946B2580E003C0CE010E949B1138
:10261000DF91CF910895AF92BF92DF92EF92FF9238
:102620000F931F93DF93CF93CDB7DEB765970FB6A8
:10263000F894DEBF0FBECDBF5C016D8B603110F032
:102640008FE08D8B19821A821B821C8246E0D42E69
:10265000FE013596DF018D2D1D928A95E9F7C501A2
:1026600061E047E02CE08E010B5E1F4F0E94A4103A
:10267000C50164E040E00E94EB0CB5016B5F7F4F49
:1026800088EB95E07E010894E11CF11CA70124E091
:102690000E94F9241B861C861D861E86FE013F961D
:1026A000DF011D92DA94E9F7E4E5F1E065917491B8
:1026B0008E01055F1F4FC8010E94402EC701B8015F
:1026C0000E94662E009719F021E030E009C0E5E590
:1026D000F0E0AE0EBF1E8D89D5018C9320E030E076
:1026E000C90165960FB6F894DEBF0FBECDBFCF917E
:1026F000DF911F910F91FF90EF90DF90BF90AF900F
:102700000895FF920F931F938C01F62E642F0E9461
:102710000B13C8016F2D0E94D2111F910F91FF90D2
:102720000895482F613210F081E0089580919D0452
:10273000843011F082E008956093E604A5ECB4E0E3
:10274000842F9C01F90102C081918D938E2F841BEF
:102750008617D0F380E00895589859988091B90071
:1027600081608093B9008091B90082608093B90044
:102770008091BC0080688093BC008091BC00806127
:102780008093BC008091BC008F7B8093BC008091C3
:10279000BC008F7D8093BC008091BC00877F8093BC
:1027A000BC008091DE079091DF07A091E007B09117
:1027B000E10786FD14C08091DE079091DF07A091AC
:1027C000E007B091E10790FD0AC08091DE0790918B
:1027D000DF07A091E007B091E10793FF04C080916B
:1027E000BC008B7F03C08091BC0084608093BC00E0
:1027F0008091BC008E7F8093BC00809164008068D3
:1028000080936400089510929D04E4E6F0E08081D6
:102810008F778083589A599AE9EBF0E080818E7F18
:10282000808380818D7F808381E48093B80085E4FC
:102830008093BC0080E2E3EAF4E0DF01982F1D9270
:102840009A95E9F7E5ECF4E0DF01982F1D929A954F
:10285000E9F7E7EEF4E0DF011D928A95E9F70895C4
:10286000882349F01092090510920A0510920B0571
:1028700010920C0513C08091090590910A05A09152
:102880000B05B0910C050196A11DB11D80930905A2
:1028900090930A05A0930B05B0930C058091090550
:1028A00090910A05A0910B05B0910C05805A9648AD
:1028B000A140B04010F480E00895109209051092F4
:1028C0000A0510920B0510920C050E94031481E07A
:1028D000089585ED8093BC0081E00E94301405C00E
:1028E00080E00E943014882321F48091BC0084FD94
:1028F000F7CF10929D0408951F920F920FB60F927A
:102900000BB60F9211242F933F934F935F936F93C6
:102910007F938F939F93AF93BF93EF93FF93809198
:10292000B90090E0887F90708036910509F4C3C0AB
:1029300081369105CCF58832910509F47BC0893246
:102940009105B4F48031910509F46FC0813191058E
:102950003CF4009709F40EC1089709F00FC165C057
:102960008831910509F466C0809709F007C177C0E6
:102970008034910509F48DC08134910544F480338D
:10298000910509F472C0C89709F0F8C072C080358B
:10299000910509F472C08835910509F47FC0883427
:1029A000910509F0EBC0E8C08839910509F4D8C059
:1029B00089399105ECF48837910509F47CC0893791
:1029C00091054CF48836910509F475C0803791055E
:1029D00009F0D4C070C08838910509F4C1C08039AD
:1029E000910509F46EC08038910509F0C7C069C02F
:1029F000803B910509F48CC0813B91054CF4803AF1
:102A0000910509F470C0883A910509F0B7C080C0FB
:102A1000803C910509F4A8C0883C910509F4A4C044
:102A2000883B910509F0AAC088C080919E048093DC
:102A3000BB0013C09091C3048091C404981708F0A0
:102A40009BC09091C304E92FF0E0ED55FB4F8081CE
:102A50008093BB009F5F9093C30485EC82C00E946B
:102A6000691480E28093080589C080E3809308059B
:102A700083C088E38093080577C08091C304909158
:102A8000BB00E82FF0E0ED55FB4F90838F5F809304
:102A9000C3049091C3048091C4045FC08091C304B7
:102AA0009091BB00E82FF0E0ED55FB4F90838F5FD6
:102AB0008093C30461C083E080939D041092070556
:102AC000CCCF80910705803208F04AC0809107057D
:102AD0009091BB00E82FF0E0E951FB4F90838F5FAE
:102AE00080930705BACF80910705803230F4E091DA
:102AF0000705F0E0E951FB4F108260910705E09176
:102B0000A104F091A20487EE94E070E009952CC036
:102B100084E080939D041092E5041092E604E09115
:102B20009F04F091A00409958091E604882329F47C
:102B300081E08093E6041092C5049091E504E92FAA
:102B4000F0E0EB53FB4F80818093BB009F5F90933D
:102B5000E5049091E5048091E604981708F47DCF90
:102B600085E88093BC000AC085EC8093BC0010927D
:102B70009D0404C0109208050E946914FF91EF9112
:102B8000BF91AF919F918F917F916F915F914F9185
:102B90003F912F910F900BBE0F900FBE0F901F9083
:102BA0001895DF92EF92FF920F931F93E82E062F56
:102BB000F72E142FD22E413210F081E051C081E067
:102BC0000E94301405C080E00E943014882321F454
:102BD00080919D048823B9F782E080939D048FEF54
:102BE000809308051092C3041093C404A3EAB4E0D0
:102BF000202F3F2DC901FC0102C081918D938E2FA2
:102C0000801B8117D0F38E2D90E0880F991F809341
:102C10009E0485EE8093BC0081E00E943014DD208C
:102C200041F40BC080E00E943014882311F085E04D
:102C300017C080919D048230A9F3809108058F3FD1
:102C400011F480E00DC080910805803211F482E01B
:102C500007C080910805803311F084E001C083E053
:102C60001F910F91FF90EF90DF9008950F931F93A6
:102C7000CF93DF93182FEB01042F413210F081E046
:102C80003CC081E00E94301405C080E00E943014F6
:102C9000882321F480919D048823B9F781E08093F3
:102CA0009D048FEF809308051092C3040093C40421
:102CB000110F116010939E0485EE8093BC0081E09B
:102CC0000E94301408C080E00E943014882319F05C
:102CD00020E030E00FC080919D048130A1F3F8CF57
:102CE000FE01E20FF31FD901AD55BB4F8C918083DC
:102CF0002F5F3F4F2017A0F380E0DF91CF911F910E
:102D00000F9108951F920F920FB60F9211248F9377
:102D10009F93AF93BF938091F0079091F107A0919B
:102D2000F207B091F3070196A11DB11D8093F00742
:102D30009093F107A093F207B093F307BF91AF917F
:102D40009F918F910F900FBE0F901F9018951F921B
:102D50000F920FB60F9211248F939F93AF93BF934F
:102D60008091F4079091F507A091F607B091F707CD
:102D70000196A11DB11D8093F4079093F507A093D0
:102D8000F607B093F707BF91AF919F918F910F9086
:102D90000FBE0F901F9018958F929F92AF92BF9287
:102DA000CF92DF92EF92FF920F931F938FB7F89419
:102DB000A090F007B090F107C090F207D090F30711
:102DC0008FBF9501A60160E070E080E090E001E037
:102DD0000E944003122FF32EE42ED52EC62EB72EBE
:102DE000A82E892E02E00E944003B92F210FE1E0B6
:102DF000211708F0E0E03F0DF1E03F1508F0F0E0AA
:102E00009E2E930EE1E0931608F0E0E0FE2B4E0DAF
:102E1000A1E04E1508F0A0E0FF2EF40EE1E0F4165C
:102E200008F0E0E0AE2B5D0DF1E05D1508F0F0E09C
:102E30000A2F050FE1E0051708F0E0E0FE2B6C0D0E
:102E4000A1E06C1508F0A0E01F2F160FE1E01617A7
:102E500008F0E0E0AE2B7B0DF1E07B1508F0F0E030
:102E6000A70FE1E0A71708F0E0E0FE2B8A0D91E044
:102E70008A1508F090E0F80FE1E0F81708F0E0E0BC
:102E80009E2BB80D392D4F2D502F612F7A2F8F2F5C
:102E90009B0FE9E0AE2EBB24CC24DD24EE24FF24DE
:102EA00000E010E00E94BF03952FB901842F1F910D
:102EB0000F91FF90EF90DF90CF90BF90AF909F90D9
:102EC0008F900895AF92BF92CF92DF92EF92FF92D0
:102ED0000F931F935B016C0107C00E94CC166E1507
:102EE0007F058007910720F40E94CC167B018C019E
:102EF0000E94CC166E197F09800B910B6A157B0519
:102F00008C059D0550F31F910F91FF90EF90DF907E
:102F1000CF90BF90AF9008958430910570F0BC01C0
:102F200080E090E00E94312C26E636E646EE5FE334
:102F30000E94BF2C0E94052C03C0BC01660F771FA6
:102F40006150704061F06150704049F0FB01EE0F3C
:102F5000FF1F31978FB7F8943197F1F78FBF08951E
:102F6000789484B7877F84BF1092F0071092F1079E
:102F70001092F2071092F30784B5826084BD84B585
:102F8000816084BD85B5826085BD85B5816085BD64
:102F9000EEE6F0E0808181608083E1E8F0E080810E
:102FA00082608083808181608083E0E8F0E08081BE
:102FB00081608083E1EBF0E0808184608083E1E9DF
:102FC000F0E0808184608083E0EBF0E080818160CC
:102FD0008083E0E9F0E0808181608083E4E6F0E0D6
:102FE00080818E7F8083ECE7F0E080818F77808323
:102FF000808180648083EAE7F0E080818460808360
:103000008081826080838081806880831092C1008B
:103010001092C900089590910D05982B90930D057D
:1030200080FF32C0809164008E7F80936400809125
:103030007C008F7780937C0080917C0080648093FB
:103040007C0080917A00846080937A0080917A007D
:10305000826080937A0080917A00806880937A0001
:10306000809164008F7780936400809164008B7FEF
:1030700080936400809164008D7F809364008091D0
:1030800065008E7F8093650008951F920F920FB6A2
:103090000F920BB60F9211242F933F934F935F9390
:1030A0006F937F938F939F93AF93BF93EF93FF9310
:1030B000F89481E080936003E0E6F0E0808180682E
:1030C000808380818F7B808383E060E00E949A18F8
:1030D0007894FF91EF91BF91AF919F918F917F91E4
:1030E0006F915F914F913F912F910F900BBE0F9079
:1030F0000FBE0F901F901895282F30E0C9018C54F7
:103100009A4FFC0194912F573A4FF90184918823EB
:1031100081F0E82FF0E0E759FA4FE491F0E0662300
:1031200029F4808190958923808308958081892B5B
:1031300080830895482F50E0CA0189519A4FFC01BD
:103140002491CA018C549A4FFC0194914F575A4FC5
:10315000FA0134913323C1F1222331F1233021F4D8
:10316000809180008F7705C0243031F480918000F9
:103170008F7D8093800018C0213019F484B58F773B
:1031800004C0223021F484B58F7D84BD0DC026306B
:1031900021F48091B0008F7705C0273029F4809109
:1031A000B0008F7D8093B000E32FF0E0EF58FA4F2E
:1031B000E491F0E0662329F480819095892380834F
:1031C00008958081892B80830895482F50E0CA019B
:1031D00089519A4FFC012491CA018C549A4FFC01E9
:1031E00094914F575A4FFA013491332319F420E048
:1031F00030E035C0222331F1233021F4809180006A
:103200008F7705C0243031F4809180008F7D8093CA
:10321000800018C0213019F484B58F7704C02230A3
:1032200021F484B58F7D84BD0DC0263021F48091BA
:10323000B0008F7705C0273029F48091B0008F7DD2
:103240008093B000E32FF0E0E758FA4FE491F0E00C
:10325000808120E030E0892311F021E030E0C901D5
:103260000895882389F480910E0590910F05805070
:103270009E4F2091100530911105821B930B60E049
:1032800072E00E94552D08958091120590911305CA
:1032900080509E4F2091140530911505821B930B91
:1032A00060E072E00E94552D08958823D1F440918A
:1032B00010055091110580910E0590910F0584170E
:1032C000950751F1FA01E850F64F2081CA010196A5
:1032D00060E072E00E94552D9093110580931005D7
:1032E00019C04091140550911505809112059091D7
:1032F00013058417950781F0FA01E850F84F2081F3
:10330000CA01019660E072E00E94552D9093150568
:103310008093140530E002C02FEF3FEFC9010895FC
:10332000882349F4109211051092100510920F0590
:1033300010920E0508951092150510921405109222
:1033400013051092120508951F920F920FB60F9257
:103350000BB60F9211242F933F934F935F936F936C
:103360007F938F939F93AF93BF93EF93FF9340917E
:10337000C600E0910E05F0910F05CF01019660E0C7
:1033800072E00E94552D9C018091100590911105CD
:103390002817390739F0E850F64F408330930F056E
:1033A00020930E05FF91EF91BF91AF919F918F9167
:1033B0007F916F915F914F913F912F910F900BBE35
:1033C0000F900FBE0F901F9018951F920F920FB67F
:1033D0000F920BB60F9211242F933F934F935F934D
:1033E0006F937F938F939F93AF93BF93EF93FF93CD
:1033F0004091CE00E0911205F0911305CF010196A6
:1034000060E072E00E94552D9C018091140590911E
:1034100015052817390739F0E850F84F40833093E5
:10342000130520931205FF91EF91BF91AF919F91EA
:103430008F917F916F915F914F913F912F910F905D
:103440000BBE0F900FBE0F901F901895982F6623FC
:1034500039F48091C00085FFFCCF9093C600089599
:103460008091C80085FFFCCF9093CE0008958823FB
:1034700041F48091C00085FFFCCF8DE08093C600B1
:1034800008C08091C80085FFFCCF8DE08093CE00FE
:1034900008C08091C00085FFFCCF8AE08093C60001
:1034A00008958091C80085FFFCCF8AE08093CE000C
:1034B0000895FC0110C03196662339F48091C00054
:1034C00085FFFCCF9093C60006C08091C80085FFA1
:1034D000FCCF9093CE009081992369F708952F92A5
:1034E0003F924F925F926F927F928F929F92AF9294
:1034F000BF92CF92DF92EF92FF920F931F93DF93D1
:10350000CF93CDB7DEB7A1970FB6F894DEBF0FBE4D
:10351000CDBF6B017C0129013A0109A36115710539
:103520008105910591F4002341F48091C00085FF4D
:10353000FCCF80E38093C6005BC08091C80085FF0C
:10354000FCCF80E38093CE0053C08824992454019B
:103550001E010894211C311C8101080D191DC70191
:10356000B601A30192010E94682DF80160830894BE
:10357000811C911CA11CB11CC701B601A3019201C1
:103580000E94682DC901DA016C017D01C114D104CA
:10359000E104F10409F79101280D391DBE016F5FA7
:1035A0007F4FD501C4010197A109B109AC014819A8
:1035B00059091BC0FA01E20FF31FE081EA3010F451
:1035C000E05D01C0E95CF9A1FF2339F48091C000FE
:1035D00085FFFCCFE093C60006C08091C80085FF40
:1035E000FCCFE093CE00215030406217730711F7F3
:1035F000A1960FB6F894DEBF0FBECDBFCF91DF917D
:103600001F910F91FF90EF90DF90CF90BF90AF9000
:103610009F908F907F906F905F904F903F902F90F2
:1036200008950F931F938B019C01E42F97FF18C0FF
:10363000442341F48091C00085FFFCCF8DE280934C
:10364000C60007C08091C80085FFFCCF8DE2809343
:10365000CE0030952095109501951F4F2F4F3F4F6D
:10366000C901B8012AE030E040E050E00E2F0E948E
:103670006F1A1F910F910895EF92FF920F931F936E
:103680007B018C014423C1F588E00E940B18C8011E
:10369000B70122E030E040E050E00E948A2D205047
:1036A000304F414F5F4FCA01B901A80197010E94F5
:1036B0008A2DC901DA010197A109B109292F3A2FF1
:1036C0004B2F552747FD5A950196A11DB11D2093FB
:1036D000C50081508093C4008091C10080618093B7
:1036E000C1008091C10088608093C1008091C100B9
:1036F00080688093C10037C080E10E940B18C80128
:10370000B70122E030E040E050E00E948A2D2050D6
:10371000304F414F5F4FCA01B901A80197010E9484
:103720008A2DC901DA010197A109B109292F3A2F80
:103730004B2F552747FD5A950196A11DB11D20938A
:10374000CD0081508093CC008091C900806180932E
:10375000C9008091C90088608093C9008091C90028
:1037600080688093C9001F910F91FF90EF9008959A
:103770000E94B01788EB95E00E942C25853440F01C
:1037800081E361E00E947C1881E361E00E949A1865
:1037900088EB95E061E070E00E9434258130B1F45F
:1037A0008091DE079091DF07A091E007B091E107DB
:1037B00090688093DE079093DF07A093E007B093B3
:1037C000E10781E090E060E00E94033187E20E941F
:1037D000E518892B09F44FC088EB95E060E070E0B4
:1037E0000E9434258A3009F046C08AE195E00E94A3
:1037F0004C228AE195E00E9463208AE195E00E94D4
:10380000132280913305482F50E080913505481BE5
:10381000510980913205282F30E080913605281B10
:103820003109121613065CF48CE390E0BC01269F6C
:10383000C001279F900D369F900D11240EC037FFB9
:103840000EC08CE390E0BC01269FC001279F900D25
:10385000369F900D1124805F914F480F591F4330C0
:10386000510548F48091ED079091EE0780629093A6
:10387000EE078093ED078AE195E00E944C228AE1F1
:1038800095E00E94FF1E8AE195E00E94EE1E8AE10B
:1038900095E00E94752263E070E080E090E00E9475
:1038A00062178091DE079091DF07A091E007B09149
:1038B000E107A1FF5EC063E070E080E090E00E945D
:1038C000621786E161E00E947C1863E070E080E0AE
:1038D00090E00E94621786E161E00E949A1863E01E
:1038E00070E080E090E00E9462170E94AD2263E0E9
:1038F00070E080E090E00E94621781E00E948622E2
:1039000063E070E080E090E00E94621784E00E9433
:10391000942263E070E080E090E00E94621780E013
:103920000E948F2263E070E080E090E00E946217C6
:103930000E94822263E070E080E090E00E946217C3
:103940008DEA95E066E00E94CC2263E070E080E0C2
:1039500090E00E94621786E161E00E947C1886E197
:1039600060E00E949A1863E070E080E090E00E94BE
:10397000621763E070E080E090E00E94621788EBDD
:1039800095E00E94BA266093160570931705809300
:103990001805909319058091160590911705A0912F
:1039A0001805B09119050E94352E0E94C40A0E9484
:1039B000340AFDCFFC01148A158A168A178A108EE4
:1039C000118E128E138E148E158E168E178E10A2D7
:1039D00011A212A213A280E090E0A0E0B0E084A3C4
:1039E00095A3A6A3B7A308951092AB0510922D0539
:1039F0000895EF92FF920F931F93DF93CF93CDB76C
:103A0000DEB7EC970FB6F894DEBF0FBECDBF8C01CA
:103A1000EDE4F3E065917491B5E1EB2EF12CEC0E41
:103A2000FD1EC7010E94402EEFE4F3E06591749102
:103A3000CE0101960E94402ED80156968C9184307A
:103A400009F46DC0853048F4823069F1833008F0A4
:103A500048C0813009F000C10AC0863009F49BC01B
:103A6000863008F47AC0873009F0F6C0B2C0EDB7EE
:103A7000FEB774970FB6F894FEBF0FBEEDBF319638
:103A8000075D1F4FADB7BEB712961C930E931197EB
:103A90000952104084E690E093838283F582E482A9
:103AA00089E392E0B3C08DB79EB744970FB6F89400
:103AB0009EBF0FBE8DBFEDB7FEB73196075D1F4F9E
:103AC000ADB7BEB712961C930E93119709521040D2
:103AD00084E690E093838283F582E4828DE392E032
:103AE00095C08DB79EB744970FB6F8949EBF0FBE92
:103AF0008DBFEDB7FEB73196075D1F4FADB7BEB7AF
:103B000012961C930E9311970952104084E690E090
:103B100093838283F582E48281E492E077C08DB75B
:103B20009EB744970FB6F8949EBF0FBE8DBFEDB7FA
:103B3000FEB73196075D1F4FADB7BEB712961C9307
:103B40000E9311970952104084E690E0938382838C
:103B5000F582E48285E492E059C08DB79EB7449720
:103B60000FB6F8949EBF0FBE8DBFEDB7FEB731966E
:103B7000075D1F4FADB7BEB712961C930E931197FA
:103B80000952104084E690E093838283F582E482B8
:103B900089E492E03BC08DB79EB744970FB6F89486
:103BA0009EBF0FBE8DBFEDB7FEB73196075D1F4FAD
:103BB000ADB7BEB712961C930E93119709521040E1
:103BC00084E690E093838283F582E4828DE492E040
:103BD0001DC08DB79EB744970FB6F8949EBF0FBE19
:103BE0008DBFEDB7FEB73196075D1F4FADB7BEB7BE
:103BF00012961C930E9311970952104084E690E0A0
:103C000093838283F582E48281E592E097838683C1
:103C1000D80154968C9154978087118655968C9133
:103C20005597828713865A968C915A978487158662
:103C300057968C9157978687178658968C915897E8
:103C4000808B118A59968C91828B138A0E946F2ED9
:103C5000EDB7FEB774961DC000D000D000D0EDB710
:103C6000FEB73196075D1F4FADB7BEB712961C93D6
:103C70000E9311970952104084E690E0938382835B
:103C8000CE010196958384830E946F2EEDB7FEB717
:103C900036960FB6F894FEBF0FBEEDBF9801275DB4
:103CA0003F4FC901EC960FB6F894DEBF0FBECDBFF3
:103CB000CF91DF911F910F91FF90EF9008951F9387
:103CC000CF93DF93EC01162F80910506882321F412
:103CD0008FEF95E00E9471288FEF95E068E670E025
:103CE0000E94E4268FEF95E0612F0E94FE27C10F0E
:103CF000D11D8FEF95E068810E94FE278FEF95E040
:103D00000E942D28DF91CF911F910895FF920F936C
:103D10001F93CF93DF938C01F62E809105068823A5
:103D200021F48FEF95E00E9471288FEF95E068E60F
:103D300070E00E94E4268FEF95E06F2D0E94FE2731
:103D40008FEF95E00E942D288FEF95E068E670E0F8
:103D500041E050E00E946E28C0E0D0E08FEF95E097
:103D60000E94EE26882329F4CA30D10511F021964D
:103D7000F5CF8FEF95E00E94F4260F0D111DF8018D
:103D800080838FEF95E00E942D28DF91CF911F91C6
:103D90000F91FF9008950F931F938C016FE00E9485
:103DA000861EF801878583701F910F910895CF9328
:103DB000DF93EC010E94CB1E882319F0CE56DF4F13
:103DC0008883809129058C7F809329058AE195E07D
:103DD0006FE00E945F1EDF91CF9108950F931F93B4
:103DE0008C016EE00E94861EF80186858D7F868795
:103DF000C8016EE00E945F1E1F910F9108950F93FE
:103E00001F938C016EE00E94861EF80186858E7FCE
:103E10008687C8016EE00E945F1E1F910F91089572
:103E2000AF92BF92CF92DF92FF920F931F93CF93E7
:103E3000DF938C01F62E80910506882321F48FEF05
:103E400095E00E9471288FEF95E068E670E00E948F
:103E5000E4268FEF95E060E070E00E942A288FEF63
:103E600095E00E942D288FEF95E068E670E043E131
:103E700050E00E946E28C0E0D0E0CC24DD24AF2CBE
:103E8000BB245AE0F52E0DC18FEF95E00E94EE267F
:103E9000882309F403C18FEF95E00E94F426282FB0
:103EA000F801EC0FFD1F8083C630D10509F482C0F4
:103EB000C730D105B8F4C230D10509F44EC0C330C3
:103EC000D10538F4209769F1C130D10509F0E4C07B
:103ED00036C0C430D10509F451C0C530D10508F051
:103EE0005BC049C0CA30D10509F49BC0CB30D105B5
:103EF00058F4C830D10509F478C090E02F70C9306B
:103F0000D10508F081C064C0CC30D10509F4A7C048
:103F1000CC30D10508F494C0CD30D10509F0BCC037
:103F2000ADC090E044E0959587954A95E1F78F9D67
:103F3000C00111242F70280FF801218FADC090E02F
:103F400034E0959587953A95E1F78F9DC00111244E
:103F50002F70280FF801208F9FC090E0B4E0959556
:103F60008795BA95E1F78F9DC00111242F70280F16
:103F7000F801278B91C0F801868B8EC090E0A4E0F9
:103F800095958795AA95E1F78F9DC00111242F7013
:103F9000280FF801228F80C090E0F4E09595879576
:103FA000FA95E1F78F9DC00111242F70280FF801B9
:103FB000258B72C090E0E4E095958795EA95E1F74E
:103FC0008F9DC00111242F70280FF801248B64C02D
:103FD00074E0959587957A95E1F787708F9DC0017C
:103FE0001124280FF801238F57C090E064E09595C5
:103FF00087956A95E1F787708F9DC00111242F7016
:10400000280FF801248F48C054E0959587955A955C
:10401000E1F783708F9DC0011124280FF801258FCF
:104020003BC090E044E0959587954A95E1F7837011
:104030008F9DC00111242F70280FF801268F2CC0EE
:1040400090E034E0959587953A95E1F787708F9DDC
:10405000C00111242F70280FF801278F1DC090E098
:10406000B4E095958795BA95E1F783708F9DC0016F
:1040700011242F70280FF80120A30EC090E0A4E0B7
:1040800095958795AA95E1F783708F9DC0011124BE
:104090002F70280FF80121A3219603C00894C11C9A
:1040A000D11CAC16BD0628F0FAE0CF16D10408F4F6
:1040B000EBCEDF91CF911F910F91FF90DF90CF90CA
:1040C000BF90AF900895AF92BF92CF92DF92EF92E0
:1040D000FF920F931F93DF93CF93CDB7DEB7C857EF
:1040E000D0400FB6F894DEBF0FBECDBF6C016AE0C2
:1040F0000E94101F49E2A42EB12CAC0CBD1C84E61A
:10410000D5011D928A95E9F7EBE2F3E06591749190
:104110008E010F5F1F4FC8010E94402EC501B801DC
:104120000E945B2EF60182A1823009F476C08330B2
:1041300030F4882371F0813009F03CC11AC084301A
:1041400009F4F2C0843008F4AEC0853009F032C101
:1041500027C1EDE2F3E065917491C8010E94402E01
:10416000C501B8010E945B2EEBE3F3E06591749109
:104170000FC0EFE2F3E065917491C8010E94402EF8
:10418000C501B8010E945B2EEBE3F3E065917491E9
:104190008E01075D1F4FC8010E94402E8DB79EB74C
:1041A0000E970FB6F8949EBF0FBE8DBFEDB7FEB74A
:1041B000319631E5E32EF12CEC0EFD1EADB7BEB706
:1041C0001296FC92EE92119788E290E0938382839C
:1041D00015830483D6015E968C915E978683178241
:1041E0005D968C915D97808711865C968C915C972B
:1041F000828713865B968C91848715860E946F2E2A
:10420000EDB7FEB73E960FB6F894FEBF0FBEEDBFFA
:10421000C501B7010E945B2EF3C0E1E3F3E06591B5
:104220007491C8010E94402EC501B8010E945B2E06
:10423000EDE3F3E0659174918E01075D1F4FC801B6
:104240000E94402E8DB79EB70C970FB6F8949EBF74
:104250000FBE8DBFEDB7FEB7319621E5E22EF12CF2
:10426000EC0EFD1EADB7BEB71296FC92EE92119702
:1042700088E290E09383828315830483D6015D9660
:104280008C915D97868317825C968C915C97808772
:1042900011865B968C91828713860E946F2EEDB7F4
:1042A000FEB73C96B0CFE3E3F3E065917491C801AB
:1042B0000E94402EC501B8010E945B2EEFE3F3E09F
:1042C000659174918E01075D1F4FC8010E94402EB9
:1042D0008DB79EB70A970FB6F8949EBF0FBE8DBFDD
:1042E000EDB7FEB7319691E5E92EF12CEC0EFD1EEF
:1042F000ADB7BEB71296FC92EE92119788E290E0AD
:104300009383828315830483D6015C968C915C979A
:10431000868317825B968C91808711860E946F2E10
:10432000EDB7FEB73A966FCFE5E3F3E06591749190
:10433000C8010E94402EC501B8010E945B2EE1E435
:10434000F3E0659174918E01075D1F4FC8010E94D3
:10435000402E8DB79EB708970FB6F8949EBF0FBE3C
:104360008DBFEDB7FEB7319681E5E82EF12CEC0E4E
:10437000FD1EADB7BEB71296FC92EE92119788E281
:1043800090E09383828315830483D6015B968C919E
:10439000868317820E946F2EEDB7FEB7389633CF13
:1043A000E7E3F3E065917491C8010E94402EC501D6
:1043B000B80130CFE9E3F3E0659174918E010F5FAE
:1043C0001F4FC8010E94402E00D000D000D0EDB792
:1043D000FEB73196ADB7BEB71296BC92AE921197AA
:1043E00084E690E093838283158304830E946F2E7A
:1043F000EDB7FEB736960FB6F894FEBF0FBEEDBF11
:10440000C501C858DF4F0FB6F894DEBF0FBECDBF51
:10441000CF91DF911F910F91FF90EF90DF90CF90A0
:10442000BF90AF9008950F931F938C0166E00E9498
:10443000101FC8010E94F91C1F910F9108950F933E
:104440001F93CF93DF93EC01042F68A780E361E013
:104450000E947C1818A5112379F0113091F480E3A3
:1044600061E00E949A18013019F482E08B8B09C038
:10447000002339F41B8B05C080E360E00E949A188A
:104480001B8A6AE070E080E090E00E946217DF9192
:10449000CF911F910F9108950F931F938C0161E0AD
:1044A00040E00E941F22C8010E94D71EC8010E943E
:1044B000DA1CC8016DE00E94101F8BE261E00E94CF
:1044C0007C188BE260E00E949A181F910F9108956A
:1044D00080910506882341F080911B06882321F4F2
:1044E00080E296E00E94E42B08950F931F938C01C5
:1044F0000E946822C80160E040E00E941F221F91D4
:104500000F9108958CB58F7B8CBD0895882319F485
:104510008CB5806202C08CB58F7D8CBD08959CB532
:10452000937F982B9CBD08959CB5282F23709C7F6A
:10453000292B2CBD9DB581709E7F982B9DBD089524
:104540001092AE051092AD051092AF051092B00515
:104550001092B1051092B20508958EE161E00E94BB
:104560007C188FE161E00E947C188DE161E00E947F
:104570007C188EE160E00E949A188FE160E00E9452
:104580009A188DE161E00E949A188CB580618CBD0B
:104590008CB580648CBD08951F93162F8DE161E06A
:1045A0000E947C1882E261E00E947C188DE161E04B
:1045B0000E949A1882E261E00E949A188091DE07B8
:1045C0009091DF07A091E007B091E107A2FF08C03A
:1045D00088E061E00E947C1888E061E00E949A18FF
:1045E0008091DE079091DF07A091E007B091E1078D
:1045F00096FF08C089E061E00E947C1889E061E0D4
:104600000E949A188091DE079091DF07A091E00741
:10461000B091E107A3FF08C082E061E00E947C182E
:1046200082E061E00E949A188091DE079091DF0796
:10463000A091E007B091E107A4FF08C082E261E029
:104640000E947C1882E261E00E949A181330C9F03F
:10465000143028F4113069F0123068F408C01530B5
:1046600041F11530D0F0163009F062C02FC08DE155
:104670002BC082E229C088EB95E00E9452258CE293
:1046800023C08091DE079091DF07A091E007B091F1
:10469000E107A2FF4DC088E017C08091DE0790912E
:1046A000DF07A091E007B091E10796FF41C089E0E4
:1046B0000BC08091DE079091DF07A091E007B091D9
:1046C000E107A3FF35C082E060E030C08DE161E02A
:1046D0000E949A1882E261E00E949A188091DE0797
:1046E0009091DF07A091E007B091E107A2FF04C01D
:1046F00088E061E00E949A188091DE079091DF07C0
:10470000A091E007B091E10796FF04C089E061E065
:104710000E949A188091DE079091DF07A091E00730
:10472000B091E107A3FF04C082E061E00E949A1803
:104730001F9108951092B3050895CF93DF93EC0174
:104740008091DE079091DF07A091E007B091E1072B
:1047500082FF0BC063E070E080E090E00E9462178F
:104760008BE061E00E949A1806C063E070E080E090
:1047700090E00E94621789818093C5008A818093AE
:10478000C4008B818093C2008C818093CA00DF912A
:10479000CF910895DC018091C50011968C931197FB
:1047A0008091C40012968C931297E2ECF0E0808125
:1047B00013968C9313978091CA0014968C93149738
:1047C00080818F7D808380818F7E80838081877FC1
:1047D000808360E072EC81E090E04C910E943C1B91
:1047E00087E161E00E949A188BE060E00E949A18CD
:1047F00008950F931F938C010E94CA23F8018081B2
:104800000E94371AC8010E949D231F910F9108959D
:10481000EF92FF920F931F93CF93DF93EC01162F2C
:10482000072F0E94CA23212F302FC9018C0188EE47
:10483000E82E83E0F82EE00EF11EF8010F5F1F4F07
:104840008491882331F068810E94261A0E151F0575
:10485000A1F7CE010E949D2360E070E080E090E02F
:10486000DF91CF911F910F91FF90EF900895CF921C
:10487000DF92EF92FF920F931F938C010E94082406
:10488000F62EE72ED82EC92EC8010E94F9236F2DCF
:104890007E2D8D2D9C2D1F910F91FF90EF90DF901D
:1048A000CF900895FF920F931F938C01F62E0E94D4
:1048B000CA238F2DF80160810E94261AC8010E9428
:1048C0009D231F910F91FF900895EF92FF920F93F8
:1048D0001F93DF93CF93CDB7DEB7C058D0400FB64C
:1048E000F894DEBF0FBECDBFC757DF4F08811981D7
:1048F000C958D040C8010E94CA23FE01E357FF4FA8
:104900007E010894E11CF11CC70160E870E0C55706
:10491000DF4F48815981CB58D0409F010E94AD2E76
:10492000C701F80160810E94591AC8010E949D23A5
:10493000C058DF4F0FB6F894DEBF0FBECDBFCF918A
:10494000DF911F910F91FF90EF900895EF92FF92EA
:104950000F931F938C017B010E94CA23C701F801AA
:1049600060810E94591AC8010E949D231F910F91D6
:10497000FF90EF900895CF92DF92EF92FF920F9306
:104980001F93CF93DF937C018A01D62EC72EE901B6
:104990000E94CA23209731F4802FF70160810E9482
:1049A000261A17C0CA30D10541F4B8018D2D9C2DAF
:1049B000F70140810E94111B0CC09E01442737FD66
:1049C0004095542FB8018D2D9C2DF70100810E9438
:1049D0006F1AF70180810E94371AC7010E949D2338
:1049E000DF91CF911F910F91FF90EF90DF90CF90CB
:1049F00008950F931F93CF93DF938B01BA01DA01D0
:104A000040E050E0C22FD0E019C0F801E40FF51FDC
:104A10008081982F92959F708F709A3010F4905DDE
:104A200001C0995C9C938A3010F4805D01C0895C60
:104A300011968C9311974F5F5F4F12964C175D073D
:104A400024F3CC0FDD1FC60FD71F1882DF91CF9143
:104A50001F910F91089508958FED90E00E94F53019
:104A60008F3F09F480E00895CB010E94F53008954E
:104A700084E06030780724F0CB01642F0E9403317A
:104A8000089587E161E00E947C188BE061E00E945C
:104A90007C1887E161E00E949A188BE061E00E9437
:104AA0009A18089587E161E00E947C1884E261E031
:104AB0000E947C1885E261E00E947C1887E161E039
:104AC0000E949A1884E261E00E949A1885E261E0EF
:104AD0000E949A1808950F931F93162F042F862F64
:104AE00061E00E947C18013019F4812F61E004C05C
:104AF000002321F4812F60E00E949A181F910F91EA
:104B000008952F923F924F925F926F927F928F9271
:104B10009F92AF92BF92CF92DF92EF92FF920F934C
:104B20001F93DF93CF93CDB7DEB7C75FD0400FB6EB
:104B3000F894DEBF0FBECDBF2DB63EB68DB79EB783
:104B400008970FB6F8949EBF0FBE8DBFADB6BEB628
:104B50000894A11CB11C7501CC24DD244E010894DD
:104B6000811C911CCE0180599F4FAEEF4A2EAFEFB2
:104B70005A2E480E591EF0E16F2E712C680E791EC8
:104B8000DE01A052BF4FC051DF4FB983A883C05F81
:104B9000D040FE013E96CE50DF4FF983E883C25FDE
:104BA000D040C4016DE00E94D52A88EB95E06CE00E
:104BB00040E00E946B2588EB95E06DE040E00E94AC
:104BC0006B25D7011D921D921D921C9213978CE0AC
:104BD00061E00E947C188CE061E00E949A18C40198
:104BE0000E940D2B88EB95E06DE041E00E946B2563
:104BF0006AE070E080E090E00E946217C40163E325
:104C000040E00E94952A62E370E080E090E00E941C
:104C100062178E0102511F4FC4010E942D2AF80114
:104C20008083118261E070E080E090E00E94621772
:104C3000025010400415150579F7F301DE01509676
:104C4000819191918D939D93C051DF4F888199817E
:104C5000C05FD040E817F90799F7BE0162597F4F4E
:104C600021E030E040E050E0DB018D919C91019724
:104C700079F4D7018D919D910D90BC91A02D820F5B
:104C8000931FA41FB51FF70180839183A283B38371
:104C900062507040CE50DF4F88819981C25FD04012
:104CA0006817790729F0220F331F441F551FDCCFE7
:104CB000F70180819181A281B3818F5F9F4FAF4FB8
:104CC000BF4F31F4D7011D921D921D921C92139774
:104CD0008CE060E00E949A1888EB95E06CE040E080
:104CE0000E946B2588EB95E06DE040E00E946B250B
:104CF0000894C11CD11CE4E0F0E0EE0EFF1EF2E0CF
:104D0000CF16D10409F04DCFD5012D913D914D9194
:104D10005C91139714968D919D910D90BC91A02D4F
:104D2000281739074A075B0721F020E030E040E010
:104D300050E0B901CA010FB6F8943EBE0FBE2DBEB9
:104D4000C950DF4F0FB6F894DEBF0FBECDBFCF9175
:104D5000DF911F910F91FF90EF90DF90CF90BF9068
:104D6000AF909F908F907F906F905F904F903F900B
:104D70002F900895EF92FF920F931F930E94812529
:104D80007B018C016115710581059105B1F483EEFC
:104D900090E00E94FD306A302AE072072AE0820724
:104DA0002AE0920751F06F3F2FEF72072FEF820733
:104DB0002FEF920711F07B018C01B701C8011F9101
:104DC0000F91FF90EF90089581E08093FE0560932E
:104DD000DB051092FC051092FD0508958091DA051F
:104DE0009091D905891B08959091D9058091DA0594
:104DF000981710F080E00895E92FF0E0E754FA4F9B
:104E000080819F5F9093D9050895109206061092B5
:104E1000FF05109200068AEF90E0A0E0B0E08093DA
:104E2000010690930206A0930306B093040608952A
:104E3000CF93DF93EC018091DE079091DF07A09183
:104E4000E007B091E10784FD3CC08091DE079091BE
:104E5000DF07A091E007B091E10785FD32C08091A6
:104E6000DE079091DF07A091E007B091E10786FD92
:104E700028C08091DE079091DF07A091E007B091F4
:104E8000E10787FD1EC08091DE079091DF07A091AA
:104E9000E007B091E10790FD14C08091DE0790918A
:104EA000DF07A091E007B091E10791FD0AC0809172
:104EB000DE079091DF07A091E007B091E10793FF33
:104EC0001DC080910606882339F480E296E060E0F8
:104ED00041E00E94882B0CC08981882331F480E254
:104EE00096E060E041E00E94882B8881882331F4BD
:104EF00080E296E061E041E00E94882BDF91CF9153
:104F00000895FC018091DE079091DF07A091E007F2
:104F1000B091E10781709070A070B0708083809133
:104F2000DE079091DF07A091E007B091E107B69509
:104F3000A79597958795817081838091DE079091E1
:104F4000DF07A091E007B091E10784FD3CC08091AC
:104F5000DE079091DF07A091E007B091E10785FDA2
:104F600032C08091DE079091DF07A091E007B091F9
:104F7000E10786FD28C08091DE079091DF07A091B0
:104F8000E007B091E10787FD1EC08091DE07909198
:104F9000DF07A091E007B091E10790FD14C0809178
:104FA000DE079091DF07A091E007B091E10791FD46
:104FB0000AC08091DE079091DF07A091E007B091D1
:104FC000E10793FF10C080910606882361F480E218
:104FD00096E060E040E00E94882B80E296E061E08D
:104FE00040E00E94882B08950F931F938C010E942C
:104FF000AC13F80116821F910F910895DF93CF93A0
:105000000F92CDB7DEB769838091FE05882389F0C2
:105010008091FD058032D0F48091FC05E82FF0E00E
:10502000E452FA4F60838F5F8093FC058093FD0507
:105030000DC08FEF95E00E948127CE01019661E0BF
:105040000E9491138FEF95E00E9418270F90CF9147
:10505000DF9108950E94FE270895FF920F931F93FA
:105060000FEF15E0C8010E9481278091DB056CEDF0
:1050700075E04091FD0521E00E94D115F82E1092B7
:10508000FC051092FD051092FE05C8010E9418272C
:105090008F2D1F910F91FF900895FF920F931F93F3
:1050A000F62E142F8FEF95E00E948127012F1132E9
:1050B00008F000E28F2D69EB75E0402F0E94361654
:1050C000182F1092D9050093DA058FEF95E00E9412
:1050D0001827812F1F910F91FF9008950E944D284E
:1050E00008950F931F938C0180E2E9EBF5E0DF0157
:1050F000982F1D929A95E9F71092D9051092DA052A
:10510000ECEDF5E0DF011D928A95E9F71092FC05C0
:105110001092FD050E94031481E0F801868384E06B
:1051200090E00E948C171F910F9108951F920F928B
:105130000FB60F920BB60F9211242F933F934F93FC
:105140005F936F937F938F939F93AF93BF93EF93EF
:10515000FF938091070690910806892B29F0E09132
:105160000706F09108060995FF91EF91BF91AF9165
:105170009F918F917F916F915F914F913F912F916F
:105180000F900BBE0F900FBE0F901F9018951F929F
:105190000F920FB60F920BB60F9211242F933F93DD
:1051A0004F935F936F937F938F939F93AF93BF932F
:1051B000EF93FF938091090690910A06892B29F0BD
:1051C000E0910906F0910A060995FF91EF91BF91D0
:1051D000AF919F918F917F916F915F914F913F918F
:1051E0002F910F900BBE0F900FBE0F901F90189530
:1051F0001F920F920FB60F920BB60F9211242F939E
:105200003F934F935F936F937F938F939F93AF934E
:10521000BF93EF93FF9380910B0690910C06892B1F
:1052200029F0E0910B06F0910C060995FF91EF91A2
:10523000BF91AF919F918F917F916F915F914F91AE
:105240003F912F910F900BBE0F900FBE0F901F90AC
:1052500018951F920F920FB60F920BB60F92112452
:105260002F933F934F935F936F937F938F939F936E
:10527000AF93BF93EF93FF9380910D0690910E062D
:10528000892B29F0E0910D06F0910E060995FF910A
:10529000EF91BF91AF919F918F917F916F915F91AE
:1052A0004F913F912F910F900BBE0F900FBE0F901B
:1052B0001F9018951F920F920FB60F920BB60F9278
:1052C00011242F933F934F935F936F937F938F930B
:1052D0009F93AF93BF93EF93FF9380910F069091AD
:1052E0001006892B29F0E0910F06F0911006099520
:1052F000FF91EF91BF91AF919F918F917F916F91AE
:105300005F914F913F912F910F900BBE0F900FBE69
:105310000F901F9018951F920F920FB60F920BB619
:105320000F9211242F933F934F935F936F937F932B
:105330008F939F93AF93BF93EF93FF938091110649
:1053400090911206892B29F0E0911106F091120636
:105350000995FF91EF91BF91AF919F918F917F91AF
:105360006F915F914F913F912F910F900BBE0F90D6
:105370000FBE0F901F9018951F920F920FB60F92AD
:105380000BB60F9211242F933F934F935F936F931C
:105390007F938F939F93AF93BF93EF93FF938091EE
:1053A000130690911406892B29F0E0911306F091D1
:1053B00014060995FF91EF91BF91AF919F918F9145
:1053C0007F916F915F914F913F912F910F900BBE05
:1053D0000F900FBE0F901F9018951F920F920FB64F
:1053E0000F920BB60F9211242F933F934F935F931D
:1053F0006F937F938F939F93AF93BF93EF93FF939D
:105400008091150690911606892B29F0E0911506DA
:10541000F09116060995FF91EF91BF91AF919F9181
:105420008F917F916F915F914F913F912F910F904D
:105430000BBE0F900FBE0F901F90189510921C0678
:1054400082E0809318068CE180931D0680EC91E049
:1054500090931F0680931E060895DF92EF92FF92AD
:105460000F931F93FC01E08001811281F894F801F1
:1054700081818E2981838281DE2CD0948D2182834B
:1054800082E090E00E948C17F80181818D21818358
:1054900087E090E00E948C17F801008178948DE2FB
:1054A00090E00E948C1780E010E0FF240E211F2165
:1054B000012B09F081E01F910F91FF90EF90DF9099
:1054C00008951F93CF93DF93FC011081C181D28196
:1054D000912F909560FF12C0F8948A8189238A8366
:1054E0008981812B898389E090E00E948C178A81D1
:1054F000812B8A8378948FE290E011C0F8948A819E
:1055000089238A838981812B898387E390E00E94A4
:105510008C178A81812B8A83789485E090E00E94A1
:105520008C17DF91CF911F910895CF92DF92EF9268
:10553000FF920F931F93CF93DF938C01E42EFF24F0
:10554000F394C0E0D0E0C62EDD2460E08F2D90E023
:105550008C219D21892B09F061E0C8010E94612AFC
:10556000FF0C2196C830D10581F7EE20A9F4F894FC
:10557000D8011196ED91FC91129791818C918095B3
:10558000982391831196ED91FC91129792818C91C1
:105590008095982392837894DF91CF911F910F91FA
:1055A000FF90EF90DF90CF9008950F931F938C01A1
:1055B000862FD8011E966C9360E00E947C18D8015B
:1055C0001E96EC911E978E2F90E0FC01EC54FA4F42
:1055D000E491EC938F579A4FFC018491E82FF0E00F
:1055E000E758FA4FE4911196EC93119712961C929A
:1055F00012971B961C921B971D961C921D971C962A
:105600001C92F80187E090E012863197009711F024
:105610000197FACF1F910F910895CF92DF92EF92E9
:10562000FF920F931F93CF93DF93EC018E8560E081
:105630000E947C180E94CC167B018C018DE7D82E2D
:10564000DA942FEFD21609F441C082E090E00E9474
:105650008C170E94CC166E157F058007910720F4E9
:105660000E94CC167B018C018E850E94E518892B47
:10567000B9F50E94CC166E197F09800B910B645FFF
:1056800071408040904060F5DBCF0E94CC167B01DA
:105690008C01CD28D1F10E94CC166E197F09800BA8
:1056A000910B645F71408040904080F48E850E9431
:1056B000E5186C0189E090E00E948C170E94CC16DE
:1056C0006E157F058007910720F7DFCF80E0DF911F
:1056D000CF911F910F91FF90EF90DF90CF900895A1
:1056E0008E8561E00E947C188E8560E00E949A1889
:1056F00084E591E00E948C170E94CC167B018C01FE
:105700008E850E94E518892B31F681E0E0CF08955F
:105710000F931F93062F142F8AE161E00E947C18DB
:1057200088E161E00E947C18002321F0013009F03B
:1057300048C020C0112371F48AE161E00E949A18E8
:105740008091DE079091DF07A091E007B091E1071B
:1057500082602FC01130A9F58AE160E00E949A189A
:105760008091DE079091DF07A091E007B091E107FB
:105770008D7F1FC0112371F488E161E00E949A18A7
:105780008091DE079091DF07A091E007B091E107DB
:1057900081600FC01130A9F488E160E00E949A187E
:1057A0008091DE079091DF07A091E007B091E107BB
:1057B0008E7F8093DE079093DF07A093E007B0937E
:1057C000E1071F910F91089589E261E00E947C1822
:1057D00088E261E00E947C188FEF95E00E94F42738
:1057E00008951092340610923B0610923D0689E10E
:1057F0008093C0071092C3071092C4071092C60787
:105800001092BA071092B907089598D088F09F5760
:1058100090F0B92F9927B751A0F0D1F0660F771FFC
:10582000881F991F1AF0BA95C9F712C0B13081F0DC
:105830009FD0B1E008959CC0672F782F8827B85F6C
:1058400039F0B93FCCF3869577956795B395D9F73D
:105850003EF490958095709561957F4F8F4F9F4F47
:105860000895E89409C097FB3EF490958095709553
:1058700061957F4F8F4F9F4F9923A9F0F92F96E99C
:10588000BB279395F695879577956795B795F11111
:10589000F8CFFAF4BB0F11F460FF1BC06F5F7F4FAE
:1058A0008F4F9F4F16C0882311F096E911C07723C0
:1058B00021F09EE8872F762F05C0662371F096E8C9
:1058C000862F70E060E02AF09A95660F771F881F98
:1058D000DAF7880F9695879597F9089597F99F6756
:1058E00080E870E060E008959FEF80EC0895002468
:1058F0000A941616170618060906089500240A9435
:1059000012161306140605060895092E0394000CBA
:1059100011F4882352F0BB0F40F4BF2B11F460FF49
:1059200004C06F5F7F4F8F4F9F4F089557FD905872
:10593000440F551F59F05F3F71F04795880F97FB53
:10594000991F61F09F3F79F087950895121613060D
:105950001406551FF2CF4695F1DF08C0161617063C
:105960001806991FF1CF8695710561050894089571
:10597000E894BB2766277727CB0197F908950BD0CA
:10598000C4CFB5DF28F0BADF18F0952309F0A6CF11
:10599000ABCF1124EECFCADFA0F3959FD1F3950FC3
:1059A00050E0551F629FF001729FBB27F00DB11DA3
:1059B000639FAA27F00DB11DAA1F649F6627B00D33
:1059C000A11D661F829F2227B00DA11D621F739F1C
:1059D000B00DA11D621F839FA00D611D221F749F2A
:1059E0003327A00D611D231F849F600D211D822F71
:1059F000762F6A2F11249F5750408AF0E1F08823B8
:105A00004AF0EE0FFF1FBB1F661F771F881F9150C4
:105A10005040A9F79E3F510570F060CFAACF5F3F7D
:105A2000ECF3983EDCF3869577956795B795F795F7
:105A3000E7959F5FC1F7FE2B880F911D969587957F
:105A400097F90895629FD001739FF001829FE00D46
:105A5000F11D649FE00DF11D929FF00D839FF00DED
:105A6000749FF00D659FF00D9927729FB00DE11D99
:105A7000F91F639FB00DE11DF91FBD01CF01112476
:105A80000895AA1BBB1B51E107C0AA1FBB1FA61785
:105A9000B70710F0A61BB70B881F991F5A95A9F7D7
:105AA00080959095BC01CD01089597FB092E07269E
:105AB0000AD077FD04D0E5DF06D000201AF47095F7
:105AC00061957F4F0895F6F7909581959F4F0895C2
:105AD000A1E21A2EAA1BBB1BFD010DC0AA1FBB1FF2
