:100000000C9463020C943D180C946E180C949F1879
:100010000C94D0180C9401190C9432190C94631997
:100020000C9494190C948B020C948B020C948B02FC
:100030000C94881B0C948B020C948B020C94EA1980
:100040000C948B020C948B020C948B020C948B02FC
:100050000C948B020C948B020C948B020C94C5199B
:100060000C948B020C94741C0C948B020C948B02D9
:100070000C948B020C948B020C948B020C948B02CC
:100080000C948B020C948B020C948B020C948B02BC
:100090000C94B51C0C948B020C948B020C943716A8
:1000A0000C948B020C948B020C948B020C948B029C
:1000B0000C948B020C948B020C948B020C948B028C
:1000C0000C948B020C948B020C948B02430157010D
:1000D0007D01A401C401DC01EA01FA010F0225023D
:1000E000360242024902660284029A02A802B8025B
:1000F000DB02E10257726F6E672074696D652066DE
:100100006F726D61742E204D7573742062652022AC
:1001100064643A68683A6D6D220057726F6E6720AA
:1001200074696D6520666F726D61742E204D7573F4
:1001300074206265202264643A68683A6D6D3A738F
:10014000732200416C61726D204D6F6465206D619A
:10015000746368657320005B446179203A20686F9E
:10016000757273203A206D696E75746573203A203C
:100170007365636F6E64735D202D3E20005B446188
:100180007465203A20686F757273203A206D696E2D
:1001900075746573203A207365636F6E64735D20B8
:1001A0002D3E20005B486F757273203A206D696E9A
:1001B00075746573203A207365636F6E64735D2098
:1001C0002D3E20005B4D696E75746573203A207377
:1001D00065636F6E64735D202D3E20005B53656325
:1001E0006F6E64735D202D3E20004F6E636520703E
:1001F0006572207365636F6E6400496E636F72721F
:1002000065637420616C61726D206D6F6465005B65
:10021000253032753A253032753A253032753A2517
:100220003032755D005B253032753A253032753AD3
:10023000253032755D005B253032753A25303275D8
:100240005D005B253032755D005B446179203A20AA
:10025000686F757273203A206D696E7574657320CE
:100260005D202D3E20005B44617465203A20686F5C
:10027000757273203A206D696E75746573205D2008
:100280002D3E20005B486F757273203A206D696EB9
:10029000757465735D202D3E20005B4D696E75742D
:1002A00065735D202D3E20004F6E63652070657282
:1002B000206D696E7574650025732C2025303275AC
:1002C0002F253032752F253032752C202530327590
:1002D0003A253032753A25303275006572726F7288
:1002E000002530327525632530327525632530327F
:1002F00075256325303275256325303275256325D4
:1003000030327525632530327500002124272A2DCF
:100310003033002225282B2E313400202326292C8F
:100320002F3205050505030303030101010404033E
:100330000606060606060606010405010501030277
:100340000202020202010202050504040304040180
:10035000030407070701020810102040800408105A
:100360002040020204081020408001028020400446
:100370002001010204081020014080408001020891
:1003800004088004100402010000080900000000B5
:10039000000000000000000000000000000000005D
:1003A000000000000000000000000000000000004D
:1003B000000000000000000000000000407A10F380
:1003C0005A00A0724E18090010A5D4E80000E87683
:1003D00048170000E40B54020000CA9A3B000000DA
:1003E000E1F505000080969800000040420F0000F3
:1003F00000A08601000000102700000000E80300B4
:100400000000006400000000000A0000000000017D
:1004100000000000002C76D888DC674F0823DFC17D
:10042000DFAE59E1B1B796E5E3E453C63AE6519938
:100430007696E8E6C28426EB898C9B62ED407C6F61
:10044000FCEFBC9C9F40F2BAA56FA5F490055A2A18
:10045000F75C936B6CF9676DC11BFCE0E40D47FE24
:10046000F520E6B500D0ED902E0300943577050019
:1004700080841E080000204E0A000000C80C3333A0
:1004800033330F986E12831141EF8D2114893BE6AF
:100490005516CFFEE6DB18D1844B381BF77C1D9038
:1004A0001DA4BBE424203284725E228100C9F124A1
:1004B000ECA1E53D2700DD0A89108311FB11BB1378
:1004C000AA1D131F7D1F11241FBECFEFD1E2DEBF77
:1004D000CDBF13E0A0E0B2E0E8ECFEE402C005907E
:1004E0000D92AE33B107D9F71AE0AEE3B3E001C025
:1004F0001D92A83AB107E1F714E0C6ECD4E004C0BD
:100500002297FE010E946A21C63BD107C9F70E94CB
:10051000A1090C9462270C940000EF92FF920F93B4
:10052000DF93CF93CDB7DEB760970FB6F894DEBFF9
:100530000FBECDBFA82F002309F461C07E0108942F
:10054000E11CF11C88E0F70111928A95E9F72983F3
:100550003A834B835C836D837E83AF83988780E28D
:10056000801BE82FFF27E7FDF09549815A816B81B9
:100570007C81181684F019861A861B861C868827AB
:1005800099278E1B9F0B04C0440F551F661F771FB2
:100590008A95D2F728C0202F332727FD3095DB011D
:1005A000CA01022E04C0880F991FAA1FBB1F0A94FC
:1005B000D2F789879A87AB87BC8704C07695679501
:1005C00057954795EA95D2F78D819E81AF81B88581
:1005D00004C0880F991FAA1FBB1F2A95D2F7482B6A
:1005E000592B6A2B7B2B4D875E876F87788B2985EC
:1005F0003A854B855C856D857E85AF8598898A2F88
:1006000060960FB6F894DEBF0FBECDBFCF91DF91DD
:100610000F91FF90EF900895AEE5B0E0E2E1F3E0D6
:100620000C943121A8E04E010894811C911CF40126
:100630006A2E11926A94E9F729833A834B835C838B
:100640006D837E838F839887CE010996FC0111927A
:10065000AA95E9F7A986BA86CB86DC86ED86FE8662
:100660000F87188B29843A844B845C84ED84FE8444
:100670000F85188969807A808B809C806DA67EA604
:100680008FA698AA6D807E808F809884E114F104F3
:100690000105110509F0B3C36214730484049504C1
:1006A00008F03DC100E0201600E0300601E0400601
:1006B00000E0500688F41FEF211631044104510474
:1006C00039F030F048E0E42EF12C012D112D18C046
:1006D000EE24FF24870114C020E0221620E0320619
:1006E00020E0420621E0520630F038E1E32EF12C02
:1006F000012D112D05C020E1E22EF12C012D112D2F
:10070000D201C1010E2C04C0B695A7959795879587
:100710000A94D2F78B5C9D4FDC012C9180E290E033
:10072000A0E0B0E08E199F09A00BB10B7C018D01F8
:10073000E21AF10801091109E114F104010511059A
:10074000A1F10E2C04C0220C331C441C551C0A942D
:10075000D2F7A40193010E2C04C0220F331F441FB3
:10076000551F0A94D2F780E290E08E199F096DA47C
:100770007EA48FA498A804C09694879477946794D5
:100780008A95D2F7622A732A842A952AADA4BEA438
:10079000CFA4D8A804C0AA0CBB1CCC1CDD1CEA94B6
:1007A000D2F7ADA6BEA6CFA6D8AA6201EE24FF243A
:1007B000CDAADEAAEFAAF8AE9201810120703070B6
:1007C00009AF1AAF2BAF3CAFC401B301A70196012B
:1007D0000E94F4207B018C01C401B3012DA93EA924
:1007E0004FA958AD0E94F420C901DA013C014D0126
:1007F000C401B30129AD3AAD4BAD5CAD0E94AE2052
:100800009B01AC018701FF24EE24ADA4BEA4CFA4BC
:10081000D8A8C601AA27BB2757016801A82AB92A68
:10082000CA2ADB2AA216B306C406D506E0F4089449
:100830006108710881089108A20CB31CC41CD51C66
:10084000A214B304C404D50470F0A216B306C406FF
:10085000D50648F408946108710881089108A20C33
:10086000B31CC41CD51CA21AB30AC40AD50AC601FB
:10087000B5012DA93EA94FA958AD0E94F4207B01D6
:100880008C01C601B5012DA93EA94FA958AD0E9402
:10089000F420C901DA015C016D01C601B50129AD81
:1008A0003AAD4BAD5CAD0E94AE209B01AC0187011F
:1008B000FF24EE248DA59EA5AFA5B8A9A070B070A9
:1008C000E82AF92A0A2B1B2BE216F3060407150760
:1008D000C0F40894A108B108C108D108E20CF31CC7
:1008E000041D151DE214F3040405150550F0E2166D
:1008F000F3060407150728F40894A108B108C108F5
:10090000D108D3019927882786017501E82AF92A99
:100910000A2B1B2BE9AAFAAA0BAB1CABCFC42114E0
:1009200031044104510471F461E070E080E090E032
:1009300020E030E040E050E00E94F420C901DA01FC
:100940001C012D0100E0201600E0300601E0400609
:1009500000E0500688F41FEF2116310441045104D1
:1009600031F028F048E050E060E070E017C040E06F
:1009700050E060E070E012C020E0221620E0320675
:1009800020E0420621E0520628F048E150E060E015
:1009900070E004C040E150E060E070E0D201C101CD
:1009A000042E04C0B695A795979587950A94D2F71B
:1009B0008B5C9D4FDC012C91E0E2EE2EF12C012DA1
:1009C000112DD801C701841B950BA60BB70B821BF9
:1009D0009109A109B1090097A105B10561F464016C
:1009E0005301A218B308C408D50831E0632E712C56
:1009F000812C912C1EC16F968FAF6F97082E04C06B
:100A0000220C331C441C551C0A94D2F7EE2DE81B13
:100A1000640153010E2E04C0D694C794B794A794D2
:100A20000A94D2F7A40193016F960FAC6F9704C09C
:100A3000220F331F441F551F0A94D2F76DA47EA4C2
:100A40008FA498A80E2E04C09694879477946794E8
:100A50000A94D2F784017301E22AF32A042B152B9E
:100A6000E9A6FAA60BA71CA73201882499249201B3
:100A700081012070307021960CAF1DAF2EAF3FAFBB
:100A80002197C601B501A40193010E94F4207B01C6
:100A90008C01C601B501A40193010E94F420C90193
:100AA000DA0125968CAF9DAFAEAFBFAF2597BC01E5
:100AB000CD0121962CAD3DAD4EAD5FAD21970E948D
:100AC000AE209B01AC018701FF24EE24A9A4BAA4A7
:100AD000CBA4DCA4C601AA27BB275C016D01AE280C
:100AE000BF28C02AD12AA216B306C406D50660F5CF
:100AF00025966CAD7DAD8EAD9FAD25976150704054
:100B00008040904025966CAF7DAF8EAF9FAF25970C
:100B1000A20CB31CC41CD51CA214B304C404D50479
:100B200098F0A216B306C406D50670F46150704062
:100B30008040904025966CAF7DAF8EAF9FAF2597DC
:100B4000A20CB31CC41CD51CA21AB30AC40AD50A31
:100B5000C601B501A40193010E94F4207B018C0120
:100B6000C601B501A40193010E94F420C901DA0174
:100B70003C014D01C401B30121962CAD3DAD4EADFC
:100B80005FAD21970E94AE209B01AC018701FF243D
:100B9000EE2489A59AA5ABA5BCA5A070B07057019D
:100BA0006801A82AB92ACA2ADB2AA216B306C406F3
:100BB000D506E0F408946108710881089108A20C38
:100BC000B31CC41CD51CA214B304C404D50470F017
:100BD000A216B306C406D50648F408946108710845
:100BE00081089108A20CB31CC41CD51C8DA59EA520
:100BF000AFA5B8A96F960FAC6F9704C0880F991F67
:100C0000AA1FBB1F0A94D2F78DA79EA7AFA7B8ABA8
:100C1000A21AB30AC40AD50A2596ECACFDAC0EADF7
:100C20001FAD2597D70199278827682A792A8A2A0C
:100C30009B2A82012227332729960CAF1DAF2EAFA6
:100C40003FAF2997A2019101407050702D962CAFB3
:100C50003DAF4EAF5FAF2D97C601B50129962CADC4
:100C60003DAD4EAD5FAD29970E94F4207B018C0114
:100C7000C601B50129962CAD3DAD4EAD5FAD2997AE
:100C80000E94F420C901DA0161968CAF9DAFAEAF2E
:100C9000BFAF6197BC01CD012D962CAD3DAD4EADE2
:100CA0005FAD2D970E94AE209B01AC018701FF2410
:100CB000EE24ADA4BEA4CFA4D8A8C601AA27BB2702
:100CC00057016801A82AB92ACA2ADB2AA216B30644
:100CD000C406D50660F561966CAD7DAD8EAD9FAD59
:100CE0006197615070408040904061966CAF7DAFDD
:100CF0008EAF9FAF6197A20CB31CC41CD51CA2146D
:100D0000B304C404D50498F0A216B306C406D506ED
:100D100070F4615070408040904061966CAF7DAF40
:100D20008EAF9FAF6197A20CB31CC41CD51CA21A36
:100D3000B30AC40AD50AC601B50129962CAD3DAD4A
:100D40004EAD5FAD29970E94F4207B018C01C60156
:100D5000B50129962CAD3DAD4EAD5FAD29970E94F2
:100D6000F420C901DA015C016D01C601B5012D96BF
:100D70002CAD3DAD4EAD5FAD2D970E94AE209B01D9
:100D8000AC018701FF24EE248DA59EA5AFA5B8A9CF
:100D9000A070B070E82AF92A0A2B1B2BE216F30682
:100DA00004071507C0F40894A108B108C108D108C8
:100DB000E20CF31C041D151DE214F30404051505D3
:100DC00050F0E216F3060407150728F40894A1086A
:100DD000B108C108D1086196ECACFDAC0EAD1FADF9
:100DE0006197D7019927882796018501082B192B30
:100DF0002A2B3B2B09AB1AAB2BAB3CAB62C26E145C
:100E00007F048006910608F451C220E0E21620E03B
:100E1000F20621E0020720E0120788F43FEFE31614
:100E2000F1040105110531F028F048E050E060E0E0
:100E300070E017C040E050E060E070E012C040E0B9
:100E4000E41640E0F40640E0040741E0140728F00F
:100E500048E150E060E070E004C040E150E060E054
:100E600070E0D801C701042E04C0B695A7959795E8
:100E700087950A94D2F78B5C9D4FDC012C9130E270
:100E8000A32EB12CC12CD12CD601C501841B950BEE
:100E9000A60BB70B821B9109A109B1090097A10507
:100EA000B10589F4E614F7040805190508F4F2C140
:100EB0006DA47EA48FA498A862147304840495047E
:100EC00008F0E8C1F3C16E968FAF6E97082E04C08C
:100ED000EE0CFF1C001F111F0A94D2F76A2D681B2D
:100EE000D201C101062E04C0B695A79597958795A6
:100EF0000A94D2F75C016D01AE28BF28C02AD12A1E
:100F0000ADA2BEA2CFA2D8A6720161016E960FACAF
:100F10006E9704C0CC0CDD1CEE1CFF1C0A94D2F7AB
:100F2000C9A2DAA2EBA2FCA264015301062E04C0FE
:100F3000D694C794B794A7940A94D2F7D401C30166
:100F40006E960FAC6E9704C0880F991FAA1FBB1F27
:100F50000A94D2F7EDA4FEA40FA518A904C0169513
:100F60000795F794E7946A95D2F737014801682A04
:100F7000792A8A2A9B2A6D8E7E8E8F8E98A2EDA06A
:100F8000FEA00FA118A53801882499249801870193
:100F90002070307065960CAF1DAF2EAF3FAF6597D8
:100FA000C601B501A40193010E94F4207B018C01CC
:100FB000C601B501A40193010E94F420C901DA0120
:100FC0001C012D01C201B10165962CAD3DAD4EADA8
:100FD0005FAD65970E94AE209B01AC018701FF24A5
:100FE000EE24AD8CBE8CCF8CD8A0C601AA27BB271F
:100FF00057016801A82AB92ACA2ADB2AA216B30611
:10100000C406D50600F508942108310841085108A6
:10101000EDA0FEA00FA118A5AE0CBF1CC01ED11ED6
:10102000AE14BF04C006D10670F0A216B306C40603
:10103000D50648F408942108310841085108AE0C3F
:10104000BF1CC01ED11EA21AB30AC40AD50AC6010B
:10105000B501A40193010E94F4207B018C01C6011B
:10106000B501A40193010E94F420C901DA013C01F9
:101070004D01C401B30165962CAD3DAD4EAD5FADE4
:1010800065970E94AE209B01AC018701FF24EE24EE
:101090008D8D9E8DAF8DB8A1A070B0705701680185
:1010A000A82AB92ACA2ADB2AA216B306C406D5067C
:1010B00000F5089461087108810891086DA17EA16E
:1010C0008FA198A5A60EB71EC81ED91EA616B706D4
:1010D000C806D90670F0A216B306C406D50648F4B1
:1010E00008946108710881089108A60EB71EC81EF1
:1010F000D91ED601C501821B930BA40BB50B898F9A
:101100009A8FAB8FBC8FD101992788276401530137
:10111000A82AB92ACA2ADB2AA9AABAAACBAADCAA6F
:10112000860175012FEF3FEF40E050E0E222F3220D
:1011300004231523A601662777276D964CAF5DAF74
:101140006EAF7FAF6D97A9A0BAA0CBA0DCA06FEF68
:101150007FEF80E090E0A622B722C822D92289A1A1
:101160009AA1ABA1BCA11D0144245524C801B7011B
:10117000A60195010E94AE2069966CAF7DAF8EAF3F
:101180009FAF6997C801B701A20191010E94AE20EB
:101190003B014C016D966CAD7DAD8EAD9FAD6D97F5
:1011A000A60195010E94AE207B018C016D966CAD6D
:1011B0007DAD8EAD9FAD6D97A20191010E94AE20D5
:1011C0005B016C01A8019701260D371D481D591DB3
:1011D00069966CAC7DAC8EAC9FAC6997C401AA27B4
:1011E000BB27280F391F4A1F5B1F2E153F054007DD
:1011F000510748F4E12CF12C61E0062F112DAE0CC3
:10120000BF1CC01ED11ECA01AA27BB27BC01CD012D
:101210006A0D7B1D8C1D9D1D698C7A8C8B8C9C8C22
:10122000661677068806990640F1661577058805E3
:10123000990509F043C0D9019927882769962CADF3
:101240003DAD4EAD5FAD699740705070820F931FFA
:10125000A41FB51F2DA53EA54FA558A96E960FAC8E
:101260006E9704C0220F331F441F551F0A94D2F7F4
:10127000281739074A075B0708F509A91AA92BA9F6
:101280003CA9015010402040304009AB1AAB2BABB9
:101290003CAB14C066247724430121E030E040E0F9
:1012A00050E029AB3AAB4BAB5CAB0BC06624772468
:1012B000430119AA1AAA1BAA1CAA03C066247724F0
:1012C0004301FE01719688E0DF011D928A95E9F7DE
:1012D000A9A8BAA8CBA8DCA8A98ABA8ACB8ADC8A32
:1012E0006D8A7E8A8F8A988E29A93A894B895C8972
:1012F000662D7E898F89988DC25ADF4FE2E10C946A
:101300004D210895EF92FF920F931F93609139033F
:1013100070913A0380913B0390913C032EE3E22EBF
:1013200023E0F22E47E023E087010E946E218AEE3F
:1013300093E0B7010E94E2111F910F91FF90EF908F
:1013400008950E94F31A8FEE93E00E94FC118534F9
:1013500040F081E361E00E94BF1B81E361E00E94F5
:10136000DD1B8FEE93E061E070E00E94041281309B
:10137000B1F480918E0690918F06A0919006B09165
:101380009106906880938E0690938F06A0939006A6
:10139000B093910681E090E060E00E945C2487E2D7
:1013A0000E94281C892B09F44FC08FEE93E060E067
:1013B00070E00E9404128A3009F046C081E593E093
:1013C0000E94351081E593E00E944C0E81E593E088
:1013D0000E94FC0F80916A03482F50E080916C03BB
:1013E000481B510980916903282F30E080916D03DB
:1013F000281B3109121613065CF48CE390E0BC0143
:10140000269FC001279F900D369F900D11240EC07E
:1014100037FF0EC08CE390E0BC01269FC001279FE0
:10142000900D369F900D1124805F914F480F591FEA
:101430004330510548F480919D0690919E0680624C
:1014400090939E0680939D0681E593E00E9435105F
:1014500081E593E00E94E80C81E593E00E94D70CBF
:1014600081E593E00E945E1063E070E080E090E030
:101470000E94A51A80918E0690918F06A0919006E9
:10148000B0919106A1FF5EC063E070E080E090E063
:101490000E94A51A86E161E00E94BF1B63E070E034
:1014A00080E090E00E94A51A86E161E00E94DD1BC9
:1014B00063E070E080E090E00E94A51A0E94961020
:1014C00063E070E080E090E00E94A51A81E00E9455
:1014D0006F1063E070E080E090E00E94A51A84E065
:1014E0000E947D1063E070E080E090E00E94A51A09
:1014F00080E00E94781063E070E080E090E00E945D
:10150000A51A0E946B1063E070E080E090E00E94FA
:10151000A51A84EE93E066E00E94B51063E070E0E7
:1015200080E090E00E94A51A86E161E00E94BF1B66
:1015300086E160E00E94DD1B63E070E080E090E007
:101540000E94A51A63E070E080E090E00E94A51A76
:101550008FEE93E00E94701360934D0370934E03DF
:1015600080934F039093500380914D0390914E03CD
:10157000A0914F03B09150030E94E3210E94820981
:101580000E948109FDCFFC01148A158A168A178AE8
:10159000108E118E128E138E148E158E168E178E3F
:1015A00010A211A212A213A280E090E0A0E0B0E08D
:1015B00084A395A3A6A3B7A308951092E203109263
:1015C00064030895EF92FF920F931F93DF93CF93DD
:1015D000CDB7DEB7EC970FB6F894DEBF0FBECDBF28
:1015E0008C01EEEEF0E065917491B5E1EB2EF12CFB
:1015F000EC0EFD1EC7010E94EE21E0EFF0E06591C8
:101600007491CE0101960E94EE21D80156968C91DC
:10161000843009F46DC0853048F4823069F183303C
:1016200008F048C0813009F000C10AC0863009F4D2
:101630009BC0863008F47AC0873009F0F6C0B2C08B
:10164000EDB7FEB774970FB6F894FEBF0FBEEDBFAF
:101650003196075D1F4FADB7BEB712961C930E9320
:1016600011970952104084E690E093838283F582BB
:10167000E48282E192E0B3C08DB79EB744970FB683
:10168000F8949EBF0FBE8DBFEDB7FEB73196075DD4
:101690001F4FADB7BEB712961C930E931197095208
:1016A000104084E690E093838283F582E48286E1B1
:1016B00092E095C08DB79EB744970FB6F8949EBF41
:1016C0000FBE8DBFEDB7FEB73196075D1F4FADB7AB
:1016D000BEB712961C930E9311970952104084E6E0
:1016E00090E093838283F582E4828AE192E077C07E
:1016F0008DB79EB744970FB6F8949EBF0FBE8DBFAF
:10170000EDB7FEB73196075D1F4FADB7BEB7129666
:101710001C930E9311970952104084E690E0938336
:101720008283F582E4828EE192E059C08DB79EB744
:1017300044970FB6F8949EBF0FBE8DBFEDB7FEB7AE
:101740003196075D1F4FADB7BEB712961C930E932F
:1017500011970952104084E690E093838283F582CA
:10176000E48282E292E03BC08DB79EB744970FB609
:10177000F8949EBF0FBE8DBFEDB7FEB73196075DE3
:101780001F4FADB7BEB712961C930E931197095217
:10179000104084E690E093838283F582E48286E2BF
:1017A00092E01DC08DB79EB744970FB6F8949EBFC8
:1017B0000FBE8DBFEDB7FEB73196075D1F4FADB7BA
:1017C000BEB712961C930E9311970952104084E6EF
:1017D00090E093838283F582E4828AE292E09783A9
:1017E0008683D80154968C9154978087118655969C
:1017F0008C915597828713865A968C915A97848735
:10180000158657968C9157978687178658968C9190
:101810005897808B118A59968C91828B138A0E94DB
:101820000022EDB7FEB774961DC000D000D000D0E6
:10183000EDB7FEB73196075D1F4FADB7BEB7129635
:101840001C930E9311970952104084E690E0938305
:101850008283CE010196958384830E940022EDB796
:10186000FEB736960FB6F894FEBF0FBEEDBF9801D7
:10187000275D3F4FC901EC960FB6F894DEBF0FBE4F
:10188000CDBFCF91DF911F910F91FF90EF90089501
:101890001F93CF93DF93EC01162F80913C04882394
:1018A00021F486E394E00E94271586E394E068E63D
:1018B00070E00E949A1386E394E0612F0E94B414B2
:1018C000C10FD11D86E394E068810E94B41486E3C1
:1018D00094E00E94E314DF91CF911F910895FF924D
:1018E0000F931F93CF93DF938C01F62E80913C04CE
:1018F000882321F486E394E00E94271586E394E090
:1019000068E670E00E949A1386E394E06F2D0E94CF
:10191000B41486E394E00E94E31486E394E068E65E
:1019200070E041E050E00E942415C0E0D0E086E382
:1019300094E00E94A413882329F4CA30D10511F041
:101940002196F5CF86E394E00E94AA130F0D111D96
:10195000F801808386E394E00E94E314DF91CF9145
:101960001F910F91FF9008950F931F938C016FE0CB
:101970000E946F0CF801878583701F910F91089565
:10198000CF93DF93EC010E94B40C882319F0CE565C
:10199000DF4F8883809160038C7F8093600381E5B3
:1019A00093E06FE00E94480CDF91CF9108950F9370
:1019B0001F938C016EE00E946F0CF80186858D7F6D
:1019C0008687C8016EE00E94480C1F910F91089510
:1019D0000F931F938C016EE00E946F0CF8018685B7
:1019E0008E7F8687C8016EE00E94480C1F910F9180
:1019F0000895AF92BF92CF92DF92FF920F931F9301
:101A0000CF93DF938C01F62E80913C04882321F440
:101A100086E394E00E94271586E394E068E670E090
:101A20000E949A1386E394E060E070E00E94E01464
:101A300086E394E00E94E31486E394E068E670E0B5
:101A400043E150E00E942415C0E0D0E0CC24DD2426
:101A5000AF2CBB245AE0F52E0DC186E394E00E9422
:101A6000A413882309F403C186E394E00E94AA1317
:101A7000282FF801EC0FFD1F8083C630D10509F433
:101A800082C0C730D105B8F4C230D10509F44EC0C8
:101A9000C330D10538F4209769F1C130D10509F080
:101AA000E4C036C0C430D10509F451C0C530D105F9
:101AB00008F05BC049C0CA30D10509F49BC0CB30E7
:101AC000D10558F4C830D10509F478C090E02F70E2
:101AD000C930D10508F081C064C0CC30D10509F40B
:101AE000A7C0CC30D10508F494C0CD30D10509F0A1
:101AF000BCC0ADC090E044E0959587954A95E1F76C
:101B00008F9DC00111242F70280FF801218FADC0C7
:101B100090E034E0959587953A95E1F78F9DC00167
:101B200011242F70280FF801208F9FC090E0B4E09F
:101B300095958795BA95E1F78F9DC00111242F7077
:101B4000280FF801278B91C0F801868B8EC090E09A
:101B5000A4E095958795AA95E1F78F9DC001112482
:101B60002F70280FF801228F80C090E0F4E0959547
:101B70008795FA95E1F78F9DC00111242F70280FEA
:101B8000F801258B72C090E0E4E095958795EA9581
:101B9000E1F78F9DC00111242F70280FF801248BCD
:101BA00064C074E0959587957A95E1F787708F9D6D
:101BB000C0011124280FF801238F57C090E064E082
:101BC000959587956A95E1F787708F9DC0011124DF
:101BD0002F70280FF801248F48C054E09595879501
:101BE0005A95E1F783708F9DC0011124280FF801E9
:101BF000258F3BC090E044E0959587954A95E1F7A5
:101C000083708F9DC00111242F70280FF801268F3B
:101C10002CC090E034E0959587953A95E1F7877070
:101C20008F9DC00111242F70280FF801278F1DC030
:101C300090E0B4E095958795BA95E1F783708F9D14
:101C4000C00111242F70280FF80120A30EC090E0CE
:101C5000A4E095958795AA95E1F783708F9DC001C3
:101C600011242F70280FF80121A3219603C0089496
:101C7000C11CD11CAC16BD0628F0FAE0CF16D10469
:101C800008F4EBCEDF91CF911F910F91FF90DF9081
:101C9000CF90BF90AF900895AF92BF92CF92DF9256
:101CA000EF92FF920F931F93DF93CF93CDB7DEB7E1
:101CB000C857D0400FB6F894DEBF0FBECDBF6C0141
:101CC0006AE00E94F90C49E2A42EB12CAC0CBD1CB8
:101CD00084E6D5011D928A95E9F7ECECF0E0659178
:101CE00074918E010F5F1F4FC8010E94EE21C50144
:101CF000B8010E94F521F60182A1823009F476C074
:101D0000833030F4882371F0813009F03CC11AC06F
:101D1000843009F4F2C0843008F4AEC0853009F094
:101D200032C127C1EEECF0E065917491C8010E94C8
:101D3000EE21C501B8010E94F521ECEDF0E06591BE
:101D400074910FC0E0EDF0E065917491C8010E94BC
:101D5000EE21C501B8010E94F521ECEDF0E065919E
:101D600074918E01075D1F4FC8010E94EE218DB74F
:101D70009EB70E970FB6F8949EBF0FBE8DBFEDB7FE
:101D8000FEB7319631E5E32EF12CEC0EFD1EADB71A
:101D9000BEB71296FC92EE92119788E290E0938380
:101DA000828315830483D6015E968C915E97868329
:101DB00017825D968C915D97808711865C968C91D9
:101DC0005C97828713865B968C91848715860E9428
:101DD0000022EDB7FEB73E960FB6F894FEBF0FBED9
:101DE000EDBFC501B7010E94F521F3C0E2EDF0E0BF
:101DF00065917491C8010E94EE21C501B8010E944D
:101E0000F521EEEDF0E0659174918E01075D1F4FB5
:101E1000C8010E94EE218DB79EB70C970FB6F894BB
:101E20009EBF0FBE8DBFEDB7FEB7319621E5E22E06
:101E3000F12CEC0EFD1EADB7BEB71296FC92EE92E1
:101E4000119788E290E09383828315830483D601FF
:101E50005D968C915D97868317825C968C915C97DA
:101E6000808711865B968C91828713860E94002260
:101E7000EDB7FEB73C96B0CFE4EDF0E0659174911C
:101E8000C8010E94EE21C501B8010E94F521E0EED3
:101E9000F0E0659174918E01075D1F4FC8010E94AB
:101EA000EE218DB79EB70A970FB6F8949EBF0FBE6E
:101EB0008DBFEDB7FEB7319691E5E92EF12CEC0E12
:101EC000FD1EADB7BEB71296FC92EE92119788E256
:101ED00090E09383828315830483D6015C968C9172
:101EE0005C97868317825B968C91808711860E940F
:101EF0000022EDB7FEB73A966FCFE6EDF0E06591C0
:101F00007491C8010E94EE21C501B8010E94F5211B
:101F1000E2EEF0E0659174918E01075D1F4FC801FC
:101F20000E94EE218DB79EB708970FB6F8949EBF1A
:101F30000FBE8DBFEDB7FEB7319681E5E82EF12CCF
:101F4000EC0EFD1EADB7BEB71296FC92EE92119745
:101F500088E290E09383828315830483D6015B96A5
:101F60008C91868317820E940022EDB7FEB73896C7
:101F700033CFE8EDF0E065917491C8010E94EE2145
:101F8000C501B80130CFEAEDF0E0659174918E01A2
:101F90000F5F1F4FC8010E94EE2100D000D000D07B
:101FA000EDB7FEB73196ADB7BEB71296BC92AE9202
:101FB000119784E690E093838283158304830E94C3
:101FC0000022EDB7FEB736960FB6F894FEBF0FBEEF
:101FD000EDBFC501C858DF4F0FB6F894DEBF0FBE86
:101FE000CDBFCF91DF911F910F91FF90EF90DF90C8
:101FF000CF90BF90AF9008950F931F938C0166E030
:102000000E94F90CC8010E94E20A1F910F910895E5
:102010000F931F93CF93DF93EC01042F68A780E306
:1020200061E00E94BF1B18A5112379F0113091F4D3
:1020300080E361E00E94DD1B013019F482E08B8BAC
:1020400009C0002339F41B8B05C080E360E00E94C7
:10205000DD1B1B8A6AE070E080E090E00E94A51A18
:10206000DF91CF911F910F9108950F931F938C01D2
:1020700061E040E00E940810C8010E94C00CC80145
:102080000E94C30AC8016DE00E94F90C8BE261E076
:102090000E94BF1B8BE260E00E94DD1B1F910F912D
:1020A000089580913C04882341F08091CB048823DB
:1020B00021F480ED94E00E94701F08950F931F9308
:1020C0008C010E945110C80160E040E00E9408109D
:1020D0001F910F9108958CB58F7B8CBD0895882337
:1020E00019F48CB5806202C08CB58F7D8CBD0895CB
:1020F0009CB5937F982B9CBD08959CB5282F237089
:102100009C7F292B2CBD9DB581709E7F982B9DBDFA
:1021100008951092E5031092E4031092E6031092E2
:10212000E7031092E8031092E90308958EE161E05D
:102130000E94BF1B8FE161E00E94BF1B8DE161E047
:102140000E94BF1B8EE160E00E94DD1B8FE160E01A
:102150000E94DD1B8DE161E00E94DD1B8CB580617A
:102160008CBD8CB580648CBD08951F93162F8DE1B6
:1021700061E00E94BF1B82E261E00E94BF1B8DE113
:1021800061E00E94DD1B82E261E00E94DD1B809124
:102190008E0690918F06A0919006B0919106A2FFB5
:1021A00008C088E061E00E94BF1B88E061E00E94F7
:1021B000DD1B80918E0690918F06A0919006B091C4
:1021C000910696FF08C089E061E00E94BF1B89E08C
:1021D00061E00E94DD1B80918E0690918F06A09198
:1021E0009006B0919106A3FF08C082E061E00E94D2
:1021F000BF1B82E061E00E94DD1B80918E06909102
:102200008F06A0919006B0919106A4FF08C082E2CB
:1022100061E00E94BF1B82E261E00E94DD1B13307F
:10222000C9F0143028F4113069F0123068F408C095
:10223000153041F11530D0F0163009F062C02FC0D2
:102240008DE12BC082E229C08FEE93E00E9408123C
:102250008CE223C080918E0690918F06A09190060B
:10226000B0919106A2FF4DC088E017C080918E0604
:1022700090918F06A0919006B091910696FF41C073
:1022800089E00BC080918E0690918F06A0919006F8
:10229000B0919106A3FF35C082E060E030C08DE1CF
:1022A00061E00E94DD1B82E261E00E94DD1B809103
:1022B0008E0690918F06A0919006B0919106A2FF94
:1022C00004C088E061E00E94DD1B80918E06909141
:1022D0008F06A0919006B091910696FF04C089E008
:1022E00061E00E94DD1B80918E0690918F06A09187
:1022F0009006B0919106A3FF04C082E061E00E94C5
:10230000DD1B1F9108951092EA030895CF93DF9388
:10231000EC0180918E0690918F06A0919006B0916D
:10232000910682FF0BC063E070E080E090E00E94C5
:10233000A51A8BE061E00E94DD1B06C063E070E03F
:1023400080E090E00E94A51A89818093C5008A816F
:102350008093C4008B818093C2008C818093CA00DB
:10236000DF91CF910895DC018091C50011968C9387
:1023700011978091C40012968C931297E2ECF0E0D2
:10238000808113968C9313978091CA0014968C9336
:10239000149780818F7D808380818F7E8083808170
:1023A000877F808360E072EC81E090E04C910E9436
:1023B0002E1D87E161E00E94DD1B8BE060E00E9442
:1023C000DD1B0895EF92FF920F931F938C017B0109
:1023D0000E94B311C701F80160810E94181DF80125
:1023E00080810E94F61CC8010E9486111F910F91E6
:1023F000FF90EF90089508958FED90E00E944E2495
:102400008F3F09F480E00895CB010E944E24089587
:1024100087E161E00E94BF1B84E261E00E94BF1B74
:1024200085E261E00E94BF1B87E161E00E94DD1B45
:1024300084E261E00E94DD1B85E261E00E94DD1B19
:1024400008950F931F93162F042F862F61E00E948B
:10245000BF1B013019F4812F61E004C0002321F477
:10246000812F60E00E94DD1B1F910F9108952F9234
:102470003F924F925F926F927F928F929F92AF9214
:10248000BF92CF92DF92EF92FF920F931F93DF9351
:10249000CF93CDB7DEB7C75FD0400FB6F894DEBF9D
:1024A0000FBECDBF2DB63EB68DB79EB708970FB6FF
:1024B000F8949EBF0FBE8DBFADB6BEB60894A11CEA
:1024C000B11C7501CC24DD244E010894811C911CA3
:1024D000CE0180599F4FAEEF4A2EAFEF5A2E480ED5
:1024E000591EF0E16F2E712C680E791EDE01A0528C
:1024F000BF4FC051DF4FB983A883C05FD040FE01FA
:102500003E96CE50DF4FF983E883C25FD040C401CE
:102510006DE00E94611E8FEE93E06CE040E00E944F
:1025200021128FEE93E06DE040E00E942112D7016E
:102530001D921D921D921C9213978CE061E00E94E7
:10254000BF1B8CE061E00E94DD1BC4010E94991E4C
:102550008FEE93E06DE041E00E9421126AE070E0AE
:1025600080E090E00E94A51AC40163E340E00E946D
:10257000211E62E370E080E090E00E94A51A8E01C7
:1025800002511F4FC4010E94B91DF80180831182BE
:1025900061E070E080E090E00E94A51A02501040D7
:1025A0000415150579F7F301DE015096819191919B
:1025B0008D939D93C051DF4F88819981C05FD0403A
:1025C000E817F90799F7BE0162597F4F21E030E023
:1025D00040E050E0DB018D919C91019779F4D701A7
:1025E0008D919D910D90BC91A02D820F931FA41FE2
:1025F000B51FF70180839183A283B383625070403B
:10260000CE50DF4F88819981C25FD040681779072B
:1026100029F0220F331F441F551FDCCFF7018081A3
:102620009181A281B3818F5F9F4FAF4FBF4F31F434
:10263000D7011D921D921D921C9213978CE060E0B1
:102640000E94DD1B8FEE93E06CE040E00E942112BF
:102650008FEE93E06DE040E00E9421120894C11CCF
:10266000D11CE4E0F0E0EE0EFF1EF2E0CF16D10444
:1026700009F04DCFD5012D913D914D915C9113976E
:1026800014968D919D910D90BC91A02D281739071E
:102690004A075B0721F020E030E040E050E0B9015C
:1026A000CA010FB6F8943EBE0FBE2DBEC950DF4F13
:1026B0000FB6F894DEBF0FBECDBFCF91DF911F9153
:1026C0000F91FF90EF90DF90CF90BF90AF909F90D1
:1026D0008F907F906F905F904F903F902F900895D4
:1026E000EF92FF920F931F930E9437127B018C0190
:1026F0006115710581059105B1F483EE90E00E94AA
:1027000056246A302AE072072AE082072AE09207FC
:1027100051F06F3F2FEF72072FEF82072FEF9207D5
:1027200011F07B018C01B701C8011F910F91FF903F
:10273000EF90089581E08093350460931204109225
:102740003304109234040895809111049091100480
:10275000891B08959091100480911104981710F02E
:1027600080E00895E92FF0E0E051FC4F80819F5F09
:1027700090931004089510923D0410923604109224
:1027800037048AEF90E0A0E0B0E0809338049093A3
:102790003904A0933A04B0933B040895CF93DF9398
:1027A000EC0180918E0690918F06A0919006B091D9
:1027B000910684FD3CC080918E0690918F06A09179
:1027C0009006B091910685FD32C080918E06909161
:1027D0008F06A0919006B091910686FD28C0809149
:1027E0008E0690918F06A0919006B091910687FD7C
:1027F0001EC080918E0690918F06A0919006B09198
:10280000910690FD14C080918E0690918F06A09144
:102810009006B091910691FD0AC080918E0690912C
:102820008F06A0919006B091910693FF1DC08091F4
:102830003D04882339F480ED94E060E041E00E949B
:10284000141F0CC08981882331F480ED94E060E08E
:1028500041E00E94141F8881882331F480ED94E0C8
:1028600061E041E00E94141FDF91CF910895FC01C7
:1028700080918E0690918F06A0919006B09191065E
:1028800081709070A070B070808380918E0690915E
:102890008F06A0919006B0919106B695A795979551
:1028A00087958170818380918E0690918F06A0918B
:1028B0009006B091910684FD3CC080918E06909167
:1028C0008F06A0919006B091910685FD32C080914F
:1028D0008E0690918F06A0919006B091910686FD8C
:1028E00028C080918E0690918F06A0919006B0919D
:1028F000910687FD1EC080918E0690918F06A09153
:102900009006B091910690FD14C080918E06909132
:102910008F06A0919006B091910691FD0AC080911A
:102920008E0690918F06A0919006B091910693FF2C
:1029300010C080913D04882361F480ED94E060E054
:1029400040E00E94141F80ED94E061E040E00E94AE
:10295000141F08950F931F938C010E946715F801AF
:1029600016821F910F910895DF93CF930F92CDB7E9
:10297000DEB7698380913504882389F0809134041F
:102980008032D0F480913304E82FF0E0ED5EFB4F0D
:1029900060838F5F80933304809334040DC086E39B
:1029A00094E00E943714CE01019661E00E944C151C
:1029B00086E394E00E94CE130F90CF91DF910895AB
:1029C0000E94B4140895FF920F931F9306E314E03E
:1029D000C8010E9437148091120463E174E04091B1
:1029E000340421E00E948C17F82E109233041092C8
:1029F000340410923504C8010E94CE138F2D1F910C
:102A00000F91FF900895FF920F931F93F62E142FAE
:102A100086E394E00E943714012F113208F000E29F
:102A20008F2D60EF73E0402F0E94F117182F109246
:102A300010040093110486E394E00E94CE13812FCA
:102A40001F910F91FF9008950E94031508950F9311
:102A50001F938C0180E2E0EFF3E0DF01982F1D92DD
:102A60009A95E9F71092100410921104E3E1F4E052
:102A7000DF011D928A95E9F7109233041092340415
:102A80000E94BE1581E0F801868384E090E00E94F8
:102A9000CF1A1F910F910895482F613210F081E0F5
:102AA000089580913E04843011F082E0089560938F
:102AB0008704A6E6B4E0842F9C01F90102C081914D
:102AC0008D938E2F841B8617D0F380E0089558983D
:102AD00059988091B90081608093B9008091B900C4
:102AE00082608093B9008091BC0080688093BC00B4
:102AF0008091BC0080618093BC008091BC008F7B82
:102B00008093BC008091BC008F7D8093BC0080913D
:102B1000BC00877F8093BC0080918E0690918F06C9
:102B2000A0919006B091910686FD14C080918E060A
:102B300090918F06A0919006B091910690FD0AC0E9
:102B400080918E0690918F06A0919006B09191068B
:102B500093FF04C08091BC008B7F03C08091BC00B8
:102B600084608093BC008091BC008E7F8093BC0009
:102B700080916400806880936400089510923E0400
:102B8000E4E6F0E080818F778083589A599AE9EBE8
:102B9000F0E080818E7F808380818D7F808381E4DF
:102BA0008093B80085E48093BC0080E2E4E4F4E024
:102BB000DF01982F1D929A95E9F7E6E6F4E0DF0130
:102BC000982F1D929A95E9F7E8E8F4E0DF011D924D
:102BD0008A95E9F70895882349F01092AA04109283
:102BE000AB041092AC041092AD0413C08091AA04FF
:102BF0009091AB04A091AC04B091AD040196A11DDD
:102C0000B11D8093AA049093AB04A093AC04B0933D
:102C1000AD048091AA049091AB04A091AC04B09152
:102C2000AD04805A9648A140B04010F480E0089569
:102C30001092AA041092AB041092AC041092AD044E
:102C40000E94BE1581E0089585ED8093BC0081E06F
:102C50000E94EB1505C080E00E94EB15882321F44B
:102C60008091BC0084FDF7CF10923E0408951F921E
:102C70000F920FB60F920BB60F9211242F933F9322
:102C80004F935F936F937F938F939F93AF93BF9374
:102C9000EF93FF938091B90090E0887F9070803629
:102CA000910509F4C3C081369105CCF588329105B0
:102CB00009F47BC089329105B4F48031910509F49F
:102CC0006FC0813191053CF4009709F40EC108975B
:102CD00009F00FC165C08831910509F466C080977D
:102CE00009F007C177C08034910509F48DC08134A3
:102CF000910544F48033910509F472C0C89709F036
:102D0000F8C072C08035910509F472C0883591050C
:102D100009F47FC08834910509F0EBC0E8C0883918
:102D2000910509F4D8C089399105ECF488379105EB
:102D300009F47CC0893791054CF48836910509F473
:102D400075C08037910509F0D4C070C088389105EE
:102D500009F4C1C08039910509F46EC0803891052D
:102D600009F0C7C069C0803B910509F48CC0813B64
:102D700091054CF4803A910509F470C0883A9105A8
:102D800009F0B7C080C0803C910509F4A8C0883C18
:102D9000910509F4A4C0883B910509F0AAC088C038
:102DA00080913F048093BB0013C090916404809194
:102DB0006504981708F09BC090916404E92FF0E037
:102DC000EC5BFB4F80818093BB009F5F909364041A
:102DD00085EC82C00E94241680E28093A90489C0F9
:102DE00080E38093A90483C088E38093A90477C01B
:102DF000809164049091BB00E82FF0E0EC5BFB4F06
:102E000090838F5F80936404909164048091650443
:102E10005FC0809164049091BB00E82FF0E0EC5B10
:102E2000FB4F90838F5F8093640461C083E0809345
:102E30003E041092A804CCCF8091A804803208F000
:102E40004AC08091A8049091BB00E82FF0E0E857B9
:102E5000FB4F90838F5F8093A804BACF8091A80422
:102E6000803230F4E091A804F0E0E857FB4F108284
:102E70006091A804E0914204F091430488E894E052
:102E800070E009952CC084E080933E041092860483
:102E900010928704E0914004F091410409958091DB
:102EA0008704882329F481E08093870410926604C4
:102EB00090918604E92FF0E0EA59FB4F80818093DE
:102EC000BB009F5F90938604909186048091870455
:102ED000981708F47DCF85E88093BC000AC085EC84
:102EE0008093BC0010923E0404C01092A9040E947A
:102EF0002416FF91EF91BF91AF919F918F917F9198
:102F00006F915F914F913F912F910F900BBE0F905A
:102F10000FBE0F901F901895DF92EF92FF920F93C4
:102F20001F93E82E062FF72E142FD22E413210F0C9
:102F300081E051C081E00E94EB1505C080E00E9455
:102F4000EB15882321F480913E048823B9F782E0B1
:102F500080933E048FEF8093A90410926404109331
:102F60006504A4E4B4E0202F3F2DC901FC0102C098
:102F700081918D938E2F801B8117D0F38E2D90E041
:102F8000880F991F80933F0485EE8093BC0081E0F9
:102F90000E94EB15DD2041F40BC080E00E94EB1590
:102FA000882311F085E017C080913E048230A9F398
:102FB0008091A9048F3F11F480E00DC08091A90495
:102FC000803211F482E007C08091A904803311F0AF
:102FD00084E001C083E01F910F91FF90EF90DF909C
:102FE00008950F931F93CF93DF93182FEB01042FB6
:102FF000413210F081E03CC081E00E94EB1505C039
:1030000080E00E94EB15882321F480913E04882300
:10301000B9F781E080933E048FEF8093A90410926A
:10302000640400936504110F116010933F0485EE52
:103030008093BC0081E00E94EB1508C080E00E94F4
:10304000EB15882319F020E030E00FC080913E049A
:103050008130A1F3F8CFFE01E20FF31FD901AC5B81
:10306000BB4F8C9180832F5F3F4F2017A0F380E0F0
:10307000DF91CF911F910F9108951F920F920FB67C
:103080000F920BB60F9211242F933F934F935F93A0
:103090006F937F938F939F93AF93BF93EF93FF9320
:1030A0008091AE049091AF04892B29F0E091AE0499
:1030B000F091AF040995FF91EF91BF91AF919F916E
:1030C0008F917F916F915F914F913F912F910F90D1
:1030D0000BBE0F900FBE0F901F9018951F920F926E
:1030E0000FB60F920BB60F9211242F933F934F936D
:1030F0005F936F937F938F939F93AF93BF93EF9360
:10310000FF938091B0049091B104892B29F0E09154
:10311000B004F091B1040995FF91EF91BF91AF9187
:103120009F918F917F916F915F914F913F912F91DF
:103130000F900BBE0F900FBE0F901F9018951F920F
:103140000F920FB60F920BB60F9211242F933F934D
:103150004F935F936F937F938F939F93AF93BF939F
:10316000EF93FF938091B2049091B304892B29F0DF
:10317000E091B204F091B3040995FF91EF91BF91F2
:10318000AF919F918F917F916F915F914F913F91FF
:103190002F910F900BBE0F900FBE0F901F901895A0
:1031A0001F920F920FB60F920BB60F9211242F930E
:1031B0003F934F935F936F937F938F939F93AF93BF
:1031C000BF93EF93FF938091B4049091B504892B42
:1031D00029F0E091B404F091B5040995FF91EF91C5
:1031E000BF91AF919F918F917F916F915F914F911F
:1031F0003F912F910F900BBE0F900FBE0F901F901D
:1032000018951F920F920FB60F920BB60F921124C2
:103210002F933F934F935F936F937F938F939F93DE
:10322000AF93BF93EF93FF938091B6049091B7044F
:10323000892B29F0E091B604F091B7040995FF912C
:10324000EF91BF91AF919F918F917F916F915F911E
:103250004F913F912F910F900BBE0F900FBE0F908B
:103260001F9018951F920F920FB60F920BB60F92E8
:1032700011242F933F934F935F936F937F938F937B
:103280009F93AF93BF93EF93FF938091B804909176
:10329000B904892B29F0E091B804F091B90409959B
:1032A000FF91EF91BF91AF919F918F917F916F911E
:1032B0005F914F913F912F910F900BBE0F900FBEDA
:1032C0000F901F9018951F920F920FB60F920BB68A
:1032D0000F9211242F933F934F935F936F937F939C
:1032E0008F939F93AF93BF93EF93FF938091BA0413
:1032F0009091BB04892B29F0E091BA04F091BB04B2
:103300000995FF91EF91BF91AF919F918F917F911F
:103310006F915F914F913F912F910F900BBE0F9046
:103320000FBE0F901F9018951F920F920FB60F921D
:103330000BB60F9211242F933F934F935F936F938C
:103340007F938F939F93AF93BF93EF93FF9380915E
:10335000BC049091BD04892B29F0E091BC04F0914C
:10336000BD040995FF91EF91BF91AF919F918F910E
:103370007F916F915F914F913F912F910F900BBE75
:103380000F900FBE0F901F9018951F920F920FB6BF
:103390000F9211248F939F93AF93BF938091A006B8
:1033A0009091A106A091A206B091A3060196A11D3D
:1033B000B11D8093A0069093A106A093A206B0939E
:1033C000A306BF91AF919F918F910F900FBE0F9069
:1033D0001F9018951F920F920FB60F9211248F9382
:1033E0009F93AF93BF938091A4069091A506A0915F
:1033F000A606B091A7060196A11DB11D8093A40653
:103400009093A506A093A606B093A706BF91AF918F
:103410009F918F910F900FBE0F901F9018958F92D4
:103420009F92AF92BF92CF92DF92EF92FF920F9353
:103430001F938FB7F894A090A006B090A106C090FB
:10344000A206D090A3068FBF9501A60160E070E0B0
:1034500080E090E001E00E948D02122FF32EE42E16
:10346000D52EC62EB72EA82E892E02E00E948D02E0
:10347000B92F210FE1E0211708F0E0E03F0DF1E066
:103480003F1508F0F0E09E2E930EE1E0931608F051
:10349000E0E0FE2B4E0DA1E04E1508F0A0E0FF2E5F
:1034A000F40EE1E0F41608F0E0E0AE2B5D0DF1E083
:1034B0005D1508F0F0E00A2F050FE1E0051708F0B0
:1034C000E0E0FE2B6C0DA1E06C1508F0A0E01F2FD2
:1034D000160FE1E0161708F0E0E0AE2B7B0DF1E0EF
:1034E0007B1508F0F0E0A70FE1E0A71708F0E0E097
:1034F000FE2B8A0D91E08A1508F090E0F80FE1E0CC
:10350000F81708F0E0E09E2BB80D392D4F2D502F05
:10351000612F7A2F8F2F9B0FE9E0AE2EBB24CC2496
:10352000DD24EE24FF2400E010E00E940C03952F20
:10353000B901842F1F910F91FF90EF90DF90CF90F2
:10354000BF90AF909F908F900895AF92BF92CF920F
:10355000DF92EF92FF920F931F935B016C0107C004
:103560000E940F1A6E157F058007910720F40E94B4
:103570000F1A7B018C010E940F1A6E197F09800BB4
:10358000910B6A157B058C059D0550F31F910F91DA
:10359000FF90EF90DF90CF90BF90AF900895843070
:1035A000910570F0BC0180E090E00E94BD1F26E60E
:1035B00036E646EE5FE30E944B200E94911F03C057
:1035C000BC01660F771F6150704061F06150704020
:1035D00049F0FB01EE0FFF1F31978FB7F894319739
:1035E000F1F78FBF0895789484B7877F84BF1092D6
:1035F000A0061092A1061092A2061092A30684B50E
:10360000826084BD84B5816084BD85B5826085BDDE
:1036100085B5816085BDEEE6F0E0808181608083C4
:10362000E1E8F0E080818260808380818160808336
:10363000E0E8F0E0808181608083E1EBF0E0808170
:1036400084608083E1E9F0E0808184608083E0EB46
:10365000F0E0808181608083E0E9F0E0808181603A
:103660008083E4E6F0E080818E7F8083ECE7F0E009
:1036700080818F778083808180648083EAE7F0E0B7
:103680008081846080838081826080838081806883
:1036900080831092C1001092C90008959091BE04D9
:1036A000982B9093BE0480FF32C0809164008E7F7F
:1036B0008093640080917C008F7780937C00809160
:1036C0007C00806480937C0080917A008460809389
:1036D0007A0080917A00826080937A0080917A00EB
:1036E000806880937A00809164008F778093640073
:1036F000809164008B7F80936400809164008D7F53
:1037000080936400809165008E7F809365000895AA
:103710001F920F920FB60F920BB60F9211242F9398
:103720003F934F935F936F937F938F939F93AF9349
:10373000BF93EF93FF93F89481E080933D03E0E61D
:10374000F0E080818068808380818F7B808383E04C
:1037500060E00E94DD1B7894FF91EF91BF91AF91E3
:103760009F918F917F916F915F914F913F912F9199
:103770000F900BBE0F900FBE0F901F901895282F23
:1037800030E0C9018B5A9C4FFC0194912E5D3C4F57
:10379000F9018491882381F0E82FF0E0E65FFC4F87
:1037A000E491F0E0662329F4808190958923808359
:1037B00008958081892B80830895482F50E0CA01A5
:1037C00088579C4FFC012491CA018B5A9C4FFC01E5
:1037D00094914E5D5C4FFA0134913323C1F1222361
:1037E00031F1233021F4809180008F7705C024309F
:1037F00031F4809180008F7D8093800018C021304B
:1038000019F484B58F7704C0223021F484B58F7DFC
:1038100084BD0DC0263021F48091B0008F7705C0A3
:10382000273029F48091B0008F7D8093B000E32F82
:10383000F0E0EE5EFC4FE491F0E0662329F4808135
:1038400090958923808308958081892B80830895B2
:10385000482F50E0CA0188579C4FFC012491CA01AF
:103860008B5A9C4FFC0194914E5D5C4FFA01349150
:10387000332319F420E030E035C0222331F1233026
:1038800021F4809180008F7705C0243031F480913D
:1038900080008F7D8093800018C0213019F484B59A
:1038A0008F7704C0223021F484B58F7D84BD0DC094
:1038B000263021F48091B0008F7705C0273029F49D
:1038C0008091B0008F7D8093B000E32FF0E0E65E42
:1038D000FC4FE491F0E0808120E030E0892311F09A
:1038E00021E030E0C90108951F920F920FB60F92A8
:1038F0000BB60F9211242F933F934F935F936F93C7
:103900007F938F939F93AF93BF93EF93FF934091D8
:10391000C600E091BF04F091C004CF01019660E0C1
:1039200072E00E94E1209C018091C1049091C20448
:103930002817390739F0E855F74F40833093C00412
:103940002093BF04FF91EF91BF91AF919F918F9111
:103950007F916F915F914F913F912F910F900BBE8F
:103960000F900FBE0F901F9018951F920F920FB6D9
:103970000F920BB60F9211242F933F934F935F93A7
:103980006F937F938F939F93AF93BF93EF93FF9327
:103990004091CE00E091C304F091C404CF010196A0
:1039A00060E072E00E94E1209C018091C50490914A
:1039B000C6042817390739F0E855F94F408330938A
:1039C000C4042093C304FF91EF91BF91AF919F91E5
:1039D0008F917F916F915F914F913F912F910F90B8
:1039E0000BBE0F900FBE0F901F901895882341F4C7
:1039F0008091C00085FFFCCF8DE08093C60008C099
:103A00008091C80085FFFCCF8DE08093CE0008C078
:103A10008091C00085FFFCCF8AE08093C6000895A6
:103A20008091C80085FFFCCF8AE08093CE00089586
:103A3000FC0110C03196662339F48091C00085FFE7
:103A4000FCCF9093C60006C08091C80085FFFCCFD4
:103A50009093CE009081992369F70895EF92FF9299
:103A60000F931F937B018C014423C1F588E00E94D2
:103A70004E1BC801B70122E030E040E050E00E9458
:103A800016212050304F414F5F4FCA01B901A801A4
:103A900097010E941621C901DA010197A109B10914
:103AA000292F3A2F4B2F552747FD5A950196A11DD7
:103AB000B11D2093C50081508093C4008091C10046
:103AC00080618093C1008091C10088608093C100B3
:103AD0008091C10080688093C10037C080E10E945E
:103AE0004E1BC801B70122E030E040E050E00E94E8
:103AF00016212050304F414F5F4FCA01B901A80134
:103B000097010E941621C901DA010197A109B109A3
:103B1000292F3A2F4B2F552747FD5A950196A11D66
:103B2000B11D2093CD0081508093CC008091C900BD
:103B300080618093C9008091C90088608093C9002A
:103B40008091C90080688093C9001F910F91FF90F8
:103B5000EF9008951092CC0482E08093C8048CE129
:103B60008093CD0480EC91E09093CF048093CE04B9
:103B70000895DF92EF92FF920F931F93FC01E08074
:103B800001811281F894F80181818E2981838281DB
:103B9000DE2CD0948D21828382E090E00E94CF1AA7
:103BA000F80181818D21818387E090E00E94CF1A06
:103BB000F801008178948DE290E00E94CF1A80E0B5
:103BC00010E0FF240E211F21012B09F081E01F913D
:103BD0000F91FF90EF90DF9008951F93CF93DF93A5
:103BE000FC011081C181D281912F909560FF12C09C
:103BF000F8948A8189238A838981812B898389E04A
:103C000090E00E94CF1A8A81812B8A8378948FE278
:103C100090E011C0F8948A8189238A838981812B5D
:103C2000898387E390E00E94CF1A8A81812B8A835F
:103C3000789485E090E00E94CF1ADF91CF911F9198
:103C40000895CF92DF92EF92FF920F931F93CF933D
:103C5000DF938C01E42EFF24F394C0E0D0E0C62E65
:103C6000DD2460E08F2D90E08C219D21892B09F0CF
:103C700061E0C8010E94ED1DFF0C2196C830D105FE
:103C800081F7EE20A9F4F894D8011196ED91FC91FA
:103C9000129791818C918095982391831196ED9143
:103CA000FC91129792818C918095982392837894BD
:103CB000DF91CF911F910F91FF90EF90DF90CF9008
:103CC00008950F931F938C01862FD8011E966C9335
:103CD00060E00E94BF1BD8011E96EC911E978E2FAC
:103CE00090E0FC01EB5AFC4FE491EC938E5D9C4F0D
:103CF000FC018491E82FF0E0E65EFC4FE491119620
:103D0000EC93119712961C9212971B961C921B977C
:103D10001D961C921D971C961C92F80187E090E05E
:103D200012863197009711F00197FACF1F910F91EA
:103D30000895CF92DF92EF92FF920F931F93CF934C
:103D4000DF93EC018E8560E00E94BF1B0E940F1A7A
:103D50007B018C018DE7D82EDA942FEFD21609F46F
:103D600041C082E090E00E94CF1A0E940F1A6E15A7
:103D70007F058007910720F40E940F1A7B018C01B8
:103D80008E850E94281C892BB9F50E940F1A6E1986
:103D90007F09800B910B645F71408040904060F51B
:103DA000DBCF0E940F1A7B018C01CD28D1F10E943C
:103DB0000F1A6E197F09800B910B645F7140804070
:103DC000904080F48E850E94281C6C0189E090E070
:103DD0000E94CF1A0E940F1A6E157F058007910767
:103DE00020F7DFCF80E0DF91CF911F910F91FF90FF
:103DF000EF90DF90CF9008958E8561E00E94BF1B09
:103E00008E8560E00E94DD1B84E591E00E94CF1A60
:103E10000E940F1A7B018C018E850E94281C892B21
:103E200031F681E0E0CF08950F931F93062F142FF2
:103E30008AE161E00E94BF1B88E161E00E94BF1B34
:103E4000002321F0013009F048C020C0112371F493
:103E50008AE161E00E94DD1B80918E0690918F06C1
:103E6000A0919006B091910682602FC01130A9F503
:103E70008AE160E00E94DD1B80918E0690918F06A2
:103E8000A0919006B09191068D7F1FC0112371F40F
:103E900088E161E00E94DD1B80918E0690918F0683
:103EA000A0919006B091910681600FC01130A9F4E5
:103EB00088E160E00E94DD1B80918E0690918F0664
:103EC000A0919006B09191068E7F80938E0690937C
:103ED0008F06A0939006B09391061F910F910895BD
:103EE00089E261E00E94BF1B88E261E00E94BF1B83
:103EF00086E394E00E94AA1408951092E4041092BC
:103F0000EB041092ED0489E1809370061092730621
:103F1000109274061092760610926A061092690644
:103F2000089598D088F09F5790F0B92F9927B751EE
:103F3000A0F0D1F0660F771F881F991F1AF0BA956D
:103F4000C9F712C0B13081F09FD0B1E008959CC094
:103F5000672F782F8827B85F39F0B93FCCF3869563
:103F600077956795B395D9F73EF4909580957095C0
:103F700061957F4F8F4F9F4F0895E89409C097FB3D
:103F80003EF490958095709561957F4F8F4F9F4F30
:103F90009923A9F0F92F96E9BB279395F695879574
:103FA00077956795B795F111F8CFFAF4BB0F11F437
:103FB00060FF1BC06F5F7F4F8F4F9F4F16C08823DE
:103FC00011F096E911C0772321F09EE8872F762F14
:103FD00005C0662371F096E8862F70E060E02AF055
:103FE0009A95660F771F881FDAF7880F9695879541
:103FF00097F9089597F99F6780E870E060E0089569
:104000009FEF80EC089500240A94161617061806F0
:104010000906089500240A941216130614060506CC
:104020000895092E0394000C11F4882352F0BB0F5D
:1040300040F4BF2B11F460FF04C06F5F7F4F8F4FC0
:104040009F4F089557FD9058440F551F59F05F3FFB
:1040500071F04795880F97FB991F61F09F3F79F0AA
:1040600087950895121613061406551FF2CF46952C
:10407000F1DF08C0161617061806991FF1CF8695AE
:104080007105610508940895E894BB276627772792
:10409000CB0197F908950BD0C4CFB5DF28F0BADF74
:1040A00018F0952309F0A6CFABCF1124EECFCADFCD
:1040B000A0F3959FD1F3950F50E0551F629FF0013B
:1040C000729FBB27F00DB11D639FAA27F00DB11D94
:1040D000AA1F649F6627B00DA11D661F829F22271D
:1040E000B00DA11D621F739FB00DA11D621F839FA4
:1040F000A00D611D221F749F3327A00D611D231F7A
:10410000849F600D211D822F762F6A2F11249F57C7
:1041100050408AF0E1F088234AF0EE0FFF1FBB1FEA
:10412000661F771F881F91505040A9F79E3F510589
:1041300070F060CFAACF5F3FECF3983EDCF386953A
:1041400077956795B795F795E7959F5FC1F7FE2B34
:10415000880F911D9695879597F90895629FD001D4
:10416000739FF001829FE00DF11D649FE00DF11D32
:10417000929FF00D839FF00D749FF00D659FF00DE1
:104180009927729FB00DE11DF91F639FB00DE11DCE
:10419000F91FBD01CF0111240895AA1BBB1B51E1DA
:1041A00007C0AA1FBB1FA617B70710F0A61BB70BA7
:1041B000881F991F5A95A9F780959095BC01CD014C
:1041C000089597FB092E07260AD077FD04D0E5DF76
:1041D00006D000201AF4709561957F4F0895F6F788
:1041E000909581959F4F0895A1E21A2EAA1BBB1BA3
:1041F000FD010DC0AA1FBB1FEE1FFF1FA217B307B3
:10420000E407F50720F0A21BB30BE40BF50B661FC8
:10421000771F881F991F1A9469F76095709580958C
:1042200090959B01AC01BD01CF01089597FB092E2C
:1042300005260ED057FD04D0D7DF0AD0001C38F475
:1042400050954095309521953F4F4F4F5F4F0895C2
:10425000F6F790958095709561957F4F8F4F9F4FA2
:1042600008952F923F924F925F926F927F928F921A
:104270009F92AF92BF92CF92DF92EF92FF920F93F5
:104280001F93CF93DF93CDB7DEB7CA1BDB0B0FB6FF
:10429000F894DEBF0FBECDBF09942A8839884888BC
:1042A0005F846E847D848C849B84AA84B984C88452
:1042B000DF80EE80FD800C811B81AA81B981CE0F49
:1042C000D11D0FB6F894DEBF0FBECDBFED0108952E
:1042D000EE0FFF1F0590F491E02D0994EF92FF92ED
:1042E0000F931F93322FF02E47FF02C0A4E101C0AD
:1042F000A4E0E42FFF27E7FDF095F7FF03C0F0955A
:10430000E195FF4F4F2D512F2E2F032FEA2E0E94A4
:104310006A248F2D912F1F910F91FF90EF90089598
:10432000AF92BF92CF92DF92EF92FF920F931F93C3
:10433000CF93DF93EC01688179818A819B8161153C
:1043400071058105910521F464E279ED8BE597E033
:104350002DE133EF41E050E00E94162179018A01FE
:1043600027EA31E440E050E00E94AE205B016C019E
:10437000C801B7012CEE34EF4FEF5FEF0E94AE2083
:104380006A0D7B1D8C1D9D1D97FF04C06150704000
:1043900080409048688379838A839B837F77CB01B1
:1043A000DF91CF911F910F91FF90EF90DF90CF9011
:1043B000BF90AF9008950E949021089585E393E007
:1043C0000E9490210895A0E0B0E08093350390937F
:1043D0003603A0933703B09338030895FB01DC0143
:1043E00005900D920020E1F70895FB01DC010D908E
:1043F0000020E9F7119701900D920020E1F7089550
:104400000F931F93DF93CF93CDB7DEB72E970FB6E1
:10441000F894DEBF0FBECDBF0D891E898F89988DA0
:1044200026E02C831A83098397FF02C080E090E87E
:1044300001979E838D839E01255E3F4FCE0101969D
:10444000698D7A8DA9010E943E224D815E8157FDC2
:104450000AC02F813885421753070CF49A01020FC6
:10446000131FF80110822E960FB6F894DEBF0FBE10
:10447000CDBFCF91DF911F910F9108952F923F9261
:104480004F925F926F927F928F929F92AF92BF9264
:10449000CF92DF92EF92FF920F931F93DF93CF9310
:1044A000CDB7DEB72C970FB6F894DEBF0FBECDBFE9
:1044B0006C011B018A01FC0117821682838181FF36
:1044C000D1C12E010894411C511CF6019381F101C8
:1044D00093FD859193FF81911F01882309F4BEC14B
:1044E000853239F493FD859193FF81911F018532C7
:1044F00029F490E0B6010E94C826E7CFEE24FF24FD
:1045000020E02032B0F48B3269F08C3228F4803213
:1045100051F0833271F40BC08D3239F0803349F49D
:1045200021602CC02260246029C0286027C020613F
:1045300025C027FD2CC0382F30533A3098F426FF81
:1045400008C08E2D880FE82EEE0CEE0CE80EE30E60
:1045500015C08F2D880FF82EFF0CFF0CF80EF30EF0
:1045600020620CC08E3221F426FD78C1206406C082
:104570008C3611F4206802C0883649F4F10193FDAD
:10458000859193FF81911F01882309F0BACF982F5D
:104590009554933018F09052933028F40C5F1F4FCD
:1045A000FFE3F9830DC0833631F0833771F0833533
:1045B00009F060C022C0F801808189830E5F1F4F1F
:1045C000420171E0A72EB12C16C062E0662E712C5C
:1045D000600E711EF8018080918026FF03C06E2D51
:1045E00070E002C06FEF7FEFC4012C870E94BD26F0
:1045F0005C0183012C852F7717C052E0652E712C4A
:10460000600E711EF8018080918026FF03C06E2D20
:1046100070E002C06FEF7FEFC4012C870E94B226CA
:104620005C012C852068830123FD20C008C080E246
:1046300090E0B6012C870E94C826FA942C858F2D15
:1046400090E0A816B90698F311C0F40127FD8591F2
:1046500027FF81914F0190E0B6012C870E94C82668
:104660002C85F110FA940894A108B108A114B104A2
:1046700061F7F1C0843611F0893649F527FF08C08B
:10468000F80160817181828193810C5F1F4F09C0A5
:10469000F80160817181882777FD8095982F0E5FE2
:1046A0001F4F4FE6B42EB22297FF09C09095809518
:1046B000709561957F4F8F4F9F4FF0E8BF2AA20101
:1046C0002AE030E00E94F426782E741845C0853721
:1046D00031F43FEEB32EB2222AE030E025C099EF4C
:1046E000B92EB2228F36C1F0803720F4883509F018
:1046F000B5C00DC0803721F0883709F0AFC002C0C7
:1047000020E1B22AB4FE0BC084E0B82A08C0B4FE8F
:1047100009C0E6E0BE2A06C028E030E005C020E17E
:1047200030E002C020E132E0B7FE08C0F80160814D
:104730007181828193810C5F1F4F07C0F8016081F6
:10474000718180E090E00E5F1F4FA2010E94F4266D
:10475000782E7418FFE7BF22B6FE0BC02EEFB222F0
:104760007E1438F4B4FE07C0B2FC05C08FEEB82248
:1047700002C0A72C01C0AE2C8B2D90E0B4FE0DC062
:10478000FE01E70DF11D2081203319F4E9EEBE2270
:1047900009C0A394B2FE06C004C08678907000974A
:1047A00009F0A3948B2C9924B3FC14C0B0FE0FC065
:1047B000AF1428F4E72CEF0CEA18AF2C08C0E72C54
:1047C00006C080E290E0B6010E94C826A394AF1410
:1047D000C0F304C0AF1410F4FA1801C0FF2484FE23
:1047E0000FC080E390E0B6010E94C82682FE1FC081
:1047F00081FE03C088E590E010C088E790E00DC01E
:10480000C40186789070009791F081FC02C080E22C
:1048100001C08BE2B7FC8DE290E0B6010E94C82691
:1048200006C080E390E0B6010E94C826EA947E1498
:10483000C0F37A94F201E70DF11D808190E0B6019A
:104840000E94C8267720A9F706C080E290E0B60152
:104850000E94C826FA94FF20C1F737CEF6012681C0
:10486000378102C02FEF3FEFC9012C960FB6F894A5
:10487000DEBF0FBECDBFCF91DF911F910F91FF9093
:10488000EF90DF90CF90BF90AF909F908F907F90F0
:104890006F905F904F903F902F900895F999FECFC1
:1048A00092BD81BDF89A992780B50895A6E1B0E040
:1048B00044E050E00C945427262FF999FECF1FBAFC
:1048C00092BD81BD20BD0FB6F894FA9AF99A0FBE39
:1048D00001960895AF92BF92CF92DF92EF92FF922E
:1048E0000F931F93DF93CF93CDB7DEB729970FB602
:1048F000F894DEBF0FBECDBF6A01F22E102F0C332D
:1049000018F4B02EB39402C0ECE3BE2EAE014F5F9C
:104910005F4F27E00B2D0E94DA25298130E0A901A5
:10492000497050704130510531F0E1FC06C0E0FEA5
:1049300006C0E0E205C0EDE203C0EBE201C0E0E04A
:1049400023FF37C0EE2311F084E001C083E08F1510
:1049500018F4F81A8F2D01C080E0E4FC0BC0982FEA
:10496000D60120E202C02D9391509923E1F7C80EA1
:10497000D11C80E0EE2319F0D601ED936D01F60114
:104980003196E2FE05C09EE4D6019C9321E404C06A
:104990009EE6D6019C9321E611962C939183329644
:1049A000982FDF0120E202C02D9391509923E1F767
:1049B0003DC022FF41C0EE2311F084E001C083E03E
:1049C0008F1518F4F81A8F2D01C080E0E4FC0BC09D
:1049D000982FD60120E202C02D9391509923E1F740
:1049E000C80ED11C80E0EE2319F0D601ED936D01C5
:1049F000F6013196E2FE09C099E4D6019C939EE44B
:104A000011969C93119796E407C099E6D6019C9362
:104A10009EE611969C9396E691833296982FDF013D
:104A200020E202C02D9391509923E1F7E80FF11D88
:104A300010822EEF3FEFACC041E050E0EE2311F4C6
:104A400040E050E01816190624F4BC016F5F7F4F58
:104A500002C061E070E0640F751F112329F0412F3F
:104A600050E04F5F5F4F02C040E050E0460F571FDD
:104A70006F2D70E0461757071CF40F2D041B01C063
:104A800000E0FF24A70140715070E4FC0DC0E3FC7E
:104A90000BC0602FD60170E202C07D936150662387
:104AA000E1F7C00ED11C00E0EE2319F0D601ED9322
:104AB0006D014115510559F4402FF60150E302C034
:104AC000519341504423E1F7C00ED11C00E0B80ED1
:104AD000FA80A9014071507024FF04C0BF2DB1338A
:104AE00009F4BA941B142CF4AB2DA93018F0A8E0EB
:104AF00001C0A1E09C0197FF02C020E030E0BC01B2
:104B00006F5F7F4F621B730BFE013196E60FF71F3D
:104B10006EE2E62EBC016A1B7109A12FB0E0AA2447
:104B2000BB24AA1ABB0A1FEF2F3F310719F4D60185
:104B3000ED926D01821793072CF06217730714F43E
:104B4000108101C010E32150304031962A153B05F9
:104B500024F0D6011D936D01E6CF2817390749F4DB
:104B6000BF2DB63328F4B53321F44115510509F4AE
:104B700011E3F6011193802FDF0190E202C09D93B3
:104B800081508823E1F7E00FF11D108220E030E032
:104B9000C90129960FB6F894DEBF0FBECDBFCF91E5
:104BA000DF911F910F91FF90EF90DF90CF90BF901A
:104BB000AF900895283008F027E03327DA01990FE5
:104BC000311D87FD916000966105710539F43260F1
:104BD0002E5F3D9330E32A95E1F708959F3F30F033
:104BE00080387105610509F03C5F3C5F3D93913071
:104BF00008F08068911DDF93CF931F930F93FF926E
:104C0000EF92192F987F9695E92F96959695E90F33
:104C1000FF27EB5EFB4F99273327EE24FF24A701E4
:104C2000E70105900894079428F4360FE71EF81E54
:104C3000491F511D660F771F881F991F0694A1F702
:104C40000590079428F4E70EF81E491F561FC11D52
:104C5000770F881F991F661F0694A1F70590079488
:104C600028F4F80E491F561FC71FD11D880F991F22
:104C7000661F771F0694A1F70590079420F4490F4B
:104C8000561FC71FD81F990F661F771F881F0694CE
:104C9000A9F784911095177041F0D695C79557954F
:104CA0004795F794E7941A95C1F7EBEBF3E0689416
:104CB0001590159135916591959105907FE27395C9
:104CC000E118F10A430B560BC90BD009C0F7E10CF0
:104CD000F11E431F561FC91FD01D7EF4703311F4FF
:104CE0008A95E6CFE894015030F0080F0AF40027C7
:104CF000021708F4202F2395022F7A3328F079E346
:104D00007D932A95E9F710C07D932A9589F606943C
:104D100097956795379517951794E118F10A430B06
:104D2000560BC90BD00998F023957E9173957A3371
:104D300008F070E37C932013B8F77E9170617D9347
:104D400030F0839571E37D9370E32A95E1F71124A8
:104D5000EF90FF900F911F91CF91DF91992787FDE1
:104D600090950895FC010590615070400110D8F7AE
:104D7000809590958E0F9F1F0895FC0161507040A3
:104D800001900110D8F7809590958E0F9F1F089580
:104D90000F931F93CF93DF938C01EB018B8181FFE6
:104DA0001BC082FF0DC02E813F818C819D81281701
:104DB000390764F4E881F9810193F983E88306C037
:104DC000E885F985802F0995009731F48E819F81C0
:104DD00001969F838E8302C00FEF1FEFC801DF9102
:104DE000CF911F910F910895FA01AA27283051F110
:104DF000203181F1E8946F936E7F6E5F7F4F8F4F0C
:104E00009F4FAF4FB1E03ED0B4E03CD0670F781F6A
:104E1000891F9A1FA11D680F791F8A1F911DA11D4F
:104E20006A0F711D811D911DA11D20D009F4689488
:104E30003F912AE0269F11243019305D3193DEF630
:104E4000CF010895462F4770405D4193B3E00FD0E6
:104E5000C9F7F6CF462F4F70405D4A3318F0495DD1
:104E600031FD4052419302D0A9F7EACFB4E0A695B4
:104E70009795879577956795BA95C9F700976105D6
:104E8000710508959B01AC010A2E0694579547952C
:104E900037952795BA95C9F7620F731F841F951F21
:104EA000A01D0895DC01CB01FC01F999FECF06C0DD
:104EB000F2BDE1BDF89A319600B40D9241505040D8
:084EC000B8F70895F894FFCF44
:104EC800496E76616C696420474D542076616C7533
:104ED800650053756E004D6F6E005475650057651B
:104EE80064005468750046726900536174003A3A68
:104EF8003A3A3A3A000001020203030303040404A5
:104F0800040404040405050505050505050505054E
:104F1800050505050506060606060606060606062E
:104F28000606060606060606060606060606060619
:104F380006060606060707070707070707070707FE
:104F480007070707070707070707070707070707E9
:104F580007070707070707070707070707070707D9
:104F680007070707070707070707070707070707C9
:104F780007070707070808080808080808080808AE
:104F88000808080808080808080808080808080899
:104F98000808080808080808080808080808080889
:104FA8000808080808080808080808080808080879
:104FB8000808080808080808080808080808080869
:104FC8000808080808080808080808080808080859
:104FD8000808080808080808080808080808080849
:104FE8000808080808080808080808080808080839
:0E4FF800080808080801000000DA5BF7420113
:00000001FF
