:100000000C94E7010C94191B0C944A1B0C947B1B59
:100010000C94AC1B0C94DD1B0C940E1C0C943F1C1C
:100020000C94701C0C940F020C940F020C940F0291
:100030000C940B0E0C940F020C940F020C94A70C52
:100040000C940F020C940F020C940F020C940F02EC
:100050000C940F020C940F020C940F020C94820C5F
:100060000C940F020C94F70E0C940F020C940F02D8
:100070000C940F020C940F020C940F020C940F02BC
:100080000C940F020C940F020C940F020C940F02AC
:100090000C94380F0C940F020C940F020C947C0AF1
:1000A0000C940F020C940F020C940F020C940F028C
:1000B0000C940F020C940F020C940F020C940F027C
:1000C0000C940F020C940F020C940F024301570181
:1000D0007D01A401C401DC01EA01FA010F0225023D
:1000E000360242024902660284029A02A802B8025B
:1000F000DB02E10257726F6E672074696D652066DE
:100100006F726D61742E204D7573742062652022AC
:1001100064643A68683A6D6D220057726F6E6720AA
:1001200074696D6520666F726D61742E204D7573F4
:1001300074206265202264643A68683A6D6D3A738F
:10014000732200416C61726D204D6F6465206D619A
:10015000746368657320005B446179203A20686F9E
:10016000757273203A206D696E75746573203A203C
:100170007365636F6E64735D202D3E20005B446188
:100180007465203A20686F757273203A206D696E2D
:1001900075746573203A207365636F6E64735D20B8
:1001A0002D3E20005B486F757273203A206D696E9A
:1001B00075746573203A207365636F6E64735D2098
:1001C0002D3E20005B4D696E75746573203A207377
:1001D00065636F6E64735D202D3E20005B53656325
:1001E0006F6E64735D202D3E20004F6E636520703E
:1001F0006572207365636F6E6400496E636F72721F
:1002000065637420616C61726D206D6F6465005B65
:10021000253032753A253032753A253032753A2517
:100220003032755D005B253032753A253032753AD3
:10023000253032755D005B253032753A25303275D8
:100240005D005B253032755D005B446179203A20AA
:10025000686F757273203A206D696E7574657320CE
:100260005D202D3E20005B44617465203A20686F5C
:10027000757273203A206D696E75746573205D2008
:100280002D3E20005B486F757273203A206D696EB9
:10029000757465735D202D3E20005B4D696E75742D
:1002A00065735D202D3E20004F6E63652070657282
:1002B000206D696E7574650025732C2025303275AC
:1002C0002F253032752F253032752C202530327590
:1002D0003A253032753A25303275006572726F7288
:1002E000002530327525632530327525632530327F
:1002F00075256325303275256325303275256325D4
:1003000030327525632530327500002124272A2DCF
:100310003033002225282B2E313400202326292C8F
:100320002F3205050505030303030101010404033E
:100330000606060606060606010405010501030277
:100340000202020202010202050504040304040180
:10035000030407070701020810102040800408105A
:100360002040020204081020408001028020400446
:100370002001010204081020014080408001020891
:1003800004088004100402010000080900000000B5
:10039000000000000000000000000000000000005D
:1003A000000000000000000000000000000000004D
:1003B0000000000000000000000000008C099B10FD
:1003C0001F11CB16C517C8178819A11C0A1E1124A6
:1003D0001FBECFEFD1E2DEBFCDBF13E0A0E0B2E0A1
:1003E000EEE0F7E402C005900D92AA33B107D9F709
:1003F0001BE0AAE3B3E001C01D92AE3CB107E1F7F8
:1004000013E0CEECD3E004C02297FE010E94F71F58
:10041000CC3BD107C9F70E94790F0C9485230C942B
:100420000000EF92FF920F93DF93CF93CDB7DEB72B
:1004300060970FB6F894DEBF0FBECDBFA82F002384
:1004400009F461C07E010894E11CF11C88E0F70109
:1004500011928A95E9F729833A834B835C836D83F4
:100460007E83AF83988780E2801BE82FFF27E7FD1C
:10047000F09549815A816B817C81181684F0198628
:100480001A861B861C86882799278E1B9F0B04C003
:10049000440F551F661F771F8A95D2F728C0202F5B
:1004A000332727FD3095DB01CA01022E04C0880FD7
:1004B000991FAA1FBB1F0A94D2F789879A87AB8717
:1004C000BC8704C07695679557954795EA95D2F70E
:1004D0008D819E81AF81B88504C0880F991FAA1FA6
:1004E000BB1F2A95D2F7482B592B6A2B7B2B4D87A4
:1004F0005E876F87788B29853A854B855C856D850E
:100500007E85AF8598898A2F60960FB6F894DEBFF6
:100510000FBECDBFCF91DF910F91FF90EF90089567
:10052000AEE5B0E0E6E9F2E00C94BE1FA8E04E01B3
:100530000894811C911CF4016A2E11926A94E9F7C7
:1005400029833A834B835C836D837E838F83988773
:10055000CE010996FC011192AA95E9F7A986BA86FF
:10056000CB86DC86ED86FE860F87188B29843A843D
:100570004B845C84ED84FE840F85188969807A80C1
:100580008B809C806DA67EA68FA698AA6D807E80AB
:100590008F809884E114F1040105110509F0B3C3BB
:1005A000621473048404950408F03DC100E0201631
:1005B00000E0300601E0400600E0500688F41FEF3E
:1005C000211631044104510439F030F048E0E42EA2
:1005D000F12C012D112D18C0EE24FF24870114C029
:1005E00020E0221620E0320620E0420621E05206FA
:1005F00030F038E1E32EF12C012D112D05C020E162
:10060000E22EF12C012D112DD201C1010E2C04C0BE
:10061000B695A795979587950A94D2F78B5C9D4FD1
:10062000DC012C9180E290E0A0E0B0E08E199F09FF
:10063000A00BB10B7C018D01E21AF108010911092F
:10064000E114F10401051105A1F10E2C04C0220CE6
:10065000331C441C551C0A94D2F7A40193010E2CA0
:1006600004C0220F331F441F551F0A94D2F780E2A3
:1006700090E08E199F096DA47EA48FA498A804C051
:1006800096948794779467948A95D2F7622A732A0E
:10069000842A952AADA4BEA4CFA4D8A804C0AA0CCD
:1006A000BB1CCC1CDD1CEA94D2F7ADA6BEA6CFA61F
:1006B000D8AA6201EE24FF24CDAADEAAEFAAF8AEE2
:1006C000920181012070307009AF1AAF2BAF3CAF9F
:1006D000C401B301A70196010E94811F7B018C0117
:1006E000C401B3012DA93EA94FA958AD0E94811F95
:1006F000C901DA013C014D01C401B30129AD3AAD94
:100700004BAD5CAD0E943B1F9B01AC018701FF24F8
:10071000EE24ADA4BEA4CFA4D8A8C601AA27BB27A7
:1007200057016801A82AB92ACA2ADB2AA216B306E9
:10073000C406D506E0F408946108710881089108A0
:10074000A20CB31CC41CD51CA214B304C404D5044D
:1007500070F0A216B306C406D50648F408946108E2
:10076000710881089108A20CB31CC41CD51CA21AE4
:10077000B30AC40AD50AC601B5012DA93EA94FA9DD
:1007800058AD0E94811F7B018C01C601B5012DA9C6
:100790003EA94FA958AD0E94811FC901DA015C0131
:1007A0006D01C601B50129AD3AAD4BAD5CAD0E94FE
:1007B0003B1F9B01AC018701FF24EE248DA59EA564
:1007C000AFA5B8A9A070B070E82AF92A0A2B1B2B94
:1007D000E216F30604071507C0F40894A108B1084F
:1007E000C108D108E20CF31C041D151DE214F3042A
:1007F0000405150550F0E216F3060407150728F462
:100800000894A108B108C108D108D3019927882705
:1008100086017501E82AF92A0A2B1B2BE9AAFAAAF4
:100820000BAB1CABCFC4211431044104510471F44F
:1008300061E070E080E090E020E030E040E050E0F7
:100840000E94811FC901DA011C012D0100E0201660
:1008500000E0300601E0400600E0500688F41FEF9B
:10086000211631044104510431F028F048E050E0F1
:1008700060E070E017C040E050E060E070E012C05F
:1008800020E0221620E0320620E0420621E0520657
:1008900028F048E150E060E070E004C040E150E042
:1008A00060E070E0D201C101042E04C0B695A795A6
:1008B000979587950A94D2F78B5C9D4FDC012C911C
:1008C000E0E2EE2EF12C012D112DD801C701841B81
:1008D000950BA60BB70B821B9109A109B1090097D3
:1008E000A105B10561F464015301A218B308C4085D
:1008F000D50831E0632E712C812C912C1EC16F968E
:100900008FAF6F97082E04C0220C331C441C551C5B
:100910000A94D2F7EE2DE81B640153010E2E04C099
:10092000D694C794B794A7940A94D2F7A4019301DC
:100930006F960FAC6F9704C0220F331F441F551FD3
:100940000A94D2F76DA47EA48FA498A80E2E04C09A
:1009500096948794779467940A94D2F784017301EC
:10096000E22AF32A042B152BE9A6FAA60BA71CA74B
:1009700032018824992492018101207030702196DF
:100980000CAF1DAF2EAF3FAF2197C601B501A4013B
:1009900093010E94811F7B018C01C601B501A40156
:1009A00093010E94811FC901DA0125968CAF9DAF8A
:1009B000AEAFBFAF2597BC01CD0121962CAD3DADAB
:1009C0004EAD5FAD21970E943B1F9B01AC0187019B
:1009D000FF24EE24A9A4BAA4CBA4DCA4C601AA27B0
:1009E000BB275C016D01AE28BF28C02AD12AA21600
:1009F000B306C406D50660F525966CAD7DAD8EAD0B
:100A00009FAD2597615070408040904025966CAF17
:100A10007DAF8EAF9FAF2597A20CB31CC41CD51C15
:100A2000A214B304C404D50498F0A216B306C406F5
:100A3000D50670F4615070408040904025966CAFB0
:100A40007DAF8EAF9FAF2597A20CB31CC41CD51CE5
:100A5000A21AB30AC40AD50AC601B501A4019301BA
:100A60000E94811F7B018C01C601B501A401930185
:100A70000E94811FC901DA013C014D01C401B3018B
:100A800021962CAD3DAD4EAD5FAD21970E943B1F31
:100A90009B01AC018701FF24EE2489A59AA5ABA593
:100AA000BCA5A070B07057016801A82AB92ACA2A4B
:100AB000DB2AA216B306C406D506E0F40894610842
:100AC000710881089108A20CB31CC41CD51CA21487
:100AD000B304C404D50470F0A216B306C406D50648
:100AE00048F408946108710881089108A20CB31CAD
:100AF000C41CD51C8DA59EA5AFA5B8A96F960FAC3B
:100B00006F9704C0880F991FAA1FBB1F0A94D2F7C2
:100B10008DA79EA7AFA7B8ABA21AB30AC40AD50A7D
:100B20002596ECACFDAC0EAD1FAD2597D7019927EE
:100B30008827682A792A8A2A9B2A82012227332732
:100B400029960CAF1DAF2EAF3FAF2997A20191019F
:100B5000407050702D962CAF3DAF4EAF5FAF2D97CC
:100B6000C601B50129962CAD3DAD4EAD5FAD2997BF
:100B70000E94811F7B018C01C601B50129962CAD15
:100B80003DAD4EAD5FAD29970E94811FC901DA01CD
:100B900061968CAF9DAFAEAFBFAF6197BC01CD0189
:100BA0002D962CAD3DAD4EAD5FAD2D970E943B1FF8
:100BB0009B01AC018701FF24EE24ADA4BEA4CFA409
:100BC000D8A8C601AA27BB2757016801A82AB92AB5
:100BD000CA2ADB2AA216B306C406D50660F56196BA
:100BE0006CAD7DAD8EAD9FAD619761507040804022
:100BF000904061966CAF7DAF8EAF9FAF6197A20CB6
:100C0000B31CC41CD51CA214B304C404D50498F0AE
:100C1000A216B306C406D50670F461507040804039
:100C2000904061966CAF7DAF8EAF9FAF6197A20C85
:100C3000B31CC41CD51CA21AB30AC40AD50AC60127
:100C4000B50129962CAD3DAD4EAD5FAD29970E9403
:100C5000811F7B018C01C601B50129962CAD3DADEC
:100C60004EAD5FAD29970E94811FC901DA015C0179
:100C70006D01C601B5012D962CAD3DAD4EAD5FADFC
:100C80002D970E943B1F9B01AC018701FF24EE249E
:100C90008DA59EA5AFA5B8A9A070B070E82AF92AC5
:100CA0000A2B1B2BE216F30604071507C0F4089461
:100CB000A108B108C108D108E20CF31C041D151DE0
:100CC000E214F3040405150550F0E216F3060407D8
:100CD000150728F40894A108B108C108D108619645
:100CE000ECACFDAC0EAD1FAD6197D70199278827FD
:100CF00096018501082B192B2A2B3B2B09AB1AAB2C
:100D00002BAB3CAB62C26E147F048006910608F4E4
:100D100051C220E0E21620E0F20621E0020720E0C6
:100D2000120788F43FEFE316F1040105110531F0D5
:100D300028F048E050E060E070E017C040E050E08C
:100D400060E070E012C040E0E41640E0F40640E0ED
:100D5000040741E0140728F048E150E060E070E04B
:100D600004C040E150E060E070E0D801C701042E0B
:100D700004C0B695A795979587950A94D2F78B5C92
:100D80009D4FDC012C9130E2A32EB12CC12CD12C33
:100D9000D601C501841B950BA60BB70B821B9109CD
:100DA000A109B1090097A105B10589F4E614F7047A
:100DB0000805190508F4F2C16DA47EA48FA498A8B3
:100DC000621473048404950408F0E8C1F3C16E96BC
:100DD0008FAF6E97082E04C0EE0CFF1C001F111F72
:100DE0000A94D2F76A2D681BD201C101062E04C0F5
:100DF000B695A795979587950A94D2F75C016D01F2
:100E0000AE28BF28C02AD12AADA2BEA2CFA2D8A6A2
:100E1000720161016E960FAC6E9704C0CC0CDD1CA4
:100E2000EE1CFF1C0A94D2F7C9A2DAA2EBA2FCA224
:100E300064015301062E04C0D694C794B794A794B6
:100E40000A94D2F7D401C3016E960FAC6E9704C01A
:100E5000880F991FAA1FBB1F0A94D2F7EDA4FEA406
:100E60000FA518A904C016950795F794E7946A95FD
:100E7000D2F737014801682A792A8A2A9B2A6D8E7F
:100E80007E8E8F8E98A2EDA0FEA00FA118A538012E
:100E900088249924980187012070307065960CAFE2
:100EA0001DAF2EAF3FAF6597C601B501A4019301F9
:100EB0000E94811F7B018C01C601B501A401930131
:100EC0000E94811FC901DA011C012D01C201B1017B
:100ED00065962CAD3DAD4EAD5FAD65970E943B1F55
:100EE0009B01AC018701FF24EE24AD8CBE8CCF8C1E
:100EF000D8A0C601AA27BB2757016801A82AB92A8A
:100F0000CA2ADB2AA216B306C406D50600F5089441
:100F10002108310841085108EDA0FEA00FA118A535
:100F2000AE0CBF1CC01ED11EAE14BF04C006D1063D
:100F300070F0A216B306C406D50648F4089421083A
:100F4000310841085108AE0CBF1CC01ED11EA21AA8
:100F5000B30AC40AD50AC601B501A40193010E94CF
:100F6000811F7B018C01C601B501A40193010E9480
:100F7000811FC901DA013C014D01C401B30165962D
:100F80002CAD3DAD4EAD5FAD65970E943B1F9B0103
:100F9000AC018701FF24EE248D8D9E8DAF8DB8A10D
:100FA000A070B07057016801A82AB92ACA2ADB2AA2
:100FB000A216B306C406D50600F5089461087108A8
:100FC000810891086DA17EA18FA198A5A60EB71EDC
:100FD000C81ED91EA616B706C806D90670F0A216F6
:100FE000B306C406D50648F4089461087108810860
:100FF0009108A60EB71EC81ED91ED601C501821BB8
:10100000930BA40BB50B898F9A8FAB8FBC8FD1013B
:101010009927882764015301A82AB92ACA2ADB2AFA
:10102000A9AABAAACBAADCAA860175012FEF3FEFC5
:1010300040E050E0E222F32204231523A6016627B4
:1010400077276D964CAF5DAF6EAF7FAF6D97A9A060
:10105000BAA0CBA0DCA06FEF7FEF80E090E0A622EB
:10106000B722C822D92289A19AA1ABA1BCA11D0196
:1010700044245524C801B701A60195010E943B1FD5
:1010800069966CAF7DAF8EAF9FAF6997C801B7010E
:10109000A20191010E943B1F3B014C016D966CAD7A
:1010A0007DAD8EAD9FAD6D97A60195010E943B1F52
:1010B0007B018C016D966CAD7DAD8EAD9FAD6D9756
:1010C000A20191010E943B1F5B016C01A8019701E5
:1010D000260D371D481D591D69966CAC7DAC8EAC34
:1010E0009FAC6997C401AA27BB27280F391F4A1F45
:1010F0005B1F2E153F054007510748F4E12CF12CEA
:1011000061E0062F112DAE0CBF1CC01ED11ECA01FE
:10111000AA27BB27BC01CD016A0D7B1D8C1D9D1D1F
:10112000698C7A8C8B8C9C8C66167706880699065F
:1011300040F1661577058805990509F043C0D90186
:101140009927882769962CAD3DAD4EAD5FAD699767
:1011500040705070820F931FA41FB51F2DA53EA590
:101160004FA558A96E960FAC6E9704C0220F331F7F
:10117000441F551F0A94D2F7281739074A075B07FF
:1011800008F509A91AA92BA93CA901501040204033
:10119000304009AB1AAB2BAB3CAB14C066247724B0
:1011A000430121E030E040E050E029AB3AAB4BABEB
:1011B0005CAB0BC066247724430119AA1AAA1BAAA8
:1011C0001CAA03C0662477244301FE01719688E0BF
:1011D000DF011D928A95E9F7A9A8BAA8CBA8DCA8D7
:1011E000A98ABA8ACB8ADC8A6D8A7E8A8F8A988E8F
:1011F00029A93A894B895C89662D7E898F89988DCA
:10120000C25ADF4FE2E10C94DA1F8EE061E00E94E7
:10121000600E88E060E00E94600E89E061E00E945C
:10122000600E86E060E00E94600E85E061E00E9452
:10123000600E68EE73E080E090E00E94620D8EE048
:1012400060E00E94600E88E061E00E94600E89E02C
:1012500060E00E94600E86E061E00E94600E85E022
:1012600060E00E94600E68EE73E080E090E00E9413
:10127000620D089588E061E00E94420E89E061E01D
:101280000E94420E86E061E00E94420E85E061E02D
:101290000E94420E8EE061E00E94420E80EF94E0D8
:1012A00060E040E00E949C1064EF71E080E090E01C
:1012B0000E94620D0895CF93DF93FC0180E092ECD1
:1012C000A1E0B0E080839183A283B383E055FF4F18
:1012D00011821082E05BF040CF018A5B9F4FDC01FE
:1012E00086E0ED0119928A95E9F7EB5AFF4F8FE0FE
:1012F0008083399782E08193119211928BE48193DC
:1013000082E3819311921082389680E094E0918379
:101310008083DF91CF9108958AE393E00E945B0977
:101320000895482F613210F081E00895809174048F
:10133000843011F082E008956093BD04ACE9B4E01C
:10134000842F9C01F90102C081918D938E2F841B03
:101350008617D0F380E00895589859988091B90085
:1013600081608093B9008091B90082608093B90058
:101370008091BC0080688093BC008091BC0080613B
:101380008093BC008091BC008F7B8093BC008091D7
:10139000BC008F7D8093BC008091BC00877F8093D0
:1013A000BC008091B4079091B507A091B607B091A9
:1013B000B70786FD14C08091B4079091B507A0913E
:1013C000B607B091B70790FD0AC08091B40790911D
:1013D000B507A091B607B091B70793FF04C08091FD
:1013E000BC008B7F03C08091BC0084608093BC00F4
:1013F0008091BC008E7F8093BC00809164008068E7
:1014000080936400089510927404E4E6F0E0808113
:101410008F778083589A599AE9EBF0E080818E7F2C
:10142000808380818D7F808381E48093B80085E410
:101430008093BC0080E2EAE7F4E0DF01982F1D9280
:101440009A95E9F7ECE9F4E0DF01982F1D929A955F
:10145000E9F7EEEBF4E0DF011D928A95E9F70895D4
:10146000882349F01092E0041092E1041092E20403
:101470001092E30413C08091E0049091E104A091E4
:10148000E204B091E3040196A11DB11D8093E00434
:101490009093E104A093E204B093E3048091E0040C
:1014A0009091E104A091E204B091E304805A96483F
:1014B000A140B04010F480E008951092E004109232
:1014C000E1041092E2041092E3040E94030A81E016
:1014D000089585ED8093BC0081E00E94300A05C02C
:1014E00080E00E94300A882321F48091BC0084FDB2
:1014F000F7CF1092740408951F920F920FB60F92B7
:101500000BB60F9211242F933F934F935F936F93DA
:101510007F938F939F93AF93BF93EF93FF938091AC
:10152000B90090E0887F90708036910509F4C3C0BF
:1015300081369105CCF58832910509F47BC089325A
:101540009105B4F48031910509F46FC081319105A2
:101550003CF4009709F40EC1089709F00FC165C06B
:101560008831910509F466C0809709F007C177C0FA
:101570008034910509F48DC08134910544F48033A1
:10158000910509F472C0C89709F0F8C072C080359F
:10159000910509F472C08835910509F47FC088343B
:1015A000910509F0EBC0E8C08839910509F4D8C06D
:1015B00089399105ECF48837910509F47CC08937A5
:1015C00091054CF48836910509F475C08037910572
:1015D00009F0D4C070C08838910509F4C1C08039C1
:1015E000910509F46EC08038910509F0C7C069C043
:1015F000803B910509F48CC0813B91054CF4803A05
:10160000910509F470C0883A910509F0B7C080C00F
:10161000803C910509F4A8C0883C910509F4A4C058
:10162000883B910509F0AAC088C080917504809319
:10163000BB0013C090919A0480919B04981708F006
:101640009BC090919A04E92FF0E0E658FB4F80810F
:101650008093BB009F5F90939A0485EC82C00E94A8
:10166000690A80E28093DF0489C080E38093DF040D
:1016700083C088E38093DF0477C080919A049091BF
:10168000BB00E82FF0E0E658FB4F90838F5F80931C
:101690009A0490919A0480919B045FC080919A046F
:1016A0009091BB00E82FF0E0E658FB4F90838F5FEE
:1016B00080939A0461C083E0809374041092DE04E6
:1016C000CCCF8091DE04803208F04AC08091DE04E5
:1016D0009091BB00E82FF0E0E254FB4F90838F5FC6
:1016E0008093DE04BACF8091DE04803230F4E09142
:1016F000DE04F0E0E254FB4F10826091DE04E091E2
:101700007804F09179048EEB94E070E009952CC098
:1017100084E0809374041092BC041092BD04E091A4
:101720007604F091770409958091BD04882329F40B
:1017300081E08093BD0410929C049091BC04E92F39
:10174000F0E0E456FB4F80818093BB009F5F909355
:10175000BC049091BC048091BD04981708F47DCF1F
:1017600085E88093BC000AC085EC8093BC00109291
:10177000740404C01092DF040E94690AFF91EF9183
:10178000BF91AF919F918F917F916F915F914F9199
:101790003F912F910F900BBE0F900FBE0F901F9097
:1017A0001895DF92EF92FF920F931F93E82E062F6A
:1017B000F72E142FD22E413210F081E051C081E07B
:1017C0000E94300A05C080E00E94300A882321F47C
:1017D000809174048823B9F782E0809374048FEFBA
:1017E0008093DF0410929A0410939B04AAE7B4E05C
:1017F000202F3F2DC901FC0102C081918D938E2FB6
:10180000801B8117D0F38E2D90E0880F991F809355
:10181000750485EE8093BC0081E00E94300ADD20D3
:1018200041F40BC080E00E94300A882311F085E06B
:1018300017C0809174048230A9F38091DF048F3F38
:1018400011F480E00DC08091DF04803211F482E059
:1018500007C08091DF04803311F084E001C083E091
:101860001F910F91FF90EF90DF9008950F931F93BA
:10187000CF93DF93182FEB01042F413210F081E05A
:101880003CC081E00E94300A05C080E00E94300A1E
:10189000882321F4809174048823B9F781E0809330
:1018A00074048FEF8093DF0410929A0400939B04DA
:1018B000110F11601093750485EE8093BC0081E0D8
:1018C0000E94300A08C080E00E94300A882319F084
:1018D00020E030E00FC0809174048130A1F3F8CF94
:1018E000FE01E20FF31FD901A658BB4F8C918083F4
:1018F0002F5F3F4F2017A0F380E0DF91CF911F9122
:101900000F9108951F920F920FB60F9211248F938B
:101910009F93AF93BF938091C6079091C707A09103
:10192000C807B091C9070196A11DB11D8093C607D4
:101930009093C707A093C807B093C907BF91AF9111
:101940009F918F910F900FBE0F901F9018951F922F
:101950000F920FB60F9211248F939F93AF93BF9363
:101960008091CA079091CB07A091CC07B091CD0789
:101970000196A11DB11D8093CA079093CB07A09338
:10198000CC07B093CD07BF91AF919F918F910F90EE
:101990000FBE0F901F9018958F929F92AF92BF929B
:1019A000CF92DF92EF92FF920F931F938FB7F8942D
:1019B000A090C607B090C707C090C807D090C907CD
:1019C0008FBF9501A60160E070E080E090E001E04B
:1019D0000E941102122FF32EE42ED52EC62EB72E02
:1019E000A82E892E02E00E941102B92F210FE1E0FA
:1019F000211708F0E0E03F0DF1E03F1508F0F0E0BE
:101A00009E2E930EE1E0931608F0E0E0FE2B4E0DC3
:101A1000A1E04E1508F0A0E0FF2EF40EE1E0F41670
:101A200008F0E0E0AE2B5D0DF1E05D1508F0F0E0B0
:101A30000A2F050FE1E0051708F0E0E0FE2B6C0D22
:101A4000A1E06C1508F0A0E01F2F160FE1E01617BB
:101A500008F0E0E0AE2B7B0DF1E07B1508F0F0E044
:101A6000A70FE1E0A71708F0E0E0FE2B8A0D91E058
:101A70008A1508F090E0F80FE1E0F81708F0E0E0D0
:101A80009E2BB80D392D4F2D502F612F7A2F8F2F70
:101A90009B0FE9E0AE2EBB24CC24DD24EE24FF24F2
:101AA00000E010E00E949002952FB901842F1F9151
:101AB0000F91FF90EF90DF90CF90BF90AF909F90ED
:101AC0008F900895AF92BF92CF92DF92EF92FF92E4
:101AD0000F931F935B016C0107C00E94CC0C6E1525
:101AE0007F058007910720F40E94CC0C7B018C01BC
:101AF0000E94CC0C6E197F09800B910B6A157B0537
:101B00008C059D0550F31F910F91FF90EF90DF9092
:101B1000CF90BF90AF9008958430910570F0BC01D4
:101B200080E090E00E944A1E26E636E646EE5FE33D
:101B30000E94D81E0E941E1E03C0BC01660F771FA4
:101B40006150704061F06150704049F0FB01EE0F50
:101B5000FF1F31978FB7F8943197F1F78FBF089532
:101B6000789484B7877F84BF1092C6071092C70706
:101B70001092C8071092C90784B5826084BD84B5ED
:101B8000816084BD85B5826085BD85B5816085BD78
:101B9000EEE6F0E0808181608083E1E8F0E0808122
:101BA00082608083808181608083E0E8F0E08081D2
:101BB00081608083E1EBF0E0808184608083E1E9F3
:101BC000F0E0808184608083E0EBF0E080818160E0
:101BD0008083E0E9F0E0808181608083E4E6F0E0EA
:101BE00080818E7F8083ECE7F0E080818F77808337
:101BF000808180648083EAE7F0E080818460808374
:101C00008081826080838081806880831092C1009F
:101C10001092C90008951F920F920FB60F920BB643
:101C20000F9211242F933F934F935F936F937F9362
:101C30008F939F93AF93BF93EF93FF93F89481E0BB
:101C400080933903E0E6F0E08081806880838081C2
:101C50008F7B808383E060E00E94600E7894FF9128
:101C6000EF91BF91AF919F918F917F916F915F9114
:101C70004F913F912F910F900BBE0F900FBE0F9081
:101C80001F901895282F30E0C9018B5A9C4FFC01FA
:101C900094912E5D3C4FF9018491882381F0E82FC7
:101CA000F0E0E65FFC4FE491F0E0662329F48081E8
:101CB00090958923808308958081892B808308955E
:101CC000482F50E0CA0188579C4FFC012491CA015B
:101CD0008B5A9C4FFC0194914E5D5C4FFA013491FC
:101CE0003323C1F1222331F1233021F4809180008C
:101CF0008F7705C0243031F4809180008F7D8093F0
:101D0000800018C0213019F484B58F7704C02230C8
:101D100021F484B58F7D84BD0DC0263021F48091DF
:101D2000B0008F7705C0273029F48091B0008F7DF7
:101D30008093B000E32FF0E0EE5EFC4FE491F0E022
:101D4000662329F48081909589238083089580817A
:101D5000892B80830895482F50E0CA0188579C4FF3
:101D6000FC012491CA018B5A9C4FFC0194914E5D59
:101D70005C4FFA013491332319F420E030E035C090
:101D8000222331F1233021F4809180008F7705C028
:101D9000243031F4809180008F7D8093800018C0C2
:101DA000213019F484B58F7704C0223021F484B532
:101DB0008F7D84BD0DC0263021F48091B0008F77D7
:101DC00005C0273029F48091B0008F7D8093B0004A
:101DD000E32FF0E0E65EFC4FE491F0E0808120E04C
:101DE00030E0892311F021E030E0C90108951F920D
:101DF0000F920FB60F920BB60F9211242F933F93B1
:101E00004F935F936F937F938F939F93AF93BF9302
:101E1000EF93FF934091C600E091E404F091E50454
:101E2000CF01019660E072E00E946E1F9C018091DC
:101E3000E6049091E7042817390739F0E253F64F8A
:101E400040833093E5042093E404FF91EF91BF9128
:101E5000AF919F918F917F916F915F914F913F9142
:101E60002F910F900BBE0F900FBE0F901F901895E3
:101E70001F920F920FB60F920BB60F9211242F9351
:101E80003F934F935F936F937F938F939F93AF9302
:101E9000BF93EF93FF934091CE00E091E804F0915F
:101EA000E904CF01019660E072E00E946E1F9C0180
:101EB0008091EA049091EB042817390739F0E25336
:101EC000F84F40833093E9042093E804FF91EF91A9
:101ED000BF91AF919F918F917F916F915F914F9142
:101EE0003F912F910F900BBE0F900FBE0F901F9040
:101EF00018950E94B00D80E995E00E94C9178534BD
:101F000040F081E361E00E94420E81E361E00E94C3
:101F1000600E80E995E061E070E00E94D1178130A9
:101F2000B1F48091B4079091B507A091B607B09134
:101F3000B70790688093B4079093B507A093B6074E
:101F4000B093B70781E090E060E00E94C72287E28B
:101F50000E94AB0E892B09F44FC080E995E060E048
:101F600070E00E94D1178A3009F046C082EF94E0F9
:101F70000E94771682EF94E00E948E1482EF94E024
:101F80000E943E1680910B05482F50E080910D0570
:101F9000481B510980910A05282F30E080910E05D9
:101FA000281B3109121613065CF48CE390E0BC0187
:101FB000269FC001279F900D369F900D11240EC0C3
:101FC00037FF0EC08CE390E0BC01269FC001279F25
:101FD000900D369F900D1124805F914F480F591F2F
:101FE0004330510548F48091C3079091C407806243
:101FF0009093C4078093C30782EF94E00E94771602
:1020000082EF94E00E942A1382EF94E00E94191359
:1020100082EF94E00E94A01663E070E080E090E020
:102020000E94620D8091B4079091B507A091B60708
:10203000B091B707A1FF5EC063E070E080E090E080
:102040000E94620D86E161E00E94420E63E070E052
:1020500080E090E00E94620D86E161E00E94600EE7
:1020600063E070E080E090E00E94620D0E94D8166C
:1020700063E070E080E090E00E94620D81E00E94E9
:10208000B11663E070E080E090E00E94620D84E0B1
:102090000E94BF1663E070E080E090E00E94620D55
:1020A00080E00E94BA1663E070E080E090E00E9459
:1020B000620D0E94AD1663E070E080E090E00E9447
:1020C000620D85E895E066E00E94F71663E070E037
:1020D00080E090E00E94620D86E161E00E94420E85
:1020E00086E160E00E94600E63E070E080E090E0D6
:1020F0000E94620D63E070E080E090E00E94620D5B
:1021000080E995E00E943D196093EC047093ED0422
:102110008093EE049093EF048091EC049091ED0491
:10212000A091EE04B091EF040E944E200E943A0963
:102130000E940509FDCF08950F931F93062F142FBA
:102140008AE161E00E94420E88E161E00E94420E55
:10215000002321F0013009F048C020C0112371F4A0
:102160008AE161E00E94600E8091B4079091B5070A
:10217000A091B607B091B70782602FC01130A9F5C2
:102180008AE160E00E94600E8091B4079091B507EB
:10219000A091B607B091B7078D7F1FC0112371F4CE
:1021A00088E161E00E94600E8091B4079091B507CC
:1021B000A091B607B091B70781600FC01130A9F4A4
:1021C00088E160E00E94600E8091B4079091B507AD
:1021D000A091B607B091B7078E7F8093B407909314
:1021E000B507A093B607B093B7071F910F91089555
:1021F00089E261E00E94420E88E261E00E94420EA4
:1022000087ED95E00E94771A0895FC01148A158ADB
:10221000168A178A108E118E128E138E148E158EBA
:10222000168E178E10A211A212A213A280E090E0C7
:10223000A0E0B0E084A395A3A6A3B7A3089510924D
:102240008305109205050895EF92FF920F931F9357
:10225000DF93CF93CDB7DEB7EC970FB6F894DEBF20
:102260000FBECDBF8C01EEEEF0E065917491B5E14B
:10227000EB2EF12CEC0EFD1EC7010E945920E0EF61
:10228000F0E065917491CE0101960E945920D80129
:1022900056968C91843009F46DC0853048F48230B4
:1022A00069F1833008F048C0813009F000C10AC0EC
:1022B000863009F49BC0863008F47AC0873009F074
:1022C000F6C0B2C0EDB7FEB774970FB6F894FEBF74
:1022D0000FBEEDBF3196075D1F4FADB7BEB712966B
:1022E0001C930E9311970952104084E690E093835B
:1022F0008283F582E48282E192E0B3C08DB79EB71B
:1023000044970FB6F8949EBF0FBE8DBFEDB7FEB7D2
:102310003196075D1F4FADB7BEB712961C930E9353
:1023200011970952104084E690E093838283F582EE
:10233000E48286E192E095C08DB79EB744970FB6D0
:10234000F8949EBF0FBE8DBFEDB7FEB73196075D07
:102350001F4FADB7BEB712961C930E93119709523B
:10236000104084E690E093838283F582E4828AE1E0
:1023700092E077C08DB79EB744970FB6F8949EBF92
:102380000FBE8DBFEDB7FEB73196075D1F4FADB7DE
:10239000BEB712961C930E9311970952104084E613
:1023A00090E093838283F582E4828EE192E059C0CB
:1023B0008DB79EB744970FB6F8949EBF0FBE8DBFE2
:1023C000EDB7FEB73196075D1F4FADB7BEB712969A
:1023D0001C930E9311970952104084E690E093836A
:1023E0008283F582E48282E292E03BC08DB79EB7A1
:1023F00044970FB6F8949EBF0FBE8DBFEDB7FEB7E2
:102400003196075D1F4FADB7BEB712961C930E9362
:1024100011970952104084E690E093838283F582FD
:10242000E48286E292E01DC08DB79EB744970FB656
:10243000F8949EBF0FBE8DBFEDB7FEB73196075D16
:102440001F4FADB7BEB712961C930E93119709524A
:10245000104084E690E093838283F582E4828AE2EE
:1024600092E097838683D80154968C915497808705
:10247000118655968C915597828713865A968C9122
:102480005A978487158657968C9157978687178613
:1024900058968C915897808B118A59968C91828B83
:1024A000138A0E946B20EDB7FEB774961DC000D052
:1024B00000D000D0EDB7FEB73196075D1F4FADB726
:1024C000BEB712961C930E9311970952104084E6E2
:1024D00090E093838283CE010196958384830E944A
:1024E0006B20EDB7FEB736960FB6F894FEBF0FBE61
:1024F000EDBF9801275D3F4FC901EC960FB6F894E8
:10250000DEBF0FBECDBFCF91DF911F910F91FF9026
:10251000EF9008951F93CF93DF93EC01162F8091D6
:10252000DD05882321F487ED95E00E94F41A87EDFC
:1025300095E068E670E00E94671987ED95E0612FED
:102540000E94811AC10FD11D87ED95E068810E941C
:10255000811A87ED95E00E94B01ADF91CF911F910B
:102560000895FF920F931F93CF93DF938C01F62E64
:102570008091DD05882321F487ED95E00E94F41A0F
:1025800087ED95E068E670E00E94671987ED95E0B9
:102590006F2D0E94811A87ED95E00E94B01A87ED99
:1025A00095E068E670E041E050E00E94F11AC0E07A
:1025B000D0E087ED95E00E947119882329F4CA3094
:1025C000D10511F02196F5CF87ED95E00E9477199E
:1025D0000F0D111DF801808387ED95E00E94B01A60
:1025E000DF91CF911F910F91FF9008950F931F934B
:1025F0008C016FE00E94B112F801878583701F91F2
:102600000F910895CF93DF93EC010E94F612882377
:1026100019F0CE56DF4F8883809101058C7F80931F
:10262000010582EF94E06FE00E948A12DF91CF9162
:1026300008950F931F938C016EE00E94B112F80170
:1026400086858D7F8687C8016EE00E948A121F9161
:102650000F9108950F931F938C016EE00E94B112A9
:10266000F80186858E7F8687C8016EE00E948A12F7
:102670001F910F910895AF92BF92CF92DF92FF9278
:102680000F931F93CF93DF938C01F62E8091DD057E
:10269000882321F487ED95E00E94F41A87ED95E0F8
:1026A00068E670E00E94671987ED95E060E070E0F1
:1026B0000E94AD1A87ED95E00E94B01A87ED95E073
:1026C00068E670E043E150E00E94F11AC0E0D0E01B
:1026D000CC24DD24AF2CBB245AE0F52E0DC187EDB0
:1026E00095E00E947119882309F403C187ED95E0F4
:1026F0000E947719282FF801EC0FFD1F8083C63048
:10270000D10509F482C0C730D105B8F4C230D10573
:1027100009F44EC0C330D10538F4209769F1C130B7
:10272000D10509F0E4C036C0C430D10509F451C068
:10273000C530D10508F05BC049C0CA30D10509F4E5
:102740009BC0CB30D10558F4C830D10509F478C00E
:1027500090E02F70C930D10508F081C064C0CC3042
:10276000D10509F4A7C0CC30D10508F494C0CD3010
:10277000D10509F0BCC0ADC090E044E095958795C7
:102780004A95E1F78F9DC00111242F70280FF801A1
:10279000218FADC090E034E0959587953A95E1F7AB
:1027A0008F9DC00111242F70280FF801208F9FC02A
:1027B00090E0B4E095958795BA95E1F78F9DC001BB
:1027C00011242F70280FF801278B91C0F801868BF8
:1027D0008EC090E0A4E095958795AA95E1F78F9D2E
:1027E000C00111242F70280FF801228F80C090E0C3
:1027F000F4E095958795FA95E1F78F9DC001112436
:102800002F70280FF801258B72C090E0E4E09595B9
:102810008795EA95E1F78F9DC00111242F70280F4D
:10282000F801248B64C074E0959587957A95E1F75B
:1028300087708F9DC0011124280FF801238F57C086
:1028400090E064E0959587956A95E1F787708F9D94
:10285000C00111242F70280FF801248F48C054E0C4
:10286000959587955A95E1F783708F9DC001112446
:10287000280FF801258F3BC090E044E0959587959F
:102880004A95E1F783708F9DC00111242F70280FA6
:10289000F801268F2CC090E034E0959587953A9505
:1028A000E1F787708F9DC00111242F70280FF80168
:1028B000278F1DC090E0B4E095958795BA95E1F714
:1028C00083708F9DC00111242F70280FF80120A361
:1028D0000EC090E0A4E095958795AA95E1F78370E6
:1028E0008F9DC00111242F70280FF80121A321967C
:1028F00003C00894C11CD11CAC16BD0628F0FAE038
:10290000CF16D10408F4EBCEDF91CF911F910F9138
:10291000FF90DF90CF90BF90AF900895AF92BF929D
:10292000CF92DF92EF92FF920F931F93DF93CF939B
:10293000CDB7DEB7C857D0400FB6F894DEBF0FBE94
:10294000CDBF6C016AE00E943B1349E2A42EB12C7A
:10295000AC0CBD1C84E6D5011D928A95E9F7ECEC20
:10296000F0E0659174918E010F5F1F4FC8010E94C6
:102970005920C501B8010E946020F60182A1823071
:1029800009F476C0833030F4882371F0813009F087
:102990003CC11AC0843009F4F2C0843008F4AEC0DF
:1029A000853009F032C127C1EEECF0E065917491F9
:1029B000C8010E945920C501B8010E946020ECEDB9
:1029C000F0E0659174910FC0E0EDF0E065917491D5
:1029D000C8010E945920C501B8010E946020ECED99
:1029E000F0E0659174918E01075D1F4FC8010E9450
:1029F00059208DB79EB70E970FB6F8949EBF0FBEA5
:102A00008DBFEDB7FEB7319631E5E32EF12CEC0E1C
:102A1000FD1EADB7BEB71296FC92EE92119788E2FA
:102A200090E09383828315830483D6015E968C9114
:102A30005E97868317825D968C915D97808711865D
:102A40005C968C915C97828713865B968C918487C9
:102A500015860E946B20EDB7FEB73E960FB6F89430
:102A6000FEBF0FBEEDBFC501B7010E946020F3C0DD
:102A7000E2EDF0E065917491C8010E945920C50112
:102A8000B8010E946020EEEDF0E0659174918E0136
:102A9000075D1F4FC8010E9459208DB79EB70C9744
:102AA0000FB6F8949EBF0FBE8DBFEDB7FEB731963F
:102AB00021E5E22EF12CEC0EFD1EADB7BEB712964D
:102AC000FC92EE92119788E290E0938382831583C3
:102AD0000483D6015D968C915D97868317825C9600
:102AE0008C915C97808711865B968C918287138688
:102AF0000E946B20EDB7FEB73C96B0CFE4EDF0E05E
:102B000065917491C8010E945920C501B8010E94C5
:102B10006020E0EEF0E0659174918E01075D1F4F3B
:102B2000C8010E9459208DB79EB70A970FB6F89436
:102B30009EBF0FBE8DBFEDB7FEB7319691E5E92E72
:102B4000F12CEC0EFD1EADB7BEB71296FC92EE92C4
:102B5000119788E290E09383828315830483D601E2
:102B60005C968C915C97868317825B968C918087AC
:102B700011860E946B20EDB7FEB73A966FCFE6ED57
:102B8000F0E065917491C8010E945920C501B80117
:102B90000E946020E2EEF0E0659174918E01075D85
:102BA0001F4FC8010E9459208DB79EB708970FB6D6
:102BB000F8949EBF0FBE8DBFEDB7FEB7319681E58D
:102BC000E82EF12CEC0EFD1EADB7BEB71296FC92AE
:102BD000EE92119788E290E09383828315830483B9
:102BE000D6015B968C91868317820E946B20EDB78D
:102BF000FEB7389633CFE8EDF0E065917491C801E7
:102C00000E945920C501B80130CFEAEDF0E065918E
:102C100074918E010F5F1F4FC8010E94592000D090
:102C200000D000D0EDB7FEB73196ADB7BEB7129663
:102C3000BC92AE92119784E690E0938382831583D1
:102C400004830E946B20EDB7FEB736960FB6F8945A
:102C5000FEBF0FBEEDBFC501C858DF4F0FB6F894D9
:102C6000DEBF0FBECDBFCF91DF911F910F91FF90BF
:102C7000EF90DF90CF90BF90AF9008950F931F9388
:102C80008C0166E00E943B13C8010E9424111F9131
:102C90000F9108950F931F93CF93DF93EC01042FAF
:102CA00068A780E361E00E94420E18A5112379F025
:102CB000113091F480E361E00E94600E013019F45C
:102CC00082E08B8B09C0002339F41B8B05C080E3A5
:102CD00060E00E94600E1B8A6AE070E080E090E095
:102CE0000E94620DDF91CF911F910F9108950F9374
:102CF0001F938C0161E040E00E944A16C8010E94C7
:102D00000213C8010E940511C8016DE00E943B1327
:102D10008BE261E00E94420E8BE260E00E94600E56
:102D20001F910F9108958091DD05882341F08091D6
:102D3000F305882321F480EF94E00E94F8100895B1
:102D40000F931F938C010E949316C80160E040E02E
:102D50000E944A161F910F9108958CB58F7B8CBDF0
:102D60000895882319F48CB5806202C08CB58F7DDC
:102D70008CBD08959CB5937F982B9CBD08959CB500
:102D8000282F23709C7F292B2CBD9DB581709E7FA1
:102D9000982B9DBD0895109286051092850510927E
:102DA0008705109288051092890510928A0508956A
:102DB0008EE161E00E94420E8FE161E00E94420ECE
:102DC0008DE161E00E94420E8EE160E00E94600EA3
:102DD0008FE160E00E94600E8DE161E00E94600E74
:102DE0008CB580618CBD8CB580648CBD08951F93BB
:102DF000162F8DE161E00E94420E82E261E00E94A6
:102E0000420E8DE161E00E94600E82E261E00E946C
:102E1000600E8091B4079091B507A091B607B0916C
:102E2000B707A2FF08C088E061E00E94420E88E078
:102E300061E00E94600E8091B4079091B507A09167
:102E4000B607B091B70796FF08C089E061E00E941D
:102E5000420E89E061E00E94600E8091B40790917B
:102E6000B507A091B607B091B707A3FF08C082E0ED
:102E700061E00E94420E82E061E00E94600E80915B
:102E8000B4079091B507A091B607B091B707A4FF1A
:102E900008C082E261E00E94420E82E261E00E948C
:102EA000600E1330C9F0143028F4113069F012307C
:102EB00068F408C0153041F11530D0F0163009F033
:102EC00062C02FC08DE12BC082E229C080E995E06D
:102ED0000E94D5178CE223C08091B4079091B5076A
:102EE000A091B607B091B707A2FF4DC088E017C008
:102EF0008091B4079091B507A091B607B091B7073C
:102F000096FF41C089E00BC08091B4079091B5074E
:102F1000A091B607B091B707A3FF35C082E060E08B
:102F200030C08DE161E00E94600E82E261E00E94AB
:102F3000600E8091B4079091B507A091B607B0914B
:102F4000B707A2FF04C088E061E00E94600E809194
:102F5000B4079091B507A091B607B091B70796FF57
:102F600004C089E061E00E94600E8091B4079091F6
:102F7000B507A091B607B091B707A3FF04C082E0E0
:102F800061E00E94600E1F91089510928B050895D4
:102F900008958FED90E00E94B9228F3F09F480E000
:102FA0000895CB010E94B922089587E161E00E9453
:102FB000420E84E261E00E94420E85E261E00E94DE
:102FC000420E87E161E00E94600E84E261E00E94AF
:102FD000600E85E261E00E94600E08950F931F93DA
:102FE000162F042F862F61E00E94420E013019F443
:102FF000812F61E004C0002321F4812F60E00E9452
:10300000600E1F910F9108952F923F924F925F9201
:103010006F927F928F929F92AF92BF92CF92DF92E8
:10302000EF92FF920F931F93DF93CF93CDB7DEB74D
:10303000C75FD0400FB6F894DEBF0FBECDBF2DB630
:103040003EB68DB79EB708970FB6F8949EBF0FBED9
:103050008DBFADB6BEB60894A11CB11C7501CC24C1
:10306000DD244E010894811C911CCE0180599F4F94
:10307000AEEF4A2EAFEF5A2E480E591EF0E16F2EDA
:10308000712C680E791EDE01A052BF4FC051DF4F78
:10309000B983A883C05FD040FE013E96CE50DF4F7B
:1030A000F983E883C25FD040C4016DE00E94581DDF
:1030B00080E995E06CE040E00E94EE1780E995E041
:1030C0006DE040E00E94EE17D7011D921D921D9207
:1030D0001C9213978CE061E00E94420E8CE061E04C
:1030E0000E94600EC4010E94901D80E995E06DE091
:1030F00041E00E94EE176AE070E080E090E00E94FC
:10310000620DC40163E340E00E94181D62E370E0B9
:1031100080E090E00E94620D8E0102511F4FC401B9
:103120000E94B01CF8018083118261E070E080E0B1
:1031300090E00E94620D025010400415150579F7C9
:10314000F301DE015096819191918D939D93C05131
:10315000DF4F88819981C05FD040E817F90799F760
:10316000BE0162597F4F21E030E040E050E0DB01DA
:103170008D919C91019779F4D7018D919D910D903E
:10318000BC91A02D820F931FA41FB51FF701808350
:103190009183A283B38362507040CE50DF4F888109
:1031A0009981C25FD0406817790729F0220F331F39
:1031B000441F551FDCCFF70180819181A281B3812B
:1031C0008F5F9F4FAF4FBF4F31F4D7011D921D92BC
:1031D0001D921C9213978CE060E00E94600E80E9C3
:1031E00095E06CE040E00E94EE1780E995E06DE02C
:1031F00040E00E94EE170894C11CD11CE4E0F0E00E
:10320000EE0EFF1EF2E0CF16D10409F04DCFD5012E
:103210002D913D914D915C91139714968D919D91B7
:103220000D90BC91A02D281739074A075B0721F0A4
:1032300020E030E040E050E0B901CA010FB6F89458
:103240003EBE0FBE2DBEC950DF4F0FB6F894DEBF95
:103250000FBECDBFCF91DF911F910F91FF90EF90E7
:10326000DF90CF90BF90AF909F908F907F906F90A6
:103270005F904F903F902F900895EF92FF920F93A1
:103280001F930E9404187B018C0161157105810553
:103290009105B1F483EE90E00E94C1226A302AE0E9
:1032A00072072AE082072AE0920751F06F3F2FEF62
:1032B00072072FEF82072FEF920711F07B018C012D
:1032C000B701C8011F910F91FF90EF90089581E021
:1032D0008093D6056093B3051092D4051092D5055E
:1032E00008958091B2059091B105891B0895909140
:1032F000B1058091B205981710F080E00895E92F8C
:10330000F0E0EF56FA4F80819F5F9093B1050895EA
:103310001092DE051092D7051092D8058AEF90E042
:10332000A0E0B0E08093D9059093DA05A093DB0587
:10333000B093DC050895CF93DF93EC018091B4073F
:103340009091B507A091B607B091B70784FD3CC036
:103350008091B4079091B507A091B607B091B707D7
:1033600085FD32C08091B4079091B507A091B60752
:10337000B091B70786FD28C08091B4079091B5073A
:10338000A091B607B091B70787FD1EC08091B40722
:103390009091B507A091B607B091B70790FD14C002
:1033A0008091B4079091B507A091B607B091B70787
:1033B00091FD0AC08091B4079091B507A091B6071E
:1033C000B091B70793FF1DC08091DE05882339F4C3
:1033D00080EF94E060E041E00E949C100CC0898185
:1033E000882331F480EF94E060E041E00E949C107B
:1033F0008881882331F480EF94E061E041E00E940D
:103400009C10DF91CF910895FC018091B4079091B9
:10341000B507A091B607B091B70781709070A07002
:10342000B07080838091B4079091B507A091B607E2
:10343000B091B707B695A7959795879581708183C9
:103440008091B4079091B507A091B607B091B707E6
:1034500084FD3CC08091B4079091B507A091B60758
:10346000B091B70785FD32C08091B4079091B50740
:10347000A091B607B091B70786FD28C08091B40728
:103480009091B507A091B607B091B70787FD1EC010
:103490008091B4079091B507A091B607B091B70796
:1034A00090FD14C08091B4079091B507A091B60724
:1034B000B091B70791FD0AC08091B4079091B5070C
:1034C000A091B607B091B70793FF10C08091DE05B9
:1034D000882361F480EF94E060E040E00E949C105B
:1034E00080EF94E061E040E00E949C1008950F930B
:1034F0001F938C010E94AC09F80116821F910F9155
:103500000895DF93CF930F92CDB7DEB76983809193
:10351000D605882389F08091D5058032D0F480913A
:10352000D405E82FF0E0EC54FA4F60838F5F80936E
:10353000D4058093D5050DC087ED95E00E94041A4F
:10354000CE01019661E00E94910987ED95E00E940D
:103550009B190F90CF91DF9108950E94811A0895D1
:10356000FF920F931F9307ED15E0C8010E94041A04
:103570008091B30564EB75E04091D50521E00E9490
:10358000D10BF82E1092D4051092D5051092D605C5
:10359000C8010E949B198F2D1F910F91FF900895D4
:1035A000FF920F931F93F62E142F87ED95E00E9444
:1035B000041A012F113208F000E28F2D61E975E045
:1035C000402F0E94360C182F1092B1050093B205BF
:1035D00087ED95E00E949B19812F1F910F91FF901D
:1035E00008950E94D01A08950F931F938C0180E2D2
:1035F000E1E9F5E0DF01982F1D929A95E9F7109225
:10360000B1051092B205E4EBF5E0DF011D928A9559
:10361000E9F71092D4051092D5050E94030A81E0C3
:10362000F801868384E090E00E948C0D1F910F9139
:1036300008951F920F920FB60F920BB60F9211249E
:103640002F933F934F935F936F937F938F939F93AA
:10365000AF93BF93EF93FF938091DF059091E005C7
:10366000892B29F0E091DF05F091E0050995FF91A4
:10367000EF91BF91AF919F918F917F916F915F91EA
:103680004F913F912F910F900BBE0F900FBE0F9057
:103690001F9018951F920F920FB60F920BB60F92B4
:1036A00011242F933F934F935F936F937F938F9347
:1036B0009F93AF93BF93EF93FF938091E105909118
:1036C000E205892B29F0E091E105F091E2050995E9
:1036D000FF91EF91BF91AF919F918F917F916F91EA
:1036E0005F914F913F912F910F900BBE0F900FBEA6
:1036F0000F901F9018951F920F920FB60F920BB656
:103700000F9211242F933F934F935F936F937F9367
:103710008F939F93AF93BF93EF93FF938091E305B4
:103720009091E405892B29F0E091E305F091E405FF
:103730000995FF91EF91BF91AF919F918F917F91EB
:103740006F915F914F913F912F910F900BBE0F9012
:103750000FBE0F901F9018951F920F920FB60F92E9
:103760000BB60F9211242F933F934F935F936F9358
:103770007F938F939F93AF93BF93EF93FF9380912A
:10378000E5059091E605892B29F0E091E505F0919A
:10379000E6050995FF91EF91BF91AF919F918F91B0
:1037A0007F916F915F914F913F912F910F900BBE41
:1037B0000F900FBE0F901F9018951F920F920FB68B
:1037C0000F920BB60F9211242F933F934F935F9359
:1037D0006F937F938F939F93AF93BF93EF93FF93D9
:1037E0008091E7059091E805892B29F0E091E705A4
:1037F000F091E8050995FF91EF91BF91AF919F91ED
:103800008F917F916F915F914F913F912F910F9089
:103810000BBE0F900FBE0F901F9018951F920F9226
:103820000FB60F920BB60F9211242F933F934F9325
:103830005F936F937F938F939F93AF93BF93EF9318
:10384000FF938091E9059091EA05892B29F0E09199
:10385000E905F091EA050995FF91EF91BF91AF91CC
:103860009F918F917F916F915F914F913F912F9198
:103870000F900BBE0F900FBE0F901F9018951F92C8
:103880000F920FB60F920BB60F9211242F933F9306
:103890004F935F936F937F938F939F93AF93BF9358
:1038A000EF93FF938091EB059091EC05892B29F024
:1038B000E091EB05F091EC050995FF91EF91BF9137
:1038C000AF919F918F917F916F915F914F913F91B8
:1038D0002F910F900BBE0F900FBE0F901F90189559
:1038E0001F920F920FB60F920BB60F9211242F93C7
:1038F0003F934F935F936F937F938F939F93AF9378
:10390000BF93EF93FF938091ED059091EE05892B86
:1039100029F0E091ED05F091EE050995FF91EF9109
:10392000BF91AF919F918F917F916F915F914F91D7
:103930003F912F910F900BBE0F900FBE0F901F90D5
:1039400018951092F40582E08093F0058CE1809345
:10395000F50580EC91E09093F7058093F6050895C6
:10396000DF92EF92FF920F931F93FC01E0800181A1
:103970001281F894F80181818E2981838281DE2C65
:10398000D0948D21828382E090E00E948C0DF8011A
:1039900081818D21818387E090E00E948C0DF80168
:1039A000008178948DE290E00E948C0D80E010E020
:1039B000FF240E211F21012B09F081E01F910F919F
:1039C000FF90EF90DF9008951F93CF93DF93FC015A
:1039D0001081C181D281912F909560FF12C0F8941F
:1039E0008A8189238A838981812B898389E090E078
:1039F0000E948C0D8A81812B8A8378948FE290E0DB
:103A000011C0F8948A8189238A838981812B8983D3
:103A100087E390E00E948C0D8A81812B8A837894C1
:103A200085E090E00E948C0DDF91CF911F91089569
:103A3000CF92DF92EF92FF920F931F93CF93DF937A
:103A40008C01E42EFF24F394C0E0D0E0C62EDD24E8
:103A500060E08F2D90E08C219D21892B09F061E0A1
:103A6000C8010E94E41CFF0C2196C830D10581F7E3
:103A7000EE20A9F4F894D8011196ED91FC911297DB
:103A800091818C918095982391831196ED91FC9171
:103A9000129792818C918095982392837894DF91EC
:103AA000CF911F910F91FF90EF90DF90CF900895ED
:103AB0000F931F938C01862FD8011E966C9360E0A4
:103AC0000E94420ED8011E96EC911E978E2F90E018
:103AD000FC01EB5AFC4FE491EC938E5D9C4FFC0192
:103AE0008491E82FF0E0E65EFC4FE4911196EC93B0
:103AF000119712961C9212971B961C921B971D965B
:103B00001C921D971C961C92F80187E090E012868B
:103B10003197009711F00197FACF1F910F910895F7
:103B2000CF92DF92EF92FF920F931F93CF93DF9389
:103B3000EC018E8560E00E94420E0E94CC0C7B015D
:103B40008C018DE7D82EDA942FEFD21609F441C0FC
:103B500082E090E00E948C0D0E94CC0C6E157F05D7
:103B60008007910720F40E94CC0C7B018C018E858C
:103B70000E94AB0E892BB9F50E94CC0C6E197F09FF
:103B8000800B910B645F71408040904060F5DBCF0B
:103B90000E94CC0C7B018C01CD28D1F10E94CC0C71
:103BA0006E197F09800B910B645F714080409040DB
:103BB00080F48E850E94AB0E6C0189E090E00E943B
:103BC0008C0D0E94CC0C6E157F058007910720F7A5
:103BD000DFCF80E0DF91CF911F910F91FF90EF90A9
:103BE000DF90CF9008958E8561E00E94420E8E8511
:103BF00060E00E94600E84E591E00E948C0D0E94BE
:103C0000CC0C7B018C018E850E94AB0E892B31F68A
:103C100081E0E0CF10920A0610921106109213066E
:103C200089E1809396071092990710929A07109253
:103C30009C071092900710928F07089598D088F0F3
:103C40009F5790F0B92F9927B751A0F0D1F0660F88
:103C5000771F881F991F1AF0BA95C9F712C0B130A3
:103C600081F09FD0B1E008959CC0672F782F8827FE
:103C7000B85F39F0B93FCCF3869577956795B395E2
:103C8000D9F73EF490958095709561957F4F8F4F51
:103C90009F4F0895E89409C097FB3EF49095809556
:103CA000709561957F4F8F4F9F4F9923A9F0F92F02
:103CB00096E9BB279395F695879577956795B79580
:103CC000F111F8CFFAF4BB0F11F460FF1BC06F5F66
:103CD0007F4F8F4F9F4F16C0882311F096E911C078
:103CE000772321F09EE8872F762F05C0662371F099
:103CF00096E8862F70E060E02AF09A95660F771FAD
:103D0000881FDAF7880F9695879597F9089597F9A0
:103D10009F6780E870E060E008959FEF80EC089571
:103D200000240A941616170618060906089500249A
:103D30000A9412161306140605060895092E039414
:103D4000000C11F4882352F0BB0F40F4BF2B11F488
:103D500060FF04C06F5F7F4F8F4F9F4F089557FDE7
:103D60009058440F551F59F05F3F71F04795880FE9
:103D700097FB991F61F09F3F79F087950895121680
:103D800013061406551FF2CF4695F1DF08C016162C
:103D900017061806991FF1CF8695710561050894DD
:103DA0000895E894BB2766277727CB0197F90895F4
:103DB0000BD0C4CFB5DF28F0BADF18F0952309F097
:103DC000A6CFABCF1124EECFCADFA0F3959FD1F3DE
:103DD000950F50E0551F629FF001729FBB27F00DB9
:103DE000B11D639FAA27F00DB11DAA1F649F66270E
:103DF000B00DA11D661F829F2227B00DA11D621F5D
:103E0000739FB00DA11D621F839FA00D611D221F16
:103E1000749F3327A00D611D231F849F600D211DFA
:103E2000822F762F6A2F11249F5750408AF0E1F09D
:103E300088234AF0EE0FFF1FBB1F661F771F881FE6
:103E400091505040A9F79E3F510570F060CFAACF26
:103E50005F3FECF3983EDCF3869577956795B795D1
:103E6000F795E7959F5FC1F7FE2B880F911D9695FB
:103E7000879597F90895629FD001739FF001829F03
:103E8000E00DF11D649FE00DF11D929FF00D839FE9
:103E9000F00D749FF00D659FF00D9927729FB00D86
:103EA000E11DF91F639FB00DE11DF91FBD01CF0199
:103EB00011240895AA1BBB1B51E107C0AA1FBB1FF9
:103EC000A617B70710F0A61BB70B881F991F5A95A6
:103ED000A9F780959095BC01CD01089597FB092E17
:103EE00007260AD077FD04D0E5DF06D000201AF4BB
:103EF000709561957F4F0895F6F7909581959F4F46
:103F00000895A1E21A2EAA1BBB1BFD010DC0AA1F1A
:103F1000BB1FEE1FFF1FA217B307E407F50720F032
:103F2000A21BB30BE40BF50B661F771F881F991FAD
:103F30001A9469F760957095809590959B01AC01F6
:103F4000BD01CF01089597FB092E05260ED057FD20
:103F500004D0D7DF0AD0001C38F450954095309536
:103F600021953F4F4F4F5F4F0895F6F790958095FD
:103F7000709561957F4F8F4F9F4F08952F923F927D
:103F80004F925F926F927F928F929F92AF92BF9269
:103F9000CF92DF92EF92FF920F931F93CF93DF9315
:103FA000CDB7DEB7CA1BDB0B0FB6F894DEBF0FBE72
:103FB000CDBF09942A88398848885F846E847D84BF
:103FC0008C849B84AA84B984C884DF80EE80FD80C1
:103FD0000C811B81AA81B981CE0FD11D0FB6F89437
:103FE000DEBF0FBECDBFED010895EE0FFF1F0590A0
:103FF000F491E02D0994AF92BF92CF92DF92EF92AD
:10400000FF920F931F93CF93DF93EC016881798127
:104010008A819B81611571058105910521F464E216
:1040200079ED8BE597E02DE133EF41E050E00E9420
:10403000A31F79018A0127EA31E440E050E00E94A1
:104040003B1F5B016C01C801B7012CEE34EF4FEF51
:104050005FEF0E943B1F6A0D7B1D8C1D9D1D97FF0E
:1040600004C06150704080409048688379838A839F
:104070009B837F77CB01DF91CF911F910F91FF90B1
:10408000EF90DF90CF90BF90AF9008950E94FB1FFC
:10409000089585E393E00E94FB1F0895A0E0B0E03F
:1040A0008093350390933603A0933703B09338037E
:1040B0000895FB01DC0105900D920020E1F70895C1
:1040C000FB01DC010D900020E9F7119701900D92A2
:1040D0000020E1F708950F931F93DF93CF93CDB79F
:1040E000DEB72E970FB6F894DEBF0FBECDBF0D8999
:1040F0001E898F89988D26E02C831A83098397FF68
:1041000002C080E090E801979E838D839E01255E2A
:104110003F4FCE010196698D7A8DA9010E94A92099
:104120004D815E8157FD0AC02F81388542175307A4
:104130000CF49A01020F131FF80110822E960FB68D
:10414000F894DEBF0FBECDBFCF91DF911F910F91CD
:1041500008952F923F924F925F926F927F928F922B
:104160009F92AF92BF92CF92DF92EF92FF920F9306
:104170001F93DF93CF93CDB7DEB72C970FB6F8948C
:10418000DEBF0FBECDBF6C011B018A01FC0117828F
:104190001682838181FFD1C12E010894411C511CDC
:1041A000F6019381F10193FD859193FF81911F01A8
:1041B000882309F4BEC1853239F493FD859193FFBC
:1041C00081911F01853229F490E0B6010E94EB2213
:1041D000E7CFEE24FF2420E02032B0F48B3269F0E8
:1041E0008C3228F4803251F0833271F40BC08D325E
:1041F00039F0803349F421602CC02260246029C04A
:10420000286027C0206125C027FD2CC0382F3053DF
:104210003A3098F426FF08C08E2D880FE82EEE0C59
:10422000EE0CE80EE30E15C08F2D880FF82EFF0C54
:10423000FF0CF80EF30E20620CC08E3221F426FD26
:1042400078C1206406C08C3611F4206802C088361C
:1042500049F4F10193FD859193FF81911F0188231A
:1042600009F0BACF982F9554933018F090529330AC
:1042700028F40C5F1F4FFFE3F9830DC0833631F044
:10428000833771F0833509F060C022C0F801808166
:1042900089830E5F1F4F420171E0A72EB12C16C01B
:1042A00062E0662E712C600E711EF8018080918094
:1042B00026FF03C06E2D70E002C06FEF7FEFC401D8
:1042C0002C870E94E0225C0183012C852F7717C088
:1042D00052E0652E712C600E711EF8018080918075
:1042E00026FF03C06E2D70E002C06FEF7FEFC401A8
:1042F0002C870E94D5225C012C852068830123FD38
:1043000020C008C080E290E0B6012C870E94EB221A
:10431000FA942C858F2D90E0A816B90698F311C059
:10432000F40127FD859127FF81914F0190E0B601AF
:104330002C870E94EB222C85F110FA940894A10896
:10434000B108A114B10461F7F1C0843611F08936C7
:1043500049F527FF08C0F80160817181828193814E
:104360000C5F1F4F09C0F80160817181882777FDBC
:104370008095982F0E5F1F4F4FE6B42EB22297FF05
:1043800009C090958095709561957F4F8F4F9F4F95
:10439000F0E8BF2AA2012AE030E00E941723782E1D
:1043A000741845C0853731F43FEEB32EB2222AE0AF
:1043B00030E025C099EFB92EB2228F36C1F0803798
:1043C00020F4883509F0B5C00DC0803721F088375A
:1043D00009F0AFC002C020E1B22AB4FE0BC084E0F5
:1043E000B82A08C0B4FE09C0E6E0BE2A06C028E02C
:1043F00030E005C020E130E002C020E132E0B7FE4D
:1044000008C0F80160817181828193810C5F1F4F28
:1044100007C0F8016081718180E090E00E5F1F4F5E
:10442000A2010E941723782E7418FFE7BF22B6FE60
:104430000BC02EEFB2227E1438F4B4FE07C0B2FCDB
:1044400005C08FEEB82202C0A72C01C0AE2C8B2D68
:1044500090E0B4FE0DC0FE01E70DF11D2081203378
:1044600019F4E9EEBE2209C0A394B2FE06C004C04E
:1044700086789070009709F0A3948B2C9924B3FC54
:1044800014C0B0FE0FC0AF1428F4E72CEF0CEA18EC
:10449000AF2C08C0E72C06C080E290E0B6010E9475
:1044A000EB22A394AF14C0F304C0AF1410F4FA18B5
:1044B00001C0FF2484FE0FC080E390E0B6010E949B
:1044C000EB2282FE1FC081FE03C088E590E010C091
:1044D00088E790E00DC0C40186789070009791F055
:1044E00081FC02C080E201C08BE2B7FC8DE290E06B
:1044F000B6010E94EB2206C080E390E0B6010E9464
:10450000EB22EA947E14C0F37A94F201E70DF11DD8
:10451000808190E0B6010E94EB227720A9F706C0C7
:1045200080E290E0B6010E94EB22FA94FF20C1F7EE
:1045300037CEF6012681378102C02FEF3FEFC90148
:104540002C960FB6F894DEBF0FBECDBFCF91DF9192
:104550001F910F91FF90EF90DF90CF90BF90AF90A1
:104560009F908F907F906F905F904F903F902F9093
:104570000895F999FECF92BD81BDF89A992780B52B
:104580000895A6E1B0E044E050E00C947723262F94
:10459000F999FECF1FBA92BD81BD20BD0FB6F89428
:1045A000FA9AF99A0FBE01960895FC0105906150A0
:1045B00070400110D8F7809590958E0F9F1F089539
:1045C000FC016150704001900110D8F780959095E2
:1045D0008E0F9F1F08950F931F93CF93DF938C012E
:1045E000EB018B8181FF1BC082FF0DC02E813F81BB
:1045F0008C819D812817390764F4E881F981019342
:10460000F983E88306C0E885F985802F099500972E
:1046100031F48E819F8101969F838E8302C00FEFBC
:104620001FEFC801DF91CF911F910F910895FA01FB
:10463000AA27283051F1203181F1E8946F936E7FE1
:104640006E5F7F4F8F4F9F4FAF4FB1E03ED0B4E0D2
:104650003CD0670F781F891F9A1FA11D680F791F13
:104660008A1F911DA11D6A0F711D811D911DA11D24
:1046700020D009F468943F912AE0269F1124301934
:10468000305D3193DEF6CF010895462F4770405DCF
:104690004193B3E00FD0C9F7F6CF462F4F70405D7E
:1046A0004A3318F0495D31FD4052419302D0A9F7D9
:1046B000EACFB4E0A6959795879577956795BA95D3
:1046C000C9F700976105710508959B01AC010A2E99
:1046D00006945795479537952795BA95C9F7620F70
:1046E000731F841F951FA01D0895DC01CB01FC01E1
:1046F000F999FECF06C0F2BDE1BDF89A319600B43B
:0E4700000D9241505040B8F70895F894FFCF45
:10470E00496E76616C696420474D542076616C75F4
:10471E00650053756E004D6F6E00547565005765DC
:10472E0064005468750046726900536174003A3A29
:10473E003A3A3A3A00000102020303030304040466
:10474E000404040404050505050505050505050510
:10475E0005050505050606060606060606060606F0
:10476E0006060606060606060606060606060606DB
:10477E0006060606060707070707070707070707C0
:10478E0007070707070707070707070707070707AB
:10479E00070707070707070707070707070707079B
:1047AE00070707070707070707070707070707078B
:1047BE000707070707080808080808080808080870
:1047CE00080808080808080808080808080808085B
:1047DE00080808080808080808080808080808084B
:1047EE00080808080808080808080808080808083B
:1047FE00080808080808080808080808080808082B
:10480E00080808080808080808080808080808081A
:10481E00080808080808080808080808080808080A
:10482E0008080808080808080808080808080808FA
:0A483E000808080808010000000146
:00000001FF
