:100000000C94E6010C94851B0C94B61B0C94E71B16
:100010000C94181C0C94491C0C947A1C0C94AB1C6A
:100020000C94DC1C0C940E020C940E020C940E0228
:100030000C94310B0C940E020C940E020C94930948
:100040000C940E020C940E020C940E020C940E02F0
:100050000C940E020C940E020C940E020C946E0979
:100060000C940E020C94310C0C940E020C940E02A3
:100070000C940E020C940E020C940E020C940E02C0
:100080000C940E020C940E020C940E020C940E02B0
:100090000C94720C0C940E020C940E020C947F19AA
:1000A0000C940E020C940E020C940E020C940E0290
:1000B0000C940E020C940E020C940E020C940E0280
:1000C0000C940E020C940E020C940E024301570184
:1000D0007D01A401C401DC01EA01FA010F0225023D
:1000E000360242024902660284029A02A802B8025B
:1000F000DB02E10257726F6E672074696D652066DE
:100100006F726D61742E204D7573742062652022AC
:1001100064643A68683A6D6D220057726F6E6720AA
:1001200074696D6520666F726D61742E204D7573F4
:1001300074206265202264643A68683A6D6D3A738F
:10014000732200416C61726D204D6F6465206D619A
:10015000746368657320005B446179203A20686F9E
:10016000757273203A206D696E75746573203A203C
:100170007365636F6E64735D202D3E20005B446188
:100180007465203A20686F757273203A206D696E2D
:1001900075746573203A207365636F6E64735D20B8
:1001A0002D3E20005B486F757273203A206D696E9A
:1001B00075746573203A207365636F6E64735D2098
:1001C0002D3E20005B4D696E75746573203A207377
:1001D00065636F6E64735D202D3E20005B53656325
:1001E0006F6E64735D202D3E20004F6E636520703E
:1001F0006572207365636F6E6400496E636F72721F
:1002000065637420616C61726D206D6F6465005B65
:10021000253032753A253032753A253032753A2517
:100220003032755D005B253032753A253032753AD3
:10023000253032755D005B253032753A25303275D8
:100240005D005B253032755D005B446179203A20AA
:10025000686F757273203A206D696E7574657320CE
:100260005D202D3E20005B44617465203A20686F5C
:10027000757273203A206D696E75746573205D2008
:100280002D3E20005B486F757273203A206D696EB9
:10029000757465735D202D3E20005B4D696E75742D
:1002A00065735D202D3E20004F6E63652070657282
:1002B000206D696E7574650025732C2025303275AC
:1002C0002F253032752F253032752C202530327590
:1002D0003A253032753A25303275006572726F7288
:1002E000002530327525632530327525632530327F
:1002F00075256325303275256325303275256325D4
:1003000030327525632530327500002124272A2DCF
:100310003033002225282B2E313400202326292C8F
:100320002F3205050505030303030101010404033E
:100330000606060606060606010405010501030277
:100340000202020202010202050504040304040180
:10035000030407070701020810102040800408105A
:100360002040020204081020408001028020400446
:100370002001010204081020014080408001020891
:1003800004088004100402010000080900000000B5
:10039000000000000000000000000000000000005D
:1003A000000000000000000000000000000000004D
:1003B000000000000000000000000000810E2D146D
:1003C00027152A1503170D1D761EE01E11241FBECA
:1003D000CFEFD1E2DEBFCDBF13E0A0E0B2E0E8E2B4
:1003E000F9E402C005900D92A635B107D9F71AE0DD
:1003F000A6E5B3E001C01D92A13BB107E1F713E010
:10040000CCECD3E004C02297FE010E94CD20CC3B6F
:10041000D107C9F70E94450D0C9492240C9400005A
:10042000EF92FF920F93DF93CF93CDB7DEB7609734
:100430000FB6F894DEBF0FBECDBFA82F002309F47E
:1004400061C07E010894E11CF11C88E0F701119263
:100450008A95E9F729833A834B835C836D837E8396
:10046000AF83988780E2801BE82FFF27E7FDF09598
:1004700049815A816B817C81181684F019861A860D
:100480001B861C86882799278E1B9F0B04C0440F50
:10049000551F661F771F8A95D2F728C0202F332754
:1004A00027FD3095DB01CA01022E04C0880F991F79
:1004B000AA1FBB1F0A94D2F789879A87AB87BC878C
:1004C00004C07695679557954795EA95D2F78D8143
:1004D0009E81AF81B88504C0880F991FAA1FBB1FDA
:1004E0002A95D2F7482B592B6A2B7B2B4D875E8799
:1004F0006F87788B29853A854B855C856D857E85F0
:10050000AF8598898A2F60960FB6F894DEBF0FBE2C
:10051000CDBFCF91DF910F91FF90EF900895AEE5A1
:10052000B0E0E5E9F2E00C949420A8E04E010894D4
:10053000811C911CF4016A2E11926A94E9F72983B7
:100540003A834B835C836D837E838F839887CE0150
:100550000996FC011192AA95E9F7A986BA86CB867D
:10056000DC86ED86FE860F87188B29843A844B84BF
:100570005C84ED84FE840F85188969807A808B8085
:100580009C806DA67EA68FA698AA6D807E808F80A7
:100590009884E114F1040105110509F0B3C3621454
:1005A00073048404950408F03DC100E0201600E0C7
:1005B000300601E0400600E0500688F41FEF2116E7
:1005C00031044104510439F030F048E0E42EF12CBC
:1005D000012D112D18C0EE24FF24870114C020E046
:1005E000221620E0320620E0420621E0520630F0DA
:1005F00038E1E32EF12C012D112D05C020E1E22E72
:10060000F12C012D112DD201C1010E2C04C0B69583
:10061000A795979587950A94D2F78F5A9D4FDC013D
:100620002C9180E290E0A0E0B0E08E199F09A00B31
:10063000B10B7C018D01E21AF10801091109E114E5
:10064000F10401051105A1F10E2C04C0220C331C8C
:10065000441C551C0A94D2F7A40193010E2C04C02B
:10066000220F331F441F551F0A94D2F780E290E0F7
:100670008E199F096DA47EA48FA498A804C0969497
:100680008794779467948A95D2F7622A732A842A8A
:10069000952AADA4BEA4CFA4D8A804C0AA0CBB1CA4
:1006A000CC1CDD1CEA94D2F7ADA6BEA6CFA6D8AA74
:1006B0006201EE24FF24CDAADEAAEFAAF8AE9201D1
:1006C00081012070307009AF1AAF2BAF3CAFC4016D
:1006D000B301A70196010E9457207B018C01C40140
:1006E000B3012DA93EA94FA958AD0E945720C901B9
:1006F000DA013C014D01C401B30129AD3AAD4BAD66
:100700005CAD0E9411209B01AC018701FF24EE2407
:10071000ADA4BEA4CFA4D8A8C601AA27BB27570161
:100720006801A82AB92ACA2ADB2AA216B306C40677
:10073000D506E0F408946108710881089108A20CBC
:10074000B31CC41CD51CA214B304C404D50470F09B
:10075000A216B306C406D50648F4089461087108C9
:1007600081089108A20CB31CC41CD51CA21AB30AA0
:10077000C40AD50AC601B5012DA93EA94FA958AD95
:100780000E9457207B018C01C601B5012DA93EA90D
:100790004FA958AD0E945720C901DA015C016D01D3
:1007A000C601B50129AD3AAD4BAD5CAD0E9411203B
:1007B0009B01AC018701FF24EE248DA59EA5AFA56A
:1007C000B8A9A070B070E82AF92A0A2B1B2BE216F0
:1007D000F30604071507C0F40894A108B108C1087E
:1007E000D108E20CF31C041D151DE214F3040405EA
:1007F000150550F0E216F3060407150728F40894CF
:10080000A108B108C108D108D3019927882786011A
:100810007501E82AF92A0A2B1B2BE9AAFAAA0BABC5
:100820001CABCFC4211431044104510471F461E0C4
:1008300070E080E090E020E030E040E050E00E9496
:100840005720C901DA011C012D0100E0201600E04B
:10085000300601E0400600E0500688F41FEF211644
:1008600031044104510431F028F048E050E060E0E8
:1008700070E017C040E050E060E070E012C020E09F
:10088000221620E0320620E0420621E0520628F03F
:1008900048E150E060E070E004C040E150E060E01A
:1008A00070E0D201C101042E04C0B695A7959795BA
:1008B00087950A94D2F78F5A9D4FDC012C91E0E284
:1008C000EE2EF12C012D112DD801C701841B950BA3
:1008D000A60BB70B821B9109A109B1090097A105CD
:1008E000B10561F464015301A218B308C408D50826
:1008F00031E0632E712C812C912C1EC16F968FAF2D
:100900006F97082E04C0220C331C441C551C0A94FB
:10091000D2F7EE2DE81B640153010E2E04C0D694CD
:10092000C794B794A7940A94D2F7A40193016F9641
:100930000FAC6F9704C0220F331F441F551F0A943A
:10094000D2F76DA47EA48FA498A80E2E04C096940E
:100950008794779467940A94D2F784017301E22A0A
:10096000F32A042B152BE9A6FAA60BA71CA7320124
:1009700088249924920181012070307021960CAF57
:100980001DAF2EAF3FAF2197C601B501A401930162
:100990000E9457207B018C01C601B501A40193017F
:1009A0000E945720C901DA0125968CAF9DAFAEAFEA
:1009B000BFAF2597BC01CD0121962CAD3DAD4EAD0D
:1009C0005FAD21970E9411209B01AC018701FF249C
:1009D000EE24A9A4BAA4CBA4DCA4C601AA27BB27F1
:1009E0005C016D01AE28BF28C02AD12AA216B30629
:1009F000C406D50660F525966CAD7DAD8EAD9FAD78
:100A00002597615070408040904025966CAF7DAF37
:100A10008EAF9FAF2597A20CB31CC41CD51CA2148B
:100A2000B304C404D50498F0A216B306C406D506D0
:100A300070F4615070408040904025966CAF7DAF5F
:100A40008EAF9FAF2597A20CB31CC41CD51CA21A55
:100A5000B30AC40AD50AC601B501A40193010E94D4
:100A600057207B018C01C601B501A40193010E94AE
:100A70005720C901DA013C014D01C401B30121969F
:100A80002CAD3DAD4EAD5FAD21970E9411209B0175
:100A9000AC018701FF24EE2489A59AA5ABA5BCA5CE
:100AA000A070B07057016801A82AB92ACA2ADB2AA7
:100AB000A216B306C406D506E0F4089461087108CE
:100AC00081089108A20CB31CC41CD51CA214B30449
:100AD000C404D50470F0A216B306C406D50648F4C3
:100AE00008946108710881089108A20CB31CC41C09
:100AF000D51C8DA59EA5AFA5B8A96F960FAC6F9715
:100B000004C0880F991FAA1FBB1F0A94D2F78DA794
:100B10009EA7AFA7B8ABA21AB30AC40AD50A2596F6
:100B2000ECACFDAC0EAD1FAD2597D70199278827FA
:100B3000682A792A8A2A9B2A820122273327299622
:100B40000CAF1DAF2EAF3FAF2997A20191014070AE
:100B500050702D962CAF3DAF4EAF5FAF2D97C601B5
:100B6000B50129962CAD3DAD4EAD5FAD29970E94E4
:100B700057207B018C01C601B50129962CAD3DADF6
:100B80004EAD5FAD29970E945720C901DA016196E9
:100B90008CAF9DAFAEAFBFAF6197BC01CD012D96BD
:100BA0002CAD3DAD4EAD5FAD2D970E9411209B0148
:100BB000AC018701FF24EE24ADA4BEA4CFA4D8A825
:100BC000C601AA27BB2757016801A82AB92ACA2A41
:100BD000DB2AA216B306C406D50660F561966CAD95
:100BE0007DAD8EAD9FAD619761507040804090406B
:100BF00061966CAF7DAF8EAF9FAF6197A20CB31CB7
:100C0000C41CD51CA214B304C404D50498F0A216C5
:100C1000B306C406D50670F4615070408040904021
:100C200061966CAF7DAF8EAF9FAF6197A20CB31C86
:100C3000C41CD51CA21AB30AC40AD50AC601B50140
:100C400029962CAD3DAD4EAD5FAD29970E94572042
:100C50007B018C01C601B50129962CAD3DAD4EAD91
:100C60005FAD29970E945720C901DA015C016D012F
:100C7000C601B5012D962CAD3DAD4EAD5FAD2D97A6
:100C80000E9411209B01AC018701FF24EE248DA559
:100C90009EA5AFA5B8A9A070B070E82AF92A0A2BC2
:100CA0001B2BE216F30604071507C0F40894A108ED
:100CB000B108C108D108E20CF31C041D151DE21493
:100CC000F3040405150550F0E216F30604071507B2
:100CD00028F40894A108B108C108D1086196ECACC9
:100CE000FDAC0EAD1FAD6197D701992788279601FE
:100CF0008501082B192B2A2B3B2B09AB1AAB2BABED
:100D00003CAB62C26E147F048006910608F451C2A7
:100D100020E0E21620E0F20621E0020720E01207C0
:100D200088F43FEFE316F1040105110531F028F0D6
:100D300048E050E060E070E017C040E050E060E064
:100D400070E012C040E0E41640E0F40640E0040722
:100D500041E0140728F048E150E060E070E004C092
:100D600040E150E060E070E0D801C701042E04C00B
:100D7000B695A795979587950A94D2F78F5A9D4F68
:100D8000DC012C9130E2A32EB12CC12CD12CD60148
:100D9000C501841B950BA60BB70B821B9109A109FA
:100DA000B1090097A105B10589F4E614F704080517
:100DB000190508F4F2C16DA47EA48FA498A862144A
:100DC00073048404950408F0E8C1F3C16E968FAFF4
:100DD0006E97082E04C0EE0CFF1C001F111F0A9412
:100DE000D2F76A2D681BD201C101062E04C0B69548
:100DF000A795979587950A94D2F75C016D01AE2867
:100E0000BF28C02AD12AADA2BEA2CFA2D8A6720105
:100E100061016E960FAC6E9704C0CC0CDD1CEE1C0D
:100E2000FF1C0A94D2F7C9A2DAA2EBA2FCA26401C9
:100E30005301062E04C0D694C794B794A7940A947D
:100E4000D2F7D401C3016E960FAC6E9704C0880F21
:100E5000991FAA1FBB1F0A94D2F7EDA4FEA40FA5E9
:100E600018A904C016950795F794E7946A95D2F7E8
:100E700037014801682A792A8A2A9B2A6D8E7E8E3C
:100E80008F8E98A2EDA0FEA00FA118A5380188248E
:100E90009924980187012070307065960CAF1DAFC2
:100EA0002EAF3FAF6597C601B501A40193010E9423
:100EB00057207B018C01C601B501A40193010E945A
:100EC0005720C901DA011C012D01C201B10165964B
:100ED0002CAD3DAD4EAD5FAD65970E9411209B01DD
:100EE000AC018701FF24EE24AD8CBE8CCF8CD8A042
:100EF000C601AA27BB2757016801A82AB92ACA2A0E
:100F0000DB2AA216B306C406D50600F5089421080C
:100F1000310841085108EDA0FEA00FA118A5AE0CA4
:100F2000BF1CC01ED11EAE14BF04C006D10670F097
:100F3000A216B306C406D50648F408942108310861
:100F400041085108AE0CBF1CC01ED11EA21AB30A24
:100F5000C40AD50AC601B501A40193010E94572015
:100F60007B018C01C601B501A40193010E945720A9
:100F7000C901DA013C014D01C401B30165962CADF4
:100F80003DAD4EAD5FAD65970E9411209B01AC0158
:100F90008701FF24EE248D8D9E8DAF8DB8A1A070AA
:100FA000B07057016801A82AB92ACA2ADB2AA216FA
:100FB000B306C406D50600F50894610871088108D7
:100FC00091086DA17EA18FA198A5A60EB71EC81E7F
:100FD000D91EA616B706C806D90670F0A216B30623
:100FE000C406D50648F40894610871088108910880
:100FF000A60EB71EC81ED91ED601C501821B930BB3
:10100000A40BB50B898F9A8FAB8FBC8FD101992719
:10101000882764015301A82AB92ACA2ADB2AA9AA67
:10102000BAAACBAADCAA860175012FEF3FEF40E0F8
:1010300050E0E222F32204231523A6016627772736
:101040006D964CAF5DAF6EAF7FAF6D97A9A0BAA0A4
:10105000CBA0DCA06FEF7FEF80E090E0A622B7226C
:10106000C822D92289A19AA1ABA1BCA11D01442407
:101070005524C801B701A60195010E941120699667
:101080006CAF7DAF8EAF9FAF6997C801B701A2016A
:1010900091010E9411203B014C016D966CAD7DAD1C
:1010A0008EAD9FAD6D97A60195010E9411207B0129
:1010B0008C016D966CAD7DAD8EAD9FAD6D97A2012F
:1010C00091010E9411205B016C01A8019701260D7E
:1010D000371D481D591D69966CAC7DAC8EAC9FAC1C
:1010E0006997C401AA27BB27280F391F4A1F5B1F16
:1010F0002E153F054007510748F4E12CF12C61E023
:10110000062F112DAE0CBF1CC01ED11ECA01AA276E
:10111000BB27BC01CD016A0D7B1D8C1D9D1D698CFB
:101120007A8C8B8C9C8C661677068806990640F123
:10113000661577058805990509F043C0D9019927F7
:10114000882769962CAD3DAD4EAD5FAD6997407077
:101150005070820F931FA41FB51F2DA53EA54FA54C
:1011600058A96E960FAC6E9704C0220F331F441F10
:10117000551F0A94D2F7281739074A075B0708F565
:1011800009A91AA92BA93CA90150104020403040C0
:1011900009AB1AAB2BAB3CAB14C0662477244301DC
:1011A00021E030E040E050E029AB3AAB4BAB5CAB28
:1011B0000BC066247724430119AA1AAA1BAA1CAAE9
:1011C00003C0662477244301FE01719688E0DF01A5
:1011D0001D928A95E9F7A9A8BAA8CBA8DCA8A98A84
:1011E000BA8ACB8ADC8A6D8A7E8A8F8A988E29A9F0
:1011F0003A894B895C89662D7E898F89988DC25A80
:10120000DF4FE2E10C94B020EF92FF920F931F9317
:10121000DF93CF93CDB7DEB7C05AD0400FB6F89466
:10122000DEBF0FBECDBF00D000D000D0EDB7FEB7FF
:10123000319681E5E82EF12CEC0EFD1EADB7BEB760
:101240001296FC92EE92119780E092E09383828353
:1012500083E090E0958384830E9486218DB79EB7BA
:1012600006960FB6F8949EBF0FBE8DBF8E010F5F1E
:101270001F4FC80163E072E00E944121C801B7011D
:101280000E943621C80168E172E00E943621C8013F
:1012900061E00E94B30CC056DF4F0FB6F894DEBF7A
:1012A0000FBECDBFCF91DF911F910F91FF90EF90B7
:1012B000089581E094E00E94371560E072EC81E0CF
:1012C00090E041E00E94C90C81E00E941D0C64EF97
:1012D00071E080E090E00E944E0A08951F920F9204
:1012E0000FB60F9211248F939F93AF93BF9380916A
:1012F000970690919806A0919906B0919A0601964A
:10130000A11DB11D8093970690939806A09399060E
:10131000B0939A06BF91AF919F918F910F900FBE9E
:101320000F901F9018951F920F920FB60F921124D5
:101330008F939F93AF93BF9380919B0690919C0650
:10134000A0919D06B0919E060196A11DB11D8093AE
:101350009B0690939C06A0939D06B0939E06BF911A
:10136000AF919F918F910F900FBE0F901F90189586
:101370008F929F92AF92BF92CF92DF92EF92FF92A5
:101380000F931F938FB7F894A0909706B09098068C
:10139000C0909906D0909A068FBF9501A60160E093
:1013A00070E080E090E001E00E941002122FF32E26
:1013B000E42ED52EC62EB72EA82E892E02E00E942E
:1013C0001002B92F210FE1E0211708F0E0E03F0DF6
:1013D000F1E03F1508F0F0E09E2E930EE1E0931649
:1013E00008F0E0E0FE2B4E0DA1E04E1508F0A0E065
:1013F000FF2EF40EE1E0F41608F0E0E0AE2B5D0DF8
:10140000F1E05D1508F0F0E00A2F050FE1E00517A7
:1014100008F0E0E0FE2B6C0DA1E06C1508F0A0E0F8
:101420001F2F160FE1E0161708F0E0E0AE2B7B0D42
:10143000F1E07B1508F0F0E0A70FE1E0A71708F056
:10144000E0E0FE2B8A0D91E08A1508F090E0F80F9D
:10145000E1E0F81708F0E0E09E2BB80D392D4F2D94
:10146000502F612F7A2F8F2F9B0FE9E0AE2EBB24D8
:10147000CC24DD24EE24FF2400E010E00E948F0243
:10148000952FB901842F1F910F91FF90EF90DF905E
:10149000CF90BF90AF909F908F900895AF92BF92E2
:1014A000CF92DF92EF92FF920F931F935B016C013B
:1014B00007C00E94B8096E157F058007910720F4C8
:1014C0000E94B8097B018C010E94B8096E197F093E
:1014D000800B910B6A157B058C059D0550F31F91C0
:1014E0000F91FF90EF90DF90CF90BF90AF90089555
:1014F0008430910570F0BC0180E090E00E94201FD4
:1015000026E636E646EE5FE30E94AE1F0E94F41E1A
:1015100003C0BC01660F771F6150704061F06150DD
:10152000704049F0FB01EE0FFF1F31978FB7F89421
:101530003197F1F78FBF0895789484B7877F84BF80
:1015400010929706109298061092990610929A0699
:1015500084B5826084BD84B5816084BD85B58260B8
:1015600085BD85B5816085BDEEE6F0E08081816056
:101570008083E1E8F0E08081826080838081816007
:101580008083E0E8F0E0808181608083E1EBF0E03F
:10159000808184608083E1E9F0E0808184608083E1
:1015A000E0EBF0E0808181608083E0E9F0E0808121
:1015B00081608083E4E6F0E080818E7F8083ECE7C9
:1015C000F0E080818F778083808180648083EAE788
:1015D000F0E080818460808380818260808380816C
:1015E000806880831092C1001092C9000895909184
:1015F0005603982B9093560380FF32C0809164006D
:101600008E7F8093640080917C008F7780937C0034
:1016100080917C00806480937C0080917A0084605B
:1016200080937A0080917A00826080937A00809122
:101630007A00806880937A00809164008F7780932D
:101640006400809164008B7F8093640080916400CB
:101650008D7F80936400809165008E7F809365000C
:1016600008951F920F920FB60F920BB60F9211248E
:101670002F933F934F935F936F937F938F939F939A
:10168000AF93BF93EF93FF93F89481E0809355035A
:10169000E0E6F0E080818068808380818F7B8083BA
:1016A00083E060E00E94860B7894FF91EF91BF91F8
:1016B000AF919F918F917F916F915F914F913F91EA
:1016C0002F910F900BBE0F900FBE0F901F9018958B
:1016D000282F30E0C9018B5A9C4FFC0194912E5D5C
:1016E0003C4FF9018491882381F0E82FF0E0E65F18
:1016F000FC4FE491F0E0662329F4808190958923E2
:10170000808308958081892B80830895482F50E03D
:10171000CA0188579C4FFC012491CA018B5A9C4FE7
:10172000FC0194914E5D5C4FFA0134913323C1F179
:10173000222331F1233021F4809180008F7705C07E
:10174000243031F4809180008F7D8093800018C018
:10175000213019F484B58F7704C0223021F484B588
:101760008F7D84BD0DC0263021F48091B0008F772D
:1017700005C0273029F48091B0008F7D8093B000A0
:10178000E32FF0E0EE5EFC4FE491F0E0662329F4F5
:10179000808190958923808308958081892B80831F
:1017A0000895482F50E0CA0188579C4FFC012491AE
:1017B000CA018B5A9C4FFC0194914E5D5C4FFA011B
:1017C0003491332319F420E030E035C0222331F185
:1017D000233021F4809180008F7705C0243031F4CC
:1017E000809180008F7D8093800018C0213019F493
:1017F00084B58F7704C0223021F484B58F7D84BDF9
:101800000DC0263021F48091B0008F7705C02730BD
:1018100029F48091B0008F7D8093B000E32FF0E039
:10182000E65EFC4FE491F0E0808120E030E0892327
:1018300011F021E030E0C9010895882349F41092A5
:101840005A031092590310925803109257030895A7
:1018500010925E0310925D0310925C0310925B0382
:1018600008951F920F920FB60F920BB60F9211248C
:101870002F933F934F935F936F937F938F939F9398
:10188000AF93BF93EF93FF934091C600E09157034E
:10189000F0915803CF01019660E072E00E9444206D
:1018A0009C018091590390915A032817390739F008
:1018B000E156F74F40833093580320935703FF912D
:1018C000EF91BF91AF919F918F917F916F915F91B8
:1018D0004F913F912F910F900BBE0F900FBE0F9025
:1018E0001F9018951F920F920FB60F920BB60F9282
:1018F00011242F933F934F935F936F937F938F9315
:101900009F93AF93BF93EF93FF934091CE00E091ED
:101910005B03F0915C03CF01019660E072E00E94EE
:1019200044209C0180915D0390915E032817390744
:1019300039F0E156F94F408330935C0320935B0309
:10194000FF91EF91BF91AF919F918F917F916F9197
:101950005F914F913F912F910F900BBE0F900FBE53
:101960000F901F901895FC0110C03196662339F432
:101970008091C00085FFFCCF9093C60006C0809187
:10198000C80085FFFCCF9093CE009081992369F722
:101990000895EF92FF920F931F937B018C014423D4
:1019A000C1F588E00E94F70AC801B70122E030E0E3
:1019B00040E050E00E9479202050304F414F5F4F6F
:1019C000CA01B901A80197010E947920C901DA0171
:1019D0000197A109B109292F3A2F4B2F552747FD10
:1019E0005A950196A11DB11D2093C5008150809389
:1019F000C4008091C10080618093C1008091C100CA
:101A000088608093C1008091C10080688093C1008C
:101A100037C080E10E94F70AC801B70122E030E038
:101A200040E050E00E9479202050304F414F5F4FFE
:101A3000CA01B901A80197010E947920C901DA0100
:101A40000197A109B109292F3A2F4B2F552747FD9F
:101A50005A950196A11DB11D2093CD008150809310
:101A6000CC008091C90080618093C9008091C90039
:101A700088608093C9008091C90080688093C90004
:101A80001F910F91FF90EF9008950E949C0A81E0B2
:101A900094E00E942B15853440F081E361E00E94C0
:101AA000680B81E361E00E94860B81E094E061E0D5
:101AB00070E00E9433158130B1F480919F0A9091BB
:101AC000A00AA091A10AB091A20A906880939F0AEF
:101AD0009093A00AA093A10AB093A20A81E090E09B
:101AE00060E00E94D42387E20E94D10B892B09F485
:101AF0004FC081E094E060E070E00E9433158A30CE
:101B000009F046C083E693E00E94D91383E693E090
:101B10000E94F01183E693E00E94A01380917C0361
:101B2000482F50E080917E03481B510980917B0330
:101B3000282F30E080917F03281B310912161306ED
:101B40005CF48CE390E0BC01269FC001279F900DC0
:101B5000369F900D11240EC037FF0EC08CE390E02D
:101B6000BC01269FC001279F900D369F900D112428
:101B7000805F914F480F591F4330510548F48091C1
:101B8000AE0A9091AF0A80629093AF0A8093AE0A3A
:101B900083E693E00E94D91383E693E00E948C10C1
:101BA00083E693E00E947B1083E693E00E94021498
:101BB00063E070E080E090E00E944E0A80919F0A0E
:101BC0009091A00AA091A10AB091A20AA1FF5EC0C3
:101BD00063E070E080E090E00E944E0A86E161E000
:101BE0000E94680B63E070E080E090E00E944E0A83
:101BF00086E161E00E94860B63E070E080E090E0A7
:101C00000E944E0A0E943A1463E070E080E090E087
:101C10000E944E0A81E00E94131463E070E080E0AD
:101C200090E00E944E0A84E00E94211463E070E07C
:101C300080E090E00E944E0A80E00E941C1463E065
:101C400070E080E090E00E944E0A0E940F1463E072
:101C500070E080E090E00E944E0A86EF93E066E03C
:101C60000E94591463E070E080E090E00E944E0A08
:101C700086E161E00E94680B86E160E00E94860BCD
:101C800063E070E080E090E00E944E0A63E070E064
:101C900080E090E00E944E0A81E094E00E94B81635
:101CA00060935F037093600380936103909362037A
:101CB00080915F0390916003A0916103B0916203F2
:101CC0000E9424210E9459090E940409FDCFFC01B1
:101CD000148A158A168A178A108E118E128E138E08
:101CE000148E158E168E178E10A211A212A213A298
:101CF00080E090E0A0E0B0E084A395A3A6A3B7A302
:101D000008951092F403109276030895EF92FF92D3
:101D10000F931F93DF93CF93CDB7DEB7EC970FB63A
:101D2000F894DEBF0FBECDBF8C01EEEEF0E0659102
:101D30007491B5E1EB2EF12CEC0EFD1EC7010E9453
:101D40002F21E0EFF0E065917491CE0101960E94A1
:101D50002F21D80156968C91843009F46DC08530BE
:101D600048F4823069F1833008F048C0813009F0CE
:101D700000C10AC0863009F49BC0863008F47AC0DE
:101D8000873009F0F6C0B2C0EDB7FEB774970FB652
:101D9000F894FEBF0FBEEDBF3196075D1F4FADB784
:101DA000BEB712961C930E9311970952104084E609
:101DB00090E093838283F582E4828EE292E0B3C066
:101DC0008DB79EB744970FB6F8949EBF0FBE8DBFD8
:101DD000EDB7FEB73196075D1F4FADB7BEB7129690
:101DE0001C930E9311970952104084E690E0938360
:101DF0008283F582E48282E392E095C08DB79EB73C
:101E000044970FB6F8949EBF0FBE8DBFEDB7FEB7D7
:101E10003196075D1F4FADB7BEB712961C930E9358
:101E200011970952104084E690E093838283F582F3
:101E3000E48286E392E077C08DB79EB744970FB6F1
:101E4000F8949EBF0FBE8DBFEDB7FEB73196075D0C
:101E50001F4FADB7BEB712961C930E931197095240
:101E6000104084E690E093838283F582E4828AE3E3
:101E700092E059C08DB79EB744970FB6F8949EBFB5
:101E80000FBE8DBFEDB7FEB73196075D1F4FADB7E3
:101E9000BEB712961C930E9311970952104084E618
:101EA00090E093838283F582E4828EE392E03BC0EC
:101EB0008DB79EB744970FB6F8949EBF0FBE8DBFE7
:101EC000EDB7FEB73196075D1F4FADB7BEB712969F
:101ED0001C930E9311970952104084E690E093836F
:101EE0008283F582E48282E492E01DC08DB79EB7C2
:101EF00044970FB6F8949EBF0FBE8DBFEDB7FEB7E7
:101F00003196075D1F4FADB7BEB712961C930E9367
:101F100011970952104084E690E093838283F58202
:101F2000E48286E492E097838683D80154968C916C
:101F300054978087118655968C9155978287138682
:101F40005A968C915A978487158657968C915797F5
:101F50008687178658968C915897808B118A599648
:101F60008C91828B138A0E944821EDB7FEB774963C
:101F70001DC000D000D000D0EDB7FEB73196075D90
:101F80001F4FADB7BEB712961C930E93119709520F
:101F9000104084E690E093838283CE01019695837E
:101FA00084830E944821EDB7FEB736960FB6F894A9
:101FB000FEBF0FBEEDBF9801275D3F4FC901EC96F4
:101FC0000FB6F894DEBF0FBECDBFCF91DF911F914A
:101FD0000F91FF90EF9008951F93CF93DF93EC0143
:101FE000162F80914E04882321F488E494E00E9407
:101FF0006F1888E494E068E670E00E94E21688E4D6
:1020000094E0612F0E94FC17C10FD11D88E494E079
:1020100068810E94FC1788E494E00E942B18DF91ED
:10202000CF911F910895FF920F931F93CF93DF934A
:102030008C01F62E80914E04882321F488E494E0EC
:102040000E946F1888E494E068E670E00E94E2164F
:1020500088E494E06F2D0E94FC1788E494E00E94CD
:102060002B1888E494E068E670E041E050E00E94BC
:102070006C18C0E0D0E088E494E00E94EC1688235D
:1020800029F4CA30D10511F02196F5CF88E494E007
:102090000E94F2160F0D111DF801808388E494E070
:1020A0000E942B18DF91CF911F910F91FF900895FF
:1020B0000F931F938C016FE00E941310F801878526
:1020C00083701F910F910895CF93DF93EC010E94CD
:1020D0005810882319F0CE56DF4F88838091720301
:1020E0008C7F8093720383E693E06FE00E94EC0F95
:1020F000DF91CF9108950F931F938C016EE00E94A2
:102100001310F80186858D7F8687C8016EE00E94D6
:10211000EC0F1F910F9108950F931F938C016EE0A8
:102120000E941310F80186858E7F8687C8016EE0B5
:102130000E94EC0F1F910F910895AF92BF92CF9222
:10214000DF92FF920F931F93CF93DF938C01F62EB4
:1021500080914E04882321F488E494E00E946F1853
:1021600088E494E068E670E00E94E21688E494E077
:1021700060E070E00E94281888E494E00E942B1828
:1021800088E494E068E670E043E150E00E946C1857
:10219000C0E0D0E0CC24DD24AF2CBB245AE0F52EE7
:1021A0000DC188E494E00E94EC16882309F403C171
:1021B00088E494E00E94F216282FF801EC0FFD1F2E
:1021C0008083C630D10509F482C0C730D105B8F488
:1021D000C230D10509F44EC0C330D10538F4209780
:1021E00069F1C130D10509F0E4C036C0C430D10571
:1021F00009F451C0C530D10508F05BC049C0CA30F0
:10220000D10509F49BC0CB30D10558F4C830D105B5
:1022100009F478C090E02F70C930D10508F081C072
:1022200064C0CC30D10509F4A7C0CC30D10508F486
:1022300094C0CD30D10509F0BCC0ADC090E044E001
:10224000959587954A95E1F78F9DC00111242F70D0
:10225000280FF801218FADC090E034E09595879567
:102260003A95E1F78F9DC00111242F70280FF801D6
:10227000208F9FC090E0B4E095958795BA95E1F7DF
:102280008F9DC00111242F70280FF801278B91C05A
:10229000F801868B8EC090E0A4E095958795AA956D
:1022A000E1F78F9DC00111242F70280FF801228FB4
:1022B00080C090E0F4E095958795FA95E1F78F9DC1
:1022C000C00111242F70280FF801258B72C090E0F7
:1022D000E4E095958795EA95E1F78F9DC00111247B
:1022E0002F70280FF801248B64C074E095958795B2
:1022F0007A95E1F787708F9DC0011124280FF801AE
:10230000238F57C090E064E0959587956A95E1F733
:1023100087708F9DC00111242F70280FF801248F22
:1023200048C054E0959587955A95E1F783708F9D45
:10233000C0011124280FF801258F3BC090E044E034
:10234000959587954A95E1F783708F9DC00111247B
:102350002F70280FF801268F2CC090E034E095955F
:1023600087953A95E1F787708F9DC00111242F70F2
:10237000280FF801278F1DC090E0B4E09595879550
:10238000BA95E1F783708F9DC00111242F70280F3B
:10239000F80120A30EC090E0A4E095958795AA953A
:1023A000E1F783708F9DC00111242F70280FF80171
:1023B00021A3219603C00894C11CD11CAC16BD06F4
:1023C00028F0FAE0CF16D10408F4EBCEDF91CF91DC
:1023D0001F910F91FF90DF90CF90BF90AF90089525
:1023E000AF92BF92CF92DF92EF92FF920F931F9323
:1023F000DF93CF93CDB7DEB7C857D0400FB6F89470
:10240000DEBF0FBECDBF6C016AE00E949D1049E2A5
:10241000A42EB12CAC0CBD1C84E6D5011D928A956E
:10242000E9F7ECECF0E0659174918E010F5F1F4FBE
:10243000C8010E942F21C501B8010E943621F60172
:1024400082A1823009F476C0833030F4882371F0A1
:10245000813009F03CC11AC0843009F4F2C08430E4
:1024600008F4AEC0853009F032C127C1EEECF0E0CF
:1024700065917491C8010E942F21C501B8010E9485
:102480003621ECEDF0E0659174910FC0E0EDF0E0E5
:1024900065917491C8010E942F21C501B8010E9465
:1024A0003621ECEDF0E0659174918E01075D1F4FD0
:1024B000C8010E942F218DB79EB70E970FB6F894D2
:1024C0009EBF0FBE8DBFEDB7FEB7319631E5E32E4F
:1024D000F12CEC0EFD1EADB7BEB71296FC92EE923B
:1024E000119788E290E09383828315830483D60159
:1024F0005E968C915E97868317825D968C915D9730
:10250000808711865C968C915C97828713865B9698
:102510008C91848715860E944821EDB7FEB73E96C0
:102520000FB6F894FEBF0FBEEDBFC501B7010E9404
:102530003621F3C0E2EDF0E065917491C8010E948C
:102540002F21C501B8010E943621EEEDF0E0659122
:1025500074918E01075D1F4FC8010E942F218DB716
:102560009EB70C970FB6F8949EBF0FBE8DBFEDB708
:10257000FEB7319621E5E22EF12CEC0EFD1EADB733
:10258000BEB71296FC92EE92119788E290E0938388
:10259000828315830483D6015D968C915D97868333
:1025A00017825C968C915C97808711865B968C91E4
:1025B000828713860E944821EDB7FEB73C96B0CFC4
:1025C000E4EDF0E065917491C8010E942F21C501EE
:1025D000B8010E943621E0EEF0E0659174918E0121
:1025E000075D1F4FC8010E942F218DB79EB70A9724
:1025F0000FB6F8949EBF0FBE8DBFEDB7FEB73196F4
:1026000091E5E92EF12CEC0EFD1EADB7BEB712968A
:10261000FC92EE92119788E290E093838283158377
:102620000483D6015C968C915C97868317825B96B7
:102630008C91808711860E944821EDB7FEB73A96AB
:102640006FCFE6EDF0E065917491C8010E942F21F3
:10265000C501B8010E943621E2EEF0E06591749167
:102660008E01075D1F4FC8010E942F218DB79EB7B5
:1026700008970FB6F8949EBF0FBE8DBFEDB7FEB79B
:10268000319681E5E82EF12CEC0EFD1EADB7BEB7FC
:102690001296FC92EE92119788E290E093838283E7
:1026A00015830483D6015B968C91868317820E94E2
:1026B0004821EDB7FEB7389633CFE8EDF0E06591ED
:1026C0007491C8010E942F21C501B80130CFEAEDF5
:1026D000F0E0659174918E010F5F1F4FC8010E9459
:1026E0002F2100D000D000D0EDB7FEB73196ADB7A6
:1026F000BEB71296BC92AE92119784E690E0938397
:102700008283158304830E944821EDB7FEB7369675
:102710000FB6F894FEBF0FBEEDBFC501C858DF4F1E
:102720000FB6F894DEBF0FBECDBFCF91DF911F91E2
:102730000F91FF90EF90DF90CF90BF90AF900895F2
:102740000F931F938C0166E00E949D10C8010E94A8
:10275000860E1F910F9108950F931F93CF93DF93D0
:10276000EC01042F68A780E361E00E94680B18A5C4
:10277000112379F0113091F480E361E00E94860B1F
:10278000013019F482E08B8B09C0002339F41B8BD4
:1027900005C080E360E00E94860B1B8A6AE070E05F
:1027A00080E090E00E944E0ADF91CF911F910F913F
:1027B00008950F931F938C0161E040E00E94AC13D9
:1027C000C8010E946410C8010E94670EC8016DE034
:1027D0000E949D108BE261E00E94680B8BE260E03A
:1027E0000E94860B1F910F91089580914E048823BB
:1027F00041F08091D404882321F489ED94E00E9473
:10280000D31E08950F931F938C010E94F513C801E6
:1028100060E040E00E94AC131F910F9108958CB5C9
:102820008F7B8CBD0895882319F48CB5806202C01B
:102830008CB58F7D8CBD08959CB5937F982B9CBDE6
:1028400008959CB5282F23709C7F292B2CBD9DB506
:1028500081709E7F982B9DBD08951092F703109272
:10286000F6031092F8031092F9031092FA031092F3
:10287000FB0308958EE161E00E94680B8FE161E047
:102880000E94680B8DE161E00E94680B8EE160E0C0
:102890000E94860B8FE160E00E94860B8DE161E073
:1028A0000E94860B8CB580618CBD8CB580648CBD1C
:1028B00008951F93162F8DE161E00E94680B82E25C
:1028C00061E00E94680B8DE161E00E94860B82E26C
:1028D00061E00E94860B80919F0A9091A00AA091CE
:1028E000A10AB091A20AA2FF08C088E061E00E949C
:1028F000680B88E061E00E94860B80919F0A9091AE
:10290000A00AA091A10AB091A20A96FF08C089E08E
:1029100061E00E94680B89E061E00E94860B809173
:102920009F0A9091A00AA091A10AB091A20AA3FFC8
:1029300008C082E061E00E94680B82E061E00E94D2
:10294000860B80919F0A9091A00AA091A10AB09154
:10295000A20AA4FF08C082E261E00E94680B82E242
:1029600061E00E94860B1330C9F0143028F4113056
:1029700069F0123068F408C0153041F11530D0F01C
:10298000163009F062C02FC08DE12BC082E229C051
:1029900081E094E00E9450158CE223C080919F0A50
:1029A0009091A00AA091A10AB091A20AA2FF4DC0E5
:1029B00088E017C080919F0A9091A00AA091A10A77
:1029C000B091A20A96FF41C089E00BC080919F0A96
:1029D0009091A00AA091A10AB091A20AA3FF35C0CC
:1029E00082E060E030C08DE161E00E94860B82E20F
:1029F00061E00E94860B80919F0A9091A00AA091AD
:102A0000A10AB091A20AA2FF04C088E061E00E947E
:102A1000860B80919F0A9091A00AA091A10AB09183
:102A2000A20A96FF04C089E061E00E94860B8091B3
:102A30009F0A9091A00AA091A10AB091A20AA3FFB7
:102A400004C082E061E00E94860B1F9108951092FD
:102A5000FC03089508958FED90E00E94C6238F3FF8
:102A600009F480E00895CB010E94C623089587E110
:102A700061E00E94680B84E261E00E94680B85E2DD
:102A800061E00E94680B87E161E00E94860B84E2AE
:102A900061E00E94860B85E260E00E94860B08954B
:102AA00087E161E00E94680B84E261E00E94680BAC
:102AB00085E261E00E94680B87E161E00E94860B7D
:102AC00084E261E00E94860B85E261E00E94860B51
:102AD00008950F931F93162F042F862F61E00E94F5
:102AE000680B013019F4812F61E004C0002321F448
:102AF000812F60E00E94860B1F910F9108952F9205
:102B00003F924F925F926F927F928F929F92AF927D
:102B1000BF92CF92DF92EF92FF920F931F93DF93BA
:102B2000CF93CDB7DEB7C75FD0400FB6F894DEBF06
:102B30000FBECDBF2DB63EB68DB79EB708970FB668
:102B4000F8949EBF0FBE8DBFADB6BEB60894A11C53
:102B5000B11C7501CC24DD244E010894811C911C0C
:102B6000CE0180599F4FAEEF4A2EAFEF5A2E480E3E
:102B7000591EF0E16F2E712C680E791EDE01A052F5
:102B8000BF4FC051DF4FB983A883C05FD040FE0163
:102B90003E96CE50DF4FF983E883C25FD040C40138
:102BA0006DE00E94C41D81E094E06CE040E00E9472
:102BB000691581E094E06DE040E00E946915D7015D
:102BC0001D921D921D921C9213978CE061E00E9451
:102BD000680B8CE061E00E94860BC4010E94FC1D22
:102BE00081E094E06DE041E00E9469156AE070E0E8
:102BF00080E090E00E944E0AC40163E340E00E943E
:102C0000841D62E370E080E090E00E944E0A8E0135
:102C100002511F4FC4010E941C1DF80180831182C4
:102C200061E070E080E090E00E944E0A02501040A7
:102C30000415150579F7F301DE0150968191919104
:102C40008D939D93C051DF4F88819981C05FD040A3
:102C5000E817F90799F7BE0162597F4F21E030E08C
:102C600040E050E0DB018D919C91019779F4D70110
:102C70008D919D910D90BC91A02D820F931FA41F4B
:102C8000B51FF70180839183A283B38362507040A4
:102C9000CE50DF4F88819981C25FD0406817790795
:102CA00029F0220F331F441F551FDCCFF70180810D
:102CB0009181A281B3818F5F9F4FAF4FBF4F31F49E
:102CC000D7011D921D921D921C9213978CE060E01B
:102CD0000E94860B81E094E06CE040E00E94691560
:102CE00081E094E06DE040E00E9469150894C11C09
:102CF000D11CE4E0F0E0EE0EFF1EF2E0CF16D104AE
:102D000009F04DCFD5012D913D914D915C911397D7
:102D100014968D919D910D90BC91A02D2817390787
:102D20004A075B0721F020E030E040E050E0B901C5
:102D3000CA010FB6F8943EBE0FBE2DBEC950DF4F7C
:102D40000FB6F894DEBF0FBECDBFCF91DF911F91BC
:102D50000F91FF90EF90DF90CF90BF90AF909F903A
:102D60008F907F906F905F904F903F902F9008953D
:102D7000EF92FF920F931F930E947F157B018C01AE
:102D80006115710581059105B1F483EE90E00E9413
:102D9000CE236A302AE072072AE082072AE09207EF
:102DA00051F06F3F2FEF72072FEF82072FEF92073F
:102DB00011F07B018C01B701C8011F910F91FF90A9
:102DC000EF90089581E0809347046093240410926B
:102DD00045041092460408958091230490912204A2
:102DE000891B08959091220480912304981710F074
:102DF00080E00895E92FF0E0EE5FFB4F80819F5F58
:102E000090932204089510924F0410924804109257
:102E100049048AEF90E0A0E0B0E080934A049093E8
:102E20004B04A0934C04B0934D040895CF93DF93CB
:102E3000EC0180919F0A9091A00AA091A10AB09103
:102E4000A20A84FD3CC080919F0A9091A00AA091A3
:102E5000A10AB091A20A85FD32C080919F0A90918B
:102E6000A00AA091A10AB091A20A86FD28C0809173
:102E70009F0A9091A00AA091A10AB091A20A87FD91
:102E80001EC080919F0A9091A00AA091A10AB091C2
:102E9000A20A90FD14C080919F0A9091A00AA0916F
:102EA000A10AB091A20A91FD0AC080919F0A909157
:102EB000A00AA091A10AB091A20A93FF1DC080911F
:102EC0004F04882339F489ED94E060E041E00E94EA
:102ED000771E0CC08981882331F489ED94E060E08D
:102EE00041E00E94771E8881882331F489ED94E0C7
:102EF00061E041E00E94771EDF91CF910895FC01CF
:102F000080919F0A9091A00AA091A10AB091A20A73
:102F100081709070A070B070808380919F0A9091B2
:102F2000A00AA091A10AB091A20AB695A79597957B
:102F300087958170818380919F0A9091A00AA091CA
:102F4000A10AB091A20A84FD3CC080919F0A909191
:102F5000A00AA091A10AB091A20A85FD32C0809179
:102F60009F0A9091A00AA091A10AB091A20A86FDA1
:102F700028C080919F0A9091A00AA091A10AB091C7
:102F8000A20A87FD1EC080919F0A9091A00AA0917D
:102F9000A10AB091A20A90FD14C080919F0A90915D
:102FA000A00AA091A10AB091A20A91FD0AC0809145
:102FB0009F0A9091A00AA091A10AB091A20A93FF42
:102FC00010C080914F04882361F489ED94E060E0A3
:102FD00040E00E94771E89ED94E061E040E00E94AD
:102FE000771E08950F931F938C010E94AF18F8016C
:102FF00016821F910F910895DF93CF930F92CDB753
:10300000DEB7698380914704882389F08091460464
:103010008032D0F480914504E82FF0E0EB5DFB4F67
:1030200060838F5F80934504809346040DC088E4DD
:1030300094E00E947F17CE01019661E00E949418EF
:1030400088E494E00E9416170F90CF91DF910895C5
:103050000E94FC170895FF920F931F9308E414E059
:10306000C8010E947F178091240465E274E04091BA
:10307000460421E00E94D41AF82E109245041092C2
:10308000460410924704C8010E9416178F2D1F9105
:103090000F91FF900895FF920F931F93F62E142F18
:1030A00088E494E00E947F17012F113208F000E2BB
:1030B0008F2D62E074E0402F0E94391B182F109270
:1030C00022040093230488E494E00E941617812FC1
:1030D0001F910F91FF9008950E944B1808950F9330
:1030E0001F938C0180E2E2E0F4E0DF01982F1D9253
:1030F0009A95E9F71092220410922304E5E2F4E095
:10310000DF011D928A95E9F710924504109246045A
:103110000E94061981E0F801868384E090E00E9415
:10312000780A1F910F910895482F613210F081E0C5
:10313000089580915004843011F082E008956093E6
:103140009904A8E7B4E0842F9C01F90102C08191A1
:103150008D938E2F841B8617D0F380E008955898A6
:1031600059988091B90081608093B9008091B9002D
:1031700082608093B9008091BC0080688093BC001D
:103180008091BC0080618093BC008091BC008F7BEB
:103190008093BC008091BC008F7D8093BC008091A7
:1031A000BC00877F8093BC0080919F0A9091A00A09
:1031B000A091A10AB091A20A86FD14C080919F0A35
:1031C0009091A00AA091A10AB091A20A90FD0AC014
:1031D00080919F0A9091A00AA091A10AB091A20AA1
:1031E00093FF04C08091BC008B7F03C08091BC0022
:1031F00084608093BC008091BC008E7F8093BC0073
:103200008091640080688093640008951092500457
:10321000E4E6F0E080818F778083589A599AE9EB51
:10322000F0E080818E7F808380818D7F808381E448
:103230008093B80085E48093BC0080E2E6E5F4E08A
:10324000DF01982F1D929A95E9F7E8E7F4E0DF0196
:10325000982F1D929A95E9F7EAE9F4E0DF011D92B3
:103260008A95E9F70895882349F01092BC041092DA
:10327000BD041092BE041092BF0413C08091BC0420
:103280009091BD04A091BE04B091BF040196A11D10
:10329000B11D8093BC049093BD04A093BE04B09371
:1032A000BF048091BC049091BD04A091BE04B09174
:1032B000BF04805A9648A140B04010F480E00895C1
:1032C0001092BC041092BD041092BE041092BF0470
:1032D0000E94061981E0089585ED8093BC0081E08D
:1032E0000E94331905C080E00E943319882321F41D
:1032F0008091BC0084FDF7CF1092500408951F9276
:103300000F920FB60F920BB60F9211242F933F938B
:103310004F935F936F937F938F939F93AF93BF93DD
:10332000EF93FF938091B90090E0887F9070803692
:10333000910509F4C3C081369105CCF58832910519
:1033400009F47BC089329105B4F48031910509F408
:103350006FC0813191053CF4009709F40EC10897C4
:1033600009F00FC165C08831910509F466C08097E6
:1033700009F007C177C08034910509F48DC081340C
:10338000910544F48033910509F472C0C89709F09F
:10339000F8C072C08035910509F472C08835910576
:1033A00009F47FC08834910509F0EBC0E8C0883982
:1033B000910509F4D8C089399105ECF48837910555
:1033C00009F47CC0893791054CF48836910509F4DD
:1033D00075C08037910509F0D4C070C08838910558
:1033E00009F4C1C08039910509F46EC08038910597
:1033F00009F0C7C069C0803B910509F48CC0813BCE
:1034000091054CF4803A910509F470C0883A910511
:1034100009F0B7C080C0803C910509F4A8C0883C81
:10342000910509F4A4C0883B910509F0AAC088C0A1
:10343000809151048093BB0013C0909176048091D9
:103440007704981708F09BC090917604E92FF0E07C
:10345000EA5AFB4F80818093BB009F5F9093760474
:1034600085EC82C00E946C1980E28093BB0489C005
:1034700080E38093BB0483C088E38093BB0477C060
:10348000809176049091BB00E82FF0E0EA5AFB4F60
:1034900090838F5F80937604909176048091770477
:1034A0005FC0809176049091BB00E82FF0E0EA5A6B
:1034B000FB4F90838F5F8093760461C083E080939D
:1034C00050041092BA04CCCF8091BA04803208F034
:1034D0004AC08091BA049091BB00E82FF0E0E65614
:1034E000FB4F90838F5F8093BA04BACF8091BA0468
:1034F000803230F4E091BA04F0E0E656FB4F1082DF
:103500006091BA04E0915404F09155048AE994E082
:1035100070E009952CC084E08093500410929804C8
:1035200010929904E0915204F0915304099580910E
:103530009904882329F481E08093990410927804F7
:1035400090919804E92FF0E0E858FB4F8081809338
:10355000BB009F5F90939804909198048091990488
:10356000981708F47DCF85E88093BC000AC085ECED
:103570008093BC001092500404C01092BB040E94BF
:103580006C19FF91EF91BF91AF919F918F917F91B6
:103590006F915F914F913F912F910F900BBE0F90C4
:1035A0000FBE0F901F901895DF92EF92FF920F932E
:1035B0001F93E82E062FF72E142FD22E413210F033
:1035C00081E051C081E00E94331905C080E00E9473
:1035D0003319882321F4809150048823B9F782E0BD
:1035E000809350048FEF8093BB0410927604109365
:1035F0007704A6E5B4E0202F3F2DC901FC0102C0ED
:1036000081918D938E2F801B8117D0F38E2D90E0AA
:10361000880F991F8093510485EE8093BC0081E050
:103620000E943319DD2041F40BC080E00E94331961
:10363000882311F085E017C0809150048230A9F3EF
:103640008091BB048F3F11F480E00DC08091BB04DA
:10365000803211F482E007C08091BB04803311F006
:1036600084E001C083E01F910F91FF90EF90DF9005
:1036700008950F931F93CF93DF93182FEB01042F1F
:10368000413210F081E03CC081E00E94331905C056
:1036900080E00E943319882321F48091500488230C
:1036A000B9F781E0809350048FEF8093BB041092B0
:1036B000760400937704110F11601093510485EE86
:1036C0008093BC0081E00E94331908C080E00E9412
:1036D0003319882319F020E030E00FC080915004A6
:1036E0008130A1F3F8CFFE01E20FF31FD901AA5AEE
:1036F000BB4F8C9180832F5F3F4F2017A0F380E05A
:10370000DF91CF911F910F9108951F920F920FB6E5
:103710000F920BB60F9211242F933F934F935F9309
:103720006F937F938F939F93AF93BF93EF93FF9389
:103730008091C0049091C104892B29F0E091C004CC
:10374000F091C1040995FF91EF91BF91AF919F91C5
:103750008F917F916F915F914F913F912F910F903A
:103760000BBE0F900FBE0F901F9018951F920F92D7
:103770000FB60F920BB60F9211242F933F934F93D6
:103780005F936F937F938F939F93AF93BF93EF93C9
:10379000FF938091C2049091C304892B29F0E0919A
:1037A000C204F091C3040995FF91EF91BF91AF91CD
:1037B0009F918F917F916F915F914F913F912F9149
:1037C0000F900BBE0F900FBE0F901F9018951F9279
:1037D0000F920FB60F920BB60F9211242F933F93B7
:1037E0004F935F936F937F938F939F93AF93BF9309
:1037F000EF93FF938091C4049091C504892B29F025
:10380000E091C404F091C5040995FF91EF91BF9137
:10381000AF919F918F917F916F915F914F913F9168
:103820002F910F900BBE0F900FBE0F901F90189509
:103830001F920F920FB60F920BB60F9211242F9377
:103840003F934F935F936F937F938F939F93AF9328
:10385000BF93EF93FF938091C6049091C704892B87
:1038600029F0E091C604F091C7040995FF91EF910A
:10387000BF91AF919F918F917F916F915F914F9188
:103880003F912F910F900BBE0F900FBE0F901F9086
:1038900018951F920F920FB60F920BB60F9211242C
:1038A0002F933F934F935F936F937F938F939F9348
:1038B000AF93BF93EF93FF938091C8049091C90495
:1038C000892B29F0E091C804F091C9040995FF9172
:1038D000EF91BF91AF919F918F917F916F915F9188
:1038E0004F913F912F910F900BBE0F900FBE0F90F5
:1038F0001F9018951F920F920FB60F920BB60F9252
:1039000011242F933F934F935F936F937F938F93E4
:103910009F93AF93BF93EF93FF938091CA049091CD
:10392000CB04892B29F0E091CA04F091CB040995CE
:10393000FF91EF91BF91AF919F918F917F916F9187
:103940005F914F913F912F910F900BBE0F900FBE43
:103950000F901F9018951F920F920FB60F920BB6F3
:103960000F9211242F933F934F935F936F937F9305
:103970008F939F93AF93BF93EF93FF938091CC046A
:103980009091CD04892B29F0E091CC04F091CD04E5
:103990000995FF91EF91BF91AF919F918F917F9189
:1039A0006F915F914F913F912F910F900BBE0F90B0
:1039B0000FBE0F901F9018951F920F920FB60F9287
:1039C0000BB60F9211242F933F934F935F936F93F6
:1039D0007F938F939F93AF93BF93EF93FF938091C8
:1039E000CE049091CF04892B29F0E091CE04F09180
:1039F000CF040995FF91EF91BF91AF919F918F9166
:103A00007F916F915F914F913F912F910F900BBEDE
:103A10000F900FBE0F901F9018951092D50482E062
:103A20008093D1048CE18093D60480EC91E0909354
:103A3000D8048093D7040895DF92EF92FF920F93FA
:103A40001F93FC01E08001811281F894F8018181CB
:103A50008E2981838281DE2CD0948D21828382E025
:103A600090E00E94780AF80181818D21818387E0AE
:103A700090E00E94780AF801008178948DE290E04D
:103A80000E94780A80E010E0FF240E211F21012B04
:103A900009F081E01F910F91FF90EF90DF90089562
:103AA0001F93CF93DF93FC011081C181D281912FAD
:103AB000909560FF12C0F8948A8189238A83898156
:103AC000812B898389E090E00E94780A8A81812B8A
:103AD0008A8378948FE290E011C0F8948A818923D8
:103AE0008A838981812B898387E390E00E94780A09
:103AF0008A81812B8A83789485E090E00E94780AFD
:103B0000DF91CF911F910895CF92DF92EF92FF92B4
:103B10000F931F93CF93DF938C01E42EFF24F39434
:103B2000C0E0D0E0C62EDD2460E08F2D90E08C2137
:103B30009D21892B09F061E0C8010E94501DFF0CF6
:103B40002196C830D10581F7EE20A9F4F894D80168
:103B50001196ED91FC91129791818C91809598230B
:103B600091831196ED91FC91129792818C918095A1
:103B7000982392837894DF91CF911F910F91FF90BA
:103B8000EF90DF90CF9008950F931F938C01862FB5
:103B9000D8011E966C9360E00E94680BD8011E96B7
:103BA000EC911E978E2F90E0FC01EB5AFC4FE491B4
:103BB000EC938E5D9C4FFC018491E82FF0E0E65E73
:103BC000FC4FE4911196EC93119712961C92129768
:103BD0001B961C921B971D961C921D971C961C925F
:103BE000F80187E090E012863197009711F0019775
:103BF000FACF1F910F910895CF92DF92EF92FF922B
:103C00000F931F93CF93DF93EC018E8560E00E94AA
:103C1000680B0E94B8097B018C018DE7D82EDA94DD
:103C20002FEFD21609F441C082E090E00E94780A9A
:103C30000E94B8096E157F058007910720F40E9445
:103C4000B8097B018C018E850E94D10B892BB9F5B7
:103C50000E94B8096E197F09800B910B645F714057
:103C60008040904060F5DBCF0E94B8097B018C0159
:103C7000CD28D1F10E94B8096E197F09800B910BF4
:103C8000645F71408040904080F48E850E94D10B2B
:103C90006C0189E090E00E94780A0E94B8096E15D4
:103CA0007F058007910720F7DFCF80E0DF91CF917C
:103CB0001F910F91FF90EF90DF90CF9008958E8528
:103CC00061E00E94680B8E8560E00E94860B84E5AF
:103CD00091E00E94780A0E94B8097B018C018E85D0
:103CE0000E94D10B892B31F681E0E0CF08950F932C
:103CF0001F93062F142F8AE161E00E94680B88E170
:103D000061E00E94680B002321F0013009F048C0F7
:103D100020C0112371F48AE161E00E94860B80913A
:103D20009F0A9091A00AA091A10AB091A20A826074
:103D30002FC01130A9F58AE160E00E94860B8091C6
:103D40009F0A9091A00AA091A10AB091A20A8D7F2A
:103D50001FC0112371F488E161E00E94860B8091FD
:103D60009F0A9091A00AA091A10AB091A20A816035
:103D70000FC01130A9F488E160E00E94860B8091A9
:103D80009F0A9091A00AA091A10AB091A20A8E7FE9
:103D900080939F0A9093A00AA093A10AB093A20ACD
:103DA0001F910F91089589E261E00E94680B88E2FB
:103DB00061E00E94680B88E494E00E94F217089585
:103DC0001092ED041092F4041092F60489E18093AD
:103DD000790610927C0610927D0610927F06109252
:103DE000730610927206089598D088F09F5790F04D
:103DF000B92F9927B751A0F0D1F0660F771F881F10
:103E0000991F1AF0BA95C9F712C0B13081F09FD04E
:103E1000B1E008959CC0672F782F8827B85F39F0EC
:103E2000B93FCCF3869577956795B395D9F73EF46E
:103E300090958095709561957F4F8F4F9F4F089516
:103E4000E89409C097FB3EF4909580957095619534
:103E50007F4F8F4F9F4F9923A9F0F92F96E9BB27EA
:103E60009395F695879577956795B795F111F8CF66
:103E7000FAF4BB0F11F460FF1BC06F5F7F4F8F4FD1
:103E80009F4F16C0882311F096E911C0772321F0C7
:103E90009EE8872F762F05C0662371F096E8862F5F
:103EA00070E060E02AF09A95660F771F881FDAF7B6
:103EB000880F9695879597F9089597F99F6780E8F9
:103EC00070E060E008959FEF80EC089500240A946C
:103ED0001616170618060906089500240A941216E5
:103EE0001306140605060895092E0394000C11F418
:103EF000882352F0BB0F40F4BF2B11F460FF04C0C5
:103F00006F5F7F4F8F4F9F4F089557FD9058440F1D
:103F1000551F59F05F3F71F04795880F97FB991F28
:103F200061F09F3F79F087950895121613061406E5
:103F3000551FF2CF4695F1DF08C016161706180672
:103F4000991FF1CF86957105610508940895E8944D
:103F5000BB2766277727CB0197F908950BD0C4CFED
:103F6000B5DF28F0BADF18F0952309F0A6CFABCF64
:103F70001124EECFCADFA0F3959FD1F3950F50E047
:103F8000551F629FF001729FBB27F00DB11D639F0B
:103F9000AA27F00DB11DAA1F649F6627B00DA11DB1
:103FA000661F829F2227B00DA11D621F739FB00D57
:103FB000A11D621F839FA00D611D221F749F3327C7
:103FC000A00D611D231F849F600D211D822F762F60
:103FD0006A2F11249F5750408AF0E1F088234AF05D
:103FE000EE0FFF1FBB1F661F771F881F91505040A9
:103FF000A9F79E3F510570F060CFAACF5F3FECF369
:10400000983EDCF3869577956795B795F795E79594
:104010009F5FC1F7FE2B880F911D9695879597F9A5
:104020000895629FD001739FF001829FE00DF11D02
:10403000649FE00DF11D929FF00D839FF00D749F22
:10404000F00D659FF00D9927729FB00DE11DF91FCE
:10405000639FB00DE11DF91FBD01CF01112408952B
:10406000AA1BBB1B51E107C0AA1FBB1FA617B7079E
:1040700010F0A61BB70B881F991F5A95A9F78095BA
:104080009095BC01CD01089597FB092E07260AD013
:1040900077FD04D0E5DF06D000201AF47095619515
:1040A0007F4F0895F6F7909581959F4F0895A1E26F
:1040B0001A2EAA1BBB1BFD010DC0AA1FBB1FEE1FA2
:1040C000FF1FA217B307E407F50720F0A21BB30BED
:1040D000E40BF50B661F771F881F991F1A9469F769
:1040E00060957095809590959B01AC01BD01CF01C5
:1040F000089597FB092E05260ED057FD04D0D7DF73
:104100000AD0001C38F450954095309521953F4FCA
:104110004F4F5F4F0895F6F7909580957095619594
:104120007F4F8F4F9F4F08952F923F924F925F92F4
:104130006F927F928F929F92AF92BF92CF92DF92B7
:10414000EF92FF920F931F93CF93DF93CDB7DEB71C
:10415000CA1BDB0B0FB6F894DEBF0FBECDBF0994B0
:104160002A88398848885F846E847D848C849B8407
:10417000AA84B984C884DF80EE80FD800C811B8115
:10418000AA81B981CE0FD11D0FB6F894DEBF0FBE44
:10419000CDBFED010895EE0FFF1F0590F491E02DC6
:1041A0000994AF92BF92CF92DF92EF92FF920F935A
:1041B0001F93CF93DF93EC01688179818A819B8182
:1041C000611571058105910521F464E279ED8BE5B6
:1041D00097E02DE133EF41E050E00E947920790132
:1041E0008A0127EA31E440E050E00E9411205B019F
:1041F0006C01C801B7012CEE34EF4FEF5FEF0E9466
:1042000011206A0D7B1D8C1D9D1D97FF04C0615000
:10421000704080409048688379838A839B837F774E
:10422000CB01DF91CF911F910F91FF90EF90DF9025
:10423000CF90BF90AF9008950E94D120089581E55E
:1042400093E00E94D1200895A0E0B0E08093510354
:1042500090935203A0935303B09354030895FB012A
:10426000DC0105900D920020E1F70895FB01DC01CF
:104270000D900020E9F7119701900D920020E1F7D1
:104280000895FB01DC0101900D920020E1F70895F3
:104290000F931F93DF93CF93CDB7DEB72E970FB653
:1042A000F894DEBF0FBECDBF0D891E898F89988D12
:1042B00026E02C831A83098397FF02C080E090E8F0
:1042C00001979E838D839E01255E3F4FCE0101960F
:1042D000698D7A8DA9010E94B6214D815E8157FDBD
:1042E0000AC02F813885421753070CF49A01020F38
:1042F000131FF80110822E960FB6F894DEBF0FBE82
:10430000CDBFCF91DF911F910F9108950F931F9310
:10431000DF93CF93CDB7DEB72E970FB6F894DEBFFD
:104320000FBECDBF0D891E8986E08C831A83098359
:104330008FEF9FE79E838D839E01275E3F4FCE01C7
:1043400001966F89788DA9010E94B621EF81F885C9
:10435000E00FF11F10822E960FB6F894DEBF0FBE4D
:10436000CDBFCF91DF911F910F9108952F923F9272
:104370004F925F926F927F928F929F92AF92BF9275
:10438000CF92DF92EF92FF920F931F93DF93CF9321
:10439000CDB7DEB72C970FB6F894DEBF0FBECDBFFA
:1043A0006C011B018A01FC0117821682838181FF47
:1043B000D1C12E010894411C511CF6019381F101D9
:1043C00093FD859193FF81911F01882309F4BEC15C
:1043D000853239F493FD859193FF81911F018532D8
:1043E00029F490E0B6010E94F823E7CFEE24FF24E1
:1043F00020E02032B0F48B3269F08C3228F4803225
:1044000051F0833271F40BC08D3239F0803349F4AE
:1044100021602CC02260246029C0286027C0206150
:1044200025C027FD2CC0382F30533A3098F426FF92
:1044300008C08E2D880FE82EEE0CEE0CE80EE30E71
:1044400015C08F2D880FF82EFF0CFF0CF80EF30E01
:1044500020620CC08E3221F426FD78C1206406C093
:104460008C3611F4206802C0883649F4F10193FDBE
:10447000859193FF81911F01882309F0BACF982F6E
:104480009554933018F09052933028F40C5F1F4FDE
:10449000FFE3F9830DC0833631F0833771F0833544
:1044A00009F060C022C0F801808189830E5F1F4F30
:1044B000420171E0A72EB12C16C062E0662E712C6D
:1044C000600E711EF8018080918026FF03C06E2D62
:1044D00070E002C06FEF7FEFC4012C870E94ED23D4
:1044E0005C0183012C852F7717C052E0652E712C5B
:1044F000600E711EF8018080918026FF03C06E2D32
:1045000070E002C06FEF7FEFC4012C870E94E223AE
:104510005C012C852068830123FD20C008C080E257
:1045200090E0B6012C870E94F823FA942C858F2DF9
:1045300090E0A816B90698F311C0F40127FD859103
:1045400027FF81914F0190E0B6012C870E94F8234C
:104550002C85F110FA940894A108B108A114B104B3
:1045600061F7F1C0843611F0893649F527FF08C09C
:10457000F80160817181828193810C5F1F4F09C0B6
:10458000F80160817181882777FD8095982F0E5FF3
:104590001F4F4FE6B42EB22297FF09C09095809529
:1045A000709561957F4F8F4F9F4FF0E8BF2AA20112
:1045B0002AE030E00E942424782E741845C0853704
:1045C00031F43FEEB32EB2222AE030E025C099EF5D
:1045D000B92EB2228F36C1F0803720F4883509F029
:1045E000B5C00DC0803721F0883709F0AFC002C0D8
:1045F00020E1B22AB4FE0BC084E0B82A08C0B4FEA1
:1046000009C0E6E0BE2A06C028E030E005C020E18F
:1046100030E002C020E132E0B7FE08C0F80160815E
:104620007181828193810C5F1F4F07C0F801608107
:10463000718180E090E00E5F1F4FA2010E94242450
:10464000782E7418FFE7BF22B6FE0BC02EEFB22201
:104650007E1438F4B4FE07C0B2FC05C08FEEB82259
:1046600002C0A72C01C0AE2C8B2D90E0B4FE0DC073
:10467000FE01E70DF11D2081203319F4E9EEBE2281
:1046800009C0A394B2FE06C004C08678907000975B
:1046900009F0A3948B2C9924B3FC14C0B0FE0FC076
:1046A000AF1428F4E72CEF0CEA18AF2C08C0E72C65
:1046B00006C080E290E0B6010E94F823A394AF14F4
:1046C000C0F304C0AF1410F4FA1801C0FF2484FE34
:1046D0000FC080E390E0B6010E94F82382FE1FC065
:1046E00081FE03C088E590E010C088E790E00DC02F
:1046F000C40186789070009791F081FC02C080E23E
:1047000001C08BE2B7FC8DE290E0B6010E94F82375
:1047100006C080E390E0B6010E94F823EA947E147C
:10472000C0F37A94F201E70DF11D808190E0B601AB
:104730000E94F8237720A9F706C080E290E0B60136
:104740000E94F823FA94FF20C1F737CEF6012681A4
:10475000378102C02FEF3FEFC9012C960FB6F894B6
:10476000DEBF0FBECDBFCF91DF911F910F91FF90A4
:10477000EF90DF90CF90BF90AF909F908F907F9001
:104780006F905F904F903F902F900895F999FECFD2
:1047900092BD81BDF89A992780B50895A6E1B0E051
:1047A00044E050E00C948424262FF999FECF1FBAE0
:1047B00092BD81BD20BD0FB6F894FA9AF99A0FBE4A
:1047C00001960895FC010590615070400110D8F7E2
:1047D000809590958E0F9F1F0895FC016150704049
:1047E00001900110D8F7809590958E0F9F1F089526
:1047F0000F931F93CF93DF938C01EB018B8181FF8C
:104800001BC082FF0DC02E813F818C819D812817A6
:10481000390764F4E881F9810193F983E88306C0DC
:10482000E885F985802F0995009731F48E819F8165
:1048300001969F838E8302C00FEF1FEFC801DF91A7
:10484000CF911F910F910895FA01AA27283051F1B5
:10485000203181F1E8946F936E7F6E5F7F4F8F4FB1
:104860009F4FAF4FB1E03ED0B4E03CD0670F781F10
:10487000891F9A1FA11D680F791F8A1F911DA11DF5
:104880006A0F711D811D911DA11D20D009F468942E
:104890003F912AE0269F11243019305D3193DEF6D6
:1048A000CF010895462F4770405D4193B3E00FD08C
:1048B000C9F7F6CF462F4F70405D4A3318F0495D77
:1048C00031FD4052419302D0A9F7EACFB4E0A6955A
:1048D0009795879577956795BA95C9F7009761057C
:1048E000710508959B01AC010A2E069457954795D2
:1048F00037952795BA95C9F7620F731F841F951FC7
:10490000A01D0895DC01CB01FC01F999FECF06C082
:10491000F2BDE1BDF89A319600B40D92415050407D
:08492000B8F70895F894FFCFE9
:10492800256400474554202F746573742E70687091
:104938003F6F627661723D00200A0A00496E766117
:104948006C696420474D542076616C756500537519
:104958006E004D6F6E0054756500576564005468AD
:10496800750046726900536174003A3A3A3A3A3A25
:104978000000010202030303030404040404040402
:1049880004050505050505050505050505050505D0
:1049980005060606060606060606060606060606B0
:1049A800060606060606060606060606060606069F
:1049B8000607070707070707070707070707070780
:1049C800070707070707070707070707070707076F
:1049D800070707070707070707070707070707075F
:1049E800070707070707070707070707070707074F
:1049F8000708080808080808080808080808080830
:104A0800080808080808080808080808080808081E
:104A1800080808080808080808080808080808080E
:104A280008080808080808080808080808080808FE
:104A380008080808080808080808080808080808EE
:104A480008080808080808080808080808080808DE
:104A580008080808080808080808080808080808CE
:104A680008080808080808080808080808080808BE
:064A78000801000000012E
:00000001FF
