:100000000C943D030C94D72A0C94082B0C94392B98
:100010000C946A2B0C949B2B0C94CC2B0C94FD2BE6
:100020000C942E2C0C9465030C9465030C946503BE
:100030000C94CF190C9465030C9465030C9431183F
:100040000C9465030C9465030C9465030C94650390
:100050000C9465030C9465030C9465030C940C18C4
:100060000C9465030C942E1B0C9465030C9465038F
:100070000C9465030C9465030C9465030C94650360
:100080000C9465030C9465030C9465030C94650350
:100090000C946F1B0C9465030C9465030C9406166A
:1000A0000C9465030C9465030C9465030C94650330
:1000B0000C9465030C9465030C9465030C94650320
:1000C0000C9465030C9465030C9465034465766990
:1000D0006365206E6F7420666F756E643A20004E03
:1000E0004F5420436F6E6E656374656400466169AA
:1000F0006C6564207375627363726962696E672EE2
:1001000000446973636F6E6E65637465642E2E00C0
:10011000446973636F6E6E65637465642E00646911
:1001200073636F6E6E656374206661696C2E206602
:100130006C6167203D20004E6F746966696361746D
:10014000696F6E2072656365697665642E0057611C
:100150006974696E67206576656E74732E2E2E0045
:1001600044657669636520666F756E642E20436F03
:100170006E6E656374696E672E2E2E20004669725E
:100180007374207363616E20666F72206465766994
:10019000636500424C455F3130204578616D706C7D
:1001A0006500DA01E301F10116022A0237024B026F
:1001B0005F02C602FA0212031D032E033F0352031D
:1001C0005F03424C45206D6F64756C65206E6F74E3
:1001D0002064657465637465640030303030303796
:1001E0003043005363616E20706172616D733A2019
:1001F000003125303278253032782530327825307C
:10020000327825303278253032783B2025643B2007
:1002100025753B0D0A00443A257825782578257800
:10022000257825783B2025642C003B20496E6465A9
:10023000783D25750D0A0053746F70206661696CF6
:100240002E206572723A2025780A005363616E2071
:100250006661696C2E206572723A2025780A005317
:1002600063616E20706172616D733A204741502066
:100270006D6F64653D25753B207363616E5F696ECC
:1002800074657276616C3D25753A207363616E5FAB
:1002900077696E646F773D25753B207363616E5F90
:1002A0006475706C69636174655F66696C746572AE
:1002B000696E673D25753B205458506F7765723DD8
:1002C00025753B0D0A004465766963652025753BFD
:1002D000202530327825303278253032782530327A
:1002E0007825303278253032783B20525353493AC2
:1002F00025643B204E616D653A006572726F722015
:1003000077726974696E672E206572723A2025785B
:100310000A00092065633A2025780D0A004144430C
:1003200076616C28484558293A25780D0A004144E1
:100330004376616C28444543293A25640D0A0041FF
:10034000444356616C6D5628444543293A25730D44
:100350000A00546128444543293A25730D0A004197
:10036000747472696275746520257520496E6469BC
:100370006361746564210D0A00F00304042A0451CA
:1003800004710489049704A704BC04D204E304EFB5
:1003900004F6041305310547055505650588058EE6
:1003A0000557726F6E672074696D6520666F726D98
:1003B00061742E204D757374206265202264643A46
:1003C00068683A6D6D220057726F6E672074696DB0
:1003D0006520666F726D61742E204D757374206296
:1003E00065202264643A68683A6D6D3A737322003E
:1003F000416C61726D204D6F6465206D617463683E
:10040000657320005B446179203A20686F757273D0
:10041000203A206D696E75746573203A20736563A8
:100420006F6E64735D202D3E20005B446174652017
:100430003A20686F757273203A206D696E75746525
:1004400073203A207365636F6E64735D202D3E20C8
:10045000005B486F757273203A206D696E75746524
:1004600073203A207365636F6E64735D202D3E20A8
:10047000005B4D696E75746573203A207365636F18
:100480006E64735D202D3E20005B5365636F6E6468
:10049000735D202D3E20004F6E63652070657220D5
:1004A0007365636F6E6400496E636F727265637427
:1004B00020616C61726D206D6F6465005B25303268
:1004C000753A253032753A253032753A2530327515
:1004D0005D005B253032753A253032753A25303271
:1004E000755D005B253032753A253032755D005BF5
:1004F000253032755D005B446179203A20686F7564
:100500007273203A206D696E75746573205D202DBD
:100510003E20005B44617465203A20686F757273F9
:10052000203A206D696E75746573205D202D3E2024
:10053000005B486F757273203A206D696E75746543
:10054000735D202D3E20005B4D696E757465735D93
:10055000202D3E20004F6E636520706572206D690E
:100560006E7574650025732C20253032752F25306B
:1005700032752F253032752C20253032753A2530D2
:1005800032753A25303275006572726F720025300F
:100590003275256325303275256325303275256324
:1005A0002530327525632530327525632530327547
:1005B00025632530327500002124272A2D30330091
:1005C0002225282B2E313400202326292C2F3205DA
:1005D00005050503030303010101040403060606E0
:1005E00006060606060104050105010302020202D1
:1005F00002020102020505040403040401030407C6
:100600000707010208101020408004081020400253
:1006100002040810204080010280204004200101D3
:100620000204081020014080408001020804088074
:10063000041004020100000809000000000000008E
:1006400000000000000000000000000000000000AA
:10065000000000000000000000000000000000009A
:100660000000000000000000C10CB81E64245E25DC
:100670003A2746295F2CC82D322E11241FBECFEFFA
:10068000D1E2DEBFCDBF13E0A0E0B2E0EEEBF7E6D3
:1006900002C005900D92AA3BB107D9F71CE0AAEB66
:1006A000B3E001C01D92A235B107E1F716E0CAE739
:1006B000D6E004C02297FE010E941F30C836D10741
:1006C000C9F70E947C1D0C94DD330C940000EF925E
:1006D000FF920F93DF93CF93CDB7DEB760970FB63E
:1006E000F894DEBF0FBECDBFA82F002309F461C070
:1006F0007E010894E11CF11C88E0F70111928A95B3
:10070000E9F729833A834B835C836D837E83AF83D0
:10071000988780E2801BE82FFF27E7FDF09549814D
:100720005A816B817C81181684F019861A861B8683
:100730001C86882799278E1B9F0B04C0440F551FCA
:10074000661F771F8A95D2F728C0202F332727FDF1
:100750003095DB01CA01022E04C0880F991FAA1F21
:10076000BB1F0A94D2F789879A87AB87BC8704C0DE
:100770007695679557954795EA95D2F78D819E8135
:10078000AF81B88504C0880F991FAA1FBB1F2A9587
:10079000D2F7482B592B6A2B7B2B4D875E876F87AF
:1007A000788B29853A854B855C856D857E85AF85FF
:1007B00098898A2F60960FB6F894DEBF0FBECDBF22
:1007C000CF91DF910F91FF90EF900895AEE5B0E0EB
:1007D000ECEEF3E00C94E62FA8E04E010894811CA7
:1007E000911CF4016A2E11926A94E9F729833A83E5
:1007F0004B835C836D837E838F839887CE010996BC
:10080000FC011192AA95E9F7A986BA86CB86DC8607
:10081000ED86FE860F87188B29843A844B845C848E
:10082000ED84FE840F85188969807A808B809C8096
:100830006DA67EA68FA698AA6D807E808F809884F4
:10084000E114F1040105110509F0B3C36214730446
:100850008404950408F03DC100E0201600E0300655
:1008600001E0400600E0500688F41FEF2116310435
:100870004104510439F030F048E0E42EF12C012D10
:10088000112D18C0EE24FF24870114C020E0221689
:1008900020E0320620E0420621E0520630F038E146
:1008A000E32EF12C012D112D05C020E1E22EF12CBB
:1008B000012D112DD201C1010E2C04C0B695A795B2
:1008C000979587950A94D2F789559D4FDC012C9115
:1008D00080E290E0A0E0B0E08E199F09A00BB10B80
:1008E0007C018D01E21AF10801091109E114F104FA
:1008F00001051105A1F10E2C04C0220C331C441C6F
:10090000551C0A94D2F7A40193010E2C04C0220FA7
:10091000331F441F551F0A94D2F780E290E08E19CE
:100920009F096DA47EA48FA498A804C09694879470
:10093000779467948A95D2F7622A732A842A952A33
:10094000ADA4BEA4CFA4D8A804C0AA0CBB1CCC1CC8
:10095000DD1CEA94D2F7ADA6BEA6CFA6D8AA620146
:10096000EE24FF24CDAADEAAEFAAF8AE92018101FF
:100970002070307009AF1AAF2BAF3CAFC401B30188
:10098000A70196010E94A92F7B018C01C401B3012C
:100990002DA93EA94FA958AD0E94A92FC901DA017E
:1009A0003C014D01C401B30129AD3AAD4BAD5CAD85
:1009B0000E94632F9B01AC018701FF24EE24ADA4AC
:1009C000BEA4CFA4D8A8C601AA27BB275701680197
:1009D000A82AB92ACA2ADB2AA216B306C406D50653
:1009E000E0F408946108710881089108A20CB31C16
:1009F000C41CD51CA214B304C404D50470F0A21600
:100A0000B306C406D50648F4089461087108810845
:100A10009108A20CB31CC41CD51CA21AB30AC40AA8
:100A2000D50AC601B5012DA93EA94FA958AD0E940E
:100A3000A92F7B018C01C601B5012DA93EA94FA9A3
:100A400058AD0E94A92FC901DA015C016D01C601F0
:100A5000B50129AD3AAD4BAD5CAD0E94632F9B0152
:100A6000AC018701FF24EE248DA59EA5AFA5B8A9F2
:100A7000A070B070E82AF92A0A2B1B2BE216F306A5
:100A800004071507C0F40894A108B108C108D108EB
:100A9000E20CF31C041D151DE214F30404051505F6
:100AA00050F0E216F3060407150728F40894A1088D
:100AB000B108C108D108D30199278827860175019B
:100AC000E82AF92A0A2B1B2BE9AAFAAA0BAB1CABC2
:100AD000CFC4211431044104510471F461E070E089
:100AE00080E090E020E030E040E050E00E94A92F5C
:100AF000C901DA011C012D0100E0201600E03006DA
:100B000001E0400600E0500688F41FEF2116310492
:100B10004104510431F028F048E050E060E070E01A
:100B200017C040E050E060E070E012C020E0221604
:100B300020E0320620E0420621E0520628F048E19B
:100B400050E060E070E004C040E150E060E070E040
:100B5000D201C101042E04C0B695A795979587953B
:100B60000A94D2F789559D4FDC012C91E0E2EE2EDC
:100B7000F12C012D112DD801C701841B950BA60B5B
:100B8000B70B821B9109A109B1090097A105B10515
:100B900061F464015301A218B308C408D50831E018
:100BA000632E712C812C912C1EC16F968FAF6F9785
:100BB000082E04C0220C331C441C551C0A94D2F786
:100BC000EE2DE81B640153010E2E04C0D694C79489
:100BD000B794A7940A94D2F7A40193016F960FAC2F
:100BE0006F9704C0220F331F441F551F0A94D2F77A
:100BF0006DA47EA48FA498A80E2E04C0969487940A
:100C0000779467940A94D2F784017301E22AF32A55
:100C1000042B152BE9A6FAA60BA71CA732018824E2
:100C20009924920181012070307021960CAF1DAF84
:100C30002EAF3FAF2197C601B501A40193010E94D9
:100C4000A92F7B018C01C601B501A40193010E946B
:100C5000A92FC901DA0125968CAF9DAFAEAFBFAF0A
:100C60002597BC01CD0121962CAD3DAD4EAD5FADBC
:100C700021970E94632F9B01AC018701FF24EE2482
:100C8000A9A4BAA4CBA4DCA4C601AA27BB275C01F3
:100C90006D01AE28BF28C02AD12AA216B306C40609
:100CA000D50660F525966CAD7DAD8EAD9FAD2597D3
:100CB000615070408040904025966CAF7DAF8EAF04
:100CC0009FAF2597A20CB31CC41CD51CA214B3045F
:100CD000C404D50498F0A216B306C406D50670F471
:100CE000615070408040904025966CAF7DAF8EAFD4
:100CF0009FAF2597A20CB31CC41CD51CA21AB30A23
:100D0000C40AD50AC601B501A40193010E94A92F06
:100D10007B018C01C601B501A40193010E94A92F9A
:100D2000C901DA013C014D01C401B30121962CAD8A
:100D30003DAD4EAD5FAD21970E94632F9B01AC018D
:100D40008701FF24EE2489A59AA5ABA5BCA5A070B8
:100D5000B07057016801A82AB92ACA2ADB2AA2164C
:100D6000B306C406D506E0F408946108710881084A
:100D70009108A20CB31CC41CD51CA214B304C40457
:100D8000D50470F0A216B306C406D50648F408943C
:100D90006108710881089108A20CB31CC41CD51C01
:100DA0008DA59EA5AFA5B8A96F960FAC6F9704C08F
:100DB000880F991FAA1FBB1F0A94D2F78DA79EA761
:100DC000AFA7B8ABA21AB30AC40AD50A2596ECACF1
:100DD000FDAC0EAD1FAD2597D70199278827682A4E
:100DE000792A8A2A9B2A82012227332729960CAF47
:100DF0001DAF2EAF3FAF2997A201910140705070F7
:100E00002D962CAF3DAF4EAF5FAF2D97C601B5010C
:100E100029962CAD3DAD4EAD5FAD29970E94A92F0F
:100E20007B018C01C601B50129962CAD3DAD4EADBF
:100E30005FAD29970E94A92FC901DA0161968CAF95
:100E40009DAFAEAFBFAF6197BC01CD012D962CAD6C
:100E50003DAD4EAD5FAD2D970E94632F9B01AC0160
:100E60008701FF24EE24ADA4BEA4CFA4D8A8C60158
:100E7000AA27BB2757016801A82AB92ACA2ADB2A50
:100E8000A216B306C406D50660F561966CAD7DADBD
:100E90008EAD9FAD619761507040804090406196EB
:100EA0006CAF7DAF8EAF9FAF6197A20CB31CC41C1B
:100EB000D51CA214B304C404D50498F0A216B3063A
:100EC000C406D50670F46150704080409040619631
:100ED0006CAF7DAF8EAF9FAF6197A20CB31CC41CEB
:100EE000D51CA21AB30AC40AD50AC601B5012996AF
:100EF0002CAD3DAD4EAD5FAD29970E94A92F7B0172
:100F00008C01C601B50129962CAD3DAD4EAD5FAD4E
:100F100029970E94A92FC901DA015C016D01C60160
:100F2000B5012D962CAD3DAD4EAD5FAD2D970E9418
:100F3000632F9B01AC018701FF24EE248DA59EA5A4
:100F4000AFA5B8A9A070B070E82AF92A0A2B1B2B0C
:100F5000E216F30604071507C0F40894A108B108C7
:100F6000C108D108E20CF31C041D151DE214F304A2
:100F70000405150550F0E216F3060407150728F4DA
:100F80000894A108B108C108D1086196ECACFDAC89
:100F90000EAD1FAD6197D70199278827960185016E
:100FA000082B192B2A2B3B2B09AB1AAB2BAB3CABD9
:100FB00062C26E147F048006910608F451C220E0DC
:100FC000E21620E0F20621E0020720E0120788F492
:100FD0003FEFE316F1040105110531F028F048E078
:100FE00050E060E070E017C040E050E060E070E08A
:100FF00012C040E0E41640E0F40640E0040741E09F
:10100000140728F048E150E060E070E004C040E1DF
:1010100050E060E070E0D801C701042E04C0B6952E
:10102000A795979587950A94D2F789559D4FDC012E
:101030002C9130E2A32EB12CC12CD12CD601C501AC
:10104000841B950BA60BB70B821B9109A109B10953
:101050000097A105B10589F4E614F7040805190500
:1010600008F4F2C16DA47EA48FA498A8621473043E
:101070008404950408F0E8C1F3C16E968FAF6E97B3
:10108000082E04C0EE0CFF1C001F111F0A94D2F79B
:101090006A2D681BD201C101062E04C0B695A79522
:1010A000979587950A94D2F75C016D01AE28BF2809
:1010B000C02AD12AADA2BEA2CFA2D8A672016101D8
:1010C0006E960FAC6E9704C0CC0CDD1CEE1CFF1CA2
:1010D0000A94D2F7C9A2DAA2EBA2FCA264015301DE
:1010E000062E04C0D694C794B794A7940A94D2F756
:1010F000D401C3016E960FAC6E9704C0880F991F80
:10110000AA1FBB1F0A94D2F7EDA4FEA40FA518A92D
:1011100004C016950795F794E7946A95D2F73701BE
:101120004801682A792A8A2A9B2A6D8E7E8E8F8EA4
:1011300098A2EDA0FEA00FA118A53801882499243B
:10114000980187012070307065960CAF1DAF2EAFEF
:101150003FAF6597C601B501A40193010E94A92F75
:101160007B018C01C601B501A40193010E94A92F46
:10117000C901DA011C012D01C201B10165962CAD36
:101180003DAD4EAD5FAD65970E94632F9B01AC01F5
:101190008701FF24EE24AD8CBE8CCF8CD8A0C60175
:1011A000AA27BB2757016801A82AB92ACA2ADB2A1D
:1011B000A216B306C406D50600F508942108310826
:1011C00041085108EDA0FEA00FA118A5AE0CBF1C50
:1011D000C01ED11EAE14BF04C006D10670F0A21608
:1011E000B306C406D50648F408942108310841081E
:1011F0005108AE0CBF1CC01ED11EA21AB30AC40AED
:10120000D50AC601B501A40193010E94A92F7B0153
:101210008C01C601B501A40193010E94A92FC90147
:10122000DA013C014D01C401B30165962CAD3DAD21
:101230004EAD5FAD65970E94632F9B01AC018701A6
:10124000FF24EE248D8D9E8DAF8DB8A1A070B0705F
:1012500057016801A82AB92ACA2ADB2AA216B306AE
:10126000C406D50600F50894610871088108910844
:101270006DA17EA18FA198A5A60EB71EC81ED91E6E
:10128000A616B706C806D90670F0A216B306C4069D
:10129000D50648F408946108710881089108A60EE3
:1012A000B71EC81ED91ED601C501821B930BA40B05
:1012B000B50B898F9A8FAB8FBC8FD1019927882767
:1012C00064015301A82AB92ACA2ADB2AA9AABAAA00
:1012D000CBAADCAA860175012FEF3FEF40E050E07A
:1012E000E222F32204231523A601662777276D96B1
:1012F0004CAF5DAF6EAF7FAF6D97A9A0BAA0CBA08A
:10130000DCA06FEF7FEF80E090E0A622B722C8223A
:10131000D92289A19AA1ABA1BCA11D0144245524C5
:10132000C801B701A60195010E94632F69966CAFB1
:101330007DAF8EAF9FAF6997C801B701A201910140
:101340000E94632F3B014C016D966CAD7DAD8EAD5F
:101350009FAD6D97A60195010E94632F7B018C01C3
:101360006D966CAD7DAD8EAD9FAD6D97A201910177
:101370000E94632F5B016C01A8019701260D371DA8
:10138000481D591D69966CAC7DAC8EAC9FAC6997BD
:10139000C401AA27BB27280F391F4A1F5B1F2E1520
:1013A0003F054007510748F4E12CF12C61E0062F7E
:1013B000112DAE0CBF1CC01ED11ECA01AA27BB270F
:1013C000BC01CD016A0D7B1D8C1D9D1D698C7A8C25
:1013D0008B8C9C8C661677068806990640F16615FC
:1013E00077058805990509F043C0D9019927882711
:1013F00069962CAD3DAD4EAD5FAD699740705070B4
:10140000820F931FA41FB51F2DA53EA54FA558A958
:101410006E960FAC6E9704C0220F331F441F551FEA
:101420000A94D2F7281739074A075B0708F509A974
:101430001AA92BA93CA9015010402040304009AB0B
:101440001AAB2BAB3CAB14C066247724430121E0DC
:1014500030E040E050E029AB3AAB4BAB5CAB0BC0AB
:1014600066247724430119AA1AAA1BAA1CAA03C03E
:10147000662477244301FE01719688E0DF011D9206
:101480008A95E9F7A9A8BAA8CBA8DCA8A98ABA8A3C
:10149000CB8ADC8A6D8A7E8A8F8A988E29A93A89BE
:1014A0004B895C89662D7E898F89988DC25ADF4F62
:1014B000E2E10C9402308F929F92AF92BF92CF9252
:1014C000DF92EF92FF920F931F93DF93CF9300D0A1
:1014D000CDB7DEB71092BB031092BA038DE096E051
:1014E0006DE771E00E940D268DE096E060E072E00D
:1014F0000E9441268DE096E06BEA73E00E94282668
:101500008DEB93E06BEA73E00E94E414019709F01D
:1015100013C18DE096E060E671E00E940D268DEB30
:1015200093E06BEA73E00E9465129093BB03809393
:10153000BA03019709F0FBC08DE096E062E172E02A
:101540000E9441264091720450E060E070E08DE01E
:1015500096E02AE030E00E9456268DE096E061E3B6
:1015600072E00E9441268DEB93E0609172040E942C
:101570002111482F552747FD5095652F752F8DE078
:1015800096E02AE030E00E94562680917002909109
:1015900071029A8389838DEB93E0609172044AE330
:1015A00050E09E012F5F3F4F0E94EF109093BB03CE
:1015B0008093BA03892B09F0B5C01092BC0351C0C7
:1015C0008DE096E067E371E00E940D269090BA04EA
:1015D0008824E090B904FF24E828F9288DE096E0FB
:1015E00067E372E00E94412600E010E08DE096E0A3
:1015F000B801A7012AE030E00E9494268DE096E031
:101600006FE472E00E9428268DE096E06EE572E0BD
:101610000E94412610E00AC0E12FF0E0E354FB4FA6
:101620008DE096E060810E94BD251F5F8091BC0423
:10163000181790F38DE096E00E94CF258091BC03AF
:101640008F5F8093BC031092BB031092BA0302C059
:101650000F9789F10E9456186A157B058C059D0528
:1016600020F40E9456185B016C018091BC03853008
:1016700010F50E9456186A197B098C099D09605360
:10168000754780409040B8F48DE096E06EE471E0DC
:101690000E940D268DEB93E048E853E160E070E096
:1016A0000E94350D90E09093BB038093BA0385317F
:1016B000910571F685CF68EB7BE080E090E00E94B9
:1016C000EC188DEB93E0609172040E94441081301D
:1016D00021F58DEB93E0609172040E945811909374
:1016E000BB038093BA03892B99F08DE096E06EE1FD
:1016F00071E00E94DE254091BA035091BB0360E087
:1017000070E08DE096E02AE030E00E9456261AC094
:101710008DE096E060E171E013C08DE096E061E05D
:1017200071E00EC08DE096E06DEE70E009C08DE0D6
:1017300096E06FED70E004C08DE096E06CEC70E038
:101740000E940D268DE096E00E94CF250F900F900D
:10175000CF91DF911F910F91FF90EF90DF90CF908D
:10176000BF90AF909F908F9008958DE096E063E9D1
:1017700071E00E940D268DEB93E060E00E9446131D
:101780000895FC01E950FF4F8081E75FF040882316
:1017900009F4C4C0E750FF4F8081E95FF04088231F
:1017A00009F5E650FF4F80818230A1F0833030F49C
:1017B000882371F0813009F0B1C008C0843071F025
:1017C000843050F0853009F0A9C00AC082E0089545
:1017D00081E0089583E0089584E0089585E0089508
:1017E00086E00895813041F4E650FF4F80818823E0
:1017F00009F094C087E00895823089F4E650FF4FE5
:101800008081813031F0813030F0823009F086C043
:1018100004C089E0089588E008958AE0089583303F
:10182000E9F4E650FF4F8081823091F0833030F44C
:10183000882361F0813009F071C006C0833051F017
:10184000843009F06BC008C08CE008958BE00895E7
:101850008DE008958EE008958FE00895843011F5AD
:10186000E650FF4F80818330A9F0843028F4813026
:1018700059F0823068F40AC0853081F0853060F01C
:10188000863009F04BC00CC081E1089580E10895D5
:1018900082E1089583E1089584E1089585E1089542
:1018A00086E108958530D9F4E650FF4F808182307B
:1018B00081F0833028F4882351F0813079F505C018
:1018C000833049F0843051F508C088E1089587E1FC
:1018D000089589E108958AE108958BE1089586309D
:1018E00059F4E650FF4F8081882321F08130B1F414
:1018F0008DE108958CE10895873081F4E650FF4F23
:101900008081813029F0813028F0823039F404C0A0
:101910008FE108958EE1089580E2089580E00895B2
:10192000CF93DF93FC0180E092ECA1E0B0E08083F4
:101930009183A283B383E055FF4F11821082E05B55
:10194000F040CF018A5B9F4FDC0186E0ED011992E8
:101950008A95E9F7EB5AFF4F8FE08083399782E051
:101960008193119211928BE4819382E3819311927E
:101970001082389680E094E091838083DF91CF914C
:1019800008958DEB93E00E94900C0895CF93DF9320
:10199000EC018D599F4FFC018FE1DF011D928A956B
:1019A000E9F7CE57DF4F2881C258D04081E056C0BA
:1019B000FE01E80FF11DEE57FF4F90818F5FFE0192
:1019C000E80FF11DEE57FF4FE081482F4F5FE930E0
:1019D000F1F4E92F903208F0EFE190E02E2F30E0A3
:1019E000215030400CC0AC0FBD1FAD59BF4FFE01A0
:1019F000E80FF11DEE57FF4F80818C939F5F892F79
:101A0000840FA92FB0E0A217B3076CF325C0E8300C
:101A1000F9F4E92F903208F0EFE190E02E2F30E05A
:101A2000215030400CC0AC0FBD1FAD59BF4FFE015F
:101A3000E80FF11DEE57FF4F80818C939F5F892F38
:101A4000840FA92FB0E0A217B3076CF382E00AC09D
:101A5000892F840F815002C081E004C0821708F4EE
:101A6000A7CF80E0DF91CF9108958F929F92AF92A0
:101A7000BF92CF92DF92EF92FF920F931F93CF937B
:101A8000DF93EC014A015B018C0109501F4F81E497
:101A9000D8011D928A95E9F762C08C810E94BB1A19
:101AA00004970CF455C08C810E94DF1AF8018083E2
:101AB000803809F04DC08C810E94DF1A8E010850D9
:101AC0001F4FD8018C938C810E94DF1AC750DF4FC3
:101AD0008883C95FD0408C810E94DF1AC650DF4FD7
:101AE0008883CA5FD0400E9456186B017C018C81AC
:101AF0000E94BB1AF801208130E0821793070CF096
:101B00004EC00E9456186C197D098E099F096815F0
:101B100079058A059B0508F042C00E9456186C158D
:101B20007D058E059F0518F7DECF8C810E94DF1A98
:101B3000D7018D937D010F5F1F4F02341105F9F01E
:101B4000F601808190E003968017910774F717C023
:101B50000E9456186C157D058E059F0520F40E9485
:101B600056186B017C010E9456186C197D098E096C
:101B70009F09681579058A059B0508F48ECFCE016B
:101B80000E94C10BDF91CF911F910F91FF90EF90B9
:101B9000DF90CF90BF90AF909F908F9008959BEF74
:101BA000E92EF12CEC0EFD1E04E010E088EFC82EAB
:101BB000D12CCC0EDD1EC4CFBF92CF92DF92EF921C
:101BC000FF920F931F93CF93DF93EC01C62EB42E99
:101BD0000596FC0181E4DF011D928A95E9F70E94D8
:101BE00056187B018C01DD2418C08C810E94DF1AFD
:101BF000FE01ED0DF11D8583D394DC1438F5B0E4BE
:101C0000BD1520F10E9456186E157F0580079107BB
:101C100020F40E9456187B018C01DC1428F08C8182
:101C20000E94BB1A892B91F00E9456186E197F09E9
:101C3000800B910B643171058105910538F48C811D
:101C40000E94BB1A1816190684F2DCCFDE01A055DB
:101C5000BF4F81E0B81661F4FE01ED0DF11D9481D6
:101C600080E0238130E0822B932B8D939C9302C0E4
:101C70001D921C92DD2041F4C055DF4F8FEF9FEF86
:101C800099838883C05BD040FE01E055FF4F80817F
:101C90009181DF91CF911F910F91FF90EF90DF9095
:101CA000CF90BF900895CF93DF93EC018C81882370
:101CB000A1F482E196E00E948227688179818A817D
:101CC0009B814C810E94001D8C810E941A1B8FE217
:101CD00061E00E94061A8FE215C08130B1F482E102
:101CE00096E00E949327688179818A819B814C814B
:101CF0000E94001D8C810E941A1B84E061E00E94FA
:101D0000061A84E061E00E94241A8C81882351F431
:101D10008091380890913908A0913A08B0913B0819
:101D200084600BC0813089F4809138089091390823
:101D3000A0913A08B0913B0888608093380890934E
:101D40003908A0933A08B0933B08CE0148EE53E01F
:101D500060E070E00E94350D8E3109F481E0DF9182
:101D6000CF910895AF92BF92CF92DF92EF92FF9200
:101D70000F931F93CF93DF937C015AE5C52ED12C8F
:101D8000C80ED91EF601808191818F51974019F4B8
:101D900020E030E053C08701045A1F4FE60142E6BD
:101DA000A42EB12CAE0CBF1C6881798182E196E033
:101DB000F80141918F010E944727688179816F5F07
:101DC0007F4F798368830A151B0571F782E196E0DE
:101DD000F80140810E944727F60180819181019698
:101DE0009183808387010D591F4FE701C65ADF4F4A
:101DF00082E890E0E80EF91E6881798182E196E040
:101E0000F80141918F010E944727688179816F5FB6
:101E10007F4F798368830E151F0571F782E196E085
:101E200040EF0E944727688179816F5F7F4F82E191
:101E300096E040EF0E94472721E030E0C901DF91A2
:101E4000CF911F910F91FF90EF90DF90CF90BF90B7
:101E5000AF900895DF92EF92FF920F931F93CF936D
:101E6000DF93EC01C950DF4F8881C75FD0408038D5
:101E700039F0C750DF4F8881C95FD040863041F4C8
:101E80007CE5E72EF12CEC0EFD1ED70195E009C094
:101E9000C650DF4F8881CA5FD040882389F380E035
:101EA00068C0FE01E90FF11DE350FF4F80818D9363
:101EB0009150B8F7FE01EE59FF4FC550DF4F8881B2
:101EC00080832A962881C550D140203208F02FE126
:101ED000CE018E579F4FFC0181E2DF011D928A9552
:101EE000E9F730E0422F50E00AC0FE01E80FF91F89
:101EF000EB5FFE4F8081E358F04080833F5F832F8C
:101F000090E0481759078CF7613029F4CE010E9400
:101F1000C60CD82E0BC09E012D593F4FC90160E25F
:101F200070E04FE150E00E949E30DD248E010A5B9C
:101F30001F4FC701B80146E050E00E94883000976B
:101F4000B9F0FE01EE54FF4F80819181019691839B
:101F50008083D801F70186E001900D928150E1F76E
:101F6000CE016D2D0E94B20E892B11F482E001C0CA
:101F700081E0DF91CF911F910F91FF90EF90DF9063
:101F800008956F927F929F92AF92BF92CF92DF920D
:101F9000EF92FF920F931F93DF93CF93CDB7DEB7EE
:101FA0005C01F62EE42ED22EC02E912E6DB67EB69A
:101FB0008CE3861718F421E030E052C0262F30E081
:101FC0002B5F3F4FEDB7FEB7E21BF30B0FB6F89454
:101FD000FEBF0FBEEDBF0DB71EB70F5F1F4FC8018D
:101FE00060E070E0A9010E949E30F4E0FF0EF8016D
:101FF000F082FCEFFF0EF8011182F282E382D482BC
:10200000FF2021F4F5E0EF2EF12C15C0D8018C2D26
:10201000992D9C01F901819115968C931597119634
:102020008E2F8C198F15B8F3FA94EF2CFF2486E0CD
:1020300090E0E80EF91EF50184810E941A1BDD2450
:1020400008C0E00FF11F8081F50164810E94B01B80
:10205000D394ED2DF0E0EE15FF0598F320E030E08D
:10206000C9010FB6F8947EBE0FBE6DBECF91DF9151
:102070001F910F91FF90EF90DF90CF90BF90AF90A6
:102080009F907F906F900895EF92FF920F931F9310
:10209000DF93CF930F92CDB7DEB77C01698361E008
:1020A00043E027E08E010F5F1F4F0E94C10FC70161
:1020B00048E853E160E070E00E94350D8B3039F460
:1020C0008CEF90E0E80EF91EF70180810BC0482FDD
:1020D00050E060E070E08DE096E02AE030E00E94A1
:1020E00056268FEF0F90CF91DF911F910F91FF90A8
:1020F000EF900895CF92DF92EF92FF920F931F938C
:10210000DF93CF93CDB7DEB77C01702FCDB6DEB6AF
:10211000802F90E00496ADB7BEB7A81BB90B0FB6E1
:10212000F894BEBF0FBEADBF0DB71EB70F5F1F4FF8
:1021300011966C93F801418352837383D80140E078
:1021400050E009C0F901E40FF51F808113968C93CC
:1021500013974F5F5F4F11964717A0F37C5FC7013E
:10216000672F44E025E00E94C10FC70167E041E00E
:102170000E94DC0D892B01F5C70148EE53E060E0B9
:1021800070E00E94350D813111F090E01AC0F70126
:10219000E055FF4F4DEF50E0E40EF51ED7019C9146
:1021A00080E02E917D0144E05FEFE40EF51E30E00B
:1021B000822B932B91838083F701E055FF4F808121
:1021C00091810FB6F894DEBE0FBECDBECF91DF91E8
:1021D0001F910F91FF90EF90DF90CF900895CF92D5
:1021E000DF92EF92FF920F931F93CF93DF937C01C7
:1021F000162F6A01EC01CA54DF4F81E4FE011192EF
:102200008A95E9F7F90101900020E9F731970E2F3F
:10221000021B053108F004E1CE01B901402F50E066
:102220000E949530C701612FA6019E010E947A107D
:10223000DF91CF911F910F91FF90EF90DF90CF90A2
:102240000895EF92FF920F931F93DF93CF930F9216
:10225000CDB7DEB77C01698361E043E021E08E0108
:102260000F5F1F4F0E94C10FC70166E040E00E9450
:10227000DC0DF70191858981981789F420EB30E016
:10228000E20EF31EF7018081918120E53FEFE20E1F
:10229000F31E8F5F9F4F19F0F701828501C080E028
:1022A0000F90CF91DF911F910F91FF90EF900895C4
:1022B000EF92FF920F931F93DF93CF930F92CDB7BF
:1022C000DEB77C01698361E043E020E08E010F5FAF
:1022D0001F4F0E94C10FC70167E041E00E94DC0D63
:1022E00025EB30E0E20EF31EF70190812BE43FEF87
:1022F000E20EF31EF7018185981719F021E030E016
:102300002CC0F701938580E0228530E0282B392B03
:1023100080EB90E0E80EF91EF7013183208380E521
:102320009FEFE80EF91E21153105B9F4C70140E110
:1023300057E260E070E00E94350D8F3061F4EDEF00
:10234000F0E0EE0EFF1EF701908180E0229130E078
:10235000282B392B02C0282F30E0C9010F90CF91D4
:10236000DF911F910F91FF90EF9008958F929F92B0
:10237000AF92BF92CF92DF92EF92FF920F931F9393
:10238000DF93CF93CDB7DEB765970FB6F894DEBF76
:102390000FBECDBF5C014A01D22EC32E82E196E072
:1023A000AE014F5F5F4F0E9450272D2D3C2DC9017C
:1023B000AC018815990508F4A4010A30110518F438
:1023C0000AE010E006C02CE00138120710F000E827
:1023D0001CE0970181E0253F380710F024EF31E041
:1023E0008E818F838D8188878C8189878B818A8775
:1023F0008A818B8789818C871D868E869F86488BF4
:10240000598B0A8B1B8B2C8B3D8BC5016FE046E0F3
:1024100023E08E01095F1F4F0E94C10FC50167E0D5
:1024200040E00E94DC0DF501928580E0218530E0DE
:10243000282B392B80EB90E0A80EB91EF5013183D3
:10244000208380E59FEFA80EB91E2115310549F5BF
:10245000F501838525EB30E0A20EB31EF5018083E4
:102460002BE43FEFA20EB31EC50148EE53E060E03F
:1024700070E00E94350D182F64E670E080E090E077
:102480000E94EC181B3059F48CEF90E0A80EB91E96
:10249000F5018081853019F421E030E002C0212F60
:1024A00030E0C90165960FB6F894DEBF0FBECDBF10
:1024B000CF91DF911F910F91FF90EF90DF90CF9020
:1024C000BF90AF909F908F900895EF92FF920F93DF
:1024D0001F934CE350E02CE430E004E610E0EE24DF
:1024E000FF240E94B6111F910F91FF90EF90089565
:1024F000BF92CF92DF92EF92FF920F931F93DF93E1
:10250000CF9300D00F92CDB7DEB77C01D62EC42E6C
:10251000B22E69834A832B8363E046E026E08E0176
:102520000F5F1F4F0E94C10FC70166E041E00E948C
:10253000DC0D20EB30E0E20EF31EF701808191818B
:1025400020E53FEFE20EF31E892B91F481E590E048
:10255000E80EF91EF701D1927F01C08222E030E03F
:10256000E20EF31EF701B0822CEA3FEFE20EF31EFB
:10257000F701E055FF4F808191810F900F900F90F0
:10258000CF91DF911F910F91FF90EF90DF90CF904F
:10259000BF900895FC01262FDC01AE5ABF4FEF5AC1
:1025A000FF4F60814C910E9478120895EF92FF9244
:1025B0000F931F937C0160E046E024E000E010E010
:1025C0000E94C10FC70166E041E00E94DC0D1F912F
:1025D0000F91FF90EF900895FF920F931F93CF9369
:1025E000DF93EC010E94D612CE0161E00E94CA1274
:1025F000892B19F0E2E0FE2E07C0CC5ADF4F81E0B4
:102600008883C455D040FF248E01065A1F4FF8011D
:102610006081718182E196E040EF0E944727F801D6
:10262000608171816F5F7F4F82E196E040EF0E9491
:10263000472780E0FF2009F481E0DF91CF911F91CF
:102640000F91FF900895EF92FF920F931F937C01DB
:1026500061E049E020E000E010E00E94C10F64EF7B
:1026600071E080E090E00E94EC18C70148EE53E072
:1026700060E070E00E94350D90E0813009F491E057
:10268000892F1F910F91FF90EF900895CF93DF93C3
:10269000EC01623018F081E08C8301C06C838C8186
:1026A000882331F486E161E00E94061A86E107C0C2
:1026B000813041F486E061E00E94061A86E061E024
:1026C0000E94241A64E670E080E090E00E94EC181A
:1026D000CE010E94530E8130A1F1C850DF4F888196
:1026E000C85FD0408C3071F4C750DF4F8881C95F1C
:1026F000D040882339F4C650DF4F8881CA5FD0406C
:102700008823F9F0CE010E9423138823D1F48DE0B1
:1027100096E062EC71E00E940D2682E196E06CE0AA
:1027200041E00E94AC2760E375E780E090E00E9402
:10273000EC1882E196E06CE040E00E94AC2780E07B
:1027400003C0CE010E94EC12DF91CF910895AF92A9
:10275000BF92DF92EF92FF920F931F93DF93CF937D
:10276000CDB7DEB765970FB6F894DEBF0FBECDBF0D
:102770005C016D8B603110F08FE08D8B19821A82B5
:102780001B821C8246E0D42EFE013596DF018D2D82
:102790001D928A95E9F7C50161E047E02CE08E01C2
:1027A0000B5E1F4F0E94C10FC50164E040E00E9414
:1027B000DC0DB5016B5F7F4F82E196E07E010894EE
:1027C000E11CF11CA70124E00E94CE261B861C867A
:1027D0001D861E86FE013F96DF011D92DA94E9F701
:1027E000E2EAF1E0659174918E01055F1F4FC80127
:1027F0000E948130C701B8010E94B030009719F0E3
:1028000021E030E009C0E5E5F0E0AE0EBF1E8D89A5
:10281000D5018C9320E030E0C90165960FB6F8949D
:10282000DEBF0FBECDBFCF91DF911F910F91FF9003
:10283000EF90DF90BF90AF9008954F925F926F92AC
:102840007F929F92AF92BF92CF92DF92EF92FF92D0
:102850000F931F93CF93DF93EC012B01D42E72EBD8
:10286000E72EF12CE80EF91EF7011182108266E4C2
:10287000662E712C680E791E86E0F30111928A95FE
:10288000E9F7CE01622F0E94A7138E010C5A1F4F49
:10289000F8018081813081F0CE0161E00E94CA128E
:1028A000892B21F481E0F801808306C08FEF9FEF30
:1028B000F7019183808369C08E01045B1F4FCE01B5
:1028C00061E046E022E00E94C10FCE0166E041E0F7
:1028D0000E94DC0D892B09F058C08D2D90E028EE68
:1028E00033E0AC01429FC001439F900D529F900D79
:1028F00011245C01CC24B7FCC094DC2C51EEA5164D
:1029000053E9B50654E0C50650E0D50638F050EE60
:10291000A52E53E9B52E54E0C52ED12C0E94561891
:102920007B018C011DC0CE0160E00E942A0FC30113
:10293000B20146E050E00E948830009719F49924D3
:10294000939401C099240E9456186E157F05800744
:10295000910720F40E9456187B018C01992071F593
:102960000E9456186E197F09800B910B6A157B0522
:102970008C059D0510F5CE0148EE53E060E070E057
:102980000E94350D8C31F1F6CECFFE01E055FF4FA0
:102990008081918102C0892D90E0DF91CF911F91BC
:1029A0000F91FF90EF90DF90CF90BF90AF909F90EE
:1029B0007F906F905F904F9008959924CE010E9470
:1029C000D612892B41F3E1CFEF92FF920F931F9321
:1029D000DF93CF9300D000D000D0CDB7DEB77C011D
:1029E0008B01FB0101900020E9F73197E61BF70B03
:1029F0003E9710F0FB011486C8010E94B93082E1B5
:102A000096E0B8018E010F5F1F4FA8010E9450276A
:102A1000C701B8014EE12FE00E941D1426960FB6A3
:102A2000F894DEBF0FBECDBFCF91DF911F910F9104
:102A3000FF90EF900895482F613210F081E00895E3
:102A40008091F704843011F082E00895609340058E
:102A5000AFE1B5E0842F9C01F90102C081918D9313
:102A60008E2F841B8617D0F380E0089558985998CC
:102A70008091B90081608093B9008091B900826033
:102A80008093B9008091BC0080688093BC008091E5
:102A9000BC0080618093BC008091BC008F7B8093E0
:102AA000BC008091BC008F7D8093BC008091BC00F5
:102AB000877F8093BC008091380890913908A0915D
:102AC0003A08B0913B0886FD14C080913808909177
:102AD0003908A0913A08B0913B0890FD0AC0809156
:102AE000380890913908A0913A08B0913B0893FFBB
:102AF00004C08091BC008B7F03C08091BC008460C7
:102B00008093BC008091BC008E7F8093BC0080913C
:102B1000640080688093640008951092F704E4E6EE
:102B2000F0E080818F778083589A599AE9EBF0E042
:102B300080818E7F808380818D7F808381E48093FC
:102B4000B80085E48093BC0080E2EDEFF4E0DF01A3
:102B5000982F1D929A95E9F7EFE1F5E0DF01982FA4
:102B60001D929A95E9F7E1E4F5E0DF011D928A955F
:102B7000E9F70895882349F01092630510926405DF
:102B8000109265051092660513C0809163059091BF
:102B90006405A0916505B09166050196A11DB11D62
:102BA0008093630590936405A0936505B0936605D3
:102BB0008091630590916405A0916505B0916605CB
:102BC000805A9648A140B04010F480E008951092D9
:102BD00063051092640510926505109266050E94C7
:102BE0008D1581E0089585ED8093BC0081E00E9401
:102BF000BA1505C080E00E94BA15882321F480919F
:102C0000BC0084FDF7CF1092F70408951F920F9235
:102C10000FB60F920BB60F9211242F933F934F9341
:102C20005F936F937F938F939F93AF93BF93EF9334
:102C3000FF938091B90090E0887F90708036910575
:102C400009F4C3C081369105CCF58832910509F4A9
:102C50007BC089329105B4F48031910509F46FC0CD
:102C6000813191053CF4009709F40EC1089709F0F1
:102C70000FC165C08831910509F466C0809709F0DD
:102C800007C177C08034910509F48DC08134910566
:102C900044F48033910509F472C0C89709F0F8C074
:102CA00072C08035910509F472C08835910509F428
:102CB0007FC08834910509F0EBC0E8C088399105E0
:102CC00009F4D8C089399105ECF48837910509F4E5
:102CD0007CC0893791054CF48836910509F475C09C
:102CE0008037910509F0D4C070C08838910509F487
:102CF000C1C08039910509F46EC08038910509F092
:102D0000C7C069C0803B910509F48CC0813B910527
:102D10004CF4803A910509F470C0883A910509F0A5
:102D2000B7C080C0803C910509F4A8C0883C9105DB
:102D300009F4A4C0883B910509F0AAC088C080911D
:102D4000F8048093BB0013C090911D0580911E056F
:102D5000981708F09BC090911D05E92FF0E0E35013
:102D6000FB4F80818093BB009F5F90931D0585EC96
:102D700082C00E94F31580E28093620589C080E3DF
:102D80008093620583C088E38093620577C0809159
:102D90001D059091BB00E82FF0E0E350FB4F9083BE
:102DA0008F5F80931D0590911D0580911E055FC06A
:102DB00080911D059091BB00E82FF0E0E350FB4FA0
:102DC00090838F5F80931D0561C083E08093F7043B
:102DD00010926105CCCF80916105803208F04AC025
:102DE000809161059091BB00E82FF0E0EF5BFA4F16
:102DF00090838F5F80936105BACF809161058032A7
:102E000030F4E0916105F0E0EF5BFA4F10826091E1
:102E10006105E091FB04F091FC0481E495E070E031
:102E200009952CC084E08093F70410923F0510921E
:102E30004005E091F904F091FA040995809140056C
:102E4000882329F481E08093400510921F0590911A
:102E50003F05E92FF0E0E15EFA4F80818093BB00EF
:102E60009F5F90933F0590913F0580914005981793
:102E700008F47DCF85E88093BC000AC085EC809380
:102E8000BC001092F70404C0109262050E94F31572
:102E9000FF91EF91BF91AF919F918F917F916F9132
:102EA0005F914F913F912F910F900BBE0F900FBEEE
:102EB0000F901F901895DF92EF92FF920F931F9340
:102EC000E82E062FF72E142FD22E413210F081E07B
:102ED00051C081E00E94BA1505C080E00E94BA1579
:102EE000882321F48091F7048823B9F782E0809346
:102EF000F7048FEF8093620510921D0510931E0555
:102F0000ADEFB4E0202F3F2DC901FC0102C081913B
:102F10008D938E2F801B8117D0F38E2D90E0880F1C
:102F2000991F8093F80485EE8093BC0081E00E9495
:102F3000BA15DD2041F40BC080E00E94BA15882349
:102F400011F085E017C08091F7048230A9F38091D9
:102F500062058F3F11F480E00DC0809162058032E0
:102F600011F482E007C080916205803311F084E0A3
:102F700001C083E01F910F91FF90EF90DF900895C3
:102F80000F931F93CF93DF93182FEB01042F413240
:102F900010F081E03CC081E00E94BA1505C080E0DD
:102FA0000E94BA15882321F48091F7048823B9F789
:102FB00081E08093F7048FEF8093620510921D05E6
:102FC00000931E05110F11601093F80485EE809395
:102FD000BC0081E00E94BA1508C080E00E94BA15CA
:102FE000882319F020E030E00FC08091F704813091
:102FF000A1F3F8CFFE01E20FF31FD901A350BB4F9D
:103000008C9180832F5F3F4F2017A0F380E0DF91EA
:10301000CF911F910F9108951F920F920FB60F92AB
:1030200011248F939F93AF93BF9380914A089091FF
:103030004B08A0914C08B0914D080196A11DB11DFF
:1030400080934A0890934B08A0934C08B0934D0886
:10305000BF91AF919F918F910F900FBE0F901F90D6
:1030600018951F920F920FB60F9211248F939F9372
:10307000AF93BF9380914E0890914F08A091500854
:10308000B09151080196A11DB11D80934E089093F7
:103090004F08A0935008B0935108BF91AF919F91F2
:1030A0008F910F900FBE0F901F9018958F929F9247
:1030B000AF92BF92CF92DF92EF92FF920F931F9346
:1030C0008FB7F894A0904A08B0904B08C0904C0875
:1030D000D0904D088FBF9501A60160E070E080E0C0
:1030E00090E001E00E946703122FF32EE42ED52E0C
:1030F000C62EB72EA82E892E02E00E946703B92F94
:10310000210FE1E0211708F0E0E03F0DF1E03F156D
:1031100008F0F0E09E2E930EE1E0931608F0E0E058
:10312000FE2B4E0DA1E04E1508F0A0E0FF2EF40E90
:10313000E1E0F41608F0E0E0AE2B5D0DF1E05D1586
:1031400008F0F0E00A2F050FE1E0051708F0E0E0D5
:10315000FE2B6C0DA1E06C1508F0A0E01F2F160FE0
:10316000E1E0161708F0E0E0AE2B7B0DF1E07B15F7
:1031700008F0F0E0A70FE1E0A71708F0E0E0FE2B71
:103180008A0D91E08A1508F090E0F80FE1E0F81759
:1031900008F0E0E09E2BB80D392D4F2D502F612FF8
:1031A0007A2F8F2F9B0FE9E0AE2EBB24CC24DD2499
:1031B000EE24FF2400E010E00E94E603952FB90101
:1031C000842F1F910F91FF90EF90DF90CF90BF90D1
:1031D000AF909F908F900895AF92BF92CF92DF9261
:1031E000EF92FF920F931F935B016C0107C00E9447
:1031F00056186E157F058007910720F40E94561817
:103200007B018C010E9456186E197F09800B910B6F
:103210006A157B058C059D0550F31F910F91FF905A
:10322000EF90DF90CF90BF90AF90089584309105DC
:1032300070F0BC0180E090E00E94722E26E636E637
:1032400046EE5FE30E94002F0E94462E03C0BC01A1
:10325000660F771F6150704061F06150704049F017
:10326000FB01EE0FFF1F31978FB7F8943197F1F7FD
:103270008FBF0895789484B7877F84BF10924A08DF
:1032800010924B0810924C0810924D0884B5826041
:1032900084BD84B5816084BD85B5826085BD85B5FA
:1032A000816085BDEEE6F0E0808181608083E1E8A9
:1032B000F0E0808182608083808181608083E0E8AB
:1032C000F0E0808181608083E1EBF0E080818460C8
:1032D0008083E1E9F0E0808184608083E0EBF0E0CE
:1032E000808181608083E0E9F0E08081816080837B
:1032F000E4E6F0E080818E7F8083ECE7F0E080817F
:103300008F778083808180648083EAE7F0E080812A
:1033100084608083808182608083808180688083F4
:103320001092C1001092C900089590916705982BE2
:103330009093670580FF32C0809164008E7F8093F8
:10334000640080917C008F7780937C0080917C006A
:10335000806480937C0080917A00846080937A00FE
:1033600080917A00826080937A0080917A008068F0
:1033700080937A00809164008F77809364008091BD
:1033800064008B7F80936400809164008D7F8093C4
:103390006400809165008E7F8093650008951F9280
:1033A0000F920FB60F920BB60F9211242F933F93EB
:1033B0004F935F936F937F938F939F93AF93BF933D
:1033C000EF93FF93F89481E08093B903E0E6F0E097
:1033D00080818068808380818F7B808383E060E050
:1033E0000E94241A7894FF91EF91BF91AF919F9121
:1033F0008F917F916F915F914F913F912F910F909E
:103400000BBE0F900FBE0F901F901895282F30E025
:10341000C9018E5F994FFC01949121533A4FF901F4
:103420008491882381F0E82FF0E0E954FA4FE49189
:10343000F0E0662329F480819095892380830895A4
:103440008081892B80830895482F50E0CA018B5CCE
:10345000994FFC012491CA018E5F994FFC01949110
:1034600041535A4FFA0134913323C1F1222331F1F0
:10347000233021F4809180008F7705C0243031F40F
:10348000809180008F7D8093800018C0213019F4D6
:1034900084B58F7704C0223021F484B58F7D84BD3C
:1034A0000DC0263021F48091B0008F7705C0273001
:1034B00029F48091B0008F7D8093B000E32FF0E07D
:1034C000E154FA4FE491F0E0662329F4808190956D
:1034D0008923808308958081892B80830895482FD4
:1034E00050E0CA018B5C994FFC012491CA018E5FA8
:1034F000994FFC01949141535A4FFA01349133236F
:1035000019F420E030E035C0222331F1233021F4DA
:10351000809180008F7705C0243031F48091800045
:103520008F7D8093800018C0213019F484B58F7787
:1035300004C0223021F484B58F7D84BD0DC02630B7
:1035400021F48091B0008F7705C0273029F4809155
:10355000B0008F7D8093B000E32FF0E0E953FA4F85
:10356000E491F0E0808120E030E0892311F021E057
:1035700030E0C9010895882389F48091680590910D
:10358000690580509E4F20916A0530916B05821B22
:10359000930B60E072E00E94962F089580916C0575
:1035A00090916D0580509E4F20916E0530916F0572
:1035B000821B930B60E072E00E94962F089588238F
:1035C000D1F440916A0550916B0580916805909106
:1035D00069058417950751F1FA01EE5AF54F2081DC
:1035E000CA01019660E072E00E94962F90936B05ED
:1035F00080936A0519C040916E0550916F058091C6
:103600006C0590916D058417950781F0FA01EE5ACB
:10361000F74F2081CA01019660E072E00E94962F68
:1036200090936F0580936E0530E002C02FEF3FEF5F
:10363000C9010895882349F410926B0510926A0518
:103640001092690510926805089510926F05109206
:103650006E0510926D0510926C0508951F920F92E1
:103660000FB60F920BB60F9211242F933F934F93E7
:103670005F936F937F938F939F93AF93BF93EF93DA
:10368000FF934091C600E0916805F0916905CF0174
:10369000019660E072E00E94962F9C0180916A057D
:1036A00090916B052817390739F0EE5AF54F408392
:1036B0003093690520936805FF91EF91BF91AF9119
:1036C0009F918F917F916F915F914F913F912F913A
:1036D0000F900BBE0F900FBE0F901F9018951F926A
:1036E0000F920FB60F920BB60F9211242F933F93A8
:1036F0004F935F936F937F938F939F93AF93BF93FA
:10370000EF93FF934091CE00E0916C05F0916D0531
:10371000CF01019660E072E00E94962F9C0180919B
:103720006E0590916F052817390739F0EE5AF74F5B
:10373000408330936D0520936C05FF91EF91BF910D
:10374000AF919F918F917F916F915F914F913F9139
:103750002F910F900BBE0F900FBE0F901F901895DA
:10376000982F662339F48091C00085FFFCCF909399
:10377000C60008958091C80085FFFCCF9093CE00CD
:103780000895882341F48091C00085FFFCCF8DE02F
:103790008093C60008C08091C80085FFFCCF8DE0F3
:1037A0008093CE0008C08091C00085FFFCCF8AE0E6
:1037B0008093C60008958091C80085FFFCCF8AE001
:1037C0008093CE000895FC0110C03196662339F431
:1037D0008091C00085FFFCCF9093C60006C0809109
:1037E000C80085FFFCCF9093CE009081992369F7A4
:1037F00008952F923F924F925F926F927F928F9295
:103800009F92AF92BF92CF92DF92EF92FF920F936F
:103810001F93DF93CF93CDB7DEB7A1970FB6F89480
:10382000DEBF0FBECDBF6B017C0129013A0109A3A8
:10383000611571058105910591F4002341F4809192
:10384000C00085FFFCCF80E38093C6005BC0809101
:10385000C80085FFFCCF80E38093CE0053C088244E
:10386000992454011E010894211C311C8101080D6A
:10387000191DC701B601A30192010E94A92FF801E9
:1038800060830894811C911CA11CB11CC701B60166
:10389000A30192010E94A92FC901DA016C017D01E7
:1038A000C114D104E104F10409F79101280D391D77
:1038B000BE016F5F7F4FD501C4010197A109B10916
:1038C000AC01481959091BC0FA01E20FF31FE0814E
:1038D000EA3010F4E05D01C0E95CF9A1FF2339F49E
:1038E0008091C00085FFFCCFE093C60006C08091A8
:1038F000C80085FFFCCFE093CE0021503040621716
:10390000730711F7A1960FB6F894DEBF0FBECDBFB7
:10391000CF91DF911F910F91FF90EF90DF90CF90AB
:10392000BF90AF909F908F907F906F905F904F90DF
:103930003F902F900895282F992787FD9095807F9D
:10394000907034E0959587953A95E1F78A301CF0B0
:10395000982F995C02C0982F905D822F8F708A30CB
:103960001CF0282F295C02C0282F205D662339F423
:103970008091C00085FFFCCF9093C60006C0809167
:10398000C80085FFFCCF9093CE00662339F4809168
:10399000C00085FFFCCF2093C60008958091C80029
:1039A00085FFFCCF2093CE0008950F931F938B01CA
:1039B0009C01E42F97FF18C0442341F48091C0007C
:1039C00085FFFCCF8DE28093C60007C08091C800C0
:1039D00085FFFCCF8DE28093CE0030952095109529
:1039E00001951F4F2F4F3F4FC901B8012AE030E02A
:1039F00040E050E00E2F0E94F91B1F910F91089597
:103A0000EF92FF920F931F937B018C014423C1F52A
:103A100088E00E949519C801B70122E030E040E03B
:103A200050E00E94CB2F2050304F414F5F4FCA01D2
:103A3000B901A80197010E94CB2FC901DA010197B2
:103A4000A109B109292F3A2F4B2F552747FD5A9528
:103A50000196A11DB11D2093C50081508093C40023
:103A60008091C10080618093C1008091C100886015
:103A70008093C1008091C10080688093C10037C0ED
:103A800080E10E949519C801B70122E030E040E0D2
:103A900050E00E94CB2F2050304F414F5F4FCA0162
:103AA000B901A80197010E94CB2FC901DA01019742
:103AB000A109B109292F3A2F4B2F552747FD5A95B8
:103AC0000196A11DB11D2093CD0081508093CC00A3
:103AD0008091C90080618093C9008091C90088608D
:103AE0008093C9008091C90080688093C9001F91AC
:103AF0000F91FF90EF9008950E943A1982E196E0AD
:103B00000E943B27853440F081E361E00E94061A61
:103B100081E361E00E94241A82E196E061E070E0B6
:103B20000E9443278130B1F4809138089091390880
:103B3000A0913A08B0913B08906880933808909320
:103B40003908A0933A08B0933B0881E090E060E028
:103B50000E941F3387E20E946F1A892B09F44FC01D
:103B600082E196E060E070E00E9443278A3009F02D
:103B700046C084E795E00E94102484E795E00E9407
:103B8000272284E795E00E94D72380918D05482F56
:103B900050E080918F05481B510980918C05282F9A
:103BA00030E080919005281B3109121613065CF451
:103BB0008CE390E0BC01269FC001279F900D369FAB
:103BC000900D11240EC037FF0EC08CE390E0BC01B5
:103BD000269FC001279F900D369F900D1124805F76
:103BE000914F480F591F4330510548F480914708C1
:103BF000909148088062909348088093470884E732
:103C000095E00E94102484E795E00E94C32084E799
:103C100095E00E94B22084E795E00E94392463E099
:103C200070E080E090E00E94EC188091380890915C
:103C30003908A0913A08B0913B08A1FF5EC063E04B
:103C400070E080E090E00E94EC1886E161E00E9464
:103C5000061A63E070E080E090E00E94EC1886E1D4
:103C600061E00E94241A63E070E080E090E00E942E
:103C7000EC180E94712463E070E080E090E00E9404
:103C8000EC1881E00E944A2463E070E080E090E05C
:103C90000E94EC1884E00E94582463E070E080E009
:103CA00090E00E94EC1880E00E94532463E070E0F2
:103CB00080E090E00E94EC180E94462463E070E0EF
:103CC00080E090E00E94EC1887E096E066E00E94B9
:103CD000902463E070E080E090E00E94EC1886E1C0
:103CE00061E00E94061A86E160E00E94241A63E007
:103CF00070E080E090E00E94EC1863E070E080E00B
:103D000090E00E94EC1882E196E00E94FB2860930C
:103D1000700570937105809372059093730580917F
:103D2000700590917105A0917205B09173050E9484
:103D300076300E94B50B0E945B0AFDCFFC01148A0D
:103D4000158A168A178A108E118E128E138E148E73
:103D5000158E168E178E10A211A212A213A280E049
:103D600090E0A0E0B0E084A395A3A6A3B7A3089534
:103D700010920506109287050895EF92FF920F9317
:103D80001F93DF93CF93CDB7DEB7EC970FB6F894C0
:103D9000DEBF0FBECDBF8C01EBE9F3E065917491FE
:103DA000B5E1EB2EF12CEC0EFD1EC7010E94813017
:103DB000EDE9F3E065917491CE0101960E948130A6
:103DC000D80156968C91843009F46DC0853048F442
:103DD000823069F1833008F048C0813009F000C1B9
:103DE0000AC0863009F49BC0863008F47AC0873058
:103DF00009F0F6C0B2C0EDB7FEB774970FB6F894ED
:103E0000FEBF0FBEEDBF3196075D1F4FADB7BEB70A
:103E100012961C930E9311970952104084E690E07D
:103E200093838283F582E48284E892E0B3C08DB705
:103E30009EB744970FB6F8949EBF0FBE8DBFEDB7E7
:103E4000FEB73196075D1F4FADB7BEB712961C93F4
:103E50000E9311970952104084E690E09383828379
:103E6000F582E48288E892E095C08DB79EB74497CA
:103E70000FB6F8949EBF0FBE8DBFEDB7FEB731965B
:103E8000075D1F4FADB7BEB712961C930E931197E7
:103E90000952104084E690E093838283F582E482A5
:103EA0008CE892E077C08DB79EB744970FB6F89430
:103EB0009EBF0FBE8DBFEDB7FEB73196075D1F4F9A
:103EC000ADB7BEB712961C930E93119709521040CE
:103ED00084E690E093838283F582E48280E992E035
:103EE00059C08DB79EB744970FB6F8949EBF0FBECA
:103EF0008DBFEDB7FEB73196075D1F4FADB7BEB7AB
:103F000012961C930E9311970952104084E690E08C
:103F100093838283F582E48284E992E03BC08DB78B
:103F20009EB744970FB6F8949EBF0FBE8DBFEDB7F6
:103F3000FEB73196075D1F4FADB7BEB712961C9303
:103F40000E9311970952104084E690E09383828388
:103F5000F582E48288E992E01DC08DB79EB7449750
:103F60000FB6F8949EBF0FBE8DBFEDB7FEB731966A
:103F7000075D1F4FADB7BEB712961C930E931197F6
:103F80000952104084E690E093838283F582E482B4
:103F90008CE992E097838683D80154968C9154974C
:103FA0008087118655968C915597828713865A96ED
:103FB0008C915A978487158657968C915797868748
:103FC000178658968C915897808B118A59968C91A8
:103FD000828B138A0E94C330EDB7FEB774961DC062
:103FE00000D000D000D0EDB7FEB73196075D1F4F6F
:103FF000ADB7BEB712961C930E931197095210409D
:1040000084E690E093838283CE0101969583848336
:104010000E94C330EDB7FEB736960FB6F894FEBFD8
:104020000FBEEDBF9801275D3F4FC901EC960FB65B
:10403000F894DEBF0FBECDBFCF91DF911F910F91DE
:10404000FF90EF9008951F93CF93DF93EC01162F0D
:1040500080915F06882321F489E596E00E94B22AC8
:1040600089E596E068E670E00E94252989E596E0FA
:10407000612F0E943F2AC10FD11D89E596E068811A
:104080000E943F2A89E596E00E946E2ADF91CF9137
:104090001F910895FF920F931F93CF93DF938C018D
:1040A000F62E80915F06882321F489E596E00E9430
:1040B000B22A89E596E068E670E00E94252989E544
:1040C00096E06F2D0E943F2A89E596E00E946E2AB5
:1040D00089E596E068E670E041E050E00E94AF2A92
:1040E000C0E0D0E089E596E00E942F29882329F4DA
:1040F000CA30D10511F02196F5CF89E596E00E94EE
:1041000035290F0D111DF801808389E596E00E9485
:104110006E2ADF91CF911F910F91FF9008950F9319
:104120001F938C016FE00E944A20F80187858370FD
:104130001F910F910895CF93DF93EC010E948F2080
:10414000882319F0CE56DF4F8883809183058C7FBA
:104150008093830584E795E06FE00E942320DF9140
:10416000CF9108950F931F938C016EE00E944A2017
:10417000F80186858D7F8687C8016EE00E94232026
:104180001F910F9108950F931F938C016EE00E9471
:104190004A20F80186858E7F8687C8016EE00E94DE
:1041A00023201F910F910895AF92BF92CF92DF927B
:1041B000FF920F931F93CF93DF938C01F62E809184
:1041C0005F06882321F489E596E00E94B22A89E5FA
:1041D00096E068E670E00E94252989E596E060E0B7
:1041E00070E00E946B2A89E596E00E946E2A89E5BC
:1041F00096E068E670E043E150E00E94AF2AC0E03C
:10420000D0E0CC24DD24AF2CBB245AE0F52E0DC128
:1042100089E596E00E942F29882309F403C189E5E6
:1042200096E00E943529282FF801EC0FFD1F8083AE
:10423000C630D10509F482C0C730D105B8F4C23008
:10424000D10509F44EC0C330D10538F4209769F187
:10425000C130D10509F0E4C036C0C430D10509F43D
:1042600051C0C530D10508F05BC049C0CA30D10586
:1042700009F49BC0CB30D10558F4C830D10509F4FE
:1042800078C090E02F70C930D10508F081C064C0BB
:10429000CC30D10509F4A7C0CC30D10508F494C0C6
:1042A000CD30D10509F0BCC0ADC090E044E095959B
:1042B00087954A95E1F78F9DC00111242F70280F33
:1042C000F801218FADC090E034E0959587953A953F
:1042D000E1F78F9DC00111242F70280FF801208F66
:1042E0009FC090E0B4E095958795BA95E1F78F9DD2
:1042F000C00111242F70280FF801278B91C0F801FD
:10430000868B8EC090E0A4E095958795AA95E1F7FD
:104310008F9DC00111242F70280FF801228F80C0BB
:1043200090E0F4E095958795FA95E1F78F9DC001AF
:1043300011242F70280FF801258B72C090E0E4E063
:1043400095958795EA95E1F78F9DC00111242F700F
:10435000280FF801248B64C074E0959587957A95B1
:10436000E1F787708F9DC0011124280FF801238F7A
:1043700057C090E064E0959587956A95E1F787705E
:104380008F9DC00111242F70280FF801248F48C081
:1043900054E0959587955A95E1F783708F9DC001FC
:1043A0001124280FF801258F3BC090E044E095953B
:1043B00087954A95E1F783708F9DC00111242F7076
:1043C000280FF801268F2CC090E034E09595879552
:1043D0003A95E1F787708F9DC00111242F70280F47
:1043E000F801278F1DC090E0B4E095958795BA95A8
:1043F000E1F783708F9DC00111242F70280FF80101
:1044000020A30EC090E0A4E095958795AA95E1F7CA
:1044100083708F9DC00111242F70280FF80121A3F4
:10442000219603C00894C11CD11CAC16BD0628F00F
:10443000FAE0CF16D10408F4EBCEDF91CF911F91B3
:104440000F91FF90DF90CF90BF90AF900895AF9203
:10445000BF92CF92DF92EF92FF920F931F93DF9361
:10446000CF93CDB7DEB7C857D0400FB6F894DEBFB4
:104470000FBECDBF6C016AE00E94D42049E2A42E99
:10448000B12CAC0CBD1C84E6D5011D928A95E9F7D0
:10449000E9E7F3E0659174918E010F5F1F4FC8014A
:1044A0000E948130C501B8010E94A530F60182A1A9
:1044B000823009F476C0833030F4882371F0813083
:1044C00009F03CC11AC0843009F4F2C0843008F409
:1044D000AEC0853009F032C127C1EBE7F3E065914A
:1044E0007491C8010E948130C501B8010E94A530B5
:1044F000E9E8F3E0659174910FC0EDE7F3E06591B1
:104500007491C8010E948130C501B8010E94A53094
:10451000E9E8F3E0659174918E01075D1F4FC801D2
:104520000E9481308DB79EB70E970FB6F8949EBF4C
:104530000FBE8DBFEDB7FEB7319631E5E32EF12CFE
:10454000EC0EFD1EADB7BEB71296FC92EE9211971F
:1045500088E290E09383828315830483D6015E967C
:104560008C915E97868317825D968C915D9780878C
:1045700011865C968C915C97828713865B968C91F2
:10458000848715860E94C330EDB7FEB73E960FB6FE
:10459000F894FEBF0FBEEDBFC501B7010E94A53064
:1045A000F3C0EFE7F3E065917491C8010E94813098
:1045B000C501B8010E94A530EBE8F3E06591749164
:1045C0008E01075D1F4FC8010E9481308DB79EB7D5
:1045D0000C970FB6F8949EBF0FBE8DBFEDB7FEB718
:1045E000319621E5E22EF12CEC0EFD1EADB7BEB7E3
:1045F0001296FC92EE92119788E290E09383828368
:1046000015830483D6015D968C915D97868317820E
:104610005C968C915C97808711865B968C918287E3
:1046200013860E94C330EDB7FEB73C96B0CFE1E8E9
:10463000F3E065917491C8010E948130C501B80111
:104640000E94A530EDE8F3E0659174918E01075D5D
:104650001F4FC8010E9481308DB79EB70A970FB6D1
:10466000F8949EBF0FBE8DBFEDB7FEB7319691E5B2
:10467000E92EF12CEC0EFD1EADB7BEB71296FC92E2
:10468000EE92119788E290E09383828315830483EE
:10469000D6015C968C915C97868317825B968C9191
:1046A000808711860E94C330EDB7FEB73A966FCF70
:1046B000E3E8F3E065917491C8010E948130C5017F
:1046C000B8010E94A530EFE8F3E0659174918E0186
:1046D000075D1F4FC8010E9481308DB79EB70897B4
:1046E0000FB6F8949EBF0FBE8DBFEDB7FEB73196E3
:1046F00081E5E82EF12CEC0EFD1EADB7BEB712968B
:10470000FC92EE92119788E290E093838283158366
:104710000483D6015B968C91868317820E94C330F6
:10472000EDB7FEB7389633CFE5E8F3E065917491C5
:10473000C8010E948130C501B80130CFE7E8F3E03D
:10474000659174918E010F5F1F4FC8010E948130E7
:1047500000D000D000D0EDB7FEB73196ADB7BEB7F0
:104760001296BC92AE92119784E690E09383828376
:10477000158304830E94C330EDB7FEB736960FB69B
:10478000F894FEBF0FBEEDBFC501C858DF4F0FB68E
:10479000F894DEBF0FBECDBFCF91DF911F910F9177
:1047A000FF90EF90DF90CF90BF90AF9008950F9360
:1047B0001F938C0166E00E94D420C8010E94BD1E98
:1047C0001F910F9108950F931F93CF93DF93EC01E7
:1047D000042F68A780E361E00E94061A18A5112340
:1047E00079F0113091F480E361E00E94241A0130E5
:1047F00019F482E08B8B09C0002339F41B8B05C0B0
:1048000080E360E00E94241A1B8A6AE070E080E086
:1048100090E00E94EC18DF91CF911F910F910895C5
:104820000F931F938C0161E040E00E94E323C801D5
:104830000E949B20C8010E949E1EC8016DE00E943C
:10484000D4208BE261E00E94061A8BE260E00E94B5
:10485000241A1F910F91089580915F06882341F0DB
:1048600080917506882321F48AE796E00E94252E20
:1048700008950F931F938C010E942C24C80160E0BF
:1048800040E00E94E3231F910F9108958CB58F7B28
:104890008CBD0895882319F48CB5806202C08CB554
:1048A0008F7D8CBD08959CB5937F982B9CBD0895FA
:1048B0009CB5282F23709C7F292B2CBD9DB5817022
:1048C0009E7F982B9DBD08951092080610920706B2
:1048D0001092090610920A0610920B0610920C060E
:1048E00008958EE161E00E94061A8FE161E00E9466
:1048F000061A8DE161E00E94061A8EE160E00E94D6
:10490000241A8FE160E00E94241A8DE161E00E9488
:10491000241A8CB580618CBD8CB580648CBD0895E3
:104920001F93162F8DE161E00E94061A82E261E07A
:104930000E94061A8DE161E00E94241A82E261E081
:104940000E94241A8091380890913908A0913A0861
:10495000B0913B08A2FF08C088E061E00E94061AFF
:1049600088E061E00E94241A80913808909139080B
:10497000A0913A08B0913B0896FF08C089E061E039
:104980000E94061A89E061E00E94241A809138088A
:1049900090913908A0913A08B0913B08A3FF08C054
:1049A00082E061E00E94061A82E061E00E94241A1F
:1049B0008091380890913908A0913A08B0913B084D
:1049C000A4FF08C082E261E00E94061A82E261E070
:1049D0000E94241A1330C9F0143028F4113069F001
:1049E000123068F408C0153041F11530D0F016309F
:1049F00009F062C02FC08DE12BC082E229C082E1A4
:104A000096E00E9493278CE223C080913808909111
:104A10003908A0913A08B0913B08A2FF4DC088E048
:104A200017C08091380890913908A0913A08B09148
:104A30003B0896FF41C089E00BC0809138089091F7
:104A40003908A0913A08B0913B08A3FF35C082E035
:104A500060E030C08DE161E00E94241A82E261E0F2
:104A60000E94241A8091380890913908A0913A0840
:104A7000B0913B08A2FF04C088E061E00E94241AC4
:104A80008091380890913908A0913A08B0913B087C
:104A900096FF04C089E061E00E94241A80913808E2
:104AA00090913908A0913A08B0913B08A3FF04C047
:104AB00082E061E00E94241A1F91089510920D0671
:104AC0000895CF93DF93EC018091380890913908D5
:104AD000A0913A08B0913B0882FF0BC063E070E000
:104AE00080E090E00E94EC188BE061E00E94241AC4
:104AF00006C063E070E080E090E00E94EC188981DD
:104B00008093C5008A818093C4008B818093C2000A
:104B10008C818093CA00DF91CF910895DC01809150
:104B2000C50011968C9311978091C40012968C93B6
:104B30001297E2ECF0E0808113968C9313978091AA
:104B4000CA0014968C93149780818F7D8083808116
:104B50008F7E80838081877F808360E072EC81E03C
:104B600090E04C910E94001D87E161E00E94241AB0
:104B70008BE060E00E94241A0895FF920F931F9328
:104B80008C01F62E0E948E258F2D60E00E949B1CCA
:104B9000C8010E9461251F910F91FF9008950F9306
:104BA0001F938C010E948E25F80180810E94C11BF9
:104BB000C8010E9461251F910F910895EF92FF9205
:104BC0000F931F93CF93DF93EC01162F072F0E94B3
:104BD0008E25212F302FC9018C0188EEE82E83E02D
:104BE000F82EE00EF11EF8010F5F1F4F849188230D
:104BF00031F068810E94B01B0E151F05A1F7CE0190
:104C00000E94612560E070E080E090E0DF91CF914C
:104C10001F910F91FF90EF900895CF92DF92EF9246
:104C2000FF920F931F938C010E94DE25F62EE72E34
:104C3000D82EC92EC8010E94CF256F2D7E2D8D2D17
:104C40009C2D1F910F91FF90EF90DF90CF900895D2
:104C5000EF92FF920F931F938C017B010E948E2590
:104C6000C701F80160810E94E31BF80180810E9466
:104C7000C11BC8010E9461251F910F91FF90EF9009
:104C80000895EF92FF920F931F938C017B010E9476
:104C90008E25C701F80160810E94E31BC8010E94B4
:104CA00061251F910F91FF90EF900895CF92DF92B1
:104CB000EF92FF920F931F93CF93DF937C018A01B2
:104CC000D62EC72EE9010E948E25209731F4802F21
:104CD000F70160810E94B01B17C0CA30D10541F4B2
:104CE000B8018D2D9C2DF70140810E94D51C0CC070
:104CF0009E01442737FD4095542FB8018D2D9C2DE2
:104D0000F70100810E94F91BF70180810E94C11BFD
:104D1000C7010E946125DF91CF911F910F91FF90F4
:104D2000EF90DF90CF900895CF92DF92EF92FF92B5
:104D30000F931F93CF93DF937C018A01D62EC72E4A
:104D4000E9010E948E25209731F4802FF7016081C0
:104D50000E94B01B17C0CA30D10541F4B8018D2D97
:104D60009C2DF70140810E94D51C0CC09E01442758
:104D700037FD4095542FB8018D2D9C2DF7010081F2
:104D80000E94F91BC7010E946125DF91CF911F91FD
:104D90000F91FF90EF90DF90CF9008950F931F93A6
:104DA000CF93DF938B01BA01DA0140E050E0C22FCC
:104DB000D0E019C0F801E40FF51F8081982F92957B
:104DC0009F708F709A3010F4905D01C0995C9C9335
:104DD0008A3010F4805D01C0895C11968C93119724
:104DE0004F5F5F4F12964C175D0724F3CC0FDD1F0A
:104DF000C60FD71F1882DF91CF911F910F91089591
:104E0000FB019081892F80538A3038F4292F332772
:104E100027FD3095205330400DC0892F81548630B6
:104E200018F020E030E007C0292F332727FD309508
:104E30002753304031966081862F80538A3030F47A
:104E4000772767FD7095605370400CC0862F8154A2
:104E5000863018F060E070E005C0772767FD709538
:104E60006753704094E0220F331F9A95E1F7862F25
:104E7000820F089508958FED90E00E9411338F3FC7
:104E800009F480E00895CB010E941133089584E075
:104E90006030780724F0CB01642F0E941F330895FF
:104EA000CF92DF92EF92FF920F931F93CF93DF93F6
:104EB0006A01EB0109900020E9F72197C61BD70B87
:104EC000D695C7957B0100E010E00FC082E196E027
:104ED000B7010E940027F601E00FF11F80830F5FEA
:104EE0001F4F82E090E0E80EF91E0C171D0770F3CB
:104EF000CE01DF91CF911F910F91FF90EF90DF9046
:104F0000CF90089587E161E00E94061A8BE061E08E
:104F10000E94061A87E161E00E94241A8BE061E09A
:104F20000E94241A089587E161E00E94061A84E233
:104F300061E00E94061A85E261E00E94061A87E19C
:104F400061E00E94241A84E261E00E94241A85E252
:104F500061E00E94241A08950F931F93162F042FC7
:104F6000862F61E00E94061A013019F4812F61E05A
:104F700004C0002321F4812F60E00E94241A1F91B5
:104F80000F9108952F923F924F925F926F927F926E
:104F90008F929F92AF92BF92CF92DF92EF92FF9249
:104FA0000F931F93DF93CF93CDB7DEB7C75FD0408A
:104FB0000FB6F894DEBF0FBECDBF2DB63EB68DB78F
:104FC0009EB708970FB6F8949EBF0FBE8DBFADB6C3
:104FD000BEB60894A11CB11C7501CC24DD244E0181
:104FE0000894811C911CCE0180599F4FAEEF4A2E30
:104FF000AFEF5A2E480E591EF0E16F2E712C680E3D
:10500000791EDE01A052BF4FC051DF4FB983A88384
:10501000C05FD040FE013E96CE50DF4FF983E8835B
:10502000C25FD040C4016DE00E94162D82E196E07F
:105030006CE040E00E94AC2782E196E06DE040E049
:105040000E94AC27D7011D921D921D921C921397AE
:105050008CE061E00E94061A8CE061E00E94241A54
:10506000C4010E944E2D82E196E06DE041E00E9475
:10507000AC276AE070E080E090E00E94EC18C40188
:1050800063E340E00E94D62C62E370E080E090E0B1
:105090000E94EC188E0102511F4FC4010E946E2C19
:1050A000F8018083118261E070E080E090E00E946E
:1050B000EC18025010400415150579F7F301DE01D4
:1050C0005096819191918D939D93C051DF4F88812E
:1050D0009981C05FD040E817F90799F7BE0162597E
:1050E0007F4F21E030E040E050E0DB018D919C916A
:1050F000019779F4D7018D919D910D90BC91A02DD0
:10510000820F931FA41FB51FF70180839183A28391
:10511000B38362507040CE50DF4F88819981C25F67
:10512000D0406817790729F0220F331F441F551FFD
:10513000DCCFF70180819181A281B3818F5F9F4F86
:10514000AF4FBF4F31F4D7011D921D921D921C929B
:1051500013978CE060E00E94241A82E196E06CE0F4
:1051600040E00E94AC2782E196E06DE040E00E94C2
:10517000AC270894C11CD11CE4E0F0E0EE0EFF1E49
:10518000F2E0CF16D10409F04DCFD5012D913D911C
:105190004D915C91139714968D919D910D90BC91BA
:1051A000A02D281739074A075B0721F020E030E0DF
:1051B00040E050E0B901CA010FB6F8943EBE0FBE00
:1051C0002DBEC950DF4F0FB6F894DEBF0FBECDBF66
:1051D000CF91DF911F910F91FF90EF90DF90CF90D3
:1051E000BF90AF909F908F907F906F905F904F9007
:1051F0003F902F900895EF92FF920F931F930E947C
:10520000C2277B018C016115710581059105B1F4FF
:1052100083EE90E00E9419336A302AE072072AE098
:1052200082072AE0920751F06F3F2FEF72072FEFAE
:1052300082072FEF920711F07B018C01B701C801A3
:105240001F910F91FF90EF90089581E08093580691
:105250006093350610925606109257060895809175
:10526000340690913306891B0895909133068091FE
:105270003406981710F080E00895E92FF0E0ED5E15
:10528000F94F80819F5F90933306089510926006D6
:105290001092590610925A068AEF90E0A0E0B0E012
:1052A00080935B0690935C06A0935D06B0935E06C8
:1052B0000895CF93DF93EC018091380890913908DD
:1052C000A0913A08B0913B0884FD3CC08091380819
:1052D00090913908A0913A08B0913B0885FD32C001
:1052E0008091380890913908A0913A08B0913B0814
:1052F00086FD28C08091380890913908A0913A081D
:10530000B0913B0887FD1EC0809138089091390804
:10531000A0913A08B0913B0890FD14C080913808E4
:1053200090913908A0913A08B0913B0891FD0AC0CC
:105330008091380890913908A0913A08B0913B08C3
:1053400093FF1DC080916006882339F48AE796E0B8
:1053500060E041E00E94C92D0CC08981882331F4AE
:105360008AE796E060E041E00E94C92D88818823A9
:1053700031F48AE796E061E041E00E94C92DDF91B7
:10538000CF910895FC018091380890913908A0913F
:105390003A08B0913B0881709070A070B070808323
:1053A0008091380890913908A0913A08B0913B0853
:1053B000B695A795979587958170818380913808D8
:1053C00090913908A0913A08B0913B0884FD3CC007
:1053D0008091380890913908A0913A08B0913B0823
:1053E00085FD32C08091380890913908A0913A0823
:1053F000B0913B0886FD28C080913808909139080B
:10540000A0913A08B0913B0887FD1EC080913808F2
:1054100090913908A0913A08B0913B0890FD14C0D2
:105420008091380890913908A0913A08B0913B08D2
:1054300091FD0AC08091380890913908A0913A08EE
:10544000B0913B0893FF10C080916006882361F4FF
:105450008AE796E060E040E00E94C92D8AE796E086
:1054600061E040E00E94C92D08950F931F938C01C5
:105470000E943615F80116821F910F910895DF934F
:10548000CF930F92CDB7DEB76983809158068823FA
:1054900089F0809157068032D0F480915606E82F2B
:1054A000F0E0EA5CF94F60838F5F8093560680934B
:1054B00057060DC089E596E00E94C229CE010196EB
:1054C00061E00E941B1589E596E00E9459290F9022
:1054D000CF91DF9108950E943F2A0895FF920F9384
:1054E0001F9309E516E0C8010E94C2298091350684
:1054F00066E376E04091570621E00E945B17F82EA4
:10550000109256061092570610925806C8010E9433
:1055100059298F2D1F910F91FF900895FF920F939E
:105520001F93F62E142F89E596E00E94C229012FC1
:10553000113208F000E28F2D63E176E0402F0E94E7
:10554000C017182F109233060093340689E596E0B1
:105550000E945929812F1F910F91FF9008950E9459
:105560008E2A08950F931F938C0180E2E3E1F6E009
:10557000DF01982F1D929A95E9F710923306109249
:105580003406E6E3F6E0DF011D928A95E9F7109212
:105590005606109257060E948D1581E0F801868309
:1055A00084E090E00E9416191F910F9108951F92B8
:1055B0000F920FB60F920BB60F9211242F933F93B9
:1055C0004F935F936F937F938F939F93AF93BF930B
:1055D000EF93FF938091610690916206892B29F0E9
:1055E000E0916106F09162060995FF91EF91BF91FC
:1055F000AF919F918F917F916F915F914F913F916B
:105600002F910F900BBE0F900FBE0F901F9018950B
:105610001F920F920FB60F920BB60F9211242F9379
:105620003F934F935F936F937F938F939F93AF932A
:10563000BF93EF93FF938091630690916406892B4B
:1056400029F0E0916306F09164060995FF91EF91CE
:10565000BF91AF919F918F917F916F915F914F918A
:105660003F912F910F900BBE0F900FBE0F901F9088
:1056700018951F920F920FB60F920BB60F9211242E
:105680002F933F934F935F936F937F938F939F934A
:10569000AF93BF93EF93FF93809165069091660659
:1056A000892B29F0E0916506F09166060995FF9136
:1056B000EF91BF91AF919F918F917F916F915F918A
:1056C0004F913F912F910F900BBE0F900FBE0F90F7
:1056D0001F9018951F920F920FB60F920BB60F9254
:1056E00011242F933F934F935F936F937F938F93E7
:1056F0009F93AF93BF93EF93FF9380916706909131
:105700006806892B29F0E0916706F09168060995F3
:10571000FF91EF91BF91AF919F918F917F916F9189
:105720005F914F913F912F910F900BBE0F900FBE45
:105730000F901F9018951F920F920FB60F920BB6F5
:105740000F9211242F933F934F935F936F937F9307
:105750008F939F93AF93BF93EF93FF9380916906CD
:1057600090916A06892B29F0E0916906F0916A060A
:105770000995FF91EF91BF91AF919F918F917F918B
:105780006F915F914F913F912F910F900BBE0F90B2
:105790000FBE0F901F9018951F920F920FB60F9289
:1057A0000BB60F9211242F933F934F935F936F93F8
:1057B0007F938F939F93AF93BF93EF93FF938091CA
:1057C0006B0690916C06892B29F0E0916B06F091A5
:1057D0006C060995FF91EF91BF91AF919F918F91C9
:1057E0007F916F915F914F913F912F910F900BBEE1
:1057F0000F900FBE0F901F9018951F920F920FB62B
:105800000F920BB60F9211242F933F934F935F93F8
:105810006F937F938F939F93AF93BF93EF93FF9378
:1058200080916D0690916E06892B29F0E0916D06AE
:10583000F0916E060995FF91EF91BF91AF919F9105
:105840008F917F916F915F914F913F912F910F9029
:105850000BBE0F900FBE0F901F9018951F920F92C6
:105860000FB60F920BB60F9211242F933F934F93C5
:105870005F936F937F938F939F93AF93BF93EF93B8
:10588000FF9380916F0690917006892B29F0E0912B
:105890006F06F09170060995FF91EF91BF91AF915E
:1058A0009F918F917F916F915F914F913F912F9138
:1058B0000F900BBE0F900FBE0F901F901895109277
:1058C000760682E0809372068CE18093770680EC06
:1058D00091E090937906809378060895DF92EF9295
:1058E000FF920F931F93FC01E08001811281F894D5
:1058F000F80181818E2981838281DE2CD0948D21D3
:10590000828382E090E00E941619F80181818D2146
:10591000818387E090E00E941619F8010081789455
:105920008DE290E00E94161980E010E0FF240E2125
:105930001F21012B09F081E01F910F91FF90EF9043
:10594000DF9008951F93CF93DF93FC011081C181F5
:10595000D281912F909560FF12C0F8948A8189239B
:105960008A838981812B898389E090E00E941619BE
:105970008A81812B8A8378948FE290E011C0F89419
:105980008A8189238A838981812B898387E390E0B7
:105990000E9416198A81812B8A83789485E090E091
:1059A0000E941619DF91CF911F910895CF92DF9237
:1059B000EF92FF920F931F93CF93DF938C01E42E0E
:1059C000FF24F394C0E0D0E0C62EDD2460E08F2DEC
:1059D00090E08C219D21892B09F061E0C8010E9493
:1059E000A22CFF0C2196C830D10581F7EE20A9F436
:1059F000F894D8011196ED91FC91129791818C91B8
:105A00008095982391831196ED91FC911297928144
:105A10008C918095982392837894DF91CF911F91F8
:105A20000F91FF90EF90DF90CF9008950F931F9309
:105A30008C01862FD8011E966C9360E00E94061A96
:105A4000D8011E96EC911E978E2F90E0FC01EE5F20
:105A5000F94FE491EC9381539A4FFC018491E82F24
:105A6000F0E0E953FA4FE4911196EC9311971296F6
:105A70001C9212971B961C921B971D961C921D97A9
:105A80001C961C92F80187E090E0128631970097EF
:105A900011F00197FACF1F910F910895CF92DF92E5
:105AA000EF92FF920F931F93CF93DF93EC018E85BC
:105AB00060E00E94061A0E9456187B018C018DE757
:105AC000D82EDA942FEFD21609F441C082E090E08C
:105AD0000E9416190E9456186E157F0580079107BF
