:100000000C9468050C94A6330C94D7330C940834E4
:100010000C9439340C946A340C949B340C94CC3486
:100020000C94FD340C9490050C9490050C94900560
:100030000C941A210C9490050C9490050C947C1F40
:100040000C9490050C9490050C9490050C949005DC
:100050000C9490050C9490050C9490050C94571FEB
:100060000C9490050C9479220C9490050C949005B6
:100070000C9490050C9490050C9490050C949005AC
:100080000C9490050C9490050C9490050C9490059C
:100090000C94BA220C9490050C9490050C94511D6C
:1000A0000C9490050C9490050C9490050C9490057C
:1000B0000C9490050C9490050C9490050C9490056C
:1000C0000C9490050C9490050C94900507634236AF
:1000D000B79BD8A71A39685618AEBAAB558C1D3CD9
:1000E000B7CC5763BD6DEDFD753EF6177231BF009D
:1000F0000000803F08000000BE922449123EABAAD7
:10010000AA2ABECDCCCC4C3E00000080BEABAAAA31
:10011000AA3E00000000BF000000803F0000000079
:1001200000084178D3BB4387D1133D190E3CC3BDB2
:100130004282AD2B3E68EC8276BED98FE1A93E4C5F
:1001400080EFFFBE01C4FF7F3F0000000000446558
:1001500076696365206E6F7420666F756E643A20F1
:10016000004E4F5420436F6E6E65637465640044A7
:100170006973636F6E6E65637465642E0054656D9C
:100180007065726174757265206D656173757265F5
:100190006D656E742070757420746F20736C656566
:1001A00070004661696C656420737562736372697F
:1001B00062696E672E004E6F746966696361746967
:1001C0006F6E2072656365697665642E005761699C
:1001D00074696E67206576656E74732E2E2E0052DC
:1001E000656164696E6720617474726962757465B3
:1001F0002E2E200045787465726E2074656D7065D2
:10020000726174757265206D6561737572656D6577
:100210006E7420696E2070726F67726573732E2E14
:100220000057726974696E672061747472696275CF
:1002300074652E2E20004174747269627574652095
:1002400056616C756520284153434949293A20007D
:100250004174747269627574652056616C75653A93
:10026000200052656164696E67206174747269620E
:100270007574652E2E200045787465726E20646555
:100280007669636520666F756E642E20436F6E6EAF
:10029000656374696E672E2E2E2000466972737432
:1002A000207363616E20666F722065787465726E6C
:1002B0002064657669636500496E7465726E2064BA
:1002C0006576696365206E6F7420666F756E643A3B
:1002D00020004E4F5420436F6E6E6563746564005A
:1002E000496E7465726E2064657669636520646921
:1002F00073636F6E6E65637465642E004C69676826
:100300007420696E74656E73697479206D656173AC
:100310007572656D656E742070757420746F2073CE
:100320006C656570004661696C6564207375627305
:1003300063726962696E672E004E6F7469666963E5
:100340006174696F6E2072656365697665642E00FD
:1003500057616974696E67206576656E74732E2EB9
:100360002E0052656164696E6720617474726962FF
:100370007574652E2E20004C6967687420696E7450
:10038000656E73697479206D6561737572656D65ED
:100390006E7420696E2070726F67726573732E2E93
:1003A0000057726974696E6720617474726962754E
:1003B00074652E2E200054656D70657261747572BF
:1003C00065206D6561737572656D656E74207075FD
:1003D0007420746F20736C656570004661696C658C
:1003E00064207375627363726962696E672E004E72
:1003F0006F74696669636174696F6E2072656365A5
:10040000697665642E0057616974696E6720657648
:10041000656E74732E2E2E0052656164696E6720BE
:100420006174747269627574652E2E2000496E7451
:1004300065726E2054656D706572617475726520A9
:100440006D6561737572656D656E7420696E20707F
:10045000726F67726573732E2E0057726974696EBE
:1004600067206174747269627574652E2E20004174
:1004700074747269627574652056616C75652028A4
:100480004153434949293A200041747472696275A5
:1004900074652056616C75653A2000526561646927
:1004A0006E67206174747269627574652E2E200007
:1004B000496E7465726E2064657669636520666F47
:1004C000756E642E20436F6E6E656374696E672E61
:1004D0002E2E20004669727374207363616E20664D
:1004E0006F7220696E7465726E20646576696365EB
:1004F00000536D61727457696E646F7773003605CF
:100500003F054D05720586059305A705BB05220627
:1005100056066E0679068A069B06AE06BB06424C58
:1005200045206D6F64756C65206E6F742064657412
:1005300065637465640030303030303730430053C9
:1005400063616E20706172616D733A2000312530F5
:10055000327825303278253032782530327825309F
:100560003278253032783B2025643B2025753B0DC1
:100570000A00443A25782578257825782578257845
:100580003B2025642C003B20496E6465783D257531
:100590000D0A0053746F70206661696C2E206572BD
:1005A000723A2025780A005363616E206661696C97
:1005B0002E206572723A2025780A005363616E20FE
:1005C000706172616D733A20474150206D6F6465B0
:1005D0003D25753B207363616E5F696E746572764D
:1005E000616C3D25753A207363616E5F77696E6457
:1005F0006F773D25753B207363616E5F6475706C2A
:1006000069636174655F66696C746572696E673D84
:1006100025753B205458506F7765723D25753B0D0D
:100620000A004465766963652025753B20253032D4
:1006300078253032782530327825303278253032BE
:1006400078253032783B20525353493A25643B2079
:100650004E616D653A006572726F722077726974CF
:10066000696E672E206572723A2025780A0009208B
:1006700065633A2025780D0A0041444376616C2871
:10068000484558293A25780D0A0041444376616C63
:1006900028444543293A25640D0A004144435661E4
:1006A0006C6D5628444543293A25730D0A00546160
:1006B00028444543293A25730D0A00417474726930
:1006C0006275746520257520496E6469636174657F
:1006D00064210D0A004C0760078607AD07CD07E5CA
:1006E00007F307030818082E083F084B0852086F45
:1006F000088D08A308B108C108E408EA0857726F1A
:100700006E672074696D6520666F726D61742E204E
:100710004D757374206265202264643A68683A6D8E
:100720006D220057726F6E672074696D6520666F69
:10073000726D61742E204D75737420626520226481
:10074000643A68683A6D6D3A73732200416C617265
:100750006D204D6F6465206D617463686573200062
:100760005B446179203A20686F757273203A206D7E
:10077000696E75746573203A207365636F6E647378
:100780005D202D3E20005B44617465203A20686F37
:10079000757273203A206D696E75746573203A2006
:1007A0007365636F6E64735D202D3E20005B486F40
:1007B000757273203A206D696E75746573203A20E6
:1007C0007365636F6E64735D202D3E20005B4D6921
:1007D0006E75746573203A207365636F6E64735D24
:1007E000202D3E20005B5365636F6E64735D202D8A
:1007F0003E20004F6E636520706572207365636FE5
:100800006E6400496E636F727265637420616C611F
:10081000726D206D6F6465005B253032753A25304E
:1008200032753A253032753A253032755D005B25D8
:100830003032753A253032753A253032755D005BBD
:10084000253032753A253032755D005B25303275C2
:100850005D005B446179203A20686F757273203ABD
:10086000206D696E75746573205D202D3E20005BE0
:1008700044617465203A20686F757273203A206D68
:10088000696E75746573205D202D3E20005B486F96
:10089000757273203A206D696E757465735D202DD5
:1008A0003E20005B4D696E757465735D202D3E20A2
:1008B000004F6E636520706572206D696E7574659A
:1008C0000025732C20253032752F253032752F25C9
:1008D0003032752C20253032753A253032753A2564
:1008E000303275006572726F720025303275256383
:1008F00025303275256325303275256325303275F4
:100900002563253032752563253032752563253002
:10091000327500002124272A2D3033002225282B70
:100920002E313400202326292C2F320505050503FE
:100930000303030101010404030606060606060676
:10094000060104050105010302020202020201027E
:100950000205050404030404010304070707010258
:1009600008101020408004081020400202040810E3
:100970002040800102802040042001010204081070
:100980002001408040800102080408800410040215
:100990000100000809000000000000000000000045
:1009A0000000000000000000000000000000000047
:1009B0000000000000000000000000000000000037
:1009C0000000000000407A10F35A00A0724E18098F
:1009D0000010A5D4E80000E87648170000E40B54A6
:1009E000020000CA9A3B000000E1F5050000809675
:1009F0009800000040420F000000A08601000000A7
:100A0000102700000000E803000000006400000060
:100A100000000A00000000000100000000002C7629
:100A2000D888DC674F0823DFC1DFAE59E1B1B79644
:100A3000E5E3E453C63AE651997696E8E6C28426A1
:100A4000EB898C9B62ED407C6FFCEFBC9C9F40F27D
:100A5000BAA56FA5F490055A2AF75C936B6CF967F9
:100A60006DC11BFCE0E40D47FEF520E6B500D0EDBE
:100A7000902E0300943577050080841E0800002026
:100A80004E0A000000C80C333333330F986E1283C4
:100A90001141EF8D2114893BE65516CFFEE6DB1898
:100AA000D1844B381BF77C1D901DA4BBE42420325D
:100AB00084725E228100C9F124ECA1E53D27D013A8
:100AC000E9256D26192C132DF02F15322E3597366A
:100AD00011241FBECFEFD1E2DEBFCDBF14E0A0E0F6
:100AE000B2E0E8E0F2E802C005900D92AC32B10746
:100AF000D9F71CE0ACE2B4E001C01D92A13EB10701
:100B0000E1F71AE0C0EDDAE004C02297FE010E948E
:100B1000E33ACE3BD107C9F70E94C7240C940241A7
:100B20000C940000EF92FF920F93DF93CF93CDB719
:100B3000DEB760970FB6F894DEBF0FBECDBFA82F0B
:100B4000002309F461C07E010894E11CF11C88E0D7
:100B5000F70111928A95E9F729833A834B835C83E5
:100B60006D837E83AF83988780E2801BE82FFF2709
:100B7000E7FDF09549815A816B817C81181684F0DC
:100B800019861A861B861C86882799278E1B9F0B21
:100B900004C0440F551F661F771F8A95D2F728C0DF
:100BA000202F332727FD3095DB01CA01022E04C018
:100BB000880F991FAA1FBB1F0A94D2F789879A87AB
:100BC000AB87BC8704C07695679557954795EA959E
:100BD000D2F78D819E81AF81B88504C0880F991F9F
:100BE000AA1FBB1F2A95D2F7482B592B6A2B7B2BA8
:100BF0004D875E876F87788B29853A854B855C8525
:100C00006D857E85AF8598898A2F60960FB6F8949A
:100C1000DEBF0FBECDBFCF91DF910F91FF90EF9060
:100C20000895AEE5B0E0E7E1F6E00C94AA3AA8E05A
:100C30004E010894811C911CF4016A2E11926A9451
:100C4000E9F729833A834B835C836D837E838F83AB
:100C50009887CE010996FC011192AA95E9F7A98619
:100C6000BA86CB86DC86ED86FE860F87188B2984B4
:100C70003A844B845C84ED84FE840F8518896980F6
:100C80007A808B809C806DA67EA68FA698AA6D80A8
:100C90007E808F809884E114F1040105110509F02C
:100CA000B3C3621473048404950408F03DC100E0EA
:100CB000201600E0300601E0400600E0500688F40F
:100CC0001FEF211631044104510439F030F048E09F
:100CD000E42EF12C012D112D18C0EE24FF248701E4
:100CE00014C020E0221620E0320620E0420621E077
:100CF000520630F038E1E32EF12C012D112D05C004
:100D000020E1E22EF12C012D112DD201C1010E2C7A
:100D100004C0B695A795979587950A94D2F78C50FD
:100D20009D4FDC012C9180E290E0A0E0B0E08E19B4
:100D30009F09A00BB10B7C018D01E21AF10801099A
:100D40001109E114F10401051105A1F10E2C04C0F3
:100D5000220C331C441C551C0A94D2F7A4019301A5
:100D60000E2C04C0220F331F441F551F0A94D2F7C4
:100D700080E290E08E199F096DA47EA48FA498A8AC
:100D800004C096948794779467948A95D2F7622AE0
:100D9000732A842A952AADA4BEA4CFA4D8A804C0DF
:100DA000AA0CBB1CCC1CDD1CEA94D2F7ADA6BEA6D7
:100DB000CFA6D8AA6201EE24FF24CDAADEAAEFAA0C
:100DC000F8AE920181012070307009AF1AAF2BAFDD
:100DD0003CAFC401B301A70196010E946D3A7B01AB
:100DE0008C01C401B3012DA93EA94FA958AD0E94A1
:100DF0006D3AC901DA013C014D01C401B30129ADCD
:100E00003AAD4BAD5CAD0E94273A9B01AC01870126
:100E1000FF24EE24ADA4BEA4CFA4D8A8C601AA275F
:100E2000BB2757016801A82AB92ACA2ADB2AA216B9
:100E3000B306C406D506E0F4089461087108810879
:100E40009108A20CB31CC41CD51CA214B304C40486
:100E5000D50470F0A216B306C406D50648F408946B
:100E60006108710881089108A20CB31CC41CD51C30
:100E7000A21AB30AC40AD50AC601B5012DA93EA912
:100E80004FA958AD0E946D3A7B018C01C601B50196
:100E90002DA93EA94FA958AD0E946D3AC901DA01AA
:100EA0005C016D01C601B50129AD3AAD4BAD5CAD3C
:100EB0000E94273A9B01AC018701FF24EE248DA5F7
:100EC0009EA5AFA5B8A9A070B070E82AF92A0A2B90
:100ED0001B2BE216F30604071507C0F40894A108BB
:100EE000B108C108D108E20CF31C041D151DE21461
:100EF000F3040405150550F0E216F3060407150780
:100F000028F40894A108B108C108D108D301992791
:100F1000882786017501E82AF92A0A2B1B2BE9AAE2
:100F2000FAAA0BAB1CABCFC4211431044104510409
:100F300071F461E070E080E090E020E030E040E0BB
:100F400050E00E946D3AC901DA011C012D0100E058
:100F5000201600E0300601E0400600E0500688F46C
:100F60001FEF211631044104510431F028F048E00C
:100F700050E060E070E017C040E050E060E070E0FA
:100F800012C020E0221620E0320620E0420621E0D6
:100F9000520628F048E150E060E070E004C040E113
:100FA00050E060E070E0D201C101042E04C0B695AB
:100FB000A795979587950A94D2F78C509D4FDC01A1
:100FC0002C91E0E2EE2EF12C012D112DD801C7015C
:100FD000841B950BA60BB70B821B9109A109B109C4
:100FE0000097A105B10561F464015301A218B3088B
:100FF000C408D50831E0632E712C812C912C1EC1C0
:101000006F968FAF6F97082E04C0220C331C441CC0
:10101000551C0A94D2F7EE2DE81B640153010E2EE5
:1010200004C0D694C794B794A7940A94D2F7A401A5
:1010300093016F960FAC6F9704C0220F331F441FAC
:10104000551F0A94D2F76DA47EA48FA498A80E2EE3
:1010500004C096948794779467940A94D2F7840195
:101060007301E22AF32A042B152BE9A6FAA60BA793
:101070001CA73201882499249201810120703070CC
:1010800021960CAF1DAF2EAF3FAF2197C601B50122
:10109000A40193010E946D3A7B018C01C601B50148
:1010A000A40193010E946D3AC901DA0125968CAF23
:1010B0009DAFAEAFBFAF2597BC01CD0121962CAD42
:1010C0003DAD4EAD5FAD21970E94273A9B01AC012B
:1010D0008701FF24EE24A9A4BAA4CBA4DCA4C601F2
:1010E000AA27BB275C016D01AE28BF28C02AD12AE0
:1010F000A216B306C406D50660F525966CAD7DAD87
:101100008EAD9FAD259761507040804090402596F0
:101110006CAF7DAF8EAF9FAF2597A20CB31CC41CE4
:10112000D51CA214B304C404D50498F0A216B306C7
:10113000C406D50670F461507040804090402596FA
:101140006CAF7DAF8EAF9FAF2597A20CB31CC41CB4
:10115000D51CA21AB30AC40AD50AC601B501A40156
:1011600093010E946D3A7B018C01C601B501A40177
:1011700093010E946D3AC901DA013C014D01C4019D
:10118000B30121962CAD3DAD4EAD5FAD21970E94D0
:10119000273A9B01AC018701FF24EE2489A59AA57B
:1011A000ABA5BCA5A070B07057016801A82AB92AE8
:1011B000CA2ADB2AA216B306C406D506E0F40894B0
:1011C0006108710881089108A20CB31CC41CD51CCD
:1011D000A214B304C404D50470F0A216B306C40666
:1011E000D50648F408946108710881089108A20C9A
:1011F000B31CC41CD51C8DA59EA5AFA5B8A96F9620
:101200000FAC6F9704C0880F991FAA1FBB1F0A94C9
:10121000D2F78DA79EA7AFA7B8ABA21AB30AC40A8C
:10122000D50A2596ECACFDAC0EAD1FAD2597D701C8
:1012300099278827682A792A8A2A9B2A82012227C5
:10124000332729960CAF1DAF2EAF3FAF2997A201D0
:101250009101407050702D962CAF3DAF4EAF5FAFF7
:101260002D97C601B50129962CAD3DAD4EAD5FADB4
:1012700029970E946D3A7B018C01C601B501299620
:101280002CAD3DAD4EAD5FAD29970E946D3AC901C1
:10129000DA0161968CAF9DAFAEAFBFAF6197BC0175
:1012A000CD012D962CAD3DAD4EAD5FAD2D970E947D
:1012B000273A9B01AC018701FF24EE24ADA4BEA414
:1012C000CFA4D8A8C601AA27BB2757016801A82A1E
:1012D000B92ACA2ADB2AA216B306C406D50660F5C7
:1012E00061966CAD7DAD8EAD9FAD619761507040E4
:1012F0008040904061966CAF7DAF8EAF9FAF61979D
:10130000A20CB31CC41CD51CA214B304C404D50481
:1013100098F0A216B306C406D50670F4615070406A
:101320008040904061966CAF7DAF8EAF9FAF61976C
:10133000A20CB31CC41CD51CA21AB30AC40AD50A39
:10134000C601B50129962CAD3DAD4EAD5FAD2997D7
:101350000E946D3A7B018C01C601B50129962CAD26
:101360003DAD4EAD5FAD29970E946D3AC901DA01DE
:101370005C016D01C601B5012D962CAD3DAD4EADA4
:101380005FAD2D970E94273A9B01AC018701FF2496
:10139000EE248DA59EA5AFA5B8A9A070B070E82ACF
:1013A000F92A0A2B1B2BE216F30604071507C0F4D3
:1013B0000894A108B108C108D108E20CF31C041D6F
:1013C000151DE214F3040405150550F0E216F306AA
:1013D0000407150728F40894A108B108C108D1082A
:1013E0006196ECACFDAC0EAD1FAD6197D7019927AE
:1013F000882796018501082B192B2A2B3B2B09AB3B
:101400001AAB2BAB3CAB62C26E147F048006910614
:1014100008F451C220E0E21620E0F20621E00207C3
:1014200020E0120788F43FEFE316F10401051105EF
:1014300031F028F048E050E060E070E017C040E094
:1014400050E060E070E012C040E0E41640E0F406D6
:1014500040E0040741E0140728F048E150E060E074
:1014600070E004C040E150E060E070E0D801C701E6
:10147000042E04C0B695A795979587950A94D2F740
:101480008C509D4FDC012C9130E2A32EB12CC12C4D
:10149000D12CD601C501841B950BA60BB70B821B63
:1014A0009109A109B1090097A105B10589F4E614D4
:1014B000F7040805190508F4F2C16DA47EA48FA4F1
:1014C00098A8621473048404950408F0E8C1F3C179
:1014D0006E968FAF6E97082E04C0EE0CFF1C001F97
:1014E000111F0A94D2F76A2D681BD201C101062E82
:1014F00004C0B695A795979587950A94D2F75C0195
:101500006D01AE28BF28C02AD12AADA2BEA2CFA2AB
:10151000D8A6720161016E960FAC6E9704C0CC0C18
:10152000DD1CEE1CFF1C0A94D2F7C9A2DAA2EBA2C2
:10153000FCA264015301062E04C0D694C794B7944C
:10154000A7940A94D2F7D401C3016E960FAC6E979C
:1015500004C0880F991FAA1FBB1F0A94D2F7EDA4DD
:10156000FEA40FA518A904C016950795F794E79453
:101570006A95D2F737014801682A792A8A2A9B2A74
:101580006D8E7E8E8F8E98A2EDA0FEA00FA118A565
:10159000380188249924980187012070307065965D
:1015A0000CAF1DAF2EAF3FAF6597C601B501A401CB
:1015B00093010E946D3A7B018C01C601B501A40123
:1015C00093010E946D3AC901DA011C012D01C2018B
:1015D000B10165962CAD3DAD4EAD5FAD65970E94F6
:1015E000273A9B01AC018701FF24EE24AD8CBE8C11
:1015F000CF8CD8A0C601AA27BB2757016801A82A0B
:10160000B92ACA2ADB2AA216B306C406D50600F5F3
:1016100008942108310841085108EDA0FEA00FA14F
:1016200018A5AE0CBF1CC01ED11EAE14BF04C00650
:10163000D10670F0A216B306C406D50648F4089485
:101640002108310841085108AE0CBF1CC01ED11E34
:10165000A21AB30AC40AD50AC601B501A4019301AE
:101660000E946D3A7B018C01C601B501A401930172
:101670000E946D3AC901DA013C014D01C401B30178
:1016800065962CAD3DAD4EAD5FAD65970E94273A96
:101690009B01AC018701FF24EE248D8D9E8DAF8DC3
:1016A000B8A1A070B07057016801A82AB92ACA2A47
:1016B000DB2AA216B306C406D50600F50894610815
:1016C0007108810891086DA17EA18FA198A5A60E31
:1016D000B71EC81ED91EA616B706C806D90670F0D2
:1016E000A216B306C406D50648F40894610871082A
:1016F00081089108A60EB71EC81ED91ED601C501C5
:10170000821B930BA40BB50B898F9A8FAB8FBC8F69
:10171000D1019927882764015301A82AB92ACA2A26
:10172000DB2AA9AABAAACBAADCAA860175012FEFE7
:101730003FEF40E050E0E222F32204231523A6010C
:10174000662777276D964CAF5DAF6EAF7FAF6D9715
:10175000A9A0BAA0CBA0DCA06FEF7FEF80E090E063
:10176000A622B722C822D92289A19AA1ABA1BCA1E5
:101770001D0144245524C801B701A60195010E940A
:10178000273A69966CAF7DAF8EAF9FAF6997C8015E
:10179000B701A20191010E94273A3B014C016D96CD
:1017A0006CAD7DAD8EAD9FAD6D97A60195010E948C
:1017B000273A7B018C016D966CAD7DAD8EAD9FADF2
:1017C0006D97A20191010E94273A5B016C01A8016B
:1017D0009701260D371D481D591D69966CAC7DACCF
:1017E0008EAC9FAC6997C401AA27BB27280F391F6D
:1017F0004A1F5B1F2E153F054007510748F4E12C97
:10180000F12C61E0062F112DAE0CBF1CC01ED11EA5
:10181000CA01AA27BB27BC01CD016A0D7B1D8C1D07
:101820009D1D698C7A8C8B8C9C8C6616770688063D
:10183000990640F1661577058805990509F043C0BA
:10184000D9019927882769962CAD3DAD4EAD5FAD86
:10185000699740705070820F931FA41FB51F2DA56C
:101860003EA54FA558A96E960FAC6E9704C0220FE7
:10187000331F441F551F0A94D2F7281739074A0708
:101880005B0708F509A91AA92BA93CA9015010402A
:101890002040304009AB1AAB2BAB3CAB14C06624E4
:1018A0007724430121E030E040E050E029AB3AAB3F
:1018B0004BAB5CAB0BC066247724430119AA1AAA70
:1018C0001BAA1CAA03C0662477244301FE0171965B
:1018D00088E0DF011D928A95E9F7A9A8BAA8CBA8EC
:1018E000DCA8A98ABA8ACB8ADC8A6D8A7E8A8F8A2A
:1018F000988E29A93A894B895C89662D7E898F89C2
:10190000988DC25ADF4FE2E10C94C63A0F931F93B1
:10191000CF93DF938EE996E061EF74E00E94C22DD1
:101920008CE494E060E00E94911A83EA96E00E94C1
:10193000493060E072EC81E090E041E00E944B248D
:1019400081E00E94652283E096E060E040E00E9432
:10195000EA258EE061E00E9451218EE061E00E9464
:101960006F2108EF13E0E801888161E00E945121B6
:10197000229684E0CE30D807B9F7F801808161E083
:101980000E946F210E5F1F4F0C171D07B1F7DF91EB
:10199000CF911F910F910895AF92BF92CF92DF9296
:1019A000EF92FF920F931F935C01BC01672F772783
:1019B00062956F7080E090E00E94AD379B01AC01B2
:1019C00060E070E080E090E40E94C2387B018C010E
:1019D0008FEF9FE0A822B922CC24DD24C601B501F7
:1019E0000E94AD375B016C01C801B7012AE037EDF9
:1019F00043E25CE30E945F389B01AC01C601B50184
:101A00000E945F381F910F91FF90EF90DF90CF9071
:101A1000BF90AF9008954F925F926F927F928F9296
:101A20009F92AF92BF92CF92DF92EF92FF920F936D
:101A30001F93DF93CF9300D000D0CDB7DEB78EE9F0
:101A400096E064ED74E00E94C22D8EE996E060E0BD
:101A500072E00E94092E8EE996E06CE074E00E942C
:101A6000F02D8CE494E06CE074E00E942F1C019750
:101A700009F010C38EE996E060EB74E00E94C22D7D
:101A80008CE494E06CE074E00E94B01980932C0424
:101A9000813009F0FAC28EE996E069E172E00E94B5
:101AA000092E4091010550E060E070E08EE996E07B
:101AB0002AE030E00E94BB2E8EE996E068E372E0F7
:101AC0000E94092E8CE494E0609101050E946C183C
:101AD000482F552747FD5095652F752F8EE996E0C5
:101AE0002AE030E00E94BB2E8EE996E06BE974E0BC
:101AF0000E94C22D8CE494E06091010543E050E027
:101B00000E94C8178EE996E069E874E00E94932D60
:101B100010E00AC0E12FF0E0ED5FFA4F8EE996E0A9
:101B200060810E94722D1F5F80910205181790F34B
:101B30008EE996E00E94842D8EE996E06FE674E0CF
:101B40000E94932D10E00AC0E12FF0E0ED5FFA4F04
:101B50008EE996E060810E94DD2D1F5F8091020575
:101B6000181790F38EE996E00E94842D8EE996E096
:101B70000E94842D81E0809328048EE996E06AE536
:101B800074E00E94C22D8CE494E06091010544E26F
:101B900050E028E234E001E00E945317892B31F431
:101BA0008EE996E06DE274E00E94C22D81E08983A7
:101BB0001A828CE494E06091010542E250E09E01BB
:101BC0002F5F3F4F02E00E94531790932F048093A2
:101BD0002E04892B09F0F2C08EE996E068E174E0EA
:101BE0000E94C22D8CE494E06091010541E250E036
:101BF0000E94C817109230040E94A11F5B016C0163
:101C000080E090E0A0E0B0E080934404909345042D
:101C1000A0934604B09347043C014D017FC08EE978
:101C200096E06FEE73E00E94C22D50904905442467
:101C3000E0904805FF24E428F5288EE996E06EE35D
:101C400072E00E94092E00E010E08EE996E0B801F3
:101C5000A7012AE030E00E94F92E8EE996E066E5C1
:101C600072E00E94F02D10914D0500E060914C054E
:101C700070E0602B712B7695679576956795882730
:101C800077FD8095982F0E94AF3720E030E040E04C
:101C90005DE30E945F386093440470934504809331
:101CA0004604909347048EE996E065E672E00E9450
:101CB000092E40914404509145046091460470916E
:101CC00047048EE996E00E94AF2E8EE996E00E94CE
:101CD000842DC401B3012091440430914504409106
:101CE0004604509147040E94AC363B014C01809160
:101CF00030048F5F8093300410922F0410922E04D2
:101D000002C00F97B9F10E94A11F6A157B058C05CF
:101D10009D0520F40E94A11F5B016C01809130049D
:101D200090E02091290430912A048217930714F53A
:101D30000E94A11F6A197B098C099D096053754790
:101D400080409040B8F48EE996E066E074E00E942E
:101D5000C22D8CE494E048E853E160E070E00E941A
:101D6000441490E090932F0480932E0485319105C4
:101D700041F655CF6091300470E0882777FD80955B
:101D8000982F0E94AF379B01AC01C401B3010E94A0
:101D900014379B01AC0120934404309345044093D5
:101DA00046045093470440E022E001E314E00E941F
:101DB000E73AC80161E00E942E230AC08EE996E04E
:101DC0006BED73E00E94C22D8EE996E00E94842D97
:101DD000109228048CE494E06091010544E250E004
:101DE00028E234E001E00E945317892B51F08EE97C
:101DF00096E066EB73E00E94C22D8EE996E00E94A9
:101E0000842D81E0809328048EE996E061EA73E0F6
:101E10000E94C22D8CE494E06091010544E450E0FE
:101E200028E234E001E00E945317892B31F48EE957
:101E300096E067E773E00E94C22D81E08B831C82ED
:101E40008CE494E06091010542E450E09E012D5F36
:101E50003F4F02E00E94531790932F0480932E046B
:101E6000892B09F0E4C08EE996E062E673E00E94F7
:101E7000C22D8CE494E06091010541E450E00E94A1
:101E8000C817109230040E94A11F5B016C0180E012
:101E900090E0A0E0B0E08093400490934104A093D0
:101EA0004204B09343043C014D0171C08EE996E0B9
:101EB00069E373E00E94C22D509049054424E090EC
:101EC0004805FF24E428F5288EE996E06EE372E0E9
:101ED0000E94092E00E010E08EE996E0B801A7010B
:101EE0002AE030E00E94F92E8EE996E066E572E085
:101EF0000E94F02D10914D0500E080914C0590E07E
:101F0000802B912B0E94CC0C609340047093410471
:101F100080934204909343048EE996E06AE772E06E
:101F20000E94092E40914004509141046091420466
:101F3000709143048EE996E00E94AF2E8EE996E000
:101F40000E94842DC401B3012091400430914104CA
:101F500040914204509143040E94AC363B014C0135
:101F6000809130048F5F8093300410922F04109280
:101F70002E0402C00F97B9F10E94A11F6A157B05BC
:101F80008C059D0520F40E94A11F5B016C018091CE
:101F9000300490E02091290430912A04821793079D
:101FA00014F50E94A11F6A197B098C099D096053D1
:101FB000754780409040B8F48EE996E060E573E0A4
:101FC0000E94C22D8CE494E048E853E160E070E0A8
:101FD0000E94441490E090932F0480932E04853146
:101FE000910541F663CF6091300470E0882777FD5A
:101FF0008095982F0E94AF379B01AC01C401B301BB
:102000000E9414379B01AC0120934004309341049B
:10201000409342045093430440E022E001E314E083
:102020000E94E73AC80161E00E942E230AC08EE9AF
:1020300096E065E273E00E94C22D8EE996E00E9470
:10204000842D109228048CE494E06091010544E40E
:1020500050E028E234E001E00E945317892B51F050
:102060008EE996E06CEF72E00E94C22D8EE996E058
:102070000E94842D8CE494E0609101050E94A318D5
:102080008EE996E060EE72E009C08EE996E062EDBE
:1020900072E004C08EE996E068EB72E00E94C22D07
:1020A0008EE996E00E94842D8CE494E060E00E942A
:1020B000911A8EE996E06BE972E00E94C22D8EE9DA
:1020C00096E06CE872E00E94092E8EE996E06AE1E3
:1020D00074E00E94F02D8CE494E06AE174E00E94C8
:1020E0002F1C019709F0DEC18EE996E067E772E0E8
:1020F0000E94C22D8CE494E06AE174E00E94B01961
:1021000080932D04813009F0C8C18EE996E069E121
:1021100072E00E94092E4091010550E060E070E0FD
:102120008EE996E02AE030E00E94BB2E8EE996E030
:1021300068E372E00E94092E8CE494E0609101054E
:102140000E946C18482F552747FD5095652F752F15
:102150008EE996E02AE030E00E94BB2E8EE996E000
:1021600062E672E00E94C22D8CE494E06091010569
:1021700043E050E00E94C8178EE996E060E572E007
:102180000E94932D10E00AC0E12FF0E0ED5FFA4FBE
:102190008EE996E060810E94722D1F5F809102059A
:1021A000181790F38EE996E00E94842D8EE996E050
:1021B00066E372E00E94932D10E00AC0E12FF0E088
:1021C000ED5FFA4F8EE996E060810E94DD2D1F5F82
:1021D00080910205181790F38EE996E00E94842DF5
:1021E0008EE996E00E94842D81E0809328048EE998
:1021F00096E061E272E00E94C22D8CE494E060916E
:10220000010544E250E028E234E001E00E94531767
:10221000892B31F48EE996E064EF71E00E94C22DC3
:1022200081E08B831C828CE494E06091010542E2A2
:1022300050E09E012D5F3F4F02E00E9453179093A4
:102240002F0480932E04892B09F0F2C08EE996E0CA
:102250006FED71E00E94C22D8CE494E06091010565
:1022600041E250E00E94C817109230040E94A11F62
:102270005B016C0180E090E0A0E0B0E08093480456
:1022800090934904A0934A04B0934B043C014D0140
:102290007FC08EE996E066EB71E00E94C22D5090FF
:1022A00049054424E0904805FF24E428F5288EE9F8
:1022B00096E06EE372E00E94092E00E010E08EE9E5
:1022C00096E0B801A7012AE030E00E94F92E8EE9DD
:1022D00096E066E572E00E94F02D10914D0500E059
:1022E00060914C0570E0602B712B76956795769523
:1022F0006795882777FD8095982F0E94AF3720E05B
:1023000030E040E05DE30E945F38609348047093E2
:10231000490480934A0490934B048EE996E065EA61
:1023200072E00E94092E4091480450914904609146
:102330004A0470914B048EE996E00E94AF2E8EE91C
:1023400096E00E94842DC401B3012091480430918D
:10235000490440914A0450914B040E94AC363B0121
:102360004C01809130048F5F8093300410922F04D1
:1023700010922E0402C00F97B9F10E94A11F6A1596
:102380007B058C059D0520F40E94A11F5B016C015B
:102390008091300490E02091290430912A04821722
:1023A000930714F50E94A11F6A197B098C099D09E6
:1023B0006053754780409040B8F48EE996E06DEC2C
:1023C00071E00E94C22D8CE494E048E853E160E0A3
:1023D00070E00E94441490E090932F0480932E04A8
:1023E0008531910541F655CF6091300470E0882722
:1023F00077FD8095982F0E94AF379B01AC01C401F7
:10240000B3010E9414379B01AC0120934804309320
:10241000490440934A0450934B0440E022E001E316
:1024200014E00E94E73AC80161E00E942E230AC02E
:102430008EE996E062EA71E00E94C22D8EE996E094
:102440000E94842D109228048CE494E06091010590
:1024500044E250E028E234E001E00E945317892B67
:1024600051F08EE996E06DE771E00E94C22D8EE991
:1024700096E00E94842D8CE494E0609101050E9416
:10248000A3188EE996E06FE671E00E94C22D8AEBF8
:1024900092E061E00E942E230BC08EE996E061E697
:1024A00071E004C08EE996E06EE471E00E94C22DF6
:1024B0008EE996E00E94842D0EC081E00E942A22BF
:1024C0008F3619F48EE060E004C0833621F48EE08C
:1024D00061E00E946F2181E00E940622892B69F74A
:1024E00000D000D00DB71EB70F5F1F4F60914004A2
:1024F0007091410480914204909143040E947C3782
:10250000AB01BC018BE090E0A0E0B0E0F80180837B
:102510009183A283B38383EA96E000E010E020E099
:1025200030E0E6E9CE2ED12CE12CF12C8824992440
:1025300054010E94332F6B0148EFE42E43E0F42E48
:1025400000E010E00F900F900F900F900C151D05FC
:1025500024F4F701808160E003C0F701808161E02D
:102560000E946F210F5F1F4F82E090E0E80EF91E7E
:102570000B30110559F70F900F900F900F90CF91DE
:10258000DF911F910F91FF90EF90DF90CF90BF9060
:10259000AF909F908F907F906F905F904F90089535
:1025A000FC01E950FF4F8081E75FF040882309F488
:1025B000C4C0E750FF4F8081E95FF040882309F5F0
:1025C000E650FF4F80818230A1F0833030F48823C1
:1025D00071F0813009F0B1C008C0843071F08430EE
:1025E00050F0853009F0A9C00AC082E0089581E06A
:1025F000089583E0089584E0089585E0089586E0D5
:102600000895813041F4E650FF4F8081882309F01E
:1026100094C087E00895823089F4E650FF4F8081AE
:10262000813031F0813030F0823009F086C004C052
:1026300089E0089588E008958AE008958330E9F4F8
:10264000E650FF4F8081823091F0833030F4882350
:1026500061F0813009F071C006C0833051F08430E0
:1026600009F06BC008C08CE008958BE008958DE000
:1026700008958EE008958FE00895843011F5E650B6
:10268000FF4F80818330A9F0843028F4813059F0E5
:10269000823068F40AC0853081F0853060F0863081
:1026A00009F04BC00CC081E1089580E1089582E1FA
:1026B000089583E1089584E1089585E1089586E110
:1026C00008958530D9F4E650FF4F8081823081F043
:1026D000833028F4882351F0813079F505C08330A8
:1026E00049F0843051F508C088E1089587E10895E4
:1026F00089E108958AE108958BE10895863059F4BF
:10270000E650FF4F8081882321F08130B1F48DE1C4
:1027100008958CE10895873081F4E650FF4F808161
:10272000813029F0813028F0823039F404C08FE103
:1027300008958EE1089580E2089580E00895CF9392
:10274000DF93FC0180E092ECA1E0B0E08083918314
:10275000A283B383E055FF4F11821082E05BF0400B
:10276000CF018A5B9F4FDC0186E0ED0119928A95CB
:10277000E9F7EB5AFF4F8FE08083399782E081932E
:10278000119211928BE4819382E3819311921082D2
:10279000389680E094E091838083DF91CF91089513
:1027A0008CE494E00E949F130895CF93DF93EC0193
:1027B0008D599F4FFC018FE1DF011D928A95E9F74A
:1027C000CE57DF4F2881C258D04081E056C0FE016D
:1027D000E80FF11DEE57FF4F90818F5FFE01E80F6C
:1027E000F11DEE57FF4FE081482F4F5FE930F1F4C4
:1027F000E92F903208F0EFE190E02E2F30E02150E9
:1028000030400CC0AC0FBD1FAD59BF4FFE01E80FEB
:10281000F11DEE57FF4F80818C939F5F892F840FAE
:10282000A92FB0E0A217B3076CF325C0E830F9F484
:10283000E92F903208F0EFE190E02E2F30E02150A8
:1028400030400CC0AC0FBD1FAD59BF4FFE01E80FAB
:10285000F11DEE57FF4F80818C939F5F892F840F6E
:10286000A92FB0E0A217B3076CF382E00AC0892F4A
:10287000840F815002C081E004C0821708F4A7CF02
:1028800080E0DF91CF9108958F929F92AF92BF9297
:10289000CF92DF92EF92FF920F931F93CF93DF932C
:1028A000EC014A015B018C0109501F4F81E4D80102
:1028B0001D928A95E9F762C08C810E9406220497D6
:1028C0000CF455C08C810E942A22F8018083803844
:1028D00009F04DC08C810E942A228E0108501F4FA2
:1028E000D8018C938C810E942A22C750DF4F8883A5
:1028F000C95FD0408C810E942A22C650DF4F888356
:10290000CA5FD0400E94A11F6B017C018C810E9494
:102910000622F801208130E0821793070CF04EC0A8
:102920000E94A11F6C197D098E099F096815790500
:102930008A059B0508F042C00E94A11F6C157D0509
:102940008E059F0518F7DECF8C810E942A22D701C1
:102950008D937D010F5F1F4F02341105F9F0F601D1
:10296000808190E003968017910774F717C00E944A
:10297000A11F6C157D058E059F0520F40E94A11FE7
:102980006B017C010E94A11F6C197D098E099F09B2
:10299000681579058A059B0508F48ECFCE010E9443
:1029A000D012DF91CF911F910F91FF90EF90DF90A8
:1029B000CF90BF90AF909F908F9008959BEFE92E9E
:1029C000F12CEC0EFD1E04E010E088EFC82ED12C97
:1029D000CC0EDD1EC4CFBF92CF92DF92EF92FF925A
:1029E0000F931F93CF93DF93EC01C62EB42E059661
:1029F000FC0181E4DF011D928A95E9F70E94A11F85
:102A00007B018C01DD2418C08C810E942A22FE01EA
:102A1000ED0DF11D8583D394DC1438F5B0E4BD15BC
:102A200020F10E94A11F6E157F058007910720F4F9
:102A30000E94A11F7B018C01DC1428F08C810E9474
:102A40000622892B91F00E94A11F6E197F09800B2D
:102A5000910B643171058105910538F48C810E94D8
:102A600006221816190684F2DCCFDE01A055BF4FEE
:102A700081E0B81661F4FE01ED0DF11D948180E056
:102A8000238130E0822B932B8D939C9302C01D9267
:102A90001C92DD2041F4C055DF4F8FEF9FEF9983EB
:102AA0008883C05BD040FE01E055FF4F808191815B
:102AB000DF91CF911F910F91FF90EF90DF90CF901A
:102AC000BF900895CF93DF93EC018C818823A1F40C
:102AD00083EA96E00E943830688179818A819B81FF
:102AE0004C810E944B248C810E9465228FE261E020
:102AF0000E9451218FE215C08130B1F483EA96E043
:102B00000E946230688179818A819B814C810E9418
:102B10004B248C810E94652284E061E00E94512157
:102B200084E061E00E946F218C81882351F48091C0
:102B3000C7089091C808A091C908B091CA088460DC
:102B40000BC0813089F48091C7089091C808A0918A
:102B5000C908B091CA0888608093C7089093C808D4
:102B6000A093C908B093CA08CE0148EE53E060E0D4
:102B700070E00E9444148E3109F481E0DF91CF911E
:102B80000895AF92BF92CF92DF92EF92FF920F9390
:102B90001F93CF93DF937C015AE5C52ED12CC80E2D
:102BA000D91EF601808191818F51974019F420E060
:102BB00030E053C08701045A1F4FE60142E6A42EBD
:102BC000B12CAE0CBF1C6881798183EA96E0F801D4
:102BD00041918F010E94FD2F688179816F5F7F4F46
:102BE000798368830A151B0571F783EA96E0F8017B
:102BF00040810E94FD2FF601808191810196918391
:102C0000808387010D591F4FE701C65ADF4F82E8C5
:102C100090E0E80EF91E6881798183EA96E0F80178
:102C200041918F010E94FD2F688179816F5F7F4FF5
:102C3000798368830E151F0571F783EA96E040EFEC
:102C40000E94FD2F688179816F5F7F4F83EA96E054
:102C500040EF0E94FD2F21E030E0C901DF91CF91CC
:102C60001F910F91FF90EF90DF90CF90BF90AF90AA
:102C70000895DF92EF92FF920F931F93CF93DF930C
:102C8000EC01C950DF4F8881C75FD040803839F0F0
:102C9000C750DF4F8881C95FD040863041F47CE562
:102CA000E72EF12CEC0EFD1ED70195E009C0C650B1
:102CB000DF4F8881CA5FD040882389F380E068C0F5
:102CC000FE01E90FF11DE350FF4F80818D9391507C
:102CD000B8F7FE01EE59FF4FC550DF4F8881808362
:102CE0002A962881C550D140203208F02FE1CE012C
:102CF0008E579F4FFC0181E2DF011D928A95E9F713
:102D000030E0422F50E00AC0FE01E80FF91FEB5FF0
:102D1000FE4F8081E358F04080833F5F832F90E037
:102D2000481759078CF7613029F4CE010E94D5135A
:102D3000D82E0BC09E012D593F4FC90160E270E0B3
:102D40004FE150E00E947B3BDD248E010A5B1F4F68
:102D5000C701B80146E050E00E946E3B0097B9F011
:102D6000FE01EE54FF4F8081918101969183808313
:102D7000D801F70186E001900D928150E1F7CE0174
:102D80006D2D0E94C115892B11F482E001C081E0F4
:102D9000DF91CF911F910F91FF90EF90DF900895F9
:102DA0006F927F929F92AF92BF92CF92DF92EF92FB
:102DB000FF920F931F93DF93CF93CDB7DEB75C01E4
:102DC000F62EE42ED22EC02E912E6DB67EB68CE35A
:102DD000861718F421E030E052C0262F30E02B5F38
:102DE0003F4FEDB7FEB7E21BF30B0FB6F894FEBFF3
:102DF0000FBEEDBF0DB71EB70F5F1F4FC80160E0DC
:102E000070E0A9010E947B3BF4E0FF0EF801F08224
:102E1000FCEFFF0EF8011182F282E382D482FF20E0
:102E200021F4F5E0EF2EF12C15C0D8018C2D992D51
:102E30009C01F901819115968C93159711968E2F0F
:102E40008C198F15B8F3FA94EF2CFF2486E090E0EC
:102E5000E80EF91EF50184810E946522DD2408C078
:102E6000E00FF11F8081F50164810E94FB22D39461
:102E7000ED2DF0E0EE15FF0598F320E030E0C901FC
:102E80000FB6F8947EBE0FBE6DBECF91DF911F913D
:102E90000F91FF90EF90DF90CF90BF90AF909F90F9
:102EA0007F906F900895CF92DF92EF92FF920F93F1
:102EB0001F93DF93CF93CDB7DEB77C01702FCDB6D4
:102EC000DEB6802F90E00496ADB7BEB7A81BB90B55
:102ED0000FB6F894BEBF0FBEADBF0DB71EB70F5FE4
:102EE0001F4F11966C93F801418352837383D8016D
:102EF00040E050E009C0F901E40FF51F808113960E
:102F00008C9313974F5F5F4F11964717A0F37C5F29
:102F1000C701672F44E025E00E94D016C70167E093
:102F200041E00E94EB14892B01F5C70148EE53E004
:102F300060E070E00E944414813111F090E01AC00A
:102F4000F701E055FF4F4DEF50E0E40EF51ED701BD
:102F50009C9180E02E917D0144E05FEFE40EF51E30
:102F600030E0822B932B91838083F701E055FF4F54
:102F7000808191810FB6F894DEBE0FBECDBECF9199
:102F8000DF911F910F91FF90EF90DF90CF90089508
:102F90009F92AF92BF92CF92DF92EF92FF920F93E8
:102FA0001F93DF93CF9300D00F92CDB7DEB77C0194
:102FB000962E6A01A6EBAA2EB12CA80EB91E81E4AA
:102FC000D5011D928A95E9F769834A83DB82C7019F
:102FD00063E044E024E08E010F5F1F4F0E94D01693
:102FE000C70167E041E00E94EB14E0EBF0E0EE0E79
:102FF000FF1ED7010D911C91E0E5FFEFEE0EFF1EC5
:103000000115110509F058C0C70140ED57E060E017
:1030100070E00E944414882319F401E010E04CC0D1
:10302000853119F0082F10E047C02DEF30E0E20E97
:10303000F31ED7014C91F7012291DF018E917D01A2
:10304000E5E0FFEFEE0EFF1E8915B1F5942F80E04D
:1030500030E0822B932B8C159D0571F52FEF30E01E
:10306000E20EF31ED7018C91E1E0FFEFEE0EFF1EA2
:10307000873110F086E102C0882321F020E0482F3C
:1030800050E015C081E0D5018C93E7EBF0E0EE0E47
:10309000FF1E80E3D7018C930FC0F701E80FF91FE3
:1030A000E150FF4F8081E954F04080832F5F822FF1
:1030B00090E0481759078CF7C8010F900F900F90B8
:1030C000CF91DF911F910F91FF90EF90DF90CF9004
:1030D000BF90AF909F900895EF92FF920F931F9330
:1030E000DF93CF930F92CDB7DEB77C01698361E0A8
:1030F00043E021E08E010F5F1F4F0E94D016C701F1
:1031000066E040E00E94EB14F701918589819817F1
:1031100089F420EB30E0E20EF31EF701808191810B
:1031200020E53FEFE20EF31E8F5F9F4F19F0F7018E
:10313000828501C080E00F90CF91DF911F910F91A8
:10314000FF90EF900895EF92FF920F931F93DF93FC
:10315000CF930F92CDB7DEB77C01698361E043E086
:1031600020E08E010F5F1F4F0E94D016C70167E05D
:1031700041E00E94EB1425EB30E0E20EF31EF70174
:1031800090812BE43FEFE20EF31EF7018185981743
:1031900019F021E030E02CC0F701938580E0228512
:1031A00030E0282B392B80EB90E0E80EF91EF70178
:1031B0003183208380E59FEFE80EF91E211531054C
:1031C000B9F4C70140E157E260E070E00E944414A6
:1031D0008F3061F4EDEFF0E0EE0EFF1EF70190810D
:1031E00080E0229130E0282B392B02C0282F30E0DC
:1031F000C9010F90CF91DF911F910F91FF90EF9038
:1032000008958F929F92AF92BF92CF92DF92EF92EA
:10321000FF920F931F93DF93CF93CDB7DEB76597E0
:103220000FB6F894DEBF0FBECDBF5C014A01D22EAF
:10323000C32E83EA96E0AE014F5F5F4F0E940630D7
:103240002D2D3C2DC901AC018815990508F4A40168
:103250000A30110518F40AE010E006C02CE001382D
:10326000120710F000E81CE0970181E0253F3807C5
:1032700010F024EF31E08E818F838D8188878C81DF
:1032800089878B818A878A818B8789818C871D8634
:103290008E869F86488B598B0A8B1B8B2C8B3D8B84
:1032A000C5016FE046E023E08E01095F1F4F0E94D9
:1032B000D016C50167E040E00E94EB14F50192854D
:1032C00080E0218530E0282B392B80EB90E0A80EA0
:1032D000B91EF5013183208380E59FEFA80EB91E4A
:1032E0002115310549F5F501838525EB30E0A20E66
:1032F000B31EF50180832BE43FEFA20EB31EC50180
:1033000048EE53E060E070E00E944414182F64E639
:1033100070E080E090E00E9437201B3059F48CEF81
:1033200090E0A80EB91EF5018081853019F421E0E6
:1033300030E002C0212F30E0C90165960FB6F89445
:10334000DEBF0FBECDBFCF91DF911F910F91FF90D8
:10335000EF90DF90CF90BF90AF909F908F900895A7
:10336000EF92FF920F931F934CE350E02CE430E078
:1033700004E610E0EE24FF240E9401191F910F9132
:10338000FF90EF900895BF92CF92DF92EF92FF925D
:103390000F931F93DF93CF9300D00F92CDB7DEB77B
:1033A0007C01D62EC42EB22E69834A832B8363E020
:1033B00046E026E08E010F5F1F4F0E94D016C70126
:1033C00066E041E00E94EB1420EB30E0E20EF31ED9
:1033D000F7018081918120E53FEFE20EF31E892BFA
:1033E00091F481E590E0E80EF91EF701D1927F019A
:1033F000C08222E030E0E20EF31EF701B0822CEA38
:103400003FEFE20EF31EF701E055FF4F80819181FF
:103410000F900F900F90CF91DF911F910F91FF9020
:10342000EF90DF90CF90BF900895FC01262FDC0134
:10343000AE5ABF4FEF5AFF4F60814C910E94C319A3
:103440000895EF92FF920F931F937C0160E046E096
:1034500024E000E010E00E94D016C70166E041E0E1
:103460000E94EB141F910F91FF90EF900895FF922F
:103470000F931F93CF93DF93EC010E94211ACE018B
:1034800061E00E94151A892B19F0E2E0FE2E07C0B8
:10349000CC5ADF4F81E08883C455D040FF248E0191
:1034A000065A1F4FF8016081718183EA96E040EF70
:1034B0000E94FD2FF801608171816F5F7F4F83EA69
:1034C00096E040EF0E94FD2F80E0FF2009F481E0AC
:1034D000DF91CF911F910F91FF900895EF92FF928E
:1034E0000F931F937C0161E049E020E000E010E0D1
:1034F0000E94D01664EF71E080E090E00E943720D7
:10350000C70148EE53E060E070E00E94441490E090
:10351000813009F491E0892F1F910F91FF90EF9076
:103520000895CF93DF93EC01623018F081E08C8333
:1035300001C06C838C81882331F486E161E00E94B4
:10354000512186E107C0813041F486E061E00E94AC
:10355000512186E061E00E946F2164E670E080E026
:1035600090E00E943720CE010E9462158130A1F1C7
:10357000C850DF4F8881C85FD0408C3071F4C7508D
:10358000DF4F8881C95FD040882339F4C650DF4FB0
:103590008881CA5FD0408823F9F0CE010E946E1A5C
:1035A0008823D1F48EE996E06EE175E00E94C22D89
:1035B00083EA96E06CE041E00E947B3060E375E7CF
:1035C00080E090E00E94372083EA96E06CE040E0E3
:1035D0000E947B3080E003C0CE010E94371ADF9149
:1035E000CF910895AF92BF92DF92EF92FF920F9327
:1035F0001F93DF93CF93CDB7DEB765970FB6F894DF
:10360000DEBF0FBECDBF5C016D8B603110F08FE06F
:103610008D8B19821A821B821C8246E0D42EFE01F9
:103620003596DF018D2D1D928A95E9F7C50161E080
:1036300047E02CE08E010B5E1F4F0E94D016C501A3
:1036400064E040E00E94EB14B5016B5F7F4F83EABA
:1036500096E07E010894E11CF11CA70124E00E9481
:10366000842F1B861C861D861E86FE013F96DF0169
:103670001D92DA94E9F7EEEFF4E0659174918E0112
:10368000055F1F4FC8010E94673BC701B8010E9438
:103690008D3B009719F021E030E009C0E5E5F0E04E
:1036A000AE0EBF1E8D89D5018C9320E030E0C9019C
:1036B00065960FB6F894DEBF0FBECDBFCF91DF91F8
:1036C0001F910F91FF90EF90DF90BF90AF90089502
:1036D0004F925F926F927F929F92AF92BF92CF92E2
:1036E000DF92EF92FF920F931F93CF93DF93EC0142
:1036F0002B01D42E72EBE72EF12CE80EF91EF70108
:103700001182108266E4662E712C680E791E86E0A6
:10371000F30111928A95E9F7CE01622F0E94F21A05
:103720008E010C5A1F4FF8018081813081F0CE014B
:1037300061E00E94151A892B21F481E0F801808351
:1037400006C08FEF9FEFF7019183808369C08E01E0
:10375000045B1F4FCE0161E046E022E00E94D016DC
:10376000CE0166E041E00E94EB14892B09F058C0BD
:103770008D2D90E028EE33E0AC01429FC001439FC5
:10378000900D529F900D11245C01CC24B7FCC09485
:10379000DC2C51EEA51653E9B50654E0C50650E001
:1037A000D50638F050EEA52E53E9B52E54E0C52EBF
:1037B000D12C0E94A11F7B018C011DC0CE0160E0B5
:1037C0000E943916C301B20146E050E00E946E3BF0
:1037D000009719F49924939401C099240E94A11F81
:1037E0006E157F058007910720F40E94A11F7B01C1
:1037F0008C01992071F50E94A11F6E197F09800B21
:10380000910B6A157B058C059D0510F5CE0148EEE0
:1038100053E060E070E00E9444148C31F1F6CECFAA
:10382000FE01E055FF4F8081918102C0892D90E01B
:10383000DF91CF911F910F91FF90EF90DF90CF908C
:10384000BF90AF909F907F906F905F904F90089542
:103850009924CE010E94211A892B41F3E1CFEF92E6
:10386000FF920F931F93DF93CF9300D000D000D02F
:10387000CDB7DEB77C018B01FB0101900020E9F799
:103880003197E61BF70B3E9710F0FB011486C80139
:103890000E94963B83EA96E0B8018E010F5F1F4FAE
:1038A000A8010E940630C701B8014EE12FE00E9436
:1038B000681B26960FB6F894DEBF0FBECDBFCF9122
:1038C000DF911F910F91FF90EF900895482F613283
:1038D00010F081E0089580918605843011F082E037
:1038E00008956093CF05AEEAB5E0842F9C01F901FD
:1038F00002C081918D938E2F841B8617D0F380E0B8
:103900000895589859988091B90081608093B900C2
:103910008091B90082608093B9008091BC0080687A
:103920008093BC008091BC0080618093BC0080913A
:10393000BC008F7B8093BC008091BC008F7D809306
:10394000BC008091BC00877F8093BC008091C70839
:103950009091C808A091C908B091CA0886FD14C00A
:103960008091C7089091C808A091C908B091CA0871
:1039700090FD0AC08091C7089091C808A091C9081D
:10398000B091CA0893FF04C08091BC008B7F03C034
:103990008091BC0084608093BC008091BC008E7FCD
:1039A0008093BC00809164008068809364000895D7
:1039B00010928605E4E6F0E080818F778083589A44
:1039C000599AE9EBF0E080818E7F808380818D7F42
:1039D000808381E48093B80085E48093BC0080E21A
:1039E000ECE8F5E0DF01982F1D929A95E9F7EEEAF1
:1039F000F5E0DF01982F1D929A95E9F7E0EDF5E0EB
:103A0000DF011D928A95E9F70895882349F0109205
:103A1000F2051092F3051092F4051092F50513C00B
:103A20008091F2059091F305A091F405B091F50510
:103A30000196A11DB11D8093F2059093F305A0930B
:103A4000F405B093F5058091F2059091F305A091EE
:103A5000F405B091F505805A9648A140B04010F4A5
:103A600080E008951092F2051092F3051092F4058B
:103A70001092F5050E94D81C81E0089585ED809391
:103A8000BC0081E00E94051D05C080E00E94051D6C
:103A9000882321F48091BC0084FDF7CF1092860525
:103AA00008951F920F920FB60F920BB60F9211242A
:103AB0002F933F934F935F936F937F938F939F9336
:103AC000AF93BF93EF93FF938091B90090E0887F0D
:103AD00090708036910509F4C3C081369105CCF50C
:103AE0008832910509F47BC089329105B4F48031A4
:103AF000910509F46FC0813191053CF4009709F4F8
:103B00000EC1089709F00FC165C08831910509F40D
:103B100066C0809709F007C177C08034910509F429
:103B20008DC08134910544F48033910509F472C04D
:103B3000C89709F0F8C072C08035910509F472C0C9
:103B40008835910509F47FC08834910509F0EBC0F0
:103B5000E8C08839910509F4D8C089399105ECF499
:103B60008837910509F47CC0893791054CF4883673
:103B7000910509F475C08037910509F0D4C070C073
:103B80008838910509F4C1C08039910509F46EC0E7
:103B90008038910509F0C7C069C0803B910509F4E0
:103BA0008CC0813B91054CF4803A910509F470C0BA
:103BB000883A910509F0B7C080C0803C910509F4AE
:103BC000A8C0883C910509F4A4C0883B910509F080
:103BD000AAC088C0809187058093BB0013C09091D4
:103BE000AC058091AD05981708F09BC09091AC058D
:103BF000E92FF0E0E457FA4F80818093BB009F5F8C
:103C00009093AC0585EC82C00E943E1D80E28093BB
:103C1000F10589C080E38093F10583C088E3809338
:103C2000F10577C08091AC059091BB00E82FF0E0E2
:103C3000E457FA4F90838F5F8093AC059091AC0569
:103C40008091AD055FC08091AC059091BB00E82FDD
:103C5000F0E0E457FA4F90838F5F8093AC0561C02A
:103C600083E0809386051092F005CCCF8091F0051B
:103C7000803208F04AC08091F0059091BB00E82F97
:103C8000F0E0E053FA4F90838F5F8093F005BACF56
:103C90008091F005803230F4E091F005F0E0E053DF
:103CA000FA4F10826091F005E0918A05F0918B0542
:103CB00080ED95E070E009952CC084E08093860546
:103CC0001092CE051092CF05E0918805F0918905FC
:103CD00009958091CF05882329F481E08093CF0551
:103CE0001092AE059091CE05E92FF0E0E255FA4F23
:103CF00080818093BB009F5F9093CE059091CE050D
:103D00008091CF05981708F47DCF85E88093BC009B
:103D10000AC085EC8093BC001092860504C0109206
:103D2000F1050E943E1DFF91EF91BF91AF919F91D0
:103D30008F917F916F915F914F913F912F910F9054
:103D40000BBE0F900FBE0F901F901895DF92EF9251
:103D5000FF920F931F93E82E062FF72E142FD22ECB
:103D6000413210F081E051C081E00E94051D05C084
:103D700080E00E94051D882321F480918605882318
:103D8000B9F782E0809386058FEF8093F10510925A
:103D9000AC051093AD05ACE8B5E0202F3F2DC9016F
:103DA000FC0102C081918D938E2F801B8117D0F36F
:103DB0008E2D90E0880F991F8093870585EE809364
:103DC000BC0081E00E94051DDD2041F40BC080E0B5
:103DD0000E94051D882311F085E017C0809186059B
:103DE0008230A9F38091F1058F3F11F480E00DC07E
:103DF0008091F105803211F482E007C08091F105D5
:103E0000803311F084E001C083E01F910F91FF9097
:103E1000EF90DF9008950F931F93CF93DF93182FA8
:103E2000EB01042F413210F081E03CC081E00E94A0
:103E3000051D05C080E00E94051D882321F48091A6
:103E400086058823B9F781E0809386058FEF8093FC
:103E5000F1051092AC050093AD05110F11601093A0
:103E6000870585EE8093BC0081E00E94051D08C097
:103E700080E00E94051D882319F020E030E00FC08B
:103E8000809186058130A1F3F8CFFE01E20FF31F88
:103E9000D901A457BA4F8C9180832F5F3F4F2017D1
:103EA000A0F380E0DF91CF911F910F9108951F92B1
:103EB0000F920FB60F9211248F939F93AF93BF93DE
:103EC0008091D9089091DA08A091DB08B091DC08C4
:103ED0000196A11DB11D8093D9089093DA08A09393
:103EE000DB08B093DC08BF91AF919F918F910F9049
:103EF0000FBE0F901F9018951F920F920FB60F9242
:103F000011248F939F93AF93BF938091DD0890917D
:103F1000DE08A091DF08B091E0080196A11DB11D57
:103F20008093DD089093DE08A093DF08B093E0084B
:103F3000BF91AF919F918F910F900FBE0F901F90E7
:103F400018958F929F92AF92BF92CF92DF92EF928D
:103F5000FF920F931F938FB7F894A090D908B09059
:103F6000DA08C090DB08D090DC088FBF9501A6016D
:103F700060E070E080E090E001E00E949205122F86
:103F8000F32EE42ED52EC62EB72EA82E892E02E0B3
:103F90000E949205B92F210FE1E0211708F0E0E01F
:103FA0003F0DF1E03F1508F0F0E09E2E930EE1E0AA
:103FB000931608F0E0E0FE2B4E0DA1E04E1508F040
:103FC000A0E0FF2EF40EE1E0F41608F0E0E0AE2BE6
:103FD0005D0DF1E05D1508F0F0E00A2F050FE1E05E
:103FE000051708F0E0E0FE2B6C0DA1E06C1508F061
:103FF000A0E01F2F160FE1E0161708F0E0E0AE2B4F
:104000007B0DF1E07B1508F0F0E0A70FE1E0A717CA
:1040100008F0E0E0FE2B8A0D91E08A1508F090E0B0
:10402000F80FE1E0F81708F0E0E09E2BB80D392D0D
:104030004F2D502F612F7A2F8F2F9B0FE9E0AE2E3F
:10404000BB24CC24DD24EE24FF2400E010E00E94F9
:104050001106952FB901842F1F910F91FF90EF90BA
:10406000DF90CF90BF90AF909F908F900895AF92C8
:10407000BF92CF92DF92EF92FF920F931F935B015B
:104080006C0107C00E94A11F6E157F058007910774
:1040900020F40E94A11F7B018C010E94A11F6E19B8
:1040A0007F09800B910B6A157B058C059D0550F3EC
:1040B0001F910F91FF90EF90DF90CF90BF90AF9046
:1040C00008958430910570F0BC0180E090E00E947A
:1040D000AD3726E636E646EE5FE30E945F380E9483
:1040E000813703C0BC01660F771F6150704061F0DB
:1040F0006150704049F0FB01EE0FFF1F31978FB701
:10410000F8943197F1F78FBF0895789484B7877F3B
:1041100084BF1092D9081092DA081092DB0810922E
:10412000DC0884B5826084BD84B5816084BD85B5BA
:10413000826085BD85B5816085BDEEE6F0E0808159
:1041400081608083E1E8F0E080818260808380810B
:1041500081608083E0E8F0E0808181608083E1EB32
:10416000F0E0808184608083E1E9F0E08081846018
:104170008083E0EBF0E0808181608083E0E9F0E023
:10418000808181608083E4E6F0E080818E7F80839F
:10419000ECE7F0E080818F7780838081806480838A
:1041A000EAE7F0E0808184608083808182608083A0
:1041B0008081806880831092C1001092C9000895A8
:1041C0009091F605982B9093F60580FF32C0809170
:1041D00064008E7F8093640080917C008F77809351
:1041E0007C0080917C00806480937C0080917A00C8
:1041F000846080937A0080917A00826080937A0054
:1042000080917A00806880937A00809164008F7733
:1042100080936400809164008B7F80936400809120
:1042200064008D7F80936400809165008E7F809311
:10423000650008951F920F920FB60F920BB60F9262
:1042400011242F933F934F935F936F937F938F939B
:104250009F93AF93BF93EF93FF93F89481E0809384
:104260002B04E0E6F0E080818068808380818F7B92
:10427000808383E060E00E946F217894FF91EF914A
:10428000BF91AF919F918F917F916F915F914F916E
:104290003F912F910F900BBE0F900FBE0F901F906C
:1042A0001895282F30E0C901825A964FFC0194914D
:1042B000255D364FF9018491882381F0E82FF0E0E5
:1042C000ED5EF64FE491F0E0662329F4808190954D
:1042D0008923808308958081892B80830895482FC6
:1042E00050E0CA018F56964FFC012491CA01825AB0
:1042F000964FFC019491455D564FFA01349133235A
:10430000C1F1222331F1233021F4809180008F7795
:1043100005C0243031F4809180008F7D809380002F
:1043200018C0213019F484B58F7704C0223021F4ED
:1043300084B58F7D84BD0DC0263021F48091B000FE
:104340008F7705C0273029F48091B0008F7D80934E
:10435000B000E32FF0E0E55EF64FE491F0E0662375
:1043600029F4808190958923808308958081892B09
:1043700080830895482F50E0CA018F56964FFC0164
:104380002491CA01825A964FFC019491455D564F83
:10439000FA013491332319F420E030E035C02223B0
:1043A00031F1233021F4809180008F7705C02430D3
:1043B00031F4809180008F7D8093800018C021307F
:1043C00019F484B58F7704C0223021F484B58F7D31
:1043D00084BD0DC0263021F48091B0008F7705C0D8
:1043E000273029F48091B0008F7D8093B000E32FB7
:1043F000F0E0ED5DF64FE491F0E0808120E030E008
:10440000892311F021E030E0C9010895882389F45F
:104410008091F7059091F80580509E4F2091F90505
:104420003091FA05821B930B60E072E00E945A3AC9
:1044300008958091FB059091FC0580509E4F20913E
:10444000FD053091FE05821B930B60E072E00E9437
:104450005A3A08958823D1F44091F9055091FA050C
:104460008091F7059091F8058417950751F1FA01AD
:10447000EF51F54F2081CA01019660E072E00E9481
:104480005A3A9093FA058093F90519C04091FD05B9
:104490005091FE058091FB059091FC0584179507CE
:1044A00081F0FA01EF51F74F2081CA01019660E0D7
:1044B00072E00E945A3A9093FE058093FD0530E029
:1044C00002C02FEF3FEFC9010895882349F41092ED
:1044D000FA051092F9051092F8051092F705089563
:1044E0001092FE051092FD051092FC051092FB053E
:1044F00008951F920F920FB60F920BB60F921124D0
:104500002F933F934F935F936F937F938F939F93DB
:10451000AF93BF93EF93FF934091C600E091F705EF
:10452000F091F805CF01019660E072E00E945A3ADE
:104530009C018091F9059091FA052817390739F007
:10454000EF51F54F40833093F8052093F705FF9125
:10455000EF91BF91AF919F918F917F916F915F91FB
:104560004F913F912F910F900BBE0F900FBE0F9068
:104570001F9018951F920F920FB60F920BB60F92C5
:1045800011242F933F934F935F936F937F938F9358
:104590009F93AF93BF93EF93FF934091CE00E09131
:1045A000FB05F091FC05CF01019660E072E00E94EE
:1045B0005A3A9C018091FD059091FE052817390714
:1045C00039F0EF51F74F40833093FC052093FB0502
:1045D000FF91EF91BF91AF919F918F917F916F91DB
:1045E0005F914F913F912F910F900BBE0F900FBE97
:1045F0000F901F901895982F662339F48091C00072
:1046000085FFFCCF9093C60008958091C80085FF78
:10461000FCCF9093CE000895882341F48091C00090
:1046200085FFFCCF8DE08093C60008C08091C80054
:1046300085FFFCCF8DE08093CE0008C08091C00044
:1046400085FFFCCF8AE08093C60008958091C80062
:1046500085FFFCCF8AE08093CE000895FC0110C056
:104660003196662339F48091C00085FFFCCF90938A
:10467000C60006C08091C80085FFFCCF9093CE0095
:104680009081992369F708952F923F924F925F92FC
:104690006F927F928F929F92AF92BF92CF92DF9252
:1046A000EF92FF920F931F93DF93CF93CDB7DEB7B7
:1046B000A1970FB6F894DEBF0FBECDBF6B017C0192
:1046C00029013A0109A3611571058105910591F44C
:1046D000002341F48091C00085FFFCCF80E38093EC
:1046E000C6005BC08091C80085FFFCCF80E380934B
:1046F000CE0053C08824992454011E010894211C23
:10470000311C8101080D191DC701B601A3019201D9
:104710000E946D3AF80160830894811C911CA11CD1
:10472000B11CC701B601A30192010E946D3AC901F3
:10473000DA016C017D01C114D104E104F10409F72F
:104740009101280D391DBE016F5F7F4FD501C40156
:104750000197A109B109AC01481959091BC0FA0117
:10476000E20FF31FE081EA3010F4E05D01C0E95C84
:10477000F9A1FF2339F48091C00085FFFCCFE093BD
:10478000C60006C08091C80085FFFCCFE093CE0034
:10479000215030406217730711F7A1960FB6F894B5
:1047A000DEBF0FBECDBFCF91DF911F910F91FF9064
:1047B000EF90DF90CF90BF90AF909F908F907F90C1
:1047C0006F905F904F903F902F900895282F9927DA
:1047D00087FD9095807F907034E0959587953A9508
:1047E000E1F78A301CF0982F995C02C0982F905DF9
:1047F000822F8F708A301CF0282F295C02C0282F4E
:10480000205D662339F48091C00085FFFCCF909332
:10481000C60006C08091C80085FFFCCF9093CE00F3
:10482000662339F48091C00085FFFCCF2093C60039
:1048300008958091C80085FFFCCF2093CE00089595
:104840000F931F938B019C01E42F97FF18C0442303
:1048500041F48091C00085FFFCCF8DE28093C600BB
:1048600007C08091C80085FFFCCF8DE28093CE0009
:1048700030952095109501951F4F2F4F3F4FC9013F
:10488000B8012AE030E040E050E00E2F0E944423BF
:104890001F910F910895EF92FF920F931F937B0149
:1048A0008C014423C1F588E00E94E020C801B701D3
:1048B00022E030E040E050E00E948F3A2050304F3C
:1048C000414F5F4FCA01B901A80197010E948F3A79
:1048D000C901DA010197A109B109292F3A2F4B2FFC
:1048E000552747FD5A950196A11DB11D2093C5007E
:1048F00081508093C4008091C10080618093C10089
:104900008091C10088608093C1008091C10080685F
:104910008093C10037C080E10E94E020C801B70148
:1049200022E030E040E050E00E948F3A2050304FCB
:10493000414F5F4FCA01B901A80197010E948F3A08
:10494000C901DA010197A109B109292F3A2F4B2F8B
:10495000552747FD5A950196A11DB11D2093CD0005
:1049600081508093CC008091C90080618093C90000
:104970008091C90088608093C9008091C9008068D7
:104980008093C9001F910F91FF90EF9008950E94AE
:10499000852083EA96E00E94F12F853440F081E380
:1049A00061E00E94512181E361E00E946F2183EA6E
:1049B00096E061E070E00E94F92F8130B1F48091BF
:1049C000C7089091C808A091C908B091CA0890681A
:1049D0008093C7089093C808A093C908B093CA08E9
:1049E00081E090E060E00E94FC3D87E20E94BA21F5
:1049F000892B09F44FC083EA96E060E070E00E94E2
:104A0000F92F8A3009F046C085E096E00E94C52B58
:104A100085E096E00E94DC2985E096E00E948C2BE0
:104A200080911E06482F50E080912006481B5109B6
:104A300080911D06282F30E080912106281B310926
:104A4000121613065CF48CE390E0BC01269FC001B3
:104A5000279F900D369F900D11240EC037FF0EC07A
:104A60008CE390E0BC01269FC001279F900D369FEC
:104A7000900D1124805F914F480F591F433051050D
:104A800048F48091D6089091D70880629093D70817
:104A90008093D60885E096E00E94C52B85E096E0DD
:104AA0000E94782885E096E00E94672885E096E0DD
:104AB0000E94EE2B63E070E080E090E00E943720DF
:104AC0008091C7089091C808A091C908B091CA0800
:104AD000A1FF5EC063E070E080E090E00E943720BC
:104AE00086E161E00E94512163E070E080E090E0A7
:104AF0000E94372086E161E00E946F2163E070E050
:104B000080E090E00E9437200E94262C63E070E055
:104B100080E090E00E94372081E00E94FF2B63E05C
:104B200070E080E090E00E94372084E00E940D2C2D
:104B300063E070E080E090E00E94372080E00E9417
:104B4000082C63E070E080E090E00E9437200E9433
:104B5000FB2B63E070E080E090E00E94372088E962
:104B600096E066E00E94452C63E070E080E090E013
:104B70000E94372086E161E00E94512186E160E0D9
:104B80000E946F2163E070E080E090E00E94372097
:104B900063E070E080E090E00E94372083EA96E0D6
:104BA0000E94CA316093FF0570930006809301064E
:104BB000909302068091FF0590910006A091010656
:104BC000B09102060E945C3B0E94860C0E940B0D75
:104BD000FDCF08950F931F93062F142F8AE161E0F4
:104BE0000E94512188E161E00E945121002321F0BF
:104BF000013009F048C020C0112371F48AE161E05E
:104C00000E946F218091C7089091C808A091C9089F
:104C1000B091CA0882602FC01130A9F58AE160E026
:104C20000E946F218091C7089091C808A091C9087F
:104C3000B091CA088D7F1FC0112371F488E161E033
:104C40000E946F218091C7089091C808A091C9085F
:104C5000B091CA0881600FC01130A9F488E160E00A
:104C60000E946F218091C7089091C808A091C9083F
:104C7000B091CA088E7F8093C7089093C808A0930C
:104C8000C908B093CA081F910F91089589E261E0A5
:104C90000E94512188E261E00E9451218AEE96E053
:104CA0000E9404330895FC01148A158A168A178A13
:104CB000108E118E128E138E148E158E168E178EE8
:104CC00010A211A212A213A280E090E0A0E0B0E036
:104CD00084A395A3A6A3B7A3089510929606109255
:104CE00018060895EF92FF920F931F93DF93CF93CF
:104CF000CDB7DEB7EC970FB6F894DEBF0FBECDBFD1
:104D00008C01E7EFF6E065917491B5E1EB2EF12CA3
:104D1000EC0EFD1EC7010E94673BE9EFF6E06591CE
:104D20007491CE0101960E94673BD80156968C91F2
:104D3000843009F46DC0853048F4823069F18330E5
:104D400008F048C0813009F000C10AC0863009F47B
:104D50009BC0863008F47AC0873009F0F6C0B2C034
:104D6000EDB7FEB774970FB6F894FEBF0FBEEDBF58
:104D70003196075D1F4FADB7BEB712961C930E93C9
:104D800011970952104084E690E093838283F58264
:104D9000E48281ED92E0B3C08DB79EB744970FB621
:104DA000F8949EBF0FBE8DBFEDB7FEB73196075D7D
:104DB0001F4FADB7BEB712961C930E9311970952B1
:104DC000104084E690E093838283F582E48285ED4F
:104DD00092E095C08DB79EB744970FB6F8949EBFEA
:104DE0000FBE8DBFEDB7FEB73196075D1F4FADB754
:104DF000BEB712961C930E9311970952104084E689
:104E000090E093838283F582E48289ED92E077C01B
:104E10008DB79EB744970FB6F8949EBF0FBE8DBF57
:104E2000EDB7FEB73196075D1F4FADB7BEB712960F
:104E30001C930E9311970952104084E690E09383DF
:104E40008283F582E4828DED92E059C08DB79EB7E2
:104E500044970FB6F8949EBF0FBE8DBFEDB7FEB757
:104E60003196075D1F4FADB7BEB712961C930E93D8
:104E700011970952104084E690E093838283F58273
:104E8000E48281EE92E03BC08DB79EB744970FB6A7
:104E9000F8949EBF0FBE8DBFEDB7FEB73196075D8C
:104EA0001F4FADB7BEB712961C930E9311970952C0
:104EB000104084E690E093838283F582E48285EE5D
:104EC00092E01DC08DB79EB744970FB6F8949EBF71
:104ED0000FBE8DBFEDB7FEB73196075D1F4FADB763
:104EE000BEB712961C930E9311970952104084E698
:104EF00090E093838283F582E48289EE92E0978347
:104F00008683D80154968C91549780871186559644
:104F10008C915597828713865A968C915A978487DD
:104F2000158657968C9157978687178658968C9139
:104F30005897808B118A59968C91828B138A0E9484
:104F4000A03BEDB7FEB774961DC000D000D000D0D6
:104F5000EDB7FEB73196075D1F4FADB7BEB71296DE
:104F60001C930E9311970952104084E690E09383AE
:104F70008283CE010196958384830E94A03BEDB786
:104F8000FEB736960FB6F894FEBF0FBEEDBF980180
:104F9000275D3F4FC901EC960FB6F894DEBF0FBEF8
:104FA000CDBFCF91DF911F910F91FF90EF900895AA
:104FB0001F93CF93DF93EC01162F8091F006882387
:104FC00021F48AEE96E00E9481338AEE96E068E64C
:104FD00070E00E94F4318AEE96E0612F0E940E3359
:104FE000C10FD11D8AEE96E068810E940E338AEED1
:104FF00096E00E943D33DF91CF911F910895FF927B
:105000000F931F93CF93DF938C01F62E8091F006C0
:10501000882321F48AEE96E00E9481338AEE96E09E
:1050200068E670E00E94F4318AEE96E06F2D0E94EF
:105030000E338AEE96E00E943D338AEE96E068E6F3
:1050400070E041E050E00E947E33C0E0D0E08AEEA4
:1050500096E00E94FE31882329F4CA30D10511F070
:105060002196F5CF8AEE96E00E9404320F0D111DB5
:10507000F80180838AEE96E00E943D33DF91CF9164
:105080001F910F91FF9008950F931F938C016FE074
:105090000E94FF27F801878583701F910F91089563
:1050A000CF93DF93EC010E944428882319F0CE5659
:1050B000DF4F8883809114068C7F8093140685E0EF
:1050C00096E06FE00E94D827DF91CF9108950F936B
:1050D0001F938C016EE00E94FF27F80186858D7F6B
:1050E0008687C8016EE00E94D8271F910F9108950E
:1050F0000F931F938C016EE00E94FF27F8018685B5
:105100008E7F8687C8016EE00E94D8271F910F917D
:105110000895AF92BF92CF92DF92FF920F931F93A9
:10512000CF93DF938C01F62E8091F006882321F433
:105130008AEE96E00E9481338AEE96E068E670E09F
:105140000E94F4318AEE96E060E070E00E943A330B
:105150008AEE96E00E943D338AEE96E068E670E0C3
:1051600043E150E00E947E33C0E0D0E0CC24DD2457
:10517000AF2CBB245AE0F52E0DC18AEE96E00E94BA
:10518000FE31882309F403C18AEE96E00E940432BE
:10519000282FF801EC0FFD1F8083C630D10509F4DC
:1051A00082C0C730D105B8F4C230D10509F44EC071
:1051B000C330D10538F4209769F1C130D10509F029
:1051C000E4C036C0C430D10509F451C0C530D105A2
:1051D00008F05BC049C0CA30D10509F49BC0CB3090
:1051E000D10558F4C830D10509F478C090E02F708B
:1051F000C930D10508F081C064C0CC30D10509F4B4
:10520000A7C0CC30D10508F494C0CD30D10509F049
:10521000BCC0ADC090E044E0959587954A95E1F714
:105220008F9DC00111242F70280FF801218FADC070
:1052300090E034E0959587953A95E1F78F9DC00110
:1052400011242F70280FF801208F9FC090E0B4E048
:1052500095958795BA95E1F78F9DC00111242F7020
:10526000280FF801278B91C0F801868B8EC090E043
:10527000A4E095958795AA95E1F78F9DC00111242B
:105280002F70280FF801228F80C090E0F4E09595F0
:105290008795FA95E1F78F9DC00111242F70280F93
:1052A000F801258B72C090E0E4E095958795EA952A
:1052B000E1F78F9DC00111242F70280FF801248B76
:1052C00064C074E0959587957A95E1F787708F9D16
:1052D000C0011124280FF801238F57C090E064E02B
:1052E000959587956A95E1F787708F9DC001112488
:1052F0002F70280FF801248F48C054E095958795AA
:105300005A95E1F783708F9DC0011124280FF80191
:10531000258F3BC090E044E0959587954A95E1F74D
:1053200083708F9DC00111242F70280FF801268FE4
:105330002CC090E034E0959587953A95E1F7877019
:105340008F9DC00111242F70280FF801278F1DC0D9
:1053500090E0B4E095958795BA95E1F783708F9DBD
:10536000C00111242F70280FF80120A30EC090E077
:10537000A4E095958795AA95E1F783708F9DC0016C
:1053800011242F70280FF80121A3219603C008943F
:10539000C11CD11CAC16BD0628F0FAE0CF16D10412
:1053A00008F4EBCEDF91CF911F910F91FF90DF902A
:1053B000CF90BF90AF900895AF92BF92CF92DF92FF
:1053C000EF92FF920F931F93DF93CF93CDB7DEB78A
:1053D000C857D0400FB6F894DEBF0FBECDBF6C01EA
:1053E0006AE00E94892849E2A42EB12CAC0CBD1CB5
:1053F00084E6D5011D928A95E9F7E5EDF6E0659121
:1054000074918E010F5F1F4FC8010E94673BC50159
:10541000B8010E94823BF60182A1823009F476C075
:10542000833030F4882371F0813009F03CC11AC018
:10543000843009F4F2C0843008F4AEC0853009F03D
:1054400032C127C1E7EDF6E065917491C8010E9471
:10545000673BC501B8010E94823BE5EEF6E065912D
:1054600074910FC0E9EDF6E065917491C8010E9456
:10547000673BC501B8010E94823BE5EEF6E065910D
:1054800074918E01075D1F4FC8010E94673B8DB765
:105490009EB70E970FB6F8949EBF0FBE8DBFEDB7A7
:1054A000FEB7319631E5E32EF12CEC0EFD1EADB7C3
:1054B000BEB71296FC92EE92119788E290E0938329
:1054C000828315830483D6015E968C915E978683D2
:1054D00017825D968C915D97808711865C968C9182
:1054E0005C97828713865B968C91848715860E94D1
:1054F000A03BEDB7FEB73E960FB6F894FEBF0FBEC9
:10550000EDBFC501B7010E94823BF3C0EBEDF6E0B1
:1055100065917491C8010E94673BC501B8010E9462
:10552000823BE7EEF6E0659174918E01075D1F4FB7
:10553000C8010E94673B8DB79EB70C970FB6F894D1
:105540009EBF0FBE8DBFEDB7FEB7319621E5E22EAF
:10555000F12CEC0EFD1EADB7BEB71296FC92EE928A
:10556000119788E290E09383828315830483D601A8
:105570005D968C915D97868317825C968C915C9783
:10558000808711865B968C91828713860E94A03B50
:10559000EDB7FEB73C96B0CFEDEDF6E065917491B6
:1055A000C8010E94673BC501B8010E94823BE9EE39
:1055B000F6E0659174918E01075D1F4FC8010E944E
:1055C000673B8DB79EB70A970FB6F8949EBF0FBE84
:1055D0008DBFEDB7FEB7319691E5E92EF12CEC0EBB
:1055E000FD1EADB7BEB71296FC92EE92119788E2FF
:1055F00090E09383828315830483D6015C968C911B
:105600005C97868317825B968C91808711860E94B7
:10561000A03BEDB7FEB73A966FCFEFEDF6E06591A0
:105620007491C8010E94673BC501B8010E94823B8A
:10563000EBEEF6E0659174918E01075D1F4FC80196
:105640000E94673B8DB79EB708970FB6F8949EBF30
:105650000FBE8DBFEDB7FEB7319681E5E82EF12C78
:10566000EC0EFD1EADB7BEB71296FC92EE921197EE
:1056700088E290E09383828315830483D6015B964E
:105680008C91868317820E94A03BEDB7FEB73896B7
:1056900033CFE1EEF6E065917491C8010E94673B5B
:1056A000C501B80130CFE3EEF6E0659174918E014B
:1056B0000F5F1F4FC8010E94673B00D000D000D091
:1056C000EDB7FEB73196ADB7BEB71296BC92AE92AB
:1056D000119784E690E093838283158304830E946C
:1056E000A03BEDB7FEB736960FB6F894FEBF0FBEDF
:1056F000EDBFC501C858DF4F0FB6F894DEBF0FBE2F
:10570000CDBFCF91DF911F910F91FF90EF90DF9070
:10571000CF90BF90AF9008950F931F938C0166E0D8
:105720000E948928C8010E9472261F910F91089536
:105730000F931F93CF93DF93EC01042F68A780E3AF
:1057400061E00E94512118A5112379F0113091F4E4
:1057500080E361E00E946F21013019F482E08B8BBD
:1057600009C0002339F41B8B05C080E360E00E9470
:105770006F211B8A6AE070E080E090E00E94372091
:10578000DF91CF911F910F9108950F931F938C017B
:1057900061E040E00E94982BC8010E945028C80197
:1057A0000E945326C8016DE00E9489288BE261E0C7
:1057B0000E9451218BE260E00E946F211F910F91A6
:1057C00008958091F006882341F080910607882390
:1057D00021F483E096E00E94462608950F931F93DC
:1057E0008C010E94E12BC80160E040E00E94982BF0
:1057F0001F910F9108958CB58F7B8CBD08958823E0
:1058000019F48CB5806202C08CB58F7D8CBD089573
:105810009CB5937F982B9CBD08959CB5282F237031
:105820009C7F292B2CBD9DB581709E7F982B9DBDA3
:105830000895109299061092980610929A06109266
:105840009B0610929C0610929D0608958EE161E0E1
:105850000E9451218FE161E00E9451218DE161E0C0
:105860000E9451218EE160E00E946F218FE160E093
:105870000E946F218DE161E00E946F218CB58061F3
:105880008CBD8CB580648CBD08951F93162F8DE15F
:1058900061E00E94512182E261E00E9451218DE18C
:1058A00061E00E946F2182E261E00E946F2180919D
:1058B000C7089091C808A091C908B091CA08A2FF72
:1058C00008C088E061E00E94512188E061E00E9408
:1058D0006F218091C7089091C808A091C908B09124
:1058E000CA0896FF08C089E061E00E94512189E062
:1058F00061E00E946F218091C7089091C808A09133
:10590000C908B091CA08A3FF08C082E061E00E9404
:10591000512182E061E00E946F218091C70890913F
:10592000C808A091C908B091CA08A4FF08C082E2C3
:1059300061E00E94512182E261E00E946F211330F8
:10594000C9F0143028F4113069F0123068F408C03E
:10595000153041F11530D0F0163009F062C02FC07B
:105960008DE12BC082E229C083EA96E00E9462307A
:105970008CE223C08091C7089091C808A091C90803
:10598000B091CA08A2FF4DC088E017C08091C70837
:105990009091C808A091C908B091CA0896FF41C06B
:1059A00089E00BC08091C7089091C808A091C908F0
:1059B000B091CA08A3FF35C082E060E030C08DE13D
:1059C00061E00E946F2182E261E00E946F2180917C
:1059D000C7089091C808A091C908B091CA08A2FF51
:1059E00004C088E061E00E946F218091C708909117
:1059F000C808A091C908B091CA0896FF04C089E000
:105A000061E00E946F218091C7089091C808A09121
:105A1000C908B091CA08A3FF04C082E061E00E94F7
:105A20006F211F91089510929E060895CF93DF93E2
:105A3000EC018091C7089091C808A091C908B09165
:105A4000CA0882FF0BC063E070E080E090E00E9433
:105A500037208BE061E00E946F2106C063E070E0B8
:105A600080E090E00E94372089818093C5008A8180
:105A70008093C4008B818093C2008C818093CA0084
:105A8000DF91CF910895DC018091C50011968C9330
:105A900011978091C40012968C931297E2ECF0E07B
:105AA000808113968C9313978091CA0014968C93DF
:105AB000149780818F7D808380818F7E8083808119
:105AC000877F808360E072EC81E090E04C910E94DF
:105AD0004B2487E161E00E946F218BE060E00E942F
