:100000000C9468050C945E340C948F340C94C034BA
:100010000C94F1340C9422350C9453350C948435A3
:100020000C94B5350C9490050C9490050C949005A7
:100030000C94A6210C9490050C9490050C94082027
:100040000C9490050C9490050C9490050C949005DC
:100050000C9490050C9490050C9490050C94E31F5F
:100060000C9490050C9431230C9490050C949005FD
:100070000C9490050C9490050C9490050C949005AC
:100080000C9490050C9490050C9490050C9490059C
:100090000C9472230C9490050C9490050C94DD1D27
:1000A0000C9490050C9490050C9490050C9490057C
:1000B0000C9490050C9490050C9490050C9490056C
:1000C0000C9490050C9490050C94900507634236AF
:1000D000B79BD8A71A39685618AEBAAB558C1D3CD9
:1000E000B7CC5763BD6DEDFD753EF6177231BF009D
:1000F0000000803F08000000BE922449123EABAAD7
:10010000AA2ABECDCCCC4C3E00000080BEABAAAA31
:10011000AA3E00000000BF000000803F0000000079
:1001200000084178D3BB4387D1133D190E3CC3BDB2
:100130004282AD2B3E68EC8276BED98FE1A93E4C5F
:1001400080EFFFBE01C4FF7F3F0000000000446558
:1001500076696365206E6F7420666F756E643A20F1
:10016000004E4F5420436F6E6E65637465640044A7
:100170006973636F6E6E65637465642E0054656D9C
:100180007065726174757265206D656173757265F5
:100190006D656E742070757420746F20736C656566
:1001A00070004661696C656420737562736372697F
:1001B00062696E672E004E6F746966696361746967
:1001C0006F6E2072656365697665642E005761699C
:1001D00074696E67206576656E74732E2E2E0052DC
:1001E000656164696E6720617474726962757465B3
:1001F0002E2E200045787465726E2074656D7065D2
:10020000726174757265206D6561737572656D6577
:100210006E7420696E2070726F67726573732E2E14
:100220000057726974696E672061747472696275CF
:1002300074652E2E20004174747269627574652095
:1002400056616C756520284153434949293A20007D
:100250004174747269627574652056616C75653A93
:10026000200052656164696E67206174747269620E
:100270007574652E2E200045787465726E20646555
:100280007669636520666F756E642E20436F6E6EAF
:10029000656374696E672E2E2E2000466972737432
:1002A000207363616E20666F722065787465726E6C
:1002B0002064657669636500496E7465726E2064BA
:1002C0006576696365206E6F7420666F756E643A3B
:1002D00020004E4F5420436F6E6E6563746564005A
:1002E000496E7465726E2064657669636520646921
:1002F00073636F6E6E65637465642E004C69676826
:100300007420696E74656E73697479206D656173AC
:100310007572656D656E742070757420746F2073CE
:100320006C656570004661696C6564207375627305
:1003300063726962696E672E004E6F7469666963E5
:100340006174696F6E2072656365697665642E00FD
:1003500057616974696E67206576656E74732E2EB9
:100360002E0052656164696E6720617474726962FF
:100370007574652E2E20004C6967687420696E7450
:10038000656E73697479206D6561737572656D65ED
:100390006E7420696E2070726F67726573732E2E93
:1003A0000057726974696E6720617474726962754E
:1003B00074652E2E200054656D70657261747572BF
:1003C00065206D6561737572656D656E74207075FD
:1003D0007420746F20736C656570004661696C658C
:1003E00064207375627363726962696E672E004E72
:1003F0006F74696669636174696F6E2072656365A5
:10040000697665642E0057616974696E6720657648
:10041000656E74732E2E2E0052656164696E6720BE
:100420006174747269627574652E2E2000496E7451
:1004300065726E2054656D706572617475726520A9
:100440006D6561737572656D656E7420696E20707F
:10045000726F67726573732E2E0057726974696EBE
:1004600067206174747269627574652E2E20004174
:1004700074747269627574652056616C75652028A4
:100480004153434949293A200041747472696275A5
:1004900074652056616C75653A2000526561646927
:1004A0006E67206174747269627574652E2E200007
:1004B000496E7465726E2064657669636520666F47
:1004C000756E642E20436F6E6E656374696E672E61
:1004D0002E2E20004669727374207363616E20664D
:1004E0006F7220696E7465726E20646576696365EB
:1004F00000536D61727457696E646F7773003605CF
:100500003F054D05720586059305A705BB05220627
:1005100056066E0679068A069B06AE06BB06424C58
:1005200045206D6F64756C65206E6F742064657412
:1005300065637465640030303030303730430053C9
:1005400063616E20706172616D733A2000312530F5
:10055000327825303278253032782530327825309F
:100560003278253032783B2025643B2025753B0DC1
:100570000A00443A25782578257825782578257845
:100580003B2025642C003B20496E6465783D257531
:100590000D0A0053746F70206661696C2E206572BD
:1005A000723A2025780A005363616E206661696C97
:1005B0002E206572723A2025780A005363616E20FE
:1005C000706172616D733A20474150206D6F6465B0
:1005D0003D25753B207363616E5F696E746572764D
:1005E000616C3D25753A207363616E5F77696E6457
:1005F0006F773D25753B207363616E5F6475706C2A
:1006000069636174655F66696C746572696E673D84
:1006100025753B205458506F7765723D25753B0D0D
:100620000A004465766963652025753B20253032D4
:1006300078253032782530327825303278253032BE
:1006400078253032783B20525353493A25643B2079
:100650004E616D653A006572726F722077726974CF
:10066000696E672E206572723A2025780A0009208B
:1006700065633A2025780D0A0041444376616C2871
:10068000484558293A25780D0A0041444376616C63
:1006900028444543293A25640D0A004144435661E4
:1006A0006C6D5628444543293A25730D0A00546160
:1006B00028444543293A25730D0A00417474726930
:1006C0006275746520257520496E6469636174657F
:1006D00064210D0A004C0760078607AD07CD07E5CA
:1006E00007F307030818082E083F084B0852086F45
:1006F000088D08A308B108C108E408EA0857726F1A
:100700006E672074696D6520666F726D61742E204E
:100710004D757374206265202264643A68683A6D8E
:100720006D220057726F6E672074696D6520666F69
:10073000726D61742E204D75737420626520226481
:10074000643A68683A6D6D3A73732200416C617265
:100750006D204D6F6465206D617463686573200062
:100760005B446179203A20686F757273203A206D7E
:10077000696E75746573203A207365636F6E647378
:100780005D202D3E20005B44617465203A20686F37
:10079000757273203A206D696E75746573203A2006
:1007A0007365636F6E64735D202D3E20005B486F40
:1007B000757273203A206D696E75746573203A20E6
:1007C0007365636F6E64735D202D3E20005B4D6921
:1007D0006E75746573203A207365636F6E64735D24
:1007E000202D3E20005B5365636F6E64735D202D8A
:1007F0003E20004F6E636520706572207365636FE5
:100800006E6400496E636F727265637420616C611F
:10081000726D206D6F6465005B253032753A25304E
:1008200032753A253032753A253032755D005B25D8
:100830003032753A253032753A253032755D005BBD
:10084000253032753A253032755D005B25303275C2
:100850005D005B446179203A20686F757273203ABD
:10086000206D696E75746573205D202D3E20005BE0
:1008700044617465203A20686F757273203A206D68
:10088000696E75746573205D202D3E20005B486F96
:10089000757273203A206D696E757465735D202DD5
:1008A0003E20005B4D696E757465735D202D3E20A2
:1008B000004F6E636520706572206D696E7574659A
:1008C0000025732C20253032752F253032752F25C9
:1008D0003032752C20253032753A253032753A2564
:1008E000303275006572726F720025303275256383
:1008F00025303275256325303275256325303275F4
:100900002563253032752563253032752563253002
:10091000327500002124272A2D3033002225282B70
:100920002E313400202326292C2F320505050503FE
:100930000303030101010404030606060606060676
:10094000060104050105010302020202020201027E
:100950000205050404030404010304070707010258
:1009600008101020408004081020400202040810E3
:100970002040800102802040042001010204081070
:100980002001408040800102080408800410040215
:100990000100000809000000000000000000000045
:1009A0000000000000000000000000000000000047
:1009B0000000000000000000000000000000000037
:1009C0000000000000407A10F35A00A0724E18098F
:1009D0000010A5D4E80000E87648170000E40B54A6
:1009E000020000CA9A3B000000E1F5050000809675
:1009F0009800000040420F000000A08601000000A7
:100A0000102700000000E803000000006400000060
:100A100000000A00000000000100000000002C7629
:100A2000D888DC674F0823DFC1DFAE59E1B1B79644
:100A3000E5E3E453C63AE651997696E8E6C28426A1
:100A4000EB898C9B62ED407C6FFCEFBC9C9F40F27D
:100A5000BAA56FA5F490055A2AF75C936B6CF967F9
:100A60006DC11BFCE0E40D47FEF520E6B500D0EDBE
:100A7000902E0300943577050080841E0800002026
:100A80004E0A000000C80C333333330F986E1283C4
:100A90001141EF8D2114893BE65516CFFEE6DB1898
:100AA000D1844B381BF77C1D901DA4BBE42420325D
:100AB00084725E228100C9F124ECA1E53D275C141B
:100AC000A1262527D12CCB2DA830CD32E6354F37A6
:100AD00011241FBECFEFD1E2DEBFCDBF14E0A0E0F6
:100AE000B2E0E0E8F3E802C005900D92AC32B10745
:100AF000D9F71CE0ACE2B4E001C01D92A73EB107FB
:100B0000E1F71AE0C0EDDAE004C02297FE010E948E
:100B10009F3BCE3BD107C9F70E947F250C94BE4175
:100B20000C940000EF92FF920F93DF93CF93CDB719
:100B3000DEB760970FB6F894DEBF0FBECDBFA82F0B
:100B4000002309F461C07E010894E11CF11C88E0D7
:100B5000F70111928A95E9F729833A834B835C83E5
:100B60006D837E83AF83988780E2801BE82FFF2709
:100B7000E7FDF09549815A816B817C81181684F0DC
:100B800019861A861B861C86882799278E1B9F0B21
:100B900004C0440F551F661F771F8A95D2F728C0DF
:100BA000202F332727FD3095DB01CA01022E04C018
:100BB000880F991FAA1FBB1F0A94D2F789879A87AB
:100BC000AB87BC8704C07695679557954795EA959E
:100BD000D2F78D819E81AF81B88504C0880F991F9F
:100BE000AA1FBB1F2A95D2F7482B592B6A2B7B2BA8
:100BF0004D875E876F87788B29853A854B855C8525
:100C00006D857E85AF8598898A2F60960FB6F8949A
:100C1000DEBF0FBECDBFCF91DF910F91FF90EF9060
:100C20000895AEE5B0E0E7E1F6E00C94663BA8E09D
:100C30004E010894811C911CF4016A2E11926A9451
:100C4000E9F729833A834B835C836D837E838F83AB
:100C50009887CE010996FC011192AA95E9F7A98619
:100C6000BA86CB86DC86ED86FE860F87188B2984B4
:100C70003A844B845C84ED84FE840F8518896980F6
:100C80007A808B809C806DA67EA68FA698AA6D80A8
:100C90007E808F809884E114F1040105110509F02C
:100CA000B3C3621473048404950408F03DC100E0EA
:100CB000201600E0300601E0400600E0500688F40F
:100CC0001FEF211631044104510439F030F048E09F
:100CD000E42EF12C012D112D18C0EE24FF248701E4
:100CE00014C020E0221620E0320620E0420621E077
:100CF000520630F038E1E32EF12C012D112D05C004
:100D000020E1E22EF12C012D112DD201C1010E2C7A
:100D100004C0B695A795979587950A94D2F78C50FD
:100D20009D4FDC012C9180E290E0A0E0B0E08E19B4
:100D30009F09A00BB10B7C018D01E21AF10801099A
:100D40001109E114F10401051105A1F10E2C04C0F3
:100D5000220C331C441C551C0A94D2F7A4019301A5
:100D60000E2C04C0220F331F441F551F0A94D2F7C4
:100D700080E290E08E199F096DA47EA48FA498A8AC
:100D800004C096948794779467948A95D2F7622AE0
:100D9000732A842A952AADA4BEA4CFA4D8A804C0DF
:100DA000AA0CBB1CCC1CDD1CEA94D2F7ADA6BEA6D7
:100DB000CFA6D8AA6201EE24FF24CDAADEAAEFAA0C
:100DC000F8AE920181012070307009AF1AAF2BAFDD
:100DD0003CAFC401B301A70196010E94293B7B01EE
:100DE0008C01C401B3012DA93EA94FA958AD0E94A1
:100DF000293BC901DA013C014D01C401B30129AD10
:100E00003AAD4BAD5CAD0E94E33A9B01AC0187016A
:100E1000FF24EE24ADA4BEA4CFA4D8A8C601AA275F
:100E2000BB2757016801A82AB92ACA2ADB2AA216B9
:100E3000B306C406D506E0F4089461087108810879
:100E40009108A20CB31CC41CD51CA214B304C40486
:100E5000D50470F0A216B306C406D50648F408946B
:100E60006108710881089108A20CB31CC41CD51C30
:100E7000A21AB30AC40AD50AC601B5012DA93EA912
:100E80004FA958AD0E94293B7B018C01C601B501D9
:100E90002DA93EA94FA958AD0E94293BC901DA01ED
:100EA0005C016D01C601B50129AD3AAD4BAD5CAD3C
:100EB0000E94E33A9B01AC018701FF24EE248DA53B
:100EC0009EA5AFA5B8A9A070B070E82AF92A0A2B90
:100ED0001B2BE216F30604071507C0F40894A108BB
:100EE000B108C108D108E20CF31C041D151DE21461
:100EF000F3040405150550F0E216F3060407150780
:100F000028F40894A108B108C108D108D301992791
:100F1000882786017501E82AF92A0A2B1B2BE9AAE2
:100F2000FAAA0BAB1CABCFC4211431044104510409
:100F300071F461E070E080E090E020E030E040E0BB
:100F400050E00E94293BC901DA011C012D0100E09B
:100F5000201600E0300601E0400600E0500688F46C
:100F60001FEF211631044104510431F028F048E00C
:100F700050E060E070E017C040E050E060E070E0FA
:100F800012C020E0221620E0320620E0420621E0D6
:100F9000520628F048E150E060E070E004C040E113
:100FA00050E060E070E0D201C101042E04C0B695AB
:100FB000A795979587950A94D2F78C509D4FDC01A1
:100FC0002C91E0E2EE2EF12C012D112DD801C7015C
:100FD000841B950BA60BB70B821B9109A109B109C4
:100FE0000097A105B10561F464015301A218B3088B
:100FF000C408D50831E0632E712C812C912C1EC1C0
:101000006F968FAF6F97082E04C0220C331C441CC0
:10101000551C0A94D2F7EE2DE81B640153010E2EE5
:1010200004C0D694C794B794A7940A94D2F7A401A5
:1010300093016F960FAC6F9704C0220F331F441FAC
:10104000551F0A94D2F76DA47EA48FA498A80E2EE3
:1010500004C096948794779467940A94D2F7840195
:101060007301E22AF32A042B152BE9A6FAA60BA793
:101070001CA73201882499249201810120703070CC
:1010800021960CAF1DAF2EAF3FAF2197C601B50122
:10109000A40193010E94293B7B018C01C601B5018B
:1010A000A40193010E94293BC901DA0125968CAF66
:1010B0009DAFAEAFBFAF2597BC01CD0121962CAD42
:1010C0003DAD4EAD5FAD21970E94E33A9B01AC016F
:1010D0008701FF24EE24A9A4BAA4CBA4DCA4C601F2
:1010E000AA27BB275C016D01AE28BF28C02AD12AE0
:1010F000A216B306C406D50660F525966CAD7DAD87
:101100008EAD9FAD259761507040804090402596F0
:101110006CAF7DAF8EAF9FAF2597A20CB31CC41CE4
:10112000D51CA214B304C404D50498F0A216B306C7
:10113000C406D50670F461507040804090402596FA
:101140006CAF7DAF8EAF9FAF2597A20CB31CC41CB4
:10115000D51CA21AB30AC40AD50AC601B501A40156
:1011600093010E94293B7B018C01C601B501A401BA
:1011700093010E94293BC901DA013C014D01C401E0
:10118000B30121962CAD3DAD4EAD5FAD21970E94D0
:10119000E33A9B01AC018701FF24EE2489A59AA5BF
:1011A000ABA5BCA5A070B07057016801A82AB92AE8
:1011B000CA2ADB2AA216B306C406D506E0F40894B0
:1011C0006108710881089108A20CB31CC41CD51CCD
:1011D000A214B304C404D50470F0A216B306C40666
:1011E000D50648F408946108710881089108A20C9A
:1011F000B31CC41CD51C8DA59EA5AFA5B8A96F9620
:101200000FAC6F9704C0880F991FAA1FBB1F0A94C9
:10121000D2F78DA79EA7AFA7B8ABA21AB30AC40A8C
:10122000D50A2596ECACFDAC0EAD1FAD2597D701C8
:1012300099278827682A792A8A2A9B2A82012227C5
:10124000332729960CAF1DAF2EAF3FAF2997A201D0
:101250009101407050702D962CAF3DAF4EAF5FAFF7
:101260002D97C601B50129962CAD3DAD4EAD5FADB4
:1012700029970E94293B7B018C01C601B501299663
:101280002CAD3DAD4EAD5FAD29970E94293BC90104
:10129000DA0161968CAF9DAFAEAFBFAF6197BC0175
:1012A000CD012D962CAD3DAD4EAD5FAD2D970E947D
:1012B000E33A9B01AC018701FF24EE24ADA4BEA458
:1012C000CFA4D8A8C601AA27BB2757016801A82A1E
:1012D000B92ACA2ADB2AA216B306C406D50660F5C7
:1012E00061966CAD7DAD8EAD9FAD619761507040E4
:1012F0008040904061966CAF7DAF8EAF9FAF61979D
:10130000A20CB31CC41CD51CA214B304C404D50481
:1013100098F0A216B306C406D50670F4615070406A
:101320008040904061966CAF7DAF8EAF9FAF61976C
:10133000A20CB31CC41CD51CA21AB30AC40AD50A39
:10134000C601B50129962CAD3DAD4EAD5FAD2997D7
:101350000E94293B7B018C01C601B50129962CAD69
:101360003DAD4EAD5FAD29970E94293BC901DA0121
:101370005C016D01C601B5012D962CAD3DAD4EADA4
:101380005FAD2D970E94E33A9B01AC018701FF24DA
:10139000EE248DA59EA5AFA5B8A9A070B070E82ACF
:1013A000F92A0A2B1B2BE216F30604071507C0F4D3
:1013B0000894A108B108C108D108E20CF31C041D6F
:1013C000151DE214F3040405150550F0E216F306AA
:1013D0000407150728F40894A108B108C108D1082A
:1013E0006196ECACFDAC0EAD1FAD6197D7019927AE
:1013F000882796018501082B192B2A2B3B2B09AB3B
:101400001AAB2BAB3CAB62C26E147F048006910614
:1014100008F451C220E0E21620E0F20621E00207C3
:1014200020E0120788F43FEFE316F10401051105EF
:1014300031F028F048E050E060E070E017C040E094
:1014400050E060E070E012C040E0E41640E0F406D6
:1014500040E0040741E0140728F048E150E060E074
:1014600070E004C040E150E060E070E0D801C701E6
:10147000042E04C0B695A795979587950A94D2F740
:101480008C509D4FDC012C9130E2A32EB12CC12C4D
:10149000D12CD601C501841B950BA60BB70B821B63
:1014A0009109A109B1090097A105B10589F4E614D4
:1014B000F7040805190508F4F2C16DA47EA48FA4F1
:1014C00098A8621473048404950408F0E8C1F3C179
:1014D0006E968FAF6E97082E04C0EE0CFF1C001F97
:1014E000111F0A94D2F76A2D681BD201C101062E82
:1014F00004C0B695A795979587950A94D2F75C0195
:101500006D01AE28BF28C02AD12AADA2BEA2CFA2AB
:10151000D8A6720161016E960FAC6E9704C0CC0C18
:10152000DD1CEE1CFF1C0A94D2F7C9A2DAA2EBA2C2
:10153000FCA264015301062E04C0D694C794B7944C
:10154000A7940A94D2F7D401C3016E960FAC6E979C
:1015500004C0880F991FAA1FBB1F0A94D2F7EDA4DD
:10156000FEA40FA518A904C016950795F794E79453
:101570006A95D2F737014801682A792A8A2A9B2A74
:101580006D8E7E8E8F8E98A2EDA0FEA00FA118A565
:10159000380188249924980187012070307065965D
:1015A0000CAF1DAF2EAF3FAF6597C601B501A401CB
:1015B00093010E94293B7B018C01C601B501A40166
:1015C00093010E94293BC901DA011C012D01C201CE
:1015D000B10165962CAD3DAD4EAD5FAD65970E94F6
:1015E000E33A9B01AC018701FF24EE24AD8CBE8C55
:1015F000CF8CD8A0C601AA27BB2757016801A82A0B
:10160000B92ACA2ADB2AA216B306C406D50600F5F3
:1016100008942108310841085108EDA0FEA00FA14F
:1016200018A5AE0CBF1CC01ED11EAE14BF04C00650
:10163000D10670F0A216B306C406D50648F4089485
:101640002108310841085108AE0CBF1CC01ED11E34
:10165000A21AB30AC40AD50AC601B501A4019301AE
:101660000E94293B7B018C01C601B501A4019301B5
:101670000E94293BC901DA013C014D01C401B301BB
:1016800065962CAD3DAD4EAD5FAD65970E94E33ADA
:101690009B01AC018701FF24EE248D8D9E8DAF8DC3
:1016A000B8A1A070B07057016801A82AB92ACA2A47
:1016B000DB2AA216B306C406D50600F50894610815
:1016C0007108810891086DA17EA18FA198A5A60E31
:1016D000B71EC81ED91EA616B706C806D90670F0D2
:1016E000A216B306C406D50648F40894610871082A
:1016F00081089108A60EB71EC81ED91ED601C501C5
:10170000821B930BA40BB50B898F9A8FAB8FBC8F69
:10171000D1019927882764015301A82AB92ACA2A26
:10172000DB2AA9AABAAACBAADCAA860175012FEFE7
:101730003FEF40E050E0E222F32204231523A6010C
:10174000662777276D964CAF5DAF6EAF7FAF6D9715
:10175000A9A0BAA0CBA0DCA06FEF7FEF80E090E063
:10176000A622B722C822D92289A19AA1ABA1BCA1E5
:101770001D0144245524C801B701A60195010E940A
:10178000E33A69966CAF7DAF8EAF9FAF6997C801A2
:10179000B701A20191010E94E33A3B014C016D9611
:1017A0006CAD7DAD8EAD9FAD6D97A60195010E948C
:1017B000E33A7B018C016D966CAD7DAD8EAD9FAD36
:1017C0006D97A20191010E94E33A5B016C01A801AF
:1017D0009701260D371D481D591D69966CAC7DACCF
:1017E0008EAC9FAC6997C401AA27BB27280F391F6D
:1017F0004A1F5B1F2E153F054007510748F4E12C97
:10180000F12C61E0062F112DAE0CBF1CC01ED11EA5
:10181000CA01AA27BB27BC01CD016A0D7B1D8C1D07
:101820009D1D698C7A8C8B8C9C8C6616770688063D
:10183000990640F1661577058805990509F043C0BA
:10184000D9019927882769962CAD3DAD4EAD5FAD86
:10185000699740705070820F931FA41FB51F2DA56C
:101860003EA54FA558A96E960FAC6E9704C0220FE7
:10187000331F441F551F0A94D2F7281739074A0708
:101880005B0708F509A91AA92BA93CA9015010402A
:101890002040304009AB1AAB2BAB3CAB14C06624E4
:1018A0007724430121E030E040E050E029AB3AAB3F
:1018B0004BAB5CAB0BC066247724430119AA1AAA70
:1018C0001BAA1CAA03C0662477244301FE0171965B
:1018D00088E0DF011D928A95E9F7A9A8BAA8CBA8EC
:1018E000DCA8A98ABA8ACB8ADC8A6D8A7E8A8F8A2A
:1018F000988E29A93A894B895C89662D7E898F89C2
:10190000988DC25ADF4FE2E10C94823B0F931F93F4
:10191000CF93DF9384EA96E061EF74E00E947A2E21
:1019200082E594E060E00E941D1B89EA96E00E9437
:10193000013160E072EC81E090E041E00E9403251B
:1019400081E00E941D2389E096E060E040E00E9473
:10195000A2268FE061E00E9409228FE061E00E94F0
:10196000272208EF13E0E801888161E00E94092244
:10197000229684E0CC30D807B9F7F801808161E085
:101980000E9427220E5F1F4F0C171D07B1F7DF9132
:10199000CF911F910F910895AF92BF92CF92DF9296
:1019A000EF92FF920F931F935C01BC01672F772783
:1019B00062956F7080E090E00E9465389B01AC01F9
:1019C00060E070E080E090E40E947E397B018C0151
:1019D0008FEF9FE0A822B922CC24DD24C601B501F7
:1019E0000E9465385B016C01C801B7012AE037ED40
:1019F00043E25CE30E941B399B01AC01C601B501C7
:101A00000E941B391F910F91FF90EF90DF90CF90B4
:101A1000BF90AF9008954F925F926F927F928F9296
:101A20009F92AF92BF92CF92DF92EF92FF920F936D
:101A30001F93DF93CF9300D000D0CDB7DEB784EAF9
:101A400096E064ED74E00E947A2E84EA96E060E00D
:101A500072E00E94C12E84EA96E06CE074E00E947D
:101A6000A82E82E594E06CE074E00E94BB1C019714
:101A700009F010C384EA96E060EB74E00E947A2ECD
:101A800082E594E06CE074E00E943C1A80932C04A0
:101A9000813009F0FAC284EA96E069E172E00E94BE
:101AA000C12E4091070550E060E070E084EA96E0C6
:101AB0002AE030E00E94732F84EA96E068E372E047
:101AC0000E94C12E82E594E0609107050E94F818FB
:101AD000482F552747FD5095652F752F84EA96E0CE
:101AE0002AE030E00E94732F84EA96E06BE974E00C
:101AF0000E947A2E82E594E06091070543E050E071
:101B00000E94541884EA96E069E874E00E944B2E23
:101B100010E00AC0E12FF0E0E75FFA4F84EA96E0B8
:101B200060810E942A2E1F5F80910805181790F38C
:101B300084EA96E00E943C2E84EA96E06FE674E028
:101B40000E944B2E10E00AC0E12FF0E0E75FFA4F51
:101B500084EA96E060810E94952E1F5F80910805BF
:101B6000181790F384EA96E00E943C2E84EA96E0EF
:101B70000E943C2E81E08093280484EA96E06AE586
:101B800074E00E947A2E82E594E06091070544E2B9
:101B900050E028E234E001E00E94DF17892B31F4A5
:101BA00084EA96E06DE274E00E947A2E81E08983F7
:101BB0001A8282E594E06091070542E250E09E01BE
:101BC0002F5F3F4F02E00E94DF1790932F04809316
:101BD0002E04892B09F0F2C084EA96E068E174E0F3
:101BE0000E947A2E82E594E06091070541E250E080
:101BF0000E945418109230040E942D205B016C0149
:101C000080E090E0A0E0B0E080934404909345042D
:101C1000A0934604B09347043C014D017FC084EA81
:101C200096E06FEE73E00E947A2E50904F054424A8
:101C3000E0904E05FF24E428F52884EA96E06EE360
:101C400072E00E94C12E00E010E084EA96E0B80144
:101C5000A7012AE030E00E94B12F84EA96E066E511
:101C600072E00E94A82E1091530500E06091520589
:101C700070E0602B712B7695679576956795882730
:101C800077FD8095982F0E94673820E030E040E093
:101C90005DE30E941B396093440470934504809374
:101CA00046049093470484EA96E065E672E00E9459
:101CB000C12E4091440450914504609146047091B6
:101CC000470484EA96E00E94672F84EA96E00E9427
:101CD0003C2EC401B301209144043091450440914D
:101CE0004604509147040E9464373B014C018091A7
:101CF00030048F5F8093300410922F0410922E04D2
:101D000002C00F97B9F10E942D206A157B058C0542
:101D10009D0520F40E942D205B016C018091300410
:101D200090E02091290430912A048217930714F53A
:101D30000E942D206A197B098C099D096053754703
:101D400080409040B8F484EA96E066E074E00E9437
:101D50007A2E82E594E048E853E160E070E00E946A
:101D6000D01490E090932F0480932E048531910538
:101D700041F655CF6091300470E0882777FD80955B
:101D8000982F0E9467389B01AC01C401B3010E94E7
:101D9000CC379B01AC01209344043093450440931D
:101DA00046045093470440E022E001E314E00E941F
:101DB000A33BC80161E00E94E6230AC084EA96E0E2
:101DC0006BED73E00E947A2E84EA96E00E943C2E2E
:101DD0001092280482E594E06091070544E250E007
:101DE00028E234E001E00E94DF17892B51F084EAF9
:101DF00096E066EB73E00E947A2E84EA96E00E94F9
:101E00003C2E81E08093280484EA96E061EA73E046
:101E10000E947A2E82E594E06091070544E450E048
:101E200028E234E001E00E94DF17892B31F484EAD4
:101E300096E067E773E00E947A2E81E08B831C8234
:101E400082E594E06091070542E450E09E012D5F39
:101E50003F4F02E00E94DF1790932F0480932E04DF
:101E6000892B09F0E4C084EA96E062E673E00E9400
:101E70007A2E82E594E06091070541E450E00E94EB
:101E80005418109230040E942D205B016C0180E0F8
:101E900090E0A0E0B0E08093400490934104A093D0
:101EA0004204B09343043C014D0171C084EA96E0C2
:101EB00069E373E00E947A2E50904F054424E0902D
:101EC0004E05FF24E428F52884EA96E06EE372E0EC
:101ED0000E94C12E00E010E084EA96E0B801A7015C
:101EE0002AE030E00E94B12F84EA96E066E572E0D5
:101EF0000E94A82E1091530500E08091520590E0B9
:101F0000802B912B0E94CC0C609340047093410471
:101F1000809342049093430484EA96E06AE772E077
:101F20000E94C12E409140045091410460914204AE
:101F30007091430484EA96E00E94672F84EA96E059
:101F40000E943C2EC401B301209140043091410411
:101F500040914204509143040E9464373B014C017C
:101F6000809130048F5F8093300410922F04109280
:101F70002E0402C00F97B9F10E942D206A157B052F
:101F80008C059D0520F40E942D205B016C01809141
:101F9000300490E02091290430912A04821793079D
:101FA00014F50E942D206A197B098C099D09605344
:101FB000754780409040B8F484EA96E060E573E0AD
:101FC0000E947A2E82E594E048E853E160E070E0F8
:101FD0000E94D01490E090932F0480932E048531BA
:101FE000910541F663CF6091300470E0882777FD5A
:101FF0008095982F0E9467389B01AC01C401B30102
:102000000E94CC379B01AC012093400430934104E3
:10201000409342045093430440E022E001E314E083
:102020000E94A33BC80161E00E94E6230AC084EA43
:1020300096E065E273E00E947A2E84EA96E00E94C0
:102040003C2E1092280482E594E06091070544E458
:1020500050E028E234E001E00E94DF17892B51F0C4
:1020600084EA96E06CEF72E00E947A2E84EA96E0B1
:102070000E943C2E82E594E0609107050E942F1992
:1020800084EA96E060EE72E009C084EA96E062EDD0
:1020900072E004C084EA96E068EB72E00E947A2E57
:1020A00084EA96E00E943C2E82E594E060E00E9483
:1020B0001D1B84EA96E06BE972E00E947A2E84EAA6
:1020C00096E06CE872E00E94C12E84EA96E06AE134
:1020D00074E00E94A82E82E594E06AE174E00E9418
:1020E000BB1C019709F0D7C184EA96E067E772E06C
:1020F0000E947A2E82E594E06AE174E00E943C1A24
:1021000080932D04813009F0C1C184EA96E069E131
:1021100072E00E94C12E4091070550E060E070E03F
:1021200084EA96E02AE030E00E94732F84EA96E089
:1021300068E372E00E94C12E82E594E06091070599
:102140000E94F818482F552747FD5095652F752F89
:1021500084EA96E02AE030E00E94732F84EA96E059
:1021600062E672E00E947A2E82E594E060910705B3
:1021700043E050E00E94541884EA96E060E572E083
:102180000E944B2E10E00AC0E12FF0E0E75FFA4F0B
:1021900084EA96E060810E942A2E1F5F80910805E4
:1021A000181790F384EA96E00E943C2E84EA96E0A9
:1021B00066E372E00E944B2E10E00AC0E12FF0E0CF
:1021C000E75FFA4F84EA96E060810E94952E1F5FD8
:1021D00080910805181790F384EA96E00E943C2E3F
:1021E00084EA96E00E943C2E81E08093280484EAF1
:1021F00096E061E272E00E947A2E82E594E06091BE
:10220000070544E250E028E234E001E00E94DF17D5
:10221000892B31F484EA96E064EF71E00E947A2E13
:1022200081E08B831C8282E594E06091070542E2A5
:1022300050E09E012D5F3F4F02E00E94DF17909318
:102240002F0480932E04892B09F0F2C084EA96E0D3
:102250006FED71E00E947A2E82E594E060910705AF
:1022600041E250E00E945418109230040E942D2048
:102270005B016C0180E090E0A0E0B0E08093480456
:1022800090934904A0934A04B0934B043C014D0140
:102290007FC084EA96E066EB71E00E947A2E50904F
:1022A0004F054424E0904E05FF24E428F52884EAF5
:1022B00096E06EE372E00E94C12E00E010E084EA36
:1022C00096E0B801A7012AE030E00E94B12F84EA2D
:1022D00096E066E572E00E94A82E1091530500E09A
:1022E0006091520570E0602B712B7695679576951D
:1022F0006795882777FD8095982F0E94673820E0A2
:1023000030E040E05DE30E941B3960934804709325
:10231000490480934A0490934B0484EA96E065EA6A
:1023200072E00E94C12E409148045091490460918E
:102330004A0470914B0484EA96E00E94672F84EA75
:1023400096E00E943C2EC401B301209148043091D4
:10235000490440914A0450914B040E9464373B0168
:102360004C01809130048F5F8093300410922F04D1
:1023700010922E0402C00F97B9F10E942D206A1509
:102380007B058C059D0520F40E942D205B016C01CE
:102390008091300490E02091290430912A04821722
:1023A000930714F50E942D206A197B098C099D0959
:1023B0006053754780409040B8F484EA96E06DEC35
:1023C00071E00E947A2E82E594E048E853E160E0F3
:1023D00070E00E94D01490E090932F0480932E041C
:1023E0008531910541F655CF6091300470E0882722
:1023F00077FD8095982F0E9467389B01AC01C4013E
:10240000B3010E94CC379B01AC0120934804309368
:10241000490440934A0450934B0440E022E001E316
:1024200014E00E94A33BC80161E00E94E6230AC0B9
:1024300084EA96E062EA71E00E947A2E84EA96E0ED
:102440000E943C2E1092280482E594E060910705DA
:1024500044E250E028E234E001E00E94DF17892BDB
:1024600051F084EA96E06DE771E00E947A2E84EAEA
:1024700096E00E943C2E82E594E0609107050E9460
:102480002F1984EA96E06FE671E009C084EA96E0CD
:1024900061E671E004C084EA96E06EE471E00E94B7
:1024A0007A2E84EA96E00E943C2E81E00E94DD2193
:1024B000AC0190934D0480934C0400D000D066276B
:1024C00057FD6095762F80E290E0A0E0B0E0EDB798
:1024D000FEB781839283A383B48389EA96E00AE7F7
:1024E00010E020E030E0ECE6CE2EE2E0DE2EE12C43
:1024F000F12C8824992454010E94EB2F6B010F903A
:102500000F900F900F90B601882777FD8095982F38
:1025100041E00E94D824E0904404F09045040091EA
:10252000460410914704C801B70120E030E048ECB0
:1025300051E40E9417398823ECF0FBE7CF16D10451
:1025400074F4C801B70120914804309149044091C6
:102550004A0450914B040E94173918165CF48FE01E
:1025600060E00E94272281E090E090934F048093E6
:102570004E0422C08FE061E00E94272210924F0497
:1025800010924E0419C081E00E94E2228F3649F475
:102590008FE060E00E94272210934F0400934E04C6
:1025A0000DC0833659F48FE061E00E94272210921B
:1025B0004F0410924E0402C001E010E081E00E943E
:1025C000BE22892B01F760914E0470914F04882739
:1025D00077FD8095982F41E00E94D824E090400438
:1025E000F09041040091420410914304C801B701E6
:1025F00020E030E04CE053E40E94C837882364F4C4
:1026000080915004909151048A30910529F00196EF
:102610009093510480935004C801B70120E030E04A
:1026200040E253E40E94173918165CF4809150047C
:1026300090915104009729F0019790935104809351
:10264000500448EFE42E43E0F42E00E010E00BC00D
:10265000F701808160E00E9427220F5F1F4F82E018
:1026600090E0E80EF91E20915004309151040217B9
:10267000130774F3B901882777FD8095982F41E0FF
:102680000E94D8248AEB92E061E00E94E6230F903A
:102690000F900F900F90CF91DF911F910F91FF90AE
:1026A000EF90DF90CF90BF90AF909F908F907F90F2
:1026B0006F905F904F900895FC01E950FF4F80812B
:1026C000E75FF040882309F4C4C0E750FF4F8081E2
:1026D000E95FF040882309F5E650FF4F80818230A2
:1026E000A1F0833030F4882371F0813009F0B1C05B
:1026F00008C0843071F0843050F0853009F0A9C0F2
:102700000AC082E0089581E0089583E0089584E09E
:10271000089585E0089586E00895813041F4E650FB
:10272000FF4F8081882309F094C087E008958230AC
:1027300089F4E650FF4F8081813031F0813030F0F4
:10274000823009F086C004C089E0089588E00895C9
:102750008AE008958330E9F4E650FF4F80818230AB
:1027600091F0833030F4882361F0813009F071C03A
:1027700006C0833051F0843009F06BC008C08CE093
:1027800008958BE008958DE008958EE008958FE020
:102790000895843011F5E650FF4F80818330A9F011
:1027A000843028F4813059F0823068F40AC08530D2
:1027B00081F0853060F0863009F04BC00CC081E1BB
:1027C000089580E1089582E1089583E1089584E108
:1027D000089585E1089586E108958530D9F4E6509D
:1027E000FF4F8081823081F0833028F4882351F0BC
:1027F000813079F505C0833049F0843051F508C047
:1028000088E1089587E1089589E108958AE10895AE
:102810008BE10895863059F4E650FF4F808188237C
:1028200021F08130B1F48DE108958CE10895873075
:1028300081F4E650FF4F8081813029F0813028F00B
:10284000823039F404C08FE108958EE1089580E26A
:10285000089580E00895CF93DF93FC0180E092EC2F
:10286000A1E0B0E080839183A283B383E055FF4F62
:1028700011821082E05BF040CF018A5B9F4FDC0148
:1028800086E0ED0119928A95E9F7EB5AFF4F8FE048
:102890008083399782E08193119211928BE4819326
:1028A00082E3819311921082389680E094E09183C4
:1028B0008083DF91CF91089582E594E00E942B14EC
:1028C0000895CF93DF93EC018D599F4FFC018FE169
:1028D000DF011D928A95E9F7CE57DF4F2881C25854
:1028E000D04081E056C0FE01E80FF11DEE57FF4FCA
:1028F00090818F5FFE01E80FF11DEE57FF4FE081E1
:10290000482F4F5FE930F1F4E92F903208F0EFE102
:1029100090E02E2F30E0215030400CC0AC0FBD1F96
:10292000AD59BF4FFE01E80FF11DEE57FF4F8081FB
:102930008C939F5F892F840FA92FB0E0A217B30754
:102940006CF325C0E830F9F4E92F903208F0EFE19C
:1029500090E02E2F30E0215030400CC0AC0FBD1F56
:10296000AD59BF4FFE01E80FF11DEE57FF4F8081BB
:102970008C939F5F892F840FA92FB0E0A217B30714
:102980006CF382E00AC0892F840F815002C081E07D
:1029900004C0821708F4A7CF80E0DF91CF9108959B
:1029A0008F929F92AF92BF92CF92DF92EF92FF925F
:1029B0000F931F93CF93DF93EC014A015B018C01CE
:1029C00009501F4F81E4D8011D928A95E9F762C032
:1029D0008C810E94BE2204970CF455C08C810E9409
:1029E000E222F8018083803809F04DC08C810E947A
:1029F000E2228E0108501F4FD8018C938C810E94D7
:102A0000E222C750DF4F8883C95FD0408C810E948B
:102A1000E222C650DF4F8883CA5FD0400E942D203B
:102A20006B017C018C810E94BE22F801208130E084
:102A3000821793070CF04EC00E942D206C197D095F
:102A40008E099F09681579058A059B0508F042C023
:102A50000E942D206C157D058E059F0518F7DECF91
:102A60008C810E94E222D7018D937D010F5F1F4F61
:102A700002341105F9F0F601808190E00396801789
:102A8000910774F717C00E942D206C157D058E05E7
:102A90009F0520F40E942D206B017C010E942D20B7
:102AA0006C197D098E099F09681579058A059B05B2
:102AB00008F48ECFCE010E945C13DF91CF911F915D
:102AC0000F91FF90EF90DF90CF90BF90AF909F90CD
:102AD0008F9008959BEFE92EF12CEC0EFD1E04E083
:102AE00010E088EFC82ED12CCC0EDD1EC4CFBF92D3
:102AF000CF92DF92EF92FF920F931F93CF93DF93CA
:102B0000EC01C62EB42E0596FC0181E4DF011D9276
:102B10008A95E9F70E942D207B018C01DD2418C0E5
:102B20008C810E94E222FE01ED0DF11D8583D3947C
:102B3000DC1438F5B0E4BD1520F10E942D206E158F
:102B40007F058007910720F40E942D207B018C01D6
:102B5000DC1428F08C810E94BE22892B91F00E9407
:102B60002D206E197F09800B910B64317105810551
:102B7000910538F48C810E94BE221816190684F241
:102B8000DCCFDE01A055BF4F81E0B81661F4FE0135
:102B9000ED0DF11D948180E0238130E0822B932B99
:102BA0008D939C9302C01D921C92DD2041F4C05570
:102BB000DF4F8FEF9FEF99838883C05BD040FE018A
:102BC000E055FF4F80819181DF91CF911F910F914F
:102BD000FF90EF90DF90CF90BF900895CF93DF9359
:102BE000EC018C818823A1F489EA96E00E94F03000
:102BF000688179818A819B814C810E9403258C8127
:102C00000E941D238FE261E00E9409228FE215C01D
:102C10008130B1F489EA96E00E941A3168817981A5
:102C20008A819B814C810E9403258C810E941D23F7
:102C300084E061E00E94092284E061E00E94272292
:102C40008C81882351F48091CD089091CE08A09179
:102C5000CF08B091D00884600BC0813089F4809196
:102C6000CD089091CE08A091CF08B091D00888608F
:102C70008093CD089093CE08A093CF08B093D0084E
:102C8000CE0148EE53E060E070E00E94D0148E3137
:102C900009F481E0DF91CF910895AF92BF92CF9276
:102CA000DF92EF92FF920F931F93CF93DF937C01FC
:102CB0005AE5C52ED12CC80ED91EF601808191810E
:102CC0008F51974019F420E030E053C08701045A37
:102CD0001F4FE60142E6A42EB12CAE0CBF1C68814A
:102CE000798189EA96E0F80141918F010E94B5301F
:102CF000688179816F5F7F4F798368830A151B052F
:102D000071F789EA96E0F80140810E94B530F6013A
:102D10008081918101969183808387010D591F4F96
:102D2000E701C65ADF4F82E890E0E80EF91E68819D
:102D3000798189EA96E0F80141918F010E94B530CE
:102D4000688179816F5F7F4F798368830E151F05D6
:102D500071F789EA96E040EF0E94B5306881798189
:102D60006F5F7F4F89EA96E040EF0E94B53021E027
:102D700030E0C901DF91CF911F910F91FF90EF904B
:102D8000DF90CF90BF90AF900895DF92EF92FF92C7
:102D90000F931F93CF93DF93EC01C950DF4F8881CE
:102DA000C75FD040803839F0C750DF4F8881C95F96
:102DB000D040863041F47CE5E72EF12CEC0EFD1E70
:102DC000D70195E009C0C650DF4F8881CA5FD04067
:102DD000882389F380E068C0FE01E90FF11DE3500C
:102DE000FF4F80818D939150B8F7FE01EE59FF4F50
:102DF000C550DF4F888180832A962881C550D140F5
:102E0000203208F02FE1CE018E579F4FFC0181E266
:102E1000DF011D928A95E9F730E0422F50E00AC0A9
:102E2000FE01E80FF91FEB5FFE4F8081E358F04091
:102E300080833F5F832F90E0481759078CF76130FC
:102E400029F4CE010E946114D82E0BC09E012D5989
:102E50003F4FC90160E270E04FE150E00E94373C13
:102E6000DD248E010A5B1F4FC701B80146E050E028
:102E70000E942A3C0097B9F0FE01EE54FF4F80817A
:102E80009181019691838083D801F70186E00190BA
:102E90000D928150E1F7CE016D2D0E944D16892BC8
:102EA00011F482E001C081E0DF91CF911F910F9179
:102EB000FF90EF90DF9008956F927F929F92AF9274
:102EC000BF92CF92DF92EF92FF920F931F93DF9307
:102ED000CF93CDB7DEB75C01F62EE42ED22EC02EF6
:102EE000912E6DB67EB68CE3861718F421E030E0A3
:102EF00052C0262F30E02B5F3F4FEDB7FEB7E21BED
:102F0000F30B0FB6F894FEBF0FBEEDBF0DB71EB7A3
:102F10000F5F1F4FC80160E070E0A9010E94373CBD
:102F2000F4E0FF0EF801F082FCEFFF0EF8011182D1
:102F3000F282E382D482FF2021F4F5E0EF2EF12C1F
:102F400015C0D8018C2D992D9C01F9018191159600
:102F50008C93159711968E2F8C198F15B8F3FA94C0
:102F6000EF2CFF2486E090E0E80EF91EF501848145
:102F70000E941D23DD2408C0E00FF11F8081F501B0
:102F800064810E94B323D394ED2DF0E0EE15FF058C
:102F900098F320E030E0C9010FB6F8947EBE0FBE72
:102FA0006DBECF91DF911F910F91FF90EF90DF9059
:102FB000CF90BF90AF909F907F906F900895CF92E9
:102FC000DF92EF92FF920F931F93DF93CF93CDB7D2
:102FD000DEB77C01702FCDB6DEB6802F90E0049670
:102FE000ADB7BEB7A81BB90B0FB6F894BEBF0FBEE6
:102FF000ADBF0DB71EB70F5F1F4F11966C93F80151
:10300000418352837383D80140E050E009C0F90145
:10301000E40FF51F808113968C9313974F5F5F4FDA
:1030200011964717A0F37C5FC701672F44E025E0A6
:103030000E945C17C70167E041E00E947715892B69
:1030400001F5C70148EE53E060E070E00E94D01443
:10305000813111F090E01AC0F701E055FF4F4DEFBC
:1030600050E0E40EF51ED7019C9180E02E917D0189
:1030700044E05FEFE40EF51E30E0822B932B91834A
:103080008083F701E055FF4F808191810FB6F8945E
:10309000DEBE0FBECDBECF91DF911F910F91FF908D
:1030A000EF90DF90CF9008959F92AF92BF92CF9212
:1030B000DF92EF92FF920F931F93DF93CF9300D095
:1030C0000F92CDB7DEB77C01962E6A01A6EBAA2E31
:1030D000B12CA80EB91E81E4D5011D928A95E9F79D
:1030E00069834A83DB82C70163E044E024E08E0108
:1030F0000F5F1F4F0E945C17C70167E041E00E940D
:103100007715E0EBF0E0EE0EFF1ED7010D911C915C
:10311000E0E5FFEFEE0EFF1E0115110509F058C0A6
:10312000C70140ED57E060E070E00E94D0148823B2
:1031300019F401E010E04CC0853119F0082F10E0BF
:1031400047C02DEF30E0E20EF31ED7014C91F7019E
:103150002291DF018E917D01E5E0FFEFEE0EFF1E73
:103160008915B1F5942F80E030E0822B932B8C15DC
:103170009D0571F52FEF30E0E20EF31ED7018C9123
:10318000E1E0FFEFEE0EFF1E873110F086E102C096
:10319000882321F020E0482F50E015C081E0D501C0
:1031A0008C93E7EBF0E0EE0EFF1E80E3D7018C93EB
:1031B0000FC0F701E80FF91FE150FF4F8081E9547C
:1031C000F04080832F5F822F90E0481759078CF7DB
:1031D000C8010F900F900F90CF91DF911F910F9129
:1031E000FF90EF90DF90CF90BF90AF909F900895A9
:1031F000EF92FF920F931F93DF93CF930F92CDB770
:10320000DEB77C01698361E043E021E08E010F5F5E
:103210001F4F0E945C17C70166E040E00E947715CF
:10322000F70191858981981789F420EB30E0E20E4F
:10323000F31EF7018081918120E53FEFE20EF31E3E
:103240008F5F9F4F19F0F701828501C080E00F90DA
:10325000CF91DF911F910F91FF90EF900895EF9222
:10326000FF920F931F93DF93CF930F92CDB7DEB7EB
:103270007C01698361E043E020E08E010F5F1F4F16
:103280000E945C17C70167E041E00E94771525EBBB
:1032900030E0E20EF31EF70190812BE43FEFE20EE7
:1032A000F31EF7018185981719F021E030E02CC05A
:1032B000F701938580E0228530E0282B392B80EBC5
:1032C00090E0E80EF91EF7013183208380E59FEF3F
:1032D000E80EF91E21153105B9F4C70140E157E2A6
:1032E00060E070E00E94D0148F3061F4EDEFF0E008
:1032F000EE0EFF1EF701908180E0229130E0282B36
:10330000392B02C0282F30E0C9010F90CF91DF91F7
:103310001F910F91FF90EF9008958F929F92AF921F
:10332000BF92CF92DF92EF92FF920F931F93DF93A2
:10333000CF93CDB7DEB765970FB6F894DEBF0FBE5B
:10334000CDBF5C014A01D22EC32E89EA96E0AE01C0
:103350004F5F5F4F0E94BE302D2D3C2DC901AC0147
:103360008815990508F4A4010A30110518F40AE03B
:1033700010E006C02CE00138120710F000E81CE055
:10338000970181E0253F380710F024EF31E08E816E
:103390008F838D8188878C8189878B818A878A81B9
:1033A0008B8789818C871D868E869F86488B598B5B
:1033B0000A8B1B8B2C8B3D8BC5016FE046E023E015
:1033C0008E01095F1F4F0E945C17C50167E040E056
:1033D0000E947715F501928580E0218530E0282B49
:1033E000392B80EB90E0A80EB91EF50131832083C4
:1033F00080E59FEFA80EB91E2115310549F5F501AD
:10340000838525EB30E0A20EB31EF50180832BE40B
:103410003FEFA20EB31EC50148EE53E060E070E03E
:103420000E94D014182F64E670E080E090E00E94C3
:10343000C3201B3059F48CEF90E0A80EB91EF501A3
:103440008081853019F421E030E002C0212F30E086
:10345000C90165960FB6F894DEBF0FBECDBFCF9100
:10346000DF911F910F91FF90EF90DF90CF90BF9071
:10347000AF909F908F900895EF92FF920F931F93BC
:103480004CE350E02CE430E004E610E0EE24FF24AE
:103490000E948D191F910F91FF90EF900895BF9298
:1034A000CF92DF92EF92FF920F931F93DF93CF9310
:1034B00000D00F92CDB7DEB77C01D62EC42EB22E2F
:1034C00069834A832B8363E046E026E08E010F5F29
:1034D0001F4F0E945C17C70166E041E00E9477150C
:1034E00020EB30E0E20EF31EF7018081918120E5B0
:1034F0003FEFE20EF31E892B91F481E590E0E80E98
:10350000F91EF701D1927F01C08222E030E0E20E85
:10351000F31EF701B0822CEA3FEFE20EF31EF70133
:10352000E055FF4F808191810F900F900F90CF91C8
:10353000DF911F910F91FF90EF90DF90CF90BF90A0
:103540000895FC01262FDC01AE5ABF4FEF5AFF4F02
:1035500060814C910E944F1A0895EF92FF920F9351
:103560001F937C0160E046E024E000E010E00E9450
:103570005C17C70166E041E00E9477151F910F912B
:10358000FF90EF900895FF920F931F93CF93DF93D7
:10359000EC010E94AD1ACE0161E00E94A11A892BB4
:1035A00019F0E2E0FE2E07C0CC5ADF4F81E088839D
:1035B000C455D040FF248E01065A1F4FF801608188
:1035C000718189EA96E040EF0E94B530F801608190
:1035D00071816F5F7F4F89EA96E040EF0E94B530BE
:1035E00080E0FF2009F481E0DF91CF911F910F91DE
:1035F000FF900895EF92FF920F931F937C0161E07B
:1036000049E020E000E010E00E945C1764EF71E008
:1036100080E090E00E94C320C70148EE53E060E0E4
:1036200070E00E94D01490E0813009F491E0892F7D
:103630001F910F91FF90EF900895CF93DF93EC01CE
:10364000623018F081E08C8301C06C838C81882308
:1036500031F486E161E00E94092286E107C08130F1
:1036600041F486E061E00E94092286E061E00E9468
:10367000272264E670E080E090E00E94C320CE0143
:103680000E94EE158130A1F1C850DF4F8881C85FDC
:10369000D0408C3071F4C750DF4F8881C95FD04073
:1036A000882339F4C650DF4F8881CA5FD040882311
:1036B000F9F0CE010E94FA1A8823D1F484EA96E048
:1036C0006EE175E00E947A2E89EA96E06CE041E0B6
:1036D0000E94333160E375E780E090E00E94C320F0
:1036E00089EA96E06CE040E00E94333180E003C05C
:1036F000CE010E94C31ADF91CF910895AF92BF927D
:10370000DF92EF92FF920F931F93DF93CF93CDB78A
:10371000DEB765970FB6F894DEBF0FBECDBF5C0174
:103720006D8B603110F08FE08D8B19821A821B82B5
:103730001C8246E0D42EFE013596DF018D2D1D92B0
:103740008A95E9F7C50161E047E02CE08E010B5E48
:103750001F4F0E945C17C50164E040E00E9477158E
:10376000B5016B5F7F4F89EA96E07E010894E11C0A
:10377000F11CA70124E00E943C301B861C861D869C
:103780001E86FE013F96DF011D92DA94E9F7EEEF07
:10379000F4E0659174918E01055F1F4FC8010E948E
:1037A000233CC701B8010E94493C009719F021E071
:1037B00030E009C0E5E5F0E0AE0EBF1E8D89D50111
:1037C0008C9320E030E0C90165960FB6F894DEBF17
:1037D0000FBECDBFCF91DF911F910F91FF90EF9062
:1037E000DF90BF90AF9008954F925F926F927F925B
:1037F0009F92AF92BF92CF92DF92EF92FF920F9380
:103800001F93CF93DF93EC012B01D42E72EBE72EA5
:10381000F12CE80EF91EF7011182108266E4662E83
:10382000712C680E791E86E0F30111928A95E9F7F2
:10383000CE01622F0E947E1B8E010C5A1F4FF80191
:103840008081813081F0CE0161E00E94A11A892B34
:1038500021F481E0F801808306C08FEF9FEFF7012C
:103860009183808369C08E01045B1F4FCE0161E0AC
:1038700046E022E00E945C17CE0166E041E00E9433
:103880007715892B09F058C08D2D90E028EE33E094
:10389000AC01429FC001439F900D529F900D112497
:1038A0005C01CC24B7FCC094DC2C51EEA51653E986
:1038B000B50654E0C50650E0D50638F050EEA52E0A
:1038C00053E9B52E54E0C52ED12C0E942D207B014A
:1038D0008C011DC0CE0160E00E94C516C301B2017B
:1038E00046E050E00E942A3C009719F499249394F2
:1038F00001C099240E942D206E157F058007910735
:1039000020F40E942D207B018C01992071F50E94EA
:103910002D206E197F09800B910B6A157B058C0594
:103920009D0510F5CE0148EE53E060E070E00E9486
:10393000D0148C31F1F6CECFFE01E055FF4F8081DF
:10394000918102C0892D90E0DF91CF911F910F915D
:10395000FF90EF90DF90CF90BF90AF909F907F90BF
:103960006F905F904F9008959924CE010E94AD1AF8
:10397000892B41F3E1CFEF92FF920F931F93DF93D7
:10398000CF9300D000D000D0CDB7DEB77C018B0143
:10399000FB0101900020E9F73197E61BF70B3E97FA
:1039A00010F0FB011486C8010E94523C89EA96E09F
:1039B000B8018E010F5F1F4FA8010E94BE30C701E2
:1039C000B8014EE12FE00E94F41B26960FB6F89442
:1039D000DEBF0FBECDBFCF91DF911F910F91FF9042
:1039E000EF900895482F613210F081E008958091A2
:1039F0008C05843011F082E008956093D505A4EB26
:103A0000B5E0842F9C01F90102C081918D938E2F26
:103A1000841B8617D0F380E00895589859988091B8
:103A2000B90081608093B9008091B9008260809371
:103A3000B9008091BC0080688093BC008091BC007C
:103A400080618093BC008091BC008F7B8093BC0020
:103A50008091BC008F7D8093BC008091BC00877FEB
:103A60008093BC008091CD089091CE08A091CF08A2
:103A7000B091D00886FD14C08091CD089091CE08F9
:103A8000A091CF08B091D00890FD0AC08091CD08D8
:103A90009091CE08A091CF08B091D00893FF04C0B8
:103AA0008091BC008B7F03C08091BC0084608093B8
:103AB000BC008091BC008E7F8093BC00809164002C
:103AC000806880936400089510928C05E4E6F0E02D
:103AD00080818F778083589A599AE9EBF0E0808152
:103AE0008E7F808380818D7F808381E48093B80086
:103AF00085E48093BC0080E2E2E9F5E0DF01982FE5
:103B00001D929A95E9F7E4EBF5E0DF01982F1D92FD
:103B10009A95E9F7E6EDF5E0DF011D928A95E9F760
:103B20000895882349F01092F8051092F905109233
:103B3000FA051092FB0513C08091F8059091F905E4
:103B4000A091FA05B091FB050196A11DB11D8093CE
:103B5000F8059093F905A093FA05B093FB058091C1
:103B6000F8059091F905A091FA05B091FB05805AEE
:103B70009648A140B04010F480E008951092F805F6
:103B80001092F9051092FA051092FB050E94641D2F
:103B900081E0089585ED8093BC0081E00E94911D35
:103BA00005C080E00E94911D882321F48091BC0013
:103BB00084FDF7CF10928C0508951F920F920FB6D7
:103BC0000F920BB60F9211242F933F934F935F9355
:103BD0006F937F938F939F93AF93BF93EF93FF93D5
:103BE0008091B90090E0887F90708036910509F44B
:103BF000C3C081369105CCF58832910509F47BC0AC
:103C000089329105B4F48031910509F46FC0813196
:103C100091053CF4009709F40EC1089709F00FC113
:103C200065C08831910509F466C0809709F007C125
:103C300077C08034910509F48DC08134910544F436
:103C40008033910509F472C0C89709F0F8C072C0BA
:103C50008035910509F472C08835910509F47FC05B
:103C60008834910509F0EBC0E8C08839910509F462
:103C7000D8C089399105ECF48837910509F47CC0E6
:103C8000893791054CF48836910509F475C0803761
:103C9000910509F0D4C070C08838910509F4C1C0FD
:103CA0008039910509F46EC08038910509F0C7C0CC
:103CB00069C0803B910509F48CC0813B91054CF4AF
:103CC000803A910509F470C0883A910509F0B7C0AF
:103CD00080C0803C910509F4A8C0883C910509F496
:103CE000A4C0883B910509F0AAC088C080918D05C9
:103CF0008093BB0013C09091B2058091B3059817D3
:103D000008F09BC09091B205E92FF0E0EE56FA4F13
:103D100080818093BB009F5F9093B20585EC82C049
:103D20000E94CA1D80E28093F70589C080E38093DA
:103D3000F70583C088E38093F70577C08091B205CB
:103D40009091BB00E82FF0E0EE56FA4F90838F5F22
:103D50008093B2059091B2058091B3055FC08091C8
:103D6000B2059091BB00E82FF0E0EE56FA4F908339
:103D70008F5F8093B20561C083E080938C051092C1
:103D8000F605CCCF8091F605803208F04AC08091CC
:103D9000F6059091BB00E82FF0E0EA52FA4F9083CD
:103DA0008F5F8093F605BACF8091F605803230F4AC
:103DB000E091F605F0E0EA52FA4F10826091F605C4
:103DC000E0919005F091910586ED95E070E0099500
:103DD0002CC084E080938C051092D4051092D505F8
:103DE000E0918E05F0918F0509958091D505882386
:103DF00029F481E08093D5051092B4059091D40503
:103E0000E92FF0E0EC54FA4F80818093BB009F5F74
:103E10009093D4059091D4058091D505981708F416
:103E20007DCF85E88093BC000AC085EC8093BC0000
:103E300010928C0504C01092F7050E94CA1DFF91D4
:103E4000EF91BF91AF919F918F917F916F915F9112
:103E50004F913F912F910F900BBE0F900FBE0F907F
:103E60001F901895DF92EF92FF920F931F93E82E09
:103E7000062FF72E142FD22E413210F081E051C0C0
:103E800081E00E94911D05C080E00E94911D882361
:103E900021F480918C058823B9F782E080938C050A
:103EA0008FEF8093F7051092B2051093B305A2E946
:103EB000B5E0202F3F2DC901FC0102C081918D93F7
:103EC0008E2F801B8117D0F38E2D90E0880F991FC5
:103ED00080938D0585EE8093BC0081E00E94911D4A
:103EE000DD2041F40BC080E00E94911D882311F079
:103EF00085E017C080918C058230A9F38091F70589
:103F00008F3F11F480E00DC08091F705803211F4ED
:103F100082E007C08091F705803311F084E001C092
:103F200083E01F910F91FF90EF90DF9008950F9322
:103F30001F93CF93DF93182FEB01042F413210F022
:103F400081E03CC081E00E94911D05C080E00E949C
:103F5000911D882321F480918C058823B9F781E095
:103F600080938C058FEF8093F7051092B205009334
:103F7000B305110F116010938D0585EE8093BC0081
:103F800081E00E94911D08C080E00E94911D88235D
:103F900019F020E030E00FC080918C058130A1F352
:103FA000F8CFFE01E20FF31FD901AE56BA4F8C9144
:103FB00080832F5F3F4F2017A0F380E0DF91CF91E8
:103FC0001F910F9108951F920F920FB60F92112417
:103FD0008F939F93AF93BF938091DF089091E008F8
:103FE000A091E108B091E2080196A11DB11D809356
:103FF000DF089093E008A093E108B093E208BF9136
:10400000AF919F918F910F900FBE0F901F901895B9
:104010001F920F920FB60F9211248F939F93AF931D
:10402000BF938091E3089091E408A091E508B091D6
:10403000E6080196A11DB11D8093E3089093E40862
:10404000A093E508B093E608BF91AF919F918F913F
:104050000F900FBE0F901F9018958F929F92AF9266
:10406000BF92CF92DF92EF92FF920F931F938FB781
:10407000F894A090DF08B090E008C090E108D090DC
:10408000E2088FBF9501A60160E070E080E090E05B
:1040900001E00E949205122FF32EE42ED52EC62E9B
:1040A000B72EA82E892E02E00E949205B92F210F6B
:1040B000E1E0211708F0E0E03F0DF1E03F1508F0E6
:1040C000F0E09E2E930EE1E0931608F0E0E0FE2B68
:1040D0004E0DA1E04E1508F0A0E0FF2EF40EE1E039
:1040E000F41608F0E0E0AE2B5D0DF1E05D1508F090
:1040F000F0E00A2F050FE1E0051708F0E0E0FE2BE5
:104100006C0DA1E06C1508F0A0E01F2F160FE1E088
:10411000161708F0E0E0AE2B7B0DF1E07B1508F000
:10412000F0E0A70FE1E0A71708F0E0E0FE2B8A0D12
:1041300091E08A1508F090E0F80FE1E0F81708F038
:10414000E0E09E2BB80D392D4F2D502F612F7A2F87
:104150008F2F9B0FE9E0AE2EBB24CC24DD24EE2470
:10416000FF2400E010E00E941106952FB901842F72
:104170001F910F91FF90EF90DF90CF90BF90AF9085
:104180009F908F900895AF92BF92CF92DF92EF925F
:10419000FF920F931F935B016C0107C00E942D20BB
:1041A0006E157F058007910720F40E942D207B016A
:1041B0008C010E942D206E197F09800B910B6A15CE
:1041C0007B058C059D0550F31F910F91FF90EF909B
:1041D000DF90CF90BF90AF9008958430910570F03C
:1041E000BC0180E090E00E94653826E636E646EEA7
:1041F0005FE30E941B390E94393803C0BC01660F7F
:10420000771F6150704061F06150704049F0FB01D0
:10421000EE0FFF1F31978FB7F8943197F1F78FBFEB
:104220000895789484B7877F84BF1092DF08109236
:10423000E0081092E1081092E20884B5826084BD23
:1042400084B5816084BD85B5826085BD85B581609A
:1042500085BDEEE6F0E0808181608083E1E8F0E0FA
:10426000808182608083808181608083E0E8F0E0EB
:10427000808181608083E1EBF0E0808184608083D5
:10428000E1E9F0E0808184608083E0EBF0E0808110
:1042900081608083E0E9F0E0808181608083E4E6F2
:1042A000F0E080818E7F8083ECE7F0E080818F7783
:1042B0008083808180648083EAE7F0E0808184608D
:1042C0008083808182608083808180688083109277
:1042D000C1001092C90008959091FC05982B90930D
:1042E000FC0580FF32C0809164008E7F8093640063
:1042F00080917C008F7780937C0080917C0080642B
:1043000080937C0080917A00846080937A00809111
:104310007A00826080937A0080917A00806880932E
:104320007A00809164008F778093640080916400AC
:104330008B7F80936400809164008D7F8093640004
:10434000809165008E7F8093650008951F920F9283
:104350000FB60F920BB60F9211242F933F934F93EA
:104360005F936F937F938F939F93AF93BF93EF93DD
:10437000FF93F89481E080932B04E0E6F0E08081E5
:104380008068808380818F7B808383E060E00E94EF
:1043900027227894FF91EF91BF91AF919F918F91D8
:1043A0007F916F915F914F913F912F910F900BBE35
:1043B0000F900FBE0F901F901895282F90917C00A2
:1043C00080917A00806880937A009F70921769F0DC
:1043D00080917C002F70807F822B80937C0061E035
:1043E00070E080E090E00E94C32080917A008064B9
:1043F00080937A0080917A0086FDFCCF209178002E
:1044000040917900942F80E030E0282B392BC901AE
:104410000895282F30E0C901825A964FFC019491EB
:10442000255D364FF9018491882381F0E82FF0E073
:10443000ED5EF64FE491F0E0662329F480819095DB
:104440008923808308958081892B80830895482F54
:1044500050E0CA018F56964FFC012491CA01825A3E
:10446000964FFC019491455D564FFA0134913323E8
:10447000C1F1222331F1233021F4809180008F7724
:1044800005C0243031F4809180008F7D80938000BE
:1044900018C0213019F484B58F7704C0223021F47C
:1044A00084B58F7D84BD0DC0263021F48091B0008D
:1044B0008F7705C0273029F48091B0008F7D8093DD
:1044C000B000E32FF0E0E55EF64FE491F0E0662304
:1044D00029F4808190958923808308958081892B98
:1044E00080830895482F50E0CA018F56964FFC01F3
:1044F0002491CA01825A964FFC019491455D564F12
:10450000FA013491332319F420E030E035C022233E
:1045100031F1233021F4809180008F7705C0243061
:1045200031F4809180008F7D8093800018C021300D
:1045300019F484B58F7704C0223021F484B58F7DBF
:1045400084BD0DC0263021F48091B0008F7705C066
:10455000273029F48091B0008F7D8093B000E32F45
:10456000F0E0ED5DF64FE491F0E0808120E030E096
:10457000892311F021E030E0C9010895882389F4EE
:104580008091FD059091FE0580509E4F2091FF0582
:1045900030910006821B930B60E072E00E94163B94
:1045A0000895809101069091020680509E4F2091BF
:1045B000030630910406821B930B60E072E00E94B8
:1045C000163B08958823D1F44091FF0550910006D1
:1045D0008091FD059091FE058417950751F1FA0130
:1045E000E951F54F2081CA01019660E072E00E9416
:1045F000163B909300068093FF0519C04091030677
:104600005091040680910106909102068417950747
:1046100081F0FA01E951F74F2081CA01019660E06B
:1046200072E00E94163B909304068093030630E0EC
:1046300002C02FEF3FEFC9010895882349F410927B
:1046400000061092FF051092FE051092FD050895D8
:1046500010920406109203061092020610920106B0
:1046600008951F920F920FB60F920BB60F9211245E
:104670002F933F934F935F936F937F938F939F936A
:10468000AF93BF93EF93FF934091C600E091FD0578
:10469000F091FE05CF01019660E072E00E94163BAA
:1046A0009C018091FF05909100062817390739F089
:1046B000E951F54F40833093FE052093FD05FF91AE
:1046C000EF91BF91AF919F918F917F916F915F918A
:1046D0004F913F912F910F900BBE0F900FBE0F90F7
:1046E0001F9018951F920F920FB60F920BB60F9254
:1046F00011242F933F934F935F936F937F938F93E7
:104700009F93AF93BF93EF93FF934091CE00E091BF
:104710000106F0910206CF01019660E072E00E946E
:10472000163B9C01809103069091040628173907D7
:1047300039F0E951F74F4083309302062093010688
:10474000FF91EF91BF91AF919F918F917F916F9169
:104750005F914F913F912F910F900BBE0F900FBE25
:104760000F901F901895982F662339F48091C00000
:1047700085FFFCCF9093C60008958091C80085FF07
:10478000FCCF9093CE000895882341F48091C0001F
:1047900085FFFCCF8DE08093C60008C08091C800E3
:1047A00085FFFCCF8DE08093CE0008C08091C000D3
:1047B00085FFFCCF8AE08093C60008958091C800F1
:1047C00085FFFCCF8AE08093CE000895FC0110C0E5
:1047D0003196662339F48091C00085FFFCCF909319
:1047E000C60006C08091C80085FFFCCF9093CE0024
:1047F0009081992369F708952F923F924F925F928B
:104800006F927F928F929F92AF92BF92CF92DF92E0
:10481000EF92FF920F931F93DF93CF93CDB7DEB745
:10482000A1970FB6F894DEBF0FBECDBF6B017C0120
:1048300029013A0109A3611571058105910591F4DA
:10484000002341F48091C00085FFFCCF80E380937A
:10485000C6005BC08091C80085FFFCCF80E38093D9
:10486000CE0053C08824992454011E010894211CB1
:10487000311C8101080D191DC701B601A301920168
:104880000E94293BF80160830894811C911CA11CA3
:10489000B11CC701B601A30192010E94293BC901C5
:1048A000DA016C017D01C114D104E104F10409F7BE
:1048B0009101280D391DBE016F5F7F4FD501C401E5
:1048C0000197A109B109AC01481959091BC0FA01A6
:1048D000E20FF31FE081EA3010F4E05D01C0E95C13
:1048E000F9A1FF2339F48091C00085FFFCCFE0934C
:1048F000C60006C08091C80085FFFCCFE093CE00C3
:10490000215030406217730711F7A1960FB6F89443
:10491000DEBF0FBECDBFCF91DF911F910F91FF90F2
:10492000EF90DF90CF90BF90AF909F908F907F904F
:104930006F905F904F903F902F900895282F992768
:1049400087FD9095807F907034E0959587953A9596
:10495000E1F78A301CF0982F995C02C0982F905D87
:10496000822F8F708A301CF0282F295C02C0282FDC
:10497000205D662339F48091C00085FFFCCF9093C1
:10498000C60006C08091C80085FFFCCF9093CE0082
:10499000662339F48091C00085FFFCCF2093C600C8
:1049A00008958091C80085FFFCCF2093CE00089524
:1049B0000F931F938B019C01E42F97FF18C0442392
:1049C00041F48091C00085FFFCCF8DE28093C6004A
:1049D00007C08091C80085FFFCCF8DE28093CE0098
:1049E00030952095109501951F4F2F4F3F4FC901CE
:1049F000B8012AE030E040E050E00E2F0E94FC2396
:104A00001F910F910895EF92FF920F931F937B01D7
:104A10008C014423C1F588E00E946C21C801B701D4
:104A200022E030E040E050E00E944B3B2050304F0D
:104A3000414F5F4FCA01B901A80197010E944B3B4A
:104A4000C901DA010197A109B109292F3A2F4B2F8A
:104A5000552747FD5A950196A11DB11D2093C5000C
:104A600081508093C4008091C10080618093C10017
:104A70008091C10088608093C1008091C1008068EE
:104A80008093C10037C080E10E946C21C801B7014A
:104A900022E030E040E050E00E944B3B2050304F9D
:104AA000414F5F4FCA01B901A80197010E944B3BDA
:104AB000C901DA010197A109B109292F3A2F4B2F1A
:104AC000552747FD5A950196A11DB11D2093CD0094
:104AD00081508093CC008091C90080618093C9008F
:104AE0008091C90088608093C9008091C900806866
:104AF0008093C9001F910F91FF90EF9008950E943D
:104B0000112189EA96E00E94A930853440F081E3C2
:104B100061E00E94092281E361E00E94272289EA84
:104B200096E061E070E00E94B1308130B1F4809194
:104B3000CD089091CE08A091CF08B091D008906890
:104B40008093CD089093CE08A093CF08B093D0085F
:104B500081E090E060E00E94B83E87E20E9472220D
:104B6000892B09F44FC089EA96E060E070E00E946A
:104B7000B1308A3009F046C08BE096E00E947D2C6F
:104B80008BE096E00E94942A8BE096E00E94442CF1
:104B900080912406482F50E080912606481B510939
:104BA00080912306282F30E080912706281B3109A9
:104BB000121613065CF48CE390E0BC01269FC00142
:104BC000279F900D369F900D11240EC037FF0EC009
:104BD0008CE390E0BC01269FC001279F900D369F7B
:104BE000900D1124805F914F480F591F433051059C
:104BF00048F48091DC089091DD0880629093DD0894
:104C00008093DC088BE096E00E947D2C8BE096E0A0
:104C10000E9430298BE096E00E941F298BE096E0ED
:104C20000E94A62C63E070E080E090E00E94C32028
:104C30008091CD089091CE08A091CF08B091D00876
:104C4000A1FF5EC063E070E080E090E00E94C320BE
:104C500086E161E00E94092263E070E080E090E07C
:104C60000E94C32086E161E00E94272263E070E099
:104C700080E090E00E94C3200E94DE2C63E070E0A0
:104C800080E090E00E94C32081E00E94B72C63E0A6
:104C900070E080E090E00E94C32084E00E94C52C78
:104CA00063E070E080E090E00E94C32080E00E941A
:104CB000C02C63E070E080E090E00E94C3200E947E
:104CC000B32C63E070E080E090E00E94C3208EE9A6
:104CD00096E066E00E94FD2C63E070E080E090E0EA
:104CE0000E94C32086E161E00E94092286E160E023
:104CF0000E94272263E070E080E090E00E94C320E1
:104D000063E070E080E090E00E94C32089EA96E0D2
:104D10000E94823260930506709306068093070610
:104D2000909308068091050690910606A0910706CB
:104D3000B09108060E94183C0E94860C0E940B0D40
:104D4000FDCF08950F931F93062F142F8AE161E082
:104D50000E94092288E161E00E940922002321F0DB
:104D6000013009F048C020C0112371F48AE161E0EC
:104D70000E9427228091CD089091CE08A091CF0863
:104D8000B091D00882602FC01130A9F58AE160E0AF
:104D90000E9427228091CD089091CE08A091CF0843
:104DA000B091D0088D7F1FC0112371F488E161E0BC
:104DB0000E9427228091CD089091CE08A091CF0823
:104DC000B091D00881600FC01130A9F488E160E093
:104DD0000E9427228091CD089091CE08A091CF0803
:104DE000B091D0088E7F8093CD089093CE08A09389
:104DF000CF08B093D0081F910F91089589E261E028
:104E00000E94092288E261E00E94092280EF96E078
:104E10000E94BC330895FC01148A158A168A178AE9
:104E2000108E118E128E138E148E158E168E178E76
:104E300010A211A212A213A280E090E0A0E0B0E0C4
:104E400084A395A3A6A3B7A3089510929C061092DD
:104E50001E060895EF92FF920F931F93DF93CF9357
:104E6000CDB7DEB7EC970FB6F894DEBF0FBECDBF5F
:104E70008C01E7EFF6E065917491B5E1EB2EF12C32
:104E8000EC0EFD1EC7010E94233CE9EFF6E06591A0
:104E90007491CE0101960E94233CD80156968C91C4
:104EA000843009F46DC0853048F4823069F1833074
:104EB00008F048C0813009F000C10AC0863009F40A
:104EC0009BC0863008F47AC0873009F0F6C0B2C0C3
:104ED000EDB7FEB774970FB6F894FEBF0FBEEDBFE7
:104EE0003196075D1F4FADB7BEB712961C930E9358
:104EF00011970952104084E690E093838283F582F3
:104F0000E48281ED92E0B3C08DB79EB744970FB6AF
:104F1000F8949EBF0FBE8DBFEDB7FEB73196075D0B
:104F20001F4FADB7BEB712961C930E93119709523F
:104F3000104084E690E093838283F582E48285EDDD
:104F400092E095C08DB79EB744970FB6F8949EBF78
:104F50000FBE8DBFEDB7FEB73196075D1F4FADB7E2
:104F6000BEB712961C930E9311970952104084E617
:104F700090E093838283F582E48289ED92E077C0AA
:104F80008DB79EB744970FB6F8949EBF0FBE8DBFE6
:104F9000EDB7FEB73196075D1F4FADB7BEB712969E
:104FA0001C930E9311970952104084E690E093836E
:104FB0008283F582E4828DED92E059C08DB79EB771
:104FC00044970FB6F8949EBF0FBE8DBFEDB7FEB7E6
:104FD0003196075D1F4FADB7BEB712961C930E9367
:104FE00011970952104084E690E093838283F58202
:104FF000E48281EE92E03BC08DB79EB744970FB636
:10500000F8949EBF0FBE8DBFEDB7FEB73196075D1A
:105010001F4FADB7BEB712961C930E93119709524E
:10502000104084E690E093838283F582E48285EEEB
:1050300092E01DC08DB79EB744970FB6F8949EBFFF
:105040000FBE8DBFEDB7FEB73196075D1F4FADB7F1
:10505000BEB712961C930E9311970952104084E626
:1050600090E093838283F582E48289EE92E09783D5
:105070008683D80154968C915497808711865596D3
:105080008C915597828713865A968C915A9784876C
:10509000158657968C9157978687178658968C91C8
:1050A0005897808B118A59968C91828B138A0E9413
:1050B0005C3CEDB7FEB774961DC000D000D000D0A8
:1050C000EDB7FEB73196075D1F4FADB7BEB712966D
:1050D0001C930E9311970952104084E690E093833D
:1050E0008283CE010196958384830E945C3CEDB758
:1050F000FEB736960FB6F894FEBF0FBEEDBF98010F
:10510000275D3F4FC901EC960FB6F894DEBF0FBE86
:10511000CDBFCF91DF911F910F91FF90EF90089538
:105120001F93CF93DF93EC01162F8091F60688230F
:1051300021F480EF96E00E94393480EF96E068E633
:1051400070E00E94AC3280EF96E0612F0E94C6337F
:10515000C10FD11D80EF96E068810E94C63380EFB9
:1051600096E00E94F533DF91CF911F910895FF9251
:105170000F931F93CF93DF938C01F62E8091F60649
:10518000882321F480EF96E00E94393480EF96E086
:1051900068E670E00E94AC3280EF96E06F2D0E94CE
:1051A000C63380EF96E00E94F53380EF96E068E624
:1051B00070E041E050E00E943634C0E0D0E080EF83
:1051C00096E00E94B632882329F4CA30D10511F046
:1051D0002196F5CF80EF96E00E94BC320F0D111D95
:1051E000F801808380EF96E00E94F533DF91CF9144
:1051F0001F910F91FF9008950F931F938C016FE003
:105200000E94B728F801878583701F910F91089538
:10521000CF93DF93EC010E94FC28882319F0CE562F
:10522000DF4F888380911A068C7F80931A068BE06B
:1052300096E06FE00E949028DF91CF9108950F9340
:105240001F938C016EE00E94B728F80186858D7F40
:105250008687C8016EE00E9490281F910F910895E3
:105260000F931F938C016EE00E94B728F80186858A
:105270008E7F8687C8016EE00E9490281F910F9153
:105280000895AF92BF92CF92DF92FF920F931F9338
:10529000CF93DF938C01F62E8091F606882321F4BC
:1052A00080EF96E00E94393480EF96E068E670E087
:1052B0000E94AC3280EF96E060E070E00E94F23332
:1052C00080EF96E00E94F53380EF96E068E670E0AC
:1052D00043E150E00E943634C0E0D0E0CC24DD242D
:1052E000AF2CBB245AE0F52E0DC180EF96E00E9452
:1052F000B632882309F403C180EF96E00E94BC32E5
:10530000282FF801EC0FFD1F8083C630D10509F46A
:1053100082C0C730D105B8F4C230D10509F44EC0FF
:10532000C330D10538F4209769F1C130D10509F0B7
:10533000E4C036C0C430D10509F451C0C530D10530
:1053400008F05BC049C0CA30D10509F49BC0CB301E
:10535000D10558F4C830D10509F478C090E02F7019
:10536000C930D10508F081C064C0CC30D10509F442
:10537000A7C0CC30D10508F494C0CD30D10509F0D8
:10538000BCC0ADC090E044E0959587954A95E1F7A3
:105390008F9DC00111242F70280FF801218FADC0FF
:1053A00090E034E0959587953A95E1F78F9DC0019F
:1053B00011242F70280FF801208F9FC090E0B4E0D7
:1053C00095958795BA95E1F78F9DC00111242F70AF
:1053D000280FF801278B91C0F801868B8EC090E0D2
:1053E000A4E095958795AA95E1F78F9DC0011124BA
:1053F0002F70280FF801228F80C090E0F4E095957F
:105400008795FA95E1F78F9DC00111242F70280F21
:10541000F801258B72C090E0E4E095958795EA95B8
:10542000E1F78F9DC00111242F70280FF801248B04
:1054300064C074E0959587957A95E1F787708F9DA4
:10544000C0011124280FF801238F57C090E064E0B9
:10545000959587956A95E1F787708F9DC001112416
:105460002F70280FF801248F48C054E09595879538
:105470005A95E1F783708F9DC0011124280FF80120
:10548000258F3BC090E044E0959587954A95E1F7DC
:1054900083708F9DC00111242F70280FF801268F73
:1054A0002CC090E034E0959587953A95E1F78770A8
:1054B0008F9DC00111242F70280FF801278F1DC068
:1054C00090E0B4E095958795BA95E1F783708F9D4C
:1054D000C00111242F70280FF80120A30EC090E006
:1054E000A4E095958795AA95E1F783708F9DC001FB
:1054F00011242F70280FF80121A3219603C00894CE
:10550000C11CD11CAC16BD0628F0FAE0CF16D104A0
:1055100008F4EBCEDF91CF911F910F91FF90DF90B8
:10552000CF90BF90AF900895AF92BF92CF92DF928D
:10553000EF92FF920F931F93DF93CF93CDB7DEB718
:10554000C857D0400FB6F894DEBF0FBECDBF6C0178
:105550006AE00E94412949E2A42EB12CAC0CBD1C8A
:1055600084E6D5011D928A95E9F7E5EDF6E06591AF
:1055700074918E010F5F1F4FC8010E94233CC5012B
:10558000B8010E943E3CF60182A1823009F476C047
:10559000833030F4882371F0813009F03CC11AC0A7
:1055A000843009F4F2C0843008F4AEC0853009F0CC
:1055B00032C127C1E7EDF6E065917491C8010E9400
:1055C000233CC501B8010E943E3CE5EEF6E0659142
:1055D00074910FC0E9EDF6E065917491C8010E94E5
:1055E000233CC501B8010E943E3CE5EEF6E0659122
:1055F00074918E01075D1F4FC8010E94233C8DB737
:105600009EB70E970FB6F8949EBF0FBE8DBFEDB735
:10561000FEB7319631E5E32EF12CEC0EFD1EADB751
:10562000BEB71296FC92EE92119788E290E09383B7
:10563000828315830483D6015E968C915E97868360
:1056400017825D968C915D97808711865C968C9110
:105650005C97828713865B968C91848715860E945F
:105660005C3CEDB7FEB73E960FB6F894FEBF0FBE9A
:10567000EDBFC501B7010E943E3CF3C0EBEDF6E083
:1056800065917491C8010E94233CC501B8010E9434
:105690003E3CE7EEF6E0659174918E01075D1F4F89
:1056A000C8010E94233C8DB79EB70C970FB6F894A3
:1056B0009EBF0FBE8DBFEDB7FEB7319621E5E22E3E
:1056C000F12CEC0EFD1EADB7BEB71296FC92EE9219
:1056D000119788E290E09383828315830483D60137
:1056E0005D968C915D97868317825C968C915C9712
:1056F000808711865B968C91828713860E945C3C22
:10570000EDB7FEB73C96B0CFEDEDF6E06591749144
:10571000C8010E94233CC501B8010E943E3CE9EE4D
:10572000F6E0659174918E01075D1F4FC8010E94DC
:10573000233C8DB79EB70A970FB6F8949EBF0FBE55
:105740008DBFEDB7FEB7319691E5E92EF12CEC0E49
:10575000FD1EADB7BEB71296FC92EE92119788E28D
:1057600090E09383828315830483D6015C968C91A9
:105770005C97868317825B968C91808711860E9446
:105780005C3CEDB7FEB73A966FCFEFEDF6E0659172
:105790007491C8010E94233CC501B8010E943E3C9F
:1057A000EBEEF6E0659174918E01075D1F4FC80125
:1057B0000E94233C8DB79EB708970FB6F8949EBF02
:1057C0000FBE8DBFEDB7FEB7319681E5E82EF12C07
:1057D000EC0EFD1EADB7BEB71296FC92EE9211977D
:1057E00088E290E09383828315830483D6015B96DD
:1057F0008C91868317820E945C3CEDB7FEB7389689
:1058000033CFE1EEF6E065917491C8010E94233C2C
:10581000C501B80130CFE3EEF6E0659174918E01D9
:105820000F5F1F4FC8010E94233C00D000D000D062
:10583000EDB7FEB73196ADB7BEB71296BC92AE9239
:10584000119784E690E093838283158304830E94FA
:105850005C3CEDB7FEB736960FB6F894FEBF0FBEB0
:10586000EDBFC501C858DF4F0FB6F894DEBF0FBEBD
:10587000CDBFCF91DF911F910F91FF90EF90DF90FF
:10588000CF90BF90AF9008950F931F938C0166E067
:105890000E944129C8010E942A271F910F91089553
:1058A0000F931F93CF93DF93EC01042F68A780E33E
:1058B00061E00E94092218A5112379F0113091F4BA
:1058C00080E361E00E942722013019F482E08B8B93
:1058D00009C0002339F41B8B05C080E360E00E94FF
:1058E00027221B8A6AE070E080E090E00E94C320DB
:1058F000DF91CF911F910F9108950F931F938C010A
:1059000061E040E00E94502CC8010E940829C801B3
:105910000E940B27C8016DE00E9441298BE261E0E3
:105920000E9409228BE260E00E9427221F910F91C2
:1059300008958091F606882341F080910C07882312
:1059400021F489E096E00E94FE2608950F931F93AC
:105950008C010E94992CC80160E040E00E94502C0C
:105960001F910F9108958CB58F7B8CBD089588236E
:1059700019F48CB5806202C08CB58F7D8CBD089502
:105980009CB5937F982B9CBD08959CB5282F2370C0
:105990009C7F292B2CBD9DB581709E7F982B9DBD32
:1059A000089510929F0610929E061092A0061092E3
:1059B000A1061092A2061092A30608958EE161E05E
:1059C0000E9409228FE161E00E9409228DE161E0DD
:1059D0000E9409228EE160E00E9427228FE160E0B0
:1059E0000E9427228DE161E00E9427228CB5806110
:1059F0008CBD8CB580648CBD08951F93162F8DE1EE
:105A000061E00E94092282E261E00E9409228DE1A8
:105A100061E00E94272282E261E00E9427228091B9
:105A2000CD089091CE08A091CF08B091D008A2FFE8
:105A300008C088E061E00E94092288E061E00E94DD
:105A400027228091CD089091CE08A091CF08B091E7
:105A5000D00896FF08C089E061E00E94092289E031
:105A600061E00E9427228091CD089091CE08A091FC
:105A7000CF08B091D008A3FF08C082E061E00E9487
:105A8000092282E061E00E9427228091CD08909156
:105A9000CE08A091CF08B091D008A4FF08C082E240
:105AA00061E00E94092282E261E00E942722133015
:105AB000C9F0143028F4113069F0123068F408C0CD
:105AC000153041F11530D0F0163009F062C02FC00A
:105AD0008DE12BC082E229C089EA96E00E941A314A
