:100000000C9463030C94DE2A0C940F2B0C94402B5D
:100010000C94712B0C94A22B0C94D32B0C94042CC9
:100020000C94352C0C948B030C948B030C948B0345
:100030000C94FD190C948B030C948B030C945F1897
:100040000C948B030C948B030C948B030C948B03F8
:100050000C948B030C948B030C948B030C943A1824
:100060000C948B030C945C1B0C948B030C948B03EF
:100070000C948B030C948B030C948B030C948B03C8
:100080000C948B030C948B030C948B030C948B03B8
:100090000C949D1B0C948B030C948B030C943416C2
:1000A0000C948B030C948B030C948B030C948B0398
:1000B0000C948B030C948B030C948B030C948B0388
:1000C0000C948B030C948B030C948B03446576691E
:1000D0006365206E6F7420666F756E643A20004E03
:1000E0004F5420436F6E6E6563746564004469739A
:1000F000636F6E6E65637465642E00446973636F2D
:100100006E6E656374206661696C00417474726917
:10011000627574652056616C7565202841534349AA
:1001200049293A20004174747269627574652056D9
:10013000616C75653A200052656164696E67206183
:1001400074747269627574652E2E2000577269741A
:1001500065204F4B2E0057726974696E6720617479
:10016000747269627574652E2E2000417474726910
:10017000627574652056616C75652028415343494A
:1001800049293A2000417474726962757465205679
:10019000616C75653A200052656164696E67206123
:1001A00074747269627574652E2E200044657669D8
:1001B000636520666F756E642E20436F6E6E656397
:1001C00074696E672E2E2E20004669727374207338
:1001D00063616E20666F72206465766963650042B4
:1001E0004C455F3037204578616D706C65002602A4
:1001F0002F023D026202760283029702AB021203D3
:1002000046035E0369037A038B039E03AB03424CF0
:1002100045206D6F64756C65206E6F742064657425
:1002200065637465640030303030303730430053DC
:1002300063616E20706172616D733A200031253008
:1002400032782530327825303278253032782530B2
:100250003278253032783B2025643B2025753B0DD4
:100260000A00443A25782578257825782578257858
:100270003B2025642C003B20496E6465783D257544
:100280000D0A0053746F70206661696C2E206572D0
:10029000723A2025780A005363616E206661696CAA
:1002A0002E206572723A2025780A005363616E2011
:1002B000706172616D733A20474150206D6F6465C3
:1002C0003D25753B207363616E5F696E7465727660
:1002D000616C3D25753A207363616E5F77696E646A
:1002E0006F773D25753B207363616E5F6475706C3D
:1002F00069636174655F66696C746572696E673D98
:1003000025753B205458506F7765723D25753B0D20
:100310000A004465766963652025753B20253032E7
:1003200078253032782530327825303278253032D1
:1003300078253032783B20525353493A25643B208C
:100340004E616D653A006572726F722077726974E2
:10035000696E672E206572723A2025780A0009209E
:1003600065633A2025780D0A0041444376616C2884
:10037000484558293A25780D0A0041444376616C76
:1003800028444543293A25640D0A004144435661F7
:100390006C6D5628444543293A25730D0A00546173
:1003A00028444543293A25730D0A00417474726943
:1003B0006275746520257520496E64696361746592
:1003C00064210D0A003C04500476049D04BD04D54C
:1003D00004E304F30408051E052F053B0542055FF1
:1003E000057D059305A105B105D405DA0557726FA2
:1003F0006E672074696D6520666F726D61742E2062
:100400004D757374206265202264643A68683A6DA1
:100410006D220057726F6E672074696D6520666F7C
:10042000726D61742E204D75737420626520226494
:10043000643A68683A6D6D3A73732200416C617278
:100440006D204D6F6465206D617463686573200075
:100450005B446179203A20686F757273203A206D91
:10046000696E75746573203A207365636F6E64738B
:100470005D202D3E20005B44617465203A20686F4A
:10048000757273203A206D696E75746573203A2019
:100490007365636F6E64735D202D3E20005B486F53
:1004A000757273203A206D696E75746573203A20F9
:1004B0007365636F6E64735D202D3E20005B4D6934
:1004C0006E75746573203A207365636F6E64735D37
:1004D000202D3E20005B5365636F6E64735D202D9D
:1004E0003E20004F6E636520706572207365636FF8
:1004F0006E6400496E636F727265637420616C6133
:10050000726D206D6F6465005B253032753A253061
:1005100032753A253032753A253032755D005B25EB
:100520003032753A253032753A253032755D005BD0
:10053000253032753A253032755D005B25303275D5
:100540005D005B446179203A20686F757273203AD0
:10055000206D696E75746573205D202D3E20005BF3
:1005600044617465203A20686F757273203A206D7B
:10057000696E75746573205D202D3E20005B486FA9
:10058000757273203A206D696E757465735D202DE8
:100590003E20005B4D696E757465735D202D3E20B5
:1005A000004F6E636520706572206D696E757465AD
:1005B0000025732C20253032752F253032752F25DC
:1005C0003032752C20253032753A253032753A2577
:1005D000303275006572726F720025303275256396
:1005E0002530327525632530327525632530327507
:1005F0002563253032752563253032752563253016
:10060000327500002124272A2D3033002225282B83
:100610002E313400202326292C2F32050505050311
:100620000303030101010404030606060606060689
:100630000601040501050103020202020202010291
:10064000020505040403040401030407070701026B
:1006500008101020408004081020400202040810F6
:100660002040800102802040042001010204081083
:100670002001408040800102080408800410040228
:100680000100000809000000000000000000000058
:10069000000000000000000000000000000000005A
:1006A000000000000000000000000000000000004A
:1006B00000000000B30CE61E92248C2541274D2932
:1006C000662CCF2D392E11241FBECFEFD1E2DEBF15
:1006D000CDBF13E0A0E0B2E0EAEBF7E602C0059080
:1006E0000D92A038B107D9F71CE0A0E8B3E001C033
:1006F0001D92A631B107E1F716E0C6ECD6E004C0C2
:100700002297FE010E942630C43BD107C9F70E9400
:10071000AA1D0C94DB330C940000EF92FF920F9310
:10072000DF93CF93CDB7DEB760970FB6F894DEBFF7
:100730000FBECDBFA82F002309F461C07E0108942D
:10074000E11CF11C88E0F70111928A95E9F72983F1
:100750003A834B835C836D837E83AF83988780E28B
:10076000801BE82FFF27E7FDF09549815A816B81B7
:100770007C81181684F019861A861B861C868827A9
:1007800099278E1B9F0B04C0440F551F661F771FB0
:100790008A95D2F728C0202F332727FD3095DB011B
:1007A000CA01022E04C0880F991FAA1FBB1F0A94FA
:1007B000D2F789879A87AB87BC8704C076956795FF
:1007C00057954795EA95D2F78D819E81AF81B8857F
:1007D00004C0880F991FAA1FBB1F2A95D2F7482B68
:1007E000592B6A2B7B2B4D875E876F87788B2985EA
:1007F0003A854B855C856D857E85AF8598898A2F86
:1008000060960FB6F894DEBF0FBECDBFCF91DF91DB
:100810000F91FF90EF900895AEE5B0E0E2E1F4E0D3
:100820000C94ED2FA8E04E010894811C911CF4015A
:100830006A2E11926A94E9F729833A834B835C8389
:100840006D837E838F839887CE010996FC01119278
:10085000AA95E9F7A986BA86CB86DC86ED86FE8660
:100860000F87188B29843A844B845C84ED84FE8442
:100870000F85188969807A808B809C806DA67EA602
:100880008FA698AA6D807E808F809884E114F104F1
:100890000105110509F0B3C36214730484049504BF
:1008A00008F03DC100E0201600E0300601E04006FF
:1008B00000E0500688F41FEF211631044104510472
:1008C00039F030F048E0E42EF12C012D112D18C044
:1008D000EE24FF24870114C020E0221620E0320617
:1008E00020E0420621E0520630F038E1E32EF12C00
:1008F000012D112D05C020E1E22EF12C012D112D2D
:10090000D201C1010E2C04C0B695A7959795879585
:100910000A94D2F784599D4FDC012C9180E290E03B
:10092000A0E0B0E08E199F09A00BB10B7C018D01F6
:10093000E21AF10801091109E114F1040105110598
:10094000A1F10E2C04C0220C331C441C551C0A942B
:10095000D2F7A40193010E2C04C0220F331F441FB1
:10096000551F0A94D2F780E290E08E199F096DA47A
:100970007EA48FA498A804C09694879477946794D3
:100980008A95D2F7622A732A842A952AADA4BEA436
:10099000CFA4D8A804C0AA0CBB1CCC1CDD1CEA94B4
:1009A000D2F7ADA6BEA6CFA6D8AA6201EE24FF2438
:1009B000CDAADEAAEFAAF8AE9201810120703070B4
:1009C00009AF1AAF2BAF3CAFC401B301A701960129
:1009D0000E94B02F7B018C01C401B3012DA93EA957
:1009E0004FA958AD0E94B02FC901DA013C014D0159
:1009F000C401B30129AD3AAD4BAD5CAD0E946A2F85
:100A00009B01AC018701FF24EE24ADA4BEA4CFA4BA
:100A1000D8A8C601AA27BB2757016801A82AB92A66
:100A2000CA2ADB2AA216B306C406D506E0F4089447
:100A30006108710881089108A20CB31CC41CD51C64
:100A4000A214B304C404D50470F0A216B306C406FD
:100A5000D50648F408946108710881089108A20C31
:100A6000B31CC41CD51CA21AB30AC40AD50AC601F9
:100A7000B5012DA93EA94FA958AD0E94B02F7B0109
:100A80008C01C601B5012DA93EA94FA958AD0E9400
:100A9000B02FC901DA015C016D01C601B50129ADB4
:100AA0003AAD4BAD5CAD0E946A2F9B01AC01870152
:100AB000FF24EE248DA59EA5AFA5B8A9A070B070A7
:100AC000E82AF92A0A2B1B2BE216F306040715075E
:100AD000C0F40894A108B108C108D108E20CF31CC5
:100AE000041D151DE214F3040405150550F0E2166B
:100AF000F3060407150728F40894A108B108C108F3
:100B0000D108D3019927882786017501E82AF92A97
:100B10000A2B1B2BE9AAFAAA0BAB1CABCFC42114DE
:100B200031044104510471F461E070E080E090E030
:100B300020E030E040E050E00E94B02FC901DA012F
:100B40001C012D0100E0201600E0300601E0400607
:100B500000E0500688F41FEF2116310441045104CF
:100B600031F028F048E050E060E070E017C040E06D
:100B700050E060E070E012C020E0221620E0320673
:100B800020E0420621E0520628F048E150E060E013
:100B900070E004C040E150E060E070E0D201C101CB
:100BA000042E04C0B695A795979587950A94D2F719
:100BB00084599D4FDC012C91E0E2EE2EF12C012DA9
:100BC000112DD801C701841B950BA60BB70B821BF7
:100BD0009109A109B1090097A105B10561F464016A
:100BE0005301A218B308C408D50831E0632E712C54
:100BF000812C912C1EC16F968FAF6F97082E04C069
:100C0000220C331C441C551C0A94D2F7EE2DE81B11
:100C1000640153010E2E04C0D694C794B794A794D0
:100C20000A94D2F7A40193016F960FAC6F9704C09A
:100C3000220F331F441F551F0A94D2F76DA47EA4C0
:100C40008FA498A80E2E04C09694879477946794E6
:100C50000A94D2F784017301E22AF32A042B152B9C
:100C6000E9A6FAA60BA71CA73201882499249201B1
:100C700081012070307021960CAF1DAF2EAF3FAFB9
:100C80002197C601B501A40193010E94B02F7B01F9
:100C90008C01C601B501A40193010E94B02FC901C6
:100CA000DA0125968CAF9DAFAEAFBFAF2597BC01E3
:100CB000CD0121962CAD3DAD4EAD5FAD21970E948B
:100CC0006A2F9B01AC018701FF24EE24A9A4BAA4DA
:100CD000CBA4DCA4C601AA27BB275C016D01AE280A
:100CE000BF28C02AD12AA216B306C406D50660F5CD
:100CF00025966CAD7DAD8EAD9FAD25976150704052
:100D00008040904025966CAF7DAF8EAF9FAF25970A
:100D1000A20CB31CC41CD51CA214B304C404D50477
:100D200098F0A216B306C406D50670F46150704060
:100D30008040904025966CAF7DAF8EAF9FAF2597DA
:100D4000A20CB31CC41CD51CA21AB30AC40AD50A2F
:100D5000C601B501A40193010E94B02F7B018C0153
:100D6000C601B501A40193010E94B02FC901DA01A7
:100D70003C014D01C401B30121962CAD3DAD4EADFA
:100D80005FAD21970E946A2F9B01AC018701FF2470
:100D9000EE2489A59AA5ABA5BCA5A070B07057019B
:100DA0006801A82AB92ACA2ADB2AA216B306C406F1
:100DB000D506E0F408946108710881089108A20C36
:100DC000B31CC41CD51CA214B304C404D50470F015
:100DD000A216B306C406D50648F408946108710843
:100DE00081089108A20CB31CC41CD51C8DA59EA51E
:100DF000AFA5B8A96F960FAC6F9704C0880F991F65
:100E0000AA1FBB1F0A94D2F78DA79EA7AFA7B8ABA6
:100E1000A21AB30AC40AD50A2596ECACFDAC0EADF5
:100E20001FAD2597D70199278827682A792A8A2A0A
:100E30009B2A82012227332729960CAF1DAF2EAFA4
:100E40003FAF2997A2019101407050702D962CAFB1
:100E50003DAF4EAF5FAF2D97C601B50129962CADC2
:100E60003DAD4EAD5FAD29970E94B02F7B018C0147
:100E7000C601B50129962CAD3DAD4EAD5FAD2997AC
:100E80000E94B02FC901DA0161968CAF9DAFAEAF61
:100E9000BFAF6197BC01CD012D962CAD3DAD4EADE0
:100EA0005FAD2D970E946A2F9B01AC018701FF2443
:100EB000EE24ADA4BEA4CFA4D8A8C601AA27BB2700
:100EC00057016801A82AB92ACA2ADB2AA216B30642
:100ED000C406D50660F561966CAD7DAD8EAD9FAD57
:100EE0006197615070408040904061966CAF7DAFDB
:100EF0008EAF9FAF6197A20CB31CC41CD51CA2146B
:100F0000B304C404D50498F0A216B306C406D506EB
:100F100070F4615070408040904061966CAF7DAF3E
:100F20008EAF9FAF6197A20CB31CC41CD51CA21A34
:100F3000B30AC40AD50AC601B50129962CAD3DAD48
:100F40004EAD5FAD29970E94B02F7B018C01C60189
:100F5000B50129962CAD3DAD4EAD5FAD29970E94F0
:100F6000B02FC901DA015C016D01C601B5012D96F2
:100F70002CAD3DAD4EAD5FAD2D970E946A2F9B010C
:100F8000AC018701FF24EE248DA59EA5AFA5B8A9CD
:100F9000A070B070E82AF92A0A2B1B2BE216F30680
:100FA00004071507C0F40894A108B108C108D108C6
:100FB000E20CF31C041D151DE214F30404051505D1
:100FC00050F0E216F3060407150728F40894A10868
:100FD000B108C108D1086196ECACFDAC0EAD1FADF7
:100FE0006197D7019927882796018501082B192B2E
:100FF0002A2B3B2B09AB1AAB2BAB3CAB62C26E145A
:101000007F048006910608F451C220E0E21620E039
:10101000F20621E0020720E0120788F43FEFE31612
:10102000F1040105110531F028F048E050E060E0DE
:1010300070E017C040E050E060E070E012C040E0B7
:10104000E41640E0F40640E0040741E0140728F00D
:1010500048E150E060E070E004C040E150E060E052
:1010600070E0D801C701042E04C0B695A7959795E6
:1010700087950A94D2F784599D4FDC012C9130E278
:10108000A32EB12CC12CD12CD601C501841B950BEC
:10109000A60BB70B821B9109A109B1090097A10505
:1010A000B10589F4E614F7040805190508F4F2C13E
:1010B0006DA47EA48FA498A862147304840495047C
:1010C00008F0E8C1F3C16E968FAF6E97082E04C08A
:1010D000EE0CFF1C001F111F0A94D2F76A2D681B2B
:1010E000D201C101062E04C0B695A79597958795A4
:1010F0000A94D2F75C016D01AE28BF28C02AD12A1C
:10110000ADA2BEA2CFA2D8A6720161016E960FACAD
:101110006E9704C0CC0CDD1CEE1CFF1C0A94D2F7A9
:10112000C9A2DAA2EBA2FCA264015301062E04C0FC
:10113000D694C794B794A7940A94D2F7D401C30164
:101140006E960FAC6E9704C0880F991FAA1FBB1F25
:101150000A94D2F7EDA4FEA40FA518A904C0169511
:101160000795F794E7946A95D2F737014801682A02
:10117000792A8A2A9B2A6D8E7E8E8F8E98A2EDA068
:10118000FEA00FA118A53801882499249801870191
:101190002070307065960CAF1DAF2EAF3FAF6597D6
:1011A000C601B501A40193010E94B02F7B018C01FF
:1011B000C601B501A40193010E94B02FC901DA0153
:1011C0001C012D01C201B10165962CAD3DAD4EADA6
:1011D0005FAD65970E946A2F9B01AC018701FF24D8
:1011E000EE24AD8CBE8CCF8CD8A0C601AA27BB271D
:1011F00057016801A82AB92ACA2ADB2AA216B3060F
:10120000C406D50600F508942108310841085108A4
:10121000EDA0FEA00FA118A5AE0CBF1CC01ED11ED4
:10122000AE14BF04C006D10670F0A216B306C40601
:10123000D50648F408942108310841085108AE0C3D
:10124000BF1CC01ED11EA21AB30AC40AD50AC60109
:10125000B501A40193010E94B02F7B018C01C6014E
:10126000B501A40193010E94B02FC901DA013C012C
:101270004D01C401B30165962CAD3DAD4EAD5FADE2
:1012800065970E946A2F9B01AC018701FF24EE2421
:101290008D8D9E8DAF8DB8A1A070B0705701680183
:1012A000A82AB92ACA2ADB2AA216B306C406D5067A
:1012B00000F5089461087108810891086DA17EA16C
:1012C0008FA198A5A60EB71EC81ED91EA616B706D2
:1012D000C806D90670F0A216B306C406D50648F4AF
:1012E00008946108710881089108A60EB71EC81EEF
:1012F000D91ED601C501821B930BA40BB50B898F98
:101300009A8FAB8FBC8FD101992788276401530135
:10131000A82AB92ACA2ADB2AA9AABAAACBAADCAA6D
:10132000860175012FEF3FEF40E050E0E222F3220B
:1013300004231523A601662777276D964CAF5DAF72
:101340006EAF7FAF6D97A9A0BAA0CBA0DCA06FEF66
:101350007FEF80E090E0A622B722C822D92289A19F
:101360009AA1ABA1BCA11D0144245524C801B70119
:10137000A60195010E946A2F69966CAF7DAF8EAF72
:101380009FAF6997C801B701A20191010E946A2F1E
:101390003B014C016D966CAD7DAD8EAD9FAD6D97F3
:1013A000A60195010E946A2F7B018C016D966CADA0
:1013B0007DAD8EAD9FAD6D97A20191010E946A2F08
:1013C0005B016C01A8019701260D371D481D591DB1
:1013D00069966CAC7DAC8EAC9FAC6997C401AA27B2
:1013E000BB27280F391F4A1F5B1F2E153F054007DB
:1013F000510748F4E12CF12C61E0062F112DAE0CC1
:10140000BF1CC01ED11ECA01AA27BB27BC01CD012B
:101410006A0D7B1D8C1D9D1D698C7A8C8B8C9C8C20
:10142000661677068806990640F1661577058805E1
:10143000990509F043C0D9019927882769962CADF1
:101440003DAD4EAD5FAD699740705070820F931FF8
:10145000A41FB51F2DA53EA54FA558A96E960FAC8C
:101460006E9704C0220F331F441F551F0A94D2F7F2
:10147000281739074A075B0708F509A91AA92BA9F4
:101480003CA9015010402040304009AB1AAB2BABB7
:101490003CAB14C066247724430121E030E040E0F7
:1014A00050E029AB3AAB4BAB5CAB0BC06624772466
:1014B000430119AA1AAA1BAA1CAA03C066247724EE
:1014C0004301FE01719688E0DF011D928A95E9F7DC
:1014D000A9A8BAA8CBA8DCA8A98ABA8ACB8ADC8A30
:1014E0006D8A7E8A8F8A988E29A93A894B895C8970
:1014F000662D7E898F89988DC25ADF4FE2E10C9468
:1015000009300F9381ED95E069EC71E00E943B2674
:1015100081ED95E060E072E00E94822681ED95E029
:1015200060E773E00E94692681E893E060E773E07A
:101530000E941215019709F0F8C081ED95E06CEA60
:1015400071E00E943B2681E893E060E773E00E942F
:10155000931280938003813009F0E2C081ED95E021
:1015600062E172E00E9482264091360450E060E021
:1015700070E081ED95E02AE030E00E94972681ED51
:1015800095E061E372E00E94822681E893E0609139
:1015900036040E944F11482F552747FD5095652F5F
:1015A000752F81ED95E02AE030E00E94972681EDCD
:1015B00095E067E971E00E943B2681E893E0609145
:1015C000360443E050E00E94AB1081ED95E065E801
:1015D00071E00E940C2600E00AC0E02FF0E0E85C19
:1015E000FB4F81ED95E060810E94EB250F5F8091BC
:1015F0003704081790F381ED95E00E94FD2581EDF9
:1016000095E06BE671E00E940C2600E00AC0E02F36
:10161000F0E0E85CFB4F81ED95E060810E9456268A
:101620000F5F80913704081790F381ED95E00E94D9
:10163000FD2581ED95E066E571E00E943B2681E89D
:1016400093E06091360444E250E02EE733E001E09D
:101650000E943610892B31F481ED95E06CE471E045
:101660000E943B2681ED95E067E371E00E943B26F6
:1016700081E893E06091360441E250E00E94AB10B3
:1016800081ED95E065E271E00E940C2600E00AC061
:10169000E02FF0E0E85CFB4F81ED95E060810E9477
:1016A000EB250F5F80913704081790F381ED95E0EB
:1016B0000E94FD2581ED95E06BE071E00E940C2613
:1016C00000E00AC0E02FF0E0E85CFB4F81ED95E020
:1016D00060810E9456260F5F80913704081790F3AF
:1016E00081ED95E00E94FD2568EE73E080E090E0DA
:1016F0000E941A1981E893E0609136040E948611D5
:101700008091310490913204892B29F081ED95E08C
:101710006BEF70E00EC081ED95E06DEE70E009C0FA
:1017200081ED95E06FED70E004C081ED95E06CEC2B
:1017300070E00E943B2681ED95E00E94FD2568E85F
:1017400073E180E090E00E941A190F91089581EDF5
:1017500095E06FED71E00E943B2681E893E060E048
:101760000E9474130895FC01E950FF4F8081E75FE8
:10177000F040882309F4C4C0E750FF4F8081E95F3F
:10178000F040882309F5E650FF4F80818230A1F0B8
:10179000833030F4882371F0813009F0B1C008C083
:1017A000843071F0843050F0853009F0A9C00AC04F
:1017B00082E0089581E0089583E0089584E008952B
:1017C00085E0089586E00895813041F4E650FF4FAA
:1017D0008081882309F094C087E00895823089F4DD
:1017E000E650FF4F8081813031F0813030F082301F
:1017F00009F086C004C089E0089588E008958AE071
:1018000008958330E9F4E650FF4F8081823091F0F3
:10181000833030F4882361F0813009F071C006C054
:10182000833051F0843009F06BC008C08CE008951B
:101830008BE008958DE008958EE008958FE008957F
:10184000843011F5E650FF4F80818330A9F0843059
:1018500028F4813059F0823068F40AC0853081F074
:10186000853060F0863009F04BC00CC081E10895EE
:1018700080E1089582E1089583E1089584E1089567
:1018800085E1089586E108958530D9F4E650FF4F4B
:101890008081823081F0833028F4882351F08130B8
:1018A00079F505C0833049F0843051F508C088E1EE
:1018B000089587E1089589E108958AE108958BE10B
:1018C0000895863059F4E650FF4F8081882321F037
:1018D0008130B1F48DE108958CE10895873081F471
:1018E000E650FF4F8081813029F0813028F082302E
:1018F00039F404C08FE108958EE1089580E20895DF
:1019000080E00895CF93DF93FC0180E092ECA1E0AA
:10191000B0E080839183A283B383E055FF4F1182AF
:101920001082E05BF040CF018A5B9F4FDC0186E0D4
:10193000ED0119928A95E9F7EB5AFF4F8FE080830A
:10194000399782E08193119211928BE4819382E323
:10195000819311921082389680E094E09183808385
:10196000DF91CF91089581E893E00E94820C089561
:10197000CF93DF93EC018D599F4FFC018FE1DF0185
:101980001D928A95E9F7CE57DF4F2881C258D04083
:1019900081E056C0FE01E80FF11DEE57FF4F908128
:1019A0008F5FFE01E80FF11DEE57FF4FE081482FDA
:1019B0004F5FE930F1F4E92F903208F0EFE190E069
:1019C0002E2F30E0215030400CC0AC0FBD1FAD5960
:1019D000BF4FFE01E80FF11DEE57FF4F80818C9342
:1019E0009F5F892F840FA92FB0E0A217B3076CF374
:1019F00025C0E830F9F4E92F903208F0EFE190E0EB
:101A00002E2F30E0215030400CC0AC0FBD1FAD591F
:101A1000BF4FFE01E80FF11DEE57FF4F80818C9301
:101A20009F5F892F840FA92FB0E0A217B3076CF333
:101A300082E00AC0892F840F815002C081E004C077
:101A4000821708F4A7CF80E0DF91CF9108958F929D
:101A50009F92AF92BF92CF92DF92EF92FF920F933D
:101A60001F93CF93DF93EC014A015B018C01095076
:101A70001F4F81E4D8011D928A95E9F762C08C81DD
:101A80000E94E91A04970CF455C08C810E940D1B2A
:101A9000F8018083803809F04DC08C810E940D1BB5
:101AA0008E0108501F4FD8018C938C810E940D1B12
:101AB000C750DF4F8883C95FD0408C810E940D1BC7
:101AC000C650DF4F8883CA5FD0400E9484186B01E4
:101AD0007C018C810E94E91AF801208130E0821794
:101AE00093070CF04EC00E9484186C197D098E0972
:101AF0009F09681579058A059B0508F042C00E9478
:101B000084186C157D058E059F0518F7DECF8C8136
:101B10000E940D1BD7018D937D010F5F1F4F023473
:101B20001105F9F0F601808190E003968017910786
:101B300074F717C00E9484186C157D058E059F05EB
:101B400020F40E9484186B017C010E9484186C1997
:101B50007D098E099F09681579058A059B0508F49A
:101B60008ECFCE010E94B30BDF91CF911F910F91C9
:101B7000FF90EF90DF90CF90BF90AF909F908F90AD
:101B800008959BEFE92EF12CEC0EFD1E04E010E011
:101B900088EFC82ED12CCC0EDD1EC4CFBF92CF92C1
:101BA000DF92EF92FF920F931F93CF93DF93EC019D
:101BB000C62EB42E0596FC0181E4DF011D928A95A4
:101BC000E9F70E9484187B018C01DD2418C08C8108
:101BD0000E940D1BFE01ED0DF11D8583D394DC14D5
:101BE00038F5B0E4BD1520F10E9484186E157F050C
:101BF0008007910720F40E9484187B018C01DC147B
:101C000028F08C810E94E91A892B91F00E94841897
:101C10006E197F09800B910B643171058105910567
:101C200038F48C810E94E91A1816190684F2DCCF68
:101C3000DE01A055BF4F81E0B81661F4FE01ED0D45
:101C4000F11D948180E0238130E0822B932B8D93D2
:101C50009C9302C01D921C92DD2041F4C055DF4FC1
:101C60008FEF9FEF99838883C05BD040FE01E055E2
:101C7000FF4F80819181DF91CF911F910F91FF9054
:101C8000EF90DF90CF90BF900895CF93DF93EC015A
:101C90008C818823A1F486ED95E00E9489276881D4
:101CA00079818A819B814C810E942E1D8C810E94AA
:101CB000481B8FE261E00E94341A8FE215C0813028
:101CC000B1F486ED95E00E949A27688179818A8136
:101CD0009B814C810E942E1D8C810E94481B84E0B8
:101CE00061E00E94341A84E061E00E94521A8C8103
:101CF000882351F48091FC079091FD07A091FE0785
:101D0000B091FF0784600BC0813089F48091FC079B
:101D10009091FD07A091FE07B091FF078860809326
:101D2000FC079093FD07A093FE07B093FF07CE0139
:101D300048EE53E060E070E00E94270D8E3109F418
:101D400081E0DF91CF910895AF92BF92CF92DF9261
:101D5000EF92FF920F931F93CF93DF937C015AE58D
:101D6000C52ED12CC80ED91EF601808191818F51CC
:101D7000974019F420E030E053C08701045A1F4F08
:101D8000E60142E6A42EB12CAE0CBF1C688179811D
:101D900086ED95E0F80141918F010E944E27688100
:101DA00079816F5F7F4F798368830A151B0571F70F
:101DB00086ED95E0F80140810E944E27F601808172
:101DC000918101969183808387010D591F4FE7010F
:101DD000C65ADF4F82E890E0E80EF91E68817981EB
:101DE00086ED95E0F80141918F010E944E276881B0
:101DF00079816F5F7F4F798368830E151F0571F7B7
:101E000086ED95E040EF0E944E27688179816F5FF3
:101E10007F4F86ED95E040EF0E944E2721E030E0B5
:101E2000C901DF91CF911F910F91FF90EF90DF904B
:101E3000CF90BF90AF900895DF92EF92FF920F93F3
:101E40001F93CF93DF93EC01C950DF4F8881C75FA9
:101E5000D040803839F0C750DF4F8881C95FD0400B
:101E6000863041F47CE5E72EF12CEC0EFD1ED70107
:101E700095E009C0C650DF4F8881CA5FD0408823F3
:101E800089F380E068C0FE01E90FF11DE350FF4FC8
:101E900080818D939150B8F7FE01EE59FF4FC550E8
:101EA000DF4F888180832A962881C550D140203217
:101EB00008F02FE1CE018E579F4FFC0181E2DF0138
:101EC0001D928A95E9F730E0422F50E00AC0FE01EA
:101ED000E80FF91FEB5FFE4F8081E358F0408083ED
:101EE0003F5F832F90E0481759078CF7613029F442
:101EF000CE010E94B80CD82E0BC09E012D593F4F29
:101F0000C90160E270E04FE150E00E949C30DD24A6
:101F10008E010A5B1F4FC701B80146E050E00E94E6
:101F20008F300097B9F0FE01EE54FF4F8081918110
:101F3000019691838083D801F70186E001900D928C
:101F40008150E1F7CE016D2D0E94A40E892B11F472
:101F500082E001C081E0DF91CF911F910F91FF904E
:101F6000EF90DF9008956F927F929F92AF92BF9211
:101F7000CF92DF92EF92FF920F931F93DF93CF9355
:101F8000CDB7DEB75C01F62EE42ED22EC02E912EF8
:101F90006DB67EB68CE3861718F421E030E052C0AF
:101FA000262F30E02B5F3F4FEDB7FEB7E21BF30B60
:101FB0000FB6F894FEBF0FBEEDBF0DB71EB70F5F93
:101FC0001F4FC80160E070E0A9010E949C30F4E05E
:101FD000FF0EF801F082FCEFFF0EF8011182F28291
:101FE000E382D482FF2021F4F5E0EF2EF12C15C01E
:101FF000D8018C2D992D9C01F901819115968C9316
:10200000159711968E2F8C198F15B8F3FA94EF2C23
:10201000FF2486E090E0E80EF91EF50184810E941D
:10202000481BDD2408C0E00FF11F8081F5016481A9
:102030000E94DE1BD394ED2DF0E0EE15FF0598F322
:1020400020E030E0C9010FB6F8947EBE0FBE6DBE31
:10205000CF91DF911F910F91FF90EF90DF90CF9084
:10206000BF90AF909F907F906F900895CF92DF9236
:10207000EF92FF920F931F93DF93CF93CDB7DEB70D
:102080007C01702FCDB6DEB6802F90E00496ADB700
:10209000BEB7A81BB90B0FB6F894BEBF0FBEADBF3D
:1020A0000DB71EB70F5F1F4F11966C93F801418358
:1020B00052837383D80140E050E009C0F901E40F76
:1020C000F51F808113968C9313974F5F5F4F119686
:1020D0004717A0F37C5FC701672F44E025E00E940B
:1020E000B30FC70167E041E00E94CE0D892B01F5D7
:1020F000C70148EE53E060E070E00E94270D813197
:1021000011F090E01AC0F701E055FF4F4DEF50E09D
:10211000E40EF51ED7019C9180E02E917D0144E0F4
:102120005FEFE40EF51E30E0822B932B91838083CA
:10213000F701E055FF4F808191810FB6F894DEBE24
:102140000FBECDBECF91DF911F910F91FF90EF9009
:10215000DF90CF9008959F92AF92BF92CF92DF927F
:10216000EF92FF920F931F93DF93CF9300D00F92C4
:10217000CDB7DEB77C01962E6A01A6EBAA2EB12C54
:10218000A80EB91E81E4D5011D928A95E9F76983ED
:102190004A83DB82C70163E044E024E08E010F5FE5
:1021A0001F4F0E94B30FC70167E041E00E94CE0DB0
:1021B000E0EBF0E0EE0EFF1ED7010D911C91E0E583
:1021C000FFEFEE0EFF1E0115110509F058C0C70103
:1021D00040ED57E060E070E00E94270D882319F47D
:1021E00001E010E04CC0853119F0082F10E047C025
:1021F0002DEF30E0E20EF31ED7014C91F701229152
:10220000DF018E917D01E5E0FFEFEE0EFF1E8915E7
:10221000B1F5942F80E030E0822B932B8C159D0537
:1022200071F52FEF30E0E20EF31ED7018C91E1E063
:10223000FFEFEE0EFF1E873110F086E102C088230B
:1022400021F020E0482F50E015C081E0D5018C93AB
:10225000E7EBF0E0EE0EFF1E80E3D7018C930FC09A
:10226000F701E80FF91FE150FF4F8081E954F0407A
:1022700080832F5F822F90E0481759078CF7C801A1
:102280000F900F900F90CF91DF911F910F91FF90C2
:10229000EF90DF90CF90BF90AF909F900895EF9216
:1022A000FF920F931F93DF93CF930F92CDB7DEB7BB
:1022B0007C01698361E043E021E08E010F5F1F4FE5
:1022C0000E94B30FC70166E040E00E94CE0DF70107
:1022D00091858981981789F420EB30E0E20EF31E96
:1022E000F7018081918120E53FEFE20EF31E8F5FC1
:1022F0009F4F19F0F701828501C080E00F90CF91C8
:10230000DF911F910F91FF90EF900895EF92FF9250
:102310000F931F93DF93CF930F92CDB7DEB77C015E
:10232000698361E043E020E08E010F5F1F4F0E9450
:10233000B30FC70167E041E00E94CE0D25EB30E00E
:10234000E20EF31EF70190812BE43FEFE20EF31E45
:10235000F7018185981719F021E030E02CC0F701D2
:10236000938580E0228530E0282B392B80EB90E0AC
:10237000E80EF91EF7013183208380E59FEFE80E18
:10238000F91E21153105B9F4C70140E157E260E0BB
:1023900070E00E94270D8F3061F4EDEFF0E0EE0E5B
:1023A000FF1EF701908180E0229130E0282B392B2D
:1023B00002C0282F30E0C9010F90CF91DF911F910B
:1023C0000F91FF90EF9008958F929F92AF92BF92DE
:1023D000CF92DF92EF92FF920F931F93DF93CF93F1
:1023E000CDB7DEB765970FB6F894DEBF0FBECDBF91
:1023F0005C014A01D22EC32E86ED95E0AE014F5FFF
:102400005F4F0E9457272D2D3C2DC901AC01881527
:10241000990508F4A4010A30110518F40AE010E047
:1024200006C02CE00138120710F000E81CE097010C
:1024300081E0253F380710F024EF31E08E818F8353
:102440008D8188878C8189878B818A878A818B8718
:1024500089818C871D868E869F86488B598B0A8B37
:102460001B8B2C8B3D8BC5016FE046E023E08E017A
:10247000095F1F4F0E94B30FC50167E040E00E9453
:10248000CE0DF501928580E0218530E0282B392B97
:1024900080EB90E0A80EB91EF5013183208380E522
:1024A0009FEFA80EB91E2115310549F5F501838569
:1024B00025EB30E0A20EB31EF50180832BE43FEF45
:1024C000A20EB31EC50148EE53E060E070E00E942A
:1024D000270D182F64E670E080E090E00E941A1942
:1024E0001B3059F48CEF90E0A80EB91EF5018081E5
:1024F000853019F421E030E002C0212F30E0C9011D
:1025000065960FB6F894DEBF0FBECDBFCF91DF91B9
:102510001F910F91FF90EF90DF90CF90BF90AF9001
:102520009F908F900895EF92FF920F931F934CE32B
:1025300050E02CE430E004E610E0EE24FF240E949A
:10254000E4111F910F91FF90EF900895BF92CF92E9
:10255000DF92EF92FF920F931F93DF93CF9300D000
:102560000F92CDB7DEB77C01D62EC42EB22E698372
:102570004A832B8363E046E026E08E010F5F1F4F06
:102580000E94B30FC70166E041E00E94CE0D20EB30
:1025900030E0E20EF31EF7018081918120E53FEFEC
:1025A000E20EF31E892B91F481E590E0E80EF91E0E
:1025B000F701D1927F01C08222E030E0E20EF31EEB
:1025C000F701B0822CEA3FEFE20EF31EF701E0556F
:1025D000FF4F808191810F900F900F90CF91DF91ED
:1025E0001F910F91FF90EF90DF90CF90BF900895D3
:1025F000FC01262FDC01AE5ABF4FEF5AFF4F60811E
:102600004C910E94A6120895EF92FF920F931F9390
:102610007C0160E046E024E000E010E00E94B30F9F
:10262000C70166E041E00E94CE0D1F910F91FF901F
:10263000EF900895FF920F931F93CF93DF93EC01D8
:102640000E940413CE0161E00E94F812892B19F058
:10265000E2E0FE2E07C0CC5ADF4F81E08883C455EC
:10266000D040FF248E01065A1F4FF801608171810E
:1026700086ED95E040EF0E944E27F8016081718160
:102680006F5F7F4F86ED95E040EF0E944E2780E020
:10269000FF2009F481E0DF91CF911F910F91FF900E
:1026A0000895EF92FF920F931F937C0161E049E040
:1026B00020E000E010E00E94B30F64EF71E080E0E2
:1026C00090E00E941A19C70148EE53E060E070E004
:1026D0000E94270D90E0813009F491E0892F1F912D
:1026E0000F91FF90EF900895CF93DF93EC0162304C
:1026F00018F081E08C8301C06C838C81882331F4D5
:1027000086E161E00E94341A86E107C0813041F41D
:1027100086E061E00E94341A86E061E00E94521A6D
:1027200064E670E080E090E00E941A19CE010E94F9
:10273000450E8130A1F1C850DF4F8881C85FD0407D
:102740008C3071F4C750DF4F8881C95FD040882337
:1027500039F4C650DF4F8881CA5FD0408823F9F032
:10276000CE010E9451138823D1F481ED95E06EE0F3
:1027700072E00E943B2686ED95E06CE041E00E940D
:10278000B32760E375E780E090E00E941A1986EDB8
:1027900095E06CE040E00E94B32780E003C0CE01EA
:1027A0000E941A13DF91CF910895AF92BF92DF92EA
:1027B000EF92FF920F931F93DF93CF93CDB7DEB7C6
:1027C00065970FB6F894DEBF0FBECDBF5C016D8B71
:1027D000603110F08FE08D8B19821A821B821C826F
:1027E00046E0D42EFE013596DF018D2D1D928A958F
:1027F000E9F7C50161E047E02CE08E010B5E1F4F59
:102800000E94B30FC50164E040E00E94CE0DB50107
:102810006B5F7F4F86ED95E07E010894E11CF11C13
:10282000A70124E00E94D5261B861C861D861E86D5
:10283000FE013F96DF011D92DA94E9F7EEEEF1E03A
:10284000659174918E01055F1F4FC8010E94883009
:10285000C701B8010E94AE30009719F021E030E0C6
:1028600009C0E5E5F0E0AE0EBF1E8D89D5018C9361
:1028700020E030E0C90165960FB6F894DEBF0FBEC8
:10288000CDBFCF91DF911F910F91FF90EF90DF901F
:10289000BF90AF9008954F925F926F927F929F92F8
:1028A000AF92BF92CF92DF92EF92FF920F931F935E
:1028B000CF93DF93EC012B01D42E72EBE72EF12C9A
:1028C000E80EF91EF7011182108266E4662E712C63
:1028D000680E791E86E0F30111928A95E9F7CE0120
:1028E000622F0E94D5138E010C5A1F4FF801808170
:1028F000813081F0CE0161E00E94F812892B21F431
:1029000081E0F801808306C08FEF9FEFF70191838C
:10291000808369C08E01045B1F4FCE0161E046E0F9
:1029200022E00E94B30FCE0166E041E00E94CE0D8E
:10293000892B09F058C08D2D90E028EE33E0AC01D2
:10294000429FC001439F900D529F900D11245C0146
:10295000CC24B7FCC094DC2C51EEA51653E9B50687
:1029600054E0C50650E0D50638F050EEA52E53E9E8
:10297000B52E54E0C52ED12C0E9484187B018C0109
:102980001DC0CE0160E00E941C0FC301B20146E0F1
:1029900050E00E948F30009719F49924939401C05D
:1029A00099240E9484186E157F058007910720F4F2
:1029B0000E9484187B018C01992071F50E94841873
:1029C0006E197F09800B910B6A157B058C059D059F
:1029D00010F5CE0148EE53E060E070E00E94270D54
:1029E0008C31F1F6CECFFE01E055FF4F8081918111
:1029F00002C0892D90E0DF91CF911F910F91FF9040
:102A0000EF90DF90CF90BF90AF909F907F906F90AE
:102A10005F904F9008959924CE010E940413892B52
:102A200041F3E1CFEF92FF920F931F93DF93CF9388
:102A300000D000D000D0CDB7DEB77C018B01FB0108
:102A400001900020E9F73197E61BF70B3E9710F055
:102A5000FB011486C8010E94B73086ED95E0B801ED
:102A60008E010F5F1F4FA8010E945727C701B801B1
:102A70004EE12FE00E944B1426960FB6F894DEBF6D
:102A80000FBECDBFCF91DF911F910F91FF90EF90BF
:102A90000895482F613210F081E008958091BB04C1
:102AA000843011F082E0089560930405A3EEB4E051
:102AB000842F9C01F90102C081918D938E2F841B7C
:102AC0008617D0F380E00895589859988091B900FE
:102AD00081608093B9008091B90082608093B900D1
:102AE0008091BC0080688093BC008091BC008061B4
:102AF0008093BC008091BC008F7B8093BC00809150
:102B0000BC008F7D8093BC008091BC00877F809348
:102B1000BC008091FC079091FD07A091FE07B09149
:102B2000FF0786FD14C08091FC079091FD07A091DE
:102B3000FE07B091FF0790FD0AC08091FC079091BD
:102B4000FD07A091FE07B091FF0793FF04C080919D
:102B5000BC008B7F03C08091BC0084608093BC006C
:102B60008091BC008E7F8093BC008091640080685F
:102B70008093640008951092BB04E4E6F0E0808145
:102B80008F778083589A599AE9EBF0E080818E7FA5
:102B9000808380818D7F808381E48093B80085E489
:102BA0008093BC0080E2E1ECF4E0DF01982F1D92FD
:102BB0009A95E9F7E3EEF4E0DF01982F1D929A95DC
:102BC000E9F7E5E0F5E0DF011D928A95E9F7089560
:102BD000882349F0109227051092280510922905A4
:102BE00010922A0513C08091270590912805A09185
:102BF0002905B0912A050196A11DB11D80932705D5
:102C000090932805A0932905B0932A058091270564
:102C100090912805A0912905B0912A05805A9648DF
:102C2000A140B04010F480E0089510922705109262
:102C300028051092290510922A050E94BB1581E0F3
:102C4000089585ED8093BC0081E00E94E81505C0E1
:102C500080E00E94E815882321F48091BC0084FD67
:102C6000F7CF1092BB0408951F920F920FB60F92E8
:102C70000BB60F9211242F933F934F935F936F9353
:102C80007F938F939F93AF93BF93EF93FF93809125
:102C9000B90090E0887F90708036910509F4C3C038
:102CA00081369105CCF58832910509F47BC08932D3
:102CB0009105B4F48031910509F46FC0813191051B
:102CC0003CF4009709F40EC1089709F00FC165C0E4
:102CD0008831910509F466C0809709F007C177C073
:102CE0008034910509F48DC08134910544F480331A
:102CF000910509F472C0C89709F0F8C072C0803518
:102D0000910509F472C08835910509F47FC08834B3
:102D1000910509F0EBC0E8C08839910509F4D8C0E5
:102D200089399105ECF48837910509F47CC089371D
:102D300091054CF48836910509F475C080379105EA
:102D400009F0D4C070C08838910509F4C1C0803939
:102D5000910509F46EC08038910509F0C7C069C0BB
:102D6000803B910509F48CC0813B91054CF4803A7D
:102D7000910509F470C0883A910509F0B7C080C088
:102D8000803C910509F4A8C0883C910509F4A4C0D1
:102D9000883B910509F0AAC088C08091BC0480934B
:102DA000BB0013C09091E1048091E204981708F0F1
:102DB0009BC09091E104E92FF0E0EF53FB4F80813D
:102DC0008093BB009F5F9093E10485EC82C00E94DA
:102DD000211680E28093260589C080E38093260532
:102DE00083C088E38093260577C08091E1049091A9
:102DF000BB00E82FF0E0EF53FB4F90838F5F809391
:102E0000E1049091E1048091E2045FC08091E104CB
:102E10009091BB00E82FF0E0EF53FB4F90838F5F62
:102E20008093E10461C083E08093BB041092250588
:102E3000CCCF80912505803208F04AC080912505CD
:102E40009091BB00E82FF0E0EB5FFA4F90838F5F2B
:102E500080932505BACF80912505803230F4E0912A
:102E60002505F0E0EB5FFA4F108260912505E091B7
:102E7000BF04F091C00485E095E070E009952CC096
:102E800084E08093BB041092030510920405E09146
:102E9000BD04F091BE04099580910405882329F4AE
:102EA00081E0809304051092E30490910305E92FDB
:102EB000F0E0ED51FB4F80818093BB009F5F9093CA
:102EC00003059091030580910405981708F47DCFC0
:102ED00085E88093BC000AC085EC8093BC0010920A
:102EE000BB0404C0109226050E942116FF91EF91A9
:102EF000BF91AF919F918F917F916F915F914F9112
:102F00003F912F910F900BBE0F900FBE0F901F900F
:102F10001895DF92EF92FF920F931F93E82E062FE2
:102F2000F72E142FD22E413210F081E051C081E0F3
:102F30000E94E81505C080E00E94E815882321F46E
:102F40008091BB048823B9F782E08093BB048FEFA4
:102F5000809326051092E1041093E204A1ECB4E002
:102F6000202F3F2DC901FC0102C081918D938E2F2E
:102F7000801B8117D0F38E2D90E0880F991F8093CE
:102F8000BC0485EE8093BC0081E00E94E815DD2042
:102F900041F40BC080E00E94E815882311F085E021
:102FA00017C08091BB048230A9F3809126058F3F22
:102FB00011F480E00DC080912605803211F482E08A
:102FC00007C080912605803311F084E001C083E0C2
:102FD0001F910F91FF90EF90DF9008950F931F9333
:102FE000CF93DF93182FEB01042F413210F081E0D3
:102FF0003CC081E00E94E81505C080E00E94E81511
:10300000882321F48091BB048823B9F781E0809361
:10301000BB048FEF809326051092E1040093E20435
:10302000110F11601093BC0485EE8093BC0081E009
:103030000E94E81508C080E00E94E815882319F076
:1030400020E030E00FC08091BB048130A1F3F8CFC5
:10305000FE01E20FF31FD901AF53BB4F8C91808368
:103060002F5F3F4F2017A0F380E0DF91CF911F919A
:103070000F9108951F920F920FB60F9211248F9304
:103080009F93AF93BF9380910E0890910F08A091EA
:103090001008B09111080196A11DB11D80930E0872
:1030A00090930F08A0931008B0931108BF91AF91AF
:1030B0009F918F910F900FBE0F901F9018951F92A8
:1030C0000F920FB60F9211248F939F93AF93BF93DC
:1030D0008091120890911308A0911408B0911508DE
:1030E0000196A11DB11D8093120890931308A0931F
:1030F0001408B0931508BF91AF919F918F910F90D5
:103100000FBE0F901F9018958F929F92AF92BF9213
:10311000CF92DF92EF92FF920F931F938FB7F894A5
:10312000A0900E08B0900F08C0901008D090110821
:103130008FBF9501A60160E070E080E090E001E0C3
:103140000E948D03122FF32EE42ED52EC62EB72EFD
:10315000A82E892E02E00E948D03B92F210FE1E0F5
:10316000211708F0E0E03F0DF1E03F1508F0F0E036
:103170009E2E930EE1E0931608F0E0E0FE2B4E0D3C
:10318000A1E04E1508F0A0E0FF2EF40EE1E0F416E9
:1031900008F0E0E0AE2B5D0DF1E05D1508F0F0E029
:1031A0000A2F050FE1E0051708F0E0E0FE2B6C0D9B
:1031B000A1E06C1508F0A0E01F2F160FE1E0161734
:1031C00008F0E0E0AE2B7B0DF1E07B1508F0F0E0BD
:1031D000A70FE1E0A71708F0E0E0FE2B8A0D91E0D1
:1031E0008A1508F090E0F80FE1E0F81708F0E0E049
:1031F0009E2BB80D392D4F2D502F612F7A2F8F2FE9
:103200009B0FE9E0AE2EBB24CC24DD24EE24FF246A
:1032100000E010E00E940C04952FB901842F1F914B
:103220000F91FF90EF90DF90CF90BF90AF909F9065
:103230008F900895AF92BF92CF92DF92EF92FF925C
:103240000F931F935B016C0107C00E9484186E15D9
:103250007F058007910720F40E9484187B018C0170
:103260000E9484186E197F09800B910B6A157B05EB
:103270008C059D0550F31F910F91FF90EF90DF900B
:10328000CF90BF90AF9008958430910570F0BC014D
:1032900080E090E00E94792E26E636E646EE5FE377
:1032A0000E94072F0E944D2E03C0BC01660F771F9E
:1032B0006150704061F06150704049F0FB01EE0FC9
:1032C000FF1F31978FB7F8943197F1F78FBF0895AB
:1032D000789484B7877F84BF10920E0810920F08ED
:1032E000109210081092110884B5826084BD84B5D4
:1032F000816084BD85B5826085BD85B5816085BDF1
:10330000EEE6F0E0808181608083E1E8F0E080819A
:1033100082608083808181608083E0E8F0E080814A
:1033200081608083E1EBF0E0808184608083E1E96B
:10333000F0E0808184608083E0EBF0E08081816058
:103340008083E0E9F0E0808181608083E4E6F0E062
:1033500080818E7F8083ECE7F0E080818F778083AF
:10336000808180648083EAE7F0E0808184608083EC
:103370008081826080838081806880831092C10018
:103380001092C900089590912B05982B90932B05CE
:1033900080FF32C0809164008E7F809364008091B2
:1033A0007C008F7780937C0080917C008064809388
:1033B0007C0080917A00846080937A0080917A000A
:1033C000826080937A0080917A00806880937A008E
:1033D000809164008F7780936400809164008B7F7C
:1033E00080936400809164008D7F8093640080915D
:1033F00065008E7F8093650008951F920F920FB62F
:103400000F920BB60F9211242F933F934F935F931C
:103410006F937F938F939F93AF93BF93EF93FF939C
:10342000F89481E080937F03E0E6F0E0808180689B
:10343000808380818F7B808383E060E00E94521ACA
:103440007894FF91EF91BF91AF919F918F917F9170
:103450006F915F914F913F912F910F900BBE0F9005
:103460000FBE0F901F901895282F30E0C901825B86
:10347000994FFC019491255E394FF901849188237D
:1034800081F0E82FF0E0ED5FF94FE491F0E0662382
:1034900029F4808190958923808308958081892BE8
:1034A00080830895482F50E0CA018F57994FFC013F
:1034B0002491CA01825B994FFC019491455E594F5A
:1034C000FA0134913323C1F1222331F1233021F465
:1034D000809180008F7705C0243031F48091800086
:1034E0008F7D8093800018C0213019F484B58F77C8
:1034F00004C0223021F484B58F7D84BD0DC02630F8
:1035000021F48091B0008F7705C0273029F4809195
:10351000B0008F7D8093B000E32FF0E0E55FF94FBE
:10352000E491F0E0662329F48081909589238083DB
:1035300008958081892B80830895482F50E0CA0127
:103540008F57994FFC012491CA01825B994FFC016E
:103550009491455E594FFA013491332319F420E0D8
:1035600030E035C0222331F1233021F480918000F6
:103570008F7705C0243031F4809180008F7D809357
:10358000800018C0213019F484B58F7704C0223030
:1035900021F484B58F7D84BD0DC0263021F4809147
:1035A000B0008F7705C0273029F48091B0008F7D5F
:1035B0008093B000E32FF0E0ED5EF94FE491F0E08E
:1035C000808120E030E0892311F021E030E0C90162
:1035D0000895882389F480912C0590912D058050C1
:1035E0009E4F20912E0530912F05821B930B60E09A
:1035F00072E00E949D2F08958091300590913105D1
:1036000080509E4F2091320530913305821B930BE1
:1036100060E072E00E949D2F08958823D1F44091CC
:103620002E0550912F0580912C0590912D05841722
:10363000950751F1FA01EA5EF54F2081CA01019622
:1036400060E072E00E949D2F90932F0580932E05DD
:1036500019C0409132055091330580913005909109
:1036600031058417950781F0FA01EA5EF74F208152
:10367000CA01019660E072E00E949D2F909333058D
:103680008093320530E002C02FEF3FEFC90108956B
:10369000882349F410922F0510922E0510922D05C3
:1036A00010922C0508951092330510923205109255
:1036B00031051092300508951F920F920FB60F92A8
:1036C0000BB60F9211242F933F934F935F936F93F9
:1036D0007F938F939F93AF93BF93EF93FF9340910B
:1036E000C600E0912C05F0912D05CF01019660E018
:1036F00072E00E949D2F9C0180912E0590912F05D4
:103700002817390739F0EA5EF54F408330932D05CD
:1037100020932C05FF91EF91BF91AF919F918F91D5
:103720007F916F915F914F913F912F910F900BBEC1
:103730000F900FBE0F901F9018951F920F920FB60B
:103740000F920BB60F9211242F933F934F935F93D9
:103750006F937F938F939F93AF93BF93EF93FF9359
:103760004091CE00E0913005F0913105CF010196F6
:1037700060E072E00E949D2F9C0180913205909143
:1037800033052817390739F0EA5EF74F4083309345
:10379000310520933005FF91EF91BF91AF919F913B
:1037A0008F917F916F915F914F913F912F910F90EA
:1037B0000BBE0F900FBE0F901F901895982F662389
:1037C00039F48091C00085FFFCCF9093C600089526
:1037D0008091C80085FFFCCF9093CE000895882388
:1037E00041F48091C00085FFFCCF8DE08093C6003E
:1037F00008C08091C80085FFFCCF8DE08093CE008B
:1038000008C08091C00085FFFCCF8AE08093C6008D
:1038100008958091C80085FFFCCF8AE08093CE0098
:103820000895FC0110C03196662339F48091C000E0
:1038300085FFFCCF9093C60006C08091C80085FF2D
:10384000FCCF9093CE009081992369F708952F9231
:103850003F924F925F926F927F928F929F92AF9220
:10386000BF92CF92DF92EF92FF920F931F93DF935D
:10387000CF93CDB7DEB7A1970FB6F894DEBF0FBEDA
:10388000CDBF6B017C0129013A0109A361157105C6
:103890008105910591F4002341F48091C00085FFDA
:1038A000FCCF80E38093C6005BC08091C80085FF99
:1038B000FCCF80E38093CE0053C088249924540128
:1038C0001E010894211C311C8101080D191DC7011E
:1038D000B601A30192010E94B02FF8016083089401
:1038E000811C911CA11CB11CC701B601A30192014E
:1038F0000E94B02FC901DA016C017D01C114D1040D
:10390000E104F10409F79101280D391DBE016F5F33
:103910007F4FD501C4010197A109B109AC01481934
:1039200059091BC0FA01E20FF31FE081EA3010F4DD
:10393000E05D01C0E95CF9A1FF2339F48091C0008A
:1039400085FFFCCFE093C60006C08091C80085FFCC
:10395000FCCFE093CE00215030406217730711F77F
:10396000A1960FB6F894DEBF0FBECDBFCF91DF9109
:103970001F910F91FF90EF90DF90CF90BF90AF908D
:103980009F908F907F906F905F904F903F902F907F
:103990000895282F992787FD9095807F907034E0B7
:1039A000959587953A95E1F78A301CF0982F995CA8
:1039B00002C0982F905D822F8F708A301CF0282FC4
:1039C000295C02C0282F205D662339F48091C00055
:1039D00085FFFCCF9093C60006C08091C80085FF8C
:1039E000FCCF9093CE00662339F48091C00085FF10
:1039F000FCCF2093C60008958091C80085FFFCCFBE
:103A00002093CE0008950F931F938B019C01E42F08
:103A100097FF18C0442341F48091C00085FFFCCF7C
:103A20008DE28093C60007C08091C80085FFFCCF5F
:103A30008DE28093CE0030952095109501951F4F13
:103A40002F4F3F4FC901B8012AE030E040E050E07D
:103A50000E2F0E94271C1F910F910895EF92FF9245
:103A60000F931F937B018C014423C1F588E00E94D2
:103A7000C319C801B70122E030E040E050E00E94E5
:103A8000D22F2050304F414F5F4FCA01B901A801DA
:103A900097010E94D22FC901DA010197A109B1094A
:103AA000292F3A2F4B2F552747FD5A950196A11DD7
:103AB000B11D2093C50081508093C4008091C10046
:103AC00080618093C1008091C10088608093C100B3
:103AD0008091C10080688093C10037C080E10E945E
:103AE000C319C801B70122E030E040E050E00E9475
:103AF000D22F2050304F414F5F4FCA01B901A8016A
:103B000097010E94D22FC901DA010197A109B109D9
:103B1000292F3A2F4B2F552747FD5A950196A11D66
:103B2000B11D2093CD0081508093CC008091C900BD
:103B300080618093C9008091C90088608093C9002A
:103B40008091C90080688093C9001F910F91FF90F8
:103B5000EF9008950E94681986ED95E00E94422733
:103B6000853440F081E361E00E94341A81E361E032
:103B70000E94521A86ED95E061E070E00E944A27AB
:103B80008130B1F48091FC079091FD07A091FE0770
:103B9000B091FF0790688093FC079093FD07A09376
:103BA000FE07B093FF0781E090E060E00E941D33C4
:103BB00087E20E949D1A892B09F44FC086ED95E09B
:103BC00060E070E00E944A278A3009F046C088E32E
:103BD00095E00E943E2488E395E00E94552288E308
:103BE00095E00E94052480915105482F50E0809176
:103BF0005305481B510980915005282F30E08091D2
:103C00005405281B3109121613065CF48CE390E06E
:103C1000BC01269FC001279F900D369F900D112457
:103C20000EC037FF0EC08CE390E0BC01269FC001A0
:103C3000279F900D369F900D1124805F914F480F64
:103C4000591F4330510548F480910B0890910C089E
:103C5000806290930C0880930B0888E395E00E94A3
:103C60003E2488E395E00E94F12088E395E00E94DD
:103C7000E02088E395E00E94672463E070E080E044
:103C800090E00E941A198091FC079091FD07A09185
:103C9000FE07B091FF07A1FF5EC063E070E080E027
:103CA00090E00E941A1986E161E00E94341A63E0F4
:103CB00070E080E090E00E941A1986E161E00E94C5
:103CC000521A63E070E080E090E00E941A190E94AE
:103CD0009F2463E070E080E090E00E941A1981E088
:103CE0000E94782463E070E080E090E00E941A195E
:103CF00084E00E94862463E070E080E090E00E940F
:103D00001A1980E00E94812463E070E080E090E076
:103D10000E941A190E94742463E070E080E090E031
:103D20000E941A198BEC95E066E00E94BE2463E0C5
:103D300070E080E090E00E941A1986E161E00E9444
:103D4000341A86E160E00E94521A63E070E080E07D
:103D500090E00E941A1963E070E080E090E00E9419
:103D60001A1986ED95E00E9402296093340570933C
:103D700035058093360590933705809134059091F1
:103D80003505A0913605B09137050E947D300E941F
:103D9000A70B0E94810AFDCFFC01148A158A168A9E
:103DA000178A108E118E128E138E148E158E168E0B
:103DB000178E10A211A212A213A280E090E0A0E040
:103DC000B0E084A395A3A6A3B7A308951092C90554
:103DD00010924B050895EF92FF920F931F93DF937C
:103DE000CF93CDB7DEB7EC970FB6F894DEBF0FBE1A
:103DF000CDBF8C01E7EEF3E065917491B5E1EB2E58
:103E0000F12CEC0EFD1EC7010E948830E9EEF3E0B4
:103E100065917491CE0101960E948830D801569622
:103E20008C91843009F46DC0853048F4823069F19A
:103E3000833008F048C0813009F000C10AC08630E4
:103E400009F49BC0863008F47AC0873009F0F6C0C8
:103E5000B2C0EDB7FEB774970FB6F894FEBF0FBEB1
:103E6000EDBF3196075D1F4FADB7BEB712961C93DD
:103E70000E9311970952104084E690E09383828359
:103E8000F582E48289E492E0B3C08DB79EB744978F
:103E90000FB6F8949EBF0FBE8DBFEDB7FEB731963B
:103EA000075D1F4FADB7BEB712961C930E931197C7
:103EB0000952104084E690E093838283F582E48285
:103EC0008DE492E095C08DB79EB744970FB6F894F5
:103ED0009EBF0FBE8DBFEDB7FEB73196075D1F4F7A
:103EE000ADB7BEB712961C930E93119709521040AE
:103EF00084E690E093838283F582E48281E592E018
:103F000077C08DB79EB744970FB6F8949EBF0FBE8B
:103F10008DBFEDB7FEB73196075D1F4FADB7BEB78A
:103F200012961C930E9311970952104084E690E06C
:103F300093838283F582E48285E592E059C08DB750
:103F40009EB744970FB6F8949EBF0FBE8DBFEDB7D6
:103F5000FEB73196075D1F4FADB7BEB712961C93E3
:103F60000E9311970952104084E690E09383828368
:103F7000F582E48289E592E03BC08DB79EB7449715
:103F80000FB6F8949EBF0FBE8DBFEDB7FEB731964A
:103F9000075D1F4FADB7BEB712961C930E931197D6
:103FA0000952104084E690E093838283F582E48294
:103FB0008DE592E01DC08DB79EB744970FB6F8947B
:103FC0009EBF0FBE8DBFEDB7FEB73196075D1F4F89
:103FD000ADB7BEB712961C930E93119709521040BD
:103FE00084E690E093838283F582E48281E692E026
:103FF00097838683D80154968C9154978087118635
:1040000055968C915597828713865A968C915A971C
:104010008487158657968C9157978687178658966A
:104020008C915897808B118A59968C91828B138A28
:104030000E94C130EDB7FEB774961DC000D000D00D
:1040400000D0EDB7FEB73196075D1F4FADB7BEB7D5
:1040500012961C930E9311970952104084E690E03B
:1040600093838283CE010196958384830E94C1301D
:10407000EDB7FEB736960FB6F894FEBF0FBEEDBF94
:104080009801275D3F4FC901EC960FB6F894DEBF4B
:104090000FBECDBFCF91DF911F910F91FF90EF9099
:1040A00008951F93CF93DF93EC01162F8091230681
:1040B000882321F48DE196E00E94B92A8DE196E0F3
:1040C00068E670E00E942C298DE196E0612F0E9445
:1040D000462AC10FD11D8DE196E068810E94462AD3
:1040E0008DE196E00E94752ADF91CF911F9108958E
:1040F000FF920F931F93CF93DF938C01F62E809145
:104100002306882321F48DE196E00E94B92A8DE1EF
:1041100096E068E670E00E942C298DE196E06F2D14
:104120000E94462A8DE196E00E94752A8DE196E074
:1041300068E670E041E050E00E94B62AC0E0D0E0BE
:104140008DE196E00E943629882329F4CA30D105F2
:1041500011F02196F5CF8DE196E00E943C290F0DDC
:10416000111DF80180838DE196E00E94752ADF9190
:10417000CF911F910F91FF9008950F931F938C0182
:104180006FE00E947820F801878583701F910F915E
:104190000895CF93DF93EC010E94BD20882319F08E
:1041A000CE56DF4F8883809147058C7F80934705EB
:1041B00088E395E06FE00E945120DF91CF91089550
:1041C0000F931F938C016EE00E947820F801868582
:1041D0008D7F8687C8016EE00E9451201F910F914C
:1041E00008950F931F938C016EE00E947820F801D0
:1041F00086858E7F8687C8016EE00E9451201F91C0
:104200000F910895AF92BF92CF92DF92FF920F93DA
:104210001F93CF93DF938C01F62E80912306882382
:1042200021F48DE196E00E94B92A8DE196E068E6DE
:1042300070E00E942C298DE196E060E070E00E9421
:10424000722A8DE196E00E94752A8DE196E068E67B
:1042500070E043E150E00E94B62AC0E0D0E0CC24F8
:10426000DD24AF2CBB245AE0F52E0DC18DE196E084
:104270000E943629882309F403C18DE196E00E944B
:104280003C29282FF801EC0FFD1F8083C630D10593
:1042900009F482C0C730D105B8F4C230D10509F4A1
:1042A0004EC0C330D10538F4209769F1C130D10533
:1042B00009F0E4C036C0C430D10509F451C0C5309E
:1042C000D10508F05BC049C0CA30D10509F49BC0D4
:1042D000CB30D10558F4C830D10509F478C090E04E
:1042E0002F70C930D10508F081C064C0CC30D10531
:1042F00009F4A7C0CC30D10508F494C0CD30D10565
:1043000009F0BCC0ADC090E044E0959587954A9512
:10431000E1F78F9DC00111242F70280FF801218F24
:10432000ADC090E034E0959587953A95E1F78F9D83
:10433000C00111242F70280FF801208F9FC090E03A
:10434000B4E095958795BA95E1F78F9DC00111244A
:104350002F70280FF801278B91C0F801868B8EC033
:1043600090E0A4E095958795AA95E1F78F9DC0010F
:1043700011242F70280FF801228F80C090E0F4E004
:1043800095958795FA95E1F78F9DC00111242F70BF
:10439000280FF801258B72C090E0E4E09595879591
:1043A000EA95E1F78F9DC00111242F70280FF801C5
:1043B000248B64C074E0959587957A95E1F78770B2
:1043C0008F9DC0011124280FF801238F57C090E062
:1043D00064E0959587956A95E1F787708F9DC00198
:1043E00011242F70280FF801248F48C054E09595B0
:1043F00087955A95E1F783708F9DC0011124280F8E
:10440000F801258F3BC090E044E0959587954A954B
:10441000E1F783708F9DC00111242F70280FF801E0
:10442000268F2CC090E034E0959587953A95E1F77A
:1044300087708F9DC00111242F70280FF801278FDE
:104440001DC090E0B4E095958795BA95E1F783702B
:104450008F9DC00111242F70280FF80120A30EC0DA
:1044600090E0A4E095958795AA95E1F783708F9DDC
:10447000C00111242F70280FF80121A3219603C039
:104480000894C11CD11CAC16BD0628F0FAE0CF166A
:10449000D10408F4EBCEDF91CF911F910F91FF90E3
:1044A000DF90CF90BF90AF900895AF92BF92CF9220
:1044B000DF92EF92FF920F931F93DF93CF93CDB7CD
:1044C000DEB7C857D0400FB6F894DEBF0FBECDBFE1
:1044D0006C016AE00E94022149E2A42EB12CAC0CCE
:1044E000BD1C84E6D5011D928A95E9F7E5ECF3E061
:1044F000659174918E010F5F1F4FC8010E94883033
:10450000C501B8010E94A330F60182A1823009F4EE
:1045100076C0833030F4882371F0813009F03CC1DB
:104520001AC0843009F4F2C0843008F4AEC085307B
:1045300009F032C127C1E7ECF3E065917491C8013D
:104540000E948830C501B8010E94A330E5EDF3E078
:10455000659174910FC0E9ECF3E065917491C80125
:104560000E948830C501B8010E94A330E5EDF3E058
:10457000659174918E01075D1F4FC8010E948830BC
:104580008DB79EB70E970FB6F8949EBF0FBE8DBF26
:10459000EDB7FEB7319631E5E32EF12CEC0EFD1EA2
:1045A000ADB7BEB71296FC92EE92119788E290E0FA
:1045B0009383828315830483D6015E968C915E97E4
:1045C000868317825D968C915D97808711865C96B5
:1045D0008C915C97828713865B968C918487158675
:1045E0000E94C130EDB7FEB73E960FB6F894FEBFFD
:1045F0000FBEEDBFC501B7010E94A330F3C0EBECC5
:10460000F3E065917491C8010E948830C501B8013A
:104610000E94A330E7EDF3E0659174918E01075D90
:104620001F4FC8010E9488308DB79EB70C970FB6F8
:10463000F8949EBF0FBE8DBFEDB7FEB7319621E552
:10464000E22EF12CEC0EFD1EADB7BEB71296FC9219
:10465000EE92119788E290E093838283158304831E
:10466000D6015D968C915D97868317825C968C91BE
:104670005C97808711865B968C91828713860E9457
:10468000C130EDB7FEB73C96B0CFEDECF3E06591ED
:104690007491C8010E948830C501B8010E94A330FE
:1046A000E9EDF3E0659174918E01075D1F4FC8013C
:1046B0000E9488308DB79EB70A970FB6F8949EBFB8
:1046C0000FBE8DBFEDB7FEB7319691E5E92EF12C07
:1046D000EC0EFD1EADB7BEB71296FC92EE9211978E
:1046E00088E290E09383828315830483D6015C96ED
:1046F0008C915C97868317825B968C91808711865C
:104700000E94C130EDB7FEB73A966FCFEFECF3E001
:1047100065917491C8010E948830C501B8010E945A
:10472000A330EBEDF3E0659174918E01075D1F4FAF
:10473000C8010E9488308DB79EB708970FB6F894CD
:104740009EBF0FBE8DBFEDB7FEB7319681E5E82E57
:10475000F12CEC0EFD1EADB7BEB71296FC92EE9298
:10476000119788E290E09383828315830483D601B6
:104770005B968C91868317820E94C130EDB7FEB79D
:10478000389633CFE1EDF3E065917491C8010E9452
:104790008830C501B80130CFE3EDF3E06591749145
:1047A0008E010F5F1F4FC8010E94883000D000D0DB
:1047B00000D0EDB7FEB73196ADB7BEB71296BC923A
:1047C000AE92119784E690E09383828315830483ED
:1047D0000E94C130EDB7FEB736960FB6F894FEBF13
:1047E0000FBEEDBFC501C858DF4F0FB6F894DEBF4E
:1047F0000FBECDBFCF91DF911F910F91FF90EF9032
:10480000DF90CF90BF90AF9008950F931F938C01CE
:1048100066E00E940221C8010E94EB1E1F910F91C9
:1048200008950F931F93CF93DF93EC01042F68A794
:1048300080E361E00E94341A18A5112379F0113049
:1048400091F480E361E00E94521A013019F482E091
:104850008B8B09C0002339F41B8B05C080E360E01B
:104860000E94521A1B8A6AE070E080E090E00E9489
:104870001A19DF91CF911F910F9108950F931F93F4
:104880008C0161E040E00E941124C8010E94C9200F
:10489000C8010E94CC1EC8016DE00E9402218BE27B
:1048A00061E00E94341A8BE260E00E94521A1F916C
:1048B0000F91089580912306882341F08091390655
:1048C000882321F48EE396E00E942C2E08950F9306
:1048D0001F938C010E945A24C80160E040E00E94AE
:1048E00011241F910F9108958CB58F7B8CBD089575
:1048F000882319F48CB5806202C08CB58F7D8CBD85
:1049000008959CB5937F982B9CBD08959CB5282F46
:1049100023709C7F292B2CBD9DB581709E7F982B89
:104920009DBD08951092CC051092CB051092CD0537
:104930001092CE051092CF051092D00508958EE109
:1049400061E00E94341A8FE161E00E94341A8DE127
:1049500061E00E94341A8EE160E00E94521A8FE1F9
:1049600060E00E94521A8DE161E00E94521A8CB5FB
:1049700080618CBD8CB580648CBD08951F93162F0B
:104980008DE161E00E94341A82E261E00E94341AF3
:104990008DE161E00E94521A82E261E00E94521AA7
:1049A0008091FC079091FD07A091FE07B091FF0751
:1049B000A2FF08C088E061E00E94341A88E061E04C
:1049C0000E94521A8091FC079091FD07A091FE076A
:1049D000B091FF0796FF08C089E061E00E94341A99
:1049E00089E061E00E94521A8091FC079091FD07D6
:1049F000A091FE07B091FF07A3FF08C082E061E02D
:104A00000E94341A82E061E00E94521A8091FC07F1
:104A10009091FD07A091FE07B091FF07A4FF08C089
:104A200082E261E00E94341A82E261E00E94521A3E
:104A30001330C9F0143028F4113069F0123068F4E2
:104A400008C0153041F11530D0F0163009F062C0C1
:104A50002FC08DE12BC082E229C086ED95E00E9437
:104A60009A278CE223C08091FC079091FD07A091CA
:104A7000FE07B091FF07A2FF4DC088E017C08091EC
:104A8000FC079091FD07A091FE07B091FF0796FFEC
:104A900041C089E00BC08091FC079091FD07A09177
:104AA000FE07B091FF07A3FF35C082E060E030C091
:104AB0008DE161E00E94521A82E261E00E94521A86
:104AC0008091FC079091FD07A091FE07B091FF0730
:104AD000A2FF04C088E061E00E94521A8091FC07A6
:104AE0009091FD07A091FE07B091FF0796FF04C0CB
:104AF00089E061E00E94521A8091FC079091FD07C5
:104B0000A091FE07B091FF07A3FF04C082E061E01F
:104B10000E94521A1F9108951092D1050895CF93C3
:104B2000DF93EC018091FC079091FD07A091FE07B7
:104B3000B091FF0782FF0BC063E070E080E090E07F
:104B40000E941A198BE061E00E94521A06C063E0CD
:104B500070E080E090E00E941A1989818093C5007E
:104B60008A818093C4008B818093C2008C81809362
:104B7000CA00DF91CF910895DC018091C5001196A4
:104B80008C9311978091C40012968C931297E2EC4B
:104B9000F0E0808113968C9313978091CA0014964D
:104BA0008C93149780818F7D808380818F7E80831A
:104BB0008081877F808360E072EC81E090E04C919F
:104BC0000E942E1D87E161E00E94521A8BE060E096
:104BD0000E94521A0895FF920F931F938C01F62E94
:104BE0000E94BC258F2D60E00E94C91CC8010E9454
:104BF0008F251F910F91FF9008950F931F938C01A4
:104C00000E94BC25F80180810E94EF1BC8010E9410
:104C10008F251F910F910895EF92FF920F931F938D
:104C2000CF93DF93EC01162F072F0E94BC25212F75
:104C3000302FC9018C0188EEE82E83E0F82EE00EBB
:104C4000F11EF8010F5F1F4F8491882331F06881B6
:104C50000E94DE1B0E151F05A1F7CE010E948F25B5
:104C600060E070E080E090E0DF91CF911F910F91C4
:104C7000FF90EF900895CF92DF92EF92FF920F9303
:104C80001F938C010E940C26F62EE72ED82EC92EDB
:104C9000C8010E94FD256F2D7E2D8D2D9C2D1F910D
:104CA0000F91FF90EF90DF90CF900895FF920F93B8
:104CB0001F938C01F62E0E94BC258F2DF801608178
:104CC0000E94DE1BC8010E948F251F910F91FF904B
:104CD0000895EF92FF920F931F938C017B010E9426
:104CE000BC25C701F80160810E94111CF801808178
:104CF0000E94EF1BC8010E948F251F910F91FF900A
:104D0000EF900895EF92FF920F931F938C017B0118
:104D10000E94BC25C701F80160810E94111CC801D6
:104D20000E948F251F910F91FF90EF900895CF92D1
:104D3000DF92EF92FF920F931F93CF93DF937C014B
:104D40008A01D62EC72EE9010E94BC25209731F496
:104D5000802FF70160810E94DE1B17C0CA30D10589
:104D600041F4B8018D2D9C2DF70140810E94031D57
:104D70000CC09E01442737FD4095542FB8018D2D5E
:104D80009C2DF70100810E94271CF70180810E9461
:104D9000EF1BC7010E948F25DF91CF911F910F91CB
:104DA000FF90EF90DF90CF9008950F931F93CF93D4
:104DB000DF938B01BA01DA0140E050E0C22FD0E06E
:104DC00019C0F801E40FF51F8081982F92959F700C
:104DD0008F709A3010F4905D01C0995C9C938A307A
:104DE00010F4805D01C0895C11968C9311974F5F20
:104DF0005F4F12964C175D0724F3CC0FDD1FC60FD3
:104E0000D71F1882DF91CF911F910F910895FB0159
:104E10009081892F80538A3038F4292F332727FD3A
:104E20003095205330400DC0892F8154863018F0C2
:104E300020E030E007C0292F332727FD3095275386
:104E4000304031966081862F80538A3030F4772746
:104E500067FD7095605370400CC0862F815486307A
:104E600018F060E070E005C0772767FD7095675324
:104E7000704094E0220F331F9A95E1F7862F820F3E
:104E8000089508958FED90E00E940F338F3F09F44D
:104E900080E00895CB010E940F33089584E06030D4
:104EA000780724F0CB01642F0E941D330895CF9220
:104EB000DF92EF92FF920F931F93CF93DF936A01DC
:104EC000EB0109900020E9F72197C61BD70BD69577
:104ED000C7957B0100E010E00FC086ED95E0B701BB
:104EE0000E940727F601E00FF11F80830F5F1F4F1D
:104EF00082E090E0E80EF91E0C171D0770F3CE015A
:104F0000DF91CF911F910F91FF90EF90DF90CF90A5
:104F1000089587E161E00E94341A8BE061E00E940D
:104F2000341A87E161E00E94521A8BE061E00E942E
:104F3000521A089587E161E00E94341A84E261E028
:104F40000E94341A85E261E00E94341A87E161E030
:104F50000E94521A84E261E00E94521A85E261E0E6
:104F60000E94521A08950F931F93162F042F862F15
:104F700061E00E94341A013019F4812F61E004C00D
:104F8000002321F4812F60E00E94521A1F910F919B
:104F900008952F923F924F925F926F927F928F92DD
:104FA0009F92AF92BF92CF92DF92EF92FF920F93B8
:104FB0001F93DF93CF93CDB7DEB7C75FD0400FB657
:104FC000F894DEBF0FBECDBF2DB63EB68DB79EB7EF
:104FD00008970FB6F8949EBF0FBE8DBFADB6BEB694
:104FE0000894A11CB11C7501CC24DD244E01089449
:104FF000811C911CCE0180599F4FAEEF4A2EAFEF1E
:105000005A2E480E591EF0E16F2E712C680E791E33
:10501000DE01A052BF4FC051DF4FB983A883C05FEC
:10502000D040FE013E96CE50DF4FF983E883C25F49
:10503000D040C4016DE00E941D2D86ED95E06CE02E
:1050400040E00E94B32786ED95E06DE040E00E94CD
:10505000B327D7011D921D921D921C9213978CE0CD
:1050600061E00E94341A8CE061E00E94521AC4018F
:105070000E94552D86ED95E06DE041E00E94B3273A
:105080006AE070E080E090E00E941A19C40163E3D6
:1050900040E00E94DD2C62E370E080E090E00E943E
:1050A0001A198E0102511F4FC4010E94752CF8017C
:1050B0008083118261E070E080E090E00E941A1924
:1050C000025010400415150579F7F301DE015096E2
:1050D000819191918D939D93C051DF4F88819981EA
:1050E000C05FD040E817F90799F7BE0162597F4FBA
:1050F00021E030E040E050E0DB018D919C91019790
:1051000079F4D7018D919D910D90BC91A02D820FC6
:10511000931FA41FB51FF70180839183A283B383DC
:1051200062507040CE50DF4F88819981C25FD0407D
:105130006817790729F0220F331F441F551FDCCF52
:10514000F70180819181A281B3818F5F9F4FAF4F23
:10515000BF4F31F4D7011D921D921D921C921397DF
:105160008CE060E00E94521A86ED95E06CE040E031
:105170000E94B32786ED95E06DE040E00E94B327E2
:105180000894C11CD11CE4E0F0E0EE0EFF1EF2E03A
:10519000CF16D10409F04DCFD5012D913D914D9100
:1051A0005C91139714968D919D910D90BC91A02DBB
:1051B000281739074A075B0721F020E030E040E07C
:1051C00050E0B901CA010FB6F8943EBE0FBE2DBE25
:1051D000C950DF4F0FB6F894DEBF0FBECDBFCF91E1
:1051E000DF911F910F91FF90EF90DF90CF90BF90D4
:1051F000AF909F908F907F906F905F904F903F9077
:105200002F900895EF92FF920F931F930E94C9274A
:105210007B018C016115710581059105B1F483EE67
:1052200090E00E9417336A302AE072072AE0820772
:105230002AE0920751F06F3F2FEF72072FEF82079E
:105240002FEF920711F07B018C01B701C8011F916C
:105250000F91FF90EF90089581E080931C0660937A
:10526000F90510921A0610921B0608958091F80510
:105270009091F705891B08959091F7058091F805A5
:10528000981710F080E00895E92FF0E0E952FA4F06
:1052900080819F5F9093F7050895109224061092E5
:1052A0001D0610921E068AEF90E0A0E0B0E0809309
:1052B0001F0690932006A0932106B093220608951E
:1052C000CF93DF93EC018091FC079091FD07A091B3
:1052D000FE07B091FF0784FD3CC08091FC079091D0
:1052E000FD07A091FE07B091FF0785FD32C08091B8
:1052F000FC079091FD07A091FE07B091FF0786FD86
:1053000028C08091FC079091FD07A091FE07B09105
:10531000FF0787FD1EC08091FC079091FD07A091BB
:10532000FE07B091FF0790FD14C08091FC0790919B
:10533000FD07A091FE07B091FF0791FD0AC0809183
:10534000FC079091FD07A091FE07B091FF0793FF26
:105350001DC080912406882339F48EE396E060E036
:1053600041E00E94D02D0CC08981882331F48EE366
:1053700096E060E041E00E94D02D8881882331F4DE
:105380008EE396E061E041E00E94D02DDF91CF9165
:105390000895FC018091FC079091FD07A091FE0704
:1053A000B091FF0781709070A070B0708083809181
:1053B000FC079091FD07A091FE07B091FF07B695FD
:1053C000A79597958795817081838091FC0790912F
:1053D000FD07A091FE07B091FF0784FD3CC08091BE
:1053E000FC079091FD07A091FE07B091FF0785FD96
:1053F00032C08091FC079091FD07A091FE07B0910B
:10540000FF0786FD28C08091FC079091FD07A091C1
:10541000FE07B091FF0787FD1EC08091FC079091A9
:10542000FD07A091FE07B091FF0790FD14C0809189
:10543000FC079091FD07A091FE07B091FF0791FD39
:105440000AC08091FC079091FD07A091FE07B091E2
:10545000FF0793FF10C080912406882361F48EE338
:1054600096E060E040E00E94D02D8EE396E061E09F
:1054700040E00E94D02D08950F931F938C010E944D
:105480006415F80116821F910F910895DF93CF9351
:105490000F92CDB7DEB7698380911C06882389F00F
:1054A00080911B068032D0F480911A06E82FF0E03C
:1054B000E650FA4F60838F5F80931A0680931B0635
:1054C0000DC08DE196E00E94C929CE01019661E0F0
:1054D0000E9449158DE196E00E9460290F90CF91BE
:1054E000DF9108950E94462A0895FF920F931F931B
:1054F0000DE116E0C8010E94C9298091F9056AEF03
:1055000075E040911B0621E00E948917F82E109249
:105510001A0610921B0610921C06C8010E946029F0
:105520008F2D1F910F91FF900895FF920F931F935E
:10553000F62E142F8DE196E00E94C929012F113219
:1055400008F000E28F2D67ED75E0402F0E94EE1706
:10555000182F1092F7050093F8058DE196E00E9450
:105560006029812F1F910F91FF9008950E94952A25
:1055700008950F931F938C0180E2E7EDF5E0DF01C2
:10558000982F1D929A95E9F71092F7051092F80559
:10559000EAEFF5E0DF011D928A95E9F710921A060D
:1055A00010921B060E94BB1581E0F801868384E0FF
:1055B00090E00E9444191F910F9108951F920F923D
:1055C0000FB60F920BB60F9211242F933F934F9368
:1055D0005F936F937F938F939F93AF93BF93EF935B
:1055E000FF938091250690912606892B29F0E09162
:1055F0002506F09126060995FF91EF91BF91AF9195
:105600009F918F917F916F915F914F913F912F91DA
:105610000F900BBE0F900FBE0F901F9018951F920A
:105620000F920FB60F920BB60F9211242F933F9348
:105630004F935F936F937F938F939F93AF93BF939A
:10564000EF93FF938091270690912806892B29F0EC
:10565000E0912706F09128060995FF91EF91BF91FF
:10566000AF919F918F917F916F915F914F913F91FA
:105670002F910F900BBE0F900FBE0F901F9018959B
:105680001F920F920FB60F920BB60F9211242F9309
:105690003F934F935F936F937F938F939F93AF93BA
:1056A000BF93EF93FF938091290690912A06892B4F
:1056B00029F0E0912906F0912A060995FF91EF91D2
:1056C000BF91AF919F918F917F916F915F914F911A
:1056D0003F912F910F900BBE0F900FBE0F901F9018
:1056E00018951F920F920FB60F920BB60F921124BE
:1056F0002F933F934F935F936F937F938F939F93DA
:10570000AF93BF93EF93FF9380912B0690912C065C
:10571000892B29F0E0912B06F0912C060995FF9139
:10572000EF91BF91AF919F918F917F916F915F9119
:105730004F913F912F910F900BBE0F900FBE0F9086
:105740001F9018951F920F920FB60F920BB60F92E3
:1057500011242F933F934F935F936F937F938F9376
:105760009F93AF93BF93EF93FF9380912D069091FA
:105770002E06892B29F0E0912D06F0912E06099531
:10578000FF91EF91BF91AF919F918F917F916F9119
:105790005F914F913F912F910F900BBE0F900FBED5
:1057A0000F901F9018951F920F920FB60F920BB685
:1057B0000F9211242F933F934F935F936F937F9397
:1057C0008F939F93AF93BF93EF93FF9380912F0697
:1057D00090913006892B29F0E0912F06F091300648
:1057E0000995FF91EF91BF91AF919F918F917F911B
:1057F0006F915F914F913F912F910F900BBE0F9042
:105800000FBE0F901F9018951F920F920FB60F9218
:105810000BB60F9211242F933F934F935F936F9387
:105820007F938F939F93AF93BF93EF93FF93809159
:10583000310690913206892B29F0E0913106F091E2
:1058400032060995FF91EF91BF91AF919F918F9192
:105850007F916F915F914F913F912F910F900BBE70
:105860000F900FBE0F901F9018951F920F920FB6BA
:105870000F920BB60F9211242F933F934F935F9388
:105880006F937F938F939F93AF93BF93EF93FF9308
:105890008091330690913406892B29F0E0913306EC
:1058A000F09134060995FF91EF91BF91AF919F91CF
:1058B0008F917F916F915F914F913F912F910F90B9
:1058C0000BBE0F900FBE0F901F90189510923A06C6
:1058D00082E0809336068CE180933B0680EC91E079
:1058E00090933D0680933C060895DF92EF92FF92DD
:1058F0000F931F93FC01E08001811281F894F8015D
:1059000081818E2981838281DE2CD0948D218283B6
:1059100082E090E00E944419F80181818D21818309
:1059200087E090E00E944419F801008178948DE2AC
:1059300090E00E94441980E010E0FF240E211F2116
:10594000012B09F081E01F910F91FF90EF90DF9004
:1059500008951F93CF93DF93FC011081C181D28101
:10596000912F909560FF12C0F8948A8189238A83D1
:105970008981812B898389E090E00E9444198A8182
:10598000812B8A8378948FE290E011C0F8948A8109
:1059900089238A838981812B898387E390E00E9410
:1059A00044198A81812B8A83789485E090E00E9453
:1059B0004419DF91CF911F910895CF92DF92EF921A
:1059C000FF920F931F93CF93DF938C01E42EFF245C
:1059D000F394C0E0D0E0C62EDD2460E08F2D90E08F
:1059E0008C219D21892B09F061E0C8010E94A92C1E
:1059F000FF0C2196C830D10581F7EE20A9F4F89468
:105A0000D8011196ED91FC91129791818C9180951E
:105A1000982391831196ED91FC91129792818C912C
:105A20008095982392837894DF91CF911F910F9165
:105A3000FF90EF90DF90CF9008950F931F938C010C
:105A4000862FD8011E966C9360E00E94341AD8010C
:105A50001E96EC911E978E2F90E0FC01E25BF94FB1
:105A6000E491EC93855E994FFC018491E82FF0E07E
:105A7000ED5EF94FE4911196EC93119712961C92FA
:105A800012971B961C921B971D961C921D971C9695
:105A90001C92F80187E090E012863197009711F090
:105AA0000197FACF1F910F910895CF92DF92EF9255
:105AB000FF920F931F93CF93DF93EC018E8560E0ED
:105AC0000E94341A0E9484187B018C018DE7D82E25
:105AD000DA942FEFD21609F441C082E090E00E94E0
