:100000000C94E7010C940D1B0C943E1B0C946F1B7D
:100010000C94A01B0C94D11B0C94021C0C94331C4C
:100020000C94641C0C940F020C940F020C940F029D
:100030000C94FF0D0C940F020C940F020C949B0C6B
:100040000C940F020C940F020C940F020C940F02EC
:100050000C940F020C940F020C940F020C94760C6B
:100060000C940F020C94EB0E0C940F020C940F02E4
:100070000C940F020C940F020C940F020C940F02BC
:100080000C940F020C940F020C940F020C940F02AC
:100090000C942C0F0C940F020C940F020C94700A09
:1000A0000C940F020C940F020C940F020C940F028C
:1000B0000C940F020C940F020C940F020C940F027C
:1000C0000C940F020C940F020C940F024301570181
:1000D0007D01A401C401DC01EA01FA010F0225023D
:1000E000360242024902660284029A02A802B8025B
:1000F000DB02E10257726F6E672074696D652066DE
:100100006F726D61742E204D7573742062652022AC
:1001100064643A68683A6D6D220057726F6E6720AA
:1001200074696D6520666F726D61742E204D7573F4
:1001300074206265202264643A68683A6D6D3A738F
:10014000732200416C61726D204D6F6465206D619A
:10015000746368657320005B446179203A20686F9E
:10016000757273203A206D696E75746573203A203C
:100170007365636F6E64735D202D3E20005B446188
:100180007465203A20686F757273203A206D696E2D
:1001900075746573203A207365636F6E64735D20B8
:1001A0002D3E20005B486F757273203A206D696E9A
:1001B00075746573203A207365636F6E64735D2098
:1001C0002D3E20005B4D696E75746573203A207377
:1001D00065636F6E64735D202D3E20005B53656325
:1001E0006F6E64735D202D3E20004F6E636520703E
:1001F0006572207365636F6E6400496E636F72721F
:1002000065637420616C61726D206D6F6465005B65
:10021000253032753A253032753A253032753A2517
:100220003032755D005B253032753A253032753AD3
:10023000253032755D005B253032753A25303275D8
:100240005D005B253032755D005B446179203A20AA
:10025000686F757273203A206D696E7574657320CE
:100260005D202D3E20005B44617465203A20686F5C
:10027000757273203A206D696E75746573205D2008
:100280002D3E20005B486F757273203A206D696EB9
:10029000757465735D202D3E20005B4D696E75742D
:1002A00065735D202D3E20004F6E63652070657282
:1002B000206D696E7574650025732C2025303275AC
:1002C0002F253032752F253032752C202530327590
:1002D0003A253032753A25303275006572726F7288
:1002E000002530327525632530327525632530327F
:1002F00075256325303275256325303275256325D4
:1003000030327525632530327500002124272A2DCF
:100310003033002225282B2E313400202326292C8F
:100320002F3205050505030303030101010404033E
:100330000606060606060606010405010501030277
:100340000202020202010202050504040304040180
:10035000030407070701020810102040800408105A
:100360002040020204081020408001028020400446
:100370002001010204081020014080408001020891
:1003800004088004100402010000080900000000B5
:10039000000000000000000000000000000000005D
:1003A000000000000000000000000000000000004D
:1003B00000000000000000000000000080098F1015
:1003C0001311BF16B917BC177C19951CFE1D1124FB
:1003D0001FBECFEFD1E2DEBFCDBF13E0A0E0B2E0A1
:1003E000E6EFF6E402C005900D92AE34B107D9F7FE
:1003F0001BE0AEE4B3E001C01D92A23EB107E1F7FD
:1004000013E0CEECD3E004C02297FE010E94EB1F64
:10041000CC3BD107C9F70E946D0F0C9479230C9443
:100420000000EF92FF920F93DF93CF93CDB7DEB72B
:1004300060970FB6F894DEBF0FBECDBFA82F002384
:1004400009F461C07E010894E11CF11C88E0F70109
:1004500011928A95E9F729833A834B835C836D83F4
:100460007E83AF83988780E2801BE82FFF27E7FD1C
:10047000F09549815A816B817C81181684F0198628
:100480001A861B861C86882799278E1B9F0B04C003
:10049000440F551F661F771F8A95D2F728C0202F5B
:1004A000332727FD3095DB01CA01022E04C0880FD7
:1004B000991FAA1FBB1F0A94D2F789879A87AB8717
:1004C000BC8704C07695679557954795EA95D2F70E
:1004D0008D819E81AF81B88504C0880F991FAA1FA6
:1004E000BB1F2A95D2F7482B592B6A2B7B2B4D87A4
:1004F0005E876F87788B29853A854B855C856D850E
:100500007E85AF8598898A2F60960FB6F894DEBFF6
:100510000FBECDBFCF91DF910F91FF90EF90089567
:10052000AEE5B0E0E6E9F2E00C94B21FA8E04E01BF
:100530000894811C911CF4016A2E11926A94E9F7C7
:1005400029833A834B835C836D837E838F83988773
:10055000CE010996FC011192AA95E9F7A986BA86FF
:10056000CB86DC86ED86FE860F87188B29843A843D
:100570004B845C84ED84FE840F85188969807A80C1
:100580008B809C806DA67EA68FA698AA6D807E80AB
:100590008F809884E114F1040105110509F0B3C3BB
:1005A000621473048404950408F03DC100E0201631
:1005B00000E0300601E0400600E0500688F41FEF3E
:1005C000211631044104510439F030F048E0E42EA2
:1005D000F12C012D112D18C0EE24FF24870114C029
:1005E00020E0221620E0320620E0420621E05206FA
:1005F00030F038E1E32EF12C012D112D05C020E162
:10060000E22EF12C012D112DD201C1010E2C04C0BE
:10061000B695A795979587950A94D2F78B5C9D4FD1
:10062000DC012C9180E290E0A0E0B0E08E199F09FF
:10063000A00BB10B7C018D01E21AF108010911092F
:10064000E114F10401051105A1F10E2C04C0220CE6
:10065000331C441C551C0A94D2F7A40193010E2CA0
:1006600004C0220F331F441F551F0A94D2F780E2A3
:1006700090E08E199F096DA47EA48FA498A804C051
:1006800096948794779467948A95D2F7622A732A0E
:10069000842A952AADA4BEA4CFA4D8A804C0AA0CCD
:1006A000BB1CCC1CDD1CEA94D2F7ADA6BEA6CFA61F
:1006B000D8AA6201EE24FF24CDAADEAAEFAAF8AEE2
:1006C000920181012070307009AF1AAF2BAF3CAF9F
:1006D000C401B301A70196010E94751F7B018C0123
:1006E000C401B3012DA93EA94FA958AD0E94751FA1
:1006F000C901DA013C014D01C401B30129AD3AAD94
:100700004BAD5CAD0E942F1F9B01AC018701FF2404
:10071000EE24ADA4BEA4CFA4D8A8C601AA27BB27A7
:1007200057016801A82AB92ACA2ADB2AA216B306E9
:10073000C406D506E0F408946108710881089108A0
:10074000A20CB31CC41CD51CA214B304C404D5044D
:1007500070F0A216B306C406D50648F408946108E2
:10076000710881089108A20CB31CC41CD51CA21AE4
:10077000B30AC40AD50AC601B5012DA93EA94FA9DD
:1007800058AD0E94751F7B018C01C601B5012DA9D2
:100790003EA94FA958AD0E94751FC901DA015C013D
:1007A0006D01C601B50129AD3AAD4BAD5CAD0E94FE
:1007B0002F1F9B01AC018701FF24EE248DA59EA570
:1007C000AFA5B8A9A070B070E82AF92A0A2B1B2B94
:1007D000E216F30604071507C0F40894A108B1084F
:1007E000C108D108E20CF31C041D151DE214F3042A
:1007F0000405150550F0E216F3060407150728F462
:100800000894A108B108C108D108D3019927882705
:1008100086017501E82AF92A0A2B1B2BE9AAFAAAF4
:100820000BAB1CABCFC4211431044104510471F44F
:1008300061E070E080E090E020E030E040E050E0F7
:100840000E94751FC901DA011C012D0100E020166C
:1008500000E0300601E0400600E0500688F41FEF9B
:10086000211631044104510431F028F048E050E0F1
:1008700060E070E017C040E050E060E070E012C05F
:1008800020E0221620E0320620E0420621E0520657
:1008900028F048E150E060E070E004C040E150E042
:1008A00060E070E0D201C101042E04C0B695A795A6
:1008B000979587950A94D2F78B5C9D4FDC012C911C
:1008C000E0E2EE2EF12C012D112DD801C701841B81
:1008D000950BA60BB70B821B9109A109B1090097D3
:1008E000A105B10561F464015301A218B308C4085D
:1008F000D50831E0632E712C812C912C1EC16F968E
:100900008FAF6F97082E04C0220C331C441C551C5B
:100910000A94D2F7EE2DE81B640153010E2E04C099
:10092000D694C794B794A7940A94D2F7A4019301DC
:100930006F960FAC6F9704C0220F331F441F551FD3
:100940000A94D2F76DA47EA48FA498A80E2E04C09A
:1009500096948794779467940A94D2F784017301EC
:10096000E22AF32A042B152BE9A6FAA60BA71CA74B
:1009700032018824992492018101207030702196DF
:100980000CAF1DAF2EAF3FAF2197C601B501A4013B
:1009900093010E94751F7B018C01C601B501A40162
:1009A00093010E94751FC901DA0125968CAF9DAF96
:1009B000AEAFBFAF2597BC01CD0121962CAD3DADAB
:1009C0004EAD5FAD21970E942F1F9B01AC018701A7
:1009D000FF24EE24A9A4BAA4CBA4DCA4C601AA27B0
:1009E000BB275C016D01AE28BF28C02AD12AA21600
:1009F000B306C406D50660F525966CAD7DAD8EAD0B
:100A00009FAD2597615070408040904025966CAF17
:100A10007DAF8EAF9FAF2597A20CB31CC41CD51C15
:100A2000A214B304C404D50498F0A216B306C406F5
:100A3000D50670F4615070408040904025966CAFB0
:100A40007DAF8EAF9FAF2597A20CB31CC41CD51CE5
:100A5000A21AB30AC40AD50AC601B501A4019301BA
:100A60000E94751F7B018C01C601B501A401930191
:100A70000E94751FC901DA013C014D01C401B30197
:100A800021962CAD3DAD4EAD5FAD21970E942F1F3D
:100A90009B01AC018701FF24EE2489A59AA5ABA593
:100AA000BCA5A070B07057016801A82AB92ACA2A4B
:100AB000DB2AA216B306C406D506E0F40894610842
:100AC000710881089108A20CB31CC41CD51CA21487
:100AD000B304C404D50470F0A216B306C406D50648
:100AE00048F408946108710881089108A20CB31CAD
:100AF000C41CD51C8DA59EA5AFA5B8A96F960FAC3B
:100B00006F9704C0880F991FAA1FBB1F0A94D2F7C2
:100B10008DA79EA7AFA7B8ABA21AB30AC40AD50A7D
:100B20002596ECACFDAC0EAD1FAD2597D7019927EE
:100B30008827682A792A8A2A9B2A82012227332732
:100B400029960CAF1DAF2EAF3FAF2997A20191019F
:100B5000407050702D962CAF3DAF4EAF5FAF2D97CC
:100B6000C601B50129962CAD3DAD4EAD5FAD2997BF
:100B70000E94751F7B018C01C601B50129962CAD21
:100B80003DAD4EAD5FAD29970E94751FC901DA01D9
:100B900061968CAF9DAFAEAFBFAF6197BC01CD0189
:100BA0002D962CAD3DAD4EAD5FAD2D970E942F1F04
:100BB0009B01AC018701FF24EE24ADA4BEA4CFA409
:100BC000D8A8C601AA27BB2757016801A82AB92AB5
:100BD000CA2ADB2AA216B306C406D50660F56196BA
:100BE0006CAD7DAD8EAD9FAD619761507040804022
:100BF000904061966CAF7DAF8EAF9FAF6197A20CB6
:100C0000B31CC41CD51CA214B304C404D50498F0AE
:100C1000A216B306C406D50670F461507040804039
:100C2000904061966CAF7DAF8EAF9FAF6197A20C85
:100C3000B31CC41CD51CA21AB30AC40AD50AC60127
:100C4000B50129962CAD3DAD4EAD5FAD29970E9403
:100C5000751F7B018C01C601B50129962CAD3DADF8
:100C60004EAD5FAD29970E94751FC901DA015C0185
:100C70006D01C601B5012D962CAD3DAD4EAD5FADFC
:100C80002D970E942F1F9B01AC018701FF24EE24AA
:100C90008DA59EA5AFA5B8A9A070B070E82AF92AC5
:100CA0000A2B1B2BE216F30604071507C0F4089461
:100CB000A108B108C108D108E20CF31C041D151DE0
:100CC000E214F3040405150550F0E216F3060407D8
:100CD000150728F40894A108B108C108D108619645
:100CE000ECACFDAC0EAD1FAD6197D70199278827FD
:100CF00096018501082B192B2A2B3B2B09AB1AAB2C
:100D00002BAB3CAB62C26E147F048006910608F4E4
:100D100051C220E0E21620E0F20621E0020720E0C6
:100D2000120788F43FEFE316F1040105110531F0D5
:100D300028F048E050E060E070E017C040E050E08C
:100D400060E070E012C040E0E41640E0F40640E0ED
:100D5000040741E0140728F048E150E060E070E04B
:100D600004C040E150E060E070E0D801C701042E0B
:100D700004C0B695A795979587950A94D2F78B5C92
:100D80009D4FDC012C9130E2A32EB12CC12CD12C33
:100D9000D601C501841B950BA60BB70B821B9109CD
:100DA000A109B1090097A105B10589F4E614F7047A
:100DB0000805190508F4F2C16DA47EA48FA498A8B3
:100DC000621473048404950408F0E8C1F3C16E96BC
:100DD0008FAF6E97082E04C0EE0CFF1C001F111F72
:100DE0000A94D2F76A2D681BD201C101062E04C0F5
:100DF000B695A795979587950A94D2F75C016D01F2
:100E0000AE28BF28C02AD12AADA2BEA2CFA2D8A6A2
:100E1000720161016E960FAC6E9704C0CC0CDD1CA4
:100E2000EE1CFF1C0A94D2F7C9A2DAA2EBA2FCA224
:100E300064015301062E04C0D694C794B794A794B6
:100E40000A94D2F7D401C3016E960FAC6E9704C01A
:100E5000880F991FAA1FBB1F0A94D2F7EDA4FEA406
:100E60000FA518A904C016950795F794E7946A95FD
:100E7000D2F737014801682A792A8A2A9B2A6D8E7F
:100E80007E8E8F8E98A2EDA0FEA00FA118A538012E
:100E900088249924980187012070307065960CAFE2
:100EA0001DAF2EAF3FAF6597C601B501A4019301F9
:100EB0000E94751F7B018C01C601B501A40193013D
:100EC0000E94751FC901DA011C012D01C201B10187
:100ED00065962CAD3DAD4EAD5FAD65970E942F1F61
:100EE0009B01AC018701FF24EE24AD8CBE8CCF8C1E
:100EF000D8A0C601AA27BB2757016801A82AB92A8A
:100F0000CA2ADB2AA216B306C406D50600F5089441
:100F10002108310841085108EDA0FEA00FA118A535
:100F2000AE0CBF1CC01ED11EAE14BF04C006D1063D
:100F300070F0A216B306C406D50648F4089421083A
:100F4000310841085108AE0CBF1CC01ED11EA21AA8
:100F5000B30AC40AD50AC601B501A40193010E94CF
:100F6000751F7B018C01C601B501A40193010E948C
:100F7000751FC901DA013C014D01C401B301659639
:100F80002CAD3DAD4EAD5FAD65970E942F1F9B010F
:100F9000AC018701FF24EE248D8D9E8DAF8DB8A10D
:100FA000A070B07057016801A82AB92ACA2ADB2AA2
:100FB000A216B306C406D50600F5089461087108A8
:100FC000810891086DA17EA18FA198A5A60EB71EDC
:100FD000C81ED91EA616B706C806D90670F0A216F6
:100FE000B306C406D50648F4089461087108810860
:100FF0009108A60EB71EC81ED91ED601C501821BB8
:10100000930BA40BB50B898F9A8FAB8FBC8FD1013B
:101010009927882764015301A82AB92ACA2ADB2AFA
:10102000A9AABAAACBAADCAA860175012FEF3FEFC5
:1010300040E050E0E222F32204231523A6016627B4
:1010400077276D964CAF5DAF6EAF7FAF6D97A9A060
:10105000BAA0CBA0DCA06FEF7FEF80E090E0A622EB
:10106000B722C822D92289A19AA1ABA1BCA11D0196
:1010700044245524C801B701A60195010E942F1FE1
:1010800069966CAF7DAF8EAF9FAF6997C801B7010E
:10109000A20191010E942F1F3B014C016D966CAD86
:1010A0007DAD8EAD9FAD6D97A60195010E942F1F5E
:1010B0007B018C016D966CAD7DAD8EAD9FAD6D9756
:1010C000A20191010E942F1F5B016C01A8019701F1
:1010D000260D371D481D591D69966CAC7DAC8EAC34
:1010E0009FAC6997C401AA27BB27280F391F4A1F45
:1010F0005B1F2E153F054007510748F4E12CF12CEA
:1011000061E0062F112DAE0CBF1CC01ED11ECA01FE
:10111000AA27BB27BC01CD016A0D7B1D8C1D9D1D1F
:10112000698C7A8C8B8C9C8C66167706880699065F
:1011300040F1661577058805990509F043C0D90186
:101140009927882769962CAD3DAD4EAD5FAD699767
:1011500040705070820F931FA41FB51F2DA53EA590
:101160004FA558A96E960FAC6E9704C0220F331F7F
:10117000441F551F0A94D2F7281739074A075B07FF
:1011800008F509A91AA92BA93CA901501040204033
:10119000304009AB1AAB2BAB3CAB14C066247724B0
:1011A000430121E030E040E050E029AB3AAB4BABEB
:1011B0005CAB0BC066247724430119AA1AAA1BAAA8
:1011C0001CAA03C0662477244301FE01719688E0BF
:1011D000DF011D928A95E9F7A9A8BAA8CBA8DCA8D7
:1011E000A98ABA8ACB8ADC8A6D8A7E8A8F8A988E8F
:1011F00029A93A894B895C89662D7E898F89988DCA
:10120000C25ADF4FE2E10C94CE1F0F931F93CF938E
:10121000DF9309E313E0E801888161E00E94540E46
:10122000229683E0CF34D807B9F768EE73E080E008
:1012300090E00E94560DF801808160E00E94540EFB
:101240000E5F1F4FF3E00F341F07A9F768EE73E03E
:1012500080E090E00E94560DDF91CF911F910F9199
:101260000895CF93DF9384E095E060E040E00E9432
:101270009010C9E3D3E0888161E00E94360E229687
:1012800083E0CF34D807B9F78EE061E00E94360ED4
:101290008EE061E00E94540EDF91CF910895CF93CC
:1012A000DF93FC0180E092ECA1E0B0E080839183C9
:1012B000A283B383E055FF4F11821082E05BF040C0
:1012C000CF018A5B9F4FDC0186E0ED0119928A9580
:1012D000E9F7EB5AFF4F8FE08083399782E08193E3
:1012E000119211928BE4819382E381931192108287
:1012F000389680E094E091838083DF91CF910895C8
:101300008EE493E00E944F090895482F613210F057
:1013100081E0089580918804843011F082E008957E
:101320006093D104A0EBB4E0842F9C01F90102C0CA
:1013300081918D938E2F841B8617D0F380E00895C2
:10134000589859988091B90081608093B900809134
:10135000B90082608093B9008091BC00806880935E
:10136000BC008091BC0080618093BC008091BC0077
:101370008F7B8093BC008091BC008F7D8093BC00EC
:101380008091BC00877F8093BC008091C8079091BA
:10139000C907A091CA07B091CB0786FD14C0809100
:1013A000C8079091C907A091CA07B091CB0790FDDB
:1013B0000AC08091C8079091C907A091CA07B0914F
:1013C000CB0793FF04C08091BC008B7F03C080914A
:1013D000BC0084608093BC008091BC008E7F8093B1
:1013E000BC0080916400806880936400089510922E
:1013F0008804E4E6F0E080818F778083589A599AD8
:10140000E9EBF0E080818E7F808380818D7F808317
:1014100081E48093B80085E48093BC0080E2EEE82C
:10142000F4E0DF01982F1D929A95E9F7E0EBF4E0E4
:10143000DF01982F1D929A95E9F7E2EDF4E0DF01C4
:101440001D928A95E9F70895882349F01092F404D3
:101450001092F5041092F6041092F70413C08091D4
:10146000F4049091F504A091F604B091F70401966C
:10147000A11DB11D8093F4049093F504A093F6048C
:10148000B093F7048091F4049091F504A091F604D0
:10149000B091F704805A9648A140B04010F480E023
:1014A00008951092F4041092F5041092F60410922C
:1014B000F7040E94F70981E0089585ED8093BC0050
:1014C00081E00E94240A05C080E00E94240A88234B
:1014D00021F48091BC0084FDF7CF10928804089518
:1014E0001F920F920FB60F920BB60F9211242F93EB
:1014F0003F934F935F936F937F938F939F93AF939C
:10150000BF93EF93FF938091B90090E0887F907034
:101510008036910509F4C3C081369105CCF5883237
:10152000910509F47BC089329105B4F480319105AD
:1015300009F46FC0813191053CF4009709F40EC1A4
:10154000089709F00FC165C08831910509F466C09C
:10155000809709F007C177C08034910509F48DC0E8
:101560008134910544F48033910509F472C0C89721
:1015700009F0F8C072C08035910509F472C0883551
:10158000910509F47FC08834910509F0EBC0E8C0EB
:101590008839910509F4D8C089399105ECF4883768
:1015A000910509F47CC0893791054CF48836910582
:1015B00009F475C08037910509F0D4C070C088382F
:1015C000910509F4C1C08039910509F46EC08038D5
:1015D000910509F0C7C069C0803B910509F48CC032
:1015E000813B91054CF4803A910509F470C0883A2A
:1015F000910509F0B7C080C0803C910509F4A8C0EE
:10160000883C910509F4A4C0883B910509F0AAC063
:1016100088C0809189048093BB0013C09091AE0470
:101620008091AF04981708F09BC09091AE04E92F09
:10163000F0E0E257FB4F80818093BB009F5F909367
:10164000AE0485EC82C00E945D0A80E28093F304C0
:1016500089C080E38093F30483C088E38093F3041C
:1016600077C08091AE049091BB00E82FF0E0E25784
:10167000FB4F90838F5F8093AE049091AE04809176
:10168000AF045FC08091AE049091BB00E82FF0E002
:10169000E257FB4F90838F5F8093AE0461C083E07D
:1016A000809388041092F204CCCF8091F2048032AF
:1016B00008F04AC08091F2049091BB00E82FF0E05E
:1016C000EE52FB4F90838F5F8093F204BACF8091EC
:1016D000F204803230F4E091F204F0E0EE52FB4F7D
:1016E00010826091F204E0918C04F0918D0482EDFF
:1016F00094E070E009952CC084E0809388041092F7
:10170000D0041092D104E0918A04F0918B040995E1
:101710008091D104882329F481E08093D104109230
:10172000B0049091D004E92FF0E0E055FB4F8081A8
:101730008093BB009F5F9093D0049091D0048091E0
:10174000D104981708F47DCF85E88093BC000AC0C7
:1017500085EC8093BC001092880404C01092F304BE
:101760000E945D0AFF91EF91BF91AF919F918F9180
:101770007F916F915F914F913F912F910F900BBE91
:101780000F900FBE0F901F901895DF92EF92FF926F
:101790000F931F93E82E062FF72E142FD22E4132CF
:1017A00010F081E051C081E00E94240A05C080E071
:1017B0000E94240A882321F4809188048823B9F7A1
:1017C00082E0809388048FEF8093F3041092AE043C
:1017D0001093AF04AEE8B4E0202F3F2DC901FC0107
:1017E00002C081918D938E2F801B8117D0F38E2D97
:1017F00090E0880F991F8093890485EE8093BC0048
:1018000081E00E94240ADD2041F40BC080E00E94A8
:10181000240A882311F085E017C080918804823063
:10182000A9F38091F3048F3F11F480E00DC0809103
:10183000F304803211F482E007C08091F304803316
:1018400011F084E001C083E01F910F91FF90EF90B1
:10185000DF9008950F931F93CF93DF93182FEB0121
:10186000042F413210F081E03CC081E00E94240A44
:1018700005C080E00E94240A882321F48091880416
:101880008823B9F781E0809388048FEF8093F30475
:101890001092AE040093AF04110F116010938904ED
:1018A00085EE8093BC0081E00E94240A08C080E09D
:1018B0000E94240A882319F020E030E00FC08091B4
:1018C00088048130A1F3F8CFFE01E20FF31FD901A4
:1018D000A257BB4F8C9180832F5F3F4F2017A0F3FF
:1018E00080E0DF91CF911F910F9108951F920F9289
:1018F0000FB60F9211248F939F93AF93BF93809154
:10190000DA079091DB07A091DC07B091DD07019623
:10191000A11DB11D8093DA079093DB07A093DC072C
:10192000B093DD07BF91AF919F918F910F900FBE44
:101930000F901F9018951F920F920FB60F921124BF
:101940008F939F93AF93BF938091DE079091DF07B2
:10195000A091E007B091E1070196A11DB11D809310
:10196000DE079093DF07A093E007B093E107BF91F4
:10197000AF919F918F910F900FBE0F901F90189570
:101980008F929F92AF92BF92CF92DF92EF92FF928F
:101990000F931F938FB7F894A090DA07B090DB07EE
:1019A000C090DC07D090DD078FBF9501A60160E0F5
:1019B00070E080E090E001E00E941102122FF32E0F
:1019C000E42ED52EC62EB72EA82E892E02E00E9418
:1019D0001102B92F210FE1E0211708F0E0E03F0DDF
:1019E000F1E03F1508F0F0E09E2E930EE1E0931633
:1019F00008F0E0E0FE2B4E0DA1E04E1508F0A0E04F
:101A0000FF2EF40EE1E0F41608F0E0E0AE2B5D0DE1
:101A1000F1E05D1508F0F0E00A2F050FE1E0051791
:101A200008F0E0E0FE2B6C0DA1E06C1508F0A0E0E2
:101A30001F2F160FE1E0161708F0E0E0AE2B7B0D2C
:101A4000F1E07B1508F0F0E0A70FE1E0A71708F040
:101A5000E0E0FE2B8A0D91E08A1508F090E0F80F87
:101A6000E1E0F81708F0E0E09E2BB80D392D4F2D7E
:101A7000502F612F7A2F8F2F9B0FE9E0AE2EBB24C2
:101A8000CC24DD24EE24FF2400E010E00E9490022C
:101A9000952FB901842F1F910F91FF90EF90DF9048
:101AA000CF90BF90AF909F908F900895AF92BF92CC
:101AB000CF92DF92EF92FF920F931F935B016C0125
:101AC00007C00E94C00C6E157F058007910720F4A7
:101AD0000E94C00C7B018C010E94C00C6E197F0912
:101AE000800B910B6A157B058C059D0550F31F91AA
:101AF0000F91FF90EF90DF90CF90BF90AF9008953F
:101B00008430910570F0BC0180E090E00E943E1EA0
:101B100026E636E646EE5FE30E94CC1E0E94121EC9
:101B200003C0BC01660F771F6150704061F06150C7
:101B3000704049F0FB01EE0FFF1F31978FB7F8940B
:101B40003197F1F78FBF0895789484B7877F84BF6A
:101B50001092DA071092DB071092DC071092DD0773
:101B600084B5826084BD84B5816084BD85B58260A2
:101B700085BD85B5816085BDEEE6F0E08081816040
:101B80008083E1E8F0E080818260808380818160F1
:101B90008083E0E8F0E0808181608083E1EBF0E029
:101BA000808184608083E1E9F0E0808184608083CB
:101BB000E0EBF0E0808181608083E0E9F0E080810B
:101BC00081608083E4E6F0E080818E7F8083ECE7B3
:101BD000F0E080818F778083808180648083EAE772
:101BE000F0E0808184608083808182608083808156
:101BF000806880831092C1001092C90008951F92DE
:101C00000F920FB60F920BB60F9211242F933F93A2
:101C10004F935F936F937F938F939F93AF93BF93F4
:101C2000EF93FF93F89481E080934D03E0E6F0E0BA
:101C300080818068808380818F7B808383E060E007
:101C40000E94540E7894FF91EF91BF91AF919F91B4
:101C50008F917F916F915F914F913F912F910F9055
:101C60000BBE0F900FBE0F901F901895282F30E0DD
:101C7000C9018B5A9C4FFC0194912E5D3C4FF90198
:101C80008491882381F0E82FF0E0E65FFC4FE49137
:101C9000F0E0662329F4808190958923808308955C
:101CA0008081892B80830895482F50E0CA0188578E
:101CB0009C4FFC012491CA018B5A9C4FFC019491CA
:101CC0004E5D5C4FFA0134913323C1F1222331F18F
:101CD000233021F4809180008F7705C0243031F4C7
:101CE000809180008F7D8093800018C0213019F48E
:101CF00084B58F7704C0223021F484B58F7D84BDF4
:101D00000DC0263021F48091B0008F7705C02730B8
:101D100029F48091B0008F7D8093B000E32FF0E034
:101D2000EE5EFC4FE491F0E0662329F4808190950B
:101D30008923808308958081892B80830895482F8B
:101D400050E0CA0188579C4FFC012491CA018B5A6C
:101D50009C4FFC0194914E5D5C4FFA01349133230A
:101D600019F420E030E035C0222331F1233021F492
:101D7000809180008F7705C0243031F480918000FD
:101D80008F7D8093800018C0213019F484B58F773F
:101D900004C0223021F484B58F7D84BD0DC026306F
:101DA00021F48091B0008F7705C0273029F480910D
:101DB000B0008F7D8093B000E32FF0E0E65EFC4F33
:101DC000E491F0E0808120E030E0892311F021E00F
:101DD00030E0C90108951F920F920FB60F920BB613
:101DE0000F9211242F933F934F935F936F937F93A1
:101DF0008F939F93AF93BF93EF93FF934091C60050
:101E0000E091F804F091F904CF01019660E072E0EE
:101E10000E94621F9C018091FA049091FB04281794
:101E2000390739F0EE51F64F40833093F90420938F
:101E3000F804FF91EF91BF91AF919F918F917F91A6
:101E40006F915F914F913F912F910F900BBE0F902B
:101E50000FBE0F901F9018951F920F920FB60F9202
:101E60000BB60F9211242F933F934F935F936F9371
:101E70007F938F939F93AF93BF93EF93FF93409183
:101E8000CE00E091FC04F091FD04CF01019660E0EA
:101E900072E00E94621F9C018091FE049091FF04F9
:101EA0002817390739F0EE51F84F40833093FD047D
:101EB0002093FC04FF91EF91BF91AF919F918F917F
:101EC0007F916F915F914F913F912F910F900BBE3A
:101ED0000F900FBE0F901F9018950E94A40D84EADA
:101EE00095E00E94BD17853440F081E361E00E94D7
:101EF000360E81E361E00E94540E84EA95E061E0D1
:101F000070E00E94C5178130B1F48091C8079091AC
:101F1000C907A091CA07B091CB0790688093C80702
:101F20009093C907A093CA07B093CB0781E090E0D4
:101F300060E00E94BB2287E20E949F0E892B09F479
:101F40004FC084EA95E060E070E00E94C5178A30D7
:101F500009F046C086E095E00E946B1686E095E0A9
:101F60000E94821486E095E00E94321680911F053F
:101F7000482F50E080912105481B510980911E0592
:101F8000282F30E080912205281B310912161306F4
:101F90005CF48CE390E0BC01269FC001279F900D6C
:101FA000369F900D11240EC037FF0EC08CE390E0D9
:101FB000BC01269FC001279F900D369F900D1124D4
:101FC000805F914F480F591F4330510548F480916D
:101FD000D7079091D80780629093D8078093D7074E
:101FE00086E095E00E946B1686E095E00E941E1345
:101FF00086E095E00E940D1386E095E00E9494161D
:1020000063E070E080E090E00E94560D8091C80788
:102010009091C907A091CA07B091CB07A1FF5EC0FC
:1020200063E070E080E090E00E94560D86E161E0A0
:102030000E94360E63E070E080E090E00E94560D52
:1020400086E161E00E94540E63E070E080E090E081
:102050000E94560D0E94CC1663E070E080E090E094
:102060000E94560D81E00E94A51663E070E080E0BA
:1020700090E00E94560D84E00E94B31663E070E089
:1020800080E090E00E94560D80E00E94AE1663E072
:1020900070E080E090E00E94560D0E94A11663E07F
:1020A00070E080E090E00E94560D89E995E066E0DE
:1020B0000E94EB1663E070E080E090E00E94560D15
:1020C00086E161E00E94360E86E160E00E94540ED7
:1020D00063E070E080E090E00E94560D63E070E005
:1020E00080E090E00E94560D84EA95E00E9431194C
:1020F000609300057093010580930205909303059A
:102100008091000590910105A0910205B091030511
:102110000E9442200E9431090E940509FDCF0895C6
:102120000F931F93062F142F8AE161E00E94360E51
:1021300088E161E00E94360E002321F0013009F0B1
:1021400048C020C0112371F48AE161E00E94540E5E
:102150008091C8079091C907A091CA07B091CB0799
:1021600082602FC01130A9F58AE160E00E94540E10
:102170008091C8079091C907A091CA07B091CB0779
:102180008D7F1FC0112371F488E161E00E94540E1D
:102190008091C8079091C907A091CA07B091CB0759
:1021A00081600FC01130A9F488E160E00E94540EF4
:1021B0008091C8079091C907A091CA07B091CB0739
:1021C0008E7F8093C8079093C907A093CA07B093E6
:1021D000CB071F910F91089589E261E00E94360EAE
:1021E00088E261E00E94360E8BEE95E00E946B1A49
:1021F0000895FC01148A158A168A178A108E118E8A
:10220000128E138E148E158E168E178E10A211A29A
:1022100012A213A280E090E0A0E0B0E084A395A316
:10222000A6A3B7A3089510929705109219050895D3
:10223000EF92FF920F931F93DF93CF93CDB7DEB74B
:10224000EC970FB6F894DEBF0FBECDBF8C01EEEE5B
:10225000F0E065917491B5E1EB2EF12CEC0EFD1ED2
:10226000C7010E944D20E0EFF0E065917491CE012E
:1022700001960E944D20D80156968C91843009F425
:102280006DC0853048F4823069F1833008F048C071
:10229000813009F000C10AC0863009F49BC0863045
:1022A00008F47AC0873009F0F6C0B2C0EDB7FEB7C7
:1022B00074970FB6F894FEBF0FBEEDBF3196075D61
:1022C0001F4FADB7BEB712961C930E9311970952CC
:1022D000104084E690E093838283F582E48282E179
:1022E00092E0B3C08DB79EB744970FB6F8949EBFE7
:1022F0000FBE8DBFEDB7FEB73196075D1F4FADB76F
:10230000BEB712961C930E9311970952104084E6A3
:1023100090E093838283F582E48286E192E095C027
:102320008DB79EB744970FB6F8949EBF0FBE8DBF72
:10233000EDB7FEB73196075D1F4FADB7BEB712962A
:102340001C930E9311970952104084E690E09383FA
:102350008283F582E4828AE192E077C08DB79EB7EE
:1023600044970FB6F8949EBF0FBE8DBFEDB7FEB772
:102370003196075D1F4FADB7BEB712961C930E93F3
:1023800011970952104084E690E093838283F5828E
:10239000E4828EE192E059C08DB79EB744970FB6A4
:1023A000F8949EBF0FBE8DBFEDB7FEB73196075DA7
:1023B0001F4FADB7BEB712961C930E9311970952DB
:1023C000104084E690E093838283F582E48282E287
:1023D00092E03BC08DB79EB744970FB6F8949EBF6E
:1023E0000FBE8DBFEDB7FEB73196075D1F4FADB77E
:1023F000BEB712961C930E9311970952104084E6B3
:1024000090E093838283F582E48286E292E01DC0AD
:102410008DB79EB744970FB6F8949EBF0FBE8DBF81
:10242000EDB7FEB73196075D1F4FADB7BEB7129639
:102430001C930E9311970952104084E690E0938309
:102440008283F582E4828AE292E097838683D801D0
:1024500054968C9154978087118655968C915597F8
:10246000828713865A968C915A9784871586579639
:102470008C9157978687178658968C915897808BA2
:10248000118A59968C91828B138A0E945F20EDB736
:10249000FEB774961DC000D000D000D0EDB7FEB7D7
:1024A0003196075D1F4FADB7BEB712961C930E93C2
:1024B00011970952104084E690E093838283CE0105
:1024C0000196958384830E945F20EDB7FEB7369610
:1024D0000FB6F894FEBF0FBEEDBF9801275D3F4FCA
:1024E000C901EC960FB6F894DEBF0FBECDBFCF91F9
:1024F000DF911F910F91FF90EF9008951F93CF935D
:10250000DF93EC01162F8091F105882321F48BEEE7
:1025100095E00E94E81A8BEE95E068E670E00E9474
:102520005B198BEE95E0612F0E94751AC10FD11DCA
:102530008BEE95E068810E94751A8BEE95E00E9403
:10254000A41ADF91CF911F910895FF920F931F93CB
:10255000CF93DF938C01F62E8091F105882321F42F
:102560008BEE95E00E94E81A8BEE95E068E670E04D
:102570000E945B198BEE95E06F2D0E94751A8BEE11
:1025800095E00E94A41A8BEE95E068E670E041E0C9
:1025900050E00E94E51AC0E0D0E08BEE95E00E948A
:1025A0006519882329F4CA30D10511F02196F5CF99
:1025B0008BEE95E00E946B190F0D111DF8018083C1
:1025C0008BEE95E00E94A41ADF91CF911F910F919D
:1025D000FF9008950F931F938C016FE00E94A51246
:1025E000F801878583701F910F910895CF93DF9332
:1025F000EC010E94EA12882319F0CE56DF4F88833F
:10260000809115058C7F8093150586E095E06FE03D
:102610000E947E12DF91CF9108950F931F938C013A
:102620006EE00E94A512F80186858D7F8687C8011D
:102630006EE00E947E121F910F9108950F931F93D9
:102640008C016EE00E94A512F80186858E7F868738
:10265000C8016EE00E947E121F910F910895AF9203
:10266000BF92CF92DF92FF920F931F93CF93DF938E
:102670008C01F62E8091F105882321F48BEE95E0F4
:102680000E94E81A8BEE95E068E670E00E945B1904
:102690008BEE95E060E070E00E94A11A8BEE95E071
:1026A0000E94A41A8BEE95E068E670E043E150E0EA
:1026B0000E94E51AC0E0D0E0CC24DD24AF2CBB247E
:1026C0005AE0F52E0DC18BEE95E00E946519882326
:1026D00009F403C18BEE95E00E946B19282FF801D5
:1026E000EC0FFD1F8083C630D10509F482C0C730CE
:1026F000D105B8F4C230D10509F44EC0C330D105BC
:1027000038F4209769F1C130D10509F0E4C036C032
:10271000C430D10509F451C0C530D10508F05BC003
:1027200049C0CA30D10509F49BC0CB30D10558F45B
:10273000C830D10509F478C090E02F70C930D105B8
:1027400008F081C064C0CC30D10509F4A7C0CC30FA
:10275000D10508F494C0CD30D10509F0BCC0ADC09E
:1027600090E044E0959587954A95E1F78F9DC001EB
:1027700011242F70280FF801218FADC090E034E0B4
:10278000959587953A95E1F78F9DC00111242F709B
:10279000280FF801208F9FC090E0B4E095958795B1
:1027A000BA95E1F78F9DC00111242F70280FF80111
:1027B000278B91C0F801868B8EC090E0A4E09595A0
:1027C0008795AA95E1F78F9DC00111242F70280FDE
:1027D000F801228F80C090E0F4E095958795FA95F6
:1027E000E1F78F9DC00111242F70280FF801258B70
:1027F00072C090E0E4E095958795EA95E1F78F9DAA
:10280000C00111242F70280FF801248B64C074E0DC
:10281000959587957A95E1F787708F9DC001112472
:10282000280FF801238F57C090E064E095958795B5
:102830006A95E1F787708F9DC00111242F70280FD2
:10284000F801248F48C054E0959587955A95E1F793
:1028500083708F9DC0011124280FF801258F3BC084
:1028600090E044E0959587954A95E1F783708F9DB8
:10287000C00111242F70280FF801268F2CC090E082
:1028800034E0959587953A95E1F787708F9DC00163
:1028900011242F70280FF801278F1DC090E0B4E09D
:1028A00095958795BA95E1F783708F9DC0011124A6
:1028B0002F70280FF80120A30EC090E0A4E095959A
:1028C0008795AA95E1F783708F9DC00111242F7021
:1028D000280FF80121A3219603C00894C11CD11C24
:1028E000AC16BD0628F0FAE0CF16D10408F4EBCE02
:1028F000DF91CF911F910F91FF90DF90CF90BF900C
:10290000AF900895AF92BF92CF92DF92EF92FF9275
:102910000F931F93DF93CF93CDB7DEB7C857D04047
:102920000FB6F894DEBF0FBECDBF6C016AE00E9407
:102930002F1349E2A42EB12CAC0CBD1C84E6D501AA
:102940001D928A95E9F7ECECF0E0659174918E01A7
:102950000F5F1F4FC8010E944D20C501B8010E94A2
:102960005420F60182A1823009F476C0833030F41D
:10297000882371F0813009F03CC11AC0843009F419
:10298000F2C0843008F4AEC0853009F032C127C1EE
:10299000EEECF0E065917491C8010E944D20C501F4
:1029A000B8010E945420ECEDF0E0659174910FC0E5
:1029B000E0EDF0E065917491C8010E944D20C501E1
:1029C000B8010E945420ECEDF0E0659174918E0105
:1029D000075D1F4FC8010E944D208DB79EB70E970F
:1029E0000FB6F8949EBF0FBE8DBFEDB7FEB7319600
:1029F00031E5E32EF12CEC0EFD1EADB7BEB71296FD
:102A0000FC92EE92119788E290E093838283158383
:102A10000483D6015E968C915E97868317825D96BD
:102A20008C915D97808711865C968C915C978287EC
:102A300013865B968C91848715860E945F20EDB784
:102A4000FEB73E960FB6F894FEBF0FBEEDBFC501B0
:102A5000B7010E945420F3C0E2EDF0E0659174915B
:102A6000C8010E944D20C501B8010E945420EEED1E
:102A7000F0E0659174918E01075D1F4FC8010E94BF
:102A80004D208DB79EB70C970FB6F8949EBF0FBE22
:102A90008DBFEDB7FEB7319621E5E22EF12CEC0E9D
:102AA000FD1EADB7BEB71296FC92EE92119788E26A
:102AB00090E09383828315830483D6015D968C9185
:102AC0005D97868317825C968C915C9780871186D0
:102AD0005B968C91828713860E945F20EDB7FEB7CC
:102AE0003C96B0CFE4EDF0E065917491C8010E948E
:102AF0004D20C501B8010E945420E0EEF0E0659140
:102B000074918E01075D1F4FC8010E944D208DB743
:102B10009EB70A970FB6F8949EBF0FBE8DBFEDB754
:102B2000FEB7319691E5E92EF12CEC0EFD1EADB706
:102B3000BEB71296FC92EE92119788E290E09383D2
:102B4000828315830483D6015C968C915C9786837F
:102B500017825B968C91808711860E945F20EDB76B
:102B6000FEB73A966FCFE6EDF0E065917491C8013B
:102B70000E944D20C501B8010E945420E2EEF0E011
:102B8000659174918E01075D1F4FC8010E944D2011
:102B90008DB79EB708970FB6F8949EBF0FBE8DBF36
:102BA000EDB7FEB7319681E5E82EF12CEC0EFD1E57
:102BB000ADB7BEB71296FC92EE92119788E290E004
:102BC0009383828315830483D6015B968C918683DD
:102BD00017820E945F20EDB7FEB7389633CFE8ED3D
:102BE000F0E065917491C8010E944D20C501B801C3
:102BF00030CFEAEDF0E0659174918E010F5F1F4FC9
:102C0000C8010E944D2000D000D000D0EDB7FEB723
:102C10003196ADB7BEB71296BC92AE92119784E6CC
:102C200090E093838283158304830E945F20EDB735
:102C3000FEB736960FB6F894FEBF0FBEEDBFC501C6
:102C4000C858DF4F0FB6F894DEBF0FBECDBFCF918F
:102C5000DF911F910F91FF90EF90DF90CF90BF9089
:102C6000AF9008950F931F938C0166E00E942F137D
:102C7000C8010E9418111F910F9108950F931F937F
:102C8000CF93DF93EC01042F68A780E361E00E94FB
:102C9000360E18A5112379F0113091F480E361E02C
:102CA0000E94540E013019F482E08B8B09C000237E
:102CB00039F41B8B05C080E360E00E94540E1B8A30
:102CC0006AE070E080E090E00E94560DDF91CF91C5
:102CD0001F910F9108950F931F938C0161E040E0C5
:102CE0000E943E16C8010E94F612C8010E94F91007
:102CF000C8016DE00E942F138BE261E00E94360E46
:102D00008BE260E00E94540E1F910F910895809114
:102D1000F105882341F080910706882321F484E09F
:102D200095E00E94EC1008950F931F938C010E9470
:102D30008716C80160E040E00E943E161F910F9187
:102D400008958CB58F7B8CBD0895882319F48CB5BC
:102D5000806202C08CB58F7D8CBD08959CB5937F39
:102D6000982B9CBD08959CB5282F23709C7F292B00
:102D70002CBD9DB581709E7F982B9DBD08951092AE
:102D80009A051092990510929B0510929C0510923D
:102D90009D0510929E0508958EE161E00E94360E19
:102DA0008FE161E00E94360E8DE161E00E94360EF7
:102DB0008EE160E00E94540E8FE160E00E94540EAC
:102DC0008DE161E00E94540E8CB580618CBD8CB5A4
:102DD00080648CBD08951F93162F8DE161E00E94E1
:102DE000360E82E261E00E94360E8DE161E00E94C3
:102DF000540E82E261E00E94540E8091C8079091C7
:102E0000C907A091CA07B091CB07A2FF08C088E00C
:102E100061E00E94360E88E061E00E94540E8091CD
:102E2000C8079091C907A091CA07B091CB0796FF38
:102E300008C089E061E00E94360E89E061E00E94EE
:102E4000540E8091C8079091C907A091CA07B0910C
:102E5000CB07A3FF08C082E061E00E94360E82E04B
:102E600061E00E94540E8091C8079091C907A0911B
:102E7000CA07B091CB07A4FF08C082E261E00E94BC
:102E8000360E82E261E00E94540E1330C9F0143015
:102E900028F4113069F0123068F408C0153041F19F
:102EA0001530D0F0163009F062C02FC08DE12BC074
:102EB00082E229C084EA95E00E94C9178CE223C00F
:102EC0008091C8079091C907A091CA07B091CB071C
:102ED000A2FF4DC088E017C08091C8079091C90734
:102EE000A091CA07B091CB0796FF41C089E00BC003
:102EF0008091C8079091C907A091CA07B091CB07EC
:102F0000A3FF35C082E060E030C08DE161E00E9447
:102F1000540E82E261E00E94540E8091C8079091A5
:102F2000C907A091CA07B091CB07A2FF04C088E0EF
:102F300061E00E94540E8091C8079091C907A0914A
:102F4000CA07B091CB0796FF04C089E061E00E94F8
:102F5000540E8091C8079091C907A091CA07B091FB
:102F6000CB07A3FF04C082E061E00E94540E1F91D2
:102F7000089510929F05089508958FED90E00E94A6
:102F8000AD228F3F09F480E00895CB010E94AD226D
:102F9000089587E161E00E94360E84E261E00E94BC
:102FA000360E85E261E00E94360E87E161E00E9404
:102FB000540E84E261E00E94540E85E261E00E94BA
:102FC000540E08950F931F93162F042F862F61E040
:102FD0000E94360E013019F4812F61E004C00023F5
:102FE00021F4812F60E00E94540E1F910F910895EB
:102FF0002F923F924F925F926F927F928F929F9209
:10300000AF92BF92CF92DF92EF92FF920F931F93F6
:10301000DF93CF93CDB7DEB7C75FD0400FB6F8943C
:10302000DEBF0FBECDBF2DB63EB68DB79EB708979B
:103030000FB6F8949EBF0FBE8DBFADB6BEB6089456
:10304000A11CB11C7501CC24DD244E010894811C07
:10305000911CCE0180599F4FAEEF4A2EAFEF5A2EF2
:10306000480E591EF0E16F2E712C680E791EDE019C
:10307000A052BF4FC051DF4FB983A883C05FD0407B
:10308000FE013E96CE50DF4FF983E883C25FD04009
:10309000C4016DE00E944C1D84EA95E06CE040E0C4
:1030A0000E94E21784EA95E06DE040E00E94E2179A
:1030B000D7011D921D921D921C9213978CE061E026
:1030C0000E94360E8CE061E00E94540EC4010E9402
:1030D000841D84EA95E06DE041E00E94E2176AE019
:1030E00070E080E090E00E94560DC40163E340E090
:1030F0000E940C1D62E370E080E090E00E94560D9B
:103100008E0102511F4FC4010E94A41CF80180834C
:10311000118261E070E080E090E00E94560D025064
:1031200010400415150579F7F301DE0150968191E1
:1031300091918D939D93C051DF4F88819981C05F9C
:10314000D040E817F90799F7BE0162597F4F21E097
:1031500030E040E050E0DB018D919C91019779F4E3
:10316000D7018D919D910D90BC91A02D820F931F41
:10317000A41FB51FF70180839183A283B38362509C
:103180007040CE50DF4F88819981C25FD040681770
:10319000790729F0220F331F441F551FDCCFF70199
:1031A00080819181A281B3818F5F9F4FAF4FBF4FCD
:1031B00031F4D7011D921D921D921C9213978CE041
:1031C00060E00E94540E84EA95E06CE040E00E94CA
:1031D000E21784EA95E06DE040E00E94E21708946F
:1031E000C11CD11CE4E0F0E0EE0EFF1EF2E0CF16B1
:1031F000D10409F04DCFD5012D913D914D915C91B8
:10320000139714968D919D910D90BC91A02D281728
:1032100039074A075B0721F020E030E040E050E04A
:10322000B901CA010FB6F8943EBE0FBE2DBEC950FB
:10323000DF4F0FB6F894DEBF0FBECDBFCF91DF9149
:103240001F910F91FF90EF90DF90CF90BF90AF90C4
:103250009F908F907F906F905F904F903F902F90B6
:103260000895EF92FF920F931F930E94F8177B012E
:103270008C016115710581059105B1F483EE90E033
:103280000E94B5226A302AE072072AE082072AE00B
:10329000920751F06F3F2FEF72072FEF82072FEF4A
:1032A000920711F07B018C01B701C8011F910F91AA
:1032B000FF90EF90089581E08093EA056093C70541
:1032C0001092E8051092E90508958091C605909145
:1032D000C505891B08959091C5058091C60598176D
:1032E00010F080E00895E92FF0E0EB55FA4F80816F
:1032F0009F5F9093C50508951092F2051092EB051B
:103300001092EC058AEF90E0A0E0B0E08093ED052C
:103310009093EE05A093EF05B093F0050895CF9339
:10332000DF93EC018091C8079091C907A091CA076B
:10333000B091CB0784FD3CC08091C8079091C9072C
:10334000A091CA07B091CB0785FD32C08091C80714
:103350009091C907A091CA07B091CB0786FD28C0FC
:103360008091C8079091C907A091CA07B091CB0777
:1033700087FD1EC08091C8079091C907A091CA0718
:10338000B091CB0790FD14C08091C8079091C907F8
:10339000A091CA07B091CB0791FD0AC08091C807E0
:1033A0009091C907A091CA07B091CB0793FF1DC0A8
:1033B0008091F205882339F484E095E060E041E0F3
:1033C0000E9490100CC08981882331F484E095E03C
:1033D00060E041E00E9490108881882331F484E00D
:1033E00095E061E041E00E949010DF91CF91089557
:1033F000FC018091C8079091C907A091CA07B091BC
:10340000CB0781709070A070B07080838091C807E6
:103410009091C907A091CA07B091CB07B695A7951F
:1034200097958795817081838091C8079091C9078E
:10343000A091CA07B091CB0784FD3CC08091C8071A
:103440009091C907A091CA07B091CB0785FD32C002
:103450008091C8079091C907A091CA07B091CB0786
:1034600086FD28C08091C8079091C907A091CA071E
:10347000B091CB0787FD1EC08091C8079091C90706
:10348000A091CA07B091CB0790FD14C08091C807E6
:103490009091C907A091CA07B091CB0791FD0AC0CE
:1034A0008091C8079091C907A091CA07B091CB0736
:1034B00093FF10C08091F205882361F484E095E0C9
:1034C00060E040E00E94901084E095E061E040E020
:1034D0000E94901008950F931F938C010E94A009E1
:1034E000F80116821F910F910895DF93CF930F92E9
:1034F000CDB7DEB769838091EA05882389F0809192
:10350000E9058032D0F48091E805E82FF0E0E85337
:10351000FA4F60838F5F8093E8058093E9050DC0C3
:103520008BEE95E00E94F819CE01019661E00E94B1
:1035300085098BEE95E00E948F190F90CF91DF9156
:1035400008950E94751A0895FF920F931F930BEE32
:1035500015E0C8010E94F8198091C70568EC75E074
:103560004091E90521E00E94C50BF82E1092E80574
:103570001092E9051092EA05C8010E948F198F2D5B
:103580001F910F91FF900895FF920F931F93F62EB6
:10359000142F8BEE95E00E94F819012F113208F0DC
:1035A00000E28F2D65EA75E0402F0E942A0C182F4B
:1035B0001092C5050093C6058BEE95E00E948F1909
:1035C000812F1F910F91FF9008950E94C41A0895B2
:1035D0000F931F938C0180E2E5EAF5E0DF01982F5D
:1035E0001D929A95E9F71092C5051092C605E8EC70
:1035F000F5E0DF011D928A95E9F71092E805109237
:10360000E9050E94F70981E0F801868384E090E0F3
:103610000E94800D1F910F9108951F920F920FB677
:103620000F920BB60F9211242F933F934F935F93FA
:103630006F937F938F939F93AF93BF93EF93FF937A
:103640008091F3059091F405892B29F0E091F30521
:10365000F091F4050995FF91EF91BF91AF919F9182
:103660008F917F916F915F914F913F912F910F902B
:103670000BBE0F900FBE0F901F9018951F920F92C8
:103680000FB60F920BB60F9211242F933F934F93C7
:103690005F936F937F938F939F93AF93BF93EF93BA
:1036A000FF938091F5059091F605892B29F0E09123
:1036B000F505F091F6050995FF91EF91BF91AF9156
:1036C0009F918F917F916F915F914F913F912F913A
:1036D0000F900BBE0F900FBE0F901F9018951F926A
:1036E0000F920FB60F920BB60F9211242F933F93A8
:1036F0004F935F936F937F938F939F93AF93BF93FA
:10370000EF93FF938091F7059091F805892B29F0AD
:10371000E091F705F091F8050995FF91EF91BF91C0
:10372000AF919F918F917F916F915F914F913F9159
:103730002F910F900BBE0F900FBE0F901F901895FA
:103740001F920F920FB60F920BB60F9211242F9368
:103750003F934F935F936F937F938F939F93AF9319
:10376000BF93EF93FF938091F9059091FA05892B10
:1037700029F0E091F905F091FA050995FF91EF9193
:10378000BF91AF919F918F917F916F915F914F9179
:103790003F912F910F900BBE0F900FBE0F901F9077
:1037A00018951F920F920FB60F920BB60F9211241D
:1037B0002F933F934F935F936F937F938F939F9339
:1037C000AF93BF93EF93FF938091FB059091FC051E
:1037D000892B29F0E091FB05F091FC050995FF91FB
:1037E000EF91BF91AF919F918F917F916F915F9179
:1037F0004F913F912F910F900BBE0F900FBE0F90E6
:103800001F9018951F920F920FB60F920BB60F9242
:1038100011242F933F934F935F936F937F938F93D5
:103820009F93AF93BF93EF93FF938091FD0590918A
:10383000FE05892B29F0E091FD05F091FE05099523
:10384000FF91EF91BF91AF919F918F917F916F9178
:103850005F914F913F912F910F900BBE0F900FBE34
:103860000F901F9018951F920F920FB60F920BB6E4
:103870000F9211242F933F934F935F936F937F93F6
:103880008F939F93AF93BF93EF93FF938091FF0527
:1038900090910006892B29F0E091FF05F091000638
:1038A0000995FF91EF91BF91AF919F918F917F917A
:1038B0006F915F914F913F912F910F900BBE0F90A1
:1038C0000FBE0F901F9018951F920F920FB60F9278
:1038D0000BB60F9211242F933F934F935F936F93E7
:1038E0007F938F939F93AF93BF93EF93FF938091B9
:1038F000010690910206892B29F0E0910106F091D2
:1039000002060995FF91EF91BF91AF919F918F9121
:103910007F916F915F914F913F912F910F900BBECF
:103920000F900FBE0F901F9018951092080682E01E
:10393000809304068CE18093090680EC91E09093DB
:103940000B0680930A060895DF92EF92FF920F9381
:103950001F93FC01E08001811281F894F8018181BC
:103960008E2981838281DE2CD0948D21828382E016
:1039700090E00E94800DF80181818D21818387E094
:1039800090E00E94800DF801008178948DE290E033
:103990000E94800D80E010E0FF240E211F21012BEA
:1039A00009F081E01F910F91FF90EF90DF90089553
:1039B0001F93CF93DF93FC011081C181D281912F9E
:1039C000909560FF12C0F8948A8189238A83898147
:1039D000812B898389E090E00E94800D8A81812B70
:1039E0008A8378948FE290E011C0F8948A818923C9
:1039F0008A838981812B898387E390E00E94800DEF
:103A00008A81812B8A83789485E090E00E94800DE2
:103A1000DF91CF911F910895CF92DF92EF92FF92A5
:103A20000F931F93CF93DF938C01E42EFF24F39425
:103A3000C0E0D0E0C62EDD2460E08F2D90E08C2128
:103A40009D21892B09F061E0C8010E94D81CFF0C60
:103A50002196C830D10581F7EE20A9F4F894D80159
:103A60001196ED91FC91129791818C9180959823FC
:103A700091831196ED91FC91129792818C91809592
:103A8000982392837894DF91CF911F910F91FF90AB
:103A9000EF90DF90CF9008950F931F938C01862FA6
:103AA000D8011E966C9360E00E94360ED8011E96D7
:103AB000EC911E978E2F90E0FC01EB5AFC4FE491A5
:103AC000EC938E5D9C4FFC018491E82FF0E0E65E64
:103AD000FC4FE4911196EC93119712961C92129759
:103AE0001B961C921B971D961C921D971C961C9250
:103AF000F80187E090E012863197009711F0019766
:103B0000FACF1F910F910895CF92DF92EF92FF921B
:103B10000F931F93CF93DF93EC018E8560E00E949B
:103B2000360E0E94C00C7B018C018DE7D82EDA94F2
:103B30002FEFD21609F441C082E090E00E94800D80
:103B40000E94C00C6E157F058007910720F40E942B
:103B5000C00C7B018C018E850E949F0E892BB9F5CC
:103B60000E94C00C6E197F09800B910B645F71403D
:103B70008040904060F5DBCF0E94C00C7B018C013F
:103B8000CD28D1F10E94C00C6E197F09800B910BDA
:103B9000645F71408040904080F48E850E949F0E4B
:103BA0006C0189E090E00E94800D0E94C00C6E15AF
:103BB0007F058007910720F7DFCF80E0DF91CF916D
:103BC0001F910F91FF90EF90DF90CF9008958E8519
:103BD00061E00E94360E8E8560E00E94540E84E5FE
:103BE00091E00E94800D0E94C00C7B018C018E85AB
:103BF0000E949F0E892B31F681E0E0CF10921E06C5
:103C0000109225061092270689E18093AA07109248
:103C1000AD071092AE071092B0071092A407109251
:103C2000A307089598D088F09F5790F0B92F99274F
:103C3000B751A0F0D1F0660F771F881F991F1AF0B7
:103C4000BA95C9F712C0B13081F09FD0B1E00895A4
:103C50009CC0672F782F8827B85F39F0B93FCCF325
:103C6000869577956795B395D9F73EF490958095AD
:103C7000709561957F4F8F4F9F4F0895E89409C0CD
:103C800097FB3EF490958095709561957F4F8F4F8F
:103C90009F4F9923A9F0F92F96E9BB279395F695A5
:103CA000879577956795B795F111F8CFFAF4BB0F23
:103CB00011F460FF1BC06F5F7F4F8F4F9F4F16C087
:103CC000882311F096E911C0772321F09EE8872F11
:103CD000762F05C0662371F096E8862F70E060E0CD
:103CE0002AF09A95660F771F881FDAF7880F969546
:103CF000879597F9089597F99F6780E870E060E0ED
:103D000008959FEF80EC089500240A941616170674
:103D100018060906089500240A94121613061406BC
:103D200005060895092E0394000C11F4882352F01F
:103D3000BB0F40F4BF2B11F460FF04C06F5F7F4FD7
:103D40008F4F9F4F089557FD9058440F551F59F0BE
:103D50005F3F71F04795880F97FB991F61F09F3F78
:103D600079F087950895121613061406551FF2CFA1
:103D70004695F1DF08C0161617061806991FF1CFF1
:103D800086957105610508940895E894BB27662718
:103D90007727CB0197F908950BD0C4CFB5DF28F072
:103DA000BADF18F0952309F0A6CFABCF1124EECFE0
:103DB000CADFA0F3959FD1F3950F50E0551F629F86
:103DC000F001729FBB27F00DB11D639FAA27F00D74
:103DD000B11DAA1F649F6627B00DA11D661F829F9B
:103DE0002227B00DA11D621F739FB00DA11D621F80
:103DF000839FA00D611D221F749F3327A00D611D9D
:103E0000231F849F600D211D822F762F6A2F11247E
:103E10009F5750408AF0E1F088234AF0EE0FFF1FD1
:103E2000BB1F661F771F881F91505040A9F79E3F08
:103E3000510570F060CFAACF5F3FECF3983EDCF302
:103E4000869577956795B795F795E7959F5FC1F745
:103E5000FE2B880F911D9695879597F90895629F7F
:103E6000D001739FF001829FE00DF11D649FE00D72
:103E7000F11D929FF00D839FF00D749FF00D659FD3
:103E8000F00D9927729FB00DE11DF91F639FB00DD2
:103E9000E11DF91FBD01CF0111240895AA1BBB1B11
:103EA00051E107C0AA1FBB1FA617B70710F0A61B3A
:103EB000B70B881F991F5A95A9F780959095BC015B
:103EC000CD01089597FB092E07260AD077FD04D06F
:103ED000E5DF06D000201AF4709561957F4F0895B4
:103EE000F6F7909581959F4F0895A1E21A2EAA1B8F
:103EF000BB1BFD010DC0AA1FBB1FEE1FFF1FA2179A
:103F0000B307E407F50720F0A21BB30BE40BF50B96
:103F1000661F771F881F991F1A9469F7609570951F
:103F2000809590959B01AC01BD01CF01089597FB51
:103F3000092E05260ED057FD04D0D7DF0AD0001C6D
:103F400038F450954095309521953F4F4F4F5F4F36
:103F50000895F6F790958095709561957F4F8F4FF6
:103F60009F4F08952F923F924F925F926F927F9250
:103F70008F929F92AF92BF92CF92DF92EF92FF9279
:103F80000F931F93CF93DF93CDB7DEB7CA1BDB0B25
:103F90000FB6F894DEBF0FBECDBF09942A883988CA
:103FA00048885F846E847D848C849B84AA84B984D1
:103FB000C884DF80EE80FD800C811B81AA81B981DD
:103FC000CE0FD11D0FB6F894DEBF0FBECDBFED01F1
:103FD0000895EE0FFF1F0590F491E02D0994AF9224
:103FE000BF92CF92DF92EF92FF920F931F93CF93E6
:103FF000DF93EC01688179818A819B81611571056C
:104000008105910521F464E279ED8BE597E02DE1DE
:1040100033EF41E050E00E94971F79018A0127EABF
:1040200031E440E050E00E942F1F5B016C01C801A9
:10403000B7012CEE34EF4FEF5FEF0E942F1F6A0D98
:104040007B1D8C1D9D1D97FF04C0615070408040FA
:104050009048688379838A839B837F77CB01DF9144
:10406000CF911F910F91FF90EF90DF90CF90BF9075
:10407000AF9008950E94EF1F089585E393E00E949A
:10408000EF1F0895A0E0B0E08093350390933603CE
:10409000A0933703B09338030895FB01DC0105902A
:1040A0000D920020E1F70895FB01DC010D90002046
:1040B000E9F7119701900D920020E1F708950F9311
:1040C0001F93DF93CF93CDB7DEB72E970FB6F8943B
:1040D000DEBF0FBECDBF0D891E898F89988D26E06A
:1040E0002C831A83098397FF02C080E090E8019730
:1040F0009E838D839E01255E3F4FCE010196698D83
:104100007A8DA9010E949D204D815E8157FD0AC0D4
:104110002F813885421753070CF49A01020F131FA1
:10412000F80110822E960FB6F894DEBF0FBECDBFF9
:10413000CF91DF911F910F9108952F923F924F924F
:104140005F926F927F928F929F92AF92BF92CF9227
:10415000DF92EF92FF920F931F93DF93CF93CDB730
:10416000DEB72C970FB6F894DEBF0FBECDBF6C0143
:104170001B018A01FC0117821682838181FFD1C154
:104180002E010894411C511CF6019381F10193FD0D
:10419000859193FF81911F01882309F4BEC1853267
:1041A00039F493FD859193FF81911F01853229F4A4
:1041B00090E0B6010E94DF22E7CFEE24FF2420E04A
:1041C0002032B0F48B3269F08C3228F4803251F016
:1041D000833271F40BC08D3239F0803349F42160A1
:1041E0002CC02260246029C0286027C0206125C01F
:1041F00027FD2CC0382F30533A3098F426FF08C0E2
:104200008E2D880FE82EEE0CEE0CE80EE30E15C096
:104210008F2D880FF82EFF0CFF0CF80EF30E206286
:104220000CC08E3221F426FD78C1206406C08C3685
:1042300011F4206802C0883649F4F10193FD85919C
:1042400093FF81911F01882309F0BACF982F9554CD
:10425000933018F09052933028F40C5F1F4FFFE317
:10426000F9830DC0833631F0833771F0833509F05F
:1042700060C022C0F801808189830E5F1F4F420118
:1042800071E0A72EB12C16C062E0662E712C600E74
:10429000711EF8018080918026FF03C06E2D70E0B2
:1042A00002C06FEF7FEFC4012C870E94D4225C0113
:1042B00083012C852F7717C052E0652E712C600E7C
:1042C000711EF8018080918026FF03C06E2D70E082
:1042D00002C06FEF7FEFC4012C870E94C9225C01EE
:1042E0002C852068830123FD20C008C080E290E077
:1042F000B6012C870E94DF22FA942C858F2D90E046
:10430000A816B90698F311C0F40127FD859127FF7F
:1043100081914F0190E0B6012C870E94DF222C850D
:10432000F110FA940894A108B108A114B10461F73E
:10433000F1C0843611F0893649F527FF08C0F8012D
:1043400060817181828193810C5F1F4F09C0F801E8
:1043500060817181882777FD8095982F0E5F1F4FB0
:104360004FE6B42EB22297FF09C0909580957095C4
:1043700061957F4F8F4F9F4FF0E8BF2AA2012AE03F
:1043800030E00E940B23782E741845C0853731F435
:104390003FEEB32EB2222AE030E025C099EFB92ECD
:1043A000B2228F36C1F0803720F4883509F0B5C0CD
:1043B0000DC0803721F0883709F0AFC002C020E17E
:1043C000B22AB4FE0BC084E0B82A08C0B4FE09C00B
:1043D000E6E0BE2A06C028E030E005C020E130E07B
:1043E00002C020E132E0B7FE08C0F80160817181AF
:1043F000828193810C5F1F4F07C0F801608171813A
:1044000080E090E00E5F1F4FA2010E940B23782EE8
:104410007418FFE7BF22B6FE0BC02EEFB2227E1447
:1044200038F4B4FE07C0B2FC05C08FEEB82202C05B
:10443000A72C01C0AE2C8B2D90E0B4FE0DC0FE0168
:10444000E70DF11D2081203319F4E9EEBE2209C0E9
:10445000A394B2FE06C004C086789070009709F05D
:10446000A3948B2C9924B3FC14C0B0FE0FC0AF14DE
:1044700028F4E72CEF0CEA18AF2C08C0E72C06C094
:1044800080E290E0B6010E94DF22A394AF14C0F353
:1044900004C0AF1410F4FA1801C0FF2484FE0FC04A
:1044A00080E390E0B6010E94DF2282FE1FC081FE01
:1044B00003C088E590E010C088E790E00DC0C4011B
:1044C00086789070009791F081FC02C080E201C074
:1044D0008BE2B7FC8DE290E0B6010E94DF2206C0BD
:1044E00080E390E0B6010E94DF22EA947E14C0F3DC
:1044F0007A94F201E70DF11D808190E0B6010E94EF
:10450000DF227720A9F706C080E290E0B6010E9482
:10451000DF22FA94FF20C1F737CEF60126813781DA
:1045200002C02FEF3FEFC9012C960FB6F894DEBF03
:104530000FBECDBFCF91DF911F910F91FF90EF90F4
:10454000DF90CF90BF90AF909F908F907F906F90B3
:104550005F904F903F902F900895F999FECF92BDB4
:1045600081BDF89A992780B50895A6E1B0E044E0AE
:1045700050E00C946B23262FF999FECF1FBA92BD01
:1045800081BD20BD0FB6F894FA9AF99A0FBE019634
:104590000895FC010590615070400110D8F7809596
:1045A00090958E0F9F1F0895FC01615070400190FF
:1045B0000110D8F7809590958E0F9F1F08950F9347
:1045C0001F93CF93DF938C01EB018B8181FF1BC085
:1045D00082FF0DC02E813F818C819D812817390774
:1045E00064F4E881F9810193F983E88306C0E885E2
:1045F000F985802F0995009731F48E819F8101966E
:104600009F838E8302C00FEF1FEFC801DF91CF9110
:104610001F910F910895FA01AA27283051F12031F6
:1046200081F1E8946F936E7F6E5F7F4F8F4F9F4F46
:10463000AF4FB1E03ED0B4E03CD0670F781F891F88
:104640009A1FA11D680F791F8A1F911DA11D6A0F56
:10465000711D811D911DA11D20D009F468943F9109
:104660002AE0269F11243019305D3193DEF6CF0108
:104670000895462F4770405D4193B3E00FD0C9F7CE
:10468000F6CF462F4F70405D4A3318F0495D31FD3B
:104690004052419302D0A9F7EACFB4E0A69597958E
:1046A000879577956795BA95C9F700976105710564
:1046B00008959B01AC010A2E0694579547953795AE
:1046C0002795BA95C9F7620F731F841F951FA01D08
:1046D0000895DC01CB01FC01F999FECF06C0F2BDC3
:1046E000E1BDF89A319600B40D9241505040B8F7B0
:0646F0000895F894FFCFCD
:1046F600496E76616C696420474D542076616C750D
:10470600650053756E004D6F6E00547565005765F4
:1047160064005468750046726900536174003A3A41
:104726003A3A3A3A0000010202030303030404047E
:104736000404040404050505050505050505050528
:104746000505050505060606060606060606060608
:1047560006060606060606060606060606060606F3
:1047660006060606060707070707070707070707D8
:1047760007070707070707070707070707070707C3
:1047860007070707070707070707070707070707B3
:1047960007070707070707070707070707070707A3
:1047A6000707070707080808080808080808080888
:1047B6000808080808080808080808080808080873
:1047C6000808080808080808080808080808080863
:1047D6000808080808080808080808080808080853
:1047E6000808080808080808080808080808080843
:1047F6000808080808080808080808080808080833
:104806000808080808080808080808080808080822
:104816000808080808080808080808080808080812
:104826000808080808010000000F00100011001217
:0E4836000013001400020008000A000900012F
:00000001FF
