:100000000C9422040C94B42E0C94E52E0C94162F10
:100010000C94472F0C94782F0C94A92F0C94DA2F62
:100020000C940B300C944A040C944A040C944A042B
:100030000C94E31C0C944A040C944A040C94451B45
:100040000C944A040C944A040C944A040C944A04F8
:100050000C944A040C944A040C944A040C94201BFB
:100060000C944A040C94421E0C944A040C944A04C6
:100070000C944A040C944A040C944A040C944A04C8
:100080000C944A040C944A040C944A040C944A04B8
:100090000C94831E0C944A040C944A040C941A1970
:1000A0000C944A040C944A040C944A040C944A0498
:1000B0000C944A040C944A040C944A040C944A0488
:1000C0000C944A040C944A040C944A040763423684
:1000D000B79BD8A71A39685618AEBAAB558C1D3CD9
:1000E000B7CC5763BD6DEDFD753EF6177231BF009D
:1000F0000000803F08000000BE922449123EABAAD7
:10010000AA2ABECDCCCC4C3E00000080BEABAAAA31
:10011000AA3E00000000BF000000803F0000000079
:1001200000084178D3BB4387D1133D190E3CC3BDB2
:100130004282AD2B3E68EC8276BED98FE1A93E4C5F
:1001400080EFFFBE01C4FF7F3F0000000000446558
:1001500076696365206E6F7420666F756E643A20F1
:10016000004E4F5420436F6E6E65637465640044A7
:100170006973636F6E6E65637465642E004C6967A6
:10018000687420696E74656E73697479206D656139
:10019000737572656D656E742070757420746F2050
:1001A000736C656570004661696C65642073756287
:1001B0007363726962696E672E004E6F7469666957
:1001C000636174696F6E2072656365697665642E1C
:1001D0000057616974696E67206576656E74732E69
:1001E0002E2E0052656164696E67206174747269B5
:1001F000627574652E2E20004C6967687420696EE4
:1002000074656E73697479206D6561737572656D5F
:10021000656E7420696E2070726F67726573732EDD
:100220002E0057726974696E672061747472696216
:100230007574652E2E200054656D7065726174753D
:100240007265206D6561737572656D656E74207081
:10025000757420746F20736C656570004661696CFD
:100260006564207375627363726962696E672E00DC
:100270004E6F74696669636174696F6E207265633D
:1002800065697665642E0057616974696E672065DB
:1002900076656E74732E2E2E0052656164696E67EA
:1002A000206174747269627574652E2E2000546525
:1002B0006D7065726174757265206D6561737572BC
:1002C000656D656E7420696E2070726F67726573FC
:1002D000732E2E0057726974696E67206174747290
:1002E00069627574652E2E2000417474726962759E
:1002F00074652056616C756520284153434949292E
:100300003A20004174747269627574652056616C9C
:1003100075653A200052656164696E672061747486
:100320007269627574652E2E200044657669636576
:1003300020666F756E642E20436F6E6E6563746900
:100340006E672E2E2E2000466972737420736361CF
:100350006E20666F722064657669636500424C4565
:100360005F3037204578616D706C6500A403AD0384
:10037000BB03E003F4030104150429049004C4043E
:10038000DC04E704F80409051C052905424C452056
:100390006D6F64756C65206E6F7420646574656341
:1003A000746564003030303030373043005363615F
:1003B0006E20706172616D733A20003125303278A1
:1003C0002530327825303278253032782530327831
:1003D000253032783B2025643B2025753B0D0A00F3
:1003E000443A2578257825782578257825783B2086
:1003F00025642C003B20496E6465783D25750D0A07
:100400000053746F70206661696C2E206572723AB9
:100410002025780A005363616E206661696C2E2086
:100420006572723A2025780A005363616E2070610C
:1004300072616D733A20474150206D6F64653D25B0
:10044000753B207363616E5F696E74657276616C73
:100450003D25753A207363616E5F77696E646F77CF
:100460003D25753B207363616E5F6475706C6963D5
:100470006174655F66696C746572696E673D257548
:100480003B205458506F7765723D25753B0D0A002F
:100490004465766963652025753B202530327825D3
:1004A0003032782530327825303278253032782550
:1004B0003032783B20525353493A25643B204E61F9
:1004C0006D653A006572726F722077726974696E39
:1004D000672E206572723A2025780A00092065632C
:1004E0003A2025780D0A0041444376616C2848453E
:1004F00058293A25780D0A0041444376616C284416
:100500004543293A25640D0A0041444356616C6D08
:100510005628444543293A25730D0A00546128445E
:100520004543293A25730D0A004174747269627556
:10053000746520257520496E646963617465642162
:100540000D0A00BA05CE05F4051B063B06530661ED
:1005500006710686069C06AD06B906C006DD06FBDA
:100560000611071F072F075207580757726F6E674C
:100570002074696D6520666F726D61742E204D75F3
:100580007374206265202264643A68683A6D6D2253
:100590000057726F6E672074696D6520666F726DAB
:1005A00061742E204D757374206265202264643A54
:1005B00068683A6D6D3A73732200416C61726D2008
:1005C0004D6F6465206D61746368657320005B44E2
:1005D0006179203A20686F757273203A206D696ED8
:1005E00075746573203A207365636F6E64735D2064
:1005F0002D3E20005B44617465203A20686F75725F
:1006000073203A206D696E75746573203A207365A6
:10061000636F6E64735D202D3E20005B486F7572C2
:1006200073203A206D696E75746573203A20736586
:10063000636F6E64735D202D3E20005B4D696E75A7
:10064000746573203A207365636F6E64735D202D4B
:100650003E20005B5365636F6E64735D202D3E200A
:10066000004F6E636520706572207365636F6E6402
:1006700000496E636F727265637420616C61726DA4
:10068000206D6F6465005B253032753A2530327518
:100690003A253032753A253032755D005B253032AF
:1006A000753A253032753A253032755D005B25305C
:1006B00032753A253032755D005B253032755D004C
:1006C0005B446179203A20686F757273203A206D1F
:1006D000696E75746573205D202D3E20005B44615A
:1006E0007465203A20686F757273203A206D696EC8
:1006F00075746573205D202D3E20005B486F757218
:1007000073203A206D696E757465735D202D3E20EF
:10071000005B4D696E757465735D202D3E20004F42
:100720006E636520706572206D696E757465002555
:10073000732C20253032752F253032752F2530321D
:10074000752C20253032753A253032753A253032F5
:1007500075006572726F7200253032752563253021
:100760003275256325303275256325303275256352
:100770002530327525632530327525632530327575
:1007800000002124272A2D3033002225282B2E314A
:100790003400202326292C2F3205050505030303E9
:1007A0000301010104040306060606060606060107
:1007B0000405010501030202020202020102020510
:1007C00005040403040401030407070701020810D9
:1007D000102040800408102040020204081020402D
:1007E0008001028020400420010102040810200141
:1007F00040804080010208040880041004020100C7
:1008000000080900000000000000000000000000D7
:1008100000000000000000000000000000000000D8
:1008200000000000000000000000000000000000C8
:100830000000990FCC2178277228FE2A232D3C3006
:10084000A5310F3211241FBECFEFD1E2DEBFCDBFE5
:1008500013E0A0E0B2E0E4E2F4E702C005900D92FC
:10086000A03FB107D9F71CE0A0EFB3E001C01D9293
:10087000A938B107E1F718E0C4E4D8E004C0229732
:10088000FE010E945B36C233D107C9F70E94902057
:100890000C94103A0C940000EF92FF920F93DF93A8
:1008A000CF93CDB7DEB760970FB6F894DEBF0FBE1B
:1008B000CDBFA82F002309F461C07E010894E11C7C
:1008C000F11C88E0F70111928A95E9F729833A83B0
:1008D0004B835C836D837E83AF83988780E2801B2C
:1008E000E82FFF27E7FDF09549815A816B817C81D4
:1008F000181684F019861A861B861C868827992765
:100900008E1B9F0B04C0440F551F661F771F8A95CF
:10091000D2F728C0202F332727FD3095DB01CA01ED
:10092000022E04C0880F991FAA1FBB1F0A94D2F77A
:1009300089879A87AB87BC8704C07695679557955A
:100940004795EA95D2F78D819E81AF81B88504C025
:10095000880F991FAA1FBB1F2A95D2F7482B592B26
:100960006A2B7B2B4D875E876F87788B29853A852D
:100970004B855C856D857E85AF8598898A2F6096CD
:100980000FB6F894DEBF0FBECDBFCF91DF910F91B0
:10099000FF90EF900895AEE5B0E0E1EDF4E00C9447
:1009A0002236A8E04E010894811C911CF4016A2EA5
:1009B00011926A94E9F729833A834B835C836D83B0
:1009C0007E838F839887CE010996FC011192AA95A8
:1009D000E9F7A986BA86CB86DC86ED86FE860F8788
:1009E000188B29843A844B845C84ED84FE840F85C3
:1009F000188969807A808B809C806DA67EA68FA6E0
:100A000098AA6D807E808F809884E114F10401059E
:100A1000110509F0B3C3621473048404950408F04B
:100A20003DC100E0201600E0300601E0400600E095
:100A3000500688F41FEF211631044104510439F0A7
:100A400030F048E0E42EF12C012D112D18C0EE24D9
:100A5000FF24870114C020E0221620E0320620E0A7
:100A6000420621E0520630F038E1E32EF12C012D50
:100A7000112D05C020E1E22EF12C012D112DD20106
:100A8000C1010E2C04C0B695A795979587950A9439
:100A9000D2F785529D4FDC012C9180E290E0A0E0DE
:100AA000B0E08E199F09A00BB10B7C018D01E21AF9
:100AB000F10801091109E114F10401051105A1F181
:100AC0000E2C04C0220C331C441C551C0A94D2F773
:100AD000A40193010E2C04C0220F331F441F551F85
:100AE0000A94D2F780E290E08E199F096DA47EA44B
:100AF0008FA498A804C096948794779467948A9555
:100B0000D2F7622A732A842A952AADA4BEA4CFA460
:100B1000D8A804C0AA0CBB1CCC1CDD1CEA94D2F7DC
:100B2000ADA6BEA6CFA6D8AA6201EE24FF24CDAA08
:100B3000DEAAEFAAF8AE920181012070307009AFF1
:100B40001AAF2BAF3CAFC401B301A70196010E94BD
:100B5000E5357B018C01C401B3012DA93EA94FA944
:100B600058AD0E94E535C901DA013C014D01C401CF
:100B7000B30129AD3AAD4BAD5CAD0E949F359B01F1
:100B8000AC018701FF24EE24ADA4BEA4CFA4D8A855
:100B9000C601AA27BB2757016801A82AB92ACA2A71
:100BA000DB2AA216B306C406D506E0F40894610851
:100BB000710881089108A20CB31CC41CD51CA21496
:100BC000B304C404D50470F0A216B306C406D50657
:100BD00048F408946108710881089108A20CB31CBC
:100BE000C41CD51CA21AB30AC40AD50AC601B50191
:100BF0002DA93EA94FA958AD0E94E5357B018C0176
:100C0000C601B5012DA93EA94FA958AD0E94E535F1
:100C1000C901DA015C016D01C601B50129AD3AAD2A
:100C20004BAD5CAD0E949F359B01AC018701FF2459
:100C3000EE248DA59EA5AFA5B8A9A070B070E82A36
:100C4000F92A0A2B1B2BE216F30604071507C0F43A
:100C50000894A108B108C108D108E20CF31C041DD6
:100C6000151DE214F3040405150550F0E216F30611
:100C70000407150728F40894A108B108C108D10891
:100C8000D3019927882786017501E82AF92A0A2BBA
:100C90001B2BE9AAFAAA0BAB1CABCFC4211431045D
:100CA0004104510471F461E070E080E090E020E0E4
:100CB00030E040E050E00E94E535C901DA011C0156
:100CC0002D0100E0201600E0300601E0400600E0C3
:100CD000500688F41FEF211631044104510431F00D
:100CE00028F048E050E060E070E017C040E050E0DD
:100CF00060E070E012C020E0221620E0320620E022
:100D0000420621E0520628F048E150E060E070E041
:100D100004C040E150E060E070E0D201C101042E67
:100D200004C0B695A795979587950A94D2F78552F2
:100D30009D4FDC012C91E0E2EE2EF12C012D112DC6
:100D4000D801C701841B950BA60BB70B821B910919
:100D5000A109B1090097A105B10561F4640153012E
:100D6000A218B308C408D50831E0632E712C812C79
:100D7000912C1EC16F968FAF6F97082E04C0220C66
:100D8000331C441C551C0A94D2F7EE2DE81B640159
:100D900053010E2E04C0D694C794B794A7940A9416
:100DA000D2F7A40193016F960FAC6F9704C0220F86
:100DB000331F441F551F0A94D2F76DA47EA48FA43D
:100DC00098A80E2E04C096948794779467940A94FA
:100DD000D2F784017301E22AF32A042B152BE9A62A
:100DE000FAA60BA71CA7320188249924920181013D
:100DF0002070307021960CAF1DAF2EAF3FAF219702
:100E0000C601B501A40193010E94E5357B018C0167
:100E1000C601B501A40193010E94E535C901DA01BB
:100E200025968CAF9DAFAEAFBFAF2597BC01CD016E
:100E300021962CAD3DAD4EAD5FAD21970E949F3503
:100E40009B01AC018701FF24EE24A9A4BAA4CBA482
:100E5000DCA4C601AA27BB275C016D01AE28BF2810
:100E6000C02AD12AA216B306C406D50660F5259677
:100E70006CAD7DAD8EAD9FAD2597615070408040CB
:100E8000904025966CAF7DAF8EAF9FAF2597A20C9B
:100E9000B31CC41CD51CA214B304C404D50498F01C
:100EA000A216B306C406D50670F4615070408040A7
:100EB000904025966CAF7DAF8EAF9FAF2597A20C6B
:100EC000B31CC41CD51CA21AB30AC40AD50AC60195
:100ED000B501A40193010E94E5357B018C01C60197
:100EE000B501A40193010E94E535C901DA013C0175
:100EF0004D01C401B30121962CAD3DAD4EAD5FADAA
:100F000021970E949F359B01AC018701FF24EE24AD
:100F100089A59AA5ABA5BCA5A070B07057016801C2
:100F2000A82AB92ACA2ADB2AA216B306C406D506FD
:100F3000E0F408946108710881089108A20CB31CC0
:100F4000C41CD51CA214B304C404D50470F0A216AA
:100F5000B306C406D50648F40894610871088108F0
:100F60009108A20CB31CC41CD51C8DA59EA5AFA5D1
:100F7000B8A96F960FAC6F9704C0880F991FAA1F6E
:100F8000BB1F0A94D2F78DA79EA7AFA7B8ABA21A32
:100F9000B30AC40AD50A2596ECACFDAC0EAD1FAD64
:100FA0002597D70199278827682A792A8A2A9B2A90
:100FB00082012227332729960CAF1DAF2EAF3FAFFA
:100FC0002997A2019101407050702D962CAF3DAF32
:100FD0004EAF5FAF2D97C601B50129962CAD3DAD43
:100FE0004EAD5FAD29970E94E5357B018C01C601AE
:100FF000B50129962CAD3DAD4EAD5FAD29970E9450
:10100000E535C901DA0161968CAF9DAFAEAFBFAFD8
:101010006197BC01CD012D962CAD3DAD4EAD5FADC0
:101020002D970E949F359B01AC018701FF24EE2480
:10103000ADA4BEA4CFA4D8A8C601AA27BB27570138
:101040006801A82AB92ACA2ADB2AA216B306C4064E
:10105000D50660F561966CAD7DAD8EAD9FAD6197A7
:10106000615070408040904061966CAF7DAF8EAF14
:101070009FAF6197A20CB31CC41CD51CA214B3046F
:10108000C404D50498F0A216B306C406D50670F4BD
:10109000615070408040904061966CAF7DAF8EAFE4
:1010A0009FAF6197A20CB31CC41CD51CA21AB30A33
:1010B000C40AD50AC601B50129962CAD3DAD4EAD89
:1010C0005FAD29970E94E5357B018C01C601B50112
:1010D00029962CAD3DAD4EAD5FAD29970E94E5350B
:1010E000C901DA015C016D01C601B5012D962CAD77
:1010F0003DAD4EAD5FAD2D970E949F359B01AC017C
:101100008701FF24EE248DA59EA5AFA5B8A9A070E8
:10111000B070E82AF92A0A2B1B2BE216F306040703
:101120001507C0F40894A108B108C108D108E20C61
:10113000F31C041D151DE214F3040405150550F0FD
:10114000E216F3060407150728F40894A108B1086D
:10115000C108D1086196ECACFDAC0EAD1FAD619736
:10116000D7019927882796018501082B192B2A2B4F
:101170003B2B09AB1AAB2BAB3CAB62C26E147F04AA
:101180008006910608F451C220E0E21620E0F20643
:1011900021E0020720E0120788F43FEFE316F10494
:1011A0000105110531F028F048E050E060E070E002
:1011B00017C040E050E060E070E012C040E0E4168C
:1011C00040E0F40640E0040741E0140728F048E15D
:1011D00050E060E070E004C040E150E060E070E0AA
:1011E000D801C701042E04C0B695A7959795879599
:1011F0000A94D2F785529D4FDC012C9130E2A32E48
:10120000B12CC12CD12CD601C501841B950BA60B8A
:10121000B70B821B9109A109B1090097A105B1057E
:1012200089F4E614F7040805190508F4F2C16DA461
:101230007EA48FA498A8621473048404950408F013
:10124000E8C1F3C16E968FAF6E97082E04C0EE0C06
:10125000FF1C001F111F0A94D2F76A2D681BD201D0
:10126000C101062E04C0B695A795979587950A9457
:10127000D2F75C016D01AE28BF28C02AD12AADA2E9
:10128000BEA2CFA2D8A6720161016E960FAC6E9776
:1012900004C0CC0CDD1CEE1CFF1C0A94D2F7C9A2C2
:1012A000DAA2EBA2FCA264015301062E04C0D6947C
:1012B000C794B794A7940A94D2F7D401C3016E9649
:1012C0000FAC6E9704C0880F991FAA1FBB1F0A940A
:1012D000D2F7EDA4FEA40FA518A904C01695079592
:1012E000F794E7946A95D2F737014801682A792A7A
:1012F0008A2A9B2A6D8E7E8E8F8E98A2EDA0FEA0EC
:101300000FA118A53801882499249801870120701D
:10131000307065960CAF1DAF2EAF3FAF6597C6011D
:10132000B501A40193010E94E5357B018C01C60142
:10133000B501A40193010E94E535C901DA011C0140
:101340002D01C201B10165962CAD3DAD4EAD5FAD35
:1013500065970E949F359B01AC018701FF24EE2415
:10136000AD8CBE8CCF8CD8A0C601AA27BB27570155
:101370006801A82AB92ACA2ADB2AA216B306C4061B
:10138000D50600F508942108310841085108EDA060
:10139000FEA00FA118A5AE0CBF1CC01ED11EAE141E
:1013A000BF04C006D10670F0A216B306C406D50667
:1013B00048F408942108310841085108AE0CBF1CBC
:1013C000C01ED11EA21AB30AC40AD50AC601B501AD
:1013D000A40193010E94E5357B018C01C601B50192
:1013E000A40193010E94E535C901DA013C014D01D8
:1013F000C401B30165962CAD3DAD4EAD5FAD6597B3
:101400000E949F359B01AC018701FF24EE248D8D46
:101410009E8DAF8DB8A1A070B07057016801A82A49
:10142000B92ACA2ADB2AA216B306C406D50600F5D5
:10143000089461087108810891086DA17EA18FA1AF
:1014400098A5A60EB71EC81ED91EA616B706C806B2
:10145000D90670F0A216B306C406D50648F408945F
:101460006108710881089108A60EB71EC81ED91E12
:10147000D601C501821B930BA40BB50B898F9A8FE4
:10148000AB8FBC8FD1019927882764015301A82A0B
:10149000B92ACA2ADB2AA9AABAAACBAADCAA860137
:1014A00075012FEF3FEF40E050E0E222F3220423EA
:1014B0001523A601662777276D964CAF5DAF6EAFFB
:1014C0007FAF6D97A9A0BAA0CBA0DCA06FEF7FEF94
:1014D00080E090E0A622B722C822D92289A19AA151
:1014E000ABA1BCA11D0144245524C801B701A6012C
:1014F00095010E949F3569966CAF7DAF8EAF9FAF0F
:101500006997C801B701A20191010E949F353B0173
:101510004C016D966CAD7DAD8EAD9FAD6D97A60106
:1015200095010E949F357B018C016D966CAD7DAD60
:101530008EAD9FAD6D97A20191010E949F355B0119
:101540006C01A8019701260D371D481D591D69968C
:101550006CAC7DAC8EAC9FAC6997C401AA27BB274D
:10156000280F391F4A1F5B1F2E153F0540075107E3
:1015700048F4E12CF12C61E0062F112DAE0CBF1CBC
:10158000C01ED11ECA01AA27BB27BC01CD016A0D0E
:101590007B1D8C1D9D1D698C7A8C8B8C9C8C66169A
:1015A00077068806990640F166157705880599053E
:1015B00009F043C0D9019927882769962CAD3DAD24
:1015C0004EAD5FAD699740705070820F931FA41F9E
:1015D000B51F2DA53EA54FA558A96E960FAC6E97C9
:1015E00004C0220F331F441F551F0A94D2F7281737
:1015F00039074A075B0708F509A91AA92BA93CA9CD
:10160000015010402040304009AB1AAB2BAB3CAB33
:1016100014C066247724430121E030E040E050E02C
:1016200029AB3AAB4BAB5CAB0BC0662477244301D0
:1016300019AA1AAA1BAA1CAA03C06624772443016C
:10164000FE01719688E0DF011D928A95E9F7A9A84D
:10165000BAA8CBA8DCA8A98ABA8ACB8ADC8A6D8A08
:101660007E8A8F8A988E29A93A894B895C89662D52
:101670007E898F89988DC25ADF4FE2E10C943E3605
:1016800084E496E06DE573E00E94212984EF93E005
:1016900060E00E945A1689E496E00E94572B60E0B1
:1016A00072EC81E090E041E00E94142081E00E9411
:1016B0002E1E64EF71E080E090E00E94001C08950F
:1016C000AF92BF92CF92DF92EF92FF920F931F9350
:1016D0005C01BC01672F772762956F7080E090E016
:1016E0000E9425339B01AC0160E070E080E090E453
:1016F0000E943A347B018C018FEF9FE0A822B9222F
:10170000CC24DD24C601B5010E9425335B016C01A8
:10171000C801B7012AE037ED43E25CE30E94D7330A
:101720009B01AC01C601B5010E94D7331F910F91F7
:10173000FF90EF90DF90CF90BF90AF9008956F92A1
:101740007F928F929F92AF92BF92CF92DF92EF9251
:10175000FF920F931F93DF93CF9300D000D0CDB7AC
:10176000DEB784E496E067E473E00E94212984E414
:1017700096E060E072E00E94682984E496E06FEDF4
:1017800073E00E944F2984EF93E06FED73E00E94B5
:10179000F817019709F0AAC284E496E06AE273E0C0
:1017A0000E94212984EF93E06FED73E00E94791588
:1017B0008093F003813009F094C284E496E062E102
:1017C00072E00E9468294091A90450E060E070E056
:1017D00084E496E02AE030E00E941A2A84E496E04D
:1017E00061E372E00E94682984EF93E06091A904AC
:1017F0000E943514482F552747FD5095652F752FAA
:1018000084E496E02AE030E00E941A2A84E496E01C
:1018100065E173E00E94212984EF93E06091A904BF
:1018200043E050E00E94911384E496E063E073E0AB
:101830000E94F22800E00AC0E02FF0E0E555FB4FDF
:1018400084E496E060810E94D1280F5F8091AA0411
:10185000081790F384E496E00E94E32884E496E07D
:1018600069EE72E00E94F22800E00AC0E02FF0E08A
:10187000E555FB4F84E496E060810E943C290F5FB0
:101880008091AA04081790F384E496E00E94E3286C
:1018900084E496E00E94E32881E00E94D51E68EB74
:1018A0007BE080E090E00E94001C81E08093ED03EB
:1018B00084E496E064ED72E00E94212984EF93E0D5
:1018C0006091A90444E250E02DEE33E001E00E9473
:1018D0001C13892B31F484E496E06EEA72E00E94D6
:1018E000212981E089831A8284EF93E06091A90421
:1018F00042E250E09E012F5F3F4F02E00E941C1326
:101900009093F2038093F103892B09F0AFC084E434
:1019100096E069E972E00E94212984EF93E06091EA
:10192000A90441E250E00E9491131092F30374C0A5
:1019300084E496E060E772E00E9421297090F1044F
:101940006624E090F004FF24E628F72884E496E07B
:1019500067E372E00E94682900E010E084E496E00A
:10196000B801A7012AE030E00E94582A84E496E0FA
:101970006FE472E00E944F299090F50488246091F2
:10198000F40470E0682979297695679576956795CE
:10199000882777FD8095982F0E94273320E030E03C
:1019A00040E05DE30E94D7337B018C0184E496E044
:1019B0006EE572E00E94682984E496E0B801A70110
:1019C0000E940E2A84E496E00E94E32884E792E0D5
:1019D00061E00E94F71EC801B7010E94F432882717
:1019E00077FD8095982F41E00E94E91F81E00E94D9
:1019F000D51E8091F3038F5F8093F3031092F2035F
:101A00001092F10302C00F97D9F10E946A1B6A1568
:101A10007B058C059D0520F40E946A1B5B016C010F
:101A20008091F303853060F50E946A1B6A197B0977
:101A30008C099D09605375478040904008F584E407
:101A400096E067E872E00E94212984EF93E048E87D
:101A500053E160E070E00E940D1090E09093F2037B
:101A60008093F1038531910571F662CF84E496E0AD
:101A70006CE572E00E94212984E496E00E94E3284C
:101A80001092ED0384EF93E06091A90444E250E0EA
:101A90002DEE33E001E00E941C13892B51F084E409
:101AA00096E067E372E00E94212984E496E00E94B8
:101AB000E32868EE73E080E090E00E94001C109242
:101AC000F2031092F10381E08093ED0384E496E049
:101AD00062E272E00E94212984EF93E06091A90400
:101AE00044E450E02DEE33E001E00E941C13892B0A
:101AF00031F484E496E068EF71E00E94212981E0EE
:101B00008B831C8284EF93E06091A90442E450E04F
:101B10009E012D5F3F4F02E00E941C139093F20341
:101B20008093F103892B09F0A1C084E496E063EE71
:101B300071E00E94212984EF93E06091A90441E4BF
:101B400050E00E9491131092F30366C084E496E083
:101B50006AEB71E00E9421297090F1046624E09004
:101B6000F004FF24E628F72884E496E067E372E0B7
:101B70000E94682900E010E084E496E0B801A70123
:101B80002AE030E00E94582A84E496E06FE472E094
:101B90000E944F299090F50488248091F40490E0ED
:101BA000882999290E94600B7B018C0184E496E0CE
:101BB00062E872E00E94682984E496E0B801A70117
:101BC0000E940E2A84E496E00E94E32884E992E0D1
:101BD00061E00E94F71EC801B7010E94F432882715
:101BE00077FD8095982F41E00E94E91F81E00E94D7
:101BF000D51E8091F3038F5F8093F3031092F2035D
:101C00001092F10302C00F97D9F10E946A1B6A1566
:101C10007B058C059D0520F40E946A1B5B016C010D
:101C20008091F303853060F50E946A1B6A197B0975
:101C30008C099D09605375478040904008F584E405
:101C400096E061ED71E00E94212984EF93E048E87D
:101C500053E160E070E00E940D1090E09093F20379
:101C60008093F1038531910571F670CF84E496E09D
:101C700066EA71E00E94212984E496E00E94E3284C
:101C80001092ED0384EF93E06091A90444E450E0E6
:101C90002DEE33E001E00E941C13892B51F084E407
:101CA00096E06DE771E00E94212984E496E00E94AD
:101CB000E32868EE73E080E090E00E94001C84EF6F
:101CC00093E06091A9040E946C1484E496E06FE6AE
:101CD00071E00E94212981EA92E061E00E94F71EF2
:101CE0000BC084E496E061E671E004C084E496E011
:101CF0006EE471E00E94212984E496E00E94E328CA
:101D000068E873E180E090E00E94001C0F900F9063
:101D10000F900F90CF91DF911F910F91FF90EF9057
:101D2000DF90CF90BF90AF909F908F907F906F90FB
:101D30000895FC01E950FF4F8081E75FF040882360
:101D400009F4C4C0E750FF4F8081E95FF040882369
:101D500009F5E650FF4F80818230A1F0833030F4E6
:101D6000882371F0813009F0B1C008C0843071F06F
:101D7000843050F0853009F0A9C00AC082E008958F
:101D800081E0089583E0089584E0089585E0089552
:101D900086E00895813041F4E650FF4F808188232A
:101DA00009F094C087E00895823089F4E650FF4F2F
:101DB0008081813031F0813030F0823009F086C08E
:101DC00004C089E0089588E008958AE0089583308A
:101DD000E9F4E650FF4F8081823091F0833030F497
:101DE000882361F0813009F071C006C0833051F062
:101DF000843009F06BC008C08CE008958BE0089532
:101E00008DE008958EE008958FE00895843011F5F7
:101E1000E650FF4F80818330A9F0843028F4813070
:101E200059F0823068F40AC0853081F0853060F066
:101E3000863009F04BC00CC081E1089580E108951F
:101E400082E1089583E1089584E1089585E108958C
:101E500086E108958530D9F4E650FF4F80818230C5
:101E600081F0833028F4882351F0813079F505C062
:101E7000833049F0843051F508C088E1089587E146
:101E8000089589E108958AE108958BE108958630E7
:101E900059F4E650FF4F8081882321F08130B1F45E
:101EA0008DE108958CE10895873081F4E650FF4F6D
:101EB0008081813029F0813028F0823039F404C0EB
:101EC0008FE108958EE1089580E2089580E00895FD
:101ED000CF93DF93FC0180E092ECA1E0B0E080833F
:101EE0009183A283B383E055FF4F11821082E05BA0
:101EF000F040CF018A5B9F4FDC0186E0ED01199233
:101F00008A95E9F7EB5AFF4F8FE08083399782E09B
:101F10008193119211928BE4819382E381931192C8
:101F20001082389680E094E091838083DF91CF9196
:101F3000089584EF93E00E94680F0895CF93DF9394
:101F4000EC018D599F4FFC018FE1DF011D928A95B5
:101F5000E9F7CE57DF4F2881C258D04081E056C004
:101F6000FE01E80FF11DEE57FF4F90818F5FFE01DC
:101F7000E80FF11DEE57FF4FE081482F4F5FE9302A
:101F8000F1F4E92F903208F0EFE190E02E2F30E0ED
:101F9000215030400CC0AC0FBD1FAD59BF4FFE01EA
:101FA000E80FF11DEE57FF4F80818C939F5F892FC3
:101FB000840FA92FB0E0A217B3076CF325C0E83057
:101FC000F9F4E92F903208F0EFE190E02E2F30E0A5
:101FD000215030400CC0AC0FBD1FAD59BF4FFE01AA
:101FE000E80FF11DEE57FF4F80818C939F5F892F83
:101FF000840FA92FB0E0A217B3076CF382E00AC0E8
:10200000892F840F815002C081E004C0821708F438
:10201000A7CF80E0DF91CF9108958F929F92AF92EA
:10202000BF92CF92DF92EF92FF920F931F93CF93C5
:10203000DF93EC014A015B018C0109501F4F81E4E1
:10204000D8011D928A95E9F762C08C810E94CF1D4C
:1020500004970CF455C08C810E94F31DF801808315
:10206000803809F04DC08C810E94F31D8E0108500C
:102070001F4FD8018C938C810E94F31DC750DF4FF6
:102080008883C95FD0408C810E94F31DC650DF4F0A
:102090008883CA5FD0400E946A1B6B017C018C81DF
:1020A0000E94CF1DF801208130E0821793070CF0C9
:1020B0004EC00E946A1B6C197D098E099F09681524
:1020C00079058A059B0508F042C00E946A1B6C15C1
:1020D0007D058E059F0518F7DECF8C810E94F31DCC
:1020E000D7018D937D010F5F1F4F02341105F9F069
:1020F000F601808190E003968017910774F717C06E
:102100000E946A1B6C157D058E059F0520F40E94B8
:102110006A1B6B017C010E946A1B6C197D098E0988
:102120009F09681579058A059B0508F48ECFCE01B5
:102130000E94990EDF91CF911F910F91FF90EF9028
:10214000DF90CF90BF90AF909F908F9008959BEFBE
:10215000E92EF12CEC0EFD1E04E010E088EFC82EF5
:10216000D12CCC0EDD1EC4CFBF92CF92DF92EF9266
:10217000FF920F931F93CF93DF93EC01C62EB42EE3
:102180000596FC0181E4DF011D928A95E9F70E9422
:102190006A1B7B018C01DD2418C08C810E94F31D19
:1021A000FE01ED0DF11D8583D394DC1438F5B0E408
:1021B000BD1520F10E946A1B6E157F0580079107EF
:1021C00020F40E946A1B7B018C01DC1428F08C81B6
:1021D0000E94CF1D892B91F00E946A1B6E197F0906
:1021E000800B910B643171058105910538F48C8168
:1021F0000E94CF1D1816190684F2DCCFDE01A0550F
:10220000BF4F81E0B81661F4FE01ED0DF11D948120
:1022100080E0238130E0822B932B8D939C9302C02E
:102220001D921C92DD2041F4C055DF4F8FEF9FEFD0
:1022300099838883C05BD040FE01E055FF4F8081C9
:102240009181DF91CF911F910F91FF90EF90DF90DF
:10225000CF90BF900895CF93DF93EC018C818823BA
:10226000A1F489E496E00E94462B688179818A81F5
:102270009B814C810E9414208C810E942E1E8FE233
:1022800061E00E941A1D8FE215C08130B1F489E42B
:1022900096E00E94702B688179818A819B814C81B4
:1022A0000E9414208C810E942E1E84E061E00E9416
:1022B0001A1D84E061E00E94381D8C81882351F44E
:1022C00080916F0890917008A0917108B091720888
:1022D00084600BC0813089F480916F089091700800
:1022E000A0917108B0917208886080936F089093F4
:1022F0007008A0937108B0937208CE0148EE53E0C5
:1023000060E070E00E940D108E3109F481E0DF91F1
:10231000CF910895AF92BF92CF92DF92EF92FF924A
:102320000F931F93CF93DF937C015AE5C52ED12CD9
:10233000C80ED91EF601808191818F51974019F402
:1023400020E030E053C08701045A1F4FE60142E607
:10235000A42EB12CAE0CBF1C6881798189E496E073
:10236000F80141918F010E940B2B688179816F5F89
:102370007F4F798368830A151B0571F789E496E01E
:10238000F80140810E940B2BF6018081918101961A
:102390009183808387010D591F4FE701C65ADF4F94
:1023A00082E890E0E80EF91E6881798189E496E080
:1023B000F80141918F010E940B2B688179816F5F39
:1023C0007F4F798368830E151F0571F789E496E0C6
:1023D00040EF0E940B2B688179816F5F7F4F89E40A
:1023E00096E040EF0E940B2B21E030E0C901DF9125
:1023F000CF911F910F91FF90EF90DF90CF90BF9002
:10240000AF900895DF92EF92FF920F931F93CF93B7
:10241000DF93EC01C950DF4F8881C75FD04080381F
:1024200039F0C750DF4F8881C95FD040863041F412
:102430007CE5E72EF12CEC0EFD1ED70195E009C0DE
:10244000C650DF4F8881CA5FD040882389F380E07F
:1024500068C0FE01E90FF11DE350FF4F80818D93AD
:102460009150B8F7FE01EE59FF4FC550DF4F8881FC
:1024700080832A962881C550D140203208F02FE170
:10248000CE018E579F4FFC0181E2DF011D928A959C
:10249000E9F730E0422F50E00AC0FE01E80FF91FD3
:1024A000EB5FFE4F8081E358F04080833F5F832FD6
:1024B00090E0481759078CF7613029F4CE010E944B
:1024C0009E0FD82E0BC09E012D593F4FC90160E2CF
:1024D00070E04FE150E00E94D136DD248E010A5BAE
:1024E0001F4FC701B80146E050E00E94C436009774
:1024F000B9F0FE01EE54FF4F8081918101969183E6
:102500008083D801F70186E001900D928150E1F7B8
:10251000CE016D2D0E948A11892B11F482E001C039
:1025200081E0DF91CF911F910F91FF90EF90DF90AD
:1025300008956F927F929F92AF92BF92CF92DF9257
:10254000EF92FF920F931F93DF93CF93CDB7DEB738
:102550005C01F62EE42ED22EC02E912E6DB67EB6E4
:102560008CE3861718F421E030E052C0262F30E0CB
:102570002B5F3F4FEDB7FEB7E21BF30B0FB6F8949E
:10258000FEBF0FBEEDBF0DB71EB70F5F1F4FC801D7
:1025900060E070E0A9010E94D136F4E0FF0EF8017E
:1025A000F082FCEFFF0EF8011182F282E382D48206
:1025B000FF2021F4F5E0EF2EF12C15C0D8018C2D71
:1025C000992D9C01F901819115968C93159711967F
:1025D0008E2F8C198F15B8F3FA94EF2CFF2486E018
:1025E00090E0E80EF91EF50184810E942E1EDD2484
:1025F00008C0E00FF11F8081F50164810E94C41EB4
:10260000D394ED2DF0E0EE15FF0598F320E030E0D7
:10261000C9010FB6F8947EBE0FBE6DBECF91DF919B
:102620001F910F91FF90EF90DF90CF90BF90AF90F0
:102630009F907F906F900895CF92DF92EF92FF92DC
:102640000F931F93DF93CF93CDB7DEB77C01702F2D
:10265000CDB6DEB6802F90E00496ADB7BEB7A81B0E
:10266000B90B0FB6F894BEBF0FBEADBF0DB71EB706
:102670000F5F1F4F11966C93F80141835283738350
:10268000D80140E050E009C0F901E40FF51F808156
:1026900013968C9313974F5F5F4F11964717A0F3D4
:1026A0007C5FC701672F44E025E00E949912C701B3
:1026B00067E041E00E94B410892B01F5C70148EEA4
:1026C00053E060E070E00E940D10813111F090E065
:1026D0001AC0F701E055FF4F4DEF50E0E40EF51E34
:1026E000D7019C9180E02E917D0144E05FEFE40EE4
:1026F000F51E30E0822B932B91838083F701E05508
:10270000FF4F808191810FB6F894DEBE0FBECDBE23
:10271000CF91DF911F910F91FF90EF90DF90CF90BD
:1027200008959F92AF92BF92CF92DF92EF92FF9265
:102730000F931F93DF93CF9300D00F92CDB7DEB7E7
:102740007C01962E6A01A6EBAA2EB12CA80EB91E0A
:1027500081E4D5011D928A95E9F769834A83DB827A
:10276000C70163E044E024E08E010F5F1F4F0E9429
:102770009912C70167E041E00E94B410E0EBF0E07D
:10278000EE0EFF1ED7010D911C91E0E5FFEFEE0E5E
:10279000FF1E0115110509F058C0C70140ED57E0B3
:1027A00060E070E00E940D10882319F401E010E051
:1027B0004CC0853119F0082F10E047C02DEF30E0F4
:1027C000E20EF31ED7014C91F7012291DF018E91A9
:1027D0007D01E5E0FFEFEE0EFF1E8915B1F5942FA8
:1027E00080E030E0822B932B8C159D0571F52FEF47
:1027F00030E0E20EF31ED7018C91E1E0FFEFEE0E28
:10280000FF1E873110F086E102C0882321F020E00E
:10281000482F50E015C081E0D5018C93E7EBF0E044
:10282000EE0EFF1E80E3D7018C930FC0F701E80F77
:10283000F91FE150FF4F8081E954F04080832F5F02
:10284000822F90E0481759078CF7C8010F900F901E
:102850000F90CF91DF911F910F91FF90EF90DF903C
:10286000CF90BF90AF909F900895EF92FF920F93FB
:102870001F93DF93CF930F92CDB7DEB77C016983AF
:1028800061E043E021E08E010F5F1F4F0E9499122B
:10289000C70166E040E00E94B410F701918589818C
:1028A000981789F420EB30E0E20EF31EF7018081E7
:1028B000918120E53FEFE20EF31E8F5F9F4F19F0ED
:1028C000F701828501C080E00F90CF91DF911F91C9
:1028D0000F91FF90EF900895EF92FF920F931F9347
:1028E000DF93CF930F92CDB7DEB77C01698361E0B0
:1028F00043E020E08E010F5F1F4F0E949912C70135
:1029000067E041E00E94B41025EB30E0E20EF31ED8
:10291000F70190812BE43FEFE20EF31EF701818572
:10292000981719F021E030E02CC0F701938580E082
:10293000228530E0282B392B80EB90E0E80EF91E41
:10294000F7013183208380E59FEFE80EF91E211502
:102950003105B9F4C70140E157E260E070E00E9440
:102960000D108F3061F4EDEFF0E0EE0EFF1EF70179
:10297000908180E0229130E0282B392B02C0282F53
:1029800030E0C9010F90CF91DF911F910F91FF901F
:10299000EF9008958F929F92AF92BF92CF92DF9265
:1029A000EF92FF920F931F93DF93CF93CDB7DEB7D4
:1029B00065970FB6F894DEBF0FBECDBF5C014A012C
:1029C000D22EC32E89E496E0AE014F5F5F4F0E9486
:1029D000142B2D2D3C2DC901AC018815990508F447
:1029E000A4010A30110518F40AE010E006C02CE03A
:1029F0000138120710F000E81CE0970181E0253F44
:102A0000380710F024EF31E08E818F838D81888725
:102A10008C8189878B818A878A818B8789818C8742
:102A20001D868E869F86488B598B0A8B1B8B2C8B21
:102A30003D8BC5016FE046E023E08E01095F1F4F2B
:102A40000E949912C50167E040E00E94B410F501B0
:102A5000928580E0218530E0282B392B80EB90E0B7
:102A6000A80EB91EF5013183208380E59FEFA80EE3
:102A7000B91E2115310549F5F501838525EB30E0B7
:102A8000A20EB31EF50180832BE43FEFA20EB31E0E
:102A9000C50148EE53E060E070E00E940D10182F71
:102AA00064E670E080E090E00E94001C1B3059F466
:102AB0008CEF90E0A80EB91EF5018081853019F4E5
:102AC00021E030E002C0212F30E0C90165960FB649
:102AD000F894DEBF0FBECDBFCF91DF911F910F9154
:102AE000FF90EF90DF90CF90BF90AF909F908F902E
:102AF0000895EF92FF920F931F934CE350E02CE464
:102B000030E004E610E0EE24FF240E94CA141F9176
:102B10000F91FF90EF900895BF92CF92DF92EF92C6
:102B2000FF920F931F93DF93CF9300D00F92CDB7F7
:102B3000DEB77C01D62EC42EB22E69834A832B8346
:102B400063E046E026E08E010F5F1F4F0E9499125E
:102B5000C70166E041E00E94B41020EB30E0E20ED5
:102B6000F31EF7018081918120E53FEFE20EF31E15
:102B7000892B91F481E590E0E80EF91EF701D192DE
:102B80007F01C08222E030E0E20EF31EF701B08246
:102B90002CEA3FEFE20EF31EF701E055FF4F808174
:102BA00091810F900F900F90CF91DF911F910F9116
:102BB000FF90EF90DF90CF90BF900895FC01262FFB
:102BC000DC01AE5ABF4FEF5AFF4F60814C910E941B
:102BD0008C150895EF92FF920F931F937C0160E094
:102BE00046E024E000E010E00E949912C70166E090
:102BF00041E00E94B4101F910F91FF90EF90089553
:102C0000FF920F931F93CF93DF93EC010E94EA157D
:102C1000CE0161E00E94DE15892B19F0E2E0FE2E64
:102C200007C0CC5ADF4F81E08883C455D040FF24D1
:102C30008E01065A1F4FF8016081718189E496E088
:102C400040EF0E940B2BF801608171816F5F7F4F15
:102C500089E496E040EF0E940B2B80E0FF2009F40E
:102C600081E0DF91CF911F910F91FF900895EF9236
:102C7000FF920F931F937C0161E049E020E000E0A8
:102C800010E00E94991264EF71E080E090E00E94F1
:102C9000001CC70148EE53E060E070E00E940D1098
:102CA00090E0813009F491E0892F1F910F91FF90FE
:102CB000EF900895CF93DF93EC01623018F081E03C
:102CC0008C8301C06C838C81882331F486E161E0C0
:102CD0000E941A1D86E107C0813041F486E061E060
:102CE0000E941A1D86E061E00E94381D64E670E0D3
:102CF00080E090E00E94001CCE010E942B118130E8
:102D0000A1F1C850DF4F8881C85FD0408C3071F48A
:102D1000C750DF4F8881C95FD040882339F4C6503F
:102D2000DF4F8881CA5FD0408823F9F0CE010E942E
:102D300037168823D1F484E496E06CE873E00E94AF
:102D4000212989E496E06CE041E00E94892B60E350
:102D500075E780E090E00E94001C89E496E06CE05A
:102D600040E00E94892B80E003C0CE010E94001643
:102D7000DF91CF910895AF92BF92DF92EF92FF92D1
:102D80000F931F93DF93CF93CDB7DEB765970FB641
:102D9000F894DEBF0FBECDBF5C016D8B603110F0CB
:102DA0008FE08D8B19821A821B821C8246E0D42E02
:102DB000FE013596DF018D2D1D928A95E9F7C5013B
:102DC00061E047E02CE08E010B5E1F4F0E949912DC
:102DD000C50164E040E00E94B410B5016B5F7F4F15
:102DE00089E496E07E010894E11CF11CA70124E02F
:102DF0000E94922A1B861C861D861E86FE013F9617
:102E0000DF011D92DA94E9F7ECE6F3E06591749145
:102E10008E01055F1F4FC8010E94BD36C701B80172
:102E20000E94E336009719F021E030E009C0E5E5A3
:102E3000F0E0AE0EBF1E8D89D5018C9320E030E00E
:102E4000C90165960FB6F894DEBF0FBECDBFCF9116
:102E5000DF911F910F91FF90EF90DF90BF90AF90A7
:102E600008954F925F926F927F929F92AF92BF921E
:102E7000CF92DF92EF92FF920F931F93CF93DF9346
:102E8000EC012B01D42E72EBE72EF12CE80EF91E8B
:102E9000F7011182108266E4662E712C680E791E8D
:102EA00086E0F30111928A95E9F7CE01622F0E9424
:102EB000BB168E010C5A1F4FF8018081813081F0C2
:102EC000CE0161E00E94DE15892B21F481E0F8013A
:102ED000808306C08FEF9FEFF7019183808369C0E5
:102EE0008E01045B1F4FCE0161E046E022E00E94AC
:102EF0009912CE0166E041E00E94B410892B09F0DE
:102F000058C08D2D90E028EE33E0AC01429FC00107
:102F1000439F900D529F900D11245C01CC24B7FC6F
:102F2000C094DC2C51EEA51653E9B50654E0C50655
:102F300050E0D50638F050EEA52E53E9B52E54E0FA
:102F4000C52ED12C0E946A1B7B018C011DC0CE01B5
:102F500060E00E940212C301B20146E050E00E940C
:102F6000C436009719F49924939401C099240E94BF
:102F70006A1B6E157F058007910720F40E946A1B6B
:102F80007B018C01992071F50E946A1B6E197F09E3
:102F9000800B910B6A157B058C059D0510F5CE0104
:102FA00048EE53E060E070E00E940D108C31F1F6C5
:102FB000CECFFE01E055FF4F8081918102C0892D67
:102FC00090E0DF91CF911F910F91FF90EF90DF90F4
:102FD000CF90BF90AF909F907F906F905F904F90F9
:102FE00008959924CE010E94EA15892B41F3E1CF7F
:102FF000EF92FF920F931F93DF93CF9300D000D0F7
:1030000000D0CDB7DEB77C018B01FB010190002021
:10301000E9F73197E61BF70B3E9710F0FB0114869A
:10302000C8010E94EC3689E496E0B8018E010F5F7A
:103030001F4FA8010E94142BC701B8014EE12FE0D9
:103040000E94311726960FB6F894DEBF0FBECDBF93
:10305000CF91DF911F910F91FF90EF900895482F2E
:10306000613210F081E0089580912E05843011F0D6
:1030700082E0089560937705A6E5B5E0842F9C0172
:10308000F90102C081918D938E2F841B8617D0F396
:1030900080E00895589859988091B9008160809394
:1030A000B9008091B90082608093B9008091BC0022
:1030B00080688093BC008091BC0080618093BC00DC
:1030C0008091BC008F7B8093BC008091BC008F7D81
:1030D0008093BC008091BC00877F8093BC0080916E
:1030E0006F0890917008A0917108B091720886FDE8
:1030F00014C080916F0890917008A0917108B091F0
:10310000720890FD0AC080916F0890917008A0919C
:103110007108B091720893FF04C08091BC008B7F4E
:1031200003C08091BC0084608093BC008091BC008F
:103130008E7F8093BC0080916400806880936400DF
:10314000089510922E05E4E6F0E080818F77808369
:10315000589A599AE9EBF0E080818E7F80838081D4
:103160008D7F808381E48093B80085E48093BC00E8
:1031700080E2E4E3F5E0DF01982F1D929A95E9F7EC
:10318000E6E5F5E0DF01982F1D929A95E9F7E8E76B
:10319000F5E0DF011D928A95E9F70895882349F04B
:1031A00010929A0510929B0510929C0510929D0515
:1031B00013C080919A0590919B05A0919C05B091B8
:1031C0009D050196A11DB11D80939A0590939B05C5
:1031D000A0939C05B0939D0580919A0590919B05C5
:1031E000A0919C05B0919D05805A9648A140B040A1
:1031F00010F480E0089510929A0510929B051092A9
:103200009C0510929D050E94A11881E0089585ED0E
:103210008093BC0081E00E94CE1805C080E00E942F
:10322000CE18882321F48091BC0084FDF7CF109242
:103230002E0508951F920F920FB60F920BB60F92A4
:1032400011242F933F934F935F936F937F938F93AB
:103250009F93AF93BF93EF93FF938091B90090E05A
:10326000887F90708036910509F4C3C0813691053E
:10327000CCF58832910509F47BC089329105B4F40C
:103280008031910509F46FC0813191053CF40097BC
:1032900009F40EC1089709F00FC165C08831910586
:1032A00009F466C0809709F007C177C080349105A2
:1032B00009F48DC08134910544F48033910509F4FB
:1032C00072C0C89709F0F8C072C08035910509F442
:1032D00072C08835910509F47FC08834910509F0E2
:1032E000EBC0E8C08839910509F4D8C08939910547
:1032F000ECF48837910509F47CC0893791054CF4CA
:103300008836910509F475C08037910509F0D4C05D
:1033100070C08838910509F4C1C08039910509F45D
:103320006EC08038910509F0C7C069C0803B910527
:1033300009F48CC0813B91054CF4803A910509F465
:1033400070C0883A910509F0B7C080C0803C9105F3
:1033500009F4A8C0883C910509F4A4C0883B9105F4
:1033600009F0AAC088C080912F058093BB0013C0CC
:103370009091540580915505981708F09BC0909145
:103380005405E92FF0E0EC5CFA4F80818093BB009C
:103390009F5F9093540585EC82C00E94071980E2DC
:1033A0008093990589C080E38093990583C088E361
:1033B0008093990577C0809154059091BB00E82FC8
:1033C000F0E0EC5CFA4F90838F5F8093540590910E
:1033D0005405809155055FC0809154059091BB00C4
:1033E000E82FF0E0EC5CFA4F90838F5F80935405F8
:1033F00061C083E080932E0510929805CCCF809118
:103400009805803208F04AC0809198059091BB00E1
:10341000E82FF0E0E858FA4F90838F5F809398058B
:10342000BACF80919805803230F4E0919805F0E0B1
:10343000E858FA4F108260919805E0913205F091BA
:10344000330588E795E070E009952CC084E080930F
:103450002E051092760510927705E0913005F091D7
:103460003105099580917705882329F481E08093BF
:1034700077051092560590917605E92FF0E0EA5A0B
:10348000FA4F80818093BB009F5F90937605909167
:10349000760580917705981708F47DCF85E88093AD
:1034A000BC000AC085EC8093BC0010922E0504C0BD
:1034B000109299050E940719FF91EF91BF91AF916A
:1034C0009F918F917F916F915F914F913F912F913C
:1034D0000F900BBE0F900FBE0F901F901895DF92AC
:1034E000EF92FF920F931F93E82E062FF72E142FC3
:1034F000D22E413210F081E051C081E00E94CE18FE
:1035000005C080E00E94CE18882321F480912E050A
:103510008823B9F782E080932E058FEF8093990579
:103520001092540510935505A4E3B5E0202F3F2DCC
:10353000C901FC0102C081918D938E2F801B8117E0
:10354000D0F38E2D90E0880F991F80932F0585EE84
:103550008093BC0081E00E94CE18DD2041F40BC0B6
:1035600080E00E94CE18882311F085E017C080917A
:103570002E058230A9F3809199058F3F11F480E0E8
:103580000DC080919905803211F482E007C08091CE
:103590009905803311F084E001C083E01F910F9101
:1035A000FF90EF90DF9008950F931F93CF93DF93D9
:1035B000182FEB01042F413210F081E03CC081E074
:1035C0000E94CE1805C080E00E94CE18882321F406
:1035D00080912E058823B9F781E080932E058FEF27
:1035E000809399051092540500935505110F1160B1
:1035F00010932F0585EE8093BC0081E00E94CE18C9
:1036000008C080E00E94CE18882319F020E030E046
:103610000FC080912E058130A1F3F8CFFE01E20F9B
:10362000F31FD901AC5CBA4F8C9180832F5F3F4F61
:103630002017A0F380E0DF91CF911F910F910895A3
:103640001F920F920FB60F9211248F939F93AF93F7
:10365000BF938091810890918208A0918308B091D6
:1036600084080196A11DB11D809381089093820862
:10367000A0938308B0938408BF91AF919F918F91DD
:103680000F900FBE0F901F9018951F920F920FB6BC
:103690000F9211248F939F93AF93BF9380918508CE
:1036A00090918608A0918708B09188080196A11D85
:1036B000B11D8093850890938608A0938708B093E6
:1036C0008808BF91AF919F918F910F900FBE0F907F
:1036D0001F9018958F929F92AF92BF92CF92DF92D8
:1036E000EF92FF920F931F938FB7F894A0908108E9
:1036F000B0908208C0908308D09084088FBF950155
:10370000A60160E070E080E090E001E00E944C04DF
:10371000122FF32EE42ED52EC62EB72EA82E892ECC
:1037200002E00E944C04B92F210FE1E0211708F0BC
:10373000E0E03F0DF1E03F1508F0F0E09E2E930E23
:10374000E1E0931608F0E0E0FE2B4E0DA1E04E15EF
:1037500008F0A0E0FF2EF40EE1E0F41608F0E0E03F
:10376000AE2B5D0DF1E05D1508F0F0E00A2F050FBE
:10377000E1E0051708F0E0E0FE2B6C0DA1E06C1510
:1037800008F0A0E01F2F160FE1E0161708F0E0E0A8
:10379000AE2B7B0DF1E07B1508F0F0E0A70FE1E028
:1037A000A71708F0E0E0FE2B8A0D91E08A1508F0DB
:1037B00090E0F80FE1E0F81708F0E0E09E2BB80D7C
:1037C000392D4F2D502F612F7A2F8F2F9B0FE9E02E
:1037D000AE2EBB24CC24DD24EE24FF2400E010E038
:1037E0000E94CB04952FB901842F1F910F91FF9058
:1037F000EF90DF90CF90BF90AF909F908F90089503
:10380000AF92BF92CF92DF92EF92FF920F931F93EE
:103810005B016C0107C00E946A1B6E157F05800763
:10382000910720F40E946A1B7B018C010E946A1B95
:103830006E197F09800B910B6A157B058C059D0520
:1038400050F31F910F91FF90EF90DF90CF90BF90BA
:10385000AF9008958430910570F0BC0180E090E055
:103860000E94253326E636E646EE5FE30E94D73314
:103870000E94F93203C0BC01660F771F615070408F
:1038800061F06150704049F0FB01EE0FFF1F31976E
:103890008FB7F8943197F1F78FBF0895789484B774
:1038A000877F84BF1092810810928208109283084B
:1038B0001092840884B5826084BD84B5816084BD23
:1038C00085B5826085BD85B5816085BDEEE6F0E099
:1038D000808181608083E1E8F0E080818260808384
:1038E000808181608083E0E8F0E080818160808376
:1038F000E1EBF0E0808184608083E1E9F0E08081A9
:1039000084608083E0EBF0E0808181608083E0E987
:10391000F0E0808181608083E4E6F0E080818E7F4A
:103920008083ECE7F0E080818F7780838081806402
:103930008083EAE7F0E08081846080838081826018
:1039400080838081806880831092C1001092C900BA
:10395000089590919E05982B90939E0580FF32C00C
:10396000809164008E7F8093640080917C008F77CB
:1039700080937C0080917C00806480937C008091A7
:103980007A00846080937A0080917A0082608093CC
:103990007A0080917A00806880937A008091640038
:1039A0008F7780936400809164008B7F80936400A4
:1039B000809164008D7F80936400809165008E7F8C
:1039C0008093650008951F920F920FB60F920BB669
:1039D0000F9211242F933F934F935F936F937F9395
:1039E0008F939F93AF93BF93EF93FF93F89481E0EE
:1039F0008093EE03E0E6F0E0808180688083808140
:103A00008F7B808383E060E00E94381D7894FF9173
:103A1000EF91BF91AF919F918F917F916F915F9146
:103A20004F913F912F910F900BBE0F900FBE0F90B3
:103A30001F901895282F30E0C9018453984FFC013E
:103A400094912756384FF9018491882381F0E82F0B
:103A5000F0E0EF57F84FE491F0E0662329F480811D
:103A600090958923808308958081892B8083089590
:103A7000482F50E0CA018150984FFC012491CA019F
:103A80008453984FFC0194914756584FFA01349152
:103A90003323C1F1222331F1233021F480918000BE
:103AA0008F7705C0243031F4809180008F7D809322
:103AB000800018C0213019F484B58F7704C02230FB
:103AC00021F484B58F7D84BD0DC0263021F4809112
:103AD000B0008F7705C0273029F48091B0008F7D2A
:103AE0008093B000E32FF0E0E757F84FE491F0E067
:103AF000662329F4808190958923808308958081AD
:103B0000892B80830895482F50E0CA018150984F37
:103B1000FC012491CA018453984FFC0194914756AB
:103B2000584FFA013491332319F420E030E035C0C6
:103B3000222331F1233021F4809180008F7705C05A
:103B4000243031F4809180008F7D8093800018C0F4
:103B5000213019F484B58F7704C0223021F484B564
:103B60008F7D84BD0DC0263021F48091B0008F7709
:103B700005C0273029F48091B0008F7D8093B0007C
:103B8000E32FF0E0EF56F84FE491F0E0808120E081
:103B900030E0892311F021E030E0C9010895882345
:103BA00089F480919F059091A00580509E4F2091AF
:103BB000A1053091A205821B930B60E072E00E9488
:103BC000D23508958091A3059091A40580509E4F11
:103BD0002091A5053091A605821B930B60E072E051
:103BE0000E94D23508958823D1F44091A1055091C7
:103BF000A20580919F059091A0058417950751F12A
:103C0000FA01E757F54F2081CA01019660E072E0A2
:103C10000E94D2359093A2058093A10519C04091CE
:103C2000A5055091A6058091A3059091A405841740
:103C3000950781F0FA01E757F74F2081CA010196F5
:103C400060E072E00E94D2359093A6058093A505AE
:103C500030E002C02FEF3FEFC9010895882349F4F7
:103C60001092A2051092A1051092A00510929F0536
:103C700008951092A6051092A5051092A405109221
:103C8000A30508951F920F920FB60F920BB60F92D5
:103C900011242F933F934F935F936F937F938F9351
:103CA0009F93AF93BF93EF93FF934091C600E09132
:103CB0009F05F091A005CF01019660E072E00E949F
:103CC000D2359C018091A1059091A2052817390752
:103CD00039F0E757F54F40833093A00520939F05B7
:103CE000FF91EF91BF91AF919F918F917F916F91D4
:103CF0005F914F913F912F910F900BBE0F900FBE90
:103D00000F901F9018951F920F920FB60F920BB63F
:103D10000F9211242F933F934F935F936F937F9351
:103D20008F939F93AF93BF93EF93FF934091CE00F8
:103D3000E091A305F091A405CF01019660E072E047
:103D40000E94D2359C018091A5059091A605281767
:103D5000390739F0E757F74F40833093A405209394
:103D6000A305FF91EF91BF91AF919F918F917F91AB
:103D70006F915F914F913F912F910F900BBE0F90DC
:103D80000FBE0F901F901895982F662339F48091DD
:103D9000C00085FFFCCF9093C60008958091C800B5
:103DA00085FFFCCF9093CE000895882341F4809145
:103DB000C00085FFFCCF8DE08093C60008C08091D5
:103DC000C80085FFFCCF8DE08093CE0008C08091B5
:103DD000C00085FFFCCF8AE08093C60008958091E3
:103DE000C80085FFFCCF8AE08093CE000895FC01D7
:103DF00010C03196662339F48091C00085FFFCCF56
:103E00009093C60006C08091C80085FFFCCF9093B8
:103E1000CE009081992369F708952F923F924F9297
:103E20005F926F927F928F929F92AF92BF92CF924A
:103E3000DF92EF92FF920F931F93DF93CF93CDB753
:103E4000DEB7A1970FB6F894DEBF0FBECDBF6B01F2
:103E50007C0129013A0109A36115710581059105CC
:103E600091F4002341F48091C00085FFFCCF80E3F2
:103E70008093C6005BC08091C80085FFFCCF80E3C3
:103E80008093CE0053C08824992454011E010894C5
:103E9000211C311C8101080D191DC701B601A301A8
:103EA00092010E94E535F80160830894811C911C01
:103EB000A11CB11CC701B601A30192010E94E53506
:103EC000C901DA016C017D01C114D104E104F104DE
:103ED00009F79101280D391DBE016F5F7F4FD50194
:103EE000C4010197A109B109AC01481959091BC0C6
:103EF000FA01E20FF31FE081EA3010F4E05D01C047
:103F0000E95CF9A1FF2339F48091C00085FFFCCF63
:103F1000E093C60006C08091C80085FFFCCFE09307
:103F2000CE00215030406217730711F7A1960FB6EB
:103F3000F894DEBF0FBECDBFCF91DF911F910F91DF
:103F4000FF90EF90DF90CF90BF90AF909F908F90B9
:103F50007F906F905F904F903F902F900895282F03
:103F6000992787FD9095807F907034E0959587958F
:103F70003A95E1F78A301CF0982F995C02C0982F8F
:103F8000905D822F8F708A301CF0282F295C02C030
:103F9000282F205D662339F48091C00085FFFCCF77
:103FA0009093C60006C08091C80085FFFCCF909317
:103FB000CE00662339F48091C00085FFFCCF2093AA
:103FC000C60008958091C80085FFFCCF2093CE00E5
:103FD00008950F931F938B019C01E42F97FF18C046
:103FE000442341F48091C00085FFFCCF8DE2809393
:103FF000C60007C08091C80085FFFCCF8DE280938A
:10400000CE0030952095109501951F4F2F4F3F4FB3
:10401000C901B8012AE030E040E050E00E2F0E94D4
:104020000D1F1F910F910895EF92FF920F931F9311
:104030007B018C014423C1F588E00E94A91CC801C2
:10404000B70122E030E040E050E00E940736205007
:10405000304F414F5F4FCA01B901A80197010E943B
:104060000736C901DA010197A109B109292F3A2FB1
:104070004B2F552747FD5A950196A11DB11D209341
:10408000C50081508093C4008091C10080618093FD
:10409000C1008091C10088608093C1008091C100FF
:1040A00080688093C10037C080E10E94A91CC801CC
:1040B000B70122E030E040E050E00E940736205097
:1040C000304F414F5F4FCA01B901A80197010E94CB
:1040D0000736C901DA010197A109B109292F3A2F41
:1040E0004B2F552747FD5A950196A11DB11D2093D1
:1040F000CD0081508093CC008091C9008061809375
:10410000C9008091C90088608093C9008091C9006E
:1041100080688093C9001F910F91FF90EF900895E0
:104120000E944E1C89E496E00E94FF2A853440F0EC
:1041300081E361E00E941A1D81E361E00E94381D65
:1041400089E496E061E070E00E94072B8130B1F4D1
:1041500080916F0890917008A0917108B0917208D9
:10416000906880936F0890937008A0937108B09343
:10417000720881E090E060E00E94523987E20E947C
:10418000831D892B09F44FC089E496E060E070E05C
:104190000E94072B8A3009F046C08BEA95E00E9406
:1041A00024278BEA95E00E943B258BEA95E00E944C
:1041B000EB268091C405482F50E08091C605481B2E
:1041C00051098091C305282F30E08091C705281B35
:1041D0003109121613065CF48CE390E0BC01269FB3
:1041E000C001279F900D369F900D11240EC037FF00
:1041F0000EC08CE390E0BC01269FC001279F900D6C
:10420000369F900D1124805F914F480F591F433006
:10421000510548F480917E0890917F0880629093C8
:104220007F0880937E088BEA95E00E9424278BEA22
:1042300095E00E94D7238BEA95E00E94C6238BEA83
:1042400095E00E944D2763E070E080E090E00E94DE
:10425000001C80916F0890917008A0917108B09136
:104260007208A1FF5EC063E070E080E090E00E9411
:10427000001C86E161E00E941A1D63E070E080E0AE
:1042800090E00E94001C86E161E00E94381D63E01E
:1042900070E080E090E00E94001C0E94852763E0AF
:1042A00070E080E090E00E94001C81E00E945E27A8
:1042B00063E070E080E090E00E94001C84E00E94D7
:1042C0006C2763E070E080E090E00E94001C80E0DA
:1042D0000E94672763E070E080E090E00E94001C8D
:1042E0000E945A2763E070E080E090E00E94001C8A
:1042F0008EE396E066E00E94A42763E070E080E031
:1043000090E00E94001C86E161E00E941A1D86E197
:1043100060E00E94381D63E070E080E090E00E9461
:10432000001C63E070E080E090E00E94001C89E4E3
:1043300096E00E94D82C6093A7057093A8058093FF
:10434000A9059093AA058091A7059091A805A09131
:10435000A905B091AA050E94B2360E94400B0E94A6
:104360009F0BFDCFFC01148A158A168A178A108EBE
:10437000118E128E138E148E158E168E178E10A21D
:1043800011A212A213A280E090E0A0E0B0E084A30A
:1043900095A3A6A3B7A3089510923C061092BE055C
:1043A0000895EF92FF920F931F93DF93CF93CDB7B2
:1043B000DEB7EC970FB6F894DEBF0FBECDBF8C0111
:1043C000E5E6F5E065917491B5E1EB2EF12CEC0E8C
:1043D000FD1EC7010E94BD36E7E6F5E065917491C8
:1043E000CE0101960E94BD36D80156968C9184303C
:1043F00009F46DC0853048F4823069F1833008F0EB
:1044000048C0813009F000C10AC0863009F49BC061
:10441000863008F47AC0873009F0F6C0B2C0EDB734
:10442000FEB774970FB6F894FEBF0FBEEDBF31967E
:10443000075D1F4FADB7BEB712961C930E93119731
:104440000952104084E690E093838283F582E482EF
:1044500088EB92E0B3C08DB79EB744970FB6F8943F
:104460009EBF0FBE8DBFEDB7FEB73196075D1F4FE4
:10447000ADB7BEB712961C930E9311970952104018
:1044800084E690E093838283F582E4828CEB92E071
:1044900095C08DB79EB744970FB6F8949EBF0FBED8
:1044A0008DBFEDB7FEB73196075D1F4FADB7BEB7F5
:1044B00012961C930E9311970952104084E690E0D7
:1044C00093838283F582E48280EC92E077C08DB79B
:1044D0009EB744970FB6F8949EBF0FBE8DBFEDB741
:1044E000FEB73196075D1F4FADB7BEB712961C934E
:1044F0000E9311970952104084E690E093838283D3
:10450000F582E48284EC92E059C08DB79EB744975F
:104510000FB6F8949EBF0FBE8DBFEDB7FEB73196B4
:10452000075D1F4FADB7BEB712961C930E93119740
:104530000952104084E690E093838283F582E482FE
:1045400088EC92E03BC08DB79EB744970FB6F894C5
:104550009EBF0FBE8DBFEDB7FEB73196075D1F4FF3
:10456000ADB7BEB712961C930E9311970952104027
:1045700084E690E093838283F582E4828CEC92E07F
:104580001DC08DB79EB744970FB6F8949EBF0FBE5F
:104590008DBFEDB7FEB73196075D1F4FADB7BEB704
:1045A00012961C930E9311970952104084E690E0E6
:1045B00093838283F582E48280ED92E09783868301
:1045C000D80154968C9154978087118655968C917A
:1045D0005597828713865A968C915A9784871586A9
:1045E00057968C9157978687178658968C9158972F
:1045F000808B118A59968C91828B138A0E94F63691
:10460000EDB7FEB774961DC000D000D000D0EDB756
:10461000FEB73196075D1F4FADB7BEB712961C931C
:104620000E9311970952104084E690E093838283A1
:10463000CE010196958384830E94F636EDB7FEB7CE
:1046400036960FB6F894FEBF0FBEEDBF9801275DFA
:104650003F4FC901EC960FB6F894DEBF0FBECDBF39
:10466000CF91DF911F910F91FF90EF9008951F93CD
:10467000CF93DF93EC01162F80919606882321F4C7
:1046800080E996E00E948F2E80E996E068E670E06F
:104690000E94022D80E996E0612F0E941C2EC10F1E
:1046A000D11D80E996E068810E941C2E80E996E089
:1046B0000E944B2EDF91CF911F910895FF920F938F
:1046C0001F93CF93DF938C01F62E8091960688235B
:1046D00021F480E996E00E948F2E80E996E068E65A
:1046E00070E00E94022D80E996E06F2D0E941C2E42
:1046F00080E996E00E944B2E80E996E068E670E043
:1047000041E050E00E948C2EC0E0D0E080E996E0CD
:104710000E940C2D882329F4CA30D10511F021966E
:10472000F5CF80E996E00E94122D0F0D111DF801C2
:10473000808380E996E00E944B2EDF91CF911F91FC
:104740000F91FF9008950F931F938C016FE00E94CB
:104750005E23F801878583701F910F910895CF9391
:10476000DF93EC010E94A323882319F0CE56DF4F7C
:1047700088838091BA058C7F8093BA058BEA95E097
:104780006FE00E943723DF91CF9108950F931F931D
:104790008C016EE00E945E23F80186858D7F8687FE
:1047A000C8016EE00E9437231F910F9108950F9367
:1047B0001F938C016EE00E945E23F80186858E7F38
:1047C0008687C8016EE00E9437231F910F910895DC
:1047D000AF92BF92CF92DF92FF920F931F93CF932E
:1047E000DF938C01F62E80919606882321F480E9D0
:1047F00096E00E948F2E80E996E068E670E00E94C5
:10480000022D80E996E060E070E00E94482E80E989
:1048100096E00E944B2E80E996E068E670E043E166
:1048200050E00E948C2EC0E0D0E0CC24DD24AF2CE0
:10483000BB245AE0F52E0DC180E996E00E940C2DB4
:10484000882309F403C180E996E00E94122D282FE5
:10485000F801EC0FFD1F8083C630D10509F482C03A
:10486000C730D105B8F4C230D10509F44EC0C33009
:10487000D10538F4209769F1C130D10509F0E4C0C1
:1048800036C0C430D10509F451C0C530D10508F097
:104890005BC049C0CA30D10509F49BC0CB30D105FB
:1048A00058F4C830D10509F478C090E02F70C930B1
:1048B000D10508F081C064C0CC30D10509F4A7C08F
:1048C000CC30D10508F494C0CD30D10509F0BCC07E
:1048D000ADC090E044E0959587954A95E1F78F9DAE
:1048E000C00111242F70280FF801218FADC090E076
:1048F00034E0959587953A95E1F78F9DC001112495
:104900002F70280FF801208F9FC090E0B4E095959C
:104910008795BA95E1F78F9DC00111242F70280F5C
:10492000F801278B91C0F801868B8EC090E0A4E03F
:1049300095958795AA95E1F78F9DC00111242F7059
:10494000280FF801228F80C090E0F4E095958795BC
:10495000FA95E1F78F9DC00111242F70280FF801FF
:10496000258B72C090E0E4E095958795EA95E1F794
:104970008F9DC00111242F70280FF801248B64C073
:1049800074E0959587957A95E1F787708F9DC001C2
:104990001124280FF801238F57C090E064E095950B
:1049A00087956A95E1F787708F9DC00111242F705C
:1049B000280FF801248F48C054E0959587955A95A3
:1049C000E1F783708F9DC0011124280FF801258F16
:1049D0003BC090E044E0959587954A95E1F7837058
:1049E0008F9DC00111242F70280FF801268F2CC035
:1049F00090E034E0959587953A95E1F787708F9D23
:104A0000C00111242F70280FF801278F1DC090E0DE
:104A1000B4E095958795BA95E1F783708F9DC001B5
:104A200011242F70280FF80120A30EC090E0A4E0FD
:104A300095958795AA95E1F783708F9DC001112404
:104A40002F70280FF80121A3219603C00894C11CE0
:104A5000D11CAC16BD0628F0FAE0CF16D10408F43C
:104A6000EBCEDF91CF911F910F91FF90DF90CF9010
:104A7000BF90AF900895AF92BF92CF92DF92EF9226
:104A8000FF920F931F93DF93CF93CDB7DEB7C85735
:104A9000D0400FB6F894DEBF0FBECDBF6C016AE008
:104AA0000E94E82349E2A42EB12CAC0CBD1C84E684
:104AB000D5011D928A95E9F7E3E4F5E065917491DB
:104AC0008E010F5F1F4FC8010E94BD36C501B8019E
:104AD0000E94D836F60182A1823009F476C0833074
:104AE00030F4882371F0813009F03CC11AC0843061
:104AF00009F4F2C0843008F4AEC0853009F032C148
:104B000027C1E5E4F5E065917491C8010E94BD36C6
:104B1000C501B8010E94D836E3E5F5E065917491CE
:104B20000FC0E7E4F5E065917491C8010E94BD36BD
:104B3000C501B8010E94D836E3E5F5E065917491AE
:104B40008E01075D1F4FC8010E94BD368DB79EB70D
:104B50000E970FB6F8949EBF0FBE8DBFEDB7FEB790
:104B6000319631E5E32EF12CEC0EFD1EADB7BEB74C
:104B70001296FC92EE92119788E290E093838283E2
:104B800015830483D6015E968C915E978683178287
:104B90005D968C915D97808711865C968C915C9771
:104BA000828713865B968C91848715860E94F636E1
:104BB000EDB7FEB73E960FB6F894FEBF0FBEEDBF41
:104BC000C501B7010E94D836F3C0E9E4F5E065916C
:104BD0007491C8010E94BD36C501B8010E94D83643
:104BE000E5E5F5E0659174918E01075D1F4FC80101
:104BF0000E94BD368DB79EB70C970FB6F8949EBF36
:104C00000FBE8DBFEDB7FEB7319621E5E22EF12C38
:104C1000EC0EFD1EADB7BEB71296FC92EE92119748
:104C200088E290E09383828315830483D6015D96A6
:104C30008C915D97868317825C968C915C978087B8
:104C400011865B968C91828713860E94F636EDB7AB
:104C5000FEB73C96B0CFEBE4F5E065917491C801E6
:104C60000E94BD36C501B8010E94D836E7E5F5E0DF
:104C7000659174918E01075D1F4FC8010E94BD367A
:104C80008DB79EB70A970FB6F8949EBF0FBE8DBF23
:104C9000EDB7FEB7319691E5E92EF12CEC0EFD1E35
:104CA000ADB7BEB71296FC92EE92119788E290E0F3
:104CB0009383828315830483D6015C968C915C97E1
:104CC000868317825B968C91808711860E94F636C8
:104CD000EDB7FEB73A966FCFEDE4F5E065917491CC
:104CE000C8010E94BD36C501B8010E94D836E9E569
:104CF000F5E0659174918E01075D1F4FC8010E9418
:104D0000BD368DB79EB708970FB6F8949EBF0FBEFD
:104D10008DBFEDB7FEB7319681E5E82EF12CEC0E94
:104D2000FD1EADB7BEB71296FC92EE92119788E2C7
:104D300090E09383828315830483D6015B968C91E4
:104D4000868317820E94F636EDB7FEB7389633CFCA
:104D5000EFE4F5E065917491C8010E94BD36C5018C
:104D6000B80130CFE1E5F5E0659174918E010F5FF8
:104D70001F4FC8010E94BD3600D000D000D0EDB753
:104D8000FEB73196ADB7BEB71296BC92AE921197F0
:104D900084E690E093838283158304830E94F63631
:104DA000EDB7FEB736960FB6F894FEBF0FBEEDBF57
:104DB000C501C858DF4F0FB6F894DEBF0FBECDBF98
:104DC000CF91DF911F910F91FF90EF90DF90CF90E7
:104DD000BF90AF9008950F931F938C0166E00E94DF
:104DE000E823C8010E94D1211F910F9108950F93CC
:104DF0001F93CF93DF93EC01042F68A780E361E05A
:104E00000E941A1D18A5112379F0113091F480E346
:104E100061E00E94381D013019F482E08B8B09C0DB
:104E2000002339F41B8B05C080E360E00E94381D2D
:104E30001B8A6AE070E080E090E00E94001CDF9135
:104E4000CF911F910F9108950F931F938C0161E0F3
:104E500040E00E94F726C8010E94AF23C8010E94CB
:104E6000B221C8016DE00E94E8238BE261E00E945C
:104E70001A1D8BE260E00E94381D1F910F9108956A
:104E800080919606882341F08091AC06882321F416
:104E900081EB96E00E94023208950F931F938C01DC
:104EA0000E944027C80160E040E00E94F7261F9161
:104EB0000F9108958CB58F7B8CBD0895882319F4CC
:104EC0008CB5806202C08CB58F7D8CBD08959CB579
:104ED000937F982B9CBD08959CB5282F23709C7FB1
:104EE000292B2CBD9DB581709E7F982B9DBD08956B
:104EF00010923F0610923E06109240061092410614
:104F0000109242061092430608958EE161E00E94DD
:104F10001A1D8FE161E00E941A1D8DE161E00E947F
:104F20001A1D8EE160E00E94381D8FE160E00E9452
:104F3000381D8DE161E00E94381D8CB580618CBD0B
:104F40008CB580648CBD08951F93162F8DE161E0B0
:104F50000E941A1D82E261E00E941A1D8DE161E04B
:104F60000E94381D82E261E00E94381D80916F0826
:104F700090917008A0917108B0917208A2FF08C0CA
:104F800088E061E00E941A1D88E061E00E94381DFF
:104F900080916F0890917008A0917108B09172088B
:104FA00096FF08C089E061E00E941A1D89E061E077
:104FB0000E94381D80916F0890917008A09171082F
:104FC000B0917208A3FF08C082E061E00E941A1D40
:104FD00082E061E00E94381D80916F089091700816
:104FE000A0917108B0917208A4FF08C082E261E04C
:104FF0000E941A1D82E261E00E94381D1330C9F040
:10500000143028F4113069F0123068F408C01530FB
:1050100041F11530D0F0163009F062C02FC08DE19B
:105020002BC082E229C089E496E00E94702B8CE2BA
:1050300023C080916F0890917008A0917108B09181
:105040007208A2FF4DC088E017C080916F08909150
:105050007008A0917108B091720896FF41C089E074
:105060000BC080916F0890917008A0917108B09169
:105070007208A3FF35C082E060E030C08DE161E0DE
:105080000E94381D82E261E00E94381D80916F0805
:1050900090917008A0917108B0917208A2FF04C0AD
:1050A00088E061E00E94381D80916F08909170083F
:1050B000A0917108B091720896FF04C089E061E088
:1050C0000E94381D80916F0890917008A09171081E
:1050D000B0917208A3FF04C082E061E00E94381D15
:1050E0001F910895109244060895CF93DF93EC0129
:1050F00080916F0890917008A0917108B09172082A
:1051000082FF0BC063E070E080E090E00E94001C32
:105110008BE061E00E94381D06C063E070E080E033
:1051200090E00E94001C89818093C5008A81809351
:10513000C4008B818093C2008C818093CA00DF9170
:10514000CF910895DC018091C50011968C93119741
:105150008091C40012968C931297E2ECF0E080816B
:1051600013968C9313978091CA0014968C9314977E
:1051700080818F7D808380818F7E80838081877F07
:10518000808360E072EC81E090E04C910E941420FA
:1051900087E161E00E94381D8BE060E00E94381DCD
:1051A0000895FF920F931F938C01F62E0E94A22860
:1051B0008F2D60E00E94AF1FC8010E9475281F91CB
:1051C0000F91FF9008950F931F938C010E94A228C6
:1051D000F80180810E94D51EC8010E9475281F9188
:1051E0000F910895EF92FF920F931F93CF93DF9348
:1051F000EC01162F072F0E94A228212F302FC90162
:105200008C0188EEE82E83E0F82EE00EF11EF80106
:105210000F5F1F4F8491882331F068810E94C41E64
:105220000E151F05A1F7CE010E94752860E070E001
:1052300080E090E0DF91CF911F910F91FF90EF9070
:105240000895CF92DF92EF92FF920F931F938C01FC
:105250000E94F228F62EE72ED82EC92EC8010E94F1
:10526000E3286F2D7E2D8D2D9C2D1F910F91FF908A
:10527000EF90DF90CF900895FF920F931F938C01D2
:10528000F62E0E94A2288F2DF80160810E94C41E74
:10529000C8010E9475281F910F91FF900895EF9209
:1052A000FF920F931F938C017B010E94A228C701DC
:1052B000F80160810E94F71EF80180810E94D51ECE
:1052C000C8010E9475281F910F91FF90EF900895DB
:1052D000EF92FF920F931F938C017B010E94A228F3
:1052E000C701F80160810E94F71EC8010E9475285D
:1052F0001F910F91FF90EF9008957F928F929F9250
:10530000AF92BF92CF92DF92EF92FF920F931F93D3
:10531000CF93DF93EC017A018B01722E0E94A228B9
:10532000C801B70120E030E040E050E00E94883240
:10533000882344F48DE268810E94C41E17FB1095F7
:1053400017F9109520E030E040E05FE3DD240BC06A
:10535000CA01B90120E030E040E251E40E948C3201
:105360009B01AC01D394D71498F3C801B7010E94F4
:1053700024324B015C010E94F9326B017C012AE06E
:1053800030E040E050E008810E940D1F772021F0BE
:105390008EE268810E94C41EC701B6010E942533B7
:1053A0009B01AC01C501B4010E94233224C020E05E
:1053B00030E040E251E40E94D7336B017C010E944F
:1053C000F4324B015C01AA2497FCA094BA2CC501CD
:1053D000B4012AE030E040E050E008810E940D1F57
:1053E000C501B4010E9427339B01AC01C701B6017E
:1053F0000E9423327A947720D1F6CE010E9475283C
:10540000DF91CF911F910F91FF90EF90DF90CF90A0
:10541000BF90AF909F908F907F9008950F931F93B0
:105420008C012AE00E947D29C8010E94E3281F9177
:105430000F910895CF92DF92EF92FF920F931F93F7
:10544000CF93DF937C018A01D62EC72EE9010E94FB
:10545000A228209731F4802FF70160810E94C41E9A
:1054600017C0CA30D10541F4B8018D2D9C2DF7012C
:1054700040810E94E91F0CC09E01442737FD4095E2
:10548000542FB8018D2D9C2DF70100810E940D1F16
:10549000F70180810E94D51EC7010E947528DF9107
:1054A000CF911F910F91FF90EF90DF90CF900895D3
:1054B000CF92DF92EF92FF920F931F93CF93DF93E0
:1054C0007C018A01D62EC72EE9010E94A2282097CE
:1054D00031F4802FF70160810E94C41E17C0CA30CA
:1054E000D10541F4B8018D2D9C2DF70140810E941A
:1054F000E91F0CC09E01442737FD4095542FB80189
:105500008D2D9C2DF70100810E940D1FC7010E9467
:105510007528DF91CF911F910F91FF90EF90DF9051
:10552000CF9008950F931F93CF93DF938B01BA0110
:10553000DA0140E050E0C22FD0E019C0F801E40FDA
:10554000F51F8081982F92959F708F709A3010F47C
:10555000905D01C0995C9C938A3010F4805D01C01D
:10556000895C11968C9311974F5F5F4F12964C1781
:105570005D0724F3CC0FDD1FC60FD71F1882DF9104
:10558000CF911F910F910895FB019081892F805336
:105590008A3038F4292F332727FD309520533040A7
:1055A0000DC0892F8154863018F020E030E007C00C
:1055B000292F332727FD30952753304031966081BE
:1055C000862F80538A3030F4772767FD70956053BB
:1055D00070400CC0862F8154863018F060E070E077
:1055E00005C0772767FD70956753704094E0220FE0
:1055F000331F9A95E1F7862F820F089508958FED56
:1056000090E00E9444398F3F09F480E00895CB0177
:105610000E944439089584E06030780724F0CB017B
:10562000642F0E9452390895CF92DF92EF92FF9239
:105630000F931F93CF93DF936A01EB010990002032
:10564000E9F72197C61BD70BD695C7957B0100E0DC
:1056500010E00FC089E496E0B7010E94C42AF60169
:10566000E00FF11F80830F5F1F4F82E090E0E80E94
:10567000F91E0C171D0770F3CE01DF91CF911F911A
:105680000F91FF90EF90DF90CF90089587E161E058
:105690000E941A1D8BE061E00E941A1D87E161E003
:1056A0000E94381D8BE061E00E94381D089587E15B
:1056B00061E00E941A1D84E261E00E941A1D85E2E9
:1056C00061E00E941A1D87E161E00E94381D84E2BA
:1056D00061E00E94381D85E260E00E94381D089557
:1056E00087E161E00E941A1D84E261E00E941A1DB8
:1056F00085E261E00E941A1D87E161E00E94381D89
:1057000084E261E00E94381D85E261E00E94381D5C
:1057100008950F931F93162F042F862F61E00E9488
:105720001A1D013019F4812F61E004C0002321F417
:10573000812F60E00E94381D1F910F9108952F92D4
:105740003F924F925F926F927F928F929F92AF9211
:10575000BF92CF92DF92EF92FF920F931F93DF934E
:10576000CF93CDB7DEB7C75FD0400FB6F894DEBF9A
:105770000FBECDBF2DB63EB68DB79EB708970FB6FC
:10578000F8949EBF0FBE8DBFADB6BEB60894A11CE7
:10579000B11C7501CC24DD244E010894811C911CA0
:1057A000CE0180599F4FAEEF4A2EAFEF5A2E480ED2
:1057B000591EF0E16F2E712C680E791EDE01A05289
:1057C000BF4FC051DF4FB983A883C05FD040FE01F7
:1057D0003E96CE50DF4FF983E883C25FD040C401CC
:1057E0006DE00E94F33089E496E06CE040E00E94B6
:1057F000892B89E496E06DE040E00E94892BD70177
:105800001D921D921D921C9213978CE061E00E94E4
:105810001A1D8CE061E00E94381DC4010E942B31EA
:1058200089E496E06DE041E00E94892B6AE070E037
:1058300080E090E00E94001CC40163E340E00E940D
:10584000B33062E370E080E090E00E94001C8E01C3
:1058500002511F4FC4010E944B30F8018083118216
:1058600061E070E080E090E00E94001C0250104077
:105870000415150579F7F301DE0150968191919198
:105880008D939D93C051DF4F88819981C05FD04037
:10589000E817F90799F7BE0162597F4F21E030E020
:1058A00040E050E0DB018D919C91019779F4D701A4
:1058B0008D919D910D90BC91A02D820F931FA41FDF
:1058C000B51FF70180839183A283B3836250704038
:1058D000CE50DF4F88819981C25FD0406817790729
:1058E00029F0220F331F441F551FDCCFF7018081A1
:1058F0009181A281B3818F5F9F4FAF4FBF4F31F432
:10590000D7011D921D921D921C9213978CE060E0AE
:105910000E94381D89E496E06CE040E00E94892BEB
:1059200089E496E06DE040E00E94892B0894C11C58
:10593000D11CE4E0F0E0EE0EFF1EF2E0CF16D10441
:1059400009F04DCFD5012D913D914D915C9113976B
:1059500014968D919D910D90BC91A02D281739071B
:105960004A075B0721F020E030E040E050E0B90159
:10597000CA010FB6F8943EBE0FBE2DBEC950DF4F10
:105980000FB6F894DEBF0FBECDBFCF91DF911F9150
:105990000F91FF90EF90DF90CF90BF90AF909F90CE
:1059A0008F907F906F905F904F903F902F900895D1
:1059B000EF92FF920F931F930E949F2B7B018C010C
:1059C0006115710581059105B1F483EE90E00E94A7
:1059D0004C396A302AE072072AE082072AE09207EF
:1059E00051F06F3F2FEF72072FEF82072FEF9207D3
:1059F00011F07B018C01B701C8011F910F91FF903D
:105A0000EF90089581E080938F0660936C0610926A
:105A10008D0610928E06089580916B0690916A060D
:105A2000891B089590916A0680916B06981710F073
:105A300080E00895E92FF0E0E65BF94F80819F5FF9
:105A400090936A060895109297061092900610920D
:105A500091068AEF90E0A0E0B0E0809392069093E8
:105A60009306A0939406B09395060895CF93DF9381
:105A7000EC0180916F0890917008A0917108B0912D
:105A8000720884FD3CC080916F0890917008A091CD
:105A90007108B091720885FD32C080916F089091B5
:105AA0007008A0917108B091720886FD28C080919D
:105AB0006F0890917008A0917108B091720887FDED
:105AC0001EC080916F0890917008A0917108B091EC
:105AD000720890FD14C080916F0890917008A09199
