:100000000C9469050C945A320C948B320C94BC32CB
:100010000C94ED320C941E330C944F330C948033BB
:100020000C94B1330C9491050C9491050C949105AA
:100030000C945C200C9491050C9491050C94BE1EBC
:100040000C9491050C9491050C9491050C949105D8
:100050000C9491050C9491050C9491050C94991EA7
:100060000C9491050C94BB210C9491050C94910572
:100070000C9491050C9491050C9491050C949105A8
:100080000C9491050C9491050C9491050C94910598
:100090000C94FC210C9491050C9491050C94931CE8
:1000A0000C9491050C9491050C9491050C94910578
:1000B0000C9491050C9491050C9491050C94910568
:1000C0000C9491050C9491050C94910507634236AC
:1000D000B79BD8A71A39685618AEBAAB558C1D3CD9
:1000E000B7CC5763BD6DEDFD753EF6177231BF009D
:1000F0000000803F08000000BE922449123EABAAD7
:10010000AA2ABECDCCCC4C3E00000080BEABAAAA31
:10011000AA3E00000000BF000000803F0000000079
:1001200000084178D3BB4387D1133D190E3CC3BDB2
:100130004282AD2B3E68EC8276BED98FE1A93E4C5F
:1001400080EFFFBE01C4FF7F3F0000000000446558
:1001500076696365206E6F7420666F756E643A20F1
:10016000004E4F5420436F6E6E65637465640044A7
:100170006973636F6E6E65637465642E0054656D9C
:100180007065726174757265206D656173757265F5
:100190006D656E742070757420746F20736C656566
:1001A00070004661696C656420737562736372697F
:1001B00062696E672E004E6F746966696361746967
:1001C0006F6E2072656365697665642E005761699C
:1001D00074696E67206576656E74732E2E2E0052DC
:1001E000656164696E6720617474726962757465B3
:1001F0002E2E200045787465726E2074656D7065D2
:10020000726174757265206D6561737572656D6577
:100210006E7420696E2070726F67726573732E2E14
:100220000057726974696E672061747472696275CF
:1002300074652E2E20004174747269627574652095
:1002400056616C756520284153434949293A20007D
:100250004174747269627574652056616C75653A93
:10026000200052656164696E67206174747269620E
:100270007574652E2E200045787465726E20646555
:100280007669636520666F756E642E20436F6E6EAF
:10029000656374696E672E2E2E2000466972737432
:1002A000207363616E20666F722065787465726E6C
:1002B0002064657669636500496E7465726E2064BA
:1002C0006576696365206E6F7420666F756E643A3B
:1002D00020004E4F5420436F6E6E6563746564005A
:1002E000496E7465726E2064657669636520646921
:1002F00073636F6E6E65637465642E004C69676826
:100300007420696E74656E73697479206D656173AC
:100310007572656D656E742070757420746F2073CE
:100320006C656570004661696C6564207375627305
:1003300063726962696E672E004E6F7469666963E5
:100340006174696F6E2072656365697665642E00FD
:1003500057616974696E67206576656E74732E2EB9
:100360002E0052656164696E6720617474726962FF
:100370007574652E2E20004C6967687420696E7450
:10038000656E73697479206D6561737572656D65ED
:100390006E7420696E2070726F67726573732E2E93
:1003A0000057726974696E6720617474726962754E
:1003B00074652E2E200054656D70657261747572BF
:1003C00065206D6561737572656D656E74207075FD
:1003D0007420746F20736C656570004661696C658C
:1003E00064207375627363726962696E672E004E72
:1003F0006F74696669636174696F6E2072656365A5
:10040000697665642E0057616974696E6720657648
:10041000656E74732E2E2E0052656164696E6720BE
:100420006174747269627574652E2E2000496E7451
:1004300065726E2054656D706572617475726520A9
:100440006D6561737572656D656E7420696E20707F
:10045000726F67726573732E2E0057726974696EBE
:1004600067206174747269627574652E2E20004174
:1004700074747269627574652056616C75652028A4
:100480004153434949293A200041747472696275A5
:1004900074652056616C75653A2000526561646927
:1004A0006E67206174747269627574652E2E200007
:1004B000496E7465726E2064657669636520666F47
:1004C000756E642E20436F6E6E656374696E672E61
:1004D0002E2E20004669727374207363616E20664D
:1004E0006F7220696E7465726E20646576696365EB
:1004F00000424C455F3037204578616D706C650077
:10050000380541054F05740588059505A905BD0504
:100510002406580670067B068C069D06B006BD06AE
:10052000424C45206D6F64756C65206E6F7420645D
:100530006574656374656400303030303037304343
:10054000005363616E20706172616D733A200031F7
:10055000253032782530327825303278253032789F
:1005600025303278253032783B2025643B202575B4
:100570003B0D0A00443A257825782578257825789A
:1005800025783B2025642C003B20496E6465783D2E
:1005900025750D0A0053746F70206661696C2E20FA
:1005A0006572723A2025780A005363616E20666195
:1005B000696C2E206572723A2025780A00536361B7
:1005C0006E20706172616D733A20474150206D6FEB
:1005D00064653D25753B207363616E5F696E74656C
:1005E0007276616C3D25753A207363616E5F776941
:1005F0006E646F773D25753B207363616E5F647534
:10060000706C69636174655F66696C746572696E4C
:10061000673D25753B205458506F7765723D2575B1
:100620003B0D0A004465766963652025753B2025EE
:1006300030327825303278253032782530327825BE
:10064000303278253032783B20525353493A256472
:100650003B204E616D653A006572726F7220777251
:100660006974696E672E206572723A2025780A00D7
:10067000092065633A2025780D0A004144437661DC
:100680006C28484558293A25780D0A00414443769C
:10069000616C28444543293A25640D0A00414443CE
:1006A00056616C6D5628444543293A25730D0A005E
:1006B000546128444543293A25730D0A0041747456
:1006C00072696275746520257520496E646963617D
:1006D000746564210D0A004E0762078807AF07CFD3
:1006E00007E707F50705081A08300841084D0854C0
:1006F0000871088F08A508B308C308E608EC085776
:10070000726F6E672074696D6520666F726D6174BB
:100710002E204D757374206265202264643A6868E7
:100720003A6D6D220057726F6E672074696D652097
:10073000666F726D61742E204D7573742062652032
:100740002264643A68683A6D6D3A73732200416CB2
:1007500061726D204D6F6465206D617463686573AF
:1007600020005B446179203A20686F757273203AEB
:10077000206D696E75746573203A207365636F6EC2
:1007800064735D202D3E20005B44617465203A2037
:10079000686F757273203A206D696E757465732089
:1007A0003A207365636F6E64735D202D3E20005B9D
:1007B000486F757273203A206D696E757465732089
:1007C0003A207365636F6E64735D202D3E20005B7D
:1007D0004D696E75746573203A207365636F6E643E
:1007E000735D202D3E20005B5365636F6E64735D07
:1007F000202D3E20004F6E6365207065722073656A
:10080000636F6E6400496E636F727265637420611A
:100810006C61726D206D6F6465005B253032753AD6
:10082000253032753A253032753A253032755D0003
:100830005B253032753A253032753A253032755D98
:10084000005B253032753A253032755D005B25300E
:1008500032755D005B446179203A20686F75727370
:10086000203A206D696E75746573205D202D3E20E1
:10087000005B44617465203A20686F757273203A9A
:10088000206D696E75746573205D202D3E20005BC0
:10089000486F757273203A206D696E757465735D6B
:1008A000202D3E20005B4D696E757465735D202DB3
:1008B0003E20004F6E636520706572206D696E7515
:1008C00074650025732C20253032752F2530327544
:1008D0002F253032752C20253032753A253032756F
:1008E0003A25303275006572726F720025303275AC
:1008F0002563253032752563253032752563253013
:1009000032752563253032752563253032752563B0
:100910002530327500002124272A2D30330022256E
:10092000282B2E313400202326292C2F32050505B3
:10093000050303030301010104040306060606067A
:100940000606060104050105010302020202020275
:100950000102020505040403040401030407070758
:1009600001020810102040800408102040020204F8
:100970000810204080010280204004200101020470
:100980000810200140804080010208040880041003
:10099000040201000008090000000000000000003F
:1009A0000000000000000000000000000000000047
:1009B0000000000000000000000000000000000037
:1009C00000000000000000407A10F35A00A0724EB0
:1009D00018090010A5D4E80000E87648170000E4E4
:1009E0000B54020000CA9A3B000000E1F50500002C
:1009F00080969800000040420F000000A086010091
:100A00000000102700000000E80300000000640060
:100A1000000000000A0000000000010000000000CB
:100A20002C76D888DC674F0823DFC1DFAE59E1B1EF
:100A3000B796E5E3E453C63AE651997696E8E6C2FE
:100A40008426EB898C9B62ED407C6FFCEFBC9C9F05
:100A500040F2BAA56FA5F490055A2AF75C936B6C27
:100A6000F9676DC11BFCE0E40D47FEF520E6B5001B
:100A7000D0ED902E0300943577050080841E080089
:100A800000204E0A000000C80C333333330F986E39
:100A900012831141EF8D2114893BE65516CFFEE6F6
:100AA000DB18D1844B381BF77C1D901DA4BBE424BC
:100AB000203284725E228100C9F124ECA1E53D2739
:100AC00012134525F12AEB2BA42EC930E2334B3506
:100AD000B53511241FBECFEFD1E2DEBFCDBF14E08C
:100AE000A0E0B2E0E4E4F0E802C005900D92A63286
:100AF000B107D9F71CE0A6E2B4E001C01D92AF3CFB
:100B0000B107E1F71AE0C2EDDAE004C02297FE0176
:100B10000E94013AC03CD107C9F70E9409240C94F5
:100B200020400C940000EF92FF920F93DF93CF933D
:100B3000CDB7DEB760970FB6F894DEBF0FBECDBF5E
:100B4000A82F002309F461C07E010894E11CF11C68
:100B500088E0F70111928A95E9F729833A834B835C
:100B60005C836D837E83AF83988780E2801BE82F50
:100B7000FF27E7FDF09549815A816B817C8118162A
:100B800084F019861A861B861C86882799278E1B57
:100B90009F0B04C0440F551F661F771F8A95D2F71D
:100BA00028C0202F332727FD3095DB01CA01022EF4
:100BB00004C0880F991FAA1FBB1F0A94D2F7898708
:100BC0009A87AB87BC8704C07695679557954795FC
:100BD000EA95D2F78D819E81AF81B88504C0880FD8
:100BE000991FAA1FBB1F2A95D2F7482B592B6A2B96
:100BF0007B2B4D875E876F87788B29853A854B8560
:100C00005C856D857E85AF8598898A2F60960FB645
:100C1000F894DEBF0FBECDBFCF91DF910F91FF9053
:100C2000EF900895AEE5B0E0E8E1F6E00C94C83945
:100C3000A8E04E010894811C911CF4016A2E1192C7
:100C40006A94E9F729833A834B835C836D837E83BF
:100C50008F839887CE010996FC011192AA95E9F736
:100C6000A986BA86CB86DC86ED86FE860F87188B32
:100C700029843A844B845C84ED84FE840F85188932
:100C800069807A808B809C806DA67EA68FA698AAAC
:100C90006D807E808F809884E114F1040105110538
:100CA00009F0B3C3621473048404950408F03DC1D1
:100CB00000E0201600E0300601E0400600E05006AB
:100CC00088F41FEF211631044104510439F030F04B
:100CD00048E0E42EF12C012D112D18C0EE24FF2444
:100CE000870114C020E0221620E0320620E04206F0
:100CF00021E0520630F038E1E32EF12C012D112DC8
:100D000005C020E1E22EF12C012D112DD201C101EF
:100D10000E2C04C0B695A795979587950A94D2F79F
:100D20008C5F9C4FDC012C9180E290E0A0E0B0E071
:100D30008E199F09A00BB10B7C018D01E21AF108FD
:100D400001091109E114F10401051105A1F10E2CAD
:100D500004C0220C331C441C551C0A94D2F7A40175
:100D600093010E2C04C0220F331F441F551F0A94F9
:100D7000D2F780E290E08E199F096DA47EA48FA423
:100D800098A804C096948794779467948A95D2F72C
:100D9000622A732A842A952AADA4BEA4CFA4D8A817
:100DA00004C0AA0CBB1CCC1CDD1CEA94D2F7ADA677
:100DB000BEA6CFA6D8AA6201EE24FF24CDAADEAA41
:100DC000EFAAF8AE920181012070307009AF1AAF1E
:100DD0002BAF3CAFC401B301A70196010E948B3930
:100DE0007B018C01C401B3012DA93EA94FA958ADC7
:100DF0000E948B39C901DA013C014D01C401B301E4
:100E000029AD3AAD4BAD5CAD0E9445399B01AC01BB
:100E10008701FF24EE24ADA4BEA4CFA4D8A8C601A8
:100E2000AA27BB2757016801A82AB92ACA2ADB2AA0
:100E3000A216B306C406D506E0F40894610871084A
:100E400081089108A20CB31CC41CD51CA214B304C5
:100E5000C404D50470F0A216B306C406D50648F43F
:100E600008946108710881089108A20CB31CC41C85
:100E7000D51CA21AB30AC40AD50AC601B5012DA908
:100E80003EA94FA958AD0E948B397B018C01C60148
:100E9000B5012DA93EA94FA958AD0E948B39C901B2
:100EA000DA015C016D01C601B50129AD3AAD4BAD6A
:100EB0005CAD0E9445399B01AC018701FF24EE2403
:100EC0008DA59EA5AFA5B8A9A070B070E82AF92A93
:100ED0000A2B1B2BE216F30604071507C0F408942F
:100EE000A108B108C108D108E20CF31C041D151DAE
:100EF000E214F3040405150550F0E216F3060407A6
:100F0000150728F40894A108B108C108D108D30135
:100F10009927882786017501E82AF92A0A2B1B2BB5
:100F2000E9AAFAAA0BAB1CABCFC4211431044104CB
:100F3000510471F461E070E080E090E020E030E086
:100F400040E050E00E948B39C901DA011C012D01FB
:100F500000E0201600E0300601E0400600E0500608
:100F600088F41FEF211631044104510431F028F0B8
:100F700048E050E060E070E017C040E050E060E022
:100F800070E012C020E0221620E0320620E0420687
:100F900021E0520628F048E150E060E070E004C033
:100FA00040E150E060E070E0D201C101042E04C0D5
:100FB000B695A795979587950A94D2F78C5F9C4F25
:100FC000DC012C91E0E2EE2EF12C012D112DD80147
:100FD000C701841B950BA60BB70B821B9109A109B6
:100FE000B1090097A105B10561F464015301A2188C
:100FF000B308C408D50831E0632E712C812C912CE4
:101000001EC16F968FAF6F97082E04C0220C331C41
:10101000441C551C0A94D2F7EE2DE81B64015301C1
:101020000E2E04C0D694C794B794A7940A94D2F70E
:10103000A40193016F960FAC6F9704C0220F331F6A
:10104000441F551F0A94D2F76DA47EA48FA498A8BC
:101050000E2E04C096948794779467940A94D2F7DE
:1010600084017301E22AF32A042B152BE9A6FAA6C0
:101070000BA71CA7320188249924920181012070BA
:10108000307021960CAF1DAF2EAF3FAF2197C60138
:10109000B501A40193010E948B397B018C01C6012B
:1010A000B501A40193010E948B39C901DA0125968B
:1010B0008CAF9DAFAEAFBFAF2597BC01CD012196E0
:1010C0002CAD3DAD4EAD5FAD21970E9445399B01E2
:1010D000AC018701FF24EE24A9A4BAA4CBA4DCA40C
:1010E000C601AA27BB275C016D01AE28BF28C02A14
:1010F000D12AA216B306C406D50660F525966CADB6
:101100007DAD8EAD9FAD2597615070408040904081
:1011100025966CAF7DAF8EAF9FAF2597A20CB31C09
:10112000C41CD51CA214B304C404D50498F0A216A0
:10113000B306C406D50670F46150704080409040FC
:1011400025966CAF7DAF8EAF9FAF2597A20CB31CD9
:10115000C41CD51CA21AB30AC40AD50AC601B5011B
:10116000A40193010E948B397B018C01C601B5015A
:10117000A40193010E948B39C901DA013C014D01A0
:10118000C401B30121962CAD3DAD4EAD5FAD2197AD
:101190000E9445399B01AC018701FF24EE2489A5FB
:1011A0009AA5ABA5BCA5A070B07057016801A82A8C
:1011B000B92ACA2ADB2AA216B306C406D506E0F469
:1011C00008946108710881089108A20CB31CC41C22
:1011D000D51CA214B304C404D50470F0A216B3063F
:1011E000C406D50648F4089461087108810891087E
:1011F000A20CB31CC41CD51C8DA59EA5AFA5B8A977
:101200006F960FAC6F9704C0880F991FAA1FBB1F62
:101210000A94D2F78DA79EA7AFA7B8ABA21AB30ABC
:10122000C40AD50A2596ECACFDAC0EAD1FAD2597D2
:10123000D70199278827682A792A8A2A9B2A820136
:101240002227332729960CAF1DAF2EAF3FAF29972A
:10125000A2019101407050702D962CAF3DAF4EAF62
:101260005FAF2D97C601B50129962CAD3DAD4EADB2
:101270005FAD29970E948B397B018C01C601B501B6
:1012800029962CAD3DAD4EAD5FAD29970E948B39AF
:10129000C901DA0161968CAF9DAFAEAFBFAF619768
:1012A000BC01CD012D962CAD3DAD4EAD5FAD2D9762
:1012B0000E9445399B01AC018701FF24EE24ADA4B7
:1012C000BEA4CFA4D8A8C601AA27BB27570168018E
:1012D000A82AB92ACA2ADB2AA216B306C406D5064A
:1012E00060F561966CAD7DAD8EAD9FAD619761503F
:1012F00070408040904061966CAF7DAF8EAF9FAFE5
:101300006197A20CB31CC41CD51CA214B304C40462
:10131000D50498F0A216B306C406D50670F4615041
:1013200070408040904061966CAF7DAF8EAF9FAFB4
:101330006197A20CB31CC41CD51CA21AB30AC40A20
:10134000D50AC601B50129962CAD3DAD4EAD5FADB8
:1013500029970E948B397B018C01C601B501299622
:101360002CAD3DAD4EAD5FAD29970E948B39C901C3
:10137000DA015C016D01C601B5012D962CAD3DADC4
:101380004EAD5FAD2D970E9445399B01AC018701A1
:10139000FF24EE248DA59EA5AFA5B8A9A070B070BE
:1013A000E82AF92A0A2B1B2BE216F3060407150775
:1013B000C0F40894A108B108C108D108E20CF31CDC
:1013C000041D151DE214F3040405150550F0E21682
:1013D000F3060407150728F40894A108B108C1080A
:1013E000D1086196ECACFDAC0EAD1FAD6197D70195
:1013F0009927882796018501082B192B2A2B3B2B2F
:1014000009AB1AAB2BAB3CAB62C26E147F048006F7
:10141000910608F451C220E0E21620E0F20621E035
:10142000020720E0120788F43FEFE316F1040105FC
:10143000110531F028F048E050E060E070E017C09E
:1014400040E050E060E070E012C040E0E41640E0B0
:10145000F40640E0040741E0140728F048E150E0BA
:1014600060E070E004C040E150E060E070E0D8016E
:10147000C701042E04C0B695A795979587950A9441
:10148000D2F78C5F9C4FDC012C9130E2A32EB12C63
:10149000C12CD12CD601C501841B950BA60BB70B13
:1014A000821B9109A109B1090097A105B10589F431
:1014B000E614F7040805190508F4F2C16DA47EA42A
:1014C0008FA498A8621473048404950408F0E8C1FA
:1014D000F3C16E968FAF6E97082E04C0EE0CFF1C02
:1014E000001F111F0A94D2F76A2D681BD201C10197
:1014F000062E04C0B695A795979587950A94D2F7BE
:101500005C016D01AE28BF28C02AD12AADA2BEA2BF
:10151000CFA2D8A6720161016E960FAC6E9704C07F
:10152000CC0CDD1CEE1CFF1C0A94D2F7C9A2DAA277
:10153000EBA2FCA264015301062E04C0D694C7940A
:10154000B794A7940A94D2F7D401C3016E960FAC56
:101550006E9704C0880F991FAA1FBB1F0A94D2F769
:10156000EDA4FEA40FA518A904C016950795F7943D
:10157000E7946A95D2F737014801682A792A8A2ABE
:101580009B2A6D8E7E8E8F8E98A2EDA0FEA00FA15D
:1015900018A538018824992498018701207030709B
:1015A00065960CAF1DAF2EAF3FAF6597C601B50175
:1015B000A40193010E948B397B018C01C601B50106
:1015C000A40193010E948B39C901DA011C012D018C
:1015D000C201B10165962CAD3DAD4EAD5FAD6597D5
:1015E0000E9445399B01AC018701FF24EE24AD8C9C
:1015F000BE8CCF8CD8A0C601AA27BB275701680193
:10160000A82AB92ACA2ADB2AA216B306C406D50616
:1016100000F508942108310841085108EDA0FEA00A
:101620000FA118A5AE0CBF1CC01ED11EAE14BF0466
:10163000C006D10670F0A216B306C406D50648F45B
:1016400008942108310841085108AE0CBF1CC01E87
:10165000D11EA21AB30AC40AD50AC601B501A40153
:1016600093010E948B397B018C01C601B501A40155
:1016700093010E948B39C901DA013C014D01C4017B
:10168000B30165962CAD3DAD4EAD5FAD65970E9443
:1016900045399B01AC018701FF24EE248D8D9E8D81
:1016A000AF8DB8A1A070B07057016801A82AB92AFF
:1016B000CA2ADB2AA216B306C406D50600F508948A
:1016C00061087108810891086DA17EA18FA198A57C
:1016D000A60EB71EC81ED91EA616B706C806D9067E
:1016E00070F0A216B306C406D50648F40894610843
:1016F000710881089108A60EB71EC81ED91ED60112
:10170000C501821B930BA40BB50B898F9A8FAB8FEE
:10171000BC8FD1019927882764015301A82AB92ACF
:10172000CA2ADB2AA9AABAAACBAADCAA8601750111
:101730002FEF3FEF40E050E0E222F3220423152395
:10174000A601662777276D964CAF5DAF6EAF7FAF72
:101750006D97A9A0BAA0CBA0DCA06FEF7FEF80E0CF
:1017600090E0A622B722C822D92289A19AA1ABA1D2
:10177000BCA11D0144245524C801B701A60195014F
:101780000E94453969966CAF7DAF8EAF9FAF699768
:10179000C801B701A20191010E9445393B014C01EA
:1017A0006D966CAD7DAD8EAD9FAD6D97A60195012B
:1017B0000E9445397B018C016D966CAD7DAD8EAD7F
:1017C0009FAD6D97A20191010E9445395B016C01AB
:1017D000A8019701260D371D481D591D69966CAC4F
:1017E0007DAC8EAC9FAC6997C401AA27BB27280F9C
:1017F000391F4A1F5B1F2E153F054007510748F44C
:10180000E12CF12C61E0062F112DAE0CBF1CC01E87
:10181000D11ECA01AA27BB27BC01CD016A0D7B1DC1
:101820008C1D9D1D698C7A8C8B8C9C8C6616770622
:101830008806990640F1661577058805990509F02F
:1018400043C0D9019927882769962CAD3DAD4EAD8F
:101850005FAD699740705070820F931FA41FB51F32
:101860002DA53EA54FA558A96E960FAC6E9704C046
:10187000220F331F441F551F0A94D2F72817390728
:101880004A075B0708F509A91AA92BA93CA9015029
:1018900010402040304009AB1AAB2BAB3CAB14C01E
:1018A00066247724430121E030E040E050E029AB9A
:1018B0003AAB4BAB5CAB0BC066247724430119AA4F
:1018C0001AAA1BAA1CAA03C0662477244301FE019E
:1018D000719688E0DF011D928A95E9F7A9A8BAA858
:1018E000CBA8DCA8A98ABA8ACB8ADC8A6D8A7E8AD0
:1018F0008F8A988E29A93A894B895C89662D7E89C1
:101900008F89988DC25ADF4FE2E10C94E4398AE85E
:1019100096E061EF74E00E949A2C8AE394E060E024
:101920000E94D3198FE896E00E94FD2E60E072ECD1
:1019300081E090E041E00E948D2381E00E94A72198
:1019400088E061E00E94932064EF71E080E090E025
:101950000E94791F0895AF92BF92CF92DF92EF92CB
:10196000FF920F931F935C01BC01672F772762954D
:101970006F7080E090E00E94CB369B01AC0160E08C
:1019800070E080E090E40E94E0377B018C018FEFF3
:101990009FE0A822B922CC24DD24C601B5010E9413
:1019A000CB365B016C01C801B7012AE037ED43E299
:1019B0005CE30E947D379B01AC01C601B5010E942A
:1019C0007D371F910F91FF90EF90DF90CF90BF90E8
:1019D000AF9008952F923F924F925F926F927F92B5
:1019E0008F929F92AF92BF92CF92DF92EF92FF922F
:1019F0000F931F93DF93CF9300D000D0CDB7DEB706
:101A00008AE896E064ED74E00E949A2C8AE896E0F9
:101A100060E072E00E94E12C8AE896E068E074E001
:101A20000E94C82C8AE394E068E074E00E94711B75
:101A3000019709F0C4C28AE896E060EB74E00E9466
:101A40009A2C8AE394E068E074E00E94F218809394
:101A50002604813009F0AEC28AE896E069E172E0BE
:101A60000E94E12C4091EF0450E060E070E08AE8D1
:101A700096E02AE030E00E94C02D8AE896E068E314
:101A800072E00E94E12C8AE394E06091EF040E94EE
:101A9000AE17482F552747FD5095652F752F8AE8BB
:101AA00096E02AE030E00E94C02D8AE896E06BE9DB
:101AB00074E00E949A2C8AE394E06091EF0443E082
:101AC00050E00E940A178AE896E069E874E00E94F4
:101AD0006B2C10E00AC0E12FF0E0EF50FB4F8AE8DA
:101AE00096E060810E944A2C1F5F8091F0041817D5
:101AF00090F38AE896E00E945C2C8AE896E06FE614
:101B000074E00E946B2C10E00AC0E12FF0E0EF506F
:101B1000FB4F8AE896E060810E94B52C1F5F8091A0
:101B2000F004181790F38AE896E00E945C2C8AE88B
:101B300096E00E945C2C81E0809324048AE896E081
:101B40006AE574E00E949A2C8AE394E06091EF04C5
:101B500044E250E024E234E001E00E949516892B33
:101B600031F48AE896E06DE274E00E949A2C81E0FC
:101B700089831A828AE394E06091EF0442E250E0A4
:101B80009E012F5F3F4F02E00E949516909329041B
:101B900080932804892B09F0CCC08AE896E068E19C
:101BA00074E00E949A2C8AE394E06091EF0441E291
:101BB00050E00E940A1710922A040E94E31E5B0163
:101BC0006C010F2EF0E06F2EF0E07F2EF0E08F2EF4
:101BD000F0E09F2EF02D6DC08AE896E06FEE73E086
:101BE0000E949A2C309037052224E0903605FF247D
:101BF000E228F3288AE896E06EE372E00E94E12C86
:101C000000E010E08AE896E0B801A7012AE030E0A1
:101C10000E94FE2D8AE896E066E572E00E94C82CDC
:101C200050903B05442460913A0570E06429752981
:101C30007695679576956795882777FD8095982F97
:101C40000E94CD3620E030E040E05DE30E947D3729
:101C50007B018C018AE896E065E672E00E94E12C47
:101C60008AE896E0B801A7010E94872D8AE896E0ED
:101C70000E945C2CC401B301A80197010E94CA35DF
:101C80003B014C0180912A048F5F80932A041092BB
:101C900029041092280402C00F9789F10E94E31EC4
:101CA0006A157B058C059D0520F40E94E31E5B01EF
:101CB0006C0180912A04853010F50E94E31E6A1998
:101CC0007B098C099D096053754780409040B8F4AA
:101CD0008AE896E066E074E00E949A2C8AE394E039
:101CE00048E853E160E070E00E94861390E0909332
:101CF0002904809328048531910571F66DCF609198
:101D00002A0470E0882777FD8095982F0E94CD36B1
:101D10009B01AC01C401B3010E94323640E022E0D5
:101D20000BE214E00E94053AC80161E00E947022B3
:101D30000AC08AE896E06BED73E00E949A2C8AE86C
:101D400096E00E945C2C109224048AE394E0609157
:101D5000EF0444E250E024E234E001E00E949516F2
:101D6000892B51F08AE896E066EB73E00E949A2C8A
:101D70008AE896E00E945C2C81E0809324048AE843
:101D800096E061EA73E00E949A2C8AE394E0609105
:101D9000EF0444E450E024E234E001E00E949516B0
:101DA000892B31F48AE896E067E773E00E949A2C69
:101DB00081E08B831C828AE394E06091EF0442E42B
:101DC00050E09E012D5F3F4F02E00E9495169093D8
:101DD000290480932804892B09F0BEC08AE896E084
:101DE00062E673E00E949A2C8AE394E06091EF042B
:101DF00041E450E00E940A1710922A040E94E31E58
:101E00005B016C010F2EF0E06F2EF0E07F2EF0E012
:101E10008F2EF0E09F2EF02D5FC08AE896E069E3F8
:101E200073E00E949A2C309037052224E09036050A
:101E3000FF24E228F3288AE896E06EE372E00E942D
:101E4000E12C00E010E08AE896E0B801A7012AE062
:101E500030E00E94FE2D8AE896E066E572E00E947E
:101E6000C82C50903B05442480913A0590E0842989
:101E700095290E94AB0C7B018C018AE896E06AE709
:101E800072E00E94E12C8AE896E0B801A7010E9466
:101E9000872D8AE896E00E945C2CC401B301A8015A
:101EA00097010E94CA353B014C0180912A048F5F43
:101EB00080932A04109229041092280402C00F97DC
:101EC00089F10E94E31E6A157B058C059D0520F4AF
:101ED0000E94E31E5B016C0180912A04853010F59D
:101EE0000E94E31E6A197B098C099D09605375479E
:101EF00080409040B8F48AE896E060E573E00E9484
:101F00009A2C8AE394E048E853E160E070E00E9494
:101F1000861390E0909329048093280485319105DD
:101F200071F67BCF60912A0470E0882777FD809559
:101F3000982F0E94CD369B01AC01C401B3010E94D1
:101F4000323640E022E00BE214E00E94053AC8017C
:101F500061E00E9470220AC08AE896E065E273E0C0
:101F60000E949A2C8AE896E00E945C2C109224042D
:101F70008AE394E06091EF0444E450E024E234E02A
:101F800001E00E949516892B51F08AE896E06CEFEB
:101F900072E00E949A2C8AE896E00E945C2C8AE308
:101FA00094E06091EF040E94E5178AE896E060EE05
:101FB00072E009C08AE896E062ED72E004C08AE847
:101FC00096E068EB72E00E949A2C8AE896E00E9404
:101FD0005C2C8AE394E060E00E94D3198AE896E0E2
:101FE0006BE972E00E949A2C8AE896E06CE872E055
:101FF0000E94E12C8AE896E066E174E00E94C82C19
:102000008AE394E066E174E00E94711B019709F095
:10201000B8C18AE896E067E772E00E949A2C8AE3EA
:1020200094E066E174E00E94F21880932704813006
:1020300009F0A2C18AE896E069E172E00E94E12C11
:102040004091EF0450E060E070E08AE896E02AE01A
:1020500030E00E94C02D8AE896E068E372E00E94BA
:10206000E12C8AE394E06091EF040E94AE17482FC0
:10207000552747FD5095652F752F8AE896E02AE091
:1020800030E00E94C02D8AE896E062E672E00E948D
:102090009A2C8AE394E06091EF0443E050E00E94C0
:1020A0000A178AE896E060E572E00E946B2C10E067
:1020B0000AC0E12FF0E0EF50FB4F8AE896E0608124
:1020C0000E944A2C1F5F8091F004181790F38AE851
:1020D00096E00E945C2C8AE896E066E372E00E943B
:1020E0006B2C10E00AC0E12FF0E0EF50FB4F8AE8C4
:1020F00096E060810E94B52C1F5F8091F004181754
:1021000090F38AE896E00E945C2C8AE896E00E94B0
:102110005C2C81E0809324048AE896E061E272E01E
:102120000E949A2C8AE394E06091EF0444E250E02C
:1021300024E234E001E00E949516892B31F48AE80C
:1021400096E064EF71E00E949A2C81E08B831C8200
:102150008AE394E06091EF0442E250E09E012D5F3B
:102160003F4F02E00E949516909329048093280423
:10217000892B09F0CCC08AE896E06FED71E00E94EF
:102180009A2C8AE394E06091EF0441E250E00E94CF
:102190000A1710922A040E94E31E5B016C010F2EA5
:1021A000F0E06F2EF0E07F2EF0E08F2EF0E09F2E1B
:1021B000F02D6DC08AE896E066EB71E00E949A2CE3
:1021C000309037052224E0903605FF24E228F328DA
:1021D0008AE896E06EE372E00E94E12C00E010E0F5
:1021E0008AE896E0B801A7012AE030E00E94FE2DBF
:1021F0008AE896E066E572E00E94C82C50903B05A4
:10220000442460913A0570E06429752976956795B4
:1022100076956795882777FD8095982F0E94CD3613
:1022200020E030E040E05DE30E947D377B018C01DF
:102230008AE896E065EA72E00E94E12C8AE896E07E
:10224000B801A7010E94872D8AE896E00E945C2CC5
:10225000C401B301A80197010E94CA353B014C019A
:1022600080912A048F5F80932A041092290410928F
:10227000280402C00F9789F10E94E31E6A157B05AE
:102280008C059D0520F40E94E31E5B016C0180918A
:102290002A04853010F50E94E31E6A197B098C0917
:1022A0009D096053754780409040B8F48AE896E0F5
:1022B0006DEC71E00E949A2C8AE394E048E853E1C7
:1022C00060E070E00E94861390E090932904809370
:1022D00028048531910571F66DCF60912A0470E074
:1022E000882777FD8095982F0E94CD369B01AC0101
:1022F000C401B3010E94323640E022E00BE214E058
:102300000E94053AC80161E00E9470220AC08AE872
:1023100096E062EA71E00E949A2C8AE896E00E94B8
:102320005C2C109224048AE394E06091EF0444E270
:1023300050E024E234E001E00E949516892B51F030
:102340008AE896E06DE771E00E949A2C8AE896E0B0
:102350000E945C2C8AE394E06091EF040E94E517F0
:102360008AE896E06FE671E00E949A2C8AEB92E090
:1023700061E00E9470220BC08AE896E061E671E09D
:1023800004C08AE896E06EE471E00E949A2C8AE824
:1023900096E00E945C2C8AE896E06FEB72E00E9467
:1023A000C82C8AE896E00E945C2C20C081E00E9444
:1023B0006C21BC018AE896E00E94932D81E00E9486
:1023C0006C218F36910519F488E061E00DC081E041
:1023D0000E946C218336910549F481E00E94FC2023
:1023E000019721F488E060E00E94B12081E00E9422
:1023F0004821892BD9F60F900F900F900F90CF9115
:10240000DF911F910F91FF90EF90DF90CF90BF90E1
:10241000AF909F908F907F906F905F904F903F9084
:102420002F900895FC01E950FF4F8081E75FF04055
:10243000882309F4C4C0E750FF4F8081E95FF04072
:10244000882309F5E650FF4F80818230A1F0833068
:1024500030F4882371F0813009F0B1C008C08430B5
:1024600071F0843050F0853009F0A9C00AC082E0D4
:10247000089581E0089583E0089584E0089585E05B
:10248000089586E00895813041F4E650FF4F808141
:10249000882309F094C087E00895823089F4E650DB
:1024A000FF4F8081813031F0813030F0823009F08F
:1024B00086C004C089E0089588E008958AE0089500
:1024C0008330E9F4E650FF4F8081823091F0833011
:1024D00030F4882361F0813009F071C006C0833088
:1024E00051F0843009F06BC008C08CE008958BE097
:1024F00008958DE008958EE008958FE0089584306A
:1025000011F5E650FF4F80818330A9F0843028F424
:10251000813059F0823068F40AC0853081F085300E
:1025200060F0863009F04BC00CC081E1089580E175
:10253000089582E1089583E1089584E1089585E195
:10254000089586E108958530D9F4E650FF4F8081E3
:10255000823081F0833028F4882351F0813079F57E
:1025600005C0833049F0843051F508C088E10895F2
:1025700087E1089589E108958AE108958BE108953E
:10258000863059F4E650FF4F8081882321F0813056
:10259000B1F48DE108958CE10895873081F4E6501F
:1025A000FF4F8081813029F0813028F0823039F46A
:1025B00004C08FE108958EE1089580E2089580E0DF
:1025C0000895CF93DF93FC0180E092ECA1E0B0E0AE
:1025D00080839183A283B383E055FF4F11821082E1
:1025E000E05BF040CF018A5B9F4FDC0186E0ED01AC
:1025F00019928A95E9F7EB5AFF4F8FE0808339975C
:1026000082E08193119211928BE4819382E3819312
:1026100011921082389680E094E091838083DF915C
:10262000CF9108958AE394E00E94E1120895CF9338
:10263000DF93EC018D599F4FFC018FE1DF011D926B
:102640008A95E9F7CE57DF4F2881C258D04081E004
:1026500056C0FE01E80FF11DEE57FF4F90818F5FCE
:10266000FE01E80FF11DEE57FF4FE081482F4F5F4D
:10267000E930F1F4E92F903208F0EFE190E02E2FED
:1026800030E0215030400CC0AC0FBD1FAD59BF4FE2
:10269000FE01E80FF11DEE57FF4F80818C939F5F85
:1026A000892F840FA92FB0E0A217B3076CF325C0C0
:1026B000E830F9F4E92F903208F0EFE190E02E2FA6
:1026C00030E0215030400CC0AC0FBD1FAD59BF4FA2
:1026D000FE01E80FF11DEE57FF4F80818C939F5F45
:1026E000892F840FA92FB0E0A217B3076CF382E003
:1026F0000AC0892F840F815002C081E004C0821774
:1027000008F4A7CF80E0DF91CF9108958F929F9238
:10271000AF92BF92CF92DF92EF92FF920F931F93EF
:10272000CF93DF93EC014A015B018C0109501F4FED
:1027300081E4D8011D928A95E9F762C08C810E94DC
:10274000482104970CF455C08C810E946C21F8013B
:102750008083803809F04DC08C810E946C218E01ED
:1027600008501F4FD8018C938C810E946C21C75058
:10277000DF4F8883C95FD0408C810E946C21C65096
:10278000DF4F8883CA5FD0400E94E31E6B017C014B
:102790008C810E944821F801208130E08217930744
:1027A0000CF04EC00E94E31E6C197D098E099F0932
:1027B000681579058A059B0508F042C00E94E31E52
:1027C0006C157D058E059F0518F7DECF8C810E9464
:1027D0006C21D7018D937D010F5F1F4F02341105CE
:1027E000F9F0F601808190E003968017910774F765
:1027F00017C00E94E31E6C157D058E059F0520F411
:102800000E94E31E6B017C010E94E31E6C197D098E
:102810008E099F09681579058A059B0508F48ECFF6
:10282000CE010E941212DF91CF911F910F91FF9064
:10283000EF90DF90CF90BF90AF909F908F900895D2
:102840009BEFE92EF12CEC0EFD1E04E010E088EF6A
:10285000C82ED12CCC0EDD1EC4CFBF92CF92DF92FA
:10286000EF92FF920F931F93CF93DF93EC01C62E4D
:10287000B42E0596FC0181E4DF011D928A95E9F7EB
:102880000E94E31E7B018C01DD2418C08C810E9414
:102890006C21FE01ED0DF11D8583D394DC1438F518
:1028A000B0E4BD1520F10E94E31E6E157F05800780
:1028B000910720F40E94E31E7B018C01DC1428F0B8
:1028C0008C810E944821892B91F00E94E31E6E1991
:1028D0007F09800B910B643171058105910538F4F6
:1028E0008C810E9448211816190684F2DCCFDE0183
:1028F000A055BF4F81E0B81661F4FE01ED0DF11D4A
:10290000948180E0238130E0822B932B8D939C93E4
:1029100002C01D921C92DD2041F4C055DF4F8FEFA5
:102920009FEF99838883C05BD040FE01E055FF4F45
:1029300080819181DF91CF911F910F91FF90EF9056
:10294000DF90CF90BF900895CF93DF93EC018C81FF
:102950008823A1F48FE896E00E94EC2E68817981AB
:102960008A819B814C810E948D238C810E94A721AA
:102970008FE261E00E9493208FE215C08130B1F4B4
:102980008FE896E00E94162F688179818A819B8169
:102990004C810E948D238C810E94A72184E061E0FC
:1029A0000E94932084E061E00E94B1208C81882302
:1029B00051F48091B5089091B608A091B708B091F4
:1029C000B80884600BC0813089F48091B50890917B
:1029D000B608A091B708B091B80888608093B50890
:1029E0009093B608A093B708B093B808CE0148EE0C
:1029F00053E060E070E00E9486138E3109F481E0BC
:102A0000DF91CF910895AF92BF92CF92DF92EF9274
:102A1000FF920F931F93CF93DF937C015AE5C52E4E
:102A2000D12CC80ED91EF601808191818F5197401B
:102A300019F420E030E053C08701045A1F4FE6012B
:102A400042E6A42EB12CAE0CBF1C688179818FE8C0
:102A500096E0F80141918F010E94B12E6881798141
:102A60006F5F7F4F798368830A151B0571F78FE8C5
:102A700096E0F80140810E94B12EF601808191819B
:102A800001969183808387010D591F4FE701C65A34
:102A9000DF4F82E890E0E80EF91E688179818FE8C7
:102AA00096E0F80141918F010E94B12E68817981F1
:102AB0006F5F7F4F798368830E151F0571F78FE86D
:102AC00096E040EF0E94B12E688179816F5F7F4F61
:102AD0008FE896E040EF0E94B12E21E030E0C9017E
:102AE000DF91CF911F910F91FF90EF90DF90CF90EA
:102AF000BF90AF900895DF92EF92FF920F931F93D4
:102B0000CF93DF93EC01C950DF4F8881C75FD0407E
:102B1000803839F0C750DF4F8881C95FD040863098
:102B200041F47CE5E72EF12CEC0EFD1ED70195E07B
:102B300009C0C650DF4F8881CA5FD040882389F31F
:102B400080E068C0FE01E90FF11DE350FF4F808176
:102B50008D939150B8F7FE01EE59FF4FC550DF4FEE
:102B6000888180832A962881C550D140203208F080
:102B70002FE1CE018E579F4FFC0181E2DF011D92B4
:102B80008A95E9F730E0422F50E00AC0FE01E80FD5
:102B9000F91FEB5FFE4F8081E358F04080833F5F79
:102BA000832F90E0481759078CF7613029F4CE0144
:102BB0000E941713D82E0BC09E012D593F4FC901FB
:102BC00060E270E04FE150E00E94993ADD248E010E
:102BD0000A5B1F4FC701B80146E050E00E948C3AE3
:102BE0000097B9F0FE01EE54FF4F8081918101966C
:102BF00091838083D801F70186E001900D92815086
:102C0000E1F7CE016D2D0E940315892B11F482E0AE
:102C100001C081E0DF91CF911F910F91FF90EF9064
:102C2000DF9008956F927F929F92AF92BF92CF9262
:102C3000DF92EF92FF920F931F93DF93CF93CDB765
:102C4000DEB75C01F62EE42ED22EC02E912E6DB68C
:102C50007EB68CE3861718F421E030E052C0262FB0
:102C600030E02B5F3F4FEDB7FEB7E21BF30B0FB623
:102C7000F894FEBF0FBEEDBF0DB71EB70F5F1F4F1D
:102C8000C80160E070E0A9010E94993AF4E0FF0EEB
:102C9000F801F082FCEFFF0EF8011182F282E3826C
:102CA000D482FF2021F4F5E0EF2EF12C15C0D801DD
:102CB0008C2D992D9C01F901819115968C93159776
:102CC00011968E2F8C198F15B8F3FA94EF2CFF24E0
:102CD00086E090E0E80EF91EF50184810E94A721AC
:102CE000DD2408C0E00FF11F8081F50164810E949E
:102CF0003D22D394ED2DF0E0EE15FF0598F320E092
:102D000030E0C9010FB6F8947EBE0FBE6DBECF9104
:102D1000DF911F910F91FF90EF90DF90CF90BF90C8
:102D2000AF909F907F906F900895CF92DF92EF9237
:102D3000FF920F931F93DF93CF93CDB7DEB77C0144
:102D4000702FCDB6DEB6802F90E00496ADB7BEB73B
:102D5000A81BB90B0FB6F894BEBF0FBEADBF0DB721
:102D60001EB70F5F1F4F11966C93F801418352837A
:102D70007383D80140E050E009C0F901E40FF51F6A
:102D8000808113968C9313974F5F5F4F119647176F
:102D9000A0F37C5FC701672F44E025E00E94121674
:102DA000C70167E041E00E942D14892B01F5C7019E
:102DB00048EE53E060E070E00E948613813111F02C
:102DC00090E01AC0F701E055FF4F4DEF50E0E40EE0
:102DD000F51ED7019C9180E02E917D0144E05FEFCC
:102DE000E40EF51E30E0822B932B91838083F70154
:102DF000E055FF4F808191810FB6F894DEBE0FBE83
:102E0000CDBECF91DF911F910F91FF90EF90DF909A
:102E1000CF9008959F92AF92BF92CF92DF92EF92A0
:102E2000FF920F931F93DF93CF9300D00F92CDB7F4
:102E3000DEB77C01962E6A01A6EBAA2EB12CA80E55
:102E4000B91E81E4D5011D928A95E9F769834A8309
:102E5000DB82C70163E044E024E08E010F5F1F4F77
:102E60000E941216C70167E041E00E942D14E0EBBA
:102E7000F0E0EE0EFF1ED7010D911C91E0E5FFEF93
:102E8000EE0EFF1E0115110509F058C0C70140EDF7
:102E900057E060E070E00E948613882319F401E097
:102EA00010E04CC0853119F0082F10E047C02DEF1D
:102EB00030E0E20EF31ED7014C91F7012291DF01C1
:102EC0008E917D01E5E0FFEFEE0EFF1E8915B1F555
:102ED000942F80E030E0822B932B8C159D0571F5AB
:102EE0002FEF30E0E20EF31ED7018C91E1E0FFEF0F
:102EF000EE0EFF1E873110F086E102C0882321F01C
:102F000020E0482F50E015C081E0D5018C93E7EB1D
:102F1000F0E0EE0EFF1E80E3D7018C930FC0F701A7
:102F2000E80FF91FE150FF4F8081E954F0408083A2
:102F30002F5F822F90E0481759078CF7C8010F9038
:102F40000F900F90CF91DF911F910F91FF90EF9015
:102F5000DF90CF90BF90AF909F900895EF92FF9237
:102F60000F931F93DF93CF930F92CDB7DEB77C0102
:102F7000698361E043E021E08E010F5F1F4F0E94F3
:102F80001216C70166E040E00E942D14F7019185FA
:102F90008981981789F420EB30E0E20EF31EF701E7
:102FA0008081918120E53FEFE20EF31E8F5F9F4FFE
:102FB00019F0F701828501C080E00F90CF91DF9179
:102FC0001F910F91FF90EF900895EF92FF920F9352
:102FD0001F93DF93CF930F92CDB7DEB77C01698348
:102FE00061E043E020E08E010F5F1F4F0E94121648
:102FF000C70167E041E00E942D1425EB30E0E20EAE
:10300000F31EF70190812BE43FEFE20EF31EF70170
:103010008185981719F021E030E02CC0F7019385E5
:1030200080E0228530E0282B392B80EB90E0E80E01
:10303000F91EF7013183208380E59FEFE80EF91E2A
:1030400021153105B9F4C70140E157E260E070E0B5
:103050000E9486138F3061F4EDEFF0E0EE0EFF1E5C
:10306000F701908180E0229130E0282B392B02C0BB
:10307000282F30E0C9010F90CF91DF911F910F9160
:10308000FF90EF9008958F929F92AF92BF92CF9250
:10309000DF92EF92FF920F931F93DF93CF93CDB701
:1030A000DEB765970FB6F894DEBF0FBECDBF5C01EB
:1030B0004A01D22EC32E8FE896E0AE014F5F5F4FDC
:1030C0000E94BA2E2D2D3C2DC901AC018815990501
:1030D00008F4A4010A30110518F40AE010E006C053
:1030E0002CE00138120710F000E81CE0970181E0A5
:1030F000253F380710F024EF31E08E818F838D81DA
:1031000088878C8189878B818A878A818B8789814F
:103110008C871D868E869F86488B598B0A8B1B8BCE
:103120002C8B3D8BC5016FE046E023E08E01095FEB
:103130001F4F0E941216C50167E040E00E942D1447
:10314000F501928580E0218530E0282B392B80EB3A
:1031500090E0A80EB91EF5013183208380E59FEF32
:10316000A80EB91E2115310549F5F501838525EB1A
:1031700030E0A20EB31EF50180832BE43FEFA20ED8
:10318000B31EC50148EE53E060E070E00E94861374
:10319000182F64E670E080E090E00E94791F1B30F9
:1031A00059F48CEF90E0A80EB91EF50180818530AE
:1031B00019F421E030E002C0212F30E0C90165960A
:1031C0000FB6F894DEBF0FBECDBFCF91DF911F9138
:1031D0000F91FF90EF90DF90CF90BF90AF909F90B6
:1031E0008F900895EF92FF920F931F934CE350E05E
:1031F0002CE430E004E610E0EE24FF240E944318A3
:103200001F910F91FF90EF900895BF92CF92DF92A0
:10321000EF92FF920F931F93DF93CF9300D00F9203
:10322000CDB7DEB77C01D62EC42EB22E69834A8379
:103230002B8363E046E026E08E010F5F1F4F0E9464
:103240001216C70166E041E00E942D1420EB30E029
:10325000E20EF31EF7018081918120E53FEFE20E3F
:10326000F31E892B91F481E590E0E80EF91EF70139
:10327000D1927F01C08222E030E0E20EF31EF7011E
:10328000B0822CEA3FEFE20EF31EF701E055FF4F4C
:10329000808191810F900F900F90CF91DF911F91BE
:1032A0000F91FF90EF90DF90CF90BF900895FC01B9
:1032B000262FDC01AE5ABF4FEF5AFF4F60814C9171
:1032C0000E9405190895EF92FF920F931F937C01BE
:1032D00060E046E024E000E010E00E941216C70122
:1032E00066E041E00E942D141F910F91FF90EF9036
:1032F0000895FF920F931F93CF93DF93EC010E94E9
:103300006319CE0161E00E945719892B19F0E2E0A0
:10331000FE2E07C0CC5ADF4F81E08883C455D040D1
:10332000FF248E01065A1F4FF801608171818FE8DA
:1033300096E040EF0E94B12EF801608171816F5FCD
:103340007F4F8FE896E040EF0E94B12E80E0FF2093
:1033500009F481E0DF91CF911F910F91FF900895C3
:10336000EF92FF920F931F937C0161E049E020E010
:1033700000E010E00E94121664EF71E080E090E03F
:103380000E94791FC70148EE53E060E070E00E94A0
:10339000861390E0813009F491E0892F1F910F91FD
:1033A000FF90EF900895CF93DF93EC01623018F017
:1033B00081E08C8301C06C838C81882331F486E1A9
:1033C00061E00E94932086E107C0813041F486E0ED
:1033D00061E00E94932086E061E00E94B12064E6F3
:1033E00070E080E090E00E94791FCE010E94A4145A
:1033F0008130A1F1C850DF4F8881C85FD0408C3048
:1034000071F4C750DF4F8881C95FD040882339F4F9
:10341000C650DF4F8881CA5FD0408823F9F0CE01C3
:103420000E94B0198823D1F48AE896E060E275E042
:103430000E949A2C8FE896E06CE041E00E942F2FCA
:1034400060E375E780E090E00E94791F8FE896E0E6
:103450006CE040E00E942F2F80E003C0CE010E946C
:103460007919DF91CF910895AF92BF92DF92EF92D9
:10347000FF920F931F93DF93CF93CDB7DEB765977E
:103480000FB6F894DEBF0FBECDBF5C016D8B60310F
:1034900010F08FE08D8B19821A821B821C8246E00D
:1034A000D42EFE013596DF018D2D1D928A95E9F708
:1034B000C50161E047E02CE08E010B5E1F4F0E94CA
:1034C0001216C50164E040E00E942D14B5016B5F47
:1034D0007F4F8FE896E07E010894E11CF11CA70164
:1034E00024E00E94382E1B861C861D861E86FE0147
:1034F0003F96DF011D92DA94E9F7E0E0F5E065918F
:1035000074918E01055F1F4FC8010E94853AC70163
:10351000B8010E94AB3A009719F021E030E009C0F1
:10352000E5E5F0E0AE0EBF1E8D89D5018C9320E05D
:1035300030E0C90165960FB6F894DEBF0FBECDBF6F
:10354000CF91DF911F910F91FF90EF90DF90BF908F
:10355000AF9008954F925F926F927F929F92AF9239
:10356000BF92CF92DF92EF92FF920F931F93CF9370
:10357000DF93EC012B01D42E72EBE72EF12CE80E39
:10358000F91EF7011182108266E4662E712C680E16
:10359000791E86E0F30111928A95E9F7CE01622F38
:1035A0000E94341A8E010C5A1F4FF801808181301D
:1035B00081F0CE0161E00E945719892B21F481E04E
:1035C000F801808306C08FEF9FEFF701918380831E
:1035D00069C08E01045B1F4FCE0161E046E022E02E
:1035E0000E941216CE0166E041E00E942D14892B44
:1035F00009F058C08D2D90E028EE33E0AC01429FD9
:10360000C001439F900D529F900D11245C01CC246A
:10361000B7FCC094DC2C51EEA51653E9B50654E076
:10362000C50650E0D50638F050EEA52E53E9B52E6C
:1036300054E0C52ED12C0E94E31E7B018C011DC0DD
:10364000CE0160E00E947B15C301B20146E050E06C
:103650000E948C3A009719F49924939401C09924FC
:103660000E94E31E6E157F058007910720F40E94DB
:10367000E31E7B018C01992071F50E94E31E6E19F7
:103680007F09800B910B6A157B058C059D0510F554
:10369000CE0148EE53E060E070E00E9486138C316A
:1036A000F1F6CECFFE01E055FF4F8081918102C03F
:1036B000892D90E0DF91CF911F910F91FF90EF90B6
:1036C000DF90CF90BF90AF909F907F906F905F9072
:1036D0004F9008959924CE010E946319892B41F3DC
:1036E000E1CFEF92FF920F931F93DF93CF9300D020
:1036F00000D000D0CDB7DEB77C018B01FB0101907B
:103700000020E9F73197E61BF70B3E9710F0FB011D
:103710001486C8010E94B43A8FE896E0B8018E0181
:103720000F5F1F4FA8010E94BA2EC701B8014EE1DA
:103730002FE00E94AA1A26960FB6F894DEBF0FBE9D
:10374000CDBFCF91DF911F910F91FF90EF90089522
:10375000482F613210F081E0089580917405843023
:1037600011F082E008956093BD05ACE9B5E0842FC7
:103770009C01F90102C081918D938E2F841B8617C5
:10378000D0F380E00895589859988091B9008160ED
:103790008093B9008091B90082608093B9008091D4
:1037A000BC0080688093BC008091BC0080618093E5
:1037B000BC008091BC008F7B8093BC008091BC00DA
:1037C0008F7D8093BC008091BC00877F8093BC007C
:1037D0008091B5089091B608A091B708B091B8084B
:1037E00086FD14C08091B5089091B608A091B708E5
:1037F000B091B80890FD0AC08091B5089091B608C4
:10380000A091B708B091B80893FF04C08091BC00A4
:103810008B7F03C08091BC0084608093BC0080914A
:10382000BC008E7F8093BC00809164008068809390
:103830006400089510927405E4E6F0E080818F77CB
:103840008083589A599AE9EBF0E080818E7F8083DB
:1038500080818D7F808381E48093B80085E48093AC
:10386000BC0080E2EAE7F5E0DF01982F1D929A950F
:10387000E9F7ECE9F5E0DF01982F1D929A95E9F759
:10388000EEEBF5E0DF011D928A95E9F708958823B4
:1038900049F01092E0051092E1051092E2051092B5
:1038A000E30513C08091E0059091E105A091E20548
:1038B000B091E3050196A11DB11D8093E0059093A1
:1038C000E105A093E205B093E3058091E0059091B6
:1038D000E105A091E205B091E305805A9648A14028
:1038E000B04010F480E008951092E0051092E105D8
:1038F0001092E2051092E3050E941A1C81E00895DF
:1039000085ED8093BC0081E00E94471C05C080E0EB
:103910000E94471C882321F48091BC0084FDF7CFCE
:103920001092740508951F920F920FB60F920BB666
:103930000F9211242F933F934F935F936F937F9335
:103940008F939F93AF93BF93EF93FF938091B900B1
:1039500090E0887F90708036910509F4C3C081366D
:103960009105CCF58832910509F47BC08932910527
:10397000B4F48031910509F46FC0813191053CF4B4
:10398000009709F40EC1089709F00FC165C088318E
:10399000910509F466C0809709F007C177C08034AB
:1039A000910509F48DC08134910544F4803391056B
:1039B00009F472C0C89709F0F8C072C0803591054B
:1039C00009F472C08835910509F47FC088349105E7
:1039D00009F0EBC0E8C08839910509F4D8C08939ED
:1039E0009105ECF48837910509F47CC0893791057D
:1039F0004CF48836910509F475C08037910509F0BB
:103A0000D4C070C08838910509F4C1C080399105CF
:103A100009F46EC08038910509F0C7C069C0803BC9
:103A2000910509F48CC0813B91054CF4803A9105D5
:103A300009F470C0883A910509F0B7C080C0803C95
:103A4000910509F4A8C0883C910509F4A4C0883BFD
:103A5000910509F0AAC088C0809175058093BB00CC
:103A600013C090919A0580919B05981708F09BC010
:103A700090919A05E92FF0E0E658FA4F8081809303
:103A8000BB009F5F90939A0585EC82C00E94801CCA
:103A900080E28093DF0589C080E38093DF0583C0E7
:103AA00088E38093DF0577C080919A059091BB00F1
:103AB000E82FF0E0E658FA4F90838F5F80939A05E5
:103AC00090919A0580919B055FC080919A05909195
:103AD000BB00E82FF0E0E658FA4F90838F5F8093A9
:103AE0009A0561C083E0809374051092DE05CCCF07
:103AF0008091DE05803208F04AC08091DE05909109
:103B0000BB00E82FF0E0E254FA4F90838F5F809380
:103B1000DE05BACF8091DE05803230F4E091DE051B
:103B2000F0E0E254FA4F10826091DE05E0917805F2
:103B3000F09179058EEB95E070E009952CC084E05A
:103B4000809374051092BC051092BD05E091760536
:103B5000F091770509958091BD05882329F481E0CE
:103B60008093BD0510929C059091BC05E92FF0E073
:103B7000E456FA4F80818093BB009F5F9093BC0511
:103B80009091BC058091BD05981708F47DCF85E81C
:103B90008093BC000AC085EC8093BC001092740531
:103BA00004C01092DF050E94801CFF91EF91BF912D
:103BB000AF919F918F917F916F915F914F913F91C5
:103BC0002F910F900BBE0F900FBE0F901F90189566
:103BD000DF92EF92FF920F931F93E82E062FF72E9E
:103BE000142FD22E413210F081E051C081E00E94AA
:103BF000471C05C080E00E94471C882321F4809167
:103C000074058823B9F782E0809374058FEF809361
:103C1000DF0510929A0510939B05AAE7B5E0202FC7
:103C20003F2DC901FC0102C081918D938E2F801B15
:103C30008117D0F38E2D90E0880F991F8093750522
:103C400085EE8093BC0081E00E94471CDD2041F49A
:103C50000BC080E00E94471C882311F085E017C04C
:103C6000809174058230A9F38091DF058F3F11F4B4
:103C700080E00DC08091DF05803211F482E007C042
:103C80008091DF05803311F084E001C083E01F9153
:103C90000F91FF90EF90DF9008950F931F93CF93B4
:103CA000DF93182FEB01042F413210F081E03CC06C
:103CB00081E00E94471C05C080E00E94471C8823C9
:103CC00021F4809174058823B9F781E0809374050D
:103CD0008FEF8093DF0510929A0500939B05110FDB
:103CE00011601093750585EE8093BC0081E00E9401
:103CF000471C08C080E00E94471C882319F020E080
:103D000030E00FC0809174058130A1F3F8CFFE013F
:103D1000E20FF31FD901A658BA4F8C9180832F5F11
:103D20003F4F2017A0F380E0DF91CF911F910F91BB
:103D300008951F920F920FB60F9211248F939F93A5
:103D4000AF93BF938091C7089091C808A091C9080C
:103D5000B091CA080196A11DB11D8093C708909328
:103D6000C808A093C908B093CA08BF91AF919F91AA
:103D70008F910F900FBE0F901F9018951F920F926A
:103D80000FB60F9211248F939F93AF93BF9380919F
:103D9000CB089091CC08A091CD08B091CE080196A7
:103DA000A11DB11D8093CB089093CC08A093CD08A2
:103DB000B093CE08BF91AF919F918F910F900FBE9E
:103DC0000F901F9018958F929F92AF92BF92CF92B3
:103DD000DF92EF92FF920F931F938FB7F894A0900A
:103DE000C708B090C808C090C908D090CA088FBF53
:103DF0009501A60160E070E080E090E001E00E94A3
:103E00009305122FF32EE42ED52EC62EB72EA82EF4
:103E1000892E02E00E949305B92F210FE1E02117BE
:103E200008F0E0E03F0DF1E03F1508F0F0E09E2ED5
:103E3000930EE1E0931608F0E0E0FE2B4E0DA1E0BA
:103E40004E1508F0A0E0FF2EF40EE1E0F41608F0A5
:103E5000E0E0AE2B5D0DF1E05D1508F0F0E00A2F1B
:103E6000050FE1E0051708F0E0E0FE2B6C0DA1E086
:103E70006C1508F0A0E01F2F160FE1E0161708F0F0
:103E8000E0E0AE2B7B0DF1E07B1508F0F0E0A70F32
:103E9000E1E0A71708F0E0E0FE2B8A0D91E08A151B
:103EA00008F090E0F80FE1E0F81708F0E0E09E2B52
:103EB000B80D392D4F2D502F612F7A2F8F2F9B0F3B
:103EC000E9E0AE2EBB24CC24DD24EE24FF2400E068
:103ED00010E00E941206952FB901842F1F910F91B7
:103EE000FF90EF90DF90CF90BF90AF909F908F901A
:103EF0000895AF92BF92CF92DF92EF92FF920F930D
:103F00001F935B016C0107C00E94E31E6E157F05C5
:103F10008007910720F40E94E31E7B018C010E9420
:103F2000E31E6E197F09800B910B6A157B058C05CA
:103F30009D0550F31F910F91FF90EF90DF90CF9070
:103F4000BF90AF9008958430910570F0BC0180E07F
:103F500090E00E94CB3626E636E646EE5FE30E940E
:103F60007D370E949F3603C0BC01660F771F6150EA
:103F7000704061F06150704049F0FB01EE0FFF1F8F
:103F800031978FB7F8943197F1F78FBF08957894F0
:103F900084B7877F84BF1092C7081092C808109218
:103FA000C9081092CA0884B5826084BD84B5816056
:103FB00084BD85B5826085BD85B5816085BDEEE631
:103FC000F0E0808181608083E1E8F0E080818260C0
:103FD0008083808181608083E0E8F0E0808181607F
:103FE0008083E1EBF0E0808184608083E1E9F0E0B0
:103FF000808184608083E0EBF0E080818160808359
:10400000E0E9F0E0808181608083E4E6F0E0808197
:104010008E7F8083ECE7F0E080818F7780838081E2
:1040200080648083EAE7F0E080818460808380811F
:10403000826080838081806880831092C1001092AA
:10404000C90008959091E405982B9093E40580FFB2
:1040500032C0809164008E7F8093640080917C00E8
:104060008F7780937C0080917C00806480937C00BB
:1040700080917A00846080937A0080917A008260D7
:1040800080937A0080917A00806880937A00809192
:1040900064008F7780936400809164008B7F8093AD
:1040A0006400809164008D7F80936400809165003E
:1040B0008E7F8093650008951F920F920FB60F9226
:1040C0000BB60F9211242F933F934F935F936F93EF
:1040D0007F938F939F93AF93BF93EF93FF93F89446
:1040E00081E080932504E0E6F0E0808180688083B1
:1040F00080818F7B808383E060E00E94B120789490
:10410000FF91EF91BF91AF919F918F917F916F91AF
:104110005F914F913F912F910F900BBE0F900FBE6B
:104120000F901F901895282F30E0C901805A964FA4
:10413000FC019491235D364FF9018491882381F02D
:10414000E82FF0E0EB5EF64FE491F0E0662329F40F
:10415000808190958923808308958081892B808335
:104160000895482F50E0CA018D56964FFC012491C6
:10417000CA01805A964FFC019491435D564FFA0153
:1041800034913323C1F1222331F1233021F4809182
:1041900080008F7705C0243031F4809180008F7DBE
:1041A0008093800018C0213019F484B58F7704C043
:1041B000223021F484B58F7D84BD0DC0263021F4DA
:1041C0008091B0008F7705C0273029F48091B0002E
:1041D0008F7D8093B000E32FF0E0E35EF64FE49133
:1041E000F0E0662329F480819095892380830895E7
:1041F0008081892B80830895482F50E0CA018D5615
:10420000964FFC012491CA01805A964FFC0194916B
:10421000435D564FFA013491332319F420E030E026
:1042200035C0222331F1233021F4809180008F7733
:1042300005C0243031F4809180008F7D8093800010
:1042400018C0213019F484B58F7704C0223021F4CE
:1042500084B58F7D84BD0DC0263021F48091B000DF
:104260008F7705C0273029F48091B0008F7D80932F
:10427000B000E32FF0E0EB5DF64FE491F0E08081D9
:1042800020E030E0892311F021E030E0C9010895F9
:10429000882389F48091E5059091E60580509E4F32
:1042A0002091E7053091E805821B930B60E072E0F6
:1042B0000E94783908958091E9059091EA0580502F
:1042C0009E4F2091EB053091EC05821B930B60E033
:1042D00072E00E94783908958823D1F44091E7056F
:1042E0005091E8058091E5059091E60584179507C2
:1042F00051F1FA01E153F54F2081CA01019660E0C6
:1043000072E00E9478399093E8058093E70519C020
:104310004091EB055091EC058091E9059091EA05FB
:104320008417950781F0FA01E153F74F2081CA0104
:10433000019660E072E00E9478399093EC058093DA
:10434000EB0530E002C02FEF3FEFC901089588234D
:1043500049F41092E8051092E7051092E6051092D4
:10436000E50508951092EC051092EB051092EA0510
:104370001092E90508951F920F920FB60F920BB697
:104380000F9211242F933F934F935F936F937F93DB
:104390008F939F93AF93BF93EF93FF934091C6008A
:1043A000E091E505F091E605CF01019660E072E04D
:1043B0000E9478399C018091E7059091E8052817C3
:1043C000390739F0E153F54F40833093E6052093E8
:1043D000E505FF91EF91BF91AF919F918F917F91F3
:1043E0006F915F914F913F912F910F900BBE0F9066
:1043F0000FBE0F901F9018951F920F920FB60F923D
:104400000BB60F9211242F933F934F935F936F93AB
:104410007F938F939F93AF93BF93EF93FF934091BD
:10442000CE00E091E905F091EA05CF01019660E048
:1044300072E00E9478399C018091EB059091EC0527
:104440002817390739F0E153F74F40833093EA05D5
:104450002093E905FF91EF91BF91AF919F918F91CB
:104460007F916F915F914F913F912F910F900BBE74
:104470000F900FBE0F901F901895982F662339F458
:104480008091C00085FFFCCF9093C6000895809175
:10449000C80085FFFCCF9093CE000895882341F497
:1044A0008091C00085FFFCCF8DE08093C60008C0DE
:1044B0008091C80085FFFCCF8DE08093CE0008C0BE
:1044C0008091C00085FFFCCF8AE08093C6000895EC
:1044D0008091C80085FFFCCF8AE08093CE000895CC
:1044E000FC0110C03196662339F48091C00085FF2D
:1044F000FCCF9093C60006C08091C80085FFFCCF1A
:104500009093CE009081992369F708952F923F925E
:104510004F925F926F927F928F929F92AF92BF92D3
:10452000CF92DF92EF92FF920F931F93DF93CF937F
:10453000CDB7DEB7A1970FB6F894DEBF0FBECDBFE3
:104540006B017C0129013A0109A3611571058105FF
:10455000910591F4002341F48091C00085FFFCCFC8
:1045600080E38093C6005BC08091C80085FFFCCFCC
:1045700080E38093CE0053C08824992454011E0107
:104580000894211C311C8101080D191DC701B601B9
:10459000A30192010E948B39F80160830894811C69
:1045A000911CA11CB11CC701B601A30192010E947C
:1045B0008B39C901DA016C017D01C114D104E10418
:1045C000F10409F79101280D391DBE016F5F7F4F7E
:1045D000D501C4010197A109B109AC0148195909D4
:1045E0001BC0FA01E20FF31FE081EA3010F4E05D36
:1045F00001C0E95CF9A1FF2339F48091C00085FF77
:10460000FCCFE093C60006C08091C80085FFFCCFB8
:10461000E093CE00215030406217730711F7A19646
:104620000FB6F894DEBF0FBECDBFCF91DF911F91C3
:104630000F91FF90EF90DF90CF90BF90AF909F9041
:104640008F907F906F905F904F903F902F90089544
:10465000282F992787FD9095807F907034E095955D
:1046600087953A95E1F78A301CF0982F995C02C043
:10467000982F905D822F8F708A301CF0282F295C34
:1046800002C0282F205D662339F48091C00085FF89
:10469000FCCF9093C60006C08091C80085FFFCCF78
:1046A0009093CE00662339F48091C00085FFFCCF43
:1046B0002093C60008958091C80085FFFCCF209309
:1046C000CE0008950F931F938B019C01E42F97FF59
:1046D00018C0442341F48091C00085FFFCCF8DE2D7
:1046E0008093C60007C08091C80085FFFCCF8DE293
:1046F0008093CE0030952095109501951F4F2F4F38
:104700003F4FC901B8012AE030E040E050E00E2FF1
:104710000E9486221F910F910895EF92FF920F93AE
:104720001F937B018C014423C1F588E00E94222065
:10473000C801B70122E030E040E050E00E94AD390E
:104740002050304F414F5F4FCA01B901A801970176
:104750000E94AD39C901DA010197A109B109292FD8
:104760003A2F4B2F552747FD5A950196A11DB11D94
:104770002093C50081508093C4008091C100806166
:104780008093C1008091C10088608093C1008091B6
:10479000C10080688093C10037C080E10E94222060
:1047A000C801B70122E030E040E050E00E94AD399E
:1047B0002050304F414F5F4FCA01B901A801970106
:1047C0000E94AD39C901DA010197A109B109292F68
:1047D0003A2F4B2F552747FD5A950196A11DB11D24
:1047E0002093CD0081508093CC008091C9008061DE
:1047F0008093C9008091C90088608093C90080912E
:10480000C90080688093C9001F910F91FF90EF90BD
:1048100008950E94C71F8FE896E00E94A52E853458
:1048200040F081E361E00E94932081E361E00E9417
:10483000B1208FE896E061E070E00E94AD2E8130FB
:10484000B1F48091B5089091B608A091B708B091E5
:10485000B80890688093B5089093B608A093B708FD
:10486000B093B80881E090E060E00E941A3D87E2D2
:104870000E94FC20892B09F44FC08FE896E060E08D
:1048800070E00E94AD2E8A3009F046C081EF95E0BD
:104890000E949D2A81EF95E00E94B42881EF95E067
:1048A0000E94642A80910A06482F50E080910C06ED
:1048B000481B510980910906282F30E080910D0690
:1048C000281B3109121613065CF48CE390E0BC013E
:1048D000269FC001279F900D369F900D11240EC07A
:1048E00037FF0EC08CE390E0BC01269FC001279FDC
:1048F000900D369F900D1124805F914F480F591FE6
:104900004330510548F48091C4089091C5088062F5
:104910009093C5088093C40881EF95E00E949D2A7A
:1049200081EF95E00E94502781EF95E00E943F279C
:1049300081EF95E00E94C62A63E070E080E090E09D
:104940000E94791F8091B5089091B608A091B70890
:10495000B091B808A1FF5EC063E070E080E090E035
:104960000E94791F86E161E00E94932063E070E07D
:1049700080E090E00E94791F86E161E00E94B12012
:1049800063E070E080E090E00E94791F0E94FE2AC0
:1049900063E070E080E090E00E94791F81E00E9477
:1049A000D72A63E070E080E090E00E94791F84E005
:1049B0000E94E52A63E070E080E090E00E94791FA9
:1049C00080E00E94E02A63E070E080E090E00E94D6
:1049D000791F0E94D32A63E070E080E090E00E949B
:1049E000791F84E896E066E00E941D2B63E070E08A
:1049F00080E090E00E94791F86E161E00E949320B0
:104A000086E160E00E94B12063E070E080E090E029
:104A10000E94791F63E070E080E090E00E94791FBF
:104A20008FE896E00E947E306093ED057093EE056E
:104A30008093EF059093F0058091ED059091EE0540
:104A4000A091EF05B091F0050E947A3A0E94870C80
:104A50000E94EA0CFDCFFC01148A158A168A178A77
:104A6000108E118E128E138E148E158E168E178E3A
:104A700010A211A212A213A280E090E0A0E0B0E088
:104A800084A395A3A6A3B7A30895109282061092BB
:104A900004060895EF92FF920F931F93DF93CF9335
:104AA000CDB7DEB7EC970FB6F894DEBF0FBECDBF23
:104AB0008C01E9EFF6E065917491B5E1EB2EF12CF4
:104AC000EC0EFD1EC7010E94853AEBEFF6E0659102
:104AD0007491CE0101960E94853AD80156968C9128
:104AE000843009F46DC0853048F4823069F1833038
:104AF00008F048C0813009F000C10AC0863009F4CE
:104B00009BC0863008F47AC0873009F0F6C0B2C086
:104B1000EDB7FEB774970FB6F894FEBF0FBEEDBFAA
:104B20003196075D1F4FADB7BEB712961C930E931B
:104B300011970952104084E690E093838283F582B6
:104B4000E48281EE92E0B3C08DB79EB744970FB672
:104B5000F8949EBF0FBE8DBFEDB7FEB73196075DCF
:104B60001F4FADB7BEB712961C930E931197095203
:104B7000104084E690E093838283F582E48285EEA0
:104B800092E095C08DB79EB744970FB6F8949EBF3C
:104B90000FBE8DBFEDB7FEB73196075D1F4FADB7A6
:104BA000BEB712961C930E9311970952104084E6DB
:104BB00090E093838283F582E48289EE92E077C06D
:104BC0008DB79EB744970FB6F8949EBF0FBE8DBFAA
:104BD000EDB7FEB73196075D1F4FADB7BEB7129662
:104BE0001C930E9311970952104084E690E0938332
:104BF0008283F582E4828DEE92E059C08DB79EB734
:104C000044970FB6F8949EBF0FBE8DBFEDB7FEB7A9
:104C10003196075D1F4FADB7BEB712961C930E932A
:104C200011970952104084E690E093838283F582C5
:104C3000E48281EF92E03BC08DB79EB744970FB6F8
:104C4000F8949EBF0FBE8DBFEDB7FEB73196075DDE
:104C50001F4FADB7BEB712961C930E931197095212
:104C6000104084E690E093838283F582E48285EFAE
:104C700092E01DC08DB79EB744970FB6F8949EBFC3
:104C80000FBE8DBFEDB7FEB73196075D1F4FADB7B5
:104C9000BEB712961C930E9311970952104084E6EA
:104CA00090E093838283F582E48289EF92E0978398
:104CB0008683D80154968C91549780871186559697
:104CC0008C915597828713865A968C915A97848730
:104CD000158657968C9157978687178658968C918C
:104CE0005897808B118A59968C91828B138A0E94D7
:104CF000BE3AEDB7FEB774961DC000D000D000D00C
:104D0000EDB7FEB73196075D1F4FADB7BEB7129630
:104D10001C930E9311970952104084E690E0938300
:104D20008283CE010196958384830E94BE3AEDB7BB
:104D3000FEB736960FB6F894FEBF0FBEEDBF9801D2
:104D4000275D3F4FC901EC960FB6F894DEBF0FBE4A
:104D5000CDBFCF91DF911F910F91FF90EF900895FC
:104D60001F93CF93DF93EC01162F8091DC068823ED
:104D700021F486ED96E00E94353286ED96E068E6F5
:104D800070E00E94A83086ED96E0612F0E94C2314B
:104D9000C10FD11D86ED96E068810E94C23186ED7B
:104DA00096E00E94F131DF91CF911F910895FF921B
:104DB0000F931F93CF93DF938C01F62E8091DC0627
:104DC000882321F486ED96E00E94353286ED96E048
:104DD00068E670E00E94A83086ED96E06F2D0E9494
:104DE000C23186ED96E00E94F13186ED96E068E6EC
:104DF00070E041E050E00E943232C0E0D0E086ED49
:104E000096E00E94B230882329F4CA30D10511F00F
:104E10002196F5CF86ED96E00E94B8300F0D111D5A
:104E2000F801808386ED96E00E94F131DF91CF9109
:104E30001F910F91FF9008950F931F938C016FE0C6
:104E40000E94D726F801878583701F910F910895DE
:104E5000CF93DF93EC010E941C27882319F0CE56D4
:104E6000DF4F8883809100068C7F8093000681EF5E
:104E700095E06FE00E94B026DF91CF9108950F93E7
:104E80001F938C016EE00E94D726F80186858D7FE6
:104E90008687C8016EE00E94B0261F910F91089589
:104EA0000F931F938C016EE00E94D726F801868530
:104EB0008E7F8687C8016EE00E94B0261F910F91F9
:104EC0000895AF92BF92CF92DF92FF920F931F93FC
:104ED000CF93DF938C01F62E8091DC06882321F49A
:104EE00086ED96E00E94353286ED96E068E670E049
:104EF0000E94A83086ED96E060E070E00E94EE31FE
:104F000086ED96E00E94F13186ED96E068E670E06D
:104F100043E150E00E943232C0E0D0E0CC24DD24F6
:104F2000AF2CBB245AE0F52E0DC186ED96E00E9411
:104F3000B230882309F403C186ED96E00E94B830B0
:104F4000282FF801EC0FFD1F8083C630D10509F42E
:104F500082C0C730D105B8F4C230D10509F44EC0C3
:104F6000C330D10538F4209769F1C130D10509F07B
:104F7000E4C036C0C430D10509F451C0C530D105F4
:104F800008F05BC049C0CA30D10509F49BC0CB30E2
:104F9000D10558F4C830D10509F478C090E02F70DD
:104FA000C930D10508F081C064C0CC30D10509F406
:104FB000A7C0CC30D10508F494C0CD30D10509F09C
:104FC000BCC0ADC090E044E0959587954A95E1F767
:104FD0008F9DC00111242F70280FF801218FADC0C3
:104FE00090E034E0959587953A95E1F78F9DC00163
:104FF00011242F70280FF801208F9FC090E0B4E09B
:1050000095958795BA95E1F78F9DC00111242F7072
:10501000280FF801278B91C0F801868B8EC090E095
:10502000A4E095958795AA95E1F78F9DC00111247D
:105030002F70280FF801228F80C090E0F4E0959542
:105040008795FA95E1F78F9DC00111242F70280FE5
:10505000F801258B72C090E0E4E095958795EA957C
:10506000E1F78F9DC00111242F70280FF801248BC8
:1050700064C074E0959587957A95E1F787708F9D68
:10508000C0011124280FF801238F57C090E064E07D
:10509000959587956A95E1F787708F9DC0011124DA
:1050A0002F70280FF801248F48C054E095958795FC
:1050B0005A95E1F783708F9DC0011124280FF801E4
:1050C000258F3BC090E044E0959587954A95E1F7A0
:1050D00083708F9DC00111242F70280FF801268F37
:1050E0002CC090E034E0959587953A95E1F787706C
:1050F0008F9DC00111242F70280FF801278F1DC02C
:1051000090E0B4E095958795BA95E1F783708F9D0F
:10511000C00111242F70280FF80120A30EC090E0C9
:10512000A4E095958795AA95E1F783708F9DC001BE
:1051300011242F70280FF80121A3219603C0089491
:10514000C11CD11CAC16BD0628F0FAE0CF16D10464
:1051500008F4EBCEDF91CF911F910F91FF90DF907C
:10516000CF90BF90AF900895AF92BF92CF92DF9251
:10517000EF92FF920F931F93DF93CF93CDB7DEB7DC
:10518000C857D0400FB6F894DEBF0FBECDBF6C013C
:105190006AE00E94612749E2A42EB12CAC0CBD1C30
:1051A00084E6D5011D928A95E9F7E7EDF6E0659171
:1051B00074918E010F5F1F4FC8010E94853AC5018F
:1051C000B8010E94A03AF60182A1823009F476C0AB
:1051D000833030F4882371F0813009F03CC11AC06B
:1051E000843009F4F2C0843008F4AEC0853009F090
:1051F00032C127C1E9EDF6E065917491C8010E94C2
:10520000853AC501B8010E94A03AE7EEF6E0659143
:1052100074910FC0EBEDF6E065917491C8010E94A6
:10522000853AC501B8010E94A03AE7EEF6E0659123
:1052300074918E01075D1F4FC8010E94853A8DB79A
:105240009EB70E970FB6F8949EBF0FBE8DBFEDB7F9
:10525000FEB7319631E5E32EF12CEC0EFD1EADB715
:10526000BEB71296FC92EE92119788E290E093837B
:10527000828315830483D6015E968C915E97868324
:1052800017825D968C915D97808711865C968C91D4
:105290005C97828713865B968C91848715860E9423
:1052A000BE3AEDB7FEB73E960FB6F894FEBF0FBEFE
:1052B000EDBFC501B7010E94A03AF3C0EDEDF6E0E5
:1052C00065917491C8010E94853AC501B8010E9498
:1052D000A03AE9EEF6E0659174918E01075D1F4FEB
:1052E000C8010E94853A8DB79EB70C970FB6F89407
:1052F0009EBF0FBE8DBFEDB7FEB7319621E5E22E02
:10530000F12CEC0EFD1EADB7BEB71296FC92EE92DC
:10531000119788E290E09383828315830483D601FA
:105320005D968C915D97868317825C968C915C97D5
:10533000808711865B968C91828713860E94BE3A85
:10534000EDB7FEB73C96B0CFEFEDF6E06591749106
:10535000C8010E94853AC501B8010E94A03AEBEE4F
:10536000F6E0659174918E01075D1F4FC8010E94A0
:10537000853A8DB79EB70A970FB6F8949EBF0FBEB9
:105380008DBFEDB7FEB7319691E5E92EF12CEC0E0D
:10539000FD1EADB7BEB71296FC92EE92119788E251
:1053A00090E09383828315830483D6015C968C916D
:1053B0005C97868317825B968C91808711860E940A
:1053C000BE3AEDB7FEB73A966FCFE1EEF6E06591E3
:1053D0007491C8010E94853AC501B8010E94A03AA3
:1053E000EDEEF6E0659174918E01075D1F4FC801E7
:1053F0000E94853A8DB79EB708970FB6F8949EBF66
:105400000FBE8DBFEDB7FEB7319681E5E82EF12CCA
:10541000EC0EFD1EADB7BEB71296FC92EE92119740
:1054200088E290E09383828315830483D6015B96A0
:105430008C91868317820E94BE3AEDB7FEB73896EC
:1054400033CFE3EEF6E065917491C8010E94853A8E
:10545000C501B80130CFE5EEF6E0659174918E019B
:105460000F5F1F4FC8010E94853A00D000D000D0C6
:10547000EDB7FEB73196ADB7BEB71296BC92AE92FD
:10548000119784E690E093838283158304830E94BE
:10549000BE3AEDB7FEB736960FB6F894FEBF0FBE14
:1054A000EDBFC501C858DF4F0FB6F894DEBF0FBE81
:1054B000CDBFCF91DF911F910F91FF90EF90DF90C3
:1054C000CF90BF90AF9008950F931F938C0166E02B
:1054D0000E946127C8010E944A251F910F910895DB
:1054E0000F931F93CF93DF93EC01042F68A780E302
:1054F00061E00E94932018A5112379F0113091F4F6
:1055000080E361E00E94B120013019F482E08B8BCE
:1055100009C0002339F41B8B05C080E360E00E94C2
:10552000B1201B8A6AE070E080E090E00E94791F61
:10553000DF91CF911F910F9108950F931F938C01CD
:1055400061E040E00E94702AC8010E942827C8013B
:105550000E942B25C8016DE00E9461278BE261E06B
:105560000E9493208BE260E00E94B1201F910F9176
:1055700008958091DC06882341F08091F20688230B
:1055800021F487EF96E00E94A83508950F931F93AA
:105590008C010E94B92AC80160E040E00E94702A94
:1055A0001F910F9108958CB58F7B8CBD0895882332
:1055B00019F48CB5806202C08CB58F7D8CBD0895C6
:1055C0009CB5937F982B9CBD08959CB5282F237084
:1055D0009C7F292B2CBD9DB581709E7F982B9DBDF6
:1055E00008951092850610928406109286061092F5
:1055F0008706109288061092890608958EE161E070
:105600000E9493208FE161E00E9493208DE161E090
:105610000E9493208EE160E00E94B1208FE160E063
:105620000E94B1208DE161E00E94B1208CB58061C3
:105630008CBD8CB580648CBD08951F93162F8DE1B1
:1056400061E00E94932082E261E00E9493208DE15C
:1056500061E00E94B12082E261E00E94B12080916D
:10566000B5089091B608A091B708B091B808A2FF0C
:1056700008C088E061E00E94932088E061E00E9419
:10568000B1208091B5089091B608A091B708B0916B
:10569000B80896FF08C089E061E00E94932089E085
:1056A00061E00E94B1208091B5089091B608A09168
:1056B000B708B091B808A3FF08C082E061E00E947B
:1056C000932082E061E00E94B1208091B508909122
:1056D000B608A091B708B091B808A4FF08C082E24C
:1056E00061E00E94932082E261E00E94B1201330C9
:1056F000C9F0143028F4113069F0123068F408C091
:10570000153041F11530D0F0163009F062C02FC0CD
:105710008DE12BC082E229C08FE896E00E94162F0F
:105720008CE223C08091B5089091B608A091B7088B
:10573000B091B808A2FF4DC088E017C08091B508AD
:105740009091B608A091B708B091B80896FF41C0F3
:1057500089E00BC08091B5089091B608A091B70878
:10576000B091B808A3FF35C082E060E030C08DE1A1
:1057700061E00E94B12082E261E00E94B12080914C
:10578000B5089091B608A091B708B091B808A2FFEB
:1057900004C088E061E00E94B1208091B50890913A
:1057A000B608A091B708B091B80896FF04C089E088
:1057B00061E00E94B1208091B5089091B608A09157
:1057C000B708B091B808A3FF04C082E061E00E946E
:1057D000B1201F91089510928A060895CF93DF9308
:1057E000EC018091B5089091B608A091B708B091EE
:1057F000B80882FF0BC063E070E080E090E00E9498
:10580000791F8BE061E00E94B12006C063E070E088
:1058100080E090E00E94791F89818093C5008A8191
:105820008093C4008B818093C2008C818093CA00D6
:10583000DF91CF910895DC018091C50011968C9382
:1058400011978091C40012968C931297E2ECF0E0CD
:10585000808113968C9313978091CA0014968C9331
:10586000149780818F7D808380818F7E808380816B
:10587000877F808360E072EC81E090E04C910E9431
:105880008D2387E161E00E94B1208BE060E00E94FF
:10589000B1200895FF920F931F938C01F62E0E9462
:1058A0001B2C8F2D60E00E942823C8010E94EE2B44
:1058B0001F910F91FF9008950F931F938C010E94E9
:1058C0001B2CF80180810E944E22C8010E94EE2B01
:1058D0001F910F910895EF92FF920F931F93CF9313
:1058E000DF93EC01162F072F0E941B2C212F302F46
:1058F000C9018C0188EEE82E83E0F82EE00EF11E3F
:10590000F8010F5F1F4F8491882331F068810E9456
:105910003D220E151F05A1F7CE010E94EE2B60E07F
:1059200070E080E090E0DF91CF911F910F91FF90A8
:10593000EF900895CF92DF92EF92FF920F931F9313
:105940008C010E946B2CF62EE72ED82EC92EC80192
:105950000E945C2C6F2D7E2D8D2D9C2D1F910F9103
:10596000FF90EF90DF90CF900895FF920F931F93D9
:105970008C01F62E0E941B2C8F2DF80160810E9455
:105980003D22C8010E94EE2B1F910F91FF900895B8
:10599000EF92FF920F931F938C017B010E941B2CAF
:1059A000C701F80160810E947022F80180810E9485
:1059B0004E22C8010E94EE2B1F910F91FF90EF9095
:1059C0000895EF92FF920F931F938C017B010E9429
:1059D0001B2CC701F80160810E947022C8010E943F
:1059E000EE2B1F910F91FF90EF9008957F928F9271
:1059F0009F92AF92BF92CF92DF92EF92FF920F935E
:105A00001F93CF93DF93EC017A018B01722E0E94DA
:105A10001B2CC801B70120E030E040E050E00E94BC
:105A20002E36882344F48DE268810E943D2217FBC4
:105A3000109517F9109520E030E040E05FE3DD2499
:105A40000BC0CA01B90120E030E040E251E40E94FD
:105A500032369B01AC01D394D71498F3C801B70137
:105A60000E94CA354B015C010E949F366B017C018C
:105A70002AE030E040E050E008810E948622772052
:105A800021F08EE268810E943D22C701B6010E948A
:105A9000CB369B01AC01C501B4010E94C93524C0BD
:105AA00020E030E040E251E40E947D376B017C0150
:105AB0000E949A364B015C01AA2497FCA094BA2C50
:105AC000C501B4012AE030E040E050E008810E94C6
:105AD0008622C501B4010E94CD369B01AC01C701ED
