:100000000C9469050C94C5310C94F6310C9427328C
:100010000C9458320C9489320C94BA320C94EB3212
:100020000C941C330C9491050C9491050C9491053F
:100030000C94F41F0C9491050C9491050C94561E8D
:100040000C9491050C9491050C9491050C949105D8
:100050000C9491050C9491050C9491050C94311E0F
:100060000C9491050C9453210C9491050C949105DA
:100070000C9491050C9491050C9491050C949105A8
:100080000C9491050C9491050C9491050C94910598
:100090000C9494210C9491050C9491050C942B1CB8
:1000A0000C9491050C9491050C9491050C94910578
:1000B0000C9491050C9491050C9491050C94910568
:1000C0000C9491050C9491050C94910507634236AC
:1000D000B79BD8A71A39685618AEBAAB558C1D3CD9
:1000E000B7CC5763BD6DEDFD753EF6177231BF009D
:1000F0000000803F08000000BE922449123EABAAD7
:10010000AA2ABECDCCCC4C3E00000080BEABAAAA31
:10011000AA3E00000000BF000000803F0000000079
:1001200000084178D3BB4387D1133D190E3CC3BDB2
:100130004282AD2B3E68EC8276BED98FE1A93E4C5F
:1001400080EFFFBE01C4FF7F3F0000000000446558
:1001500076696365206E6F7420666F756E643A20F1
:10016000004E4F5420436F6E6E65637465640044A7
:100170006973636F6E6E65637465642E0054656D9C
:100180007065726174757265206D656173757265F5
:100190006D656E742070757420746F20736C656566
:1001A00070004661696C656420737562736372697F
:1001B00062696E672E004E6F746966696361746967
:1001C0006F6E2072656365697665642E005761699C
:1001D00074696E67206576656E74732E2E2E0052DC
:1001E000656164696E6720617474726962757465B3
:1001F0002E2E200045787465726E2074656D7065D2
:10020000726174757265206D6561737572656D6577
:100210006E7420696E2070726F67726573732E2E14
:100220000057726974696E672061747472696275CF
:1002300074652E2E20004174747269627574652095
:1002400056616C756520284153434949293A20007D
:100250004174747269627574652056616C75653A93
:10026000200052656164696E67206174747269620E
:100270007574652E2E200045787465726E20646555
:100280007669636520666F756E642E20436F6E6EAF
:10029000656374696E672E2E2E2000466972737432
:1002A000207363616E20666F722065787465726E6C
:1002B0002064657669636500496E7465726E2064BA
:1002C0006576696365206E6F7420666F756E643A3B
:1002D00020004E4F5420436F6E6E6563746564005A
:1002E000496E7465726E2064657669636520646921
:1002F00073636F6E6E65637465642E004C69676826
:100300007420696E74656E73697479206D656173AC
:100310007572656D656E742070757420746F2073CE
:100320006C656570004661696C6564207375627305
:1003300063726962696E672E004E6F7469666963E5
:100340006174696F6E2072656365697665642E00FD
:1003500057616974696E67206576656E74732E2EB9
:100360002E0052656164696E6720617474726962FF
:100370007574652E2E20004C6967687420696E7450
:10038000656E73697479206D6561737572656D65ED
:100390006E7420696E2070726F67726573732E2E93
:1003A0000057726974696E6720617474726962754E
:1003B00074652E2E200054656D70657261747572BF
:1003C00065206D6561737572656D656E74207075FD
:1003D0007420746F20736C656570004661696C658C
:1003E00064207375627363726962696E672E004E72
:1003F0006F74696669636174696F6E2072656365A5
:10040000697665642E0057616974696E6720657648
:10041000656E74732E2E2E0052656164696E6720BE
:100420006174747269627574652E2E2000496E7451
:1004300065726E2054656D706572617475726520A9
:100440006D6561737572656D656E7420696E20707F
:10045000726F67726573732E2E0057726974696EBE
:1004600067206174747269627574652E2E20004174
:1004700074747269627574652056616C75652028A4
:100480004153434949293A200041747472696275A5
:1004900074652056616C75653A2000526561646927
:1004A0006E67206174747269627574652E2E200007
:1004B000496E7465726E2064657669636520666F47
:1004C000756E642E20436F6E6E656374696E672E61
:1004D0002E2E20004669727374207363616E20664D
:1004E0006F7220696E7465726E20646576696365EB
:1004F00000424C455F3037204578616D706C650077
:10050000380541054F05740588059505A905BD0504
:100510002406580670067B068C069D06B006BD06AE
:10052000424C45206D6F64756C65206E6F7420645D
:100530006574656374656400303030303037304343
:10054000005363616E20706172616D733A200031F7
:10055000253032782530327825303278253032789F
:1005600025303278253032783B2025643B202575B4
:100570003B0D0A00443A257825782578257825789A
:1005800025783B2025642C003B20496E6465783D2E
:1005900025750D0A0053746F70206661696C2E20FA
:1005A0006572723A2025780A005363616E20666195
:1005B000696C2E206572723A2025780A00536361B7
:1005C0006E20706172616D733A20474150206D6FEB
:1005D00064653D25753B207363616E5F696E74656C
:1005E0007276616C3D25753A207363616E5F776941
:1005F0006E646F773D25753B207363616E5F647534
:10060000706C69636174655F66696C746572696E4C
:10061000673D25753B205458506F7765723D2575B1
:100620003B0D0A004465766963652025753B2025EE
:1006300030327825303278253032782530327825BE
:10064000303278253032783B20525353493A256472
:100650003B204E616D653A006572726F7220777251
:100660006974696E672E206572723A2025780A00D7
:10067000092065633A2025780D0A004144437661DC
:100680006C28484558293A25780D0A00414443769C
:10069000616C28444543293A25640D0A00414443CE
:1006A00056616C6D5628444543293A25730D0A005E
:1006B000546128444543293A25730D0A0041747456
:1006C00072696275746520257520496E646963617D
:1006D000746564210D0A004E0762078807AF07CFD3
:1006E00007E707F50705081A08300841084D0854C0
:1006F0000871088F08A508B308C308E608EC085776
:10070000726F6E672074696D6520666F726D6174BB
:100710002E204D757374206265202264643A6868E7
:100720003A6D6D220057726F6E672074696D652097
:10073000666F726D61742E204D7573742062652032
:100740002264643A68683A6D6D3A73732200416CB2
:1007500061726D204D6F6465206D617463686573AF
:1007600020005B446179203A20686F757273203AEB
:10077000206D696E75746573203A207365636F6EC2
:1007800064735D202D3E20005B44617465203A2037
:10079000686F757273203A206D696E757465732089
:1007A0003A207365636F6E64735D202D3E20005B9D
:1007B000486F757273203A206D696E757465732089
:1007C0003A207365636F6E64735D202D3E20005B7D
:1007D0004D696E75746573203A207365636F6E643E
:1007E000735D202D3E20005B5365636F6E64735D07
:1007F000202D3E20004F6E6365207065722073656A
:10080000636F6E6400496E636F727265637420611A
:100810006C61726D206D6F6465005B253032753AD6
:10082000253032753A253032753A253032755D0003
:100830005B253032753A253032753A253032755D98
:10084000005B253032753A253032755D005B25300E
:1008500032755D005B446179203A20686F75727370
:10086000203A206D696E75746573205D202D3E20E1
:10087000005B44617465203A20686F757273203A9A
:10088000206D696E75746573205D202D3E20005BC0
:10089000486F757273203A206D696E757465735D6B
:1008A000202D3E20005B4D696E757465735D202DB3
:1008B0003E20004F6E636520706572206D696E7515
:1008C00074650025732C20253032752F2530327544
:1008D0002F253032752C20253032753A253032756F
:1008E0003A25303275006572726F720025303275AC
:1008F0002563253032752563253032752563253013
:1009000032752563253032752563253032752563B0
:100910002530327500002124272A2D30330022256E
:10092000282B2E313400202326292C2F32050505B3
:10093000050303030301010104040306060606067A
:100940000606060104050105010302020202020275
:100950000102020505040403040401030407070758
:1009600001020810102040800408102040020204F8
:100970000810204080010280204004200101020470
:100980000810200140804080010208040880041003
:10099000040201000008090000000000000000003F
:1009A0000000000000000000000000000000000047
:1009B0000000000000000000000000000000000037
:1009C00000000000000000407A10F35A00A0724EB0
:1009D00018090010A5D4E80000E87648170000E4E4
:1009E0000B54020000CA9A3B000000E1F50500002C
:1009F00080969800000040420F000000A086010091
:100A00000000102700000000E80300000000640060
:100A1000000000000A0000000000010000000000CB
:100A20002C76D888DC674F0823DFC1DFAE59E1B1EF
:100A3000B796E5E3E453C63AE651997696E8E6C2FE
:100A40008426EB898C9B62ED407C6FFCEFBC9C9F05
:100A500040F2BAA56FA5F490055A2AF75C936B6C27
:100A6000F9676DC11BFCE0E40D47FEF520E6B5001B
:100A7000D0ED902E0300943577050080841E080089
:100A800000204E0A000000C80C333333330F986E39
:100A900012831141EF8D2114893BE65516CFFEE6F6
:100AA000DB18D1844B381BF77C1D901DA4BBE424BC
:100AB000203284725E228100C9F124ECA1E53D2739
:100AC000AA12DD24892A832B0F2E34304D33B634FD
:100AD000203511241FBECFEFD1E2DEBFCDBF14E021
:100AE000A0E0B2E0EAE1FFE702C005900D92A23378
:100AF000B107D9F71CE0A2E3B4E001C01D92AB3D01
:100B0000B107E1F71AE0C2EDDAE004C02297FE0176
:100B10000E946C39C03CD107C9F70E94A1230C94F4
:100B20008B3F0C940000EF92FF920F93DF93CF93D3
:100B3000CDB7DEB760970FB6F894DEBF0FBECDBF5E
:100B4000A82F002309F461C07E010894E11CF11C68
:100B500088E0F70111928A95E9F729833A834B835C
:100B60005C836D837E83AF83988780E2801BE82F50
:100B7000FF27E7FDF09549815A816B817C8118162A
:100B800084F019861A861B861C86882799278E1B57
:100B90009F0B04C0440F551F661F771F8A95D2F71D
:100BA00028C0202F332727FD3095DB01CA01022EF4
:100BB00004C0880F991FAA1FBB1F0A94D2F7898708
:100BC0009A87AB87BC8704C07695679557954795FC
:100BD000EA95D2F78D819E81AF81B88504C0880FD8
:100BE000991FAA1FBB1F2A95D2F7482B592B6A2B96
:100BF0007B2B4D875E876F87788B29853A854B8560
:100C00005C856D857E85AF8598898A2F60960FB645
:100C1000F894DEBF0FBECDBFCF91DF910F91FF9053
:100C2000EF900895AEE5B0E0E8E1F6E00C943339DA
:100C3000A8E04E010894811C911CF4016A2E1192C7
:100C40006A94E9F729833A834B835C836D837E83BF
:100C50008F839887CE010996FC011192AA95E9F736
:100C6000A986BA86CB86DC86ED86FE860F87188B32
:100C700029843A844B845C84ED84FE840F85188932
:100C800069807A808B809C806DA67EA68FA698AAAC
:100C90006D807E808F809884E114F1040105110538
:100CA00009F0B3C3621473048404950408F03DC1D1
:100CB00000E0201600E0300601E0400600E05006AB
:100CC00088F41FEF211631044104510439F030F04B
:100CD00048E0E42EF12C012D112D18C0EE24FF2444
:100CE000870114C020E0221620E0320620E04206F0
:100CF00021E0520630F038E1E32EF12C012D112DC8
:100D000005C020E1E22EF12C012D112DD201C101EF
:100D10000E2C04C0B695A795979587950A94D2F79F
:100D2000815F9C4FDC012C9180E290E0A0E0B0E07C
:100D30008E199F09A00BB10B7C018D01E21AF108FD
:100D400001091109E114F10401051105A1F10E2CAD
:100D500004C0220C331C441C551C0A94D2F7A40175
:100D600093010E2C04C0220F331F441F551F0A94F9
:100D7000D2F780E290E08E199F096DA47EA48FA423
:100D800098A804C096948794779467948A95D2F72C
:100D9000622A732A842A952AADA4BEA4CFA4D8A817
:100DA00004C0AA0CBB1CCC1CDD1CEA94D2F7ADA677
:100DB000BEA6CFA6D8AA6201EE24FF24CDAADEAA41
:100DC000EFAAF8AE920181012070307009AF1AAF1E
:100DD0002BAF3CAFC401B301A70196010E94F638C6
:100DE0007B018C01C401B3012DA93EA94FA958ADC7
:100DF0000E94F638C901DA013C014D01C401B3017A
:100E000029AD3AAD4BAD5CAD0E94B0389B01AC0151
:100E10008701FF24EE24ADA4BEA4CFA4D8A8C601A8
:100E2000AA27BB2757016801A82AB92ACA2ADB2AA0
:100E3000A216B306C406D506E0F40894610871084A
:100E400081089108A20CB31CC41CD51CA214B304C5
:100E5000C404D50470F0A216B306C406D50648F43F
:100E600008946108710881089108A20CB31CC41C85
:100E7000D51CA21AB30AC40AD50AC601B5012DA908
:100E80003EA94FA958AD0E94F6387B018C01C601DE
:100E9000B5012DA93EA94FA958AD0E94F638C90148
:100EA000DA015C016D01C601B50129AD3AAD4BAD6A
:100EB0005CAD0E94B0389B01AC018701FF24EE2499
:100EC0008DA59EA5AFA5B8A9A070B070E82AF92A93
:100ED0000A2B1B2BE216F30604071507C0F408942F
:100EE000A108B108C108D108E20CF31C041D151DAE
:100EF000E214F3040405150550F0E216F3060407A6
:100F0000150728F40894A108B108C108D108D30135
:100F10009927882786017501E82AF92A0A2B1B2BB5
:100F2000E9AAFAAA0BAB1CABCFC4211431044104CB
:100F3000510471F461E070E080E090E020E030E086
:100F400040E050E00E94F638C901DA011C012D0191
:100F500000E0201600E0300601E0400600E0500608
:100F600088F41FEF211631044104510431F028F0B8
:100F700048E050E060E070E017C040E050E060E022
:100F800070E012C020E0221620E0320620E0420687
:100F900021E0520628F048E150E060E070E004C033
:100FA00040E150E060E070E0D201C101042E04C0D5
:100FB000B695A795979587950A94D2F7815F9C4F30
:100FC000DC012C91E0E2EE2EF12C012D112DD80147
:100FD000C701841B950BA60BB70B821B9109A109B6
:100FE000B1090097A105B10561F464015301A2188C
:100FF000B308C408D50831E0632E712C812C912CE4
:101000001EC16F968FAF6F97082E04C0220C331C41
:10101000441C551C0A94D2F7EE2DE81B64015301C1
:101020000E2E04C0D694C794B794A7940A94D2F70E
:10103000A40193016F960FAC6F9704C0220F331F6A
:10104000441F551F0A94D2F76DA47EA48FA498A8BC
:101050000E2E04C096948794779467940A94D2F7DE
:1010600084017301E22AF32A042B152BE9A6FAA6C0
:101070000BA71CA7320188249924920181012070BA
:10108000307021960CAF1DAF2EAF3FAF2197C60138
:10109000B501A40193010E94F6387B018C01C601C1
:1010A000B501A40193010E94F638C901DA01259621
:1010B0008CAF9DAFAEAFBFAF2597BC01CD012196E0
:1010C0002CAD3DAD4EAD5FAD21970E94B0389B0178
:1010D000AC018701FF24EE24A9A4BAA4CBA4DCA40C
:1010E000C601AA27BB275C016D01AE28BF28C02A14
:1010F000D12AA216B306C406D50660F525966CADB6
:101100007DAD8EAD9FAD2597615070408040904081
:1011100025966CAF7DAF8EAF9FAF2597A20CB31C09
:10112000C41CD51CA214B304C404D50498F0A216A0
:10113000B306C406D50670F46150704080409040FC
:1011400025966CAF7DAF8EAF9FAF2597A20CB31CD9
:10115000C41CD51CA21AB30AC40AD50AC601B5011B
:10116000A40193010E94F6387B018C01C601B501F0
:10117000A40193010E94F638C901DA013C014D0136
:10118000C401B30121962CAD3DAD4EAD5FAD2197AD
:101190000E94B0389B01AC018701FF24EE2489A591
:1011A0009AA5ABA5BCA5A070B07057016801A82A8C
:1011B000B92ACA2ADB2AA216B306C406D506E0F469
:1011C00008946108710881089108A20CB31CC41C22
:1011D000D51CA214B304C404D50470F0A216B3063F
:1011E000C406D50648F4089461087108810891087E
:1011F000A20CB31CC41CD51C8DA59EA5AFA5B8A977
:101200006F960FAC6F9704C0880F991FAA1FBB1F62
:101210000A94D2F78DA79EA7AFA7B8ABA21AB30ABC
:10122000C40AD50A2596ECACFDAC0EAD1FAD2597D2
:10123000D70199278827682A792A8A2A9B2A820136
:101240002227332729960CAF1DAF2EAF3FAF29972A
:10125000A2019101407050702D962CAF3DAF4EAF62
:101260005FAF2D97C601B50129962CAD3DAD4EADB2
:101270005FAD29970E94F6387B018C01C601B5014C
:1012800029962CAD3DAD4EAD5FAD29970E94F63845
:10129000C901DA0161968CAF9DAFAEAFBFAF619768
:1012A000BC01CD012D962CAD3DAD4EAD5FAD2D9762
:1012B0000E94B0389B01AC018701FF24EE24ADA44D
:1012C000BEA4CFA4D8A8C601AA27BB27570168018E
:1012D000A82AB92ACA2ADB2AA216B306C406D5064A
:1012E00060F561966CAD7DAD8EAD9FAD619761503F
:1012F00070408040904061966CAF7DAF8EAF9FAFE5
:101300006197A20CB31CC41CD51CA214B304C40462
:10131000D50498F0A216B306C406D50670F4615041
:1013200070408040904061966CAF7DAF8EAF9FAFB4
:101330006197A20CB31CC41CD51CA21AB30AC40A20
:10134000D50AC601B50129962CAD3DAD4EAD5FADB8
:1013500029970E94F6387B018C01C601B5012996B8
:101360002CAD3DAD4EAD5FAD29970E94F638C90159
:10137000DA015C016D01C601B5012D962CAD3DADC4
:101380004EAD5FAD2D970E94B0389B01AC01870137
:10139000FF24EE248DA59EA5AFA5B8A9A070B070BE
:1013A000E82AF92A0A2B1B2BE216F3060407150775
:1013B000C0F40894A108B108C108D108E20CF31CDC
:1013C000041D151DE214F3040405150550F0E21682
:1013D000F3060407150728F40894A108B108C1080A
:1013E000D1086196ECACFDAC0EAD1FAD6197D70195
:1013F0009927882796018501082B192B2A2B3B2B2F
:1014000009AB1AAB2BAB3CAB62C26E147F048006F7
:10141000910608F451C220E0E21620E0F20621E035
:10142000020720E0120788F43FEFE316F1040105FC
:10143000110531F028F048E050E060E070E017C09E
:1014400040E050E060E070E012C040E0E41640E0B0
:10145000F40640E0040741E0140728F048E150E0BA
:1014600060E070E004C040E150E060E070E0D8016E
:10147000C701042E04C0B695A795979587950A9441
:10148000D2F7815F9C4FDC012C9130E2A32EB12C6E
:10149000C12CD12CD601C501841B950BA60BB70B13
:1014A000821B9109A109B1090097A105B10589F431
:1014B000E614F7040805190508F4F2C16DA47EA42A
:1014C0008FA498A8621473048404950408F0E8C1FA
:1014D000F3C16E968FAF6E97082E04C0EE0CFF1C02
:1014E000001F111F0A94D2F76A2D681BD201C10197
:1014F000062E04C0B695A795979587950A94D2F7BE
:101500005C016D01AE28BF28C02AD12AADA2BEA2BF
:10151000CFA2D8A6720161016E960FAC6E9704C07F
:10152000CC0CDD1CEE1CFF1C0A94D2F7C9A2DAA277
:10153000EBA2FCA264015301062E04C0D694C7940A
:10154000B794A7940A94D2F7D401C3016E960FAC56
:101550006E9704C0880F991FAA1FBB1F0A94D2F769
:10156000EDA4FEA40FA518A904C016950795F7943D
:10157000E7946A95D2F737014801682A792A8A2ABE
:101580009B2A6D8E7E8E8F8E98A2EDA0FEA00FA15D
:1015900018A538018824992498018701207030709B
:1015A00065960CAF1DAF2EAF3FAF6597C601B50175
:1015B000A40193010E94F6387B018C01C601B5019C
:1015C000A40193010E94F638C901DA011C012D0122
:1015D000C201B10165962CAD3DAD4EAD5FAD6597D5
:1015E0000E94B0389B01AC018701FF24EE24AD8C32
:1015F000BE8CCF8CD8A0C601AA27BB275701680193
:10160000A82AB92ACA2ADB2AA216B306C406D50616
:1016100000F508942108310841085108EDA0FEA00A
:101620000FA118A5AE0CBF1CC01ED11EAE14BF0466
:10163000C006D10670F0A216B306C406D50648F45B
:1016400008942108310841085108AE0CBF1CC01E87
:10165000D11EA21AB30AC40AD50AC601B501A40153
:1016600093010E94F6387B018C01C601B501A401EB
:1016700093010E94F638C901DA013C014D01C40111
:10168000B30165962CAD3DAD4EAD5FAD65970E9443
:10169000B0389B01AC018701FF24EE248D8D9E8D17
:1016A000AF8DB8A1A070B07057016801A82AB92AFF
:1016B000CA2ADB2AA216B306C406D50600F508948A
:1016C00061087108810891086DA17EA18FA198A57C
:1016D000A60EB71EC81ED91EA616B706C806D9067E
:1016E00070F0A216B306C406D50648F40894610843
:1016F000710881089108A60EB71EC81ED91ED60112
:10170000C501821B930BA40BB50B898F9A8FAB8FEE
:10171000BC8FD1019927882764015301A82AB92ACF
:10172000CA2ADB2AA9AABAAACBAADCAA8601750111
:101730002FEF3FEF40E050E0E222F3220423152395
:10174000A601662777276D964CAF5DAF6EAF7FAF72
:101750006D97A9A0BAA0CBA0DCA06FEF7FEF80E0CF
:1017600090E0A622B722C822D92289A19AA1ABA1D2
:10177000BCA11D0144245524C801B701A60195014F
:101780000E94B03869966CAF7DAF8EAF9FAF6997FE
:10179000C801B701A20191010E94B0383B014C0180
:1017A0006D966CAD7DAD8EAD9FAD6D97A60195012B
:1017B0000E94B0387B018C016D966CAD7DAD8EAD15
:1017C0009FAD6D97A20191010E94B0385B016C0141
:1017D000A8019701260D371D481D591D69966CAC4F
:1017E0007DAC8EAC9FAC6997C401AA27BB27280F9C
:1017F000391F4A1F5B1F2E153F054007510748F44C
:10180000E12CF12C61E0062F112DAE0CBF1CC01E87
:10181000D11ECA01AA27BB27BC01CD016A0D7B1DC1
:101820008C1D9D1D698C7A8C8B8C9C8C6616770622
:101830008806990640F1661577058805990509F02F
:1018400043C0D9019927882769962CAD3DAD4EAD8F
:101850005FAD699740705070820F931FA41FB51F32
:101860002DA53EA54FA558A96E960FAC6E9704C046
:10187000220F331F441F551F0A94D2F72817390728
:101880004A075B0708F509A91AA92BA93CA9015029
:1018900010402040304009AB1AAB2BAB3CAB14C01E
:1018A00066247724430121E030E040E050E029AB9A
:1018B0003AAB4BAB5CAB0BC066247724430119AA4F
:1018C0001AAA1BAA1CAA03C0662477244301FE019E
:1018D000719688E0DF011D928A95E9F7A9A8BAA858
:1018E000CBA8DCA8A98ABA8ACB8ADC8A6D8A7E8AD0
:1018F0008F8A988E29A93A894B895C89662D7E89C1
:101900008F89988DC25ADF4FE2E10C944F3986E9F6
:1019100096E061EF74E00E94322C86E494E060E08F
:101920000E946B198BE996E00E94682E60E072ECD1
:1019300081E090E041E00E94252381E00E943F2168
:1019400064EF71E080E090E00E94111F0895AF9273
:10195000BF92CF92DF92EF92FF920F931F935C01A1
:10196000BC01672F772762956F7080E090E00E943E
:1019700036369B01AC0160E070E080E090E40E94AC
:101980004B377B018C018FEF9FE0A822B922CC243A
:10199000DD24C601B5010E9436365B016C01C80129
:1019A000B7012AE037ED43E25CE30E94E8369B0191
:1019B000AC01C601B5010E94E8361F910F91FF905E
:1019C000EF90DF90CF90BF90AF9008956F927F928D
:1019D0008F929F92AF92BF92CF92DF92EF92FF923F
:1019E0000F931F93DF93CF9300D000D0CDB7DEB716
:1019F00086E996E064ED74E00E94322C86E996E078
:101A000060E072E00E94792C86E996E063E174E080
:101A10000E94602C86E494E063E174E00E94091B5C
:101A2000019709F086C286E996E060EB74E00E94B7
:101A3000322C86E494E063E174E00E948A1880937B
:101A40003204813009F070C286E996E069E172E003
:101A50000E94792C4091FB0450E060E070E086E940
:101A600096E02AE030E00E942B2D86E996E068E3BC
:101A700072E00E94792C86E494E06091FB040E945D
:101A80004617482F552747FD5095652F752F86E936
:101A900096E02AE030E00E942B2D86E996E06BE983
:101AA00074E00E94322C86E494E06091FB0443E0F1
:101AB00050E00E94A21686E996E069E874E00E9470
:101AC000032C10E00AC0E12FF0E0E350FB4F86E961
:101AD00096E060810E94E22B1F5F8091FC04181742
:101AE00090F386E996E00E94F42B86E996E06FE693
:101AF00074E00E94032C10E00AC0E12FF0E0E350F4
:101B0000FB4F86E996E060810E944D2C1F5F80911B
:101B1000FC04181790F386E996E00E94F42B86E9FE
:101B200096E00E94F42B81E080932F0486E996E0F2
:101B30006AE574E00E94322C86E494E06091FB0434
:101B400044E250E02FE234E001E00E942D16892BA0
:101B500031F486E996E06DE274E00E94322C81E077
:101B600089831A8286E494E06091FB0442E250E0AB
:101B70009E012F5F3F4F02E00E942D169093350487
:101B800080933404892B09F0ADC086E996E068E1C2
:101B900074E00E94322C86E494E06091FB0441E200
:101BA00050E00E94A2161092360472C086E996E0B8
:101BB0006FEE73E00E94322C709043056624E09033
:101BC0004205FF24E628F72886E996E06EE372E0F6
:101BD0000E94792C00E010E086E996E0B801A701A8
:101BE0002AE030E00E94692D86E996E066E572E021
:101BF0000E94602C9090470588246091460570E013
:101C0000682979297695679576956795882777FD70
:101C10008095982F0E94383620E030E040E05DE368
:101C20000E94E8367B018C0186E996E065E672E069
:101C30000E94792C86E996E0A701B8010E941F2D29
:101C400086E996E00E94F42BB701C80140E022E04B
:101C500007E314E00E9470398AE792E061E00E9495
:101C60000822C80161E00E940822809136048F5F3B
:101C700080933604109235041092340402C00F97FA
:101C8000D9F10E947B1E6A157B058C059D0520F409
:101C90000E947B1E5B016C0180913604853060F5EB
:101CA0000E947B1E6A197B098C099D096053754748
:101CB0008040904008F586E996E066E074E00E9476
:101CC000322C86E494E048E853E160E070E00E9442
:101CD0001E1390E090933504809334048531910570
:101CE00071F664CF86E996E06BED73E00E94322CCA
:101CF00086E996E00E94F42B10922F0486E494E08B
:101D00006091FB0444E250E02FE234E001E00E94E5
:101D10002D16892B51F086E996E066EB73E00E9460
:101D2000322C86E996E00E94F42B81E080932F0408
:101D300086E996E061EA73E00E94322C86E494E042
:101D40006091FB0444E450E02FE234E001E00E94A3
:101D50002D16892B31F486E996E067E773E00E943F
:101D6000322C81E08B831C8286E494E06091FB043A
:101D700042E450E09E012D5F3F4F02E00E942D168D
:101D80009093350480933404892B09F09FC086E931
:101D900096E062E673E00E94322C86E494E0609163
:101DA000FB0441E450E00E94A2161092360464C085
:101DB00086E996E069E373E00E94322C7090430557
:101DC0006624E0904205FF24E628F72886E996E09D
:101DD0006EE372E00E94792C00E010E086E996E064
:101DE000B801A7012AE030E00E94692D86E996E05B
:101DF00066E572E00E94602C9090470588248091EF
:101E0000460590E0882999290E94A70C7B018C0146
:101E100086E996E06EE772E00E94792C86E996E00A
:101E2000B801A7010E941F2D86E996E00E94F42BBD
:101E3000C801B70140E022E007E314E00E947039D6
:101E400080E992E061E00E940822C80161E00E94FE
:101E50000822809136048F5F8093360410923504F7
:101E60001092340402C00F97D9F10E947B1E6A15AC
:101E70007B058C059D0520F40E947B1E5B016C0197
:101E800080913604853060F50E947B1E6A197B09BB
:101E90008C099D09605375478040904008F586E99C
:101EA00096E060E573E00E94322C86E494E048E816
:101EB00053E160E070E00E941E1390E090933504BF
:101EC000809334048531910571F672CF86E996E0EE
:101ED00065E273E00E94322C86E996E00E94F42BC2
:101EE00010922F0486E494E06091FB0444E450E0F7
:101EF0002FE234E001E00E942D16892B51F086E993
:101F000096E06CEF72E00E94322C86E996E00E9427
:101F1000F42B86E494E06091FB040E947D1786E92F
:101F200096E060EE72E009C086E996E062ED72E04C
:101F300004C086E996E068EB72E00E94322C86E9E4
:101F400096E00E94F42B86E494E060E00E946B1916
:101F500086E996E06BE972E00E94322C86E996E011
:101F600063E972E00E94792C86E996E061E274E010
:101F70000E94602C86E494E061E274E00E94091BF8
:101F8000019709F099C186E996E067E772E00E943F
:101F9000322C86E494E061E274E00E948A18809317
:101FA0003304813009F083C186E996E069E172E08B
:101FB0000E94792C4091FB0450E060E070E086E9DB
:101FC00096E02AE030E00E942B2D86E996E068E357
:101FD00072E00E94792C86E494E06091FB040E94F8
:101FE0004617482F552747FD5095652F752F86E9D1
:101FF00096E02AE030E00E942B2D86E996E062E62A
:1020000072E00E94322C86E494E06091FB0443E08D
:1020100050E00E94A21686E996E060E572E00E9418
:10202000032C10E00AC0E12FF0E0E350FB4F86E9FB
:1020300096E060810E94E22B1F5F8091FC041817DC
:1020400090F386E996E00E94F42B86E996E066E339
:1020500072E00E94032C10E00AC0E12FF0E0E35090
:10206000FB4F86E996E060810E944D2C1F5F8091B6
:10207000FC04181790F386E996E00E94F42B86E999
:1020800096E00E94F42B81E080932F0486E996E08D
:1020900061E272E00E94322C86E494E06091FB04DD
:1020A00044E250E02FE234E001E00E942D16892B3B
:1020B00031F486E996E064EF71E00E94322C81E011
:1020C0008B831C8286E494E06091FB0442E250E042
:1020D0009E012D5F3F4F02E00E942D169093350424
:1020E00080933404892B09F0ADC086E996E06FED4A
:1020F00071E00E94322C86E494E06091FB0441E29E
:1021000050E00E94A2161092360472C086E996E052
:1021100066EB71E00E94322C709043056624E090DB
:102120004205FF24E628F72886E996E06EE372E090
:102130000E94792C00E010E086E996E0B801A70142
:102140002AE030E00E94692D86E996E066E572E0BB
:102150000E94602C9090470588246091460570E0AD
:10216000682979297695679576956795882777FD0B
:102170008095982F0E94383620E030E040E05DE303
:102180000E94E8367B018C0186E996E06CEA72E0F9
:102190000E94792C86E996E0A701B8010E941F2DC4
:1021A00086E996E00E94F42BB701C80140E022E0E6
:1021B00007E314E00E94703981EC92E061E00E9434
:1021C0000822C80161E00E940822809136048F5FD6
:1021D00080933604109235041092340402C00F9795
:1021E000D9F10E947B1E6A157B058C059D0520F4A4
:1021F0000E947B1E5B016C0180913604853060F586
:102200000E947B1E6A197B098C099D0960537547E2
:102210008040904008F586E996E06DEC71E00E9400
:10222000322C86E494E048E853E160E070E00E94DC
:102230001E1390E09093350480933404853191050A
:1022400071F664CF86E996E062EA71E00E94322C72
:1022500086E996E00E94F42B10922F0486E494E025
:102260006091FB0444E250E02FE234E001E00E9480
:102270002D16892B51F086E996E06DE771E00E94FA
:10228000322C86E996E00E94F42B86E494E060917B
:10229000FB040E947D1786E996E06FE671E00E94DC
:1022A000322C85EC92E061E00E9408220BC086E9A6
:1022B00096E061E671E004C086E996E06EE471E0C4
:1022C0000E94322C86E996E00E94F42B86E996E083
:1022D0006AEC72E00E94602C68E873E180E090E0B4
:1022E0000E94111F17C081E00E9404218F369105C2
:1022F000B9F481E00E949420892B91F481E061E09F
:1023000007C081E00E949420019721F481E060E001
:102310000E94492081E00E94E020892B21F707C01C
:1023200081E00E94042183369105A1F7EACF0F9046
:102330000F900F900F90CF91DF911F910F91FF9011
:10234000EF90DF90CF90BF90AF909F908F907F9055
:102350006F900895FC01E950FF4F8081E75FF040E6
:10236000882309F4C4C0E750FF4F8081E95FF04043
:10237000882309F5E650FF4F80818230A1F0833039
:1023800030F4882371F0813009F0B1C008C0843086
:1023900071F0843050F0853009F0A9C00AC082E0A5
:1023A000089581E0089583E0089584E0089585E02C
:1023B000089586E00895813041F4E650FF4F808112
:1023C000882309F094C087E00895823089F4E650AC
:1023D000FF4F8081813031F0813030F0823009F060
:1023E00086C004C089E0089588E008958AE00895D1
:1023F0008330E9F4E650FF4F8081823091F08330E2
:1024000030F4882361F0813009F071C006C0833058
:1024100051F0843009F06BC008C08CE008958BE067
:1024200008958DE008958EE008958FE0089584303A
:1024300011F5E650FF4F80818330A9F0843028F4F5
:10244000813059F0823068F40AC0853081F08530DF
:1024500060F0863009F04BC00CC081E1089580E146
:10246000089582E1089583E1089584E1089585E166
:10247000089586E108958530D9F4E650FF4F8081B4
:10248000823081F0833028F4882351F0813079F54F
:1024900005C0833049F0843051F508C088E10895C3
:1024A00087E1089589E108958AE108958BE108950F
:1024B000863059F4E650FF4F8081882321F0813027
:1024C000B1F48DE108958CE10895873081F4E650F0
:1024D000FF4F8081813029F0813028F0823039F43B
:1024E00004C08FE108958EE1089580E2089580E0B0
:1024F0000895CF93DF93FC0180E092ECA1E0B0E07F
:1025000080839183A283B383E055FF4F11821082B1
:10251000E05BF040CF018A5B9F4FDC0186E0ED017C
:1025200019928A95E9F7EB5AFF4F8FE0808339972C
:1025300082E08193119211928BE4819382E38193E3
:1025400011921082389680E094E091838083DF912D
:10255000CF91089586E494E00E9479120895CF9374
:10256000DF93EC018D599F4FFC018FE1DF011D923C
:102570008A95E9F7CE57DF4F2881C258D04081E0D5
:1025800056C0FE01E80FF11DEE57FF4F90818F5F9F
:10259000FE01E80FF11DEE57FF4FE081482F4F5F1E
:1025A000E930F1F4E92F903208F0EFE190E02E2FBE
:1025B00030E0215030400CC0AC0FBD1FAD59BF4FB3
:1025C000FE01E80FF11DEE57FF4F80818C939F5F56
:1025D000892F840FA92FB0E0A217B3076CF325C091
:1025E000E830F9F4E92F903208F0EFE190E02E2F77
:1025F00030E0215030400CC0AC0FBD1FAD59BF4F73
:10260000FE01E80FF11DEE57FF4F80818C939F5F15
:10261000892F840FA92FB0E0A217B3076CF382E0D3
:102620000AC0892F840F815002C081E004C0821744
:1026300008F4A7CF80E0DF91CF9108958F929F9209
:10264000AF92BF92CF92DF92EF92FF920F931F93C0
:10265000CF93DF93EC014A015B018C0109501F4FBE
:1026600081E4D8011D928A95E9F762C08C810E94AD
:10267000E02004970CF455C08C810E940421F801DD
:102680008083803809F04DC08C810E9404218E0126
:1026900008501F4FD8018C938C810E940421C75091
:1026A000DF4F8883C95FD0408C810E940421C650CF
:1026B000DF4F8883CA5FD0400E947B1E6B017C0184
:1026C0008C810E94E020F801208130E0821793077E
:1026D0000CF04EC00E947B1E6C197D098E099F096B
:1026E000681579058A059B0508F042C00E947B1E8B
:1026F0006C157D058E059F0518F7DECF8C810E9435
:102700000421D7018D937D010F5F1F4F0234110506
:10271000F9F0F601808190E003968017910774F735
:1027200017C00E947B1E6C157D058E059F0520F449
:102730000E947B1E6B017C010E947B1E6C197D092F
:102740008E099F09681579058A059B0508F48ECFC7
:10275000CE010E94AA11DF91CF911F910F91FF909E
:10276000EF90DF90CF90BF90AF909F908F900895A3
:102770009BEFE92EF12CEC0EFD1E04E010E088EF3B
:10278000C82ED12CCC0EDD1EC4CFBF92CF92DF92CB
:10279000EF92FF920F931F93CF93DF93EC01C62E1E
:1027A000B42E0596FC0181E4DF011D928A95E9F7BC
:1027B0000E947B1E7B018C01DD2418C08C810E944D
:1027C0000421FE01ED0DF11D8583D394DC1438F551
:1027D000B0E4BD1520F10E947B1E6E157F058007B9
:1027E000910720F40E947B1E7B018C01DC1428F0F1
:1027F0008C810E94E020892B91F00E947B1E6E1933
:102800007F09800B910B643171058105910538F4C6
:102810008C810E94E0201816190684F2DCCFDE01BC
:10282000A055BF4F81E0B81661F4FE01ED0DF11D1A
:10283000948180E0238130E0822B932B8D939C93B5
:1028400002C01D921C92DD2041F4C055DF4F8FEF76
:102850009FEF99838883C05BD040FE01E055FF4F16
:1028600080819181DF91CF911F910F91FF90EF9027
:10287000DF90CF90BF900895CF93DF93EC018C81D0
:102880008823A1F48BE996E00E94572E6881798114
:102890008A819B814C810E9425238C810E943F214B
:1028A0008FE261E00E942B208FE215C08130B1F4ED
:1028B0008BE996E00E94812E688179818A819B81D3
:1028C0004C810E9425238C810E943F2184E061E09D
:1028D0000E942B2084E061E00E9449208C818823A3
:1028E00051F48091C1089091C208A091C308B091A1
:1028F000C40884600BC0813089F48091C108909134
:10290000C208A091C308B091C40888608093C10830
:102910009093C208A093C308B093C408CE0148EEB8
:1029200053E060E070E00E941E138E3109F481E0F4
:10293000DF91CF910895AF92BF92CF92DF92EF9245
:10294000FF920F931F93CF93DF937C015AE5C52E1F
:10295000D12CC80ED91EF601808191818F519740EC
:1029600019F420E030E053C08701045A1F4FE601FC
:1029700042E6A42EB12CAE0CBF1C688179818BE994
:1029800096E0F80141918F010E941C2E68817981A7
:102990006F5F7F4F798368830A151B0571F78BE999
:1029A00096E0F80140810E941C2EF6018081918101
:1029B00001969183808387010D591F4FE701C65A05
:1029C000DF4F82E890E0E80EF91E688179818BE99B
:1029D00096E0F80141918F010E941C2E6881798157
:1029E0006F5F7F4F798368830E151F0571F78BE941
:1029F00096E040EF0E941C2E688179816F5F7F4FC7
:102A00008BE996E040EF0E941C2E21E030E0C901E6
:102A1000DF91CF911F910F91FF90EF90DF90CF90BA
:102A2000BF90AF900895DF92EF92FF920F931F93A4
:102A3000CF93DF93EC01C950DF4F8881C75FD0404F
:102A4000803839F0C750DF4F8881C95FD040863069
:102A500041F47CE5E72EF12CEC0EFD1ED70195E04C
:102A600009C0C650DF4F8881CA5FD040882389F3F0
:102A700080E068C0FE01E90FF11DE350FF4F808147
:102A80008D939150B8F7FE01EE59FF4FC550DF4FBF
:102A9000888180832A962881C550D140203208F051
:102AA0002FE1CE018E579F4FFC0181E2DF011D9285
:102AB0008A95E9F730E0422F50E00AC0FE01E80FA6
:102AC000F91FEB5FFE4F8081E358F04080833F5F4A
:102AD000832F90E0481759078CF7613029F4CE0115
:102AE0000E94AF12D82E0BC09E012D593F4FC90135
:102AF00060E270E04FE150E00E94043ADD248E0174
:102B00000A5B1F4FC701B80146E050E00E94F73949
:102B10000097B9F0FE01EE54FF4F8081918101963C
:102B200091838083D801F70186E001900D92815056
:102B3000E1F7CE016D2D0E949B14892B11F482E0E8
:102B400001C081E0DF91CF911F910F91FF90EF9035
:102B5000DF9008956F927F929F92AF92BF92CF9233
:102B6000DF92EF92FF920F931F93DF93CF93CDB736
:102B7000DEB75C01F62EE42ED22EC02E912E6DB65D
:102B80007EB68CE3861718F421E030E052C0262F81
:102B900030E02B5F3F4FEDB7FEB7E21BF30B0FB6F4
:102BA000F894FEBF0FBEEDBF0DB71EB70F5F1F4FEE
:102BB000C80160E070E0A9010E94043AF4E0FF0E51
:102BC000F801F082FCEFFF0EF8011182F282E3823D
:102BD000D482FF2021F4F5E0EF2EF12C15C0D801AE
:102BE0008C2D992D9C01F901819115968C93159747
:102BF00011968E2F8C198F15B8F3FA94EF2CFF24B1
:102C000086E090E0E80EF91EF50184810E943F21E4
:102C1000DD2408C0E00FF11F8081F50164810E946E
:102C2000D521D394ED2DF0E0EE15FF0598F320E0CB
:102C300030E0C9010FB6F8947EBE0FBE6DBECF91D5
:102C4000DF911F910F91FF90EF90DF90CF90BF9099
:102C5000AF909F907F906F900895CF92DF92EF9208
:102C6000FF920F931F93DF93CF93CDB7DEB77C0115
:102C7000702FCDB6DEB6802F90E00496ADB7BEB70C
:102C8000A81BB90B0FB6F894BEBF0FBEADBF0DB7F2
:102C90001EB70F5F1F4F11966C93F801418352834B
:102CA0007383D80140E050E009C0F901E40FF51F3B
:102CB000808113968C9313974F5F5F4F1196471740
:102CC000A0F37C5FC701672F44E025E00E94AA15AE
:102CD000C70167E041E00E94C513892B01F5C701D8
:102CE00048EE53E060E070E00E941E13813111F065
:102CF00090E01AC0F701E055FF4F4DEF50E0E40EB1
:102D0000F51ED7019C9180E02E917D0144E05FEF9C
:102D1000E40EF51E30E0822B932B91838083F70124
:102D2000E055FF4F808191810FB6F894DEBE0FBE53
:102D3000CDBECF91DF911F910F91FF90EF90DF906B
:102D4000CF9008959F92AF92BF92CF92DF92EF9271
:102D5000FF920F931F93DF93CF9300D00F92CDB7C5
:102D6000DEB77C01962E6A01A6EBAA2EB12CA80E26
:102D7000B91E81E4D5011D928A95E9F769834A83DA
:102D8000DB82C70163E044E024E08E010F5F1F4F48
:102D90000E94AA15C70167E041E00E94C513E0EB5D
:102DA000F0E0EE0EFF1ED7010D911C91E0E5FFEF64
:102DB000EE0EFF1E0115110509F058C0C70140EDC8
:102DC00057E060E070E00E941E13882319F401E0D0
:102DD00010E04CC0853119F0082F10E047C02DEFEE
:102DE00030E0E20EF31ED7014C91F7012291DF0192
:102DF0008E917D01E5E0FFEFEE0EFF1E8915B1F526
:102E0000942F80E030E0822B932B8C159D0571F57B
:102E10002FEF30E0E20EF31ED7018C91E1E0FFEFDF
:102E2000EE0EFF1E873110F086E102C0882321F0EC
:102E300020E0482F50E015C081E0D5018C93E7EBEE
:102E4000F0E0EE0EFF1E80E3D7018C930FC0F70178
:102E5000E80FF91FE150FF4F8081E954F040808373
:102E60002F5F822F90E0481759078CF7C8010F9009
:102E70000F900F90CF91DF911F910F91FF90EF90E6
:102E8000DF90CF90BF90AF909F900895EF92FF9208
:102E90000F931F93DF93CF930F92CDB7DEB77C01D3
:102EA000698361E043E021E08E010F5F1F4F0E94C4
:102EB000AA15C70166E040E00E94C513F70191859D
:102EC0008981981789F420EB30E0E20EF31EF701B8
:102ED0008081918120E53FEFE20EF31E8F5F9F4FCF
:102EE00019F0F701828501C080E00F90CF91DF914A
:102EF0001F910F91FF90EF900895EF92FF920F9323
:102F00001F93DF93CF930F92CDB7DEB77C01698318
:102F100061E043E020E08E010F5F1F4F0E94AA1581
:102F2000C70167E041E00E94C51325EB30E0E20EE7
:102F3000F31EF70190812BE43FEFE20EF31EF70141
:102F40008185981719F021E030E02CC0F7019385B6
:102F500080E0228530E0282B392B80EB90E0E80ED2
:102F6000F91EF7013183208380E59FEFE80EF91EFB
:102F700021153105B9F4C70140E157E260E070E086
:102F80000E941E138F3061F4EDEFF0E0EE0EFF1E95
:102F9000F701908180E0229130E0282B392B02C08C
:102FA000282F30E0C9010F90CF91DF911F910F9131
:102FB000FF90EF9008958F929F92AF92BF92CF9221
:102FC000DF92EF92FF920F931F93DF93CF93CDB7D2
:102FD000DEB765970FB6F894DEBF0FBECDBF5C01BC
:102FE0004A01D22EC32E8BE996E0AE014F5F5F4FB0
:102FF0000E94252E2D2D3C2DC901AC018815990567
:1030000008F4A4010A30110518F40AE010E006C023
:103010002CE00138120710F000E81CE0970181E075
:10302000253F380710F024EF31E08E818F838D81AA
:1030300088878C8189878B818A878A818B87898120
:103040008C871D868E869F86488B598B0A8B1B8B9F
:103050002C8B3D8BC5016FE046E023E08E01095FBC
:103060001F4F0E94AA15C50167E040E00E94C513EA
:10307000F501928580E0218530E0282B392B80EB0B
:1030800090E0A80EB91EF5013183208380E59FEF03
:10309000A80EB91E2115310549F5F501838525EBEB
:1030A00030E0A20EB31EF50180832BE43FEFA20EA9
:1030B000B31EC50148EE53E060E070E00E941E13AD
:1030C000182F64E670E080E090E00E94111F1B3032
:1030D00059F48CEF90E0A80EB91EF501808185307F
:1030E00019F421E030E002C0212F30E0C9016596DB
:1030F0000FB6F894DEBF0FBECDBFCF91DF911F9109
:103100000F91FF90EF90DF90CF90BF90AF909F9086
:103110008F900895EF92FF920F931F934CE350E02E
:103120002CE430E004E610E0EE24FF240E94DB17DC
:103130001F910F91FF90EF900895BF92CF92DF9271
:10314000EF92FF920F931F93DF93CF9300D00F92D4
:10315000CDB7DEB77C01D62EC42EB22E69834A834A
:103160002B8363E046E026E08E010F5F1F4F0E9435
:10317000AA15C70166E041E00E94C51320EB30E0CC
:10318000E20EF31EF7018081918120E53FEFE20E10
:10319000F31E892B91F481E590E0E80EF91EF7010A
:1031A000D1927F01C08222E030E0E20EF31EF701EF
:1031B000B0822CEA3FEFE20EF31EF701E055FF4F1D
:1031C000808191810F900F900F90CF91DF911F918F
:1031D0000F91FF90EF90DF90CF90BF900895FC018A
:1031E000262FDC01AE5ABF4FEF5AFF4F60814C9142
:1031F0000E949D180895EF92FF920F931F937C01F8
:1032000060E046E024E000E010E00E94AA15C7015B
:1032100066E041E00E94C5131F910F91FF90EF906F
:103220000895FF920F931F93CF93DF93EC010E94B9
:10323000FB18CE0161E00E94EF18892B19F0E2E043
:10324000FE2E07C0CC5ADF4F81E08883C455D040A2
:10325000FF248E01065A1F4FF801608171818BE9AE
:1032600096E040EF0E941C2EF801608171816F5F33
:103270007F4F8BE996E040EF0E941C2E80E0FF20FC
:1032800009F481E0DF91CF911F910F91FF90089594
:10329000EF92FF920F931F937C0161E049E020E0E1
:1032A00000E010E00E94AA1564EF71E080E090E079
:1032B0000E94111FC70148EE53E060E070E00E94D9
:1032C0001E1390E0813009F491E0892F1F910F9136
:1032D000FF90EF900895CF93DF93EC01623018F0E8
:1032E00081E08C8301C06C838C81882331F486E17A
:1032F00061E00E942B2086E107C0813041F486E026
:1033000061E00E942B2086E061E00E94492064E693
:1033100070E080E090E00E94111FCE010E943C14FA
:103320008130A1F1C850DF4F8881C85FD0408C3018
:1033300071F4C750DF4F8881C95FD040882339F4CA
:10334000C650DF4F8881CA5FD0408823F9F0CE0194
:103350000E9448198823D1F486E996E060E275E07E
:103360000E94322C8BE996E06CE041E00E949A2E9C
:1033700060E375E780E090E00E94111F8BE996E022
:103380006CE040E00E949A2E80E003C0CE010E94D3
:103390001119DF91CF910895AF92BF92DF92EF9212
:1033A000FF920F931F93DF93CF93CDB7DEB765974F
:1033B0000FB6F894DEBF0FBECDBF5C016D8B6031E0
:1033C00010F08FE08D8B19821A821B821C8246E0DE
:1033D000D42EFE013596DF018D2D1D928A95E9F7D9
:1033E000C50161E047E02CE08E010B5E1F4F0E949B
:1033F000AA15C50164E040E00E94C513B5016B5FEA
:103400007F4F8BE996E07E010894E11CF11CA70137
:1034100024E00E94A32D1B861C861D861E86FE01AD
:103420003F96DF011D92DA94E9F7E0E0F5E065915F
:1034300074918E01055F1F4FC8010E94F039C701CA
:10344000B8010E94163A009719F021E030E009C057
:10345000E5E5F0E0AE0EBF1E8D89D5018C9320E02E
:1034600030E0C90165960FB6F894DEBF0FBECDBF40
:10347000CF91DF911F910F91FF90EF90DF90BF9060
:10348000AF9008954F925F926F927F929F92AF920A
:10349000BF92CF92DF92EF92FF920F931F93CF9341
:1034A000DF93EC012B01D42E72EBE72EF12CE80E0A
:1034B000F91EF7011182108266E4662E712C680EE7
:1034C000791E86E0F30111928A95E9F7CE01622F09
:1034D0000E94CC198E010C5A1F4FF8018081813057
:1034E00081F0CE0161E00E94EF18892B21F481E088
:1034F000F801808306C08FEF9FEFF70191838083EF
:1035000069C08E01045B1F4FCE0161E046E022E0FE
:103510000E94AA15CE0166E041E00E94C513892BE6
:1035200009F058C08D2D90E028EE33E0AC01429FA9
:10353000C001439F900D529F900D11245C01CC243B
:10354000B7FCC094DC2C51EEA51653E9B50654E047
:10355000C50650E0D50638F050EEA52E53E9B52E3D
:1035600054E0C52ED12C0E947B1E7B018C011DC016
:10357000CE0160E00E941315C301B20146E050E0A5
:103580000E94F739009719F49924939401C0992463
:103590000E947B1E6E157F058007910720F40E9414
:1035A0007B1E7B018C01992071F50E947B1E6E1998
:1035B0007F09800B910B6A157B058C059D0510F525
:1035C000CE0148EE53E060E070E00E941E138C31A3
:1035D000F1F6CECFFE01E055FF4F8081918102C010
:1035E000892D90E0DF91CF911F910F91FF90EF9087
:1035F000DF90CF90BF90AF909F907F906F905F9043
:103600004F9008959924CE010E94FB18892B41F315
:10361000E1CFEF92FF920F931F93DF93CF9300D0F0
:1036200000D000D0CDB7DEB77C018B01FB0101904B
:103630000020E9F73197E61BF70B3E9710F0FB01EE
:103640001486C8010E941F3A8BE996E0B8018E01EA
:103650000F5F1F4FA8010E94252EC701B8014EE140
:103660002FE00E94421A26960FB6F894DEBF0FBED6
:10367000CDBFCF91DF911F910F91FF90EF900895F3
:10368000482F613210F081E00895809180058430E8
:1036900011F082E008956093C905A8EAB5E0842F8F
:1036A0009C01F90102C081918D938E2F841B861796
:1036B000D0F380E00895589859988091B9008160BE
:1036C0008093B9008091B90082608093B9008091A5
:1036D000BC0080688093BC008091BC0080618093B6
:1036E000BC008091BC008F7B8093BC008091BC00AB
:1036F0008F7D8093BC008091BC00877F8093BC004D
:103700008091C1089091C208A091C308B091C408EB
:1037100086FD14C08091C1089091C208A091C30891
:10372000B091C40890FD0AC08091C1089091C20870
:10373000A091C308B091C40893FF04C08091BC005D
:103740008B7F03C08091BC0084608093BC0080911B
:10375000BC008E7F8093BC00809164008068809361
:103760006400089510928005E4E6F0E080818F7790
:103770008083589A599AE9EBF0E080818E7F8083AC
:1037800080818D7F808381E48093B80085E480937D
:10379000BC0080E2E6E8F5E0DF01982F1D929A95E3
:1037A000E9F7E8EAF5E0DF01982F1D929A95E9F72D
:1037B000EAECF5E0DF011D928A95E9F70895882388
:1037C00049F01092EC051092ED051092EE05109262
:1037D000EF0513C08091EC059091ED05A091EE05E9
:1037E000B091EF050196A11DB11D8093EC0590935A
:1037F000ED05A093EE05B093EF058091EC05909157
:10380000ED05A091EE05B091EF05805A9648A140D4
:10381000B04010F480E008951092EC051092ED0590
:103820001092EE051092EF050E94B21B81E0089500
:1038300085ED8093BC0081E00E94DF1B05C080E025
:103840000E94DF1B882321F48091BC0084FDF7CF08
:103850001092800508951F920F920FB60F920BB62B
:103860000F9211242F933F934F935F936F937F9306
:103870008F939F93AF93BF93EF93FF938091B90082
:1038800090E0887F90708036910509F4C3C081363E
:103890009105CCF58832910509F47BC089329105F8
:1038A000B4F48031910509F46FC0813191053CF485
:1038B000009709F40EC1089709F00FC165C088315F
:1038C000910509F466C0809709F007C177C080347C
:1038D000910509F48DC08134910544F4803391053C
:1038E00009F472C0C89709F0F8C072C0803591051C
:1038F00009F472C08835910509F47FC088349105B8
:1039000009F0EBC0E8C08839910509F4D8C08939BD
:103910009105ECF48837910509F47CC0893791054D
:103920004CF48836910509F475C08037910509F08B
:10393000D4C070C08838910509F4C1C080399105A0
:1039400009F46EC08038910509F0C7C069C0803B9A
:10395000910509F48CC0813B91054CF4803A9105A6
:1039600009F470C0883A910509F0B7C080C0803C66
:10397000910509F4A8C0883C910509F4A4C0883BCE
:10398000910509F0AAC088C0809181058093BB0091
:1039900013C09091A6058091A705981708F09BC0C9
:1039A0009091A605E92FF0E0EA57FA4F80818093C5
:1039B000BB009F5F9093A60585EC82C00E94181CF7
:1039C00080E28093EB0589C080E38093EB0583C0A0
:1039D00088E38093EB0577C08091A6059091BB00AA
:1039E000E82FF0E0EA57FA4F90838F5F8093A605A7
:1039F0009091A6058091A7055FC08091A605909142
:103A0000BB00E82FF0E0EA57FA4F90838F5F809376
:103A1000A60561C083E0809380051092EA05CCCFB3
:103A20008091EA05803208F04AC08091EA059091C1
:103A3000BB00E82FF0E0E653FA4F90838F5F80934E
:103A4000EA05BACF8091EA05803230F4E091EA05C8
:103A5000F0E0E653FA4F10826091EA05E0918405A8
:103A6000F09185058AEC95E070E009952CC084E022
:103A7000809380051092C8051092C905E0918205D7
:103A8000F091830509958091C905882329F481E087
:103A90008093C9051092A8059091C805E92FF0E020
:103AA000E855FA4F80818093BB009F5F9093C805D3
:103AB0009091C8058091C905981708F47DCF85E8D5
:103AC0008093BC000AC085EC8093BC0010928005F6
:103AD00004C01092EB050E94181CFF91EF91BF915A
:103AE000AF919F918F917F916F915F914F913F9196
:103AF0002F910F900BBE0F900FBE0F901F90189537
:103B0000DF92EF92FF920F931F93E82E062FF72E6E
:103B1000142FD22E413210F081E051C081E00E947A
:103B2000DF1B05C080E00E94DF1B882321F4809109
:103B300080058823B9F782E0809380058FEF80931A
:103B4000EB051092A6051093A705A6E8B5E0202F77
:103B50003F2DC901FC0102C081918D938E2F801BE6
:103B60008117D0F38E2D90E0880F991F80938105E7
:103B700085EE8093BC0081E00E94DF1BDD2041F4D4
:103B80000BC080E00E94DF1B882311F085E017C086
:103B9000809180058230A9F38091EB058F3F11F46D
:103BA00080E00DC08091EB05803211F482E007C007
:103BB0008091EB05803311F084E001C083E01F9118
:103BC0000F91FF90EF90DF9008950F931F93CF9385
:103BD000DF93182FEB01042F413210F081E03CC03D
:103BE00081E00E94DF1B05C080E00E94DF1B88236C
:103BF00021F4809180058823B9F781E080938005C6
:103C00008FEF8093EB051092A6050093A705110F87
:103C100011601093810585EE8093BC0081E00E94C5
:103C2000DF1B08C080E00E94DF1B882319F020E022
:103C300030E00FC0809180058130A1F3F8CFFE0104
:103C4000E20FF31FD901AA57BA4F8C9180832F5FDF
:103C50003F4F2017A0F380E0DF91CF911F910F918C
:103C600008951F920F920FB60F9211248F939F9376
:103C7000AF93BF938091D3089091D408A091D508B9
:103C8000B091D6080196A11DB11D8093D3089093E1
:103C9000D408A093D508B093D608BF91AF919F9157
:103CA0008F910F900FBE0F901F9018951F920F923B
:103CB0000FB60F9211248F939F93AF93BF93809170
:103CC000D7089091D808A091D908B091DA08019648
:103CD000A11DB11D8093D7089093D808A093D9084F
:103CE000B093DA08BF91AF919F918F910F900FBE63
:103CF0000F901F9018958F929F92AF92BF92CF9284
:103D0000DF92EF92FF920F931F938FB7F894A090DA
:103D1000D308B090D408C090D508D090D6088FBFF3
:103D20009501A60160E070E080E090E001E00E9473
:103D30009305122FF32EE42ED52EC62EB72EA82EC5
:103D4000892E02E00E949305B92F210FE1E021178F
:103D500008F0E0E03F0DF1E03F1508F0F0E09E2EA6
:103D6000930EE1E0931608F0E0E0FE2B4E0DA1E08B
:103D70004E1508F0A0E0FF2EF40EE1E0F41608F076
:103D8000E0E0AE2B5D0DF1E05D1508F0F0E00A2FEC
:103D9000050FE1E0051708F0E0E0FE2B6C0DA1E057
:103DA0006C1508F0A0E01F2F160FE1E0161708F0C1
:103DB000E0E0AE2B7B0DF1E07B1508F0F0E0A70F03
:103DC000E1E0A71708F0E0E0FE2B8A0D91E08A15EC
:103DD00008F090E0F80FE1E0F81708F0E0E09E2B23
:103DE000B80D392D4F2D502F612F7A2F8F2F9B0F0C
:103DF000E9E0AE2EBB24CC24DD24EE24FF2400E039
:103E000010E00E941206952FB901842F1F910F9187
:103E1000FF90EF90DF90CF90BF90AF909F908F90EA
:103E20000895AF92BF92CF92DF92EF92FF920F93DD
:103E30001F935B016C0107C00E947B1E6E157F05FE
:103E40008007910720F40E947B1E7B018C010E9459
:103E50007B1E6E197F09800B910B6A157B058C0503
:103E60009D0550F31F910F91FF90EF90DF90CF9041
:103E7000BF90AF9008958430910570F0BC0180E050
:103E800090E00E94363626E636E646EE5FE30E9474
:103E9000E8360E940A3603C0BC01660F771F6150E6
:103EA000704061F06150704049F0FB01EE0FFF1F60
:103EB00031978FB7F8943197F1F78FBF08957894C1
:103EC00084B7877F84BF1092D3081092D4081092D1
:103ED000D5081092D60884B5826084BD84B581600F
:103EE00084BD85B5826085BD85B5816085BDEEE602
:103EF000F0E0808181608083E1E8F0E08081826091
:103F00008083808181608083E0E8F0E0808181604F
:103F10008083E1EBF0E0808184608083E1E9F0E080
:103F2000808184608083E0EBF0E080818160808329
:103F3000E0E9F0E0808181608083E4E6F0E0808168
:103F40008E7F8083ECE7F0E080818F7780838081B3
:103F500080648083EAE7F0E08081846080838081F0
:103F6000826080838081806880831092C10010927B
:103F7000C90008959091F005982B9093F00580FF6B
:103F800032C0809164008E7F8093640080917C00B9
:103F90008F7780937C0080917C00806480937C008C
:103FA00080917A00846080937A0080917A008260A8
:103FB00080937A0080917A00806880937A00809163
:103FC00064008F7780936400809164008B7F80937E
:103FD0006400809164008D7F80936400809165000F
:103FE0008E7F8093650008951F920F920FB60F92F7
:103FF0000BB60F9211242F933F934F935F936F93C0
:104000007F938F939F93AF93BF93EF93FF93F89416
:1040100081E080933004E0E6F0E080818068808376
:1040200080818F7B808383E060E00E9449207894C8
:10403000FF91EF91BF91AF919F918F917F916F9180
:104040005F914F913F912F910F900BBE0F900FBE3C
:104050000F901F901895282F30E0C901805A964F75
:10406000FC019491235D364FF9018491882381F0FE
:10407000E82FF0E0EB5EF64FE491F0E0662329F4E0
:10408000808190958923808308958081892B808306
:104090000895482F50E0CA018D56964FFC01249197
:1040A000CA01805A964FFC019491435D564FFA0124
:1040B00034913323C1F1222331F1233021F4809153
:1040C00080008F7705C0243031F4809180008F7D8F
:1040D0008093800018C0213019F484B58F7704C014
:1040E000223021F484B58F7D84BD0DC0263021F4AB
:1040F0008091B0008F7705C0273029F48091B000FF
:104100008F7D8093B000E32FF0E0E35EF64FE49103
:10411000F0E0662329F480819095892380830895B7
:104120008081892B80830895482F50E0CA018D56E5
:10413000964FFC012491CA01805A964FFC0194913C
:10414000435D564FFA013491332319F420E030E0F7
:1041500035C0222331F1233021F4809180008F7704
:1041600005C0243031F4809180008F7D80938000E1
:1041700018C0213019F484B58F7704C0223021F49F
:1041800084B58F7D84BD0DC0263021F48091B000B0
:104190008F7705C0273029F48091B0008F7D809300
:1041A000B000E32FF0E0EB5DF64FE491F0E08081AA
:1041B00020E030E0892311F021E030E0C9010895CA
:1041C000882389F48091F1059091F20580509E4FEB
:1041D0002091F3053091F405821B930B60E072E0AF
:1041E0000E94E33808958091F5059091F60580507E
:1041F0009E4F2091F7053091F805821B930B60E0EC
:1042000072E00E94E33808958823D1F44091F305C9
:104210005091F4058091F1059091F205841795076E
:1042200051F1FA01E552F54F2081CA01019660E093
:1042300072E00E94E3389093F4058093F30519C06F
:104240004091F7055091F8058091F5059091F6059C
:104250008417950781F0FA01E552F74F2081CA01D2
:10426000019660E072E00E94E3389093F805809335
:10427000F70530E002C02FEF3FEFC9010895882312
:1042800049F41092F4051092F3051092F205109281
:10429000F10508951092F8051092F7051092F605B1
:1042A0001092F50508951F920F920FB60F920BB65C
:1042B0000F9211242F933F934F935F936F937F93AC
:1042C0008F939F93AF93BF93EF93FF934091C6005B
:1042D000E091F105F091F205CF01019660E072E006
:1042E0000E94E3389C018091F3059091F405281712
:1042F000390739F0E552F54F40833093F2052093AA
:10430000F105FF91EF91BF91AF919F918F917F91B7
:104310006F915F914F913F912F910F900BBE0F9036
:104320000FBE0F901F9018951F920F920FB60F920D
:104330000BB60F9211242F933F934F935F936F937C
:104340007F938F939F93AF93BF93EF93FF9340918E
:10435000CE00E091F505F091F605CF01019660E001
:1043600072E00E94E3389C018091F7059091F80576
:104370002817390739F0E552F74F40833093F60597
:104380002093F505FF91EF91BF91AF919F918F9190
:104390007F916F915F914F913F912F910F900BBE45
:1043A0000F900FBE0F901F901895982F662339F429
:1043B0008091C00085FFFCCF9093C6000895809146
:1043C000C80085FFFCCF9093CE000895882341F468
:1043D0008091C00085FFFCCF8DE08093C60008C0AF
:1043E0008091C80085FFFCCF8DE08093CE0008C08F
:1043F0008091C00085FFFCCF8AE08093C6000895BD
:104400008091C80085FFFCCF8AE08093CE0008959C
:10441000FC0110C03196662339F48091C00085FFFD
:10442000FCCF9093C60006C08091C80085FFFCCFEA
:104430009093CE009081992369F708952F923F922F
:104440004F925F926F927F928F929F92AF92BF92A4
:10445000CF92DF92EF92FF920F931F93DF93CF9350
:10446000CDB7DEB7A1970FB6F894DEBF0FBECDBFB4
:104470006B017C0129013A0109A3611571058105D0
:10448000910591F4002341F48091C00085FFFCCF99
:1044900080E38093C6005BC08091C80085FFFCCF9D
:1044A00080E38093CE0053C08824992454011E01D8
:1044B0000894211C311C8101080D191DC701B6018A
:1044C000A30192010E94F638F80160830894811CD0
:1044D000911CA11CB11CC701B601A30192010E944D
:1044E000F638C901DA016C017D01C114D104E1047F
:1044F000F10409F79101280D391DBE016F5F7F4F4F
:10450000D501C4010197A109B109AC0148195909A4
:104510001BC0FA01E20FF31FE081EA3010F4E05D06
:1045200001C0E95CF9A1FF2339F48091C00085FF47
:10453000FCCFE093C60006C08091C80085FFFCCF89
:10454000E093CE00215030406217730711F7A19617
:104550000FB6F894DEBF0FBECDBFCF91DF911F9194
:104560000F91FF90EF90DF90CF90BF90AF909F9012
:104570008F907F906F905F904F903F902F90089515
:10458000282F992787FD9095807F907034E095952E
:1045900087953A95E1F78A301CF0982F995C02C014
:1045A000982F905D822F8F708A301CF0282F295C05
:1045B00002C0282F205D662339F48091C00085FF5A
:1045C000FCCF9093C60006C08091C80085FFFCCF49
:1045D0009093CE00662339F48091C00085FFFCCF14
:1045E0002093C60008958091C80085FFFCCF2093DA
:1045F000CE0008950F931F938B019C01E42F97FF2A
:1046000018C0442341F48091C00085FFFCCF8DE2A7
:104610008093C60007C08091C80085FFFCCF8DE263
:104620008093CE0030952095109501951F4F2F4F08
:104630003F4FC901B8012AE030E040E050E00E2FC2
:104640000E941E221F910F910895EF92FF920F93E7
:104650001F937B018C014423C1F588E00E94BA1F9F
:10466000C801B70122E030E040E050E00E94183974
:104670002050304F414F5F4FCA01B901A801970147
:104680000E941839C901DA010197A109B109292F3E
:104690003A2F4B2F552747FD5A950196A11DB11D65
:1046A0002093C50081508093C4008091C100806137
:1046B0008093C1008091C10088608093C100809187
:1046C000C10080688093C10037C080E10E94BA1F9A
:1046D000C801B70122E030E040E050E00E94183904
:1046E0002050304F414F5F4FCA01B901A8019701D7
:1046F0000E941839C901DA010197A109B109292FCE
:104700003A2F4B2F552747FD5A950196A11DB11DF4
:104710002093CD0081508093CC008091C9008061AE
:104720008093C9008091C90088608093C9008091FE
:10473000C90080688093C9001F910F91FF90EF908E
:1047400008950E945F1F8BE996E00E94102E853429
:1047500040F081E361E00E942B2081E361E00E9450
:1047600049208BE996E061E070E00E94182E8130CC
:10477000B1F48091C1089091C208A091C308B09192
:10478000C40890688093C1089093C208A093C3089E
:10479000B093C40881E090E060E00E94853C87E22D
:1047A0000E949420892B09F44FC08BE996E060E0C9
:1047B00070E00E94182E8A3009F046C08DEF95E017
:1047C0000E94352A8DEF95E00E944C288DEF95E0F0
:1047D0000E94FC2980911606482F50E0809118060F
:1047E000481B510980911506282F30E08091190649
:1047F000281B3109121613065CF48CE390E0BC010F
:10480000269FC001279F900D369F900D11240EC04A
:1048100037FF0EC08CE390E0BC01269FC001279FAC
:10482000900D369F900D1124805F914F480F591FB6
:104830004330510548F48091D0089091D1088062AE
:104840009093D1088093D0088DEF95E00E94352A8F
:104850008DEF95E00E94E8268DEF95E00E94D72627
:104860008DEF95E00E945E2A63E070E080E090E0CA
:104870000E94111F8091C1089091C208A091C308A5
:10488000B091C408A1FF5EC063E070E080E090E0FA
:104890000E94111F86E161E00E942B2063E070E01E
:1048A00080E090E00E94111F86E161E00E944920B3
:1048B00063E070E080E090E00E94111F0E94962A61
:1048C00063E070E080E090E00E94111F81E00E94B0
:1048D0006F2A63E070E080E090E00E94111F84E0A6
:1048E0000E947D2A63E070E080E090E00E94111F4A
:1048F00080E00E94782A63E070E080E090E00E940F
:10490000111F0E946B2A63E070E080E090E00E943B
:10491000111F80E996E066E00E94B52A63E070E02E
:1049200080E090E00E94111F86E161E00E942B2050
:1049300086E160E00E94492063E070E080E090E062
:104940000E94111F63E070E080E090E00E94111F60
:104950008BE996E00E94E92F6093F9057093FA05C0
:104960008093FB059093FC058091F9059091FA05E1
:10497000A091FB05B091FC050E94E5390E94870CCF
:104980000E94E60CFDCFFC01148A158A168A178A4C
:10499000108E118E128E138E148E158E168E178E0B
:1049A00010A211A212A213A280E090E0A0E0B0E059
:1049B00084A395A3A6A3B7A3089510928E06109280
:1049C00010060895EF92FF920F931F93DF93CF93FA
:1049D000CDB7DEB7EC970FB6F894DEBF0FBECDBFF4
:1049E0008C01E9EFF6E065917491B5E1EB2EF12CC5
:1049F000EC0EFD1EC7010E94F039EBEFF6E0659169
:104A00007491CE0101960E94F039D80156968C918E
:104A1000843009F46DC0853048F4823069F1833008
:104A200008F048C0813009F000C10AC0863009F49E
:104A30009BC0863008F47AC0873009F0F6C0B2C057
:104A4000EDB7FEB774970FB6F894FEBF0FBEEDBF7B
:104A50003196075D1F4FADB7BEB712961C930E93EC
:104A600011970952104084E690E093838283F58287
:104A7000E4828CEE92E0B3C08DB79EB744970FB638
:104A8000F8949EBF0FBE8DBFEDB7FEB73196075DA0
:104A90001F4FADB7BEB712961C930E9311970952D4
:104AA000104084E690E093838283F582E48280EF75
:104AB00092E095C08DB79EB744970FB6F8949EBF0D
:104AC0000FBE8DBFEDB7FEB73196075D1F4FADB777
:104AD000BEB712961C930E9311970952104084E6AC
:104AE00090E093838283F582E48284EF92E077C042
:104AF0008DB79EB744970FB6F8949EBF0FBE8DBF7B
:104B0000EDB7FEB73196075D1F4FADB7BEB7129632
:104B10001C930E9311970952104084E690E0938302
:104B20008283F582E48288EF92E059C08DB79EB708
:104B300044970FB6F8949EBF0FBE8DBFEDB7FEB77A
:104B40003196075D1F4FADB7BEB712961C930E93FB
:104B500011970952104084E690E093838283F58296
:104B6000E4828CEF92E03BC08DB79EB744970FB6BE
:104B7000F8949EBF0FBE8DBFEDB7FEB73196075DAF
:104B80001F4FADB7BEB712961C930E9311970952E3
:104B9000104084E690E093838283F582E48280E093
:104BA00093E01DC08DB79EB744970FB6F8949EBF93
:104BB0000FBE8DBFEDB7FEB73196075D1F4FADB786
:104BC000BEB712961C930E9311970952104084E6BB
:104BD00090E093838283F582E48284E093E097837C
:104BE0008683D80154968C91549780871186559668
:104BF0008C915597828713865A968C915A97848701
:104C0000158657968C9157978687178658968C915C
:104C10005897808B118A59968C91828B138A0E94A7
:104C2000293AEDB7FEB774961DC000D000D000D071
:104C3000EDB7FEB73196075D1F4FADB7BEB7129601
:104C40001C930E9311970952104084E690E09383D1
:104C50008283CE010196958384830E94293AEDB721
:104C6000FEB736960FB6F894FEBF0FBEEDBF9801A3
:104C7000275D3F4FC901EC960FB6F894DEBF0FBE1B
:104C8000CDBFCF91DF911F910F91FF90EF900895CD
:104C90001F93CF93DF93EC01162F8091E8068823B2
:104CA00021F482EE96E00E94A03182EE96E068E662
:104CB00070E00E94133082EE96E0612F0E942D3149
:104CC000C10FD11D82EE96E068810E942D3182EEE7
:104CD00096E00E945C31DF91CF911F910895FF9281
:104CE0000F931F93CF93DF938C01F62E8091E806EC
:104CF000882321F482EE96E00E94A03182EE96E0B5
:104D000068E670E00E94133082EE96E06F2D0E94FC
:104D10002D3182EE96E00E945C3182EE96E068E6EC
:104D200070E041E050E00E949D31C0E0D0E082EEB2
:104D300096E00E941D30882329F4CA30D10511F075
:104D40002196F5CF82EE96E00E9423300F0D111DC3
:104D5000F801808382EE96E00E945C31DF91CF9172
:104D60001F910F91FF9008950F931F938C016FE097
:104D70000E946F26F801878583701F910F91089517
:104D8000CF93DF93EC010E94B426882319F0CE560E
:104D9000DF4F888380910C068C7F80930C068DEF0B
:104DA00095E06FE00E944826DF91CF9108950F9320
:104DB0001F938C016EE00E946F26F80186858D7F1F
:104DC0008687C8016EE00E9448261F910F910895C2
:104DD0000F931F938C016EE00E946F26F801868569
:104DE0008E7F8687C8016EE00E9448261F910F9132
:104DF0000895AF92BF92CF92DF92FF920F931F93CD
:104E0000CF93DF938C01F62E8091E806882321F45E
:104E100082EE96E00E94A03182EE96E068E670E0B5
:104E20000E94133082EE96E060E070E00E945931FB
:104E300082EE96E00E945C3182EE96E068E670E0D9
:104E400043E150E00E949D31C0E0D0E0CC24DD245D
:104E5000AF2CBB245AE0F52E0DC182EE96E00E94E5
:104E60001D30882309F403C182EE96E00E942330AE
:104E7000282FF801EC0FFD1F8083C630D10509F4FF
:104E800082C0C730D105B8F4C230D10509F44EC094
:104E9000C330D10538F4209769F1C130D10509F04C
:104EA000E4C036C0C430D10509F451C0C530D105C5
:104EB00008F05BC049C0CA30D10509F49BC0CB30B3
:104EC000D10558F4C830D10509F478C090E02F70AE
:104ED000C930D10508F081C064C0CC30D10509F4D7
:104EE000A7C0CC30D10508F494C0CD30D10509F06D
:104EF000BCC0ADC090E044E0959587954A95E1F738
:104F00008F9DC00111242F70280FF801218FADC093
:104F100090E034E0959587953A95E1F78F9DC00133
:104F200011242F70280FF801208F9FC090E0B4E06B
:104F300095958795BA95E1F78F9DC00111242F7043
:104F4000280FF801278B91C0F801868B8EC090E066
:104F5000A4E095958795AA95E1F78F9DC00111244E
:104F60002F70280FF801228F80C090E0F4E0959513
:104F70008795FA95E1F78F9DC00111242F70280FB6
:104F8000F801258B72C090E0E4E095958795EA954D
:104F9000E1F78F9DC00111242F70280FF801248B99
:104FA00064C074E0959587957A95E1F787708F9D39
:104FB000C0011124280FF801238F57C090E064E04E
:104FC000959587956A95E1F787708F9DC0011124AB
:104FD0002F70280FF801248F48C054E095958795CD
:104FE0005A95E1F783708F9DC0011124280FF801B5
:104FF000258F3BC090E044E0959587954A95E1F771
:1050000083708F9DC00111242F70280FF801268F07
:105010002CC090E034E0959587953A95E1F787703C
:105020008F9DC00111242F70280FF801278F1DC0FC
:1050300090E0B4E095958795BA95E1F783708F9DE0
:10504000C00111242F70280FF80120A30EC090E09A
:10505000A4E095958795AA95E1F783708F9DC0018F
:1050600011242F70280FF80121A3219603C0089462
:10507000C11CD11CAC16BD0628F0FAE0CF16D10435
:1050800008F4EBCEDF91CF911F910F91FF90DF904D
:10509000CF90BF90AF900895AF92BF92CF92DF9222
:1050A000EF92FF920F931F93DF93CF93CDB7DEB7AD
:1050B000C857D0400FB6F894DEBF0FBECDBF6C010D
:1050C0006AE00E94F92649E2A42EB12CAC0CBD1C6A
:1050D00084E6D5011D928A95E9F7E7EDF6E0659142
:1050E00074918E010F5F1F4FC8010E94F039C501F6
:1050F000B8010E940B3AF60182A1823009F476C011
:10510000833030F4882371F0813009F03CC11AC03B
:10511000843009F4F2C0843008F4AEC0853009F060
:1051200032C127C1E9EDF6E065917491C8010E9492
:10513000F039C501B8010E940B3AE7EEF6E065913F
:1051400074910FC0EBEDF6E065917491C8010E9477
:10515000F039C501B8010E940B3AE7EEF6E065911F
:1051600074918E01075D1F4FC8010E94F0398DB701
:105170009EB70E970FB6F8949EBF0FBE8DBFEDB7CA
:10518000FEB7319631E5E32EF12CEC0EFD1EADB7E6
:10519000BEB71296FC92EE92119788E290E093834C
:1051A000828315830483D6015E968C915E978683F5
:1051B00017825D968C915D97808711865C968C91A5
:1051C0005C97828713865B968C91848715860E94F4
:1051D000293AEDB7FEB73E960FB6F894FEBF0FBE64
:1051E000EDBFC501B7010E940B3AF3C0EDEDF6E04B
:1051F00065917491C8010E94F039C501B8010E94FF
:105200000B3AE9EEF6E0659174918E01075D1F4F50
:10521000C8010E94F0398DB79EB70C970FB6F8946D
:105220009EBF0FBE8DBFEDB7FEB7319621E5E22ED2
:10523000F12CEC0EFD1EADB7BEB71296FC92EE92AD
:10524000119788E290E09383828315830483D601CB
:105250005D968C915D97868317825C968C915C97A6
:10526000808711865B968C91828713860E94293AEB
:10527000EDB7FEB73C96B0CFEFEDF6E065917491D7
:10528000C8010E94F039C501B8010E940B3AEBEE4B
:10529000F6E0659174918E01075D1F4FC8010E9471
:1052A000F0398DB79EB70A970FB6F8949EBF0FBE20
:1052B0008DBFEDB7FEB7319691E5E92EF12CEC0EDE
:1052C000FD1EADB7BEB71296FC92EE92119788E222
:1052D00090E09383828315830483D6015C968C913E
:1052E0005C97868317825B968C91808711860E94DB
:1052F000293AEDB7FEB73A966FCFE1EEF6E0659149
:105300007491C8010E94F039C501B8010E940B3A9E
:10531000EDEEF6E0659174918E01075D1F4FC801B7
:105320000E94F0398DB79EB708970FB6F8949EBFCC
:105330000FBE8DBFEDB7FEB7319681E5E82EF12C9B
:10534000EC0EFD1EADB7BEB71296FC92EE92119711
:1053500088E290E09383828315830483D6015B9671
:105360008C91868317820E94293AEDB7FEB7389652
:1053700033CFE3EEF6E065917491C8010E94F039F5
:10538000C501B80130CFE5EEF6E0659174918E016C
:105390000F5F1F4FC8010E94F03900D000D000D02D
:1053A000EDB7FEB73196ADB7BEB71296BC92AE92CE
:1053B000119784E690E093838283158304830E948F
:1053C000293AEDB7FEB736960FB6F894FEBF0FBE7A
:1053D000EDBFC501C858DF4F0FB6F894DEBF0FBE52
:1053E000CDBFCF91DF911F910F91FF90EF90DF9094
:1053F000CF90BF90AF9008950F931F938C0166E0FC
:105400000E94F926C8010E94E2241F910F9108957D
:105410000F931F93CF93DF93EC01042F68A780E3D2
:1054200061E00E942B2018A5112379F0113091F42E
:1054300080E361E00E944920013019F482E08B8B07
:1054400009C0002339F41B8B05C080E360E00E9493
:1054500049201B8A6AE070E080E090E00E94111F02
:10546000DF91CF911F910F9108950F931F938C019E
:1054700061E040E00E94082AC8010E94C026C801DD
:105480000E94C324C8016DE00E94F9268BE261E00E
:105490000E942B208BE260E00E9449201F910F9117
:1054A00008958091E806882341F08091FE068823C4
:1054B00021F483E097E00E94133508950F931F9322
:1054C0008C010E94512AC80160E040E00E94082A35
:1054D0001F910F9108958CB58F7B8CBD0895882303
:1054E00019F48CB5806202C08CB58F7D8CBD089597
:1054F0009CB5937F982B9CBD08959CB5282F237055
:105500009C7F292B2CBD9DB581709E7F982B9DBDC6
:1055100008951092910610929006109292061092A1
:105520009306109294061092950608958EE161E01C
:105530000E942B208FE161E00E942B208DE161E031
:105540000E942B208EE160E00E9449208FE160E004
:105550000E9449208DE161E00E9449208CB5806164
:105560008CBD8CB580648CBD08951F93162F8DE182
:1055700061E00E942B2082E261E00E942B208DE1FD
:1055800061E00E94492082E261E00E94492080910E
:10559000C1089091C208A091C308B091C408A2FFAD
:1055A00008C088E061E00E942B2088E061E00E9452
:1055B00049208091C1089091C208A091C308B09180
:1055C000C40896FF08C089E061E00E942B2089E0B2
:1055D00061E00E9449208091C1089091C208A09189
:1055E000C308B091C408A3FF08C082E061E00E9434
:1055F0002B2082E061E00E9449208091C1089091B7
:10560000C208A091C308B091C408A4FF08C082E2F8
:1056100061E00E942B2082E261E00E944920133069
:10562000C9F0143028F4113069F0123068F408C061
:10563000153041F11530D0F0163009F062C02FC09E
:105640008DE12BC082E229C08BE996E00E94812E79
:105650008CE223C08091C1089091C208A091C30838
:10566000B091C408A2FF4DC088E017C08091C10866
:105670009091C208A091C308B091C40896FF41C0A0
:1056800089E00BC08091C1089091C208A091C30825
:10569000B091C408A3FF35C082E060E030C08DE166
:1056A00061E00E94492082E261E00E9449208091ED
:1056B000C1089091C208A091C308B091C408A2FF8C
:1056C00004C088E061E00E9449208091C108909167
:1056D000C208A091C308B091C40896FF04C089E035
:1056E00061E00E9449208091C1089091C208A09178
:1056F000C308B091C408A3FF04C082E061E00E9427
:1057000049201F910895109296060895CF93DF9334
:10571000EC018091C1089091C208A091C308B0919A
:10572000C40882FF0BC063E070E080E090E00E945C
:10573000111F8BE061E00E94492006C063E070E029
:1057400080E090E00E94111F89818093C5008A81CA
:105750008093C4008B818093C2008C818093CA00A7
:10576000DF91CF910895DC018091C50011968C9353
:1057700011978091C40012968C931297E2ECF0E09E
:10578000808113968C9313978091CA0014968C9302
:10579000149780818F7D808380818F7E808380813C
:1057A000877F808360E072EC81E090E04C910E9402
:1057B000252387E161E00E9449208BE060E00E94A0
:1057C00049200895FF920F931F938C01F62E0E949B
:1057D000B32B8F2D60E00E94C022C8010E94862B4F
:1057E0001F910F91FF9008950F931F938C010E94BA
:1057F000B32BF80180810E94E621C8010E94862B0C
:105800001F910F910895EF92FF920F931F93CF93E3
:10581000DF93EC01162F072F0E94B32B212F302F7F
:10582000C9018C0188EEE82E83E0F82EE00EF11E0F
:10583000F8010F5F1F4F8491882331F068810E9427
:10584000D5210E151F05A1F7CE010E94862B60E021
:1058500070E080E090E0DF91CF911F910F91FF9079
:10586000EF900895CF92DF92EF92FF920F931F93E4
:105870008C010E94032CF62EE72ED82EC92EC801CB
:105880000E94F42B6F2D7E2D8D2D9C2D1F910F913D
:10589000FF90EF90DF90CF900895FF920F931F93AA
:1058A0008C01F62E0E94B32B8F2DF80160810E948F
:1058B000D521C8010E94862B1F910F91FF9008955A
:1058C000EF92FF920F931F938C017B010E94B32BE9
:1058D000C701F80160810E940822F80180810E94BE
:1058E000E621C8010E94862B1F910F91FF90EF9037
:1058F0000895EF92FF920F931F938C017B010E94FA
:10590000B32BC701F80160810E940822C8010E94E0
:10591000862B1F910F91FF90EF9008957F928F92A9
:105920009F92AF92BF92CF92DF92EF92FF920F932E
:105930001F93CF93DF93EC017A018B01722E0E94AB
:10594000B32BC801B70120E030E040E050E00E94F6
:105950009935882344F48DE268810E94D52117FB94
:10596000109517F9109520E030E040E05FE3DD246A
:105970000BC0CA01B90120E030E040E251E40E94CE
:105980009D359B01AC01D394D71498F3C801B7019E
:105990000E9435354B015C010E940A366B017C0187
:1059A0002AE030E040E050E008810E941E2277208B
:1059B00021F08EE268810E94D521C701B6010E94C4
:1059C00036369B01AC01C501B4010E94343524C0B8
:1059D00020E030E040E251E40E94E8366B017C01B7
:1059E0000E9405364B015C01AA2497FCA094BA2CB6
:1059F000C501B4012AE030E040E050E008810E9497
:105A00001E22C501B4010E9438369B01AC01C701BA
:105A1000B6010E9434357A947720D1F6CE010E94E7
:105A2000862BDF91CF911F910F91FF90EF90DF9028
:105A3000CF90BF90AF909F908F907F9008950F93DD
:105A40001F938C012AE00E948E2CC8010E94F42B27
:105A50001F910F910895CF92DF92EF92FF920F93D3
:105A60001F93CF93DF937C018A01D62EC72EE901C5
:105A70000E94B32B209731F4802FF70160810E94A0
:105A8000D52117C0CA30D10541F4B8018D2D9C2D08
:105A9000F70140810E94FA220CC09E01442737FD85
:105AA0004095542FB8018D2D9C2DF70100810E9447
:105AB0001E22F70180810E94E621C7010E94862BE9
:105AC000DF91CF911F910F91FF90EF90DF90CF90DA
:105AD0000895CF92DF92EF92FF920F931F93CF938F
