:100000000C94EC040C9454310C9485310C94B6315E
:100010000C94E7310C9418320C9449320C947A32D7
:100020000C94AB320C9414050C9414050C94140528
:100030000C94831F0C9414050C9414050C94E51D6A
:100040000C9414050C9414050C9414050C941405CC
:100050000C9414050C9414050C9414050C94C01DF8
:100060000C9414050C94E2200C9414050C941405C3
:100070000C9414050C9414050C9414050C9414059C
:100080000C9414050C9414050C9414050C9414058C
:100090000C9423210C9414050C9414050C94BA1B95
:1000A0000C9414050C9414050C9414050C9414056C
:1000B0000C9414050C9414050C9414050C9414055C
:1000C0000C9414050C9414050C9414050763423623
:1000D000B79BD8A71A39685618AEBAAB558C1D3CD9
:1000E000B7CC5763BD6DEDFD753EF6177231BF009D
:1000F0000000803F08000000BE922449123EABAAD7
:10010000AA2ABECDCCCC4C3E00000080BEABAAAA31
:10011000AA3E00000000BF000000803F0000000079
:1001200000084178D3BB4387D1133D190E3CC3BDB2
:100130004282AD2B3E68EC8276BED98FE1A93E4C5F
:1001400080EFFFBE01C4FF7F3F0000000000446558
:1001500076696365206E6F7420666F756E643A20F1
:10016000004E4F5420436F6E6E65637465640044A7
:100170006973636F6E6E65637465642E0054656D9C
:100180007065726174757265206D656173757265F5
:100190006D656E742070757420746F20736C656566
:1001A00070004661696C656420737562736372697F
:1001B00062696E672E004E6F746966696361746967
:1001C0006F6E2072656365697665642E005761699C
:1001D00074696E67206576656E74732E2E2E0052DC
:1001E000656164696E6720617474726962757465B3
:1001F0002E2E200045787465726E2074656D7065D2
:10020000726174757265206D6561737572656D6577
:100210006E7420696E2070726F67726573732E2E14
:100220000057726974696E672061747472696275CF
:1002300074652E2E20004174747269627574652095
:1002400056616C756520284153434949293A20007D
:100250004174747269627574652056616C75653A93
:10026000200052656164696E67206174747269620E
:100270007574652E2E200045787465726E20646555
:100280007669636520666F756E642E20436F6E6EAF
:10029000656374696E672E2E2E2000466972737432
:1002A000207363616E20666F722065787465726E6C
:1002B0002064657669636500496E7465726E2064BA
:1002C0006576696365206E6F7420666F756E643A3B
:1002D00020004E4F5420436F6E6E6563746564005A
:1002E000496E7465726E2064657669636520646921
:1002F00073636F6E6E65637465642E004C69676826
:100300007420696E74656E73697479206D656173AC
:100310007572656D656E742070757420746F2073CE
:100320006C656570004661696C6564207375627305
:1003300063726962696E672E004E6F7469666963E5
:100340006174696F6E2072656365697665642E00FD
:1003500057616974696E67206576656E74732E2EB9
:100360002E0052656164696E6720617474726962FF
:100370007574652E2E20004C6967687420696E7450
:10038000656E73697479206D6561737572656D65ED
:100390006E7420696E2070726F67726573732E2E93
:1003A0000057726974696E6720617474726962754E
:1003B00074652E2E200054656D70657261747572BF
:1003C00065206D6561737572656D656E74207075FD
:1003D0007420746F20736C656570004661696C658C
:1003E00064207375627363726962696E672E004E72
:1003F0006F74696669636174696F6E2072656365A5
:10040000697665642E0057616974696E6720657648
:10041000656E74732E2E2E0052656164696E6720BE
:100420006174747269627574652E2E2000496E7451
:1004300065726E2054656D706572617475726520A9
:100440006D6561737572656D656E7420696E20707F
:10045000726F67726573732E2E0057726974696EBE
:1004600067206174747269627574652E2E20004174
:1004700074747269627574652056616C75652028A4
:100480004153434949293A200041747472696275A5
:1004900074652056616C75653A2000526561646927
:1004A0006E67206174747269627574652E2E200007
:1004B000496E7465726E2064657669636520666F47
:1004C000756E642E20436F6E6E656374696E672E61
:1004D0002E2E20004669727374207363616E20664D
:1004E0006F7220696E7465726E20646576696365EB
:1004F00000424C455F3037204578616D706C650077
:10050000380541054F05740588059505A905BD0504
:100510002406580670067B068C069D06B006BD06AE
:10052000424C45206D6F64756C65206E6F7420645D
:100530006574656374656400303030303037304343
:10054000005363616E20706172616D733A200031F7
:10055000253032782530327825303278253032789F
:1005600025303278253032783B2025643B202575B4
:100570003B0D0A00443A257825782578257825789A
:1005800025783B2025642C003B20496E6465783D2E
:1005900025750D0A0053746F70206661696C2E20FA
:1005A0006572723A2025780A005363616E20666195
:1005B000696C2E206572723A2025780A00536361B7
:1005C0006E20706172616D733A20474150206D6FEB
:1005D00064653D25753B207363616E5F696E74656C
:1005E0007276616C3D25753A207363616E5F776941
:1005F0006E646F773D25753B207363616E5F647534
:10060000706C69636174655F66696C746572696E4C
:10061000673D25753B205458506F7765723D2575B1
:100620003B0D0A004465766963652025753B2025EE
:1006300030327825303278253032782530327825BE
:10064000303278253032783B20525353493A256472
:100650003B204E616D653A006572726F7220777251
:100660006974696E672E206572723A2025780A00D7
:10067000092065633A2025780D0A004144437661DC
:100680006C28484558293A25780D0A00414443769C
:10069000616C28444543293A25640D0A00414443CE
:1006A00056616C6D5628444543293A25730D0A005E
:1006B000546128444543293A25730D0A0041747456
:1006C00072696275746520257520496E646963617D
:1006D000746564210D0A004E0762078807AF07CFD3
:1006E00007E707F50705081A08300841084D0854C0
:1006F0000871088F08A508B308C308E608EC085776
:10070000726F6E672074696D6520666F726D6174BB
:100710002E204D757374206265202264643A6868E7
:100720003A6D6D220057726F6E672074696D652097
:10073000666F726D61742E204D7573742062652032
:100740002264643A68683A6D6D3A73732200416CB2
:1007500061726D204D6F6465206D617463686573AF
:1007600020005B446179203A20686F757273203AEB
:10077000206D696E75746573203A207365636F6EC2
:1007800064735D202D3E20005B44617465203A2037
:10079000686F757273203A206D696E757465732089
:1007A0003A207365636F6E64735D202D3E20005B9D
:1007B000486F757273203A206D696E757465732089
:1007C0003A207365636F6E64735D202D3E20005B7D
:1007D0004D696E75746573203A207365636F6E643E
:1007E000735D202D3E20005B5365636F6E64735D07
:1007F000202D3E20004F6E6365207065722073656A
:10080000636F6E6400496E636F727265637420611A
:100810006C61726D206D6F6465005B253032753AD6
:10082000253032753A253032753A253032755D0003
:100830005B253032753A253032753A253032755D98
:10084000005B253032753A253032755D005B25300E
:1008500032755D005B446179203A20686F75727370
:10086000203A206D696E75746573205D202D3E20E1
:10087000005B44617465203A20686F757273203A9A
:10088000206D696E75746573205D202D3E20005BC0
:10089000486F757273203A206D696E757465735D6B
:1008A000202D3E20005B4D696E757465735D202DB3
:1008B0003E20004F6E636520706572206D696E7515
:1008C00074650025732C20253032752F2530327544
:1008D0002F253032752C20253032753A253032756F
:1008E0003A25303275006572726F720025303275AC
:1008F0002563253032752563253032752563253013
:1009000032752563253032752563253032752563B0
:100910002530327500002124272A2D30330022256E
:10092000282B2E313400202326292C2F32050505B3
:10093000050303030301010104040306060606067A
:100940000606060104050105010302020202020275
:100950000102020505040403040401030407070758
:1009600001020810102040800408102040020204F8
:100970000810204080010280204004200101020470
:100980000810200140804080010208040880041003
:10099000040201000008090000000000000000003F
:1009A0000000000000000000000000000000000047
:1009B0000000000000000000000000000000000037
:1009C00000000000000039126C24182A122B9E2D02
:1009D000C32FDC324534AF3411241FBECFEFD1E238
:1009E000DEBFCDBF14E0A0E0B2E0E4E6F9E702C06C
:1009F00005900D92A833B107D9F71CE0A8E3B4E045
:100A000001C01D92A23DB107E1F719E0C8EDD9E0A0
:100A100004C02297FE010E94FB38C63CD107C9F7EB
:100A20000E9430230C94B03C0C940000EF92FF9293
:100A30000F93DF93CF93CDB7DEB760970FB6F894DF
:100A4000DEBF0FBECDBFA82F002309F461C07E0119
:100A50000894E11CF11C88E0F70111928A95E9F7EE
:100A600029833A834B835C836D837E83AF8398872E
:100A700080E2801BE82FFF27E7FDF09549815A812E
:100A80006B817C81181684F019861A861B861C8659
:100A9000882799278E1B9F0B04C0440F551F661F84
:100AA000771F8A95D2F728C0202F332727FD30954E
:100AB000DB01CA01022E04C0880F991FAA1FBB1FA9
:100AC0000A94D2F789879A87AB87BC8704C076954A
:100AD000679557954795EA95D2F78D819E81AF81AD
:100AE000B88504C0880F991FAA1FBB1F2A95D2F78B
:100AF000482B592B6A2B7B2B4D875E876F87788B12
:100B000029853A854B855C856D857E85AF8598897D
:100B10008A2F60960FB6F894DEBF0FBECDBFCF917F
:100B2000DF910F91FF90EF900895AEE5B0E0EBE913
:100B3000F5E00C94C238A8E04E010894811C911C89
:100B4000F4016A2E11926A94E9F729833A834B8360
:100B50005C836D837E838F839887CE010996FC0129
:100B60001192AA95E9F7A986BA86CB86DC86ED862E
:100B7000FE860F87188B29843A844B845C84ED842D
:100B8000FE840F85188969807A808B809C806DA691
:100B90007EA68FA698AA6D807E808F809884E114AF
:100BA000F1040105110509F0B3C362147304840450
:100BB000950408F03DC100E0201600E0300601E099
:100BC000400600E0500688F41FEF2116310441046E
:100BD000510439F030F048E0E42EF12C012D112DB4
:100BE00018C0EE24FF24870114C020E0221620E064
:100BF000320620E0420621E0520630F038E1E32ED2
:100C0000F12C012D112D05C020E1E22EF12C012D3A
:100C1000112DD201C1010E2C04C0B695A795979550
:100C200087950A94D2F78A5E9C4FDC012C9180E272
:100C300090E0A0E0B0E08E199F09A00BB10B7C0101
:100C40008D01E21AF10801091109E114F10401050D
:100C50001105A1F10E2C04C0220C331C441C551CA0
:100C60000A94D2F7A40193010E2C04C0220F331F63
:100C7000441F551F0A94D2F780E290E08E199F0915
:100C80006DA47EA48FA498A804C0969487947794AA
:100C900067948A95D2F7622A732A842A952AADA48A
:100CA000BEA4CFA4D8A804C0AA0CBB1CCC1CDD1CBD
:100CB000EA94D2F7ADA6BEA6CFA6D8AA6201EE24CA
:100CC000FF24CDAADEAAEFAAF8AE9201810120701E
:100CD000307009AF1AAF2BAF3CAFC401B301A7010D
:100CE00096010E9485387B018C01C401B3012DA9B6
:100CF0003EA94FA958AD0E948538C901DA013C01CF
:100D00004D01C401B30129AD3AAD4BAD5CAD0E94BC
:100D10003F389B01AC018701FF24EE24ADA4BEA4A3
:100D2000CFA4D8A8C601AA27BB2757016801A82AC3
:100D3000B92ACA2ADB2AA216B306C406D506E0F4ED
:100D400008946108710881089108A20CB31CC41CA6
:100D5000D51CA214B304C404D50470F0A216B306C3
:100D6000C406D50648F40894610871088108910802
:100D7000A20CB31CC41CD51CA21AB30AC40AD50AFF
:100D8000C601B5012DA93EA94FA958AD0E948538CD
:100D90007B018C01C601B5012DA93EA94FA958AD13
:100DA0000E948538C901DA015C016D01C601B501F7
:100DB00029AD3AAD4BAD5CAD0E943F389B01AC0113
:100DC0008701FF24EE248DA59EA5AFA5B8A9A0702C
:100DD000B070E82AF92A0A2B1B2BE216F306040747
:100DE0001507C0F40894A108B108C108D108E20CA5
:100DF000F31C041D151DE214F3040405150550F041
:100E0000E216F3060407150728F40894A108B108B0
:100E1000C108D108D3019927882786017501E82ADE
:100E2000F92A0A2B1B2BE9AAFAAA0BAB1CABCFC4DD
:100E3000211431044104510471F461E070E080E058
:100E400090E020E030E040E050E00E948538C901A9
:100E5000DA011C012D0100E0201600E0300601E05F
:100E6000400600E0500688F41FEF211631044104CB
:100E7000510431F028F048E050E060E070E017C025
:100E800040E050E060E070E012C020E0221620E078
:100E9000320620E0420621E0520628F048E150E008
:100EA00060E070E004C040E150E060E070E0D2013A
:100EB000C101042E04C0B695A795979587950A940D
:100EC000D2F78A5E9C4FDC012C91E0E2EE2EF12CF1
:100ED000012D112DD801C701841B950BA60BB70B53
:100EE000821B9109A109B1090097A105B10561F41F
:100EF00064015301A218B308C408D50831E0632E79
:100F0000712C812C912C1EC16F968FAF6F97082E7C
:100F100004C0220C331C441C551C0A94D2F7EE2D3D
:100F2000E81B640153010E2E04C0D694C794B794F5
:100F3000A7940A94D2F7A40193016F960FAC6F9710
:100F400004C0220F331F441F551F0A94D2F76DA40B
:100F50007EA48FA498A80E2E04C0969487947794AC
:100F600067940A94D2F784017301E22AF32A042BCE
:100F7000152BE9A6FAA60BA71CA7320188249924F1
:100F8000920181012070307021960CAF1DAF2EAF01
:100F90003FAF2197C601B501A40193010E94853896
:100FA0007B018C01C601B501A40193010E94853823
:100FB000C901DA0125968CAF9DAFAEAFBFAF2597C3
:100FC000BC01CD0121962CAD3DAD4EAD5FAD21975D
:100FD0000E943F389B01AC018701FF24EE24A9A4A5
:100FE000BAA4CBA4DCA4C601AA27BB275C016D016F
:100FF000AE28BF28C02AD12AA216B306C406D50639
:1010000060F525966CAD7DAD8EAD9FAD2597615099
:1010100070408040904025966CAF7DAF8EAF9FAF03
:101020002597A20CB31CC41CD51CA214B304C40481
:10103000D50498F0A216B306C406D50670F4615024
:1010400070408040904025966CAF7DAF8EAF9FAFD3
:101050002597A20CB31CC41CD51CA21AB30AC40A3F
:10106000D50AC601B501A40193010E9485387B0110
:101070008C01C601B501A40193010E948538C90104
:10108000DA013C014D01C401B30121962CAD3DAD07
:101090004EAD5FAD21970E943F389B01AC018701A7
:1010A000FF24EE2489A59AA5ABA5BCA5A070B070BD
:1010B00057016801A82AB92ACA2ADB2AA216B30650
:1010C000C406D506E0F40894610871088108910807
:1010D000A20CB31CC41CD51CA214B304C404D504B4
:1010E00070F0A216B306C406D50648F40894610849
:1010F000710881089108A20CB31CC41CD51C8DA5D5
:101100009EA5AFA5B8A96F960FAC6F9704C0880FC6
:10111000991FAA1FBB1F0A94D2F78DA79EA7AFA73E
:10112000B8ABA21AB30AC40AD50A2596ECACFDAC3A
:101130000EAD1FAD2597D70199278827682A792AF0
:101140008A2A9B2A82012227332729960CAF1DAFBA
:101150002EAF3FAF2997A2019101407050702D969C
:101160002CAF3DAF4EAF5FAF2D97C601B5012996AD
:101170002CAD3DAD4EAD5FAD29970E9485387B010A
:101180008C01C601B50129962CAD3DAD4EAD5FADCC
:1011900029970E948538C901DA0161968CAF9DAF0D
:1011A000AEAFBFAF6197BC01CD012D962CAD3DAD6B
:1011B0004EAD5FAD2D970E943F389B01AC0187017A
:1011C000FF24EE24ADA4BEA4CFA4D8A8C601AA27AC
:1011D000BB2757016801A82AB92ACA2ADB2AA21606
:1011E000B306C406D50660F561966CAD7DAD8EADD7
:1011F0009FAD6197615070408040904061966CAFA8
:101200007DAF8EAF9FAF6197A20CB31CC41CD51CE1
:10121000A214B304C404D50498F0A216B306C406FD
:10122000D50670F4615070408040904061966CAF7C
:101230007DAF8EAF9FAF6197A20CB31CC41CD51CB1
:10124000A21AB30AC40AD50AC601B50129962CAD63
:101250003DAD4EAD5FAD29970E9485387B018C0175
:10126000C601B50129962CAD3DAD4EAD5FAD2997B8
:101270000E948538C901DA015C016D01C601B50122
:101280002D962CAD3DAD4EAD5FAD2D970E943F38F4
:101290009B01AC018701FF24EE248DA59EA5AFA57F
:1012A000B8A9A070B070E82AF92A0A2B1B2BE21605
:1012B000F30604071507C0F40894A108B108C10893
:1012C000D108E20CF31C041D151DE214F3040405FF
:1012D000150550F0E216F3060407150728F40894E4
:1012E000A108B108C108D1086196ECACFDAC0EAD07
:1012F0001FAD6197D7019927882796018501082B93
:10130000192B2A2B3B2B09AB1AAB2BAB3CAB62C284
:101310006E147F048006910608F451C220E0E216A4
:1013200020E0F20621E0020720E0120788F43FEFF8
:10133000E316F1040105110531F028F048E050E012
:1013400060E070E017C040E050E060E070E012C084
:1013500040E0E41640E0F40640E0040741E01407F2
:1013600028F048E150E060E070E004C040E150E067
:1013700060E070E0D801C701042E04C0B695A795BF
:10138000979587950A94D2F78A5E9C4FDC012C9141
:1013900030E2A32EB12CC12CD12CD601C501841B67
:1013A000950BA60BB70B821B9109A109B1090097F8
:1013B000A105B10589F4E614F7040805190508F438
:1013C000F2C16DA47EA48FA498A86214730484044F
:1013D000950408F0E8C1F3C16E968FAF6E97082EA2
:1013E00004C0EE0CFF1C001F111F0A94D2F76A2DD7
:1013F000681BD201C101062E04C0B695A79597952A
:1014000087950A94D2F75C016D01AE28BF28C02AE7
:10141000D12AADA2BEA2CFA2D8A6720161016E965A
:101420000FAC6E9704C0CC0CDD1CEE1CFF1C0A94A4
:10143000D2F7C9A2DAA2EBA2FCA264015301062EE4
:1014400004C0D694C794B794A7940A94D2F7D40151
:10145000C3016E960FAC6E9704C0880F991FAA1F28
:10146000BB1F0A94D2F7EDA4FEA40FA518A904C0CF
:1014700016950795F794E7946A95D2F737014801D6
:10148000682A792A8A2A9B2A6D8E7E8E8F8E98A250
:10149000EDA0FEA00FA118A5380188249924980179
:1014A00087012070307065960CAF1DAF2EAF3FAF37
:1014B0006597C601B501A40193010E9485387B019F
:1014C0008C01C601B501A40193010E948538C901B0
:1014D000DA011C012D01C201B10165962CAD3DADB3
:1014E0004EAD5FAD65970E943F389B01AC0187010F
:1014F000FF24EE24AD8CBE8CCF8CD8A0C601AA27C9
:10150000BB2757016801A82AB92ACA2ADB2AA216D2
:10151000B306C406D50600F5089421083108410831
:101520005108EDA0FEA00FA118A5AE0CBF1CC01E57
:10153000D11EAE14BF04C006D10670F0A216B306C9
:10154000C406D50648F4089421083108410851081A
:10155000AE0CBF1CC01ED11EA21AB30AC40AD50A03
:10156000C601B501A40193010E9485387B018C015D
:10157000C601B501A40193010E948538C901DA01B1
:101580003C014D01C401B30165962CAD3DAD4EAD9E
:101590005FAD65970E943F389B01AC018701FF2436
:1015A000EE248D8D9E8DAF8DB8A1A070B0705701C7
:1015B0006801A82AB92ACA2ADB2AA216B306C406D9
:1015C000D50600F5089461087108810891086DA19D
:1015D0007EA18FA198A5A60EB71EC81ED91EA6165D
:1015E000B706C806D90670F0A216B306C406D5061B
:1015F00048F408946108710881089108A60EB71E86
:10160000C81ED91ED601C501821B930BA40BB50BB6
:10161000898F9A8FAB8FBC8FD1019927882764015E
:101620005301A82AB92ACA2ADB2AA9AABAAACBAA8C
:10163000DCAA860175012FEF3FEF40E050E0E22287
:10164000F32204231523A601662777276D964CAF56
:101650005DAF6EAF7FAF6D97A9A0BAA0CBA0DCA0A5
:101660006FEF7FEF80E090E0A622B722C822D92258
:1016700089A19AA1ABA1BCA11D0144245524C80194
:10168000B701A60195010E943F3869966CAF7DAF06
:101690008EAF9FAF6997C801B701A20191010E9467
:1016A0003F383B014C016D966CAD7DAD8EAD9FAD6D
:1016B0006D97A60195010E943F387B018C016D96C4
:1016C0006CAD7DAD8EAD9FAD6D97A20191010E9475
:1016D0003F385B016C01A8019701260D371D481D9D
:1016E000591D69966CAC7DAC8EAC9FAC6997C401FA
:1016F000AA27BB27280F391F4A1F5B1F2E153F053E
:101700004007510748F4E12CF12C61E0062F112D20
:10171000AE0CBF1CC01ED11ECA01AA27BB27BC012C
:10172000CD016A0D7B1D8C1D9D1D698C7A8C8B8C67
:101730009C8C661677068806990640F16615770533
:101740008805990509F043C0D9019927882769962A
:101750002CAD3DAD4EAD5FAD699740705070820FBE
:10176000931FA41FB51F2DA53EA54FA558A96E9682
:101770000FAC6E9704C0220F331F441F551F0A94ED
:10178000D2F7281739074A075B0708F509A91AA9EC
:101790002BA93CA9015010402040304009AB1AABA6
:1017A0002BAB3CAB14C066247724430121E030E02E
:1017B00040E050E029AB3AAB4BAB5CAB0BC06624CE
:1017C0007724430119AA1AAA1BAA1CAA03C06624DB
:1017D00077244301FE01719688E0DF011D928A950E
:1017E000E9F7A9A8BAA8CBA8DCA8A98ABA8ACB8AA3
:1017F000DC8A6D8A7E8A8F8A988E29A93A894B89DC
:101800005C89662D7E898F89988DC25ADF4FE2E10F
:101810000C94DE388DE896E061EF74E00E94C12BF5
:101820008DE394E060E00E94FA1882E996E00E945D
:10183000F72D60E072EC81E090E041E00E94B4227C
:1018400081E00E94CE2064EF71E080E090E00E9491
:10185000A01E0895AF92BF92CF92DF92EF92FF92B7
:101860000F931F935C01BC01672F772762956F7000
:1018700080E090E00E94C5359B01AC0160E070E023
:1018800080E090E40E94DA367B018C018FEF9FE0CC
:10189000A822B922CC24DD24C601B5010E94C53599
:1018A0005B016C01C801B7012AE037ED43E25CE35C
:1018B0000E9477369B01AC01C601B5010E947736C4
:1018C0001F910F91FF90EF90DF90CF90BF90AF905E
:1018D00008956F927F928F929F92AF92BF92CF9214
:1018E000DF92EF92FF920F931F93DF93CF9300D07D
:1018F00000D0CDB7DEB78DE896E064ED74E00E94CD
:10190000C12B8DE896E060E072E00E94082C8DE823
:1019100096E06AE174E00E94EF2B8DE394E06AE1C7
:1019200074E00E94981A019709F0A6C28DE896E02B
:1019300060EB74E00E94C12B8DE394E06AE174E0F7
:101940000E94191880933804813009F090C28DE804
:1019500096E069E172E00E94082C4091F20450E0A8
:1019600060E070E08DE896E02AE030E00E94BA2C5A
:101970008DE896E068E372E00E94082C8DE394E025
:101980006091F2040E94D516482F552747FD5095C7
:10199000652F752F8DE896E02AE030E00E94BA2C82
:1019A0008DE896E06BE974E00E94C12B8DE394E032
:1019B0006091F20443E050E00E9431168DE896E019
:1019C00069E874E00E94922B00E00AC0E02FF0E08A
:1019D000EC50FB4F8DE896E060810E94712B0F5F09
:1019E0008091F304081790F38DE896E00E94832B12
:1019F0008DE896E06FE674E00E94922B00E00AC04A
:101A0000E02FF0E0EC50FB4F8DE896E060810E9403
:101A1000DC2B0F5F8091F304081790F38DE896E0BC
:101A20000E94832B8DE896E00E94832B81E00E9428
:101A3000752168EB7BE080E090E00E94A01E81E0D1
:101A4000809336048DE896E06AE574E00E94C12B2D
:101A50008DE394E06091F20444E250E026E334E048
:101A600001E00E94BC15892B31F48DE896E06DE20F
:101A700074E00E94C12B81E089831A828DE394E097
:101A80006091F20442E250E09E012F5F3F4F02E07E
:101A90000E94BC1590933B0480933A04892B09F073
:101AA000AFC08DE896E068E174E00E94C12B8DE341
:101AB00094E06091F20441E250E00E9431161092ED
:101AC0003C0474C08DE896E06FEE73E00E94C12B79
:101AD00070903A056624E0903905FF24E628F7283F
:101AE0008DE896E06EE372E00E94082C00E010E0C2
:101AF0008DE896E0B801A7012AE030E00E94F82CBA
:101B00008DE896E066E572E00E94EF2B90903E052E
:101B1000882460913D0570E068297929769567955C
:101B200076956795882777FD8095982F0E94C73511
:101B300020E030E040E05DE30E9477367B018C01DD
:101B40008DE896E065E672E00E94082C8DE896E04C
:101B5000B801A7010E94AE2C8DE896E00E94832B6D
:101B60008AE792E061E00E949721C801B7010E94D4
:101B70009435882777FD8095982F41E00E9489222F
:101B800081E00E94752180913C048F5F80933C042A
:101B900010923B0410923A0402C00F97D9F10E94B0
:101BA0000A1E6A157B058C059D0520F40E940A1EFD
:101BB0005B016C0180913C04853060F50E940A1E37
:101BC0006A197B098C099D096053754780409040D4
:101BD00008F58DE896E066E074E00E94C12B8DE385
:101BE00094E048E853E160E070E00E94AD1290E0BC
:101BF00090933B0480933A048531910571F662CF4E
:101C00008DE896E06BED73E00E94C12B8DE896E0C5
:101C10000E94832B109236048DE394E06091F204CD
:101C200044E250E026E334E001E00E94BC15892B39
:101C300051F08DE896E066EB73E00E94C12B8DE8D1
:101C400096E00E94832B68EE73E080E090E00E94B3
:101C5000A01E81E0809336048DE896E061EA73E08F
:101C60000E94C12B8DE394E06091F20444E450E0C3
:101C700026E334E001E00E94BC15892B31F48DE8A5
:101C800096E067E773E00E94C12B81E08B831C82A2
:101C90008DE394E06091F20442E450E09E012D5FF8
:101CA0003F4F02E00E94BC1590933B0480933A049E
:101CB000892B09F0A1C08DE896E062E673E00E94EE
:101CC000C12B8DE394E06091F20441E450E00E9466
:101CD000311610923C0466C08DE896E069E373E02B
:101CE0000E94C12B70903A056624E0903905FF24CC
:101CF000E628F7288DE896E06EE372E00E94082C53
:101D000000E010E08DE896E0B801A7012AE030E09D
:101D10000E94F82C8DE896E066E572E00E94EF2BB9
:101D200090903E05882480913D0590E0882999296E
:101D30000E942A0C7B018C018DE896E06FE872E02E
:101D40000E94082C8DE896E0B801A7010E94AE2CF5
:101D50008DE896E00E94832B81EA92E061E00E9488
:101D60009721C801B7010E949435882777FD809597
:101D7000982F41E00E94892281E00E947521809184
:101D80003C048F5F80933C0410923B0410923A0411
:101D900002C00F97D9F10E940A1E6A157B058C05B7
:101DA0009D0520F40E940A1E5B016C0180913C0499
:101DB000853060F50E940A1E6A197B098C099D090D
:101DC000605375478040904008F58DE896E060E5E7
:101DD00073E00E94C12B8DE394E048E853E160E09A
:101DE00070E00E94AD1290E090933B0480933A041F
:101DF0008531910571F670CF8DE896E065E273E06C
:101E00000E94C12B8DE896E00E94832B109236042D
:101E10008DE394E06091F20444E450E026E334E082
:101E200001E00E94BC15892B51F08DE896E06CEF23
:101E300072E00E94C12B8DE896E00E94832B68EE31
:101E400073E080E090E00E94A01E8DE394E060913A
:101E5000F2040E940C178DE896E060EE72E00E949A
:101E6000C12B8EEA92E061E00E9497210BC08DE8C1
:101E700096E062ED72E004C08DE896E068EB72E0F7
:101E80000E94C12B8DE896E00E94832B68EB7BE0DB
:101E900080E090E00E94A01E8DE394E060E00E944C
:101EA000FA188DE896E06BE972E00E94C12B8DE88C
:101EB00096E063EB72E00E94082C8DE896E068E201
:101EC00074E00E94EF2B8DE394E068E274E00E94DE
:101ED000981A019709F0AAC18DE896E067E772E0C9
:101EE0000E94C12B8DE394E068E274E00E9419180F
:101EF00080933904813009F094C18DE896E069E15E
:101F000072E00E94082C4091F20450E060E070E022
:101F10008DE896E02AE030E00E94BA2C8DE896E049
:101F200068E372E00E94082C8DE394E06091F20473
:101F30000E94D516482F552747FD5095652F752FC0
:101F40008DE896E02AE030E00E94BA2C8DE896E019
:101F500062E672E00E94C12B8DE394E06091F2048E
:101F600043E050E00E9431168DE896E060E572E0B3
:101F70000E94922B00E00AC0E02FF0E0EC50FB4FF3
:101F80008DE896E060810E94712B0F5F8091F304D1
:101F9000081790F38DE896E00E94832B8DE896E079
:101FA00066E372E00E94922B00E00AC0E02FF0E0AE
:101FB000EC50FB4F8DE896E060810E94DC2B0F5FB8
:101FC0008091F304081790F38DE896E00E94832B2C
:101FD0008DE896E00E94832B81E00E94752168EBDA
:101FE0007BE080E090E00E94A01E81E080933604B8
:101FF0008DE896E061E272E00E94C12B8DE394E0EF
:102000006091F20444E250E026E334E001E00E94F3
:10201000BC15892B31F48DE896E064EF71E00E94E5
:10202000C12B81E08B831C828DE394E06091F204EC
:1020300042E250E09E012D5F3F4F02E00E94BC153E
:1020400090933B0480933A04892B09F0AFC08DE84C
:1020500096E06FED71E00E94C12B8DE394E06091FA
:10206000F20441E250E00E94311610923C0474C028
:102070008DE896E066EB71E00E94C12B70903A0506
:102080006624E0903905FF24E628F7288DE896E0DD
:102090006EE372E00E94082C00E010E08DE896E00C
:1020A000B801A7012AE030E00E94F82C8DE896E004
:1020B00066E572E00E94EF2B90903E0588246091C7
:1020C0003D0570E06829792976956795769567953D
:1020D000882777FD8095982F0E94C73520E030E053
:1020E00040E05DE30E9477367B018C018DE896E04D
:1020F0006CEC72E00E94082C8DE896E0B801A70114
:102100000E94AE2C8DE896E00E94832B8CEC92E02E
:1021100061E00E949721C801B7010E949435882789
:1021200077FD8095982F41E00E94892281E00E94EE
:10213000752180913C048F5F80933C0410923B0496
:1021400010923A0402C00F97D9F10E940A1E6A1534
:102150007B058C059D0520F40E940A1E5B016C0125
:1021600080913C04853060F50E940A1E6A197B0943
:102170008C099D09605375478040904008F58DE8B3
:1021800096E06DEC71E00E94C12B8DE394E048E88D
:1021900053E160E070E00E94AD1290E090933B0448
:1021A00080933A048531910571F662CF8DE896E00F
:1021B00062EA71E00E94C12B8DE896E00E94832BB9
:1021C000109236048DE394E06091F20444E250E012
:1021D00026E334E001E00E94BC15892B51F08DE824
:1021E00096E06DE771E00E94C12B8DE896E00E94B9
:1021F000832B68EE73E080E090E00E94A01E8DE3E8
:1022000094E06091F2040E940C178DE896E06FE66E
:1022100071E00E94C12B8EEA92E061E00E9497215A
:102220000BC08DE896E061E671E004C08DE896E0B1
:102230006EE471E00E94C12B8DE896E00E94832B32
:1022400068EB7BE080E090E00E94A01E0F900F9072
:102250000F900F90CF91DF911F910F91FF90EF9012
:10226000DF90CF90BF90AF909F908F907F906F90B6
:102270000895FC01E950FF4F8081E75FF04088231B
:1022800009F4C4C0E750FF4F8081E95FF040882324
:1022900009F5E650FF4F80818230A1F0833030F4A1
:1022A000882371F0813009F0B1C008C0843071F02A
:1022B000843050F0853009F0A9C00AC082E008954A
:1022C00081E0089583E0089584E0089585E008950D
:1022D00086E00895813041F4E650FF4F80818823E5
:1022E00009F094C087E00895823089F4E650FF4FEA
:1022F0008081813031F0813030F0823009F086C049
:1023000004C089E0089588E008958AE00895833044
:10231000E9F4E650FF4F8081823091F0833030F451
:10232000882361F0813009F071C006C0833051F01C
:10233000843009F06BC008C08CE008958BE00895EC
:102340008DE008958EE008958FE00895843011F5B2
:10235000E650FF4F80818330A9F0843028F481302B
:1023600059F0823068F40AC0853081F0853060F021
:10237000863009F04BC00CC081E1089580E10895DA
:1023800082E1089583E1089584E1089585E1089547
:1023900086E108958530D9F4E650FF4F8081823080
:1023A00081F0833028F4882351F0813079F505C01D
:1023B000833049F0843051F508C088E1089587E101
:1023C000089589E108958AE108958BE108958630A2
:1023D00059F4E650FF4F8081882321F08130B1F419
:1023E0008DE108958CE10895873081F4E650FF4F28
:1023F0008081813029F0813028F0823039F404C0A6
:102400008FE108958EE1089580E2089580E00895B7
:10241000CF93DF93FC0180E092ECA1E0B0E08083F9
:102420009183A283B383E055FF4F11821082E05B5A
:10243000F040CF018A5B9F4FDC0186E0ED011992ED
:102440008A95E9F7EB5AFF4F8FE08083399782E056
:102450008193119211928BE4819382E38193119283
:102460001082389680E094E091838083DF91CF9151
:1024700008958DE394E00E9408120895CF93DF93AE
:10248000EC018D599F4FFC018FE1DF011D928A9570
:10249000E9F7CE57DF4F2881C258D04081E056C0BF
:1024A000FE01E80FF11DEE57FF4F90818F5FFE0197
:1024B000E80FF11DEE57FF4FE081482F4F5FE930E5
:1024C000F1F4E92F903208F0EFE190E02E2F30E0A8
:1024D000215030400CC0AC0FBD1FAD59BF4FFE01A5
:1024E000E80FF11DEE57FF4F80818C939F5F892F7E
:1024F000840FA92FB0E0A217B3076CF325C0E83012
:10250000F9F4E92F903208F0EFE190E02E2F30E05F
:10251000215030400CC0AC0FBD1FAD59BF4FFE0164
:10252000E80FF11DEE57FF4F80818C939F5F892F3D
:10253000840FA92FB0E0A217B3076CF382E00AC0A2
:10254000892F840F815002C081E004C0821708F4F3
:10255000A7CF80E0DF91CF9108958F929F92AF92A5
:10256000BF92CF92DF92EF92FF920F931F93CF9380
:10257000DF93EC014A015B018C0109501F4F81E49C
:10258000D8011D928A95E9F762C08C810E946F2064
:1025900004970CF455C08C810E949320F80180832D
:1025A000803809F04DC08C810E9493208E01085024
:1025B0001F4FD8018C938C810E949320C750DF4F0E
:1025C0008883C95FD0408C810E949320C650DF4F22
:1025D0008883CA5FD0400E940A1E6B017C018C81F7
:1025E0000E946F20F801208130E0821793070CF0E1
:1025F0004EC00E940A1E6C197D098E099F0968153C
:1026000079058A059B0508F042C00E940A1E6C15D8
:102610007D058E059F0518F7DECF8C810E949320E3
:10262000D7018D937D010F5F1F4F02341105F9F023
:10263000F601808190E003968017910774F717C028
:102640000E940A1E6C157D058E059F0520F40E94D0
:102650000A1E6B017C010E940A1E6C197D098E09FD
:102660009F09681579058A059B0508F48ECFCE0170
:102670000E943911DF91CF911F910F91FF90EF9040
:10268000DF90CF90BF90AF909F908F9008959BEF79
:10269000E92EF12CEC0EFD1E04E010E088EFC82EB0
:1026A000D12CCC0EDD1EC4CFBF92CF92DF92EF9221
:1026B000FF920F931F93CF93DF93EC01C62EB42E9E
:1026C0000596FC0181E4DF011D928A95E9F70E94DD
:1026D0000A1E7B018C01DD2418C08C810E9493208E
:1026E000FE01ED0DF11D8583D394DC1438F5B0E4C3
:1026F000BD1520F10E940A1E6E157F058007910707
:1027000020F40E940A1E7B018C01DC1428F08C81CD
:102710000E946F20892B91F00E940A1E6E197F097A
:10272000800B910B643171058105910538F48C8122
:102730000E946F201816190684F2DCCFDE01A05526
:10274000BF4F81E0B81661F4FE01ED0DF11D9481DB
:1027500080E0238130E0822B932B8D939C9302C0E9
:102760001D921C92DD2041F4C055DF4F8FEF9FEF8B
:1027700099838883C05BD040FE01E055FF4F808184
:102780009181DF91CF911F910F91FF90EF90DF909A
:10279000CF90BF900895CF93DF93EC018C81882375
:1027A000A1F482E996E00E94E62D688179818A8110
:1027B0009B814C810E94B4228C810E94CE208FE2AA
:1027C00061E00E94BA1F8FE215C08130B1F482E946
:1027D00096E00E94102E688179818A819B814C81CC
:1027E0000E94B4228C810E94CE2084E061E00E948D
:1027F000BA1F84E061E00E94D81F8C81882351F4C5
:102800008091B8089091B908A091BA08B091BB081E
:1028100084600BC0813089F48091B8089091B90828
:10282000A091BA08B091BB0888608093B8089093D3
:10283000B908A093BA08B093BB08CE0148EE53E0A4
:1028400060E070E00E94AD128E3109F481E0DF910A
:10285000CF910895AF92BF92CF92DF92EF92FF9205
:102860000F931F93CF93DF937C015AE5C52ED12C94
:10287000C80ED91EF601808191818F51974019F4BD
:1028800020E030E053C08701045A1F4FE60142E6C2
:10289000A42EB12CAE0CBF1C6881798182E996E030
:1028A000F80141918F010E94AB2D688179816F5FA2
:1028B0007F4F798368830A151B0571F782E996E0DB
:1028C000F80140810E94AB2DF60180819181019633
:1028D0009183808387010D591F4FE701C65ADF4F4F
:1028E00082E890E0E80EF91E6881798182E996E03D
:1028F000F80141918F010E94AB2D688179816F5F52
:102900007F4F798368830E151F0571F782E996E082
:1029100040EF0E94AB2D688179816F5F7F4F82E924
:1029200096E040EF0E94AB2D21E030E0C901DF913D
:10293000CF911F910F91FF90EF90DF90CF90BF90BC
:10294000AF900895DF92EF92FF920F931F93CF9372
:10295000DF93EC01C950DF4F8881C75FD0408038DA
:1029600039F0C750DF4F8881C95FD040863041F4CD
:102970007CE5E72EF12CEC0EFD1ED70195E009C099
:10298000C650DF4F8881CA5FD040882389F380E03A
:1029900068C0FE01E90FF11DE350FF4F80818D9368
:1029A0009150B8F7FE01EE59FF4FC550DF4F8881B7
:1029B00080832A962881C550D140203208F02FE12B
:1029C000CE018E579F4FFC0181E2DF011D928A9557
:1029D000E9F730E0422F50E00AC0FE01E80FF91F8E
:1029E000EB5FFE4F8081E358F04080833F5F832F91
:1029F00090E0481759078CF7613029F4CE010E9406
:102A00003E12D82E0BC09E012D593F4FC90160E2E6
:102A100070E04FE150E00E947139DD248E010A5BC5
:102A20001F4FC701B80146E050E00E94643900978B
:102A3000B9F0FE01EE54FF4F8081918101969183A0
:102A40008083D801F70186E001900D928150E1F773
:102A5000CE016D2D0E942A14892B11F482E001C051
:102A600081E0DF91CF911F910F91FF90EF90DF9068
:102A700008956F927F929F92AF92BF92CF92DF9212
:102A8000EF92FF920F931F93DF93CF93CDB7DEB7F3
:102A90005C01F62EE42ED22EC02E912E6DB67EB69F
:102AA0008CE3861718F421E030E052C0262F30E086
:102AB0002B5F3F4FEDB7FEB7E21BF30B0FB6F89459
:102AC000FEBF0FBEEDBF0DB71EB70F5F1F4FC80192
:102AD00060E070E0A9010E947139F4E0FF0EF80196
:102AE000F082FCEFFF0EF8011182F282E382D482C1
:102AF000FF2021F4F5E0EF2EF12C15C0D8018C2D2C
:102B0000992D9C01F901819115968C931597119639
:102B10008E2F8C198F15B8F3FA94EF2CFF2486E0D2
:102B200090E0E80EF91EF50184810E94CE20DD249C
:102B300008C0E00FF11F8081F50164810E946421CB
:102B4000D394ED2DF0E0EE15FF0598F320E030E092
:102B5000C9010FB6F8947EBE0FBE6DBECF91DF9156
:102B60001F910F91FF90EF90DF90CF90BF90AF90AB
:102B70009F907F906F900895CF92DF92EF92FF9297
:102B80000F931F93DF93CF93CDB7DEB77C01702FE8
:102B9000CDB6DEB6802F90E00496ADB7BEB7A81BC9
:102BA000B90B0FB6F894BEBF0FBEADBF0DB71EB7C1
:102BB0000F5F1F4F11966C93F8014183528373830B
:102BC000D80140E050E009C0F901E40FF51F808111
:102BD00013968C9313974F5F5F4F11964717A0F38F
:102BE0007C5FC701672F44E025E00E943915C701CB
:102BF00067E041E00E945413892B01F5C70148EEBC
:102C000053E060E070E00E94AD12813111F090E07D
:102C10001AC0F701E055FF4F4DEF50E0E40EF51EEE
:102C2000D7019C9180E02E917D0144E05FEFE40E9E
:102C3000F51E30E0822B932B91838083F701E055C2
:102C4000FF4F808191810FB6F894DEBE0FBECDBEDE
:102C5000CF91DF911F910F91FF90EF90DF90CF9078
:102C600008959F92AF92BF92CF92DF92EF92FF9220
:102C70000F931F93DF93CF9300D00F92CDB7DEB7A2
:102C80007C01962E6A01A6EBAA2EB12CA80EB91EC5
:102C900081E4D5011D928A95E9F769834A83DB8235
:102CA000C70163E044E024E08E010F5F1F4F0E94E4
:102CB0003915C70167E041E00E945413E0EBF0E0F2
:102CC000EE0EFF1ED7010D911C91E0E5FFEFEE0E19
:102CD000FF1E0115110509F058C0C70140ED57E06E
:102CE00060E070E00E94AD12882319F401E010E06A
:102CF0004CC0853119F0082F10E047C02DEF30E0AF
:102D0000E20EF31ED7014C91F7012291DF018E9163
:102D10007D01E5E0FFEFEE0EFF1E8915B1F5942F62
:102D200080E030E0822B932B8C159D0571F52FEF01
:102D300030E0E20EF31ED7018C91E1E0FFEFEE0EE2
:102D4000FF1E873110F086E102C0882321F020E0C9
:102D5000482F50E015C081E0D5018C93E7EBF0E0FF
:102D6000EE0EFF1E80E3D7018C930FC0F701E80F32
:102D7000F91FE150FF4F8081E954F04080832F5FBD
:102D8000822F90E0481759078CF7C8010F900F90D9
:102D90000F90CF91DF911F910F91FF90EF90DF90F7
:102DA000CF90BF90AF909F900895EF92FF920F93B6
:102DB0001F93DF93CF930F92CDB7DEB77C0169836A
:102DC00061E043E021E08E010F5F1F4F0E94391543
:102DD000C70166E040E00E945413F70191858981A4
:102DE000981789F420EB30E0E20EF31EF7018081A2
:102DF000918120E53FEFE20EF31E8F5F9F4F19F0A8
:102E0000F701828501C080E00F90CF91DF911F9183
:102E10000F91FF90EF900895EF92FF920F931F9301
:102E2000DF93CF930F92CDB7DEB77C01698361E06A
:102E300043E020E08E010F5F1F4F0E943915C7014C
:102E400067E041E00E94541325EB30E0E20EF31EF0
:102E5000F70190812BE43FEFE20EF31EF70181852D
:102E6000981719F021E030E02CC0F701938580E03D
:102E7000228530E0282B392B80EB90E0E80EF91EFC
:102E8000F7013183208380E59FEFE80EF91E2115BD
:102E90003105B9F4C70140E157E260E070E00E94FB
:102EA000AD128F3061F4EDEFF0E0EE0EFF1EF70192
:102EB000908180E0229130E0282B392B02C0282F0E
:102EC00030E0C9010F90CF91DF911F910F91FF90DA
:102ED000EF9008958F929F92AF92BF92CF92DF9220
:102EE000EF92FF920F931F93DF93CF93CDB7DEB78F
:102EF00065970FB6F894DEBF0FBECDBF5C014A01E7
:102F0000D22EC32E82E996E0AE014F5F5F4F0E9442
:102F1000B42D2D2D3C2DC901AC018815990508F45F
:102F2000A4010A30110518F40AE010E006C02CE0F4
:102F30000138120710F000E81CE0970181E0253FFE
:102F4000380710F024EF31E08E818F838D818887E0
:102F50008C8189878B818A878A818B8789818C87FD
:102F60001D868E869F86488B598B0A8B1B8B2C8BDC
:102F70003D8BC5016FE046E023E08E01095F1F4FE6
:102F80000E943915C50167E040E00E945413F50125
:102F9000928580E0218530E0282B392B80EB90E072
:102FA000A80EB91EF5013183208380E59FEFA80E9E
:102FB000B91E2115310549F5F501838525EB30E072
:102FC000A20EB31EF50180832BE43FEFA20EB31EC9
:102FD000C50148EE53E060E070E00E94AD12182F8A
:102FE00064E670E080E090E00E94A01E1B3059F47F
:102FF0008CEF90E0A80EB91EF5018081853019F4A0
:1030000021E030E002C0212F30E0C90165960FB603
:10301000F894DEBF0FBECDBFCF91DF911F910F910E
:10302000FF90EF90DF90CF90BF90AF909F908F90E8
:103030000895EF92FF920F931F934CE350E02CE41E
:1030400030E004E610E0EE24FF240E946A171F918E
:103050000F91FF90EF900895BF92CF92DF92EF9281
:10306000FF920F931F93DF93CF9300D00F92CDB7B2
:10307000DEB77C01D62EC42EB22E69834A832B8301
:1030800063E046E026E08E010F5F1F4F0E94391576
:10309000C70166E041E00E94541320EB30E0E20EED
:1030A000F31EF7018081918120E53FEFE20EF31ED0
:1030B000892B91F481E590E0E80EF91EF701D19299
:1030C0007F01C08222E030E0E20EF31EF701B08201
:1030D0002CEA3FEFE20EF31EF701E055FF4F80812F
:1030E00091810F900F900F90CF91DF911F910F91D1
:1030F000FF90EF90DF90CF90BF900895FC01262FB6
:10310000DC01AE5ABF4FEF5AFF4F60814C910E94D5
:103110002C180895EF92FF920F931F937C0160E0AB
:1031200046E024E000E010E00E943915C70166E0A7
:1031300041E00E9454131F910F91FF90EF9008956A
:10314000FF920F931F93CF93DF93EC010E948A1895
:10315000CE0161E00E947E18892B19F0E2E0FE2E7C
:1031600007C0CC5ADF4F81E08883C455D040FF248C
:103170008E01065A1F4FF8016081718182E996E045
:1031800040EF0E94AB2DF801608171816F5F7F4F2E
:1031900082E996E040EF0E94AB2D80E0FF2009F429
:1031A00081E0DF91CF911F910F91FF900895EF92F1
:1031B000FF920F931F937C0161E049E020E000E063
:1031C00010E00E94391564EF71E080E090E00E9409
:1031D000A01EC70148EE53E060E070E00E94AD120F
:1031E00090E0813009F491E0892F1F910F91FF90B9
:1031F000EF900895CF93DF93EC01623018F081E0F7
:103200008C8301C06C838C81882331F486E161E07A
:103210000E94BA1F86E107C0813041F486E061E078
:103220000E94BA1F86E061E00E94D81F64E670E049
:1032300080E090E00E94A01ECE010E94CB1381305E
:10324000A1F1C850DF4F8881C85FD0408C3071F445
:10325000C750DF4F8881C95FD040882339F4C650FA
:10326000DF4F8881CA5FD0408823F9F0CE010E94E9
:10327000D7188823D1F48DE896E060E275E00E94CB
:10328000C12B82E996E06CE041E00E94292E60E3C8
:1032900075E780E090E00E94A01E82E996E06CE075
:1032A00040E00E94292E80E003C0CE010E94A018B9
:1032B000DF91CF910895AF92BF92DF92EF92FF928C
:1032C0000F931F93DF93CF93CDB7DEB765970FB6FC
:1032D000F894DEBF0FBECDBF5C016D8B603110F086
:1032E0008FE08D8B19821A821B821C8246E0D42EBD
:1032F000FE013596DF018D2D1D928A95E9F7C501F6
:1033000061E047E02CE08E010B5E1F4F0E943915F3
:10331000C50164E040E00E945413B5016B5F7F4F2C
:1033200082E996E07E010894E11CF11CA70124E0EB
:103330000E94322D1B861C861D861E86FE013F962E
:10334000DF011D92DA94E9F7E0E0F5E06591749110
:103350008E01055F1F4FC8010E945D39C701B8018A
:103360000E948339009719F021E030E009C0E5E5BB
:10337000F0E0AE0EBF1E8D89D5018C9320E030E0C9
:10338000C90165960FB6F894DEBF0FBECDBFCF91D1
:10339000DF911F910F91FF90EF90DF90BF90AF9062
:1033A00008954F925F926F927F929F92AF92BF92D9
:1033B000CF92DF92EF92FF920F931F93CF93DF9301
:1033C000EC012B01D42E72EBE72EF12CE80EF91E46
:1033D000F7011182108266E4662E712C680E791E48
:1033E00086E0F30111928A95E9F7CE01622F0E94DF
:1033F0005B198E010C5A1F4FF8018081813081F0DA
:10340000CE0161E00E947E18892B21F481E0F80151
:10341000808306C08FEF9FEFF7019183808369C09F
:103420008E01045B1F4FCE0161E046E022E00E9466
:103430003915CE0166E041E00E945413892B09F052
:1034400058C08D2D90E028EE33E0AC01429FC001C2
:10345000439F900D529F900D11245C01CC24B7FC2A
:10346000C094DC2C51EEA51653E9B50654E0C50610
:1034700050E0D50638F050EEA52E53E9B52E54E0B5
:10348000C52ED12C0E940A1E7B018C011DC0CE01CD
:1034900060E00E94A214C301B20146E050E00E9425
:1034A0006439009719F49924939401C099240E94D7
:1034B0000A1E6E157F058007910720F40E940A1EE0
:1034C0007B018C01992071F50E940A1E6E197F09FB
:1034D000800B910B6A157B058C059D0510F5CE01BF
:1034E00048EE53E060E070E00E94AD128C31F1F6DE
:1034F000CECFFE01E055FF4F8081918102C0892D22
:1035000090E0DF91CF911F910F91FF90EF90DF90AE
:10351000CF90BF90AF909F907F906F905F904F90B3
:1035200008959924CE010E948A18892B41F3E1CF96
:10353000EF92FF920F931F93DF93CF9300D000D0B1
:1035400000D0CDB7DEB77C018B01FB0101900020DC
:10355000E9F73197E61BF70B3E9710F0FB01148655
:10356000C8010E948C3982E996E0B8018E010F5F94
:103570001F4FA8010E94B42DC701B8014EE12FE0F2
:103580000E94D11926960FB6F894DEBF0FBECDBFAC
:10359000CF91DF911F910F91FF90EF900895482FE9
:1035A000613210F081E0089580917705843011F048
:1035B00082E008956093C005AFE9B5E0842F9C01D7
:1035C000F90102C081918D938E2F841B8617D0F351
:1035D00080E00895589859988091B900816080934F
:1035E000B9008091B90082608093B9008091BC00DD
:1035F00080688093BC008091BC0080618093BC0097
:103600008091BC008F7B8093BC008091BC008F7D3B
:103610008093BC008091BC00877F8093BC00809128
:10362000B8089091B908A091BA08B091BB0886FD7E
:1036300014C08091B8089091B908A091BA08B091CF
:10364000BB0890FD0AC08091B8089091B908A0917C
:10365000BA08B091BB0893FF04C08091BC008B7F77
:1036600003C08091BC0084608093BC008091BC004A
:103670008E7F8093BC00809164008068809364009A
:10368000089510927705E4E6F0E080818F778083DB
:10369000589A599AE9EBF0E080818E7F808380818F
:1036A0008D7F808381E48093B80085E48093BC00A3
:1036B00080E2EDE7F5E0DF01982F1D929A95E9F79A
:1036C000EFE9F5E0DF01982F1D929A95E9F7E1EC1B
:1036D000F5E0DF011D928A95E9F70895882349F006
:1036E0001092E3051092E4051092E5051092E605AC
:1036F00013C08091E3059091E405A091E505B09198
:10370000E6050196A11DB11D8093E3059093E405A4
:10371000A093E505B093E6058091E3059091E4055B
:10372000A091E505B091E605805A9648A140B040C9
:1037300010F480E008951092E3051092E4051092D1
:10374000E5051092E6050E94411B81E0089585ED94
:103750008093BC0081E00E946E1B05C080E00E9447
:103760006E1B882321F48091BC0084FDF7CF10925A
:10377000770508951F920F920FB60F920BB60F9216
:1037800011242F933F934F935F936F937F938F9366
:103790009F93AF93BF93EF93FF938091B90090E015
:1037A000887F90708036910509F4C3C081369105F9
:1037B000CCF58832910509F47BC089329105B4F4C7
:1037C0008031910509F46FC0813191053CF4009777
:1037D00009F40EC1089709F00FC165C08831910541
:1037E00009F466C0809709F007C177C0803491055D
:1037F00009F48DC08134910544F48033910509F4B6
:1038000072C0C89709F0F8C072C08035910509F4FC
:1038100072C08835910509F47FC08834910509F09C
:10382000EBC0E8C08839910509F4D8C08939910501
:10383000ECF48837910509F47CC0893791054CF484
:103840008836910509F475C08037910509F0D4C018
:1038500070C08838910509F4C1C08039910509F418
:103860006EC08038910509F0C7C069C0803B9105E2
:1038700009F48CC0813B91054CF4803A910509F420
:1038800070C0883A910509F0B7C080C0803C9105AE
:1038900009F4A8C0883C910509F4A4C0883B9105AF
:1038A00009F0AAC088C0809178058093BB0013C03E
:1038B00090919D0580919E05981708F09BC090916E
:1038C0009D05E92FF0E0E358FA4F80818093BB001B
:1038D0009F5F90939D0585EC82C00E94A71B80E2AC
:1038E0008093E20589C080E38093E20583C088E38A
:1038F0008093E20577C080919D059091BB00E82FF1
:10390000F0E0E358FA4F90838F5F80939D0590918C
:103910009D0580919E055FC080919D059091BB00A3
:10392000E82FF0E0E358FA4F90838F5F80939D0576
:1039300061C083E0809377051092E105CCCF809140
:10394000E105803208F04AC08091E1059091BB000A
:10395000E82FF0E0EF53FA4F90838F5F8093E105FB
:10396000BACF8091E105803230F4E091E105F0E0DA
:10397000EF53FA4F10826091E105E0917B05F091E1
:103980007C0581EC95E070E009952CC084E0809383
:1039900077051092BF051092C005E0917905F0916E
:1039A0007A0509958091C005882329F481E08093E8
:1039B000C00510929F059091BF05E92FF0E0E156F8
:1039C000FA4F80818093BB009F5F9093BF059091D9
:1039D000BF058091C005981708F47DCF85E88093D6
:1039E000BC000AC085EC8093BC001092770504C02F
:1039F0001092E2050E94A71BFF91EF91BF91AF913A
:103A00009F918F917F916F915F914F913F912F91F6
:103A10000F900BBE0F900FBE0F901F901895DF9266
:103A2000EF92FF920F931F93E82E062FF72E142F7D
:103A3000D22E413210F081E051C081E00E946E1B15
:103A400005C080E00E946E1B882321F480917705D9
:103A50008823B9F782E0809377058FEF8093E205A2
:103A600010929D0510939E05ADE7B5E0202F3F2DE8
:103A7000C901FC0102C081918D938E2F801B81179B
:103A8000D0F38E2D90E0880F991F8093780585EEF6
:103A90008093BC0081E00E946E1BDD2041F40BC0CE
:103AA00080E00E946E1B882311F085E017C0809192
:103AB00077058230A9F38091E2058F3F11F480E011
:103AC0000DC08091E205803211F482E007C0809140
:103AD000E205803311F084E001C083E01F910F9173
:103AE000FF90EF90DF9008950F931F93CF93DF9394
:103AF000182FEB01042F413210F081E03CC081E02F
:103B00000E946E1B05C080E00E946E1B882321F47A
:103B1000809177058823B9F781E0809377058FEF4F
:103B20008093E20510929D0500939E05110F116090
:103B30001093780585EE8093BC0081E00E946E1B97
:103B400008C080E00E946E1B882319F020E030E05E
:103B50000FC0809177058130A1F3F8CFFE01E20F0D
:103B6000F31FD901A358BA4F8C9180832F5F3F4F29
:103B70002017A0F380E0DF91CF911F910F9108955E
:103B80001F920F920FB60F9211248F939F93AF93B2
:103B9000BF938091CA089091CB08A091CC08B091B6
:103BA000CD080196A11DB11D8093CA089093CB0842
:103BB000A093CC08B093CD08BF91AF919F918F9106
:103BC0000F900FBE0F901F9018951F920F920FB677
:103BD0000F9211248F939F93AF93BF938091CE0840
:103BE0009091CF08A091D008B091D1080196A11D65
:103BF000B11D8093CE089093CF08A093D008B093C6
:103C0000D108BF91AF919F918F910F900FBE0F90F0
:103C10001F9018958F929F92AF92BF92CF92DF9292
:103C2000EF92FF920F931F938FB7F894A090CA085A
:103C3000B090CB08C090CC08D090CD088FBF950134
:103C4000A60160E070E080E090E001E00E941605CF
:103C5000122FF32EE42ED52EC62EB72EA82E892E87
:103C600002E00E941605B92F210FE1E0211708F0AC
:103C7000E0E03F0DF1E03F1508F0F0E09E2E930EDE
:103C8000E1E0931608F0E0E0FE2B4E0DA1E04E15AA
:103C900008F0A0E0FF2EF40EE1E0F41608F0E0E0FA
:103CA000AE2B5D0DF1E05D1508F0F0E00A2F050F79
:103CB000E1E0051708F0E0E0FE2B6C0DA1E06C15CB
:103CC00008F0A0E01F2F160FE1E0161708F0E0E063
:103CD000AE2B7B0DF1E07B1508F0F0E0A70FE1E0E3
:103CE000A71708F0E0E0FE2B8A0D91E08A1508F096
:103CF00090E0F80FE1E0F81708F0E0E09E2BB80D37
:103D0000392D4F2D502F612F7A2F8F2F9B0FE9E0E8
:103D1000AE2EBB24CC24DD24EE24FF2400E010E0F2
:103D20000E949505952FB901842F1F910F91FF9047
:103D3000EF90DF90CF90BF90AF909F908F900895BD
:103D4000AF92BF92CF92DF92EF92FF920F931F93A9
:103D50005B016C0107C00E940A1E6E157F0580077B
:103D6000910720F40E940A1E7B018C010E940A1E0A
:103D70006E197F09800B910B6A157B058C059D05DB
:103D800050F31F910F91FF90EF90DF90CF90BF9075
:103D9000AF9008958430910570F0BC0180E090E010
:103DA0000E94C53526E636E646EE5FE30E9477368A
:103DB0000E94993503C0BC01660F771F61507040A7
:103DC00061F06150704049F0FB01EE0FFF1F319729
:103DD0008FB7F8943197F1F78FBF0895789484B72F
:103DE000877F84BF1092CA081092CB081092CC082B
:103DF0001092CD0884B5826084BD84B5816084BD95
:103E000085B5826085BD85B5816085BDEEE6F0E053
:103E1000808181608083E1E8F0E08081826080833E
:103E2000808181608083E0E8F0E080818160808330
:103E3000E1EBF0E0808184608083E1E9F0E0808163
:103E400084608083E0EBF0E0808181608083E0E942
:103E5000F0E0808181608083E4E6F0E080818E7F05
:103E60008083ECE7F0E080818F77808380818064BD
:103E70008083EAE7F0E080818460808380818260D3
:103E800080838081806880831092C1001092C90075
:103E900008959091E705982B9093E70580FF32C035
:103EA000809164008E7F8093640080917C008F7786
:103EB00080937C0080917C00806480937C00809162
:103EC0007A00846080937A0080917A008260809387
:103ED0007A0080917A00806880937A0080916400F3
:103EE0008F7780936400809164008B7F809364005F
:103EF000809164008D7F80936400809165008E7F47
:103F00008093650008951F920F920FB60F920BB623
:103F10000F9211242F933F934F935F936F937F934F
:103F20008F939F93AF93BF93EF93FF93F89481E0A8
:103F300080933704E0E6F0E08081806880838081B0
:103F40008F7B808383E060E00E94D81F7894FF918C
:103F5000EF91BF91AF919F918F917F916F915F9101
:103F60004F913F912F910F900BBE0F900FBE0F906E
:103F70001F901895282F30E0C901805A964FFC01F8
:103F80009491235D364FF9018491882381F0E82FC5
:103F9000F0E0EB5EF64FE491F0E0662329F48081D7
:103FA00090958923808308958081892B808308954B
:103FB000482F50E0CA018D56964FFC012491CA014A
:103FC000805A964FFC019491435D564FFA0134910B
:103FD0003323C1F1222331F1233021F48091800079
:103FE0008F7705C0243031F4809180008F7D8093DD
:103FF000800018C0213019F484B58F7704C02230B6
:1040000021F484B58F7D84BD0DC0263021F48091CC
:10401000B0008F7705C0273029F48091B0008F7DE4
:104020008093B000E32FF0E0E35EF64FE491F0E020
:10403000662329F480819095892380830895808167
:10404000892B80830895482F50E0CA018D56964FE2
:10405000FC012491CA01805A964FFC019491435D62
:10406000564FFA013491332319F420E030E035C083
:10407000222331F1233021F4809180008F7705C015
:10408000243031F4809180008F7D8093800018C0AF
:10409000213019F484B58F7704C0223021F484B51F
:1040A0008F7D84BD0DC0263021F48091B0008F77C4
:1040B00005C0273029F48091B0008F7D8093B00037
:1040C000E32FF0E0EB5DF64FE491F0E0808120E03B
:1040D00030E0892311F021E030E0C9010895882300
:1040E00089F48091E8059091E90580509E4F2091D8
:1040F000EA053091EB05821B930B60E072E00E94B1
:10410000723808958091EC059091ED0580509E4F96
:104110002091EE053091EF05821B930B60E072E079
:104120000E94723808958823D1F44091EA05509195
:10413000EB058091E8059091E9058417950751F109
:10414000FA01EE52F54F2081CA01019660E072E05B
:104150000E9472389093EB058093EA0519C0409154
:10416000EE055091EF058091EC059091ED058417D7
:10417000950781F0FA01EE52F74F2081CA010196AE
:1041800060E072E00E9472389093EF058093EE0534
:1041900030E002C02FEF3FEFC9010895882349F4B2
:1041A0001092EB051092EA051092E9051092E805CD
:1041B00008951092EF051092EE051092ED05109201
:1041C000EC0508951F920F920FB60F920BB60F9247
:1041D00011242F933F934F935F936F937F938F930C
:1041E0009F93AF93BF93EF93FF934091C600E091ED
:1041F000E805F091E905CF01019660E072E00E94C8
:1042000072389C018091EA059091EB0528173907D7
:1042100039F0EE52F54F40833093E9052093E805DD
:10422000FF91EF91BF91AF919F918F917F916F918E
:104230005F914F913F912F910F900BBE0F900FBE4A
:104240000F901F9018951F920F920FB60F920BB6FA
:104250000F9211242F933F934F935F936F937F930C
:104260008F939F93AF93BF93EF93FF934091CE00B3
:10427000E091EC05F091ED05CF01019660E072E070
:104280000E9472389C018091EE059091EF052817ED
:10429000390739F0EE52F74F40833093ED05209304
:1042A000EC05FF91EF91BF91AF919F918F917F911D
:1042B0006F915F914F913F912F910F900BBE0F9097
:1042C0000FBE0F901F901895982F662339F4809198
:1042D000C00085FFFCCF9093C60008958091C80070
:1042E00085FFFCCF9093CE000895882341F4809100
:1042F000C00085FFFCCF8DE08093C60008C0809190
:10430000C80085FFFCCF8DE08093CE0008C080916F
:10431000C00085FFFCCF8AE08093C600089580919D
:10432000C80085FFFCCF8AE08093CE000895FC0191
:1043300010C03196662339F48091C00085FFFCCF10
:104340009093C60006C08091C80085FFFCCF909373
:10435000CE009081992369F708952F923F924F9252
:104360005F926F927F928F929F92AF92BF92CF9205
:10437000DF92EF92FF920F931F93DF93CF93CDB70E
:10438000DEB7A1970FB6F894DEBF0FBECDBF6B01AD
:104390007C0129013A0109A3611571058105910587
:1043A00091F4002341F48091C00085FFFCCF80E3AD
:1043B0008093C6005BC08091C80085FFFCCF80E37E
:1043C0008093CE0053C08824992454011E01089480
:1043D000211C311C8101080D191DC701B601A30163
:1043E00092010E948538F80160830894811C911C19
:1043F000A11CB11CC701B601A30192010E9485381E
:10440000C901DA016C017D01C114D104E104F10498
:1044100009F79101280D391DBE016F5F7F4FD5014E
:10442000C4010197A109B109AC01481959091BC080
:10443000FA01E20FF31FE081EA3010F4E05D01C001
:10444000E95CF9A1FF2339F48091C00085FFFCCF1E
:10445000E093C60006C08091C80085FFFCCFE093C2
:10446000CE00215030406217730711F7A1960FB6A6
:10447000F894DEBF0FBECDBFCF91DF911F910F919A
:10448000FF90EF90DF90CF90BF90AF909F908F9074
:104490007F906F905F904F903F902F900895282FBE
:1044A000992787FD9095807F907034E0959587954A
:1044B0003A95E1F78A301CF0982F995C02C0982F4A
:1044C000905D822F8F708A301CF0282F295C02C0EB
:1044D000282F205D662339F48091C00085FFFCCF32
:1044E0009093C60006C08091C80085FFFCCF9093D2
:1044F000CE00662339F48091C00085FFFCCF209365
:10450000C60008958091C80085FFFCCF2093CE009F
:1045100008950F931F938B019C01E42F97FF18C000
:10452000442341F48091C00085FFFCCF8DE280934D
:10453000C60007C08091C80085FFFCCF8DE2809344
:10454000CE0030952095109501951F4F2F4F3F4F6E
:10455000C901B8012AE030E040E050E00E2F0E948F
:10456000AD211F910F910895EF92FF920F931F932A
:104570007B018C014423C1F588E00E94491FC801DA
:10458000B70122E030E040E050E00E94A738205020
:10459000304F414F5F4FCA01B901A80197010E94F6
:1045A000A738C901DA010197A109B109292F3A2FCA
:1045B0004B2F552747FD5A950196A11DB11D2093FC
:1045C000C50081508093C4008091C10080618093B8
:1045D000C1008091C10088608093C1008091C100BA
:1045E00080688093C10037C080E10E94491FC801E4
:1045F000B70122E030E040E050E00E94A7382050B0
:10460000304F414F5F4FCA01B901A80197010E9485
:10461000A738C901DA010197A109B109292F3A2F59
:104620004B2F552747FD5A950196A11DB11D20938B
:10463000CD0081508093CC008091C900806180932F
:10464000C9008091C90088608093C9008091C90029
:1046500080688093C9001F910F91FF90EF9008959B
:104660000E94EE1E82E996E00E949F2D853440F064
:1046700081E361E00E94BA1F81E361E00E94D81FDC
:1046800082E996E061E070E00E94A72D8130B1F4EC
:104690008091B8089091B908A091BA08B091BB0870
:1046A00090688093B8089093B908A093BA08B09323
:1046B000BB0881E090E060E00E94F23B87E20E944C
:1046C0002320892B09F44FC082E996E060E070E076
:1046D0000E94A72D8A3009F046C084EF95E00E9421
:1046E000C42984EF95E00E94DB2784EF95E00E94C7
:1046F0008B2980910D06482F50E080910F06481BB2
:10470000510980910C06282F30E080911006281B5B
:104710003109121613065CF48CE390E0BC01269F6D
:10472000C001279F900D369F900D11240EC037FFBA
:104730000EC08CE390E0BC01269FC001279F900D26
:10474000369F900D1124805F914F480F591F4330C1
:10475000510548F48091C7089091C80880629093F1
:10476000C8088093C70884EF95E00E94C42984EFAD
:1047700095E00E94772684EF95E00E94662684EFFC
:1047800095E00E94ED2963E070E080E090E00E94F7
:10479000A01E8091B8089091B908A091BA08B09174
:1047A000BB08A1FF5EC063E070E080E090E00E9483
:1047B000A01E86E161E00E94BA1F63E070E080E025
:1047C00090E00E94A01E86E161E00E94D81F63E095
:1047D00070E080E090E00E94A01E0E94252A63E025
:1047E00070E080E090E00E94A01E81E00E94FE291F
:1047F00063E070E080E090E00E94A01E84E00E94F0
:104800000C2A63E070E080E090E00E94A01E80E04F
:104810000E94072A63E070E080E090E00E94A01E02
:104820000E94FA2963E070E080E090E00E94A01E00
:1048300087E896E066E00E94442A63E070E080E04A
:1048400090E00E94A01E86E161E00E94BA1F86E10E
:1048500060E00E94D81F63E070E080E090E00E947A
:10486000A01E63E070E080E090E00E94A01E82E95C
:1048700096E00E94782F6093F0057093F105809385
:10488000F2059093F3058091F0059091F105A091C8
:10489000F205B091F3050E9452390E940A0C0E9461
:1048A000690CFDCFFC01148A158A168A178A108EAE
:1048B000118E128E138E148E158E168E178E10A2D8
:1048C00011A212A213A280E090E0A0E0B0E084A3C5
:1048D00095A3A6A3B7A30895109285061092070684
:1048E0000895EF92FF920F931F93DF93CF93CDB76D
:1048F000DEB7EC970FB6F894DEBF0FBECDBF8C01CC
:10490000E9EFF6E065917491B5E1EB2EF12CEC0E38
:10491000FD1EC7010E945D39EBEFF6E065917491D1
:10492000CE0101960E945D39D80156968C91843053
:1049300009F46DC0853048F4823069F1833008F0A5
:1049400048C0813009F000C10AC0863009F49BC01C
:10495000863008F47AC0873009F0F6C0B2C0EDB7EF
:10496000FEB774970FB6F894FEBF0FBEEDBF319639
:10497000075D1F4FADB7BEB712961C930E931197EC
:104980000952104084E690E093838283F582E482AA
:1049900083EF92E0B3C08DB79EB744970FB6F894FB
:1049A0009EBF0FBE8DBFEDB7FEB73196075D1F4F9F
:1049B000ADB7BEB712961C930E93119709521040D3
:1049C00084E690E093838283F582E48287EF92E02D
:1049D00095C08DB79EB744970FB6F8949EBF0FBE93
:1049E0008DBFEDB7FEB73196075D1F4FADB7BEB7B0
:1049F00012961C930E9311970952104084E690E092
:104A000093838283F582E4828BEF92E077C08DB747
:104A10009EB744970FB6F8949EBF0FBE8DBFEDB7FB
:104A2000FEB73196075D1F4FADB7BEB712961C9308
:104A30000E9311970952104084E690E0938382838D
:104A4000F582E4828FEF92E059C08DB79EB744970C
:104A50000FB6F8949EBF0FBE8DBFEDB7FEB731966F
:104A6000075D1F4FADB7BEB712961C930E931197FB
:104A70000952104084E690E093838283F582E482B9
:104A800083E093E03BC08DB79EB744970FB6F89490
:104A90009EBF0FBE8DBFEDB7FEB73196075D1F4FAE
:104AA000ADB7BEB712961C930E93119709521040E2
:104AB00084E690E093838283F582E48287E093E04A
:104AC0001DC08DB79EB744970FB6F8949EBF0FBE1A
:104AD0008DBFEDB7FEB73196075D1F4FADB7BEB7BF
:104AE00012961C930E9311970952104084E690E0A1
:104AF00093838283F582E4828BE093E097838683BD
:104B0000D80154968C9154978087118655968C9134
:104B10005597828713865A968C915A978487158663
:104B200057968C9157978687178658968C915897E9
:104B3000808B118A59968C91828B138A0E949639A8
:104B4000EDB7FEB774961DC000D000D000D0EDB711
:104B5000FEB73196075D1F4FADB7BEB712961C93D7
:104B60000E9311970952104084E690E0938382835C
:104B7000CE010196958384830E949639EDB7FEB7E6
:104B800036960FB6F894FEBF0FBEEDBF9801275DB5
:104B90003F4FC901EC960FB6F894DEBF0FBECDBFF4
:104BA000CF91DF911F910F91FF90EF9008951F9388
:104BB000CF93DF93EC01162F8091DF06882321F439
:104BC00089ED96E00E942F3189ED96E068E670E06D
:104BD0000E94A22F89ED96E0612F0E94BC30C10F88
:104BE000D11D89ED96E068810E94BC3089ED96E088
:104BF0000E94EB30DF91CF911F910895FF920F93A8
:104C00001F93CF93DF938C01F62E8091DF068823CC
:104C100021F489ED96E00E942F3189ED96E068E657
:104C200070E00E94A22F89ED96E06F2D0E94BC30AB
:104C300089ED96E00E94EB3089ED96E068E670E041
:104C400041E050E00E942C31C0E0D0E089ED96E0D8
:104C50000E94AC2F882329F4CA30D10511F0219687
:104C6000F5CF89ED96E00E94B22F0F0D111DF801CE
:104C7000808389ED96E00E94EB30DF91CF911F9108
:104C80000F91FF9008950F931F938C016FE00E9486
:104C9000FE25F801878583701F910F910895CF93AA
:104CA000DF93EC010E944326882319F0CE56DF4F94
:104CB0008883809103068C7F8093030684EF95E0C0
:104CC0006FE00E94D725DF91CF9108950F931F9336
:104CD0008C016EE00E94FE25F80186858D7F868717
:104CE000C8016EE00E94D7251F910F9108950F9380
:104CF0001F938C016EE00E94FE25F80186858E7F51
:104D00008687C8016EE00E94D7251F910F910895F4
:104D1000AF92BF92CF92DF92FF920F931F93CF93E8
:104D2000DF938C01F62E8091DF06882321F489ED34
:104D300096E00E942F3189ED96E068E670E00E94CF
:104D4000A22F89ED96E060E070E00E94E83089EDE6
:104D500096E00E94EB3089ED96E068E670E043E172
:104D600050E00E942C31C0E0D0E0CC24DD24AF2CF8
:104D7000BB245AE0F52E0DC189ED96E00E94AC2FC0
:104D8000882309F403C189ED96E00E94B22F282FF1
:104D9000F801EC0FFD1F8083C630D10509F482C0F5
:104DA000C730D105B8F4C230D10509F44EC0C330C4
:104DB000D10538F4209769F1C130D10509F0E4C07C
:104DC00036C0C430D10509F451C0C530D10508F052
:104DD0005BC049C0CA30D10509F49BC0CB30D105B6
:104DE00058F4C830D10509F478C090E02F70C9306C
:104DF000D10508F081C064C0CC30D10509F4A7C04A
:104E0000CC30D10508F494C0CD30D10509F0BCC038
:104E1000ADC090E044E0959587954A95E1F78F9D68
:104E2000C00111242F70280FF801218FADC090E030
:104E300034E0959587953A95E1F78F9DC00111244F
:104E40002F70280FF801208F9FC090E0B4E0959557
:104E50008795BA95E1F78F9DC00111242F70280F17
:104E6000F801278B91C0F801868B8EC090E0A4E0FA
:104E700095958795AA95E1F78F9DC00111242F7014
:104E8000280FF801228F80C090E0F4E09595879577
:104E9000FA95E1F78F9DC00111242F70280FF801BA
:104EA000258B72C090E0E4E095958795EA95E1F74F
:104EB0008F9DC00111242F70280FF801248B64C02E
:104EC00074E0959587957A95E1F787708F9DC0017D
:104ED0001124280FF801238F57C090E064E09595C6
:104EE00087956A95E1F787708F9DC00111242F7017
:104EF000280FF801248F48C054E0959587955A955E
:104F0000E1F783708F9DC0011124280FF801258FD0
:104F10003BC090E044E0959587954A95E1F7837012
:104F20008F9DC00111242F70280FF801268F2CC0EF
:104F300090E034E0959587953A95E1F787708F9DDD
:104F4000C00111242F70280FF801278F1DC090E099
:104F5000B4E095958795BA95E1F783708F9DC00170
:104F600011242F70280FF80120A30EC090E0A4E0B8
:104F700095958795AA95E1F783708F9DC0011124BF
:104F80002F70280FF80121A3219603C00894C11C9B
:104F9000D11CAC16BD0628F0FAE0CF16D10408F4F7
:104FA000EBCEDF91CF911F910F91FF90DF90CF90CB
:104FB000BF90AF900895AF92BF92CF92DF92EF92E1
:104FC000FF920F931F93DF93CF93CDB7DEB7C857F0
:104FD000D0400FB6F894DEBF0FBECDBF6C016AE0C3
:104FE0000E94882649E2A42EB12CAC0CBD1C84E69C
:104FF000D5011D928A95E9F7E7EDF6E06591749188
:105000008E010F5F1F4FC8010E945D39C501B801B5
:105010000E947839F60182A1823009F476C083308B
:1050200030F4882371F0813009F03CC11AC084301B
:1050300009F4F2C0843008F4AEC0853009F032C102
:1050400027C1E9EDF6E065917491C8010E945D39D0
:10505000C501B8010E947839E7EEF6E065917491D8
:105060000FC0EBEDF6E065917491C8010E945D39C7
:10507000C501B8010E947839E7EEF6E065917491B8
:105080008E01075D1F4FC8010E945D398DB79EB725
:105090000E970FB6F8949EBF0FBE8DBFEDB7FEB74B
:1050A000319631E5E32EF12CEC0EFD1EADB7BEB707
:1050B0001296FC92EE92119788E290E0938382839D
:1050C00015830483D6015E968C915E978683178242
:1050D0005D968C915D97808711865C968C915C972C
:1050E000828713865B968C91848715860E949639F9
:1050F000EDB7FEB73E960FB6F894FEBF0FBEEDBFFC
:10510000C501B7010E947839F3C0EDEDF6E0659175
:105110007491C8010E945D39C501B8010E947839B7
:10512000E9EEF6E0659174918E01075D1F4FC801AD
:105130000E945D398DB79EB70C970FB6F8949EBF4D
:105140000FBE8DBFEDB7FEB7319621E5E22EF12CF3
:10515000EC0EFD1EADB7BEB71296FC92EE92119703
:1051600088E290E09383828315830483D6015D9661
:105170008C915D97868317825C968C915C97808773
:1051800011865B968C91828713860E949639EDB7C3
:10519000FEB73C96B0CFEFEDF6E065917491C80193
:1051A0000E945D39C501B8010E947839EBEEF6E046
:1051B000659174918E01075D1F4FC8010E945D3992
:1051C0008DB79EB70A970FB6F8949EBF0FBE8DBFDE
:1051D000EDB7FEB7319691E5E92EF12CEC0EFD1EF0
:1051E000ADB7BEB71296FC92EE92119788E290E0AE
:1051F0009383828315830483D6015C968C915C979C
:10520000868317825B968C91808711860E949639DF
:10521000EDB7FEB73A966FCFE1EEF6E06591749187
:10522000C8010E945D39C501B8010E947839EDEED0
:10523000F6E0659174918E01075D1F4FC8010E94D1
:105240005D398DB79EB708970FB6F8949EBF0FBE15
:105250008DBFEDB7FEB7319681E5E82EF12CEC0E4F
:10526000FD1EADB7BEB71296FC92EE92119788E282
:1052700090E09383828315830483D6015B968C919F
:10528000868317820E949639EDB7FEB7389633CFE2
:10529000E3EEF6E065917491C8010E945D39C501A5
:1052A000B80130CFE5EEF6E0659174918E010F5FA5
:1052B0001F4FC8010E945D3900D000D000D0EDB76B
:1052C000FEB73196ADB7BEB71296BC92AE921197AB
:1052D00084E690E093838283158304830E94963949
:1052E000EDB7FEB736960FB6F894FEBF0FBEEDBF12
:1052F000C501C858DF4F0FB6F894DEBF0FBECDBF53
:10530000CF91DF911F910F91FF90EF90DF90CF90A1
:10531000BF90AF9008950F931F938C0166E00E9499
:105320008826C8010E9471241F910F9108950F9340
:105330001F93CF93DF93EC01042F68A780E361E014
:105340000E94BA1F18A5112379F0113091F480E35F
:1053500061E00E94D81F013019F482E08B8B09C0F4
:10536000002339F41B8B05C080E360E00E94D81F46
:105370001B8A6AE070E080E090E00E94A01EDF914E
:10538000CF911F910F9108950F931F938C0161E0AE
:1053900040E00E949729C8010E944F26C8010E9440
:1053A0005224C8016DE00E9488268BE261E00E94D1
:1053B000BA1F8BE260E00E94D81F1F910F910895E1
:1053C0008091DF06882341F08091F506882321F43F
:1053D0008AEF96E00E94A23408950F931F938C01E8
:1053E0000E94E029C80160E040E00E9497291F91D7
:1053F0000F9108958CB58F7B8CBD0895882319F487
:105400008CB5806202C08CB58F7D8CBD08959CB533
:10541000937F982B9CBD08959CB5282F23709C7F6B
:10542000292B2CBD9DB581709E7F982B9DBD089525
:1054300010928806109287061092890610928A06AA
:1054400010928B0610928C0608958EE161E00E9406
:10545000BA1F8FE161E00E94BA1F8DE161E00E94F6
:10546000BA1F8EE160E00E94D81F8FE160E00E94C9
:10547000D81F8DE161E00E94D81F8CB580618CBD82
:105480008CB580648CBD08951F93162F8DE161E06B
:105490000E94BA1F82E261E00E94BA1F8DE161E0C2
:1054A0000E94D81F82E261E00E94D81F8091B80854
:1054B0009091B908A091BA08B091BB08A2FF08C0AA
:1054C00088E061E00E94BA1F88E061E00E94D81F76
:1054D0008091B8089091B908A091BA08B091BB0822
:1054E00096FF08C089E061E00E94BA1F89E061E090
:1054F0000E94D81F8091B8089091B908A091BA086D
:10550000B091BB08A3FF08C082E061E00E94BA1F0F
:1055100082E061E00E94D81F8091B8089091B9089C
:10552000A091BA08B091BB08A4FF08C082E261E074
:105530000E94BA1F82E261E00E94D81F1330C9F0B6
:10554000143028F4113069F0123068F408C01530B6
:1055500041F11530D0F0163009F062C02FC08DE156
:105560002BC082E229C082E996E00E94102E8CE2D4
:1055700023C08091B8089091B908A091BA08B09161
:10558000BB08A2FF4DC088E017C08091B808909179
:10559000B908A091BA08B091BB0896FF41C089E054
:1055A0000BC08091B8089091B908A091BA08B09149
:1055B000BB08A3FF35C082E060E030C08DE161E050
:1055C0000E94D81F82E261E00E94D81F8091B80833
:1055D0009091B908A091BA08B091BB08A2FF04C08D
:1055E00088E061E00E94D81F8091B8089091B908C6
:1055F000A091BA08B091BB0896FF04C089E061E0B1
:105600000E94D81F8091B8089091B908A091BA085B
:10561000B091BB08A3FF04C082E061E00E94D81FE4
:105620001F91089510928D060895CF93DF93EC019A
:105630008091B8089091B908A091BA08B091BB08C0
:1056400082FF0BC063E070E080E090E00E94A01E4B
:105650008BE061E00E94D81F06C063E070E080E04C
:1056600090E00E94A01E89818093C5008A8180936A
:10567000C4008B818093C2008C818093CA00DF912B
:10568000CF910895DC018091C50011968C931197FC
:105690008091C40012968C931297E2ECF0E0808126
:1056A00013968C9313978091CA0014968C93149739
:1056B00080818F7D808380818F7E80838081877FC2
:1056C000808360E072EC81E090E04C910E94B42213
:1056D00087E161E00E94D81F8BE060E00E94D81F44
:1056E0000895FF920F931F938C01F62E0E94422B78
:1056F0008F2D60E00E944F22C8010E94152B1F9140
:105700000F91FF9008950F931F938C010E94422BDD
:10571000F80180810E947521C8010E94152B1F91FC
:105720000F910895EF92FF920F931F93CF93DF9302
:10573000EC01162F072F0E94422B212F302FC90179
:105740008C0188EEE82E83E0F82EE00EF11EF801C1
:105750000F5F1F4F8491882331F068810E9464217C
:105760000E151F05A1F7CE010E94152B60E070E019
:1057700080E090E0DF91CF911F910F91FF90EF902B
:105780000895CF92DF92EF92FF920F931F938C01B7
:105790000E94922BF62EE72ED82EC92EC8010E9409
:1057A000832B6F2D7E2D8D2D9C2D1F910F91FF90A2
:1057B000EF90DF90CF900895FF920F931F938C018D
:1057C000F62E0E94422B8F2DF80160810E946421E9
:1057D000C8010E94152B1F910F91FF900895EF9221
:1057E000FF920F931F938C017B010E94422BC701F4
:1057F000F80160810E949721F80180810E94752143
:10580000C8010E94152B1F910F91FF90EF900895F2
:10581000EF92FF920F931F938C017B010E94422B0A
:10582000C701F80160810E949721C8010E94152BD1
:105830001F910F91FF90EF9008957F928F929F920A
:10584000AF92BF92CF92DF92EF92FF920F931F938E
:10585000CF93DF93EC017A018B01722E0E94422BD1
:10586000C801B70120E030E040E050E00E94283558
:10587000882344F48DE268810E94642117FB10950F
:1058800017F9109520E030E040E05FE3DD240BC025
:10589000CA01B90120E030E040E251E40E942C3519
:1058A0009B01AC01D394D71498F3C801B7010E94AF
:1058B000C4344B015C010E9499356B017C012AE0E4
:1058C00030E040E050E008810E94AD21772021F0D7
:1058D0008EE268810E946421C701B6010E94C5352D
:1058E0009B01AC01C501B4010E94C33424C020E077
:1058F00030E040E251E40E9477366B017C010E9467
:1059000094354B015C01AA2497FCA094BA2CC501E4
:10591000B4012AE030E040E050E008810E94AD216F
:10592000C501B4010E94C7359B01AC01C701B60196
:105930000E94C3347A947720D1F6CE010E94152BB1
:10594000DF91CF911F910F91FF90EF90DF90CF905B
:10595000BF90AF909F908F907F9008950F931F936B
:105960008C012AE00E941D2CC8010E94832B1F91EC
:105970000F910895CF92DF92EF92FF920F931F93B2
:10598000CF93DF937C018A01D62EC72EE9010E94B6
:10599000422B209731F4802FF70160810E9464210F
:1059A00017C0CA30D10541F4B8018D2D9C2DF701E7
:1059B00040810E9489220CC09E01442737FD4095FA
:1059C000542FB8018D2D9C2DF70100810E94AD212F
:1059D000F70180810E947521C7010E94152BDF917C
:1059E000CF911F910F91FF90EF90DF90CF9008958E
:1059F000CF92DF92EF92FF920F931F93CF93DF939B
:105A00007C018A01D62EC72EE9010E94422B2097E5
:105A100031F4802FF70160810E94642117C0CA30E1
:105A2000D10541F4B8018D2D9C2DF70140810E94D4
:105A300089220CC09E01442737FD4095542FB801A0
:105A40008D2D9C2DF70100810E94AD21C7010E9480
:105A5000152BDF91CF911F910F91FF90EF90DF9069
:105A6000CF9008950F931F93CF93DF938B01BA01CB
:105A7000DA0140E050E0C22FD0E019C0F801E40F95
:105A8000F51F8081982F92959F708F709A3010F437
:105A9000905D01C0995C9C938A3010F4805D01C0D8
:105AA000895C11968C9311974F5F5F4F12964C173C
:105AB0005D0724F3CC0FDD1FC60FD71F1882DF91BF
:105AC000CF911F910F910895FB019081892F8053F1
:105AD0008A3038F4292F332727FD30952053304062
