:100000000C9422040C94572E0C94882E0C94B92E28
:100010000C94EA2E0C941B2F0C944C2F0C947D2FD7
:100020000C94AE2F0C944A040C944A040C944A0489
:100030000C949F1C0C944A040C944A040C94011BCD
:100040000C944A040C944A040C944A040C944A04F8
:100050000C944A040C944A040C944A040C94DC1A40
:100060000C944A040C94FE1D0C944A040C944A040B
:100070000C944A040C944A040C944A040C944A04C8
:100080000C944A040C944A040C944A040C944A04B8
:100090000C943F1E0C944A040C944A040C94D618F9
:1000A0000C944A040C944A040C944A040C944A0498
:1000B0000C944A040C944A040C944A040C944A0488
:1000C0000C944A040C944A040C944A040763423684
:1000D000B79BD8A71A39685618AEBAAB558C1D3CD9
:1000E000B7CC5763BD6DEDFD753EF6177231BF009D
:1000F0000000803F08000000BE922449123EABAAD7
:10010000AA2ABECDCCCC4C3E00000080BEABAAAA31
:10011000AA3E00000000BF000000803F0000000079
:1001200000084178D3BB4387D1133D190E3CC3BDB2
:100130004282AD2B3E68EC8276BED98FE1A93E4C5F
:1001400080EFFFBE01C4FF7F3F0000000000446558
:1001500076696365206E6F7420666F756E643A20F1
:10016000004E4F5420436F6E6E65637465640044A7
:100170006973636F6E6E65637465642E004C6967A6
:10018000687420696E74656E73697479206D656139
:10019000737572656D656E742070757420746F2050
:1001A000736C656570004661696C65642073756287
:1001B0007363726962696E672E004E6F7469666957
:1001C000636174696F6E2072656365697665642E1C
:1001D0000057616974696E67206576656E74732E69
:1001E0002E2E0052656164696E67206174747269B5
:1001F000627574652E2E20004C6967687420696EE4
:1002000074656E73697479206D6561737572656D5F
:10021000656E7420696E2070726F67726573732EDD
:100220002E0057726974696E672061747472696216
:100230007574652E2E200054656D7065726174753D
:100240007265206D6561737572656D656E74207081
:10025000757420746F20736C656570004661696CFD
:100260006564207375627363726962696E672E00DC
:100270004E6F74696669636174696F6E207265633D
:1002800065697665642E0057616974696E672065DB
:1002900076656E74732E2E2E0052656164696E67EA
:1002A000206174747269627574652E2E2000546525
:1002B0006D7065726174757265206D6561737572BC
:1002C000656D656E7420696E2070726F67726573FC
:1002D000732E2E0057726974696E67206174747290
:1002E00069627574652E2E2000417474726962759E
:1002F00074652056616C756520284153434949292E
:100300003A20004174747269627574652056616C9C
:1003100075653A200052656164696E672061747486
:100320007269627574652E2E200044657669636576
:1003300020666F756E642E20436F6E6E6563746900
:100340006E672E2E2E2000466972737420736361CF
:100350006E20666F722064657669636500424C4565
:100360005F3037204578616D706C6500A403AD0384
:10037000BB03E003F4030104150429049004C4043E
:10038000DC04E704F80409051C052905424C452056
:100390006D6F64756C65206E6F7420646574656341
:1003A000746564003030303030373043005363615F
:1003B0006E20706172616D733A20003125303278A1
:1003C0002530327825303278253032782530327831
:1003D000253032783B2025643B2025753B0D0A00F3
:1003E000443A2578257825782578257825783B2086
:1003F00025642C003B20496E6465783D25750D0A07
:100400000053746F70206661696C2E206572723AB9
:100410002025780A005363616E206661696C2E2086
:100420006572723A2025780A005363616E2070610C
:1004300072616D733A20474150206D6F64653D25B0
:10044000753B207363616E5F696E74657276616C73
:100450003D25753A207363616E5F77696E646F77CF
:100460003D25753B207363616E5F6475706C6963D5
:100470006174655F66696C746572696E673D257548
:100480003B205458506F7765723D25753B0D0A002F
:100490004465766963652025753B202530327825D3
:1004A0003032782530327825303278253032782550
:1004B0003032783B20525353493A25643B204E61F9
:1004C0006D653A006572726F722077726974696E39
:1004D000672E206572723A2025780A00092065632C
:1004E0003A2025780D0A0041444376616C2848453E
:1004F00058293A25780D0A0041444376616C284416
:100500004543293A25640D0A0041444356616C6D08
:100510005628444543293A25730D0A00546128445E
:100520004543293A25730D0A004174747269627556
:10053000746520257520496E646963617465642162
:100540000D0A00BA05CE05F4051B063B06530661ED
:1005500006710686069C06AD06B906C006DD06FBDA
:100560000611071F072F075207580757726F6E674C
:100570002074696D6520666F726D61742E204D75F3
:100580007374206265202264643A68683A6D6D2253
:100590000057726F6E672074696D6520666F726DAB
:1005A00061742E204D757374206265202264643A54
:1005B00068683A6D6D3A73732200416C61726D2008
:1005C0004D6F6465206D61746368657320005B44E2
:1005D0006179203A20686F757273203A206D696ED8
:1005E00075746573203A207365636F6E64735D2064
:1005F0002D3E20005B44617465203A20686F75725F
:1006000073203A206D696E75746573203A207365A6
:10061000636F6E64735D202D3E20005B486F7572C2
:1006200073203A206D696E75746573203A20736586
:10063000636F6E64735D202D3E20005B4D696E75A7
:10064000746573203A207365636F6E64735D202D4B
:100650003E20005B5365636F6E64735D202D3E200A
:10066000004F6E636520706572207365636F6E6402
:1006700000496E636F727265637420616C61726DA4
:10068000206D6F6465005B253032753A2530327518
:100690003A253032753A253032755D005B253032AF
:1006A000753A253032753A253032755D005B25305C
:1006B00032753A253032755D005B253032755D004C
:1006C0005B446179203A20686F757273203A206D1F
:1006D000696E75746573205D202D3E20005B44615A
:1006E0007465203A20686F757273203A206D696EC8
:1006F00075746573205D202D3E20005B486F757218
:1007000073203A206D696E757465735D202D3E20EF
:10071000005B4D696E757465735D202D3E20004F42
:100720006E636520706572206D696E757465002555
:10073000732C20253032752F253032752F2530321D
:10074000752C20253032753A253032753A253032F5
:1007500075006572726F7200253032752563253021
:100760003275256325303275256325303275256352
:100770002530327525632530327525632530327575
:1007800000002124272A2D3033002225282B2E314A
:100790003400202326292C2F3205050505030303E9
:1007A0000301010104040306060606060606060107
:1007B0000405010501030202020202020102020510
:1007C00005040403040401030407070701020810D9
:1007D000102040800408102040020204081020402D
:1007E0008001028020400420010102040810200141
:1007F00040804080010208040880041004020100C7
:1008000000080900000000000000000000000000D7
:1008100000000000000000000000000000000000D8
:1008200000000000000000000000000000000000C8
:100830000000550F882134272E28BA2AC62CDF2F16
:100840004831B23111241FBECFEFD1E2DEBFCDBFA0
:1008500013E0A0E0B2E0EAE6F3E702C005900D92F3
:10086000A03DB107D9F71CE0A0EDB3E001C01D9297
:10087000A936B107E1F718E0C4E4D8E004C0229734
:10088000FE010E94FE35C233D107C9F70E944C20F9
:100890000C94B3390C940000EF92FF920F93DF9306
:1008A000CF93CDB7DEB760970FB6F894DEBF0FBE1B
:1008B000CDBFA82F002309F461C07E010894E11C7C
:1008C000F11C88E0F70111928A95E9F729833A83B0
:1008D0004B835C836D837E83AF83988780E2801B2C
:1008E000E82FFF27E7FDF09549815A816B817C81D4
:1008F000181684F019861A861B861C868827992765
:100900008E1B9F0B04C0440F551F661F771F8A95CF
:10091000D2F728C0202F332727FD3095DB01CA01ED
:10092000022E04C0880F991FAA1FBB1F0A94D2F77A
:1009300089879A87AB87BC8704C07695679557955A
:100940004795EA95D2F78D819E81AF81B88504C025
:10095000880F991FAA1FBB1F2A95D2F7482B592B26
:100960006A2B7B2B4D875E876F87788B29853A852D
:100970004B855C856D857E85AF8598898A2F6096CD
:100980000FB6F894DEBF0FBECDBFCF91DF910F91B0
:10099000FF90EF900895AEE5B0E0E1EDF4E00C9447
:1009A000C535A8E04E010894811C911CF4016A2E03
:1009B00011926A94E9F729833A834B835C836D83B0
:1009C0007E838F839887CE010996FC011192AA95A8
:1009D000E9F7A986BA86CB86DC86ED86FE860F8788
:1009E000188B29843A844B845C84ED84FE840F85C3
:1009F000188969807A808B809C806DA67EA68FA6E0
:100A000098AA6D807E808F809884E114F10401059E
:100A1000110509F0B3C3621473048404950408F04B
:100A20003DC100E0201600E0300601E0400600E095
:100A3000500688F41FEF211631044104510439F0A7
:100A400030F048E0E42EF12C012D112D18C0EE24D9
:100A5000FF24870114C020E0221620E0320620E0A7
:100A6000420621E0520630F038E1E32EF12C012D50
:100A7000112D05C020E1E22EF12C012D112DD20106
:100A8000C1010E2C04C0B695A795979587950A9439
:100A9000D2F785549D4FDC012C9180E290E0A0E0DC
:100AA000B0E08E199F09A00BB10B7C018D01E21AF9
:100AB000F10801091109E114F10401051105A1F181
:100AC0000E2C04C0220C331C441C551C0A94D2F773
:100AD000A40193010E2C04C0220F331F441F551F85
:100AE0000A94D2F780E290E08E199F096DA47EA44B
:100AF0008FA498A804C096948794779467948A9555
:100B0000D2F7622A732A842A952AADA4BEA4CFA460
:100B1000D8A804C0AA0CBB1CCC1CDD1CEA94D2F7DC
:100B2000ADA6BEA6CFA6D8AA6201EE24FF24CDAA08
:100B3000DEAAEFAAF8AE920181012070307009AFF1
:100B40001AAF2BAF3CAFC401B301A70196010E94BD
:100B500088357B018C01C401B3012DA93EA94FA9A1
:100B600058AD0E948835C901DA013C014D01C4012C
:100B7000B30129AD3AAD4BAD5CAD0E9442359B014E
:100B8000AC018701FF24EE24ADA4BEA4CFA4D8A855
:100B9000C601AA27BB2757016801A82AB92ACA2A71
:100BA000DB2AA216B306C406D506E0F40894610851
:100BB000710881089108A20CB31CC41CD51CA21496
:100BC000B304C404D50470F0A216B306C406D50657
:100BD00048F408946108710881089108A20CB31CBC
:100BE000C41CD51CA21AB30AC40AD50AC601B50191
:100BF0002DA93EA94FA958AD0E9488357B018C01D3
:100C0000C601B5012DA93EA94FA958AD0E9488354E
:100C1000C901DA015C016D01C601B50129AD3AAD2A
:100C20004BAD5CAD0E9442359B01AC018701FF24B6
:100C3000EE248DA59EA5AFA5B8A9A070B070E82A36
:100C4000F92A0A2B1B2BE216F30604071507C0F43A
:100C50000894A108B108C108D108E20CF31C041DD6
:100C6000151DE214F3040405150550F0E216F30611
:100C70000407150728F40894A108B108C108D10891
:100C8000D3019927882786017501E82AF92A0A2BBA
:100C90001B2BE9AAFAAA0BAB1CABCFC4211431045D
:100CA0004104510471F461E070E080E090E020E0E4
:100CB00030E040E050E00E948835C901DA011C01B3
:100CC0002D0100E0201600E0300601E0400600E0C3
:100CD000500688F41FEF211631044104510431F00D
:100CE00028F048E050E060E070E017C040E050E0DD
:100CF00060E070E012C020E0221620E0320620E022
:100D0000420621E0520628F048E150E060E070E041
:100D100004C040E150E060E070E0D201C101042E67
:100D200004C0B695A795979587950A94D2F78554F0
:100D30009D4FDC012C91E0E2EE2EF12C012D112DC6
:100D4000D801C701841B950BA60BB70B821B910919
:100D5000A109B1090097A105B10561F4640153012E
:100D6000A218B308C408D50831E0632E712C812C79
:100D7000912C1EC16F968FAF6F97082E04C0220C66
:100D8000331C441C551C0A94D2F7EE2DE81B640159
:100D900053010E2E04C0D694C794B794A7940A9416
:100DA000D2F7A40193016F960FAC6F9704C0220F86
:100DB000331F441F551F0A94D2F76DA47EA48FA43D
:100DC00098A80E2E04C096948794779467940A94FA
:100DD000D2F784017301E22AF32A042B152BE9A62A
:100DE000FAA60BA71CA7320188249924920181013D
:100DF0002070307021960CAF1DAF2EAF3FAF219702
:100E0000C601B501A40193010E9488357B018C01C4
:100E1000C601B501A40193010E948835C901DA0118
:100E200025968CAF9DAFAEAFBFAF2597BC01CD016E
:100E300021962CAD3DAD4EAD5FAD21970E94423560
:100E40009B01AC018701FF24EE24A9A4BAA4CBA482
:100E5000DCA4C601AA27BB275C016D01AE28BF2810
:100E6000C02AD12AA216B306C406D50660F5259677
:100E70006CAD7DAD8EAD9FAD2597615070408040CB
:100E8000904025966CAF7DAF8EAF9FAF2597A20C9B
:100E9000B31CC41CD51CA214B304C404D50498F01C
:100EA000A216B306C406D50670F4615070408040A7
:100EB000904025966CAF7DAF8EAF9FAF2597A20C6B
:100EC000B31CC41CD51CA21AB30AC40AD50AC60195
:100ED000B501A40193010E9488357B018C01C601F4
:100EE000B501A40193010E948835C901DA013C01D2
:100EF0004D01C401B30121962CAD3DAD4EAD5FADAA
:100F000021970E9442359B01AC018701FF24EE240A
:100F100089A59AA5ABA5BCA5A070B07057016801C2
:100F2000A82AB92ACA2ADB2AA216B306C406D506FD
:100F3000E0F408946108710881089108A20CB31CC0
:100F4000C41CD51CA214B304C404D50470F0A216AA
:100F5000B306C406D50648F40894610871088108F0
:100F60009108A20CB31CC41CD51C8DA59EA5AFA5D1
:100F7000B8A96F960FAC6F9704C0880F991FAA1F6E
:100F8000BB1F0A94D2F78DA79EA7AFA7B8ABA21A32
:100F9000B30AC40AD50A2596ECACFDAC0EAD1FAD64
:100FA0002597D70199278827682A792A8A2A9B2A90
:100FB00082012227332729960CAF1DAF2EAF3FAFFA
:100FC0002997A2019101407050702D962CAF3DAF32
:100FD0004EAF5FAF2D97C601B50129962CAD3DAD43
:100FE0004EAD5FAD29970E9488357B018C01C6010B
:100FF000B50129962CAD3DAD4EAD5FAD29970E9450
:101000008835C901DA0161968CAF9DAFAEAFBFAF35
:101010006197BC01CD012D962CAD3DAD4EAD5FADC0
:101020002D970E9442359B01AC018701FF24EE24DD
:10103000ADA4BEA4CFA4D8A8C601AA27BB27570138
:101040006801A82AB92ACA2ADB2AA216B306C4064E
:10105000D50660F561966CAD7DAD8EAD9FAD6197A7
:10106000615070408040904061966CAF7DAF8EAF14
:101070009FAF6197A20CB31CC41CD51CA214B3046F
:10108000C404D50498F0A216B306C406D50670F4BD
:10109000615070408040904061966CAF7DAF8EAFE4
:1010A0009FAF6197A20CB31CC41CD51CA21AB30A33
:1010B000C40AD50AC601B50129962CAD3DAD4EAD89
:1010C0005FAD29970E9488357B018C01C601B5016F
:1010D00029962CAD3DAD4EAD5FAD29970E94883568
:1010E000C901DA015C016D01C601B5012D962CAD77
:1010F0003DAD4EAD5FAD2D970E9442359B01AC01D9
:101100008701FF24EE248DA59EA5AFA5B8A9A070E8
:10111000B070E82AF92A0A2B1B2BE216F306040703
:101120001507C0F40894A108B108C108D108E20C61
:10113000F31C041D151DE214F3040405150550F0FD
:10114000E216F3060407150728F40894A108B1086D
:10115000C108D1086196ECACFDAC0EAD1FAD619736
:10116000D7019927882796018501082B192B2A2B4F
:101170003B2B09AB1AAB2BAB3CAB62C26E147F04AA
:101180008006910608F451C220E0E21620E0F20643
:1011900021E0020720E0120788F43FEFE316F10494
:1011A0000105110531F028F048E050E060E070E002
:1011B00017C040E050E060E070E012C040E0E4168C
:1011C00040E0F40640E0040741E0140728F048E15D
:1011D00050E060E070E004C040E150E060E070E0AA
:1011E000D801C701042E04C0B695A7959795879599
:1011F0000A94D2F785549D4FDC012C9130E2A32E46
:10120000B12CC12CD12CD601C501841B950BA60B8A
:10121000B70B821B9109A109B1090097A105B1057E
:1012200089F4E614F7040805190508F4F2C16DA461
:101230007EA48FA498A8621473048404950408F013
:10124000E8C1F3C16E968FAF6E97082E04C0EE0C06
:10125000FF1C001F111F0A94D2F76A2D681BD201D0
:10126000C101062E04C0B695A795979587950A9457
:10127000D2F75C016D01AE28BF28C02AD12AADA2E9
:10128000BEA2CFA2D8A6720161016E960FAC6E9776
:1012900004C0CC0CDD1CEE1CFF1C0A94D2F7C9A2C2
:1012A000DAA2EBA2FCA264015301062E04C0D6947C
:1012B000C794B794A7940A94D2F7D401C3016E9649
:1012C0000FAC6E9704C0880F991FAA1FBB1F0A940A
:1012D000D2F7EDA4FEA40FA518A904C01695079592
:1012E000F794E7946A95D2F737014801682A792A7A
:1012F0008A2A9B2A6D8E7E8E8F8E98A2EDA0FEA0EC
:101300000FA118A53801882499249801870120701D
:10131000307065960CAF1DAF2EAF3FAF6597C6011D
:10132000B501A40193010E9488357B018C01C6019F
:10133000B501A40193010E948835C901DA011C019D
:101340002D01C201B10165962CAD3DAD4EAD5FAD35
:1013500065970E9442359B01AC018701FF24EE2472
:10136000AD8CBE8CCF8CD8A0C601AA27BB27570155
:101370006801A82AB92ACA2ADB2AA216B306C4061B
:10138000D50600F508942108310841085108EDA060
:10139000FEA00FA118A5AE0CBF1CC01ED11EAE141E
:1013A000BF04C006D10670F0A216B306C406D50667
:1013B00048F408942108310841085108AE0CBF1CBC
:1013C000C01ED11EA21AB30AC40AD50AC601B501AD
:1013D000A40193010E9488357B018C01C601B501EF
:1013E000A40193010E948835C901DA013C014D0135
:1013F000C401B30165962CAD3DAD4EAD5FAD6597B3
:101400000E9442359B01AC018701FF24EE248D8DA3
:101410009E8DAF8DB8A1A070B07057016801A82A49
:10142000B92ACA2ADB2AA216B306C406D50600F5D5
:10143000089461087108810891086DA17EA18FA1AF
:1014400098A5A60EB71EC81ED91EA616B706C806B2
:10145000D90670F0A216B306C406D50648F408945F
:101460006108710881089108A60EB71EC81ED91E12
:10147000D601C501821B930BA40BB50B898F9A8FE4
:10148000AB8FBC8FD1019927882764015301A82A0B
:10149000B92ACA2ADB2AA9AABAAACBAADCAA860137
:1014A00075012FEF3FEF40E050E0E222F3220423EA
:1014B0001523A601662777276D964CAF5DAF6EAFFB
:1014C0007FAF6D97A9A0BAA0CBA0DCA06FEF7FEF94
:1014D00080E090E0A622B722C822D92289A19AA151
:1014E000ABA1BCA11D0144245524C801B701A6012C
:1014F00095010E94423569966CAF7DAF8EAF9FAF6C
:101500006997C801B701A20191010E9442353B01D0
:101510004C016D966CAD7DAD8EAD9FAD6D97A60106
:1015200095010E9442357B018C016D966CAD7DADBD
:101530008EAD9FAD6D97A20191010E9442355B0176
:101540006C01A8019701260D371D481D591D69968C
:101550006CAC7DAC8EAC9FAC6997C401AA27BB274D
:10156000280F391F4A1F5B1F2E153F0540075107E3
:1015700048F4E12CF12C61E0062F112DAE0CBF1CBC
:10158000C01ED11ECA01AA27BB27BC01CD016A0D0E
:101590007B1D8C1D9D1D698C7A8C8B8C9C8C66169A
:1015A00077068806990640F166157705880599053E
:1015B00009F043C0D9019927882769962CAD3DAD24
:1015C0004EAD5FAD699740705070820F931FA41F9E
:1015D000B51F2DA53EA54FA558A96E960FAC6E97C9
:1015E00004C0220F331F441F551F0A94D2F7281737
:1015F00039074A075B0708F509A91AA92BA93CA9CD
:10160000015010402040304009AB1AAB2BAB3CAB33
:1016100014C066247724430121E030E040E050E02C
:1016200029AB3AAB4BAB5CAB0BC0662477244301D0
:1016300019AA1AAA1BAA1CAA03C06624772443016C
:10164000FE01719688E0DF011D928A95E9F7A9A84D
:10165000BAA8CBA8DCA8A98ABA8ACB8ADC8A6D8A08
:101660007E8A8F8A988E29A93A894B895C89662D52
:101670007E898F89988DC25ADF4FE2E10C94E13563
:1016800084E296E06DE573E00E94DD2884ED93E04E
:1016900060E00E9416160895AF92BF92CF92DF923B
:1016A000EF92FF920F931F935C01BC01672F772786
:1016B00062956F7080E090E00E94C8329B01AC019F
:1016C00060E070E080E090E40E94DD337B018C01FB
:1016D0008FEF9FE0A822B922CC24DD24C601B501FA
:1016E0000E94C8325B016C01C801B7012AE037EDE6
:1016F00043E25CE30E947A339B01AC01C601B50171
:101700000E947A331F910F91FF90EF90DF90CF905E
:10171000BF90AF9008956F927F928F929F92AF92F9
:10172000BF92CF92DF92EF92FF920F931F93DF93BE
:10173000CF9300D000D0CDB7DEB784E296E067E467
:1017400073E00E94DD2884E296E060E072E00E948F
:10175000242984E296E06FEB73E00E940B2984ED6C
:1017600093E06FEB73E00E94B417019709F07AC21F
:1017700084E296E06AE273E00E94DD2884ED93E063
:101780006FEB73E00E9435158093D003813009F030
:1017900064C284E296E062E172E00E9424294091F2
:1017A000890450E060E070E084E296E02AE030E0F6
:1017B0000E94D62984E296E061E372E00E94242927
:1017C00084ED93E0609189040E94F113482F55271E
:1017D00047FD5095652F752F84E296E02AE030E0B2
:1017E0000E94D62984E296E065E173E00E94DD283C
:1017F00084ED93E06091890443E050E00E944D1332
:1018000084E296E063E073E00E94AE2800E00AC044
:10181000E02FF0E0E557FB4F84E296E060810E9404
:101820008D280F5F80918A04081790F384E296E078
:101830000E949F2884E296E069EE72E00E94AE2842
:1018400000E00AC0E02FF0E0E557FB4F84E296E0AD
:1018500060810E94F8280F5F80918A04081790F336
:1018600084E296E00E949F2884E296E00E949F28EE
:1018700068EB7BE080E090E00E94BC1B81E08093FD
:10188000CD0384E296E064ED72E00E94DD2884EDF1
:1018900093E06091890444E250E02DEC33E001E0F4
:1018A0000E94D812892B31F484E296E06EEA72E04D
:1018B0000E94DD2881E089831A8284ED93E06091A3
:1018C000890442E250E09E012F5F3F4F02E00E94F8
:1018D000D8129093D2038093D103892B09F09CC036
:1018E00084E296E069E972E00E94DD2884ED93E0ED
:1018F0006091890441E250E00E944D131092D3039D
:1019000061C084E296E060E772E00E94DD2870909A
:10191000D1046624E090D004FF24E628F72884E26E
:1019200096E067E372E00E94242900E010E084E280
:1019300096E0B801A7012AE030E00E94142A84E270
:1019400096E06FE472E00E940B299090D504882401
:101950006091D40470E06829792976956795769529
:101960006795882777FD8095982F0E94CA3220E0DE
:1019700030E040E05DE30E947A337B018C0184E239
:1019800096E06EE572E00E94242984E296E0A701C9
:10199000B8010E94CA2984E296E00E949F288091A3
:1019A000D3038F5F8093D3031092D2031092D1039D
:1019B00002C00F97D9F10E94261B6A157B058C0582
:1019C0009D0520F40E94261B5B016C018091D303CE
:1019D000853060F50E94261B6A197B098C099D09D8
:1019E000605375478040904008F584E296E067E8D0
:1019F00072E00E94DD2884ED93E048E853E160E066
:101A000070E00E94C90F90E09093D2038093D103BD
:101A10008531910571F675CF84E296E06CE572E050
:101A20000E94DD2884E296E00E949F281092CD0358
:101A300084ED93E06091890444E250E02DEC33E0C2
:101A400001E00E94D812892B51F084E296E067E30E
:101A500072E00E94DD2884E296E00E949F2868EEF2
:101A600073E080E090E00E94BC1B1092D2031092C1
:101A7000D10381E08093CD0384E296E062E272E0DC
:101A80000E94DD2884ED93E06091890444E450E0F5
:101A90002DEC33E001E00E94D812892B31F484E26E
:101AA00096E068EF71E00E94DD2881E08B831C8264
:101AB00084ED93E06091890442E450E09E012D5F43
:101AC0003F4F02E00E94D8129093D2038093D1033B
:101AD000892B09F08EC084E296E063EE71E00E94EB
:101AE000DD2884ED93E06091890441E450E00E9498
:101AF0004D131092D30353C084E296E06AEB71E079
:101B00000E94DD287090D1046624E090D004FF2468
:101B1000E628F72884E296E067E372E00E94242931
:101B200000E010E084E296E0B801A7012AE030E08E
:101B30000E94142A84E296E06FE472E00E940B296E
:101B40009090D50488248091D40490E08829992924
:101B50000E944C0B7B018C0184E296E064E772E00A
:101B60000E94242984E296E0B801A7010E94CA29B4
:101B700084E296E00E949F288091D3038F5F809338
:101B8000D3031092D2031092D10302C00F97D9F160
:101B90000E94261B6A157B058C059D0520F40E947A
:101BA000261B5B016C018091D303853060F50E9498
:101BB000261B6A197B098C099D0960537547804073
:101BC000904008F584E296E061ED71E00E94DD2826
:101BD00084ED93E048E853E160E070E00E94C90FB3
:101BE00090E09093D2038093D1038531910571F6F3
:101BF00083CF84E296E066EA71E00E94DD2884E209
:101C000096E00E949F281092CD0384ED93E06091AE
:101C1000890444E450E02DEC33E001E00E94D81246
:101C2000892B51F084E296E06DE771E00E94DD2897
:101C300084E296E00E949F2868EE73E080E090E0E6
:101C40000E94BC1B84ED93E0609189040E942814DB
:101C500084E296E06FE671E009C084E296E061E616
:101C600071E004C084E296E06EE471E00E94DD2839
:101C700084E296E00E949F2868E873E180E090E0AB
:101C80000E94BC1B0F900F900F900F90CF91DF918F
:101C90001F910F91FF90EF90DF90CF90BF90AF908A
:101CA0009F908F907F906F900895FC01E950FF4FB7
:101CB0008081E75FF040882309F4C4C0E750FF4FFC
:101CC0008081E95FF040882309F5E650FF4F80816D
:101CD0008230A1F0833030F4882371F0813009F034
:101CE000B1C008C0843071F0843050F0853009F004
:101CF000A9C00AC082E0089581E0089583E00895B4
:101D000084E0089585E0089586E00895813041F4E7
:101D1000E650FF4F8081882309F094C087E0089542
:101D2000823089F4E650FF4F8081813031F081307C
:101D300030F0823009F086C004C089E0089588E060
:101D400008958AE008958330E9F4E650FF4F8081DA
:101D5000823091F0833030F4882361F0813009F0D3
:101D600071C006C0833051F0843009F06BC008C0E8
:101D70008CE008958BE008958DE008958EE008953D
:101D80008FE00895843011F5E650FF4F8081833055
:101D9000A9F0843028F4813059F0823068F40AC008
:101DA000853081F0853060F0863009F04BC00CC082
:101DB00081E1089580E1089582E1089583E1089525
:101DC00084E1089585E1089586E108958530D9F488
:101DD000E650FF4F8081823081F0833028F48823E1
:101DE00051F0813079F505C0833049F0843051F5E8
:101DF00008C088E1089587E1089589E108958AE19E
:101E000008958BE10895863059F4E650FF4F8081A4
:101E1000882321F08130B1F48DE108958CE108959B
:101E2000873081F4E650FF4F8081813029F0813086
:101E300028F0823039F404C08FE108958EE10895CE
:101E400080E2089580E00895CF93DF93FC0180E065
:101E500092ECA1E0B0E080839183A283B383E0554C
:101E6000FF4F11821082E05BF040CF018A5B9F4FF1
:101E7000DC0186E0ED0119928A95E9F7EB5AFF4FF4
:101E80008FE08083399782E08193119211928BE4E5
:101E9000819382E3819311921082389680E094E0DE
:101EA00091838083DF91CF91089584ED93E00E9428
:101EB000240F0895CF93DF93EC018D599F4FFC01C0
:101EC0008FE1DF011D928A95E9F7CE57DF4F288118
:101ED000C258D04081E056C0FE01E80FF11DEE5718
:101EE000FF4F90818F5FFE01E80FF11DEE57FF4F0E
:101EF000E081482F4F5FE930F1F4E92F903208F08C
:101F0000EFE190E02E2F30E0215030400CC0AC0FBC
:101F1000BD1FAD59BF4FFE01E80FF11DEE57FF4F3A
:101F200080818C939F5F892F840FA92FB0E0A21727
:101F3000B3076CF325C0E830F9F4E92F903208F0CC
:101F4000EFE190E02E2F30E0215030400CC0AC0F7C
:101F5000BD1FAD59BF4FFE01E80FF11DEE57FF4FFA
:101F600080818C939F5F892F840FA92FB0E0A217E7
:101F7000B3076CF382E00AC0892F840F815002C03E
:101F800081E004C0821708F4A7CF80E0DF91CF91F1
:101F900008958F929F92AF92BF92CF92DF92EF926D
:101FA000FF920F931F93CF93DF93EC014A015B01E4
:101FB0008C0109501F4F81E4D8011D928A95E9F7E1
:101FC00062C08C810E948B1D04970CF455C08C81DB
:101FD0000E94AF1DF8018083803809F04DC08C81CC
:101FE0000E94AF1D8E0108501F4FD8018C938C8129
:101FF0000E94AF1DC750DF4F8883C95FD0408C81DE
:102000000E94AF1DC650DF4F8883CA5FD0400E9438
:10201000261B6B017C018C810E948B1DF8012081A5
:1020200030E0821793070CF04EC00E94261B6C19FB
:102030007D098E099F09681579058A059B0508F0B9
:1020400042C00E94261B6C157D058E059F0518F762
:10205000DECF8C810E94AF1DD7018D937D010F5F74
:102060001F4F02341105F9F0F601808190E00396CC
:102070008017910774F717C00E94261B6C157D0509
:102080008E059F0520F40E94261B6B017C010E9497
:10209000261B6C197D098E099F09681579058A052B
:1020A0009B0508F48ECFCE010E94550EDF91CF9193
:1020B0001F910F91FF90EF90DF90CF90BF90AF9066
:1020C0009F908F9008959BEFE92EF12CEC0EFD1E52
:1020D00004E010E088EFC82ED12CCC0EDD1EC4CF5A
:1020E000BF92CF92DF92EF92FF920F931F93CF9305
:1020F000DF93EC01C62EB42E0596FC0181E4DF01CE
:102100001D928A95E9F70E94261B7B018C01DD2434
:1021100018C08C810E94AF1DFE01ED0DF11D85835D
:10212000D394DC1438F5B0E4BD1520F10E94261BD1
:102130006E157F058007910720F40E94261B7B0106
:102140008C01DC1428F08C810E948B1D892B91F06E
:102150000E94261B6E197F09800B910B643171055B
:102160008105910538F48C810E948B1D1816190683
:1021700084F2DCCFDE01A055BF4F81E0B81661F4D8
:10218000FE01ED0DF11D948180E0238130E0822B72
:10219000932B8D939C9302C01D921C92DD2041F4E1
:1021A000C055DF4F8FEF9FEF99838883C05BD0408E
:1021B000FE01E055FF4F80819181DF91CF911F910A
:1021C0000F91FF90EF90DF90CF90BF900895CF9345
:1021D000DF93EC018C818823A1F489E296E00E94D0
:1021E000022B688179818A819B814C810E94D01F5A
:1021F0008C810E94EA1D8FE261E00E94D61C8FE272
:1022000015C08130B1F489E296E00E94132B6881F9
:1022100079818A819B814C810E94D01F8C810E9490
:10222000EA1D84E061E00E94D61C84E061E00E9427
:10223000F41C8C81882351F480914F0890915008B0
:10224000A0915108B091520884600BC0813089F48C
:1022500080914F0890915008A0915108B091520878
:10226000886080934F0890935008A0935108B093D2
:102270005208CE0148EE53E060E070E00E94C90FC2
:102280008E3109F481E0DF91CF910895AF92BF9232
:10229000CF92DF92EF92FF920F931F93CF93DF9332
:1022A0007C015AE5C52ED12CC80ED91EF6018081BD
:1022B00091818F51974019F420E030E053C087019D
:1022C000045A1F4FE60142E6A42EB12CAE0CBF1CEF
:1022D0006881798189E296E0F80141918F010E943D
:1022E000C72A688179816F5F7F4F798368830A1578
:1022F0001B0571F789E296E0F80140810E94C72A28
:10230000F6018081918101969183808387010D5927
:102310001F4FE701C65ADF4F82E890E0E80EF91E32
:102320006881798189E296E0F80141918F010E94EC
:10233000C72A688179816F5F7F4F798368830E1523
:102340001F0571F789E296E040EF0E94C72A688175
:1023500079816F5F7F4F89E296E040EF0E94C72A44
:1023600021E030E0C901DF91CF911F910F91FF90E3
:10237000EF90DF90CF90BF90AF900895DF92EF92F3
:10238000FF920F931F93CF93DF93EC01C950DF4F60
:102390008881C75FD040803839F0C750DF4F8881CF
:1023A000C95FD040863041F47CE5E72EF12CEC0E7D
:1023B000FD1ED70195E009C0C650DF4F8881CA5F76
:1023C000D040882389F380E068C0FE01E90FF11D49
:1023D000E350FF4F80818D939150B8F7FE01EE5985
:1023E000FF4FC550DF4F888180832A962881C550D2
:1023F000D140203208F02FE1CE018E579F4FFC01D3
:1024000081E2DF011D928A95E9F730E0422F50E02A
:102410000AC0FE01E80FF91FEB5FFE4F8081E35811
:10242000F04080833F5F832F90E0481759078CF777
:10243000613029F4CE010E945A0FD82E0BC09E01A4
:102440002D593F4FC90160E270E04FE150E00E941A
:102450007436DD248E010A5B1F4FC701B80146E0C8
:1024600050E00E9467360097B9F0FE01EE54FF4F2E
:1024700080819181019691838083D801F70186E064
:1024800001900D928150E1F7CE016D2D0E94461111
:10249000892B11F482E001C081E0DF91CF911F917F
:1024A0000F91FF90EF90DF9008956F927F929F922F
:1024B000AF92BF92CF92DF92EF92FF920F931F9352
:1024C000DF93CF93CDB7DEB75C01F62EE42ED22E8C
:1024D000C02E912E6DB67EB68CE3861718F421E0DF
:1024E00030E052C0262F30E02B5F3F4FEDB7FEB7F4
:1024F000E21BF30B0FB6F894FEBF0FBEEDBF0DB796
:102500001EB70F5F1F4FC80160E070E0A9010E9475
:102510007436F4E0FF0EF801F082FCEFFF0EF801D4
:102520001182F282E382D482FF2021F4F5E0EF2EC3
:10253000F12C15C0D8018C2D992D9C01F9018191A8
:1025400015968C93159711968E2F8C198F15B8F3BD
:10255000FA94EF2CFF2486E090E0E80EF91EF501D6
:1025600084810E94EA1DDD2408C0E00FF11F8081F4
:10257000F50164810E94801ED394ED2DF0E0EE15EC
:10258000FF0598F320E030E0C9010FB6F8947EBE55
:102590000FBE6DBECF91DF911F910F91FF90EF9015
:1025A000DF90CF90BF90AF909F907F906F900895F5
:1025B000CF92DF92EF92FF920F931F93DF93CF930F
:1025C000CDB7DEB77C01702FCDB6DEB6802F90E0A0
:1025D0000496ADB7BEB7A81BB90B0FB6F894BEBF33
:1025E0000FBEADBF0DB71EB70F5F1F4F11966C9397
:1025F000F801418352837383D80140E050E009C061
:10260000F901E40FF51F808113968C9313974F5FA8
:102610005F4F11964717A0F37C5FC701672F44E017
:1026200025E00E945512C70167E041E00E9470104A
:10263000892B01F5C70148EE53E060E070E00E948D
:10264000C90F813111F090E01AC0F701E055FF4F3A
:102650004DEF50E0E40EF51ED7019C9180E02E91E5
:102660007D0144E05FEFE40EF51E30E0822B932BFA
:1026700091838083F701E055FF4F808191810FB6F0
:10268000F894DEBE0FBECDBECF91DF911F910F91AA
:10269000FF90EF90DF90CF9008959F92AF92BF92FE
:1026A000CF92DF92EF92FF920F931F93DF93CF931E
:1026B00000D00F92CDB7DEB77C01962E6A01A6EB53
:1026C000AA2EB12CA80EB91E81E4D5011D928A95BF
:1026D000E9F769834A83DB82C70163E044E024E0D1
:1026E0008E010F5F1F4F0E945512C70167E041E046
:1026F0000E947010E0EBF0E0EE0EFF1ED7010D918E
:102700001C91E0E5FFEFEE0EFF1E0115110509F02B
:1027100058C0C70140ED57E060E070E00E94C90F6B
:10272000882319F401E010E04CC0853119F0082F1E
:1027300010E047C02DEF30E0E20EF31ED7014C91C0
:10274000F7012291DF018E917D01E5E0FFEFEE0EB2
:10275000FF1E8915B1F5942F80E030E0822B932B7A
:102760008C159D0571F52FEF30E0E20EF31ED701B9
:102770008C91E1E0FFEFEE0EFF1E873110F086E155
:1027800002C0882321F020E0482F50E015C081E0EE
:10279000D5018C93E7EBF0E0EE0EFF1E80E3D7014E
:1027A0008C930FC0F701E80FF91FE150FF4F8081B4
:1027B000E954F04080832F5F822F90E0481759073B
:1027C0008CF7C8010F900F900F90CF91DF911F9160
:1027D0000F91FF90EF90DF90CF90BF90AF909F90C0
:1027E0000895EF92FF920F931F93DF93CF930F9271
:1027F000CDB7DEB77C01698361E043E021E08E0163
:102800000F5F1F4F0E945512C70166E040E00E9413
:102810007010F70191858981981789F420EB30E0D9
:10282000E20EF31EF7018081918120E53FEFE20E79
:10283000F31E8F5F9F4F19F0F701828501C080E082
:102840000F90CF91DF911F910F91FF90EF9008951E
:10285000EF92FF920F931F93DF93CF930F92CDB719
:10286000DEB77C01698361E043E020E08E010F5F09
:102870001F4F0E945512C70167E041E00E9470108F
:1028800025EB30E0E20EF31EF70190812BE43FEFE1
:10289000E20EF31EF7018185981719F021E030E070
:1028A0002CC0F701938580E0228530E0282B392B5E
:1028B00080EB90E0E80EF91EF7013183208380E57C
:1028C0009FEFE80EF91E21153105B9F4C70140E16B
:1028D00057E260E070E00E94C90F8F3061F4EDEFC5
:1028E000F0E0EE0EFF1EF701908180E0229130E0D3
:1028F000282B392B02C0282F30E0C9010F90CF912F
:10290000DF911F910F91FF90EF9008958F929F920A
:10291000AF92BF92CF92DF92EF92FF920F931F93ED
:10292000DF93CF93CDB7DEB765970FB6F894DEBFD0
:102930000FBECDBF5C014A01D22EC32E89E296E0C4
:10294000AE014F5F5F4F0E94D02A2D2D3C2DC90153
:10295000AC018815990508F4A4010A30110518F492
:102960000AE010E006C02CE00138120710F000E881
:102970001CE0970181E0253F380710F024EF31E09B
:102980008E818F838D8188878C8189878B818A87CF
:102990008A818B8789818C871D868E869F86488B4E
:1029A000598B0A8B1B8B2C8B3D8BC5016FE046E04E
:1029B00023E08E01095F1F4F0E945512C50167E099
:1029C00040E00E947010F501928580E0218530E0A2
:1029D000282B392B80EB90E0A80EB91EF50131832E
:1029E000208380E59FEFA80EB91E2115310549F51A
:1029F000F501838525EB30E0A20EB31EF50180833F
:102A00002BE43FEFA20EB31EC50148EE53E060E099
:102A100070E00E94C90F182F64E670E080E090E03B
:102A20000E94BC1B1B3059F48CEF90E0A80EB91E1D
:102A3000F5018081853019F421E030E002C0212FBA
:102A400030E0C90165960FB6F894DEBF0FBECDBF6A
:102A5000CF91DF911F910F91FF90EF90DF90CF907A
:102A6000BF90AF909F908F900895EF92FF920F9339
:102A70001F934CE350E02CE430E004E610E0EE2439
:102A8000FF240E9486141F910F91FF90EF900895EC
:102A9000BF92CF92DF92EF92FF920F931F93DF933B
:102AA000CF9300D00F92CDB7DEB77C01D62EC42EC7
:102AB000B22E69834A832B8363E046E026E08E01D1
:102AC0000F5F1F4F0E945512C70166E041E00E9450
:102AD000701020EB30E0E20EF31EF701808191814F
:102AE00020E53FEFE20EF31E892B91F481E590E0A3
:102AF000E80EF91EF701D1927F01C08222E030E09A
:102B0000E20EF31EF701B0822CEA3FEFE20EF31E55
:102B1000F701E055FF4F808191810F900F900F904A
:102B2000CF91DF911F910F91FF90EF90DF90CF90A9
:102B3000BF900895FC01262FDC01AE5ABF4FEF5A1B
:102B4000FF4F60814C910E9448150895EF92FF92CB
:102B50000F931F937C0160E046E024E000E010E06A
:102B60000E945512C70166E041E00E9470101F915B
:102B70000F91FF90EF900895FF920F931F93CF93C3
:102B8000DF93EC010E94A615CE0161E00E949A1528
:102B9000892B19F0E2E0FE2E07C0CC5ADF4F81E00E
:102BA0008883C455D040FF248E01065A1F4FF80178
:102BB0006081718189E296E040EF0E94C72AF801A6
:102BC000608171816F5F7F4F89E296E040EF0E94E4
:102BD000C72A80E0FF2009F481E0DF91CF911F91A7
:102BE0000F91FF900895EF92FF920F931F937C0136
:102BF00061E049E020E000E010E00E94551264EF3F
:102C000071E080E090E00E94BC1BC70148EE53E0F9
:102C100060E070E00E94C90F90E0813009F491E01B
:102C2000892F1F910F91FF90EF900895CF93DF931D
:102C3000EC01623018F081E08C8301C06C838C81E0
:102C4000882331F486E161E00E94D61C86E107C04A
:102C5000813041F486E061E00E94D61C86E061E0AC
:102C60000E94F41C64E670E080E090E00E94BC1BCF
:102C7000CE010E94E7108130A1F1C850DF4F88815A
:102C8000C85FD0408C3071F4C750DF4F8881C95F76
:102C9000D040882339F4C650DF4F8881CA5FD040C6
:102CA0008823F9F0CE010E94F3158823D1F484E241
:102CB00096E06CE873E00E94DD2889E296E06CE023
:102CC00041E00E942C2B60E375E780E090E00E94D9
:102CD000BC1B89E296E06CE040E00E942C2B80E077
:102CE00003C0CE010E94BC15DF91CF910895AF9231
:102CF000BF92DF92EF92FF920F931F93DF93CF93D8
:102D0000CDB7DEB765970FB6F894DEBF0FBECDBF67
:102D10005C016D8B603110F08FE08D8B19821A820F
:102D20001B821C8246E0D42EFE013596DF018D2DDC
:102D30001D928A95E9F7C50161E047E02CE08E011C
:102D40000B5E1F4F0E945512C50164E040E00E94D7
:102D50007010B5016B5F7F4F89E296E07E010894A9
:102D6000E11CF11CA70124E00E944E2A1B861C8650
:102D70001D861E86FE013F96DF011D92DA94E9F75B
:102D8000ECE6F3E0659174918E01055F1F4FC80179
:102D90000E946036C701B8010E948636009719F07C
:102DA00021E030E009C0E5E5F0E0AE0EBF1E8D8900
:102DB000D5018C9320E030E0C90165960FB6F894F8
:102DC000DEBF0FBECDBFCF91DF911F910F91FF905E
:102DD000EF90DF90BF90AF9008954F925F926F9207
:102DE0007F929F92AF92BF92CF92DF92EF92FF922B
:102DF0000F931F93CF93DF93EC012B01D42E72EB33
:102E0000E72EF12CE80EF91EF7011182108266E41C
:102E1000662E712C680E791E86E0F30111928A9558
:102E2000E9F7CE01622F0E9477168E010C5A1F4FD0
:102E3000F8018081813081F0CE0161E00E949A1515
:102E4000892B21F481E0F801808306C08FEF9FEF8A
:102E5000F7019183808369C08E01045B1F4FCE010F
:102E600061E046E022E00E945512CE0166E041E0BA
:102E70000E947010892B09F058C08D2D90E028EE2B
:102E800033E0AC01429FC001439F900D529F900DD3
:102E900011245C01CC24B7FCC094DC2C51EEA516A7
:102EA00053E9B50654E0C50650E0D50638F050EEBB
:102EB000A52E53E9B52E54E0C52ED12C0E94261B19
:102EC0007B018C011DC0CE0160E00E94BE11C301D8
:102ED000B20146E050E00E946736009719F4992449
:102EE000939401C099240E94261B6E157F058007CC
:102EF000910720F40E94261B7B018C01992071F51B
:102F00000E94261B6E197F09800B910B6A157B05A9
:102F10008C059D0510F5CE0148EE53E060E070E0B1
:102F20000E94C90F8C31F1F6CECFFE01E055FF4F64
:102F30008081918102C0892D90E0DF91CF911F9116
:102F40000F91FF90EF90DF90CF90BF90AF909F9048
:102F50007F906F905F904F9008959924CE010E94CA
:102F6000A615892B41F3E1CFEF92FF920F931F93A8
:102F7000DF93CF9300D000D000D0CDB7DEB77C0177
:102F80008B01FB0101900020E9F73197E61BF70B5D
:102F90003E9710F0FB011486C8010E948F3689E22B
:102FA00096E0B8018E010F5F1F4FA8010E94D02A42
:102FB000C701B8014EE12FE00E94ED1626960FB62C
:102FC000F894DEBF0FBECDBFCF91DF911F910F915F
:102FD000FF90EF900895482F613210F081E008953E
:102FE00080910E05843011F082E0089560935705BA
:102FF000A6E3B5E0842F9C01F90102C081918D9375
:103000008E2F841B8617D0F380E008955898599826
:103010008091B90081608093B9008091B90082608D
:103020008093B9008091BC0080688093BC0080913F
:10303000BC0080618093BC008091BC008F7B80933A
:10304000BC008091BC008F7D8093BC008091BC004F
:10305000877F8093BC0080914F0890915008A09189
:103060005108B091520886FD14C080914F0890918C
:103070005008A0915108B091520890FD0AC080916B
:103080004F0890915008A0915108B091520893FFB9
:1030900004C08091BC008B7F03C08091BC00846021
:1030A0008093BC008091BC008E7F8093BC00809197
:1030B0006400806880936400089510920E05E4E631
:1030C000F0E080818F778083589A599AE9EBF0E09D
:1030D00080818E7F808380818D7F808381E4809357
:1030E000B80085E48093BC0080E2E4E1F5E0DF0114
:1030F000982F1D929A95E9F7E6E3F5E0DF01982F06
:103100001D929A95E9F7E8E5F5E0DF011D928A95B1
:10311000E9F70895882349F010927A0510927B050B
:1031200010927C0510927D0513C080917A059091D4
:103130007B05A0917C05B0917D050196A11DB11D77
:1031400080937A0590937B05A0937C05B0937D05D1
:1031500080917A0590917B05A0917C05B0917D05C9
:10316000805A9648A140B04010F480E00895109233
:103170007A0510927B0510927C0510927D050E94C5
:103180005D1881E0089585ED8093BC0081E00E9488
:103190008A1805C080E00E948A18882321F4809153
:1031A000BC0084FDF7CF10920E0508951F920F9278
:1031B0000FB60F920BB60F9211242F933F934F939C
:1031C0005F936F937F938F939F93AF93BF93EF938F
:1031D000FF938091B90090E0887F907080369105D0
:1031E00009F4C3C081369105CCF58832910509F404
:1031F0007BC089329105B4F48031910509F46FC028
:10320000813191053CF4009709F40EC1089709F04B
:103210000FC165C08831910509F466C0809709F037
:1032200007C177C08034910509F48DC081349105C0
:1032300044F48033910509F472C0C89709F0F8C0CE
:1032400072C08035910509F472C08835910509F482
:103250007FC08834910509F0EBC0E8C0883991053A
:1032600009F4D8C089399105ECF48837910509F43F
:103270007CC0893791054CF48836910509F475C0F6
:103280008037910509F0D4C070C08838910509F4E1
:10329000C1C08039910509F46EC08038910509F0EC
:1032A000C7C069C0803B910509F48CC0813B910582
:1032B0004CF4803A910509F470C0883A910509F000
:1032C000B7C080C0803C910509F4A8C0883C910536
:1032D00009F4A4C0883B910509F0AAC088C0809178
:1032E0000F058093BB0013C0909134058091350584
:1032F000981708F09BC090913405E92FF0E0EC5E40
:10330000FA4F80818093BB009F5F9093340585ECDA
:1033100082C00E94C31880E28093790589C080E34F
:103320008093790583C088E38093790577C0809185
:1033300034059091BB00E82FF0E0EC5EFA4F9083EB
:103340008F5F8093340590913405809135055FC07F
:10335000809134059091BB00E82FF0E0EC5EFA4FCD
:1033600090838F5F8093340561C083E080930E0566
:1033700010927805CCCF80917805803208F04AC051
:10338000809178059091BB00E82FF0E0E85AFA4F61
:1033900090838F5F80937805BACF809178058032D3
:1033A00030F4E0917805F0E0E85AFA4F108260912D
:1033B0007805E0911205F091130588E595E070E03D
:1033C00009952CC084E080930E051092560510924A
:1033D0005705E0911005F091110509958091570569
:1033E000882329F481E08093570510923605909147
:1033F0005605E92FF0E0EA5CFA4F80818093BB002C
:103400009F5F9093560590915605809157059817A8
:1034100008F47DCF85E88093BC000AC085EC8093DA
:10342000BC0010920E0504C0109279050E94C318CA
:10343000FF91EF91BF91AF919F918F917F916F918C
:103440005F914F913F912F910F900BBE0F900FBE48
:103450000F901F901895DF92EF92FF920F931F939A
:10346000E82E062FF72E142FD22E413210F081E0D5
:1034700051C081E00E948A1805C080E00E948A182D
:10348000882321F480910E058823B9F782E0809388
:103490000E058FEF80937905109234051093350552
:1034A000A4E1B5E0202F3F2DC901FC0102C08191AC
:1034B0008D938E2F801B8117D0F38E2D90E0880F77
:1034C000991F80930F0585EE8093BC0081E00E94D8
:1034D0008A18DD2041F40BC080E00E948A188823FE
:1034E00011F085E017C080910E058230A9F380911C
:1034F00079058F3F11F480E00DC08091790580320D
:1035000011F482E007C080917905803311F084E0E6
:1035100001C083E01F910F91FF90EF90DF9008951D
:103520000F931F93CF93DF93182FEB01042F41329A
:1035300010F081E03CC081E00E948A1805C080E064
:103540000E948A18882321F480910E058823B9F7F8
:1035500081E080930E058FEF8093790510923405FA
:1035600000933505110F116010930F0585EE8093C0
:10357000BC0081E00E948A1808C080E00E948A187E
:10358000882319F020E030E00FC080910E058130D3
:10359000A1F3F8CFFE01E20FF31FD901AC5EBA4FE1
:1035A0008C9180832F5F3F4F2017A0F380E0DF9145
:1035B000CF911F910F9108951F920F920FB60F9206
:1035C00011248F939F93AF93BF9380916108909143
:1035D0006208A0916308B09164080196A11DB11D15
:1035E0008093610890936208A0936308B093640885
:1035F000BF91AF919F918F910F900FBE0F901F9031
:1036000018951F920F920FB60F9211248F939F93CC
:10361000AF93BF938091650890916608A091670869
:10362000B09168080196A11DB11D80936508909323
:103630006608A0936708B0936808BF91AF919F9107
:103640008F910F900FBE0F901F9018958F929F92A1
:10365000AF92BF92CF92DF92EF92FF920F931F93A0
:103660008FB7F894A0906108B0906208C09063088A
:10367000D09064088FBF9501A60160E070E080E003
:1036800090E001E00E944C04122FF32EE42ED52E80
:10369000C62EB72EA82E892E02E00E944C04B92F08
:1036A000210FE1E0211708F0E0E03F0DF1E03F15C8
:1036B00008F0F0E09E2E930EE1E0931608F0E0E0B3
:1036C000FE2B4E0DA1E04E1508F0A0E0FF2EF40EEB
:1036D000E1E0F41608F0E0E0AE2B5D0DF1E05D15E1
:1036E00008F0F0E00A2F050FE1E0051708F0E0E030
:1036F000FE2B6C0DA1E06C1508F0A0E01F2F160F3B
:10370000E1E0161708F0E0E0AE2B7B0DF1E07B1551
:1037100008F0F0E0A70FE1E0A71708F0E0E0FE2BCB
:103720008A0D91E08A1508F090E0F80FE1E0F817B3
:1037300008F0E0E09E2BB80D392D4F2D502F612F52
:103740007A2F8F2F9B0FE9E0AE2EBB24CC24DD24F3
:10375000EE24FF2400E010E00E94CB04952FB90175
:10376000842F1F910F91FF90EF90DF90CF90BF902B
:10377000AF909F908F900895AF92BF92CF92DF92BB
:10378000EF92FF920F931F935B016C0107C00E94A1
:10379000261B6E157F058007910720F40E94261BCB
:1037A0007B018C010E94261B6E197F09800B910BF7
:1037B0006A157B058C059D0550F31F910F91FF90B5
:1037C000EF90DF90CF90BF90AF9008958430910537
:1037D00070F0BC0180E090E00E94C83226E636E638
:1037E00046EE5FE30E947A330E949C3203C0BC0124
:1037F000660F771F6150704061F06150704049F072
:10380000FB01EE0FFF1F31978FB7F8943197F1F757
:103810008FBF0895789484B7877F84BF1092610822
:1038200010926208109263081092640884B5826056
:1038300084BD84B5816084BD85B5826085BD85B554
:10384000816085BDEEE6F0E0808181608083E1E803
:10385000F0E0808182608083808181608083E0E805
:10386000F0E0808181608083E1EBF0E08081846022
:103870008083E1E9F0E0808184608083E0EBF0E028
:10388000808181608083E0E9F0E0808181608083D5
:10389000E4E6F0E080818E7F8083ECE7F0E08081D9
:1038A0008F778083808180648083EAE7F0E0808185
:1038B000846080838081826080838081806880834F
:1038C0001092C1001092C900089590917E05982B26
:1038D00090937E0580FF32C0809164008E7F80933C
:1038E000640080917C008F7780937C0080917C00C5
:1038F000806480937C0080917A00846080937A0059
:1039000080917A00826080937A0080917A0080684A
:1039100080937A00809164008F7780936400809117
:1039200064008B7F80936400809164008D7F80931E
:103930006400809165008E7F8093650008951F92DA
:103940000F920FB60F920BB60F9211242F933F9345
:103950004F935F936F937F938F939F93AF93BF9397
:10396000EF93FF93F89481E08093CE03E0E6F0E0DC
:1039700080818068808380818F7B808383E060E0AA
:103980000E94F41C7894FF91EF91BF91AF919F91A9
:103990008F917F916F915F914F913F912F910F90F8
:1039A0000BBE0F900FBE0F901F901895282F30E080
:1039B000C9018453984FFC0194912756384FF9015F
:1039C0008491882381F0E82FF0E0EF57F84FE491DD
:1039D000F0E0662329F480819095892380830895FF
:1039E0008081892B80830895482F50E0CA0181503F
:1039F000984FFC012491CA018453984FFC01949183
:103A00004756584FFA0134913323C1F1222331F143
:103A1000233021F4809180008F7705C0243031F469
:103A2000809180008F7D8093800018C0213019F430
:103A300084B58F7704C0223021F484B58F7D84BD96
:103A40000DC0263021F48091B0008F7705C027305B
:103A500029F48091B0008F7D8093B000E32FF0E0D7
:103A6000E757F84FE491F0E0662329F480819095C0
:103A70008923808308958081892B80830895482F2E
:103A800050E0CA018150984FFC012491CA0184532F
:103A9000984FFC0194914756584FFA0134913323C3
:103AA00019F420E030E035C0222331F1233021F435
:103AB000809180008F7705C0243031F480918000A0
:103AC0008F7D8093800018C0213019F484B58F77E2
:103AD00004C0223021F484B58F7D84BD0DC0263012
:103AE00021F48091B0008F7705C0273029F48091B0
:103AF000B0008F7D8093B000E32FF0E0EF56F84FD9
:103B0000E491F0E0808120E030E0892311F021E0B1
:103B100030E0C9010895882389F480917F05909150
:103B2000800580509E4F2091810530918205821B37
:103B3000930B60E072E00E947535089580918305D3
:103B40009091840580509E4F209185053091860587
:103B5000821B930B60E072E00E9475350895882304
:103B6000D1F4409181055091820580917F0590911B
:103B700080058417950751F1FA01E759F54F208127
:103B8000CA01019660E072E00E947535909382054B
:103B90008093810519C040918505509186058091DB
:103BA0008305909184058417950781F0FA01E75900
:103BB000F74F2081CA01019660E072E00E947535DE
:103BC000909386058093850530E002C02FEF3FEF8C
:103BD000C9010895882349F4109282051092810545
:103BE0001092800510927F0508951092860510921C
:103BF0008505109284051092830508951F920F92F7
:103C00000FB60F920BB60F9211242F933F934F9341
:103C10005F936F937F938F939F93AF93BF93EF9334
:103C2000FF934091C600E0917F05F0918005CF01A0
:103C3000019660E072E00E9475359C0180918105DB
:103C4000909182052817390739F0E759F54F4083DD
:103C50003093800520937F05FF91EF91BF91AF9145
:103C60009F918F917F916F915F914F913F912F9194
:103C70000F900BBE0F900FBE0F901F9018951F92C4
:103C80000F920FB60F920BB60F9211242F933F9302
:103C90004F935F936F937F938F939F93AF93BF9354
:103CA000EF93FF934091CE00E0918305F09184055E
:103CB000CF01019660E072E00E9475359C01809111
:103CC0008505909186052817390739F0E759F74F90
:103CD00040833093840520938305FF91EF91BF913A
:103CE000AF919F918F917F916F915F914F913F9194
:103CF0002F910F900BBE0F900FBE0F901F90189535
:103D0000982F662339F48091C00085FFFCCF9093F3
:103D1000C60008958091C80085FFFCCF9093CE0027
:103D20000895882341F48091C00085FFFCCF8DE089
:103D30008093C60008C08091C80085FFFCCF8DE04D
:103D40008093CE0008C08091C00085FFFCCF8AE040
:103D50008093C60008958091C80085FFFCCF8AE05B
:103D60008093CE000895FC0110C03196662339F48B
:103D70008091C00085FFFCCF9093C60006C0809163
:103D8000C80085FFFCCF9093CE009081992369F7FE
:103D900008952F923F924F925F926F927F928F92EF
:103DA0009F92AF92BF92CF92DF92EF92FF920F93CA
:103DB0001F93DF93CF93CDB7DEB7A1970FB6F894DB
:103DC000DEBF0FBECDBF6B017C0129013A0109A303
:103DD000611571058105910591F4002341F48091ED
:103DE000C00085FFFCCF80E38093C6005BC080915C
:103DF000C80085FFFCCF80E38093CE0053C08824A9
:103E0000992454011E010894211C311C8101080DC4
:103E1000191DC701B601A30192010E948835F8015E
:103E200060830894811C911CA11CB11CC701B601C0
:103E3000A30192010E948835C901DA016C017D015C
:103E4000C114D104E104F10409F79101280D391DD1
:103E5000BE016F5F7F4FD501C4010197A109B10970
:103E6000AC01481959091BC0FA01E20FF31FE081A8
:103E7000EA3010F4E05D01C0E95CF9A1FF2339F4F8
:103E80008091C00085FFFCCFE093C60006C0809102
:103E9000C80085FFFCCFE093CE0021503040621770
:103EA000730711F7A1960FB6F894DEBF0FBECDBF12
:103EB000CF91DF911F910F91FF90EF90DF90CF9006
:103EC000BF90AF909F908F907F906F905F904F903A
:103ED0003F902F900895282F992787FD9095807FF8
:103EE000907034E0959587953A95E1F78A301CF00B
:103EF000982F995C02C0982F905D822F8F708A3026
:103F00001CF0282F295C02C0282F205D662339F47D
:103F10008091C00085FFFCCF9093C60006C08091C1
:103F2000C80085FFFCCF9093CE00662339F48091C2
:103F3000C00085FFFCCF2093C60008958091C80083
:103F400085FFFCCF2093CE0008950F931F938B0124
:103F50009C01E42F97FF18C0442341F48091C000D6
:103F600085FFFCCF8DE28093C60007C08091C8001A
:103F700085FFFCCF8DE28093CE0030952095109583
:103F800001951F4F2F4F3F4FC901B8012AE030E084
:103F900040E050E00E2F0E94C91E1F910F9108951E
:103FA000EF92FF920F931F937B018C014423C1F585
:103FB00088E00E94651CC801B70122E030E040E0C3
:103FC00050E00E94AA352050304F414F5F4FCA0148
:103FD000B901A80197010E94AA35C901DA01019728
:103FE000A109B109292F3A2F4B2F552747FD5A9583
:103FF0000196A11DB11D2093C50081508093C4007E
:104000008091C10080618093C1008091C10088606F
:104010008093C1008091C10080688093C10037C047
:1040200080E10E94651CC801B70122E030E040E059
:1040300050E00E94AA352050304F414F5F4FCA01D7
:10404000B901A80197010E94AA35C901DA010197B7
:10405000A109B109292F3A2F4B2F552747FD5A9512
:104060000196A11DB11D2093CD0081508093CC00FD
:104070008091C90080618093C9008091C9008860E7
:104080008093C9008091C90080688093C9001F9106
:104090000F91FF90EF9008950E940A1C89E296E02C
:1040A0000E94BB2A853440F081E361E00E94D61C67
:1040B00081E361E00E94F41C89E296E061E070E037
:1040C0000E94C32A8130B1F480914F08909150082A
:1040D000A0915108B0915208906880934F08909336
:1040E0005008A0935108B093520881E090E060E03E
:1040F0000E94F53887E20E943F1D892B09F44FC0CA
:1041000089E296E060E070E00E94C32A8A3009F0FC
:1041100046C08BE895E00E94E0268BE895E00E947F
:10412000F7248BE895E00E94A7268091A405482FEC
:1041300050E08091A605481B51098091A305282FC6
:1041400030E08091A705281B3109121613065CF494
:104150008CE390E0BC01269FC001279F900D369F05
:10416000900D11240EC037FF0EC08CE390E0BC010F
:10417000269FC001279F900D369F900D1124805FD0
:10418000914F480F591F4330510548F480915E0804
:1041900090915F08806290935F0880935E088BE83F
:1041A00095E00E94E0268BE895E00E9493238BE83F
:1041B00095E00E9482238BE895E00E94092763E046
:1041C00070E080E090E00E94BC1B80914F089091CD
:1041D0005008A0915108B0915208A1FF5EC063E061
:1041E00070E080E090E00E94BC1B86E161E00E94EC
:1041F000D61C63E070E080E090E00E94BC1B86E18A
:1042000061E00E94F41C63E070E080E090E00E94B6
:10421000BC1B0E94412763E070E080E090E00E94B8
:10422000BC1B81E00E941A2763E070E080E090E010
:104230000E94BC1B84E00E94282763E070E080E0BD
:1042400090E00E94BC1B80E00E94232763E070E0A6
:1042500080E090E00E94BC1B0E94162763E070E0A3
:1042600080E090E00E94BC1B8EE196E066E00E9438
:10427000602763E070E080E090E00E94BC1B86E174
:1042800061E00E94D61C86E160E00E94F41C63E0BD
:1042900070E080E090E00E94BC1B63E070E080E092
:1042A00090E00E94BC1B89E296E00E947B2C609308
:1042B0008705709388058093890590938A0580917E
:1042C000870590918805A0918905B0918A050E9483
:1042D00055360E94400B0E948B0BFDCFFC01148AC7
:1042E000158A168A178A108E118E128E138E148ECE
:1042F000158E168E178E10A211A212A213A280E0A4
:1043000090E0A0E0B0E084A395A3A6A3B7A308958E
:1043100010921C0610929E050895EF92FF920F9343
:104320001F93DF93CF93CDB7DEB7EC970FB6F8941A
:10433000DEBF0FBECDBF8C01E5E6F5E0659174915F
:10434000B5E1EB2EF12CEC0EFD1EC7010E9460368C
:10435000E7E6F5E065917491CE0101960E94603622
:10436000D80156968C91843009F46DC0853048F49C
:10437000823069F1833008F048C0813009F000C113
:104380000AC0863009F49BC0863008F47AC08730B2
:1043900009F0F6C0B2C0EDB7FEB774970FB6F89447
:1043A000FEBF0FBEEDBF3196075D1F4FADB7BEB765
:1043B00012961C930E9311970952104084E690E0D8
:1043C00093838283F582E48288E992E0B3C08DB75B
:1043D0009EB744970FB6F8949EBF0FBE8DBFEDB742
:1043E000FEB73196075D1F4FADB7BEB712961C934F
:1043F0000E9311970952104084E690E093838283D4
:10440000F582E4828CE992E095C08DB79EB744971F
:104410000FB6F8949EBF0FBE8DBFEDB7FEB73196B5
:10442000075D1F4FADB7BEB712961C930E93119741
:104430000952104084E690E093838283F582E482FF
:1044400080EA92E077C08DB79EB744970FB6F89494
:104450009EBF0FBE8DBFEDB7FEB73196075D1F4FF4
:10446000ADB7BEB712961C930E9311970952104028
:1044700084E690E093838283F582E48284EA92E08A
:1044800059C08DB79EB744970FB6F8949EBF0FBE24
:104490008DBFEDB7FEB73196075D1F4FADB7BEB705
:1044A00012961C930E9311970952104084E690E0E7
:1044B00093838283F582E48288EA92E03BC08DB7E1
:1044C0009EB744970FB6F8949EBF0FBE8DBFEDB751
:1044D000FEB73196075D1F4FADB7BEB712961C935E
:1044E0000E9311970952104084E690E093838283E3
:1044F000F582E4828CEA92E01DC08DB79EB74497A6
:104500000FB6F8949EBF0FBE8DBFEDB7FEB73196C4
:10451000075D1F4FADB7BEB712961C930E93119750
:104520000952104084E690E093838283F582E4820E
:1045300080EB92E097838683D80154968C915497B0
:104540008087118655968C915597828713865A9647
:104550008C915A978487158657968C9157978687A2
:10456000178658968C915897808B118A59968C9102
:10457000828B138A0E949936EDB7FEB774961DC0E0
:1045800000D000D000D0EDB7FEB73196075D1F4FC9
:10459000ADB7BEB712961C930E93119709521040F7
:1045A00084E690E093838283CE0101969583848391
:1045B0000E949936EDB7FEB736960FB6F894FEBF57
:1045C0000FBEEDBF9801275D3F4FC901EC960FB6B6
:1045D000F894DEBF0FBECDBFCF91DF911F910F9139
:1045E000FF90EF9008951F93CF93DF93EC01162F68
:1045F00080917606882321F480E796E00E94322E8F
:1046000080E796E068E670E00E94A52C80E796E0DF
:10461000612F0E94BF2DC10FD11D80E796E06881F8
:104620000E94BF2D80E796E00E94EE2DDF91CF9192
:104630001F910895FF920F931F93CF93DF938C01E7
:10464000F62E80917606882321F480E796E00E947A
:10465000322E80E796E068E670E00E94A52C80E7A5
:1046600096E06F2D0E94BF2D80E796E00E94EE2D10
:1046700080E796E068E670E041E050E00E942F2E6F
:10468000C0E0D0E080E796E00E94AF2C882329F4B8
:10469000CA30D10511F02196F5CF80E796E00E944F
:1046A000B52C0F0D111DF801808380E796E00E9464
:1046B000EE2DDF91CF911F910F91FF9008950F93F1
:1046C0001F938C016FE00E941A23F8018785837085
:1046D0001F910F910895CF93DF93EC010E945F2308
:1046E000882319F0CE56DF4F888380919A058C7FFE
:1046F00080939A058BE895E06FE00E94F322DF91AA
:10470000CF9108950F931F938C016EE00E941A239E
:10471000F80186858D7F8687C8016EE00E94F322AE
:104720001F910F9108950F931F938C016EE00E94CB
:104730001A23F80186858E7F8687C8016EE00E9465
:10474000F3221F910F910895AF92BF92CF92DF9203
:10475000FF920F931F93CF93DF938C01F62E8091DE
:104760007606882321F480E796E00E94322E80E7C7
:1047700096E068E670E00E94A52C80E796E060E095
:1047800070E00E94EB2D80E796E00E94EE2D80E71E
:1047900096E068E670E043E150E00E942F2EC0E012
:1047A000D0E0CC24DD24AF2CBB245AE0F52E0DC183
:1047B00080E796E00E94AF2C882309F403C180E7CC
:1047C00096E00E94B52C282FF801EC0FFD1F808386
:1047D000C630D10509F482C0C730D105B8F4C23063
:1047E000D10509F44EC0C330D10538F4209769F1E2
:1047F000C130D10509F0E4C036C0C430D10509F498
:1048000051C0C530D10508F05BC049C0CA30D105E0
:1048100009F49BC0CB30D10558F4C830D10509F458
:1048200078C090E02F70C930D10508F081C064C015
:10483000CC30D10509F4A7C0CC30D10508F494C020
:10484000CD30D10509F0BCC0ADC090E044E09595F5
:1048500087954A95E1F78F9DC00111242F70280F8D
:10486000F801218FADC090E034E0959587953A9599
:10487000E1F78F9DC00111242F70280FF801208FC0
:104880009FC090E0B4E095958795BA95E1F78F9D2C
:10489000C00111242F70280FF801278B91C0F80157
:1048A000868B8EC090E0A4E095958795AA95E1F758
:1048B0008F9DC00111242F70280FF801228F80C016
:1048C00090E0F4E095958795FA95E1F78F9DC0010A
:1048D00011242F70280FF801258B72C090E0E4E0BE
:1048E00095958795EA95E1F78F9DC00111242F706A
:1048F000280FF801248B64C074E0959587957A950C
:10490000E1F787708F9DC0011124280FF801238FD4
:1049100057C090E064E0959587956A95E1F78770B8
:104920008F9DC00111242F70280FF801248F48C0DB
:1049300054E0959587955A95E1F783708F9DC00156
:104940001124280FF801258F3BC090E044E0959595
:1049500087954A95E1F783708F9DC00111242F70D0
:10496000280FF801268F2CC090E034E095958795AC
:104970003A95E1F787708F9DC00111242F70280FA1
:10498000F801278F1DC090E0B4E095958795BA9502
:10499000E1F783708F9DC00111242F70280FF8015B
:1049A00020A30EC090E0A4E095958795AA95E1F725
:1049B00083708F9DC00111242F70280FF80121A34F
:1049C000219603C00894C11CD11CAC16BD0628F06A
:1049D000FAE0CF16D10408F4EBCEDF91CF911F910E
:1049E0000F91FF90DF90CF90BF90AF900895AF925E
:1049F000BF92CF92DF92EF92FF920F931F93DF93BC
:104A0000CF93CDB7DEB7C857D0400FB6F894DEBF0E
:104A10000FBECDBF6C016AE00E94A42349E2A42E20
:104A2000B12CAC0CBD1C84E6D5011D928A95E9F72A
:104A3000E3E4F5E0659174918E010F5F1F4FC801AB
:104A40000E946036C501B8010E947B36F60182A142
:104A5000823009F476C0833030F4882371F08130DD
:104A600009F03CC11AC0843009F4F2C0843008F463
:104A7000AEC0853009F032C127C1E5E4F5E06591AB
:104A80007491C8010E946036C501B8010E947B364E
:104A9000E3E5F5E0659174910FC0E7E4F5E0659119
:104AA0007491C8010E946036C501B8010E947B362E
:104AB000E3E5F5E0659174918E01075D1F4FC80134
:104AC0000E9460368DB79EB70E970FB6F8949EBFC2
:104AD0000FBE8DBFEDB7FEB7319631E5E32EF12C59
:104AE000EC0EFD1EADB7BEB71296FC92EE9211977A
:104AF00088E290E09383828315830483D6015E96D7
:104B00008C915E97868317825D968C915D978087E6
:104B100011865C968C915C97828713865B968C914C
:104B2000848715860E949936EDB7FEB73E960FB67C
:104B3000F894FEBF0FBEEDBFC501B7010E947B36E2
:104B4000F3C0E9E4F5E065917491C8010E94603614
:104B5000C501B8010E947B36E5E5F5E065917491E9
:104B60008E01075D1F4FC8010E9460368DB79EB74A
:104B70000C970FB6F8949EBF0FBE8DBFEDB7FEB772
:104B8000319621E5E22EF12CEC0EFD1EADB7BEB73D
:104B90001296FC92EE92119788E290E093838283C2
:104BA00015830483D6015D968C915D978683178269
:104BB0005C968C915C97808711865B968C9182873E
:104BC00013860E949936EDB7FEB73C96B0CFEBE462
:104BD000F5E065917491C8010E946036C501B80185
:104BE0000E947B36E7E5F5E0659174918E01075DE3
:104BF0001F4FC8010E9460368DB79EB70A970FB647
:104C0000F8949EBF0FBE8DBFEDB7FEB7319691E50C
:104C1000E92EF12CEC0EFD1EADB7BEB71296FC923C
:104C2000EE92119788E290E0938382831583048348
:104C3000D6015C968C915C97868317825B968C91EB
:104C4000808711860E949936EDB7FEB73A966FCFEE
:104C5000EDE4F5E065917491C8010E946036C501EC
:104C6000B8010E947B36E9E5F5E0659174918E010B
:104C7000075D1F4FC8010E9460368DB79EB7089729
:104C80000FB6F8949EBF0FBE8DBFEDB7FEB731963D
:104C900081E5E82EF12CEC0EFD1EADB7BEB71296E5
:104CA000FC92EE92119788E290E0938382831583C1
:104CB0000483D6015B968C91868317820E94993675
:104CC000EDB7FEB7389633CFEFE4F5E06591749118
:104CD000C8010E946036C501B80130CFE1E5F5E0BA
:104CE000659174918E010F5F1F4FC8010E9460365D
:104CF00000D000D000D0EDB7FEB73196ADB7BEB74B
:104D00001296BC92AE92119784E690E093838283D0
:104D1000158304830E949936EDB7FEB736960FB619
:104D2000F894FEBF0FBEEDBFC501C858DF4F0FB6E8
:104D3000F894DEBF0FBECDBFCF91DF911F910F91D1
:104D4000FF90EF90DF90CF90BF90AF9008950F93BA
:104D50001F938C0166E00E94A423C8010E948D214C
:104D60001F910F9108950F931F93CF93DF93EC0141
:104D7000042F68A780E361E00E94D61C18A51123C8
:104D800079F0113091F480E361E00E94F41C01306D
:104D900019F482E08B8B09C0002339F41B8B05C00A
:104DA00080E360E00E94F41C1B8A6AE070E080E00F
:104DB00090E00E94BC1BDF91CF911F910F9108954D
:104DC0000F931F938C0161E040E00E94B326C8015D
:104DD0000E946B23C8010E946E21C8016DE00E94F1
:104DE000A4238BE261E00E94D61C8BE260E00E946B
:104DF000F41C1F910F91089580917606882341F04D
:104E000080918C06882321F481E996E00E94A531E7
:104E100008950F931F938C010E94FC26C80160E047
:104E200040E00E94B3261F910F9108958CB58F7BAF
:104E30008CBD0895882319F48CB5806202C08CB5AE
:104E40008F7D8CBD08959CB5937F982B9CBD089554
:104E50009CB5282F23709C7F292B2CBD9DB581707C
:104E60009E7F982B9DBD089510921F0610921E06DE
:104E7000109220061092210610922206109223060C
:104E800008958EE161E00E94D61C8FE161E00E94EE
:104E9000D61C8DE161E00E94D61C8EE160E00E948C
:104EA000F41C8FE160E00E94F41C8DE161E00E943F
:104EB000F41C8CB580618CBD8CB580648CBD08956C
:104EC0001F93162F8DE161E00E94D61C82E261E003
:104ED0000E94D61C8DE161E00E94F41C82E261E038
:104EE0000E94F41C80914F0890915008A0915108A5
:104EF000B0915208A2FF08C088E061E00E94D61C71
:104F000088E061E00E94F41C80914F089091500865
:104F1000A0915108B091520896FF08C089E061E065
:104F20000E94D61C89E061E00E94F41C80914F0829
:104F300090915008A0915108B0915208A3FF08C069
:104F400082E061E00E94D61C82E061E00E94F41CD5
:104F500080914F0890915008A0915108B09152084B
:104F6000A4FF08C082E261E00E94D61C82E261E0F8
:104F70000E94F41C1330C9F0143028F4113069F089
:104F8000123068F408C0153041F11530D0F01630F9
:104F900009F062C02FC08DE12BC082E229C089E2F6
:104FA00096E00E94132B8CE223C080914F089091D1
:104FB0005008A0915108B0915208A2FF4DC088E05E
:104FC00017C080914F0890915008A0915108B0915E
:104FD000520896FF41C089E00BC080914F08909124
:104FE0005008A0915108B0915208A3FF35C082E04B
:104FF00060E030C08DE161E00E94F41C82E261E07B
:105000000E94F41C80914F0890915008A091510883
:10501000B0915208A2FF04C088E061E00E94F41C35
:1050200080914F0890915008A0915108B09152087A
:1050300096FF04C089E061E00E94F41C80914F0853
:1050400090915008A0915108B0915208A3FF04C05C
:1050500082E061E00E94F41C1F91089510922406E2
:105060000895CF93DF93EC0180914F089091500801
:10507000A0915108B091520882FF0BC063E070E02C
:1050800080E090E00E94BC1B8BE061E00E94F41C79
:1050900006C063E070E080E090E00E94BC1B898164
:1050A0008093C5008A818093C4008B818093C20065
:1050B0008C818093CA00DF91CF910895DC018091AB
:1050C000C50011968C9311978091C40012968C9311
:1050D0001297E2ECF0E0808113968C931397809105
:1050E000CA0014968C93149780818F7D8083808171
:1050F0008F7E80838081877F808360E072EC81E097
:1051000090E04C910E94D01F87E161E00E94F41C66
:105110008BE060E00E94F41C0895FF920F931F93B0
:105120008C01F62E0E945E288F2D60E00E946B1F7E
:10513000C8010E9431281F910F91FF9008950F938D
:105140001F938C010E945E28F80180810E94911EAD
:10515000C8010E9431281F910F910895EF92FF928C
:105160000F931F93CF93DF93EC01162F072F0E940D
:105170005E28212F302FC9018C0188EEE82E83E0B4
:10518000F82EE00EF11EF8010F5F1F4F8491882367
:1051900031F068810E94801E0E151F05A1F7CE0117
:1051A0000E94312860E070E080E090E0DF91CF91D4
:1051B0001F910F91FF90EF900895CF92DF92EF92A1
:1051C000FF920F931F938C010E94AE28F62EE72EBC
:1051D000D82EC92EC8010E949F286F2D7E2D8D2D9F
:1051E0009C2D1F910F91FF90EF90DF90CF9008952D
:1051F000FF920F931F938C01F62E0E945E288F2D35
:10520000F80160810E94801EC8010E9431281F9110
:105210000F91FF900895EF92FF920F931F938C01CF
:105220007B010E945E28C701F80160810E94B31EC5
:10523000F80180810E94911EC8010E9431281F91AF
:105240000F91FF90EF900895EF92FF920F931F93AD
:105250008C017B010E945E28C701F80160810E94D9
:10526000B31EC8010E9431281F910F91FF90EF904B
:1052700008957F928F929F92AF92BF92CF92DF92CA
:10528000EF92FF920F931F93CF93DF93EC017A017C
:105290008B01722E0E945E28C801B70120E030E029
:1052A00040E050E00E942B32882344F48DE2688174
:1052B0000E94801E17FB109517F9109520E030E032
:1052C00040E05FE3DD240BC0CA01B90120E030E01B
:1052D00040E251E40E942F329B01AC01D394D714D9
:1052E00098F3C801B7010E94C7314B015C010E94CD
:1052F0009C326B017C012AE030E040E050E0088104
:105300000E94C91E772021F08EE268810E94801ED3
:10531000C701B6010E94C8329B01AC01C501B401AE
:105320000E94C63124C020E030E040E251E40E94F7
:105330007A336B017C010E9497324B015C01AA24F5
:1053400097FCA094BA2CC501B4012AE030E040E0FB
:1053500050E008810E94C91EC501B4010E94CA32F2
:105360009B01AC01C701B6010E94C6317A94772037
:10537000D1F6CE010E943128DF91CF911F910F917C
:10538000FF90EF90DF90CF90BF90AF909F908F9065
:105390007F9008950F931F938C012AE00E94392972
:1053A000C8010E949F281F910F910895CF92DF920C
:1053B000EF92FF920F931F93CF93DF937C018A01AB
:1053C000D62EC72EE9010E945E28209731F4802F47
:1053D000F70160810E94801E17C0CA30D10541F4D8
:1053E000B8018D2D9C2DF70140810E94A51F0CC096
:1053F0009E01442737FD4095542FB8018D2D9C2DDB
:10540000F70100810E94C91EF70180810E94911E50
:10541000C7010E943128DF91CF911F910F91FF901A
:10542000EF90DF90CF900895CF92DF92EF92FF92AE
:105430000F931F93CF93DF937C018A01D62EC72E43
:10544000E9010E945E28209731F4802FF7016081E6
:105450000E94801E17C0CA30D10541F4B8018D2DBD
:105460009C2DF70140810E94A51F0CC09E0144277E
:1054700037FD4095542FB8018D2D9C2DF7010081EB
:105480000E94C91EC7010E943128DF91CF911F9150
:105490000F91FF90EF90DF90CF9008950F931F939F
:1054A000CF93DF938B01BA01DA0140E050E0C22FC5
:1054B000D0E019C0F801E40FF51F8081982F929574
:1054C0009F708F709A3010F4905D01C0995C9C932E
:1054D0008A3010F4805D01C0895C11968C9311971D
:1054E0004F5F5F4F12964C175D0724F3CC0FDD1F03
:1054F000C60FD71F1882DF91CF911F910F9108958A
:10550000FB019081892F80538A3038F4292F33276B
:1055100027FD3095205330400DC0892F81548630AF
:1055200018F020E030E007C0292F332727FD309501
:105530002753304031966081862F80538A3030F473
:10554000772767FD7095605370400CC0862F81549B
:10555000863018F060E070E005C0772767FD709531
:105560006753704094E0220F331F9A95E1F7862F1E
:10557000820F089508958FED90E00E94E7388F3FE5
:1055800009F480E00895CB010E94E738089584E093
:105590006030780724F0CB01642F0E94F53808951D
:1055A000CF92DF92EF92FF920F931F93CF93DF93EF
:1055B0006A01EB0109900020E9F72197C61BD70B80
:1055C000D695C7957B0100E010E00FC089E296E018
:1055D000B7010E94802AF601E00FF11F80830F5F60
:1055E0001F4F82E090E0E80EF91E0C171D0770F3C4
:1055F000CE01DF91CF911F910F91FF90EF90DF903F
:10560000CF90089587E161E00E94D61C8BE061E0B5
:105610000E94D61C87E161E00E94F41C8BE061E0EF
:105620000E94F41C089587E161E00E94D61C84E288
:1056300061E00E94D61C85E261E00E94D61C87E1F1
:1056400061E00E94F41C84E261E00E94F41C85E2A7
:1056500061E00E94F41C08950F931F93162F042FEE
:10566000862F61E00E94D61C013019F4812F61E081
:1056700004C0002321F4812F60E00E94F41C1F91DC
:105680000F9108952F923F924F925F926F927F9267
:105690008F929F92AF92BF92CF92DF92EF92FF9242
:1056A0000F931F93DF93CF93CDB7DEB7C75FD04083
:1056B0000FB6F894DEBF0FBECDBF2DB63EB68DB788
:1056C0009EB708970FB6F8949EBF0FBE8DBFADB6BC
:1056D000BEB60894A11CB11C7501CC24DD244E017A
:1056E0000894811C911CCE0180599F4FAEEF4A2E29
:1056F000AFEF5A2E480E591EF0E16F2E712C680E36
:10570000791EDE01A052BF4FC051DF4FB983A8837D
:10571000C05FD040FE013E96CE50DF4FF983E88354
:10572000C25FD040C4016DE00E94963089E296E0ED
:105730006CE040E00E942C2B89E296E06DE040E0B6
:105740000E942C2BD7011D921D921D921C92139723
:105750008CE061E00E94D61C8CE061E00E94F41CA9
:10576000C4010E94CE3089E296E06DE041E00E94E3
:105770002C2B6AE070E080E090E00E94BC1BC4012A
:1057800063E340E00E94563062E370E080E090E026
:105790000E94BC1B8E0102511F4FC4010E94EE2FBC
:1057A000F8018083118261E070E080E090E00E9467
:1057B000BC1B025010400415150579F7F301DE01FA
:1057C0005096819191918D939D93C051DF4F888127
:1057D0009981C05FD040E817F90799F7BE01625977
:1057E0007F4F21E030E040E050E0DB018D919C9163
:1057F000019779F4D7018D919D910D90BC91A02DC9
:10580000820F931FA41FB51FF70180839183A2838A
:10581000B38362507040CE50DF4F88819981C25F60
:10582000D0406817790729F0220F331F441F551FF6
:10583000DCCFF70180819181A281B3818F5F9F4F7F
:10584000AF4FBF4F31F4D7011D921D921D921C9294
:1058500013978CE060E00E94F41C89E296E06CE013
:1058600040E00E942C2B89E296E06DE040E00E942F
:105870002C2B0894C11CD11CE4E0F0E0EE0EFF1EBE
:10588000F2E0CF16D10409F04DCFD5012D913D9115
:105890004D915C91139714968D919D910D90BC91B3
:1058A000A02D281739074A075B0721F020E030E0D8
:1058B00040E050E0B901CA010FB6F8943EBE0FBEF9
:1058C0002DBEC950DF4F0FB6F894DEBF0FBECDBF5F
:1058D000CF91DF911F910F91FF90EF90DF90CF90CC
:1058E000BF90AF909F908F907F906F905F904F9000
:1058F0003F902F900895EF92FF920F931F930E9475
:10590000422B7B018C016115710581059105B1F474
:1059100083EE90E00E94EF386A302AE072072AE0B6
:1059200082072AE0920751F06F3F2FEF72072FEFA7
:1059300082072FEF920711F07B018C01B701C8019C
:105940001F910F91FF90EF90089581E080936F0673
:1059500060934C0610926D0610926E060895809129
:105960004B0690914A06891B089590914A068091B2
:105970004B06981710F080E00895E92FF0E0E65DFF
:10598000F94F80819F5F90934A06089510927706A1
:1059900010927006109271068AEF90E0A0E0B0E0DD
:1059A0008093720690937306A0937406B093750665
:1059B0000895CF93DF93EC0180914F0890915008A8
:1059C000A0915108B091520884FD3CC080914F08CD
:1059D00090915008A0915108B091520885FD32C0B5
:1059E00080914F0890915008A0915108B0915208B1
:1059F00086FD28C080914F0890915008A0915108D1
:105A0000B091520887FD1EC080914F0890915008B8
:105A1000A0915108B091520890FD14C080914F0898
:105A200090915008A0915108B091520891FD0AC080
:105A300080914F0890915008A0915108B091520860
:105A400093FF1DC080917706882339F481E996E0A1
:105A500060E041E00E9449310CC08981882331F423
:105A600081E996E060E041E00E9449318881882325
:105A700031F481E996E061E041E00E944931DF9133
:105A8000CF910895FC0180914F0890915008A0910A
:105A90005108B091520881709070A070B0708083EE
:105AA00080914F0890915008A0915108B0915208F0
:105AB000B695A795979587958170818380914F08BA
:105AC00090915008A0915108B091520884FD3CC0BB
:105AD00080914F0890915008A0915108B0915208C0
