:100000000C946C030C94A72B0C94D82B0C94092CF7
:100010000C943A2C0C946B2C0C949C2C0C94CD2CA2
:100020000C94FE2C0C9494030C9494030C94940361
:100030000C948C1A0C9494030C9494030C94EE1866
:100040000C9494030C9494030C9494030C949403D4
:100050000C9494030C9494030C9494030C94C9187A
:100060000C9494030C94EB1B0C9494030C94940345
:100070000C9494030C9494030C9494030C949403A4
:100080000C9494030C9494030C9494030C94940394
:100090000C942C1C0C9494030C9494030C94C31691
:1000A0000C9494030C9494030C9494030C94940374
:1000B0000C9494030C9494030C9494030C94940364
:1000C0000C9494030C9494030C9494034465766903
:1000D0006365206E6F7420666F756E643A20004E03
:1000E0004F5420436F6E6E656374656400466169AA
:1000F0006C6564207375627363726962696E672EE2
:1001000000446973636F6E6E65637465642E0044AA
:100110006973636F6E6E656374206661696C004E0F
:100120006F74696669636174696F6E207265636577
:10013000697665642E0057616974696E672065761B
:10014000656E74732E2E2E0052656164696E672091
:100150006174747269627574652E2E20005772691D
:100160007465204F4B2E0057726974696E67206169
:1001700074747269627574652E2E200041747472F5
:1001800069627574652056616C756520284153431A
:100190004949293A20004174747269627574652076
:1001A00056616C75653A200052656164696E67201E
:1001B0006174747269627574652E2E2000446576D0
:1001C00069636520666F756E642E20436F6E6E6581
:1001D0006374696E672E2E2E200046697273742038
:1001E0007363616E20666F72206465766963650073
:1001F000424C455F3037204578616D706C65003743
:100200000240024E02730287029402A802BC02233B
:100210000357036F037A038B039C03AF03BC0342B2
:100220004C45206D6F64756C65206E6F742064653D
:1002300074656374656400303030303037304300AB
:100240005363616E20706172616D733A20003125D5
:1002500030327825303278253032782530327825A2
:10026000303278253032783B2025643B2025753BA1
:100270000D0A00443A2578257825782578257825B3
:10028000783B2025642C003B20496E6465783D2531
:10029000750D0A0053746F70206661696C2E2065BD
:1002A00072723A2025780A005363616E2066616994
:1002B0006C2E206572723A2025780A005363616EB5
:1002C00020706172616D733A20474150206D6F64F8
:1002D000653D25753B207363616E5F696E74657261
:1002E00076616C3D25753A207363616E5F77696E48
:1002F000646F773D25753B207363616E5F64757035
:100300006C69636174655F66696C746572696E6758
:100310003D25753B205458506F7765723D25753BE0
:100320000D0A004465766963652025753B202530FC
:1003300032782530327825303278253032782530C1
:100340003278253032783B20525353493A25643B6A
:10035000204E616D653A006572726F722077726926
:1003600074696E672E206572723A2025780A00093A
:100370002065633A2025780D0A0041444376616C7C
:1003800028484558293A25780D0A004144437661AA
:100390006C28444543293A25640D0A0041444356DC
:1003A000616C6D5628444543293A25730D0A005463
:1003B0006128444543293A25730D0A00417474723B
:1003C000696275746520257520496E64696361747E
:1003D0006564210D0A004D0461048704AE04CE0457
:1003E000E604F404040519052F0540054C055305E2
:1003F00070058E05A405B205C205E505EB0557722B
:100400006F6E672074696D6520666F726D61742E02
:10041000204D757374206265202264643A68683ADE
:100420006D6D220057726F6E672074696D6520666E
:100430006F726D61742E204D757374206265202279
:1004400064643A68683A6D6D3A73732200416C6176
:10045000726D204D6F6465206D61746368657320F3
:10046000005B446179203A20686F757273203A20EE
:100470006D696E75746573203A207365636F6E6481
:10048000735D202D3E20005B44617465203A206836
:100490006F757273203A206D696E75746573203ABA
:1004A000207365636F6E64735D202D3E20005B4892
:1004B0006F757273203A206D696E75746573203A9A
:1004C000207365636F6E64735D202D3E20005B4D6D
:1004D000696E75746573203A207365636F6E64731B
:1004E0005D202D3E20005B5365636F6E64735D205D
:1004F0002D3E20004F6E636520706572207365632A
:100500006F6E6400496E636F727265637420616C14
:1005100061726D206D6F6465005B253032753A2520
:100520003032753A253032753A253032755D005BD0
:10053000253032753A253032753A253032755D00F6
:100540005B253032753A253032755D005B253032DF
:10055000755D005B446179203A20686F7572732085
:100560003A206D696E75746573205D202D3E200004
:100570005B44617465203A20686F757273203A207D
:100580006D696E75746573205D202D3E20005B489B
:100590006F757273203A206D696E757465735D2096
:1005A0002D3E20005B4D696E757465735D202D3E98
:1005B00020004F6E636520706572206D696E7574E2
:1005C000650025732C20253032752F253032752F8C
:1005D000253032752C20253032753A253032753A67
:1005E00025303275006572726F72002530327525C4
:1005F0006325303275256325303275256325303209
:1006000075256325303275256325303275256325C0
:1006100030327500002124272A2D3033002225286E
:100620002B2E313400202326292C2F3205050505D9
:10063000030303030101010404030606060606067C
:10064000060601040501050103020202020202017D
:10065000020205050404030404010304070707015B
:1006600002081010204080040810204002020408F4
:100670001020408001028020400420010102040873
:10068000102001408040800102080408800410040A
:100690000201000008090000000000000000000046
:1006A000000000000000000000000000000000004A
:1006B000000000000000000000000000000000003A
:1006C000000000000000420D751F21251B260A288E
:1006D000162A2F2D982E022F11241FBECFEFD1E204
:1006E000DEBFCDBF13E0A0E0B2E0ECE4F9E602C06B
:1006F00005900D92AA3BB107D9F71CE0AAEBB3E035
:1007000001C01D92A335B107E1F716E0C8EDD6E0B0
:1007100004C02297FE010E94EF30C63CD107C9F702
:100720000E94391E0C94A4340C940000EF92FF92A6
:100730000F93DF93CF93CDB7DEB760970FB6F894E2
:10074000DEBF0FBECDBFA82F002309F461C07E011C
:100750000894E11CF11C88E0F70111928A95E9F7F1
:1007600029833A834B835C836D837E83AF83988731
:1007700080E2801BE82FFF27E7FDF09549815A8131
:100780006B817C81181684F019861A861B861C865C
:10079000882799278E1B9F0B04C0440F551F661F87
:1007A000771F8A95D2F728C0202F332727FD309551
:1007B000DB01CA01022E04C0880F991FAA1FBB1FAC
:1007C0000A94D2F789879A87AB87BC8704C076954D
:1007D000679557954795EA95D2F78D819E81AF81B0
:1007E000B88504C0880F991FAA1FBB1F2A95D2F78E
:1007F000482B592B6A2B7B2B4D875E876F87788B15
:1008000029853A854B855C856D857E85AF85988980
:100810008A2F60960FB6F894DEBF0FBECDBFCF9182
:10082000DF910F91FF90EF900895AEE5B0E0EBE11E
:10083000F4E00C94B630A8E04E010894811C911CA1
:10084000F4016A2E11926A94E9F729833A834B8363
:100850005C836D837E838F839887CE010996FC012C
:100860001192AA95E9F7A986BA86CB86DC86ED8631
:10087000FE860F87188B29843A844B845C84ED8430
:10088000FE840F85188969807A808B809C806DA694
:100890007EA68FA698AA6D807E808F809884E114B2
:1008A000F1040105110509F0B3C362147304840453
:1008B000950408F03DC100E0201600E0300601E09C
:1008C000400600E0500688F41FEF21163104410471
:1008D000510439F030F048E0E42EF12C012D112DB7
:1008E00018C0EE24FF24870114C020E0221620E067
:1008F000320620E0420621E0520630F038E1E32ED5
:10090000F12C012D112D05C020E1E22EF12C012D3D
:10091000112DD201C1010E2C04C0B695A795979553
:1009200087950A94D2F78B559D4FDC012C9180E27C
:1009300090E0A0E0B0E08E199F09A00BB10B7C0104
:100940008D01E21AF10801091109E114F104010510
:100950001105A1F10E2C04C0220C331C441C551CA3
:100960000A94D2F7A40193010E2C04C0220F331F66
:10097000441F551F0A94D2F780E290E08E199F0918
:100980006DA47EA48FA498A804C0969487947794AD
:1009900067948A95D2F7622A732A842A952AADA48D
:1009A000BEA4CFA4D8A804C0AA0CBB1CCC1CDD1CC0
:1009B000EA94D2F7ADA6BEA6CFA6D8AA6201EE24CD
:1009C000FF24CDAADEAAEFAAF8AE92018101207021
:1009D000307009AF1AAF2BAF3CAFC401B301A70110
:1009E00096010E9479307B018C01C401B3012DA9CD
:1009F0003EA94FA958AD0E947930C901DA013C01E6
:100A00004D01C401B30129AD3AAD4BAD5CAD0E94BF
:100A100033309B01AC018701FF24EE24ADA4BEA4BA
:100A2000CFA4D8A8C601AA27BB2757016801A82AC6
:100A3000B92ACA2ADB2AA216B306C406D506E0F4F0
:100A400008946108710881089108A20CB31CC41CA9
:100A5000D51CA214B304C404D50470F0A216B306C6
:100A6000C406D50648F40894610871088108910805
:100A7000A20CB31CC41CD51CA21AB30AC40AD50A02
:100A8000C601B5012DA93EA94FA958AD0E947930E4
:100A90007B018C01C601B5012DA93EA94FA958AD16
:100AA0000E947930C901DA015C016D01C601B5010E
:100AB00029AD3AAD4BAD5CAD0E9433309B01AC012A
:100AC0008701FF24EE248DA59EA5AFA5B8A9A0702F
:100AD000B070E82AF92A0A2B1B2BE216F30604074A
:100AE0001507C0F40894A108B108C108D108E20CA8
:100AF000F31C041D151DE214F3040405150550F044
:100B0000E216F3060407150728F40894A108B108B3
:100B1000C108D108D3019927882786017501E82AE1
:100B2000F92A0A2B1B2BE9AAFAAA0BAB1CABCFC4E0
:100B3000211431044104510471F461E070E080E05B
:100B400090E020E030E040E050E00E947930C901C0
:100B5000DA011C012D0100E0201600E0300601E062
:100B6000400600E0500688F41FEF211631044104CE
:100B7000510431F028F048E050E060E070E017C028
:100B800040E050E060E070E012C020E0221620E07B
:100B9000320620E0420621E0520628F048E150E00B
:100BA00060E070E004C040E150E060E070E0D2013D
:100BB000C101042E04C0B695A795979587950A9410
:100BC000D2F78B559D4FDC012C91E0E2EE2EF12CFB
:100BD000012D112DD801C701841B950BA60BB70B56
:100BE000821B9109A109B1090097A105B10561F422
:100BF00064015301A218B308C408D50831E0632E7C
:100C0000712C812C912C1EC16F968FAF6F97082E7F
:100C100004C0220C331C441C551C0A94D2F7EE2D40
:100C2000E81B640153010E2E04C0D694C794B794F8
:100C3000A7940A94D2F7A40193016F960FAC6F9713
:100C400004C0220F331F441F551F0A94D2F76DA40E
:100C50007EA48FA498A80E2E04C0969487947794AF
:100C600067940A94D2F784017301E22AF32A042BD1
:100C7000152BE9A6FAA60BA71CA7320188249924F4
:100C8000920181012070307021960CAF1DAF2EAF04
:100C90003FAF2197C601B501A40193010E947930AD
:100CA0007B018C01C601B501A40193010E9479303A
:100CB000C901DA0125968CAF9DAFAEAFBFAF2597C6
:100CC000BC01CD0121962CAD3DAD4EAD5FAD219760
:100CD0000E9433309B01AC018701FF24EE24A9A4BC
:100CE000BAA4CBA4DCA4C601AA27BB275C016D0172
:100CF000AE28BF28C02AD12AA216B306C406D5063C
:100D000060F525966CAD7DAD8EAD9FAD259761509C
:100D100070408040904025966CAF7DAF8EAF9FAF06
:100D20002597A20CB31CC41CD51CA214B304C40484
:100D3000D50498F0A216B306C406D50670F4615027
:100D400070408040904025966CAF7DAF8EAF9FAFD6
:100D50002597A20CB31CC41CD51CA21AB30AC40A42
:100D6000D50AC601B501A40193010E9479307B0127
:100D70008C01C601B501A40193010E947930C9011B
:100D8000DA013C014D01C401B30121962CAD3DAD0A
:100D90004EAD5FAD21970E9433309B01AC018701BE
:100DA000FF24EE2489A59AA5ABA5BCA5A070B070C0
:100DB00057016801A82AB92ACA2ADB2AA216B30653
:100DC000C406D506E0F4089461087108810891080A
:100DD000A20CB31CC41CD51CA214B304C404D504B7
:100DE00070F0A216B306C406D50648F4089461084C
:100DF000710881089108A20CB31CC41CD51C8DA5D8
:100E00009EA5AFA5B8A96F960FAC6F9704C0880FC9
:100E1000991FAA1FBB1F0A94D2F78DA79EA7AFA741
:100E2000B8ABA21AB30AC40AD50A2596ECACFDAC3D
:100E30000EAD1FAD2597D70199278827682A792AF3
:100E40008A2A9B2A82012227332729960CAF1DAFBD
:100E50002EAF3FAF2997A2019101407050702D969F
:100E60002CAF3DAF4EAF5FAF2D97C601B5012996B0
:100E70002CAD3DAD4EAD5FAD29970E9479307B0121
:100E80008C01C601B50129962CAD3DAD4EAD5FADCF
:100E900029970E947930C901DA0161968CAF9DAF24
:100EA000AEAFBFAF6197BC01CD012D962CAD3DAD6E
:100EB0004EAD5FAD2D970E9433309B01AC01870191
:100EC000FF24EE24ADA4BEA4CFA4D8A8C601AA27AF
:100ED000BB2757016801A82AB92ACA2ADB2AA21609
:100EE000B306C406D50660F561966CAD7DAD8EADDA
:100EF0009FAD6197615070408040904061966CAFAB
:100F00007DAF8EAF9FAF6197A20CB31CC41CD51CE4
:100F1000A214B304C404D50498F0A216B306C40600
:100F2000D50670F4615070408040904061966CAF7F
:100F30007DAF8EAF9FAF6197A20CB31CC41CD51CB4
:100F4000A21AB30AC40AD50AC601B50129962CAD66
:100F50003DAD4EAD5FAD29970E9479307B018C018C
:100F6000C601B50129962CAD3DAD4EAD5FAD2997BB
:100F70000E947930C901DA015C016D01C601B50139
:100F80002D962CAD3DAD4EAD5FAD2D970E9433300B
:100F90009B01AC018701FF24EE248DA59EA5AFA582
:100FA000B8A9A070B070E82AF92A0A2B1B2BE21608
:100FB000F30604071507C0F40894A108B108C10896
:100FC000D108E20CF31C041D151DE214F304040502
:100FD000150550F0E216F3060407150728F40894E7
:100FE000A108B108C108D1086196ECACFDAC0EAD0A
:100FF0001FAD6197D7019927882796018501082B96
:10100000192B2A2B3B2B09AB1AAB2BAB3CAB62C287
:101010006E147F048006910608F451C220E0E216A7
:1010200020E0F20621E0020720E0120788F43FEFFB
:10103000E316F1040105110531F028F048E050E015
:1010400060E070E017C040E050E060E070E012C087
:1010500040E0E41640E0F40640E0040741E01407F5
:1010600028F048E150E060E070E004C040E150E06A
:1010700060E070E0D801C701042E04C0B695A795C2
:10108000979587950A94D2F78B559D4FDC012C914B
:1010900030E2A32EB12CC12CD12CD601C501841B6A
:1010A000950BA60BB70B821B9109A109B1090097FB
:1010B000A105B10589F4E614F7040805190508F43B
:1010C000F2C16DA47EA48FA498A862147304840452
:1010D000950408F0E8C1F3C16E968FAF6E97082EA5
:1010E00004C0EE0CFF1C001F111F0A94D2F76A2DDA
:1010F000681BD201C101062E04C0B695A79597952D
:1011000087950A94D2F75C016D01AE28BF28C02AEA
:10111000D12AADA2BEA2CFA2D8A6720161016E965D
:101120000FAC6E9704C0CC0CDD1CEE1CFF1C0A94A7
:10113000D2F7C9A2DAA2EBA2FCA264015301062EE7
:1011400004C0D694C794B794A7940A94D2F7D40154
:10115000C3016E960FAC6E9704C0880F991FAA1F2B
:10116000BB1F0A94D2F7EDA4FEA40FA518A904C0D2
:1011700016950795F794E7946A95D2F737014801D9
:10118000682A792A8A2A9B2A6D8E7E8E8F8E98A253
:10119000EDA0FEA00FA118A538018824992498017C
:1011A00087012070307065960CAF1DAF2EAF3FAF3A
:1011B0006597C601B501A40193010E9479307B01B6
:1011C0008C01C601B501A40193010E947930C901C7
:1011D000DA011C012D01C201B10165962CAD3DADB6
:1011E0004EAD5FAD65970E9433309B01AC01870126
:1011F000FF24EE24AD8CBE8CCF8CD8A0C601AA27CC
:10120000BB2757016801A82AB92ACA2ADB2AA216D5
:10121000B306C406D50600F5089421083108410834
:101220005108EDA0FEA00FA118A5AE0CBF1CC01E5A
:10123000D11EAE14BF04C006D10670F0A216B306CC
:10124000C406D50648F4089421083108410851081D
:10125000AE0CBF1CC01ED11EA21AB30AC40AD50A06
:10126000C601B501A40193010E9479307B018C0174
:10127000C601B501A40193010E947930C901DA01C8
:101280003C014D01C401B30165962CAD3DAD4EADA1
:101290005FAD65970E9433309B01AC018701FF244D
:1012A000EE248D8D9E8DAF8DB8A1A070B0705701CA
:1012B0006801A82AB92ACA2ADB2AA216B306C406DC
:1012C000D50600F5089461087108810891086DA1A0
:1012D0007EA18FA198A5A60EB71EC81ED91EA61660
:1012E000B706C806D90670F0A216B306C406D5061E
:1012F00048F408946108710881089108A60EB71E89
:10130000C81ED91ED601C501821B930BA40BB50BB9
:10131000898F9A8FAB8FBC8FD10199278827640161
:101320005301A82AB92ACA2ADB2AA9AABAAACBAA8F
:10133000DCAA860175012FEF3FEF40E050E0E2228A
:10134000F32204231523A601662777276D964CAF59
:101350005DAF6EAF7FAF6D97A9A0BAA0CBA0DCA0A8
:101360006FEF7FEF80E090E0A622B722C822D9225B
:1013700089A19AA1ABA1BCA11D0144245524C80197
:10138000B701A60195010E94333069966CAF7DAF1D
:101390008EAF9FAF6997C801B701A20191010E946A
:1013A00033303B014C016D966CAD7DAD8EAD9FAD84
:1013B0006D97A60195010E9433307B018C016D96DB
:1013C0006CAD7DAD8EAD9FAD6D97A20191010E9478
:1013D00033305B016C01A8019701260D371D481DB4
:1013E000591D69966CAC7DAC8EAC9FAC6997C401FD
:1013F000AA27BB27280F391F4A1F5B1F2E153F0541
:101400004007510748F4E12CF12C61E0062F112D23
:10141000AE0CBF1CC01ED11ECA01AA27BB27BC012F
:10142000CD016A0D7B1D8C1D9D1D698C7A8C8B8C6A
:101430009C8C661677068806990640F16615770536
:101440008805990509F043C0D9019927882769962D
:101450002CAD3DAD4EAD5FAD699740705070820FC1
:10146000931FA41FB51F2DA53EA54FA558A96E9685
:101470000FAC6E9704C0220F331F441F551F0A94F0
:10148000D2F7281739074A075B0708F509A91AA9EF
:101490002BA93CA9015010402040304009AB1AABA9
:1014A0002BAB3CAB14C066247724430121E030E031
:1014B00040E050E029AB3AAB4BAB5CAB0BC06624D1
:1014C0007724430119AA1AAA1BAA1CAA03C06624DE
:1014D00077244301FE01719688E0DF011D928A9511
:1014E000E9F7A9A8BAA8CBA8DCA8A98ABA8ACB8AA6
:1014F000DC8A6D8A7E8A8F8A988E29A93A894B89DF
:101500005C89662D7E898F89988DC25ADF4FE2E112
:101510000C94D2308F929F92AF92BF92CF92DF9273
:10152000EF92FF920F931F93DF93CF9300D0CDB72D
:10153000DEB78EE096E06AED71E00E94CA268EE08A
:1015400096E060E072E00E9411278EE096E069EA82
:1015500073E00E94F8268EEB93E069EA73E00E9444
:10156000A115019709F063C18EE096E06DEB71E083
:101570000E94CA268EEB93E069EA73E00E94221370
:101580008093BA03813009F04DC18EE096E062E1AC
:1015900072E00E9411274091730450E060E070E017
:1015A0008EE096E02AE030E00E9426278EE096E06A
:1015B00061E372E00E9411278EEB93E06091730467
:1015C0000E94DE11482F552747FD5095652F752F36
:1015D0008EE096E02AE030E00E9426278EE096E03A
:1015E00068EA71E00E94CA268EEB93E06091730472
:1015F00043E050E00E943A118EE096E066E971E027
:101600000E949B2600E00AC0E02FF0E0EB58FB4F61
:101610008EE096E060810E947A260F5F80917404CC
:10162000081790F38EE096E00E948C268EE096E0FC
:101630006CE771E00E949B2600E00AC0E02FF0E01A
:10164000EB58FB4F8EE096E060810E94E5260F5F2D
:1016500080917404081790F38EE096E00E948C2627
:101660008EE096E067E671E00E94CA268EEB93E07A
:101670006091730444E250E027EB33E001E00E9404
:10168000C510892B31F48EE096E06DE571E00E9483
:10169000CA2681E089831A828EEB93E060917304FD
:1016A00042E250E09E012F5F3F4F02E00E94C510D2
:1016B0009093BC038093BB03892B09F0A8C08EE0F4
:1016C00096E068E471E00E94CA268EEB93E0609198
:1016D000730441E250E00E943A111092BD0351C0E0
:1016E0008EE096E06FE171E00E94CA269090BB0404
:1016F0008824E090BA04FF24E828F9288EE096E0D8
:1017000067E372E00E94112700E010E08EE096E0AF
:10171000B801A7012AE030E00E9464278EE096E03D
:101720006FE472E00E94F8268EE096E06EE572E0CB
:101730000E94112700E00AC0E02FF0E0E254FB4FC6
:101740008EE096E060810E947A260F5F8091BD0452
:10175000081790F38EE096E00E948C268091BD03DE
:101760008F5F8093BD031092BC031092BB0302C035
:101770000F9789F10E9413196A157B058C059D0549
:1017800020F40E9413195B016C018091BD03853028
:1017900010F50E9413196A197B098C099D09605381
:1017A000754780409040B8F48EE096E066E371E0C3
:1017B0000E94CA268EEB93E048E853E160E070E0B7
:1017C0000E94B60D90E09093BC038093BB038531DB
:1017D000910571F685CF68EB7BE080E090E00E9498
:1017E000A9198EEB93E0609173040E941512809109
:1017F0006E0490916F04892B29F08EE096E06FE0E3
:1018000071E019C08EE096E061E071E014C08EE0F6
:1018100096E06DEE70E00E94CA268EE096E00E948F
:101820008C260BC08EE096E06FED70E004C08EE079
:1018300096E06CEC70E00E94CA268EE096E00E9472
:101840008C2668E873E180E090E00E94A9190F906F
:101850000F90CF91DF911F910F91FF90EF90DF904C
:10186000CF90BF90AF909F908F9008958EE096E0BC
:1018700060EF71E00E94CA268EEB93E060E00E9468
:1018800003140895FC01E950FF4F8081E75FF040A9
:10189000882309F4C4C0E750FF4F8081E95FF0401E
:1018A000882309F5E650FF4F80818230A1F0833014
:1018B00030F4882371F0813009F0B1C008C0843061
:1018C00071F0843050F0853009F0A9C00AC082E080
:1018D000089581E0089583E0089584E0089585E007
:1018E000089586E00895813041F4E650FF4F8081ED
:1018F000882309F094C087E00895823089F4E65087
:10190000FF4F8081813031F0813030F0823009F03A
:1019100086C004C089E0089588E008958AE00895AB
:101920008330E9F4E650FF4F8081823091F08330BC
:1019300030F4882361F0813009F071C006C0833033
:1019400051F0843009F06BC008C08CE008958BE042
:1019500008958DE008958EE008958FE00895843015
:1019600011F5E650FF4F80818330A9F0843028F4D0
:10197000813059F0823068F40AC0853081F08530BA
:1019800060F0863009F04BC00CC081E1089580E121
:10199000089582E1089583E1089584E1089585E141
:1019A000089586E108958530D9F4E650FF4F80818F
:1019B000823081F0833028F4882351F0813079F52A
:1019C00005C0833049F0843051F508C088E108959E
:1019D00087E1089589E108958AE108958BE10895EA
:1019E000863059F4E650FF4F8081882321F0813002
:1019F000B1F48DE108958CE10895873081F4E650CB
:101A0000FF4F8081813029F0813028F0823039F415
:101A100004C08FE108958EE1089580E2089580E08A
:101A20000895CF93DF93FC0180E092ECA1E0B0E059
:101A300080839183A283B383E055FF4F118210828C
:101A4000E05BF040CF018A5B9F4FDC0186E0ED0157
:101A500019928A95E9F7EB5AFF4F8FE08083399707
:101A600082E08193119211928BE4819382E38193BE
:101A700011921082389680E094E091838083DF9108
:101A8000CF9108958EEB93E00E94110D0895CF93AE
:101A9000DF93EC018D599F4FFC018FE1DF011D9217
:101AA0008A95E9F7CE57DF4F2881C258D04081E0B0
:101AB00056C0FE01E80FF11DEE57FF4F90818F5F7A
:101AC000FE01E80FF11DEE57FF4FE081482F4F5FF9
:101AD000E930F1F4E92F903208F0EFE190E02E2F99
:101AE00030E0215030400CC0AC0FBD1FAD59BF4F8E
:101AF000FE01E80FF11DEE57FF4F80818C939F5F31
:101B0000892F840FA92FB0E0A217B3076CF325C06B
:101B1000E830F9F4E92F903208F0EFE190E02E2F51
:101B200030E0215030400CC0AC0FBD1FAD59BF4F4D
:101B3000FE01E80FF11DEE57FF4F80818C939F5FF0
:101B4000892F840FA92FB0E0A217B3076CF382E0AE
:101B50000AC0892F840F815002C081E004C082171F
:101B600008F4A7CF80E0DF91CF9108958F929F92E4
:101B7000AF92BF92CF92DF92EF92FF920F931F939B
:101B8000CF93DF93EC014A015B018C0109501F4F99
:101B900081E4D8011D928A95E9F762C08C810E9488
:101BA000781B04970CF455C08C810E949C1BF80193
:101BB0008083803809F04DC08C810E949C1B8E016F
:101BC00008501F4FD8018C938C810E949C1BC750DA
:101BD000DF4F8883C95FD0408C810E949C1BC65018
:101BE000DF4F8883CA5FD0400E9413196B017C01CC
:101BF0008C810E94781BF801208130E082179307C6
:101C00000CF04EC00E9413196C197D098E099F09B2
:101C1000681579058A059B0508F042C00E941319D2
:101C20006C157D058E059F0518F7DECF8C810E940F
:101C30009C1BD7018D937D010F5F1F4F023411054F
:101C4000F9F0F601808190E003968017910774F710
:101C500017C00E9413196C157D058E059F0520F491
:101C60000E9413196B017C010E9413196C197D09E4
:101C70008E099F09681579058A059B0508F48ECFA2
:101C8000CE010E94420CDF91CF911F910F91FF90E6
:101C9000EF90DF90CF90BF90AF909F908F9008957E
:101CA0009BEFE92EF12CEC0EFD1E04E010E088EF16
:101CB000C82ED12CCC0EDD1EC4CFBF92CF92DF92A6
:101CC000EF92FF920F931F93CF93DF93EC01C62EF9
:101CD000B42E0596FC0181E4DF011D928A95E9F797
:101CE0000E9413197B018C01DD2418C08C810E9495
:101CF0009C1BFE01ED0DF11D8583D394DC1438F59A
:101D0000B0E4BD1520F10E9413196E157F05800700
:101D1000910720F40E9413197B018C01DC1428F038
:101D20008C810E94781B892B91F00E9413196E19E7
:101D30007F09800B910B643171058105910538F4A1
:101D40008C810E94781B1816190684F2DCCFDE0104
:101D5000A055BF4F81E0B81661F4FE01ED0DF11DF5
:101D6000948180E0238130E0822B932B8D939C9390
:101D700002C01D921C92DD2041F4C055DF4F8FEF51
:101D80009FEF99838883C05BD040FE01E055FF4FF1
:101D900080819181DF91CF911F910F91FF90EF9002
:101DA000DF90CF90BF900895CF93DF93EC018C81AB
:101DB0008823A1F483E196E00E945228688179810A
:101DC0008A819B814C810E94BD1D8C810E94D71B02
:101DD0008FE261E00E94C31A8FE215C08130B1F436
:101DE00083E196E00E946328688179818A819B81E2
:101DF0004C810E94BD1D8C810E94D71B84E061E054
:101E00000E94C31A84E061E00E94E11A8C81882359
:101E100051F48091390890913A08A0913B08B09113
:101E20003C0884600BC0813089F48091390890911E
:101E30003A08A0913B08B0913C088860809339082B
:101E400090933A08A0933B08B0933C08CE0148EE2B
:101E500053E060E070E00E94B60D8E3109F481E03D
:101E6000DF91CF910895AF92BF92CF92DF92EF9220
:101E7000FF920F931F93CF93DF937C015AE5C52EFA
:101E8000D12CC80ED91EF601808191818F519740C7
:101E900019F420E030E053C08701045A1F4FE601D7
:101EA00042E6A42EB12CAE0CBF1C6881798183E17F
:101EB00096E0F80141918F010E941728688179818D
:101EC0006F5F7F4F798368830A151B0571F783E184
:101ED00096E0F80140810E941728F60180819181E7
:101EE00001969183808387010D591F4FE701C65AE0
:101EF000DF4F82E890E0E80EF91E6881798183E186
:101F000096E0F80141918F010E941728688179813C
:101F10006F5F7F4F798368830E151F0571F783E12B
:101F200096E040EF0E941728688179816F5F7F4FAC
:101F300083E196E040EF0E94172821E030E0C901DC
:101F4000DF91CF911F910F91FF90EF90DF90CF9095
:101F5000BF90AF900895DF92EF92FF920F931F937F
:101F6000CF93DF93EC01C950DF4F8881C75FD0402A
:101F7000803839F0C750DF4F8881C95FD040863044
:101F800041F47CE5E72EF12CEC0EFD1ED70195E027
:101F900009C0C650DF4F8881CA5FD040882389F3CB
:101FA00080E068C0FE01E90FF11DE350FF4F808122
:101FB0008D939150B8F7FE01EE59FF4FC550DF4F9A
:101FC000888180832A962881C550D140203208F02C
:101FD0002FE1CE018E579F4FFC0181E2DF011D9260
:101FE0008A95E9F730E0422F50E00AC0FE01E80F81
:101FF000F91FEB5FFE4F8081E358F04080833F5F25
:10200000832F90E0481759078CF7613029F4CE01EF
:102010000E94470DD82E0BC09E012D593F4FC9017C
:1020200060E270E04FE150E00E946531DD248E01F6
:102030000A5B1F4FC701B80146E050E00E945831CB
:102040000097B9F0FE01EE54FF4F80819181019617
:1020500091838083D801F70186E001900D92815031
:10206000E1F7CE016D2D0E94330F892B11F482E030
:1020700001C081E0DF91CF911F910F91FF90EF9010
:10208000DF9008956F927F929F92AF92BF92CF920E
:10209000DF92EF92FF920F931F93DF93CF93CDB711
:1020A000DEB75C01F62EE42ED22EC02E912E6DB638
:1020B0007EB68CE3861718F421E030E052C0262F5C
:1020C00030E02B5F3F4FEDB7FEB7E21BF30B0FB6CF
:1020D000F894FEBF0FBEEDBF0DB71EB70F5F1F4FC9
:1020E000C80160E070E0A9010E946531F4E0FF0ED4
:1020F000F801F082FCEFFF0EF8011182F282E38218
:10210000D482FF2021F4F5E0EF2EF12C15C0D80188
:102110008C2D992D9C01F901819115968C93159721
:1021200011968E2F8C198F15B8F3FA94EF2CFF248B
:1021300086E090E0E80EF91EF50184810E94D71B2D
:10214000DD2408C0E00FF11F8081F50164810E9449
:102150006D1CD394ED2DF0E0EE15FF0598F320E013
:1021600030E0C9010FB6F8947EBE0FBE6DBECF91B0
:10217000DF911F910F91FF90EF90DF90CF90BF9074
:10218000AF909F907F906F900895CF92DF92EF92E3
:10219000FF920F931F93DF93CF93CDB7DEB77C01F0
:1021A000702FCDB6DEB6802F90E00496ADB7BEB7E7
:1021B000A81BB90B0FB6F894BEBF0FBEADBF0DB7CD
:1021C0001EB70F5F1F4F11966C93F8014183528326
:1021D0007383D80140E050E009C0F901E40FF51F16
:1021E000808113968C9313974F5F5F4F119647171B
:1021F000A0F37C5FC701672F44E025E00E944210F6
:10220000C70167E041E00E945D0E892B01F5C7011F
:1022100048EE53E060E070E00E94B60D813111F0AD
:1022200090E01AC0F701E055FF4F4DEF50E0E40E8B
:10223000F51ED7019C9180E02E917D0144E05FEF77
:10224000E40EF51E30E0822B932B91838083F701FF
:10225000E055FF4F808191810FB6F894DEBE0FBE2E
:10226000CDBECF91DF911F910F91FF90EF90DF9046
:10227000CF9008959F92AF92BF92CF92DF92EF924C
:10228000FF920F931F93DF93CF9300D00F92CDB7A0
:10229000DEB77C01962E6A01A6EBAA2EB12CA80E01
:1022A000B91E81E4D5011D928A95E9F769834A83B5
:1022B000DB82C70163E044E024E08E010F5F1F4F23
:1022C0000E944210C70167E041E00E945D0EE0EB12
:1022D000F0E0EE0EFF1ED7010D911C91E0E5FFEF3F
:1022E000EE0EFF1E0115110509F058C0C70140EDA3
:1022F00057E060E070E00E94B60D882319F401E019
:1023000010E04CC0853119F0082F10E047C02DEFC8
:1023100030E0E20EF31ED7014C91F7012291DF016C
:102320008E917D01E5E0FFEFEE0EFF1E8915B1F500
:10233000942F80E030E0822B932B8C159D0571F556
:102340002FEF30E0E20EF31ED7018C91E1E0FFEFBA
:10235000EE0EFF1E873110F086E102C0882321F0C7
:1023600020E0482F50E015C081E0D5018C93E7EBC9
:10237000F0E0EE0EFF1E80E3D7018C930FC0F70153
:10238000E80FF91FE150FF4F8081E954F04080834E
:102390002F5F822F90E0481759078CF7C8010F90E4
:1023A0000F900F90CF91DF911F910F91FF90EF90C1
:1023B000DF90CF90BF90AF909F900895EF92FF92E3
:1023C0000F931F93DF93CF930F92CDB7DEB77C01AE
:1023D000698361E043E021E08E010F5F1F4F0E949F
:1023E0004210C70166E040E00E945D0EF701918552
:1023F0008981981789F420EB30E0E20EF31EF70193
:102400008081918120E53FEFE20EF31E8F5F9F4FA9
:1024100019F0F701828501C080E00F90CF91DF9124
:102420001F910F91FF90EF900895EF92FF920F93FD
:102430001F93DF93CF930F92CDB7DEB77C016983F3
:1024400061E043E020E08E010F5F1F4F0E944210C9
:10245000C70167E041E00E945D0E25EB30E0E20E2F
:10246000F31EF70190812BE43FEFE20EF31EF7011C
:102470008185981719F021E030E02CC0F701938591
:1024800080E0228530E0282B392B80EB90E0E80EAD
:10249000F91EF7013183208380E59FEFE80EF91ED6
:1024A00021153105B9F4C70140E157E260E070E061
:1024B0000E94B60D8F3061F4EDEFF0E0EE0EFF1EDE
:1024C000F701908180E0229130E0282B392B02C067
:1024D000282F30E0C9010F90CF91DF911F910F910C
:1024E000FF90EF9008958F929F92AF92BF92CF92FC
:1024F000DF92EF92FF920F931F93DF93CF93CDB7AD
:10250000DEB765970FB6F894DEBF0FBECDBF5C0196
:102510004A01D22EC32E83E196E0AE014F5F5F4F9A
:102520000E9420282D2D3C2DC901AC01881599054C
:1025300008F4A4010A30110518F40AE010E006C0FE
:102540002CE00138120710F000E81CE0970181E050
:10255000253F380710F024EF31E08E818F838D8185
:1025600088878C8189878B818A878A818B878981FB
:102570008C871D868E869F86488B598B0A8B1B8B7A
:102580002C8B3D8BC5016FE046E023E08E01095F97
:102590001F4F0E944210C50167E040E00E945D0E9F
:1025A000F501928580E0218530E0282B392B80EBE6
:1025B00090E0A80EB91EF5013183208380E59FEFDE
:1025C000A80EB91E2115310549F5F501838525EBC6
:1025D00030E0A20EB31EF50180832BE43FEFA20E84
:1025E000B31EC50148EE53E060E070E00E94B60DF6
:1025F000182F64E670E080E090E00E94A9191B307B
:1026000059F48CEF90E0A80EB91EF5018081853059
:1026100019F421E030E002C0212F30E0C9016596B5
:102620000FB6F894DEBF0FBECDBFCF91DF911F91E3
:102630000F91FF90EF90DF90CF90BF90AF909F9061
:102640008F900895EF92FF920F931F934CE350E009
:102650002CE430E004E610E0EE24FF240E94731224
:102660001F910F91FF90EF900895BF92CF92DF924C
:10267000EF92FF920F931F93DF93CF9300D00F92AF
:10268000CDB7DEB77C01D62EC42EB22E69834A8325
:102690002B8363E046E026E08E010F5F1F4F0E9410
:1026A0004210C70166E041E00E945D0E20EB30E081
:1026B000E20EF31EF7018081918120E53FEFE20EEB
:1026C000F31E892B91F481E590E0E80EF91EF701E5
:1026D000D1927F01C08222E030E0E20EF31EF701CA
:1026E000B0822CEA3FEFE20EF31EF701E055FF4FF8
:1026F000808191810F900F900F90CF91DF911F916A
:102700000F91FF90EF90DF90CF90BF900895FC0164
:10271000262FDC01AE5ABF4FEF5AFF4F60814C911C
:102720000E9435130895EF92FF920F931F937C013F
:1027300060E046E024E000E010E00E944210C701A3
:1027400066E041E00E945D0E1F910F91FF90EF90B7
:102750000895FF920F931F93CF93DF93EC010E9494
:102760009313CE0161E00E948713892B19F0E2E0F8
:10277000FE2E07C0CC5ADF4F81E08883C455D0407D
:10278000FF248E01065A1F4FF8016081718183E199
:1027900096E040EF0E941728F801608171816F5F19
:1027A0007F4F83E196E040EF0E94172880E0FF20F2
:1027B00009F481E0DF91CF911F910F91FF9008956F
:1027C000EF92FF920F931F937C0161E049E020E0BC
:1027D00000E010E00E94421064EF71E080E090E0C1
:1027E0000E94A919C70148EE53E060E070E00E9422
:1027F000B60D90E0813009F491E0892F1F910F917F
:10280000FF90EF900895CF93DF93EC01623018F0C2
:1028100081E08C8301C06C838C81882331F486E154
:1028200061E00E94C31A86E107C0813041F486E06E
:1028300061E00E94C31A86E061E00E94E11A64E64A
:1028400070E080E090E00E94A919CE010E94D40EB1
:102850008130A1F1C850DF4F8881C85FD0408C30F3
:1028600071F4C750DF4F8881C95FD040882339F4A5
:10287000C650DF4F8881CA5FD0408823F9F0CE016F
:102880000E94E0138823D1F48EE096E06FE172E0BD
:102890000E94CA2683E196E06CE041E00E947C2819
:1028A00060E375E780E090E00E94A91983E196E07B
:1028B0006CE040E00E947C2880E003C0CE010E94D2
:1028C000A913DF91CF910895AF92BF92DF92EF925B
:1028D000FF920F931F93DF93CF93CDB7DEB765972A
:1028E0000FB6F894DEBF0FBECDBF5C016D8B6031BB
:1028F00010F08FE08D8B19821A821B821C8246E0B9
:10290000D42EFE013596DF018D2D1D928A95E9F7B3
:10291000C50161E047E02CE08E010B5E1F4F0E9475
:102920004210C50164E040E00E945D0EB5016B5F9E
:102930007F4F83E196E07E010894E11CF11CA70122
:1029400024E00E949E271B861C861D861E86FE0193
:102950003F96DF011D92DA94E9F7EFEFF1E0659120
:1029600074918E01055F1F4FC8010E945131C7014C
:10297000B8010E947731009719F021E030E009C0DA
:10298000E5E5F0E0AE0EBF1E8D89D5018C9320E009
:1029900030E0C90165960FB6F894DEBF0FBECDBF1B
:1029A000CF91DF911F910F91FF90EF90DF90BF903B
:1029B000AF9008954F925F926F927F929F92AF92E5
:1029C000BF92CF92DF92EF92FF920F931F93CF931C
:1029D000DF93EC012B01D42E72EBE72EF12CE80EE5
:1029E000F91EF7011182108266E4662E712C680EC2
:1029F000791E86E0F30111928A95E9F7CE01622FE4
:102A00000E9464148E010C5A1F4FF801808181309E
:102A100081F0CE0161E00E948713892B21F481E0CF
:102A2000F801808306C08FEF9FEFF70191838083C9
:102A300069C08E01045B1F4FCE0161E046E022E0D9
:102A40000E944210CE0166E041E00E945D0E892B9B
:102A500009F058C08D2D90E028EE33E0AC01429F84
:102A6000C001439F900D529F900D11245C01CC2416
:102A7000B7FCC094DC2C51EEA51653E9B50654E022
:102A8000C50650E0D50638F050EEA52E53E9B52E18
:102A900054E0C52ED12C0E9413197B018C011DC05E
:102AA000CE0160E00E94AB0FC301B20146E050E0EE
:102AB0000E945831009719F49924939401C09924E5
:102AC0000E9413196E157F058007910720F40E945C
:102AD00013197B018C01992071F50E9413196E194D
:102AE0007F09800B910B6A157B058C059D0510F500
:102AF000CE0148EE53E060E070E00E94B60D8C31EC
:102B0000F1F6CECFFE01E055FF4F8081918102C0EA
:102B1000892D90E0DF91CF911F910F91FF90EF9061
:102B2000DF90CF90BF90AF909F907F906F905F901D
:102B30004F9008959924CE010E949313892B41F35D
:102B4000E1CFEF92FF920F931F93DF93CF9300D0CB
:102B500000D000D0CDB7DEB77C018B01FB01019026
:102B60000020E9F73197E61BF70B3E9710F0FB01C9
:102B70001486C8010E94803183E196E0B8018E017D
:102B80000F5F1F4FA8010E942028C701B8014EE126
:102B90002FE00E94DA1426960FB6F894DEBF0FBE1F
:102BA000CDBFCF91DF911F910F91FF90EF900895CE
:102BB000482F613210F081E008958091F80484304C
:102BC00011F082E0089560934105A0E2B5E0842F02
:102BD0009C01F90102C081918D938E2F841B861771
:102BE000D0F380E00895589859988091B900816099
:102BF0008093B9008091B90082608093B900809180
:102C0000BC0080688093BC008091BC008061809390
:102C1000BC008091BC008F7B8093BC008091BC0085
:102C20008F7D8093BC008091BC00877F8093BC0027
:102C30008091390890913A08A0913B08B0913C08E6
:102C400086FD14C08091390890913A08A0913B0804
:102C5000B0913C0890FD0AC08091390890913A08E3
:102C6000A0913B08B0913C0893FF04C08091BC0048
:102C70008B7F03C08091BC0084608093BC008091F6
:102C8000BC008E7F8093BC0080916400806880933C
:102C9000640008951092F804E4E6F0E080818F77F4
:102CA0008083589A599AE9EBF0E080818E7F808387
:102CB00080818D7F808381E48093B80085E4809358
:102CC000BC0080E2EEEFF4E0DF01982F1D929A95B0
:102CD000E9F7E0E2F5E0DF01982F1D929A95E9F718
:102CE000E2E4F5E0DF011D928A95E9F70895882373
:102CF00049F01092640510926505109266051092D5
:102D0000670513C08091640590916505A0916605E3
:102D1000B09167050196A11DB11D80936405909344
:102D20006505A0936605B093670580916405909151
:102D30006505A0916605B0916705805A9648A14047
:102D4000B04010F480E0089510926405109265057B
:102D500010926605109267050E944A1681E0089558
:102D600085ED8093BC0081E00E94771605C080E06D
:102D70000E947716882321F48091BC0084FDF7CF50
:102D80001092F80408951F920F920FB60F920BB68F
:102D90000F9211242F933F934F935F936F937F93E1
:102DA0008F939F93AF93BF93EF93FF938091B9005D
:102DB00090E0887F90708036910509F4C3C0813619
:102DC0009105CCF58832910509F47BC089329105D3
:102DD000B4F48031910509F46FC0813191053CF460
:102DE000009709F40EC1089709F00FC165C088313A
:102DF000910509F466C0809709F007C177C0803457
:102E0000910509F48DC08134910544F48033910516
:102E100009F472C0C89709F0F8C072C080359105F6
:102E200009F472C08835910509F47FC08834910592
:102E300009F0EBC0E8C08839910509F4D8C0893998
:102E40009105ECF48837910509F47CC08937910528
:102E50004CF48836910509F475C08037910509F066
:102E6000D4C070C08838910509F4C1C0803991057B
:102E700009F46EC08038910509F0C7C069C0803B75
:102E8000910509F48CC0813B91054CF4803A910581
:102E900009F470C0883A910509F0B7C080C0803C41
:102EA000910509F4A8C0883C910509F4A4C0883BA9
:102EB000910509F0AAC088C08091F9048093BB00F5
:102EC00013C090911E0580911F05981708F09BC0B4
:102ED00090911E05E92FF0E0E250FB4F8081809336
:102EE000BB009F5F90931E0585EC82C00E94B016C8
:102EF00080E28093630589C080E38093630583C08B
:102F000088E38093630577C080911E059091BB0094
:102F1000E82FF0E0E250FB4F90838F5F80931E0517
:102F200090911E0580911F055FC080911E059091B4
:102F3000BB00E82FF0E0E250FB4F90838F5F80935F
:102F40001E0561C083E08093F80410926205CCCF27
:102F500080916205803208F04AC0809162059091AC
:102F6000BB00E82FF0E0EE5BFA4F90838F5F809319
:102F70006205BACF80916205803230F4E09162053B
:102F8000F0E0EE5BFA4F108260916205E091FC0484
:102F9000F091FD0482E495E070E009952CC084E096
:102FA0008093F8041092400510924105E091FA04D4
:102FB000F091FB04099580914105882329F481E073
:102FC000809341051092200590914005E92FF0E093
:102FD000E05EFA4F80818093BB009F5F9093400535
:102FE0009091400580914105981708F47DCF85E8C0
:102FF0008093BC000AC085EC8093BC001092F8045A
:1030000004C0109263050E94B016FF91EF91BF912A
:10301000AF919F918F917F916F915F914F913F9170
:103020002F910F900BBE0F900FBE0F901F90189511
:10303000DF92EF92FF920F931F93E82E062FF72E49
:10304000142FD22E413210F081E051C081E00E9455
:10305000771605C080E00E947716882321F48091BE
:10306000F8048823B9F782E08093F8048FEF809307
:10307000630510921E0510931F05AEEFB4E0202FDC
:103080003F2DC901FC0102C081918D938E2F801BC1
:103090008117D0F38E2D90E0880F991F8093F9044B
:1030A00085EE8093BC0081E00E947716DD2041F41C
:1030B0000BC080E00E947716882311F085E017C0CE
:1030C0008091F8048230A9F3809163058F3F11F459
:1030D00080E00DC080916305803211F482E007C06A
:1030E00080916305803311F084E001C083E01F917B
:1030F0000F91FF90EF90DF9008950F931F93CF9360
:10310000DF93182FEB01042F413210F081E03CC017
:1031100081E00E94771605C080E00E947716882320
:1031200021F48091F8048823B9F781E08093F804B2
:103130008FEF8093630510921E0500931F05110FFA
:1031400011601093F90485EE8093BC0081E00E9429
:10315000771608C080E00E947716882319F020E0D7
:1031600030E00FC08091F8048130A1F3F8CFFE0168
:10317000E20FF31FD901A250BB4F8C9180832F5FC8
:103180003F4F2017A0F380E0DF91CF911F910F9167
:1031900008951F920F920FB60F9211248F939F9351
:1031A000AF93BF9380914B0890914C08A0914D082C
:1031B000B0914E080196A11DB11D80934B089093CC
:1031C0004C08A0934D08B0934E08BF91AF919F91CA
:1031D0008F910F900FBE0F901F9018951F920F9216
:1031E0000FB60F9211248F939F93AF93BF9380914B
:1031F0004F0890915008A0915108B0915208019643
:10320000A11DB11D80934F0890935008A0935108C1
:10321000B0935208BF91AF919F918F910F900FBEC5
:103220000F901F9018958F929F92AF92BF92CF925E
:10323000DF92EF92FF920F931F938FB7F894A090B5
:103240004B08B0904C08C0904D08D0904E088FBFEE
:103250009501A60160E070E080E090E001E00E944E
:103260009603122FF32EE42ED52EC62EB72EA82E9F
:10327000892E02E00E949603B92F210FE1E0211769
:1032800008F0E0E03F0DF1E03F1508F0F0E09E2E81
:10329000930EE1E0931608F0E0E0FE2B4E0DA1E066
:1032A0004E1508F0A0E0FF2EF40EE1E0F41608F051
:1032B000E0E0AE2B5D0DF1E05D1508F0F0E00A2FC7
:1032C000050FE1E0051708F0E0E0FE2B6C0DA1E032
:1032D0006C1508F0A0E01F2F160FE1E0161708F09C
:1032E000E0E0AE2B7B0DF1E07B1508F0F0E0A70FDE
:1032F000E1E0A71708F0E0E0FE2B8A0D91E08A15C7
:1033000008F090E0F80FE1E0F81708F0E0E09E2BFD
:10331000B80D392D4F2D502F612F7A2F8F2F9B0FE6
:10332000E9E0AE2EBB24CC24DD24EE24FF2400E013
:1033300010E00E941504952FB901842F1F910F9161
:10334000FF90EF90DF90CF90BF90AF909F908F90C5
:103350000895AF92BF92CF92DF92EF92FF920F93B8
:103360001F935B016C0107C00E9413196E157F0546
:103370008007910720F40E9413197B018C010E94A1
:1033800013196E197F09800B910B6A157B058C054B
:103390009D0550F31F910F91FF90EF90DF90CF901C
:1033A000BF90AF9008958430910570F0BC0180E02B
:1033B00090E00E94422F26E636E646EE5FE30E944A
:1033C000D02F0E94162F03C0BC01660F771F6150DB
:1033D000704061F06150704049F0FB01EE0FFF1F3B
:1033E00031978FB7F8943197F1F78FBF089578949C
:1033F00084B7877F84BF10924B0810924C081092BC
:103400004D0810924E0884B5826084BD84B58160F9
:1034100084BD85B5826085BD85B5816085BDEEE6DC
:10342000F0E0808181608083E1E8F0E0808182606B
:103430008083808181608083E0E8F0E0808181602A
:103440008083E1EBF0E0808184608083E1E9F0E05B
:10345000808184608083E0EBF0E080818160808304
:10346000E0E9F0E0808181608083E4E6F0E0808143
:103470008E7F8083ECE7F0E080818F77808380818E
:1034800080648083EAE7F0E08081846080838081CB
:10349000826080838081806880831092C100109256
:1034A000C900089590916805982B9093680580FF56
:1034B00032C0809164008E7F8093640080917C0094
:1034C0008F7780937C0080917C00806480937C0067
:1034D00080917A00846080937A0080917A00826083
:1034E00080937A0080917A00806880937A0080913E
:1034F00064008F7780936400809164008B7F809359
:103500006400809164008D7F8093640080916500E9
:103510008E7F8093650008951F920F920FB60F92D1
:103520000BB60F9211242F933F934F935F936F939A
:103530007F938F939F93AF93BF93EF93FF93F894F1
:1035400081E08093B803E0E6F0E0808180688083CA
:1035500080818F7B808383E060E00E94E11A789411
:10356000FF91EF91BF91AF919F918F917F916F915B
:103570005F914F913F912F910F900BBE0F900FBE17
:103580000F901F901895282F30E0C901815A994F4C
:10359000FC019491245D394FF9018491882381F0D5
:1035A000E82FF0E0EC5EF94FE491F0E0662329F4B7
:1035B000808190958923808308958081892B8083E1
:1035C0000895482F50E0CA018E56994FFC0124916E
:1035D000CA01815A994FFC019491445D594FFA01F7
:1035E00034913323C1F1222331F1233021F480912E
:1035F00080008F7705C0243031F4809180008F7D6A
:103600008093800018C0213019F484B58F7704C0EE
:10361000223021F484B58F7D84BD0DC0263021F485
:103620008091B0008F7705C0273029F48091B000D9
:103630008F7D8093B000E32FF0E0E45EF94FE491DA
:10364000F0E0662329F48081909589238083089592
:103650008081892B80830895482F50E0CA018E56BF
:10366000994FFC012491CA01815A994FFC01949110
:10367000445D594FFA013491332319F420E030E0CE
:1036800035C0222331F1233021F4809180008F77DF
:1036900005C0243031F4809180008F7D80938000BC
:1036A00018C0213019F484B58F7704C0223021F47A
:1036B00084B58F7D84BD0DC0263021F48091B0008B
:1036C0008F7705C0273029F48091B0008F7D8093DB
:1036D000B000E32FF0E0EC5DF94FE491F0E0808181
:1036E00020E030E0892311F021E030E0C9010895A5
:1036F000882389F48091690590916A0580509E4FD6
:1037000020916B0530916C05821B930B60E072E099
:103710000E946630089580916D0590916E058050ED
:103720009E4F20916F0530917005821B930B60E0D6
:1037300072E00E94663008958823D1F440916B05B1
:1037400050916C058091690590916A0584179507E1
:1037500051F1FA01ED5AF54F2081CA01019660E05E
:1037600072E00E94663090936C0580936B0519C0DF
:1037700040916F055091700580916D0590916E0597
:103780008417950781F0FA01ED5AF74F2081CA019D
:10379000019660E072E00E9466309093700580931D
:1037A0006F0530E002C02FEF3FEFC9010895882375
:1037B00049F410926C0510926B0510926A051092F4
:1037C000690508951092700510926F0510926E05AC
:1037D00010926D0508951F920F920FB60F920BB6BF
:1037E0000F9211242F933F934F935F936F937F9387
:1037F0008F939F93AF93BF93EF93FF934091C60036
:10380000E0916905F0916A05CF01019660E072E0F0
:103810000E9466309C0180916B0590916C05281781
:10382000390739F0ED5AF54F408330936A052093FC
:103830006905FF91EF91BF91AF919F918F917F911A
:103840006F915F914F913F912F910F900BBE0F9011
:103850000FBE0F901F9018951F920F920FB60F92E8
:103860000BB60F9211242F933F934F935F936F9357
:103870007F938F939F93AF93BF93EF93FF93409169
:10388000CE00E0916D05F0916E05CF01019660E0EC
:1038900072E00E9466309C0180916F0590917005E6
:1038A0002817390739F0ED5AF74F408330936E05EA
:1038B00020936D05FF91EF91BF91AF919F918F91F3
:1038C0007F916F915F914F913F912F910F900BBE20
:1038D0000F900FBE0F901F901895982F662339F404
:1038E0008091C00085FFFCCF9093C6000895809121
:1038F000C80085FFFCCF9093CE000895882341F443
:103900008091C00085FFFCCF8DE08093C60008C089
:103910008091C80085FFFCCF8DE08093CE0008C069
:103920008091C00085FFFCCF8AE08093C600089597
:103930008091C80085FFFCCF8AE08093CE00089577
:10394000FC0110C03196662339F48091C00085FFD8
:10395000FCCF9093C60006C08091C80085FFFCCFC5
:103960009093CE009081992369F708952F923F920A
:103970004F925F926F927F928F929F92AF92BF927F
:10398000CF92DF92EF92FF920F931F93DF93CF932B
:10399000CDB7DEB7A1970FB6F894DEBF0FBECDBF8F
:1039A0006B017C0129013A0109A3611571058105AB
:1039B000910591F4002341F48091C00085FFFCCF74
:1039C00080E38093C6005BC08091C80085FFFCCF78
:1039D00080E38093CE0053C08824992454011E01B3
:1039E0000894211C311C8101080D191DC701B60165
:1039F000A30192010E947930F80160830894811C30
:103A0000911CA11CB11CC701B601A30192010E9427
:103A10007930C901DA016C017D01C114D104E104DE
:103A2000F10409F79101280D391DBE016F5F7F4F29
:103A3000D501C4010197A109B109AC01481959097F
:103A40001BC0FA01E20FF31FE081EA3010F4E05DE1
:103A500001C0E95CF9A1FF2339F48091C00085FF22
:103A6000FCCFE093C60006C08091C80085FFFCCF64
:103A7000E093CE00215030406217730711F7A196F2
:103A80000FB6F894DEBF0FBECDBFCF91DF911F916F
:103A90000F91FF90EF90DF90CF90BF90AF909F90ED
:103AA0008F907F906F905F904F903F902F900895F0
:103AB000282F992787FD9095807F907034E0959509
:103AC00087953A95E1F78A301CF0982F995C02C0EF
:103AD000982F905D822F8F708A301CF0282F295CE0
:103AE00002C0282F205D662339F48091C00085FF35
:103AF000FCCF9093C60006C08091C80085FFFCCF24
:103B00009093CE00662339F48091C00085FFFCCFEE
:103B10002093C60008958091C80085FFFCCF2093B4
:103B2000CE0008950F931F938B019C01E42F97FF04
:103B300018C0442341F48091C00085FFFCCF8DE282
:103B40008093C60007C08091C80085FFFCCF8DE23E
:103B50008093CE0030952095109501951F4F2F4FE3
:103B60003F4FC901B8012AE030E040E050E00E2F9D
:103B70000E94B61C1F910F910895EF92FF920F9330
:103B80001F937B018C014423C1F588E00E94521AE7
:103B9000C801B70122E030E040E050E00E949B30D5
:103BA0002050304F414F5F4FCA01B901A801970122
:103BB0000E949B30C901DA010197A109B109292F9F
:103BC0003A2F4B2F552747FD5A950196A11DB11D40
:103BD0002093C50081508093C4008091C100806112
:103BE0008093C1008091C10088608093C100809162
:103BF000C10080688093C10037C080E10E94521AE2
:103C0000C801B70122E030E040E050E00E949B3064
:103C10002050304F414F5F4FCA01B901A8019701B1
:103C20000E949B30C901DA010197A109B109292F2E
:103C30003A2F4B2F552747FD5A950196A11DB11DCF
:103C40002093CD0081508093CC008091C900806189
:103C50008093C9008091C90088608093C9008091D9
:103C6000C90080688093C9001F910F91FF90EF9069
:103C700008950E94F71983E196E00E940B2885348D
:103C800040F081E361E00E94C31A81E361E00E9499
:103C9000E11A83E196E061E070E00E941328813030
:103CA000B1F48091390890913A08A0913B08B09105
:103CB0003C0890688093390890933A08A0933B0899
:103CC000B0933C0881E090E060E00E94E63387E238
:103CD0000E942C1B892B09F44FC083E196E060E021
:103CE00070E00E9413288A3009F046C085E795E00D
:103CF0000E94CD2485E795E00E94E42285E795E0C7
:103D00000E94942480918E05482F50E08091900568
:103D1000481B510980918D05282F30E08091910535
:103D2000281B3109121613065CF48CE390E0BC01E9
:103D3000269FC001279F900D369F900D11240EC025
:103D400037FF0EC08CE390E0BC01269FC001279F87
:103D5000900D369F900D1124805F914F480F591F91
:103D60004330510548F48091480890914908806299
:103D7000909349088093480885E795E00E94CD24F8
:103D800085E795E00E94802185E795E00E946F21FC
:103D900085E795E00E94F62463E070E080E090E023
:103DA0000E94A9198091390890913A08A0913B0886
:103DB000B0913C08A1FF5EC063E070E080E090E05D
:103DC0000E94A91986E161E00E94C31A63E070E0D5
:103DD00080E090E00E94A91986E161E00E94E11A6A
:103DE00063E070E080E090E00E94A9190E942E2517
:103DF00063E070E080E090E00E94A91981E00E94F9
:103E0000072563E070E080E090E00E94A91984E05B
:103E10000E94152563E070E080E090E00E94A919FF
:103E200080E00E94102563E070E080E090E00E9456
:103E3000A9190E94032563E070E080E090E00E94F1
:103E4000A91988E096E066E00E944D2563E070E0E5
:103E500080E090E00E94A91986E161E00E94C31A07
:103E600086E160E00E94E11A63E070E080E090E0AB
:103E70000E94A91963E070E080E090E00E94A91917
:103E800083E196E00E94CB296093710570937205DF
:103E900080937305909374058091710590917205DC
:103EA000A0917305B09174050E9446310E94360CB2
:103EB0000E948A0AFDCFFC01148A158A168A178A85
:103EC000108E118E128E138E148E158E168E178EE6
:103ED00010A211A212A213A280E090E0A0E0B0E034
:103EE00084A395A3A6A3B7A30895109206061092E3
:103EF00088050895EF92FF920F931F93DF93CF935E
:103F0000CDB7DEB7EC970FB6F894DEBF0FBECDBFCE
:103F10008C01E8EFF3E065917491B5E1EB2EF12CA3
:103F2000EC0EFD1EC7010E945131EAEFF3E06591EE
:103F30007491CE0101960E945131D80156968C9110
:103F4000843009F46DC0853048F4823069F18330E3
:103F500008F048C0813009F000C10AC0863009F479
:103F60009BC0863008F47AC0873009F0F6C0B2C032
:103F7000EDB7FEB774970FB6F894FEBF0FBEEDBF56
:103F80003196075D1F4FADB7BEB712961C930E93C7
:103F900011970952104084E690E093838283F58262
:103FA000E48282E892E0B3C08DB79EB744970FB623
:103FB000F8949EBF0FBE8DBFEDB7FEB73196075D7B
:103FC0001F4FADB7BEB712961C930E9311970952AF
:103FD000104084E690E093838283F582E48286E851
:103FE00092E095C08DB79EB744970FB6F8949EBFE8
:103FF0000FBE8DBFEDB7FEB73196075D1F4FADB752
:10400000BEB712961C930E9311970952104084E686
:1040100090E093838283F582E4828AE892E077C01D
:104020008DB79EB744970FB6F8949EBF0FBE8DBF55
:10403000EDB7FEB73196075D1F4FADB7BEB712960D
:104040001C930E9311970952104084E690E09383DD
:104050008283F582E4828EE892E059C08DB79EB7E4
:1040600044970FB6F8949EBF0FBE8DBFEDB7FEB755
:104070003196075D1F4FADB7BEB712961C930E93D6
:1040800011970952104084E690E093838283F58271
:10409000E48282E992E03BC08DB79EB744970FB6A9
:1040A000F8949EBF0FBE8DBFEDB7FEB73196075D8A
:1040B0001F4FADB7BEB712961C930E9311970952BE
:1040C000104084E690E093838283F582E48286E95F
:1040D00092E01DC08DB79EB744970FB6F8949EBF6F
:1040E0000FBE8DBFEDB7FEB73196075D1F4FADB761
:1040F000BEB712961C930E9311970952104084E696
:1041000090E093838283F582E4828AE992E0978348
:104110008683D80154968C91549780871186559642
:104120008C915597828713865A968C915A978487DB
:10413000158657968C9157978687178658968C9137
:104140005897808B118A59968C91828B138A0E9482
:104150008A31EDB7FEB774961DC000D000D000D0F4
:10416000EDB7FEB73196075D1F4FADB7BEB71296DC
:104170001C930E9311970952104084E690E09383AC
:104180008283CE010196958384830E948A31EDB7A4
:10419000FEB736960FB6F894FEBF0FBEEDBF98017E
:1041A000275D3F4FC901EC960FB6F894DEBF0FBEF6
:1041B000CDBFCF91DF911F910F91FF90EF900895A8
:1041C0001F93CF93DF93EC01162F80916006882315
:1041D00021F48AE596E00E94822B8AE596E068E663
:1041E00070E00E94F5298AE596E0612F0E940F2B6E
:1041F000C10FD11D8AE596E068810E940F2B8AE5E8
:1042000096E00E943E2BDF91CF911F910895FF927F
:104210000F931F93CF93DF938C01F62E809160064E
:10422000882321F48AE596E00E94822B8AE596E0B5
:1042300068E670E00E94F5298AE596E06F2D0E94FD
:104240000F2B8AE596E00E943E2B8AE596E068E611
:1042500070E041E050E00E947F2BC0E0D0E08AE5B2
:1042600096E00E94FF29882329F4CA30D10511F075
:104270002196F5CF8AE596E00E94052A0F0D111DC3
:10428000F80180838AE596E00E943E2BDF91CF9172
:104290001F910F91FF9008950F931F938C016FE072
:1042A0000E940721F801878583701F910F9108955F
:1042B000CF93DF93EC010E944C21882319F0CE5656
:1042C000DF4F8883809184058C7F8093840585E708
:1042D00095E06FE00E94E020DF91CF9108950F9369
:1042E0001F938C016EE00E940721F80186858D7F67
:1042F0008687C8016EE00E94E0201F910F9108950B
:104300000F931F938C016EE00E940721F8018685B0
:104310008E7F8687C8016EE00E94E0201F910F917A
:104320000895AF92BF92CF92DF92FF920F931F93A7
:10433000CF93DF938C01F62E80916006882321F4C1
:104340008AE596E00E94822B8AE596E068E670E0B6
:104350000E94F5298AE596E060E070E00E943B2B20
:104360008AE596E00E943E2B8AE596E068E670E0DA
:1043700043E150E00E947F2BC0E0D0E0CC24DD245C
:10438000AF2CBB245AE0F52E0DC18AE596E00E94C1
:10439000FF29882309F403C18AE596E00E94052AD3
:1043A000282FF801EC0FFD1F8083C630D10509F4DA
:1043B00082C0C730D105B8F4C230D10509F44EC06F
:1043C000C330D10538F4209769F1C130D10509F027
:1043D000E4C036C0C430D10509F451C0C530D105A0
:1043E00008F05BC049C0CA30D10509F49BC0CB308E
:1043F000D10558F4C830D10509F478C090E02F7089
:10440000C930D10508F081C064C0CC30D10509F4B1
:10441000A7C0CC30D10508F494C0CD30D10509F047
:10442000BCC0ADC090E044E0959587954A95E1F712
:104430008F9DC00111242F70280FF801218FADC06E
:1044400090E034E0959587953A95E1F78F9DC0010E
:1044500011242F70280FF801208F9FC090E0B4E046
:1044600095958795BA95E1F78F9DC00111242F701E
:10447000280FF801278B91C0F801868B8EC090E041
:10448000A4E095958795AA95E1F78F9DC001112429
:104490002F70280FF801228F80C090E0F4E09595EE
:1044A0008795FA95E1F78F9DC00111242F70280F91
:1044B000F801258B72C090E0E4E095958795EA9528
:1044C000E1F78F9DC00111242F70280FF801248B74
:1044D00064C074E0959587957A95E1F787708F9D14
:1044E000C0011124280FF801238F57C090E064E029
:1044F000959587956A95E1F787708F9DC001112486
:104500002F70280FF801248F48C054E095958795A7
:104510005A95E1F783708F9DC0011124280FF8018F
:10452000258F3BC090E044E0959587954A95E1F74B
:1045300083708F9DC00111242F70280FF801268FE2
:104540002CC090E034E0959587953A95E1F7877017
:104550008F9DC00111242F70280FF801278F1DC0D7
:1045600090E0B4E095958795BA95E1F783708F9DBB
:10457000C00111242F70280FF80120A30EC090E075
:10458000A4E095958795AA95E1F783708F9DC0016A
:1045900011242F70280FF80121A3219603C008943D
:1045A000C11CD11CAC16BD0628F0FAE0CF16D10410
:1045B00008F4EBCEDF91CF911F910F91FF90DF9028
:1045C000CF90BF90AF900895AF92BF92CF92DF92FD
:1045D000EF92FF920F931F93DF93CF93CDB7DEB788
:1045E000C857D0400FB6F894DEBF0FBECDBF6C01E8
:1045F0006AE00E94912149E2A42EB12CAC0CBD1CB2
:1046000084E6D5011D928A95E9F7E6EDF3E0659120
:1046100074918E010F5F1F4FC8010E945131C50177
:10462000B8010E946C31F60182A1823009F476C093
:10463000833030F4882371F0813009F03CC11AC016
:10464000843009F4F2C0843008F4AEC0853009F03B
:1046500032C127C1E8EDF3E065917491C8010E9471
:104660005131C501B8010E946C31E6EEF3E065916D
:1046700074910FC0EAEDF3E065917491C8010E9456
:104680005131C501B8010E946C31E6EEF3E065914D
:1046900074918E01075D1F4FC8010E9451318DB783
:1046A0009EB70E970FB6F8949EBF0FBE8DBFEDB7A5
:1046B000FEB7319631E5E32EF12CEC0EFD1EADB7C1
:1046C000BEB71296FC92EE92119788E290E0938327
:1046D000828315830483D6015E968C915E978683D0
:1046E00017825D968C915D97808711865C968C9180
:1046F0005C97828713865B968C91848715860E94CF
:104700008A31EDB7FEB73E960FB6F894FEBF0FBEE6
:10471000EDBFC501B7010E946C31F3C0ECEDF3E0D1
:1047200065917491C8010E945131C501B8010E9480
:104730006C31E8EEF3E0659174918E01075D1F4FD7
:10474000C8010E9451318DB79EB70C970FB6F894EF
:104750009EBF0FBE8DBFEDB7FEB7319621E5E22EAD
:10476000F12CEC0EFD1EADB7BEB71296FC92EE9288
:10477000119788E290E09383828315830483D601A6
:104780005D968C915D97868317825C968C915C9781
:10479000808711865B968C91828713860E948A316E
:1047A000EDB7FEB73C96B0CFEEEDF3E065917491B6
:1047B000C8010E945131C501B8010E946C31EAEE76
:1047C000F3E0659174918E01075D1F4FC8010E944F
:1047D00051318DB79EB70A970FB6F8949EBF0FBEA2
:1047E0008DBFEDB7FEB7319691E5E92EF12CEC0EB9
:1047F000FD1EADB7BEB71296FC92EE92119788E2FD
:1048000090E09383828315830483D6015C968C9118
:104810005C97868317825B968C91808711860E94B5
:104820008A31EDB7FEB73A966FCFE0EEF3E06591CF
:104830007491C8010E945131C501B8010E946C31C8
:10484000ECEEF3E0659174918E01075D1F4FC80196
:104850000E9451318DB79EB708970FB6F8949EBF4E
:104860000FBE8DBFEDB7FEB7319681E5E82EF12C76
:10487000EC0EFD1EADB7BEB71296FC92EE921197EC
:1048800088E290E09383828315830483D6015B964C
:104890008C91868317820E948A31EDB7FEB73896D5
:1048A00033CFE2EEF3E065917491C8010E9451317B
:1048B000C501B80130CFE4EEF3E0659174918E014B
:1048C0000F5F1F4FC8010E94513100D000D000D0AF
:1048D000EDB7FEB73196ADB7BEB71296BC92AE92A9
:1048E000119784E690E093838283158304830E946A
:1048F0008A31EDB7FEB736960FB6F894FEBF0FBEFD
:10490000EDBFC501C858DF4F0FB6F894DEBF0FBE2C
:10491000CDBFCF91DF911F910F91FF90EF90DF906E
:10492000CF90BF90AF9008950F931F938C0166E0D6
:104930000E949121C8010E947A1F1F910F91089532
:104940000F931F93CF93DF93EC01042F68A780E3AD
:1049500061E00E94C31A18A5112379F0113091F477
:1049600080E361E00E94E11A013019F482E08B8B50
:1049700009C0002339F41B8B05C080E360E00E946E
:10498000E11A1B8A6AE070E080E090E00E94A919B9
:10499000DF91CF911F910F9108950F931F938C0179
:1049A00061E040E00E94A024C8010E945821C80193
:1049B0000E945B1FC8016DE00E9491218BE261E0C3
:1049C0000E94C31A8BE260E00E94E11A1F910F91CE
:1049D000089580916006882341F0809176068823AF
:1049E00021F48BE796E00E94F52E08950F931F9314
:1049F0008C010E94E924C80160E040E00E94A024EC
:104A00001F910F9108958CB58F7B8CBD08958823DD
:104A100019F48CB5806202C08CB58F7D8CBD089571
:104A20009CB5937F982B9CBD08959CB5282F23702F
:104A30009C7F292B2CBD9DB581709E7F982B9DBDA1
:104A40000895109209061092080610920A06109214
:104A50000B0610920C0610920D0608958EE161E08F
:104A60000E94C31A8FE161E00E94C31A8DE161E0E8
:104A70000E94C31A8EE160E00E94E11A8FE160E0BB
:104A80000E94E11A8DE161E00E94E11A8CB580611B
:104A90008CBD8CB580648CBD08951F93162F8DE15D
:104AA00061E00E94C31A82E261E00E94C31A8DE1B4
:104AB00061E00E94E11A82E261E00E94E11A8091C5
:104AC000390890913A08A0913B08B0913C08A2FFA8
:104AD00008C088E061E00E94C31A88E061E00E949B
:104AE000E11A8091390890913A08A0913B08B09161
:104AF0003C0896FF08C089E061E00E94C31A89E083
:104B000061E00E94E11A8091390890913A08A091E1
:104B10003B08B0913C08A3FF08C082E061E00E941E
:104B2000C31A82E061E00E94E11A809139089091F5
:104B30003A08A0913B08B0913C08A4FF08C082E26B
:104B400061E00E94C31A82E261E00E94E11A133020
:104B5000C9F0143028F4113069F0123068F408C03C
:104B6000153041F11530D0F0163009F062C02FC079
:104B70008DE12BC082E229C083E196E00E94632888
:104B80008CE223C08091390890913A08A0913B08AB
:104B9000B0913C08A2FF4DC088E017C08091390851
:104BA00090913A08A0913B08B0913C0896FF41C013
:104BB00089E00BC08091390890913A08A0913B0898
:104BC000B0913C08A3FF35C082E060E030C08DE1C9
:104BD00061E00E94E11A82E261E00E94E11A8091A4
:104BE000390890913A08A0913B08B0913C08A2FF87
:104BF00004C088E061E00E94E11A80913908909138
:104C00003A08A0913B08B0913C0896FF04C089E0A7
:104C100061E00E94E11A8091390890913A08A091D0
:104C20003B08B0913C08A3FF04C082E061E00E9411
:104C3000E11A1F91089510920E060895CF93DF9305
:104C4000EC018091390890913A08A0913B08B0910D
:104C50003C0882FF0BC063E070E080E090E00E94BF
:104C6000A9198BE061E00E94E11A06C063E070E0E0
:104C700080E090E00E94A91989818093C5008A8113
:104C80008093C4008B818093C2008C818093CA0082
:104C9000DF91CF910895DC018091C50011968C932E
:104CA00011978091C40012968C931297E2ECF0E079
:104CB000808113968C9313978091CA0014968C93DD
:104CC000149780818F7D808380818F7E8083808117
:104CD000877F808360E072EC81E090E04C910E94DD
:104CE000BD1D87E161E00E94E11A8BE060E00E9457
:104CF000E11A0895FF920F931F938C01F62E0E94E4
:104D00004B268F2D60E00E94581DC8010E941E2670
:104D10001F910F91FF9008950F931F938C010E9494
:104D20004B26F80180810E947E1CC8010E941E262D
:104D30001F910F910895EF92FF920F931F93CF93BE
:104D4000DF93EC01162F072F0E944B26212F302FC7
:104D5000C9018C0188EEE82E83E0F82EE00EF11EEA
:104D6000F8010F5F1F4F8491882331F068810E9402
:104D70006D1C0E151F05A1F7CE010E941E2660E0D6
:104D800070E080E090E0DF91CF911F910F91FF9054
:104D9000EF900895CF92DF92EF92FF920F931F93BF
:104DA0008C010E949B26F62EE72ED82EC92EC80114
:104DB0000E948C266F2D7E2D8D2D9C2D1F910F9185
:104DC000FF90EF90DF90CF900895FF920F931F9385
:104DD0008C01F62E0E944B268F2DF80160810E94D7
:104DE0006D1CC8010E941E261F910F91FF9008950F
:104DF000EF92FF920F931F938C017B010E944B2631
:104E0000C701F80160810E94A01CF80180810E9406
:104E10007E1CC8010E941E261F910F91FF90EF90EB
:104E20000895EF92FF920F931F938C017B010E94D4
:104E30004B26C701F80160810E94A01CC8010E9496
:104E40001E261F910F91FF90EF900895CF92DF9251
:104E5000EF92FF920F931F93CF93DF937C018A0110
:104E6000D62EC72EE9010E944B26209731F4802FC1
:104E7000F70160810E946D1C17C0CA30D10541F452
:104E8000B8018D2D9C2DF70140810E94921D0CC010
:104E90009E01442737FD4095542FB8018D2D9C2D40
:104EA000F70100810E94B61CF70180810E947E1CE0
:104EB000C7010E941E26DF91CF911F910F91FF9095
:104EC000EF90DF90CF900895CF92DF92EF92FF9214
:104ED0000F931F93CF93DF937C018A01D62EC72EA9
:104EE000E9010E944B26209731F4802FF701608161
:104EF0000E946D1C17C0CA30D10541F4B8018D2D38
:104F00009C2DF70140810E94921D0CC09E014427F8
:104F100037FD4095542FB8018D2D9C2DF701008150
:104F20000E94B61CC7010E941E26DF91CF911F91DF
:104F30000F91FF90EF90DF90CF9008950F931F9304
:104F4000CF93DF938B01BA01DA0140E050E0C22F2A
:104F5000D0E019C0F801E40FF51F8081982F9295D9
:104F60009F708F709A3010F4905D01C0995C9C9393
:104F70008A3010F4805D01C0895C11968C93119782
:104F80004F5F5F4F12964C175D0724F3CC0FDD1F68
:104F9000C60FD71F1882DF91CF911F910F910895EF
:104FA000FB019081892F80538A3038F4292F3327D1
:104FB00027FD3095205330400DC0892F8154863015
:104FC00018F020E030E007C0292F332727FD309567
:104FD0002753304031966081862F80538A3030F4D9
:104FE000772767FD7095605370400CC0862F815401
:104FF000863018F060E070E005C0772767FD709597
:105000006753704094E0220F331F9A95E1F7862F83
:10501000820F089508958FED90E00E94D8338F3F5E
:1050200009F480E00895CB010E94D833089584E00C
:105030006030780724F0CB01642F0E94E633089596
:10504000CF92DF92EF92FF920F931F93CF93DF9354
:105050006A01EB0109900020E9F72197C61BD70BE5
:10506000D695C7957B0100E010E00FC083E196E084
:10507000B7010E94D027F601E00FF11F80830F5F78
:105080001F4F82E090E0E80EF91E0C171D0770F329
:10509000CE01DF91CF911F910F91FF90EF90DF90A4
:1050A000CF90089587E161E00E94C31A8BE061E030
:1050B0000E94C31A87E161E00E94E11A8BE061E07F
:1050C0000E94E11A089587E161E00E94C31A84E218
:1050D00061E00E94C31A85E261E00E94C31A87E181
:1050E00061E00E94E11A84E261E00E94E11A85E237
:1050F00061E00E94E11A08950F931F93162F042F69
:10510000862F61E00E94C31A013019F4812F61E0FB
:1051100004C0002321F4812F60E00E94E11A1F9156
:105120000F9108952F923F924F925F926F927F92CC
:105130008F929F92AF92BF92CF92DF92EF92FF92A7
:105140000F931F93DF93CF93CDB7DEB7C75FD040E8
:105150000FB6F894DEBF0FBECDBF2DB63EB68DB7ED
:105160009EB708970FB6F8949EBF0FBE8DBFADB621
:10517000BEB60894A11CB11C7501CC24DD244E01DF
:105180000894811C911CCE0180599F4FAEEF4A2E8E
:10519000AFEF5A2E480E591EF0E16F2E712C680E9B
:1051A000791EDE01A052BF4FC051DF4FB983A883E3
:1051B000C05FD040FE013E96CE50DF4FF983E883BA
:1051C000C25FD040C4016DE00E94E62D83E196E00D
:1051D0006CE040E00E947C2883E196E06DE040E0D6
:1051E0000E947C28D7011D921D921D921C9213973C
:1051F0008CE061E00E94C31A8CE061E00E94E11A39
:10520000C4010E941E2E83E196E06DE041E00E9401
:105210007C286AE070E080E090E00E94A919C40157
:1052200063E340E00E94A62D62E370E080E090E03E
:105230000E94A9198E0102511F4FC4010E943E2DE8
:10524000F8018083118261E070E080E090E00E94CC
:10525000A919025010400415150579F7F301DE0174
:105260005096819191918D939D93C051DF4F88818C
:105270009981C05FD040E817F90799F7BE016259DC
:105280007F4F21E030E040E050E0DB018D919C91C8
:10529000019779F4D7018D919D910D90BC91A02D2E
:1052A000820F931FA41FB51FF70180839183A283F0
:1052B000B38362507040CE50DF4F88819981C25FC6
:1052C000D0406817790729F0220F331F441F551F5C
:1052D000DCCFF70180819181A281B3818F5F9F4FE5
:1052E000AF4FBF4F31F4D7011D921D921D921C92FA
:1052F00013978CE060E00E94E11A83E196E06CE095
:1053000040E00E947C2883E196E06DE040E00E944E
:105310007C280894C11CD11CE4E0F0E0EE0EFF1ED6
:10532000F2E0CF16D10409F04DCFD5012D913D917A
:105330004D915C91139714968D919D910D90BC9118
:10534000A02D281739074A075B0721F020E030E03D
:1053500040E050E0B901CA010FB6F8943EBE0FBE5E
:105360002DBEC950DF4F0FB6F894DEBF0FBECDBFC4
:10537000CF91DF911F910F91FF90EF90DF90CF9031
:10538000BF90AF909F908F907F906F905F904F9065
:105390003F902F900895EF92FF920F931F930E94DA
:1053A00092287B018C016115710581059105B1F48D
:1053B00083EE90E00E94E0336A302AE072072AE030
:1053C00082072AE0920751F06F3F2FEF72072FEF0D
:1053D00082072FEF920711F07B018C01B701C80102
:1053E0001F910F91FF90EF90089581E080935906EF
:1053F00060933606109257061092580608958091D1
:10540000350690913406891B089590913406809159
:105410003506981710F080E00895E92FF0E0EC5E73
:10542000F94F80819F5F9093340608951092610632
:1054300010925A0610925B068AEF90E0A0E0B0E06E
:1054400080935C0690935D06A0935E06B0935F0622
:105450000895CF93DF93EC018091390890913A0839
:10546000A0913B08B0913C0884FD3CC08091390874
:1054700090913A08A0913B08B0913C0885FD32C05C
:105480008091390890913A08A0913B08B0913C086E
:1054900086FD28C08091390890913A08A0913B0878
:1054A000B0913C0887FD1EC08091390890913A0860
:1054B000A0913B08B0913C0890FD14C08091390840
:1054C00090913A08A0913B08B0913C0891FD0AC028
:1054D0008091390890913A08A0913B08B0913C081E
:1054E00093FF1DC080916106882339F48BE796E015
:1054F00060E041E00E94992E0CC08981882331F43C
:105500008BE796E060E041E00E94992E8881882335
:1055100031F48BE796E061E041E00E94992EDF9143
:10552000CF910895FC018091390890913A08A0919B
:105530003B08B0913C0881709070A070B07080837F
:105540008091390890913A08A0913B08B0913C08AD
:10555000B695A79597958795817081838091390835
:1055600090913A08A0913B08B0913C0884FD3CC062
:105570008091390890913A08A0913B08B0913C087D
:1055800085FD32C08091390890913A08A0913B087E
:10559000B0913C0886FD28C08091390890913A0866
:1055A000A0913B08B0913C0887FD1EC0809139084E
:1055B00090913A08A0913B08B0913C0890FD14C02E
:1055C0008091390890913A08A0913B08B0913C082D
:1055D00091FD0AC08091390890913A08A0913B084A
:1055E000B0913C0893FF10C080916106882361F45C
:1055F0008BE796E060E040E00E94992E8BE796E012
:1056000061E040E00E94992E08950F931F938C0152
:105610000E94F315F80116821F910F910895DF93F0
:10562000CF930F92CDB7DEB7698380915906882357
:1056300089F0809158068032D0F480915706E82F87
:10564000F0E0E95CF94F60838F5F809357068093A9
:1056500058060DC08AE596E00E94922ACE01019676
:1056600061E00E94D8158AE596E00E94292A0F90F1
:10567000CF91DF9108950E940F2B0895FF920F9311
:105680001F930AE516E0C8010E94922A809136060F
:1056900067E376E04091580621E00E941818F82E42
:1056A000109257061092580610925906C8010E948F
:1056B000292A8F2D1F910F91FF900895FF920F932C
:1056C0001F93F62E142F8AE596E00E94922A012F4E
:1056D000113208F000E28F2D64E176E0402F0E9445
:1056E0007D18182F10923406009335068AE596E04F
:1056F0000E94292A812F1F910F91FF9008950E94E7
:105700005E2B08950F931F938C0180E2E4E1F6E095
:10571000DF01982F1D929A95E9F7109234061092A6
:105720003506E7E3F6E0DF011D928A95E9F710926E
:105730005706109258060E944A1681E0F8018683A7
:1057400084E090E00E94D3191F910F9108951F9259
:105750000F920FB60F920BB60F9211242F933F9317
:105760004F935F936F937F938F939F93AF93BF9369
:10577000EF93FF938091620690916306892B29F045
:10578000E0916206F09163060995FF91EF91BF9158
:10579000AF919F918F917F916F915F914F913F91C9
:1057A0002F910F900BBE0F900FBE0F901F9018956A
:1057B0001F920F920FB60F920BB60F9211242F93D8
:1057C0003F934F935F936F937F938F939F93AF9389
:1057D000BF93EF93FF938091640690916506892BA8
:1057E00029F0E0916406F09165060995FF91EF912B
:1057F000BF91AF919F918F917F916F915F914F91E9
:105800003F912F910F900BBE0F900FBE0F901F90E6
:1058100018951F920F920FB60F920BB60F9211248C
:105820002F933F934F935F936F937F938F939F93A8
:10583000AF93BF93EF93FF938091660690916706B5
:10584000892B29F0E0916606F09167060995FF9192
:10585000EF91BF91AF919F918F917F916F915F91E8
:105860004F913F912F910F900BBE0F900FBE0F9055
:105870001F9018951F920F920FB60F920BB60F92B2
:1058800011242F933F934F935F936F937F938F9345
:105890009F93AF93BF93EF93FF938091680690918E
:1058A0006906892B29F0E0916806F091690609954F
:1058B000FF91EF91BF91AF919F918F917F916F91E8
:1058C0005F914F913F912F910F900BBE0F900FBEA4
:1058D0000F901F9018951F920F920FB60F920BB654
:1058E0000F9211242F933F934F935F936F937F9366
:1058F0008F939F93AF93BF93EF93FF9380916A062B
:1059000090916B06892B29F0E0916A06F0916B0665
:105910000995FF91EF91BF91AF919F918F917F91E9
:105920006F915F914F913F912F910F900BBE0F9010
:105930000FBE0F901F9018951F920F920FB60F92E7
:105940000BB60F9211242F933F934F935F936F9356
:105950007F938F939F93AF93BF93EF93FF93809128
:105960006C0690916D06892B29F0E0916C06F09100
:105970006D060995FF91EF91BF91AF919F918F9126
:105980007F916F915F914F913F912F910F900BBE3F
:105990000F900FBE0F901F9018951F920F920FB689
:1059A0000F920BB60F9211242F933F934F935F9357
:1059B0006F937F938F939F93AF93BF93EF93FF93D7
:1059C00080916E0690916F06892B29F0E0916E060A
:1059D000F0916F060995FF91EF91BF91AF919F9163
:1059E0008F917F916F915F914F913F912F910F9088
:1059F0000BBE0F900FBE0F901F9018951F920F9225
:105A00000FB60F920BB60F9211242F933F934F9323
:105A10005F936F937F938F939F93AF93BF93EF9316
:105A2000FF938091700690917106892B29F0E09187
:105A30007006F09171060995FF91EF91BF91AF91BA
:105A40009F918F917F916F915F914F913F912F9196
:105A50000F900BBE0F900FBE0F901F9018951092D5
:105A6000770682E0809373068CE18093780680EC61
:105A700091E090937A06809379060895DF92EF92F1
:105A8000FF920F931F93FC01E08001811281F89433
:105A9000F80181818E2981838281DE2CD0948D2131
:105AA000828382E090E00E94D319F80181818D21E8
:105AB000818387E090E00E94D319F80100817894F7
:105AC0008DE290E00E94D31980E010E0FF240E21C7
:105AD0001F21012B09F081E01F910F91FF90EF90A2
