:100000000C9468050C94D6330C9407340C94383453
:100010000C9469340C949A340C94CB340C94FC34C6
:100020000C942D350C9490050C9490050C9490052F
:100030000C944A210C9490050C9490050C94AC1FE0
:100040000C9490050C9490050C9490050C949005DC
:100050000C9490050C9490050C9490050C94871FBB
:100060000C9490050C94A9220C9490050C94900586
:100070000C9490050C9490050C9490050C949005AC
:100080000C9490050C9490050C9490050C9490059C
:100090000C94EA220C9490050C9490050C94811D0C
:1000A0000C9490050C9490050C9490050C9490057C
:1000B0000C9490050C9490050C9490050C9490056C
:1000C0000C9490050C9490050C94900507634236AF
:1000D000B79BD8A71A39685618AEBAAB558C1D3CD9
:1000E000B7CC5763BD6DEDFD753EF6177231BF009D
:1000F0000000803F08000000BE922449123EABAAD7
:10010000AA2ABECDCCCC4C3E00000080BEABAAAA31
:10011000AA3E00000000BF000000803F0000000079
:1001200000084178D3BB4387D1133D190E3CC3BDB2
:100130004282AD2B3E68EC8276BED98FE1A93E4C5F
:1001400080EFFFBE01C4FF7F3F0000000000446558
:1001500076696365206E6F7420666F756E643A20F1
:10016000004E4F5420436F6E6E65637465640044A7
:100170006973636F6E6E65637465642E0054656D9C
:100180007065726174757265206D656173757265F5
:100190006D656E742070757420746F20736C656566
:1001A00070004661696C656420737562736372697F
:1001B00062696E672E004E6F746966696361746967
:1001C0006F6E2072656365697665642E005761699C
:1001D00074696E67206576656E74732E2E2E0052DC
:1001E000656164696E6720617474726962757465B3
:1001F0002E2E200045787465726E2074656D7065D2
:10020000726174757265206D6561737572656D6577
:100210006E7420696E2070726F67726573732E2E14
:100220000057726974696E672061747472696275CF
:1002300074652E2E20004174747269627574652095
:1002400056616C756520284153434949293A20007D
:100250004174747269627574652056616C75653A93
:10026000200052656164696E67206174747269620E
:100270007574652E2E200045787465726E20646555
:100280007669636520666F756E642E20436F6E6EAF
:10029000656374696E672E2E2E2000466972737432
:1002A000207363616E20666F722065787465726E6C
:1002B0002064657669636500496E7465726E2064BA
:1002C0006576696365206E6F7420666F756E643A3B
:1002D00020004E4F5420436F6E6E6563746564005A
:1002E000496E7465726E2064657669636520646921
:1002F00073636F6E6E65637465642E004C69676826
:100300007420696E74656E73697479206D656173AC
:100310007572656D656E742070757420746F2073CE
:100320006C656570004661696C6564207375627305
:1003300063726962696E672E004E6F7469666963E5
:100340006174696F6E2072656365697665642E00FD
:1003500057616974696E67206576656E74732E2EB9
:100360002E0052656164696E6720617474726962FF
:100370007574652E2E20004C6967687420696E7450
:10038000656E73697479206D6561737572656D65ED
:100390006E7420696E2070726F67726573732E2E93
:1003A0000057726974696E6720617474726962754E
:1003B00074652E2E200054656D70657261747572BF
:1003C00065206D6561737572656D656E74207075FD
:1003D0007420746F20736C656570004661696C658C
:1003E00064207375627363726962696E672E004E72
:1003F0006F74696669636174696F6E2072656365A5
:10040000697665642E0057616974696E6720657648
:10041000656E74732E2E2E0052656164696E6720BE
:100420006174747269627574652E2E2000496E7451
:1004300065726E2054656D706572617475726520A9
:100440006D6561737572656D656E7420696E20707F
:10045000726F67726573732E2E0057726974696EBE
:1004600067206174747269627574652E2E20004174
:1004700074747269627574652056616C75652028A4
:100480004153434949293A200041747472696275A5
:1004900074652056616C75653A2000526561646927
:1004A0006E67206174747269627574652E2E200007
:1004B000496E7465726E2064657669636520666F47
:1004C000756E642E20436F6E6E656374696E672E61
:1004D0002E2E20004669727374207363616E20664D
:1004E0006F7220696E7465726E20646576696365EB
:1004F00000536D61727457696E646F7773003605CF
:100500003F054D05720586059305A705BB05220627
:1005100056066E0679068A069B06AE06BB06424C58
:1005200045206D6F64756C65206E6F742064657412
:1005300065637465640030303030303730430053C9
:1005400063616E20706172616D733A2000312530F5
:10055000327825303278253032782530327825309F
:100560003278253032783B2025643B2025753B0DC1
:100570000A00443A25782578257825782578257845
:100580003B2025642C003B20496E6465783D257531
:100590000D0A0053746F70206661696C2E206572BD
:1005A000723A2025780A005363616E206661696C97
:1005B0002E206572723A2025780A005363616E20FE
:1005C000706172616D733A20474150206D6F6465B0
:1005D0003D25753B207363616E5F696E746572764D
:1005E000616C3D25753A207363616E5F77696E6457
:1005F0006F773D25753B207363616E5F6475706C2A
:1006000069636174655F66696C746572696E673D84
:1006100025753B205458506F7765723D25753B0D0D
:100620000A004465766963652025753B20253032D4
:1006300078253032782530327825303278253032BE
:1006400078253032783B20525353493A25643B2079
:100650004E616D653A006572726F722077726974CF
:10066000696E672E206572723A2025780A0009208B
:1006700065633A2025780D0A0041444376616C2871
:10068000484558293A25780D0A0041444376616C63
:1006900028444543293A25640D0A004144435661E4
:1006A0006C6D5628444543293A25730D0A00546160
:1006B00028444543293A25730D0A00417474726930
:1006C0006275746520257520496E6469636174657F
:1006D00064210D0A004C0760078607AD07CD07E5CA
:1006E00007F307030818082E083F084B0852086F45
:1006F000088D08A308B108C108E408EA0857726F1A
:100700006E672074696D6520666F726D61742E204E
:100710004D757374206265202264643A68683A6D8E
:100720006D220057726F6E672074696D6520666F69
:10073000726D61742E204D75737420626520226481
:10074000643A68683A6D6D3A73732200416C617265
:100750006D204D6F6465206D617463686573200062
:100760005B446179203A20686F757273203A206D7E
:10077000696E75746573203A207365636F6E647378
:100780005D202D3E20005B44617465203A20686F37
:10079000757273203A206D696E75746573203A2006
:1007A0007365636F6E64735D202D3E20005B486F40
:1007B000757273203A206D696E75746573203A20E6
:1007C0007365636F6E64735D202D3E20005B4D6921
:1007D0006E75746573203A207365636F6E64735D24
:1007E000202D3E20005B5365636F6E64735D202D8A
:1007F0003E20004F6E636520706572207365636FE5
:100800006E6400496E636F727265637420616C611F
:10081000726D206D6F6465005B253032753A25304E
:1008200032753A253032753A253032755D005B25D8
:100830003032753A253032753A253032755D005BBD
:10084000253032753A253032755D005B25303275C2
:100850005D005B446179203A20686F757273203ABD
:10086000206D696E75746573205D202D3E20005BE0
:1008700044617465203A20686F757273203A206D68
:10088000696E75746573205D202D3E20005B486F96
:10089000757273203A206D696E757465735D202DD5
:1008A0003E20005B4D696E757465735D202D3E20A2
:1008B000004F6E636520706572206D696E7574659A
:1008C0000025732C20253032752F253032752F25C9
:1008D0003032752C20253032753A253032753A2564
:1008E000303275006572726F720025303275256383
:1008F00025303275256325303275256325303275F4
:100900002563253032752563253032752563253002
:10091000327500002124272A2D3033002225282B70
:100920002E313400202326292C2F320505050503FE
:100930000303030101010404030606060606060676
:10094000060104050105010302020202020201027E
:100950000205050404030404010304070707010258
:1009600008101020408004081020400202040810E3
:100970002040800102802040042001010204081070
:100980002001408040800102080408800410040215
:100990000100000809000000000000000000000045
:1009A0000000000000000000000000000000000047
:1009B0000000000000000000000000000000000037
:1009C0000000000000407A10F35A00A0724E18098F
:1009D0000010A5D4E80000E87648170000E40B54A6
:1009E000020000CA9A3B000000E1F5050000809675
:1009F0009800000040420F000000A08601000000A7
:100A0000102700000000E803000000006400000060
:100A100000000A00000000000100000000002C7629
:100A2000D888DC674F0823DFC1DFAE59E1B1B79644
:100A3000E5E3E453C63AE651997696E8E6C28426A1
:100A4000EB898C9B62ED407C6FFCEFBC9C9F40F27D
:100A5000BAA56FA5F490055A2AF75C936B6CF967F9
:100A60006DC11BFCE0E40D47FEF520E6B500D0EDBE
:100A7000902E0300943577050080841E0800002026
:100A80004E0A000000C80C333333330F986E1283C4
:100A90001141EF8D2114893BE65516CFFEE6DB1898
:100AA000D1844B381BF77C1D901DA4BBE42420325D
:100AB00084725E228100C9F124ECA1E53D27001477
:100AC00019269D26492C432D203045325E35C736E8
:100AD00011241FBECFEFD1E2DEBFCDBF14E0A0E0F6
:100AE000B2E0E0E7F2E802C005900D92AC32B10747
:100AF000D9F71CE0ACE2B4E001C01D92A33EB107FF
:100B0000E1F71AE0C0EDDAE004C02297FE010E948E
:100B1000173BCE3BD107C9F70E94F7240C9436410E
:100B20000C940000EF92FF920F93DF93CF93CDB719
:100B3000DEB760970FB6F894DEBF0FBECDBFA82F0B
:100B4000002309F461C07E010894E11CF11C88E0D7
:100B5000F70111928A95E9F729833A834B835C83E5
:100B60006D837E83AF83988780E2801BE82FFF2709
:100B7000E7FDF09549815A816B817C81181684F0DC
:100B800019861A861B861C86882799278E1B9F0B21
:100B900004C0440F551F661F771F8A95D2F728C0DF
:100BA000202F332727FD3095DB01CA01022E04C018
:100BB000880F991FAA1FBB1F0A94D2F789879A87AB
:100BC000AB87BC8704C07695679557954795EA959E
:100BD000D2F78D819E81AF81B88504C0880F991F9F
:100BE000AA1FBB1F2A95D2F7482B592B6A2B7B2BA8
:100BF0004D875E876F87788B29853A854B855C8525
:100C00006D857E85AF8598898A2F60960FB6F8949A
:100C1000DEBF0FBECDBFCF91DF910F91FF90EF9060
:100C20000895AEE5B0E0E7E1F6E00C94DE3AA8E026
:100C30004E010894811C911CF4016A2E11926A9451
:100C4000E9F729833A834B835C836D837E838F83AB
:100C50009887CE010996FC011192AA95E9F7A98619
:100C6000BA86CB86DC86ED86FE860F87188B2984B4
:100C70003A844B845C84ED84FE840F8518896980F6
:100C80007A808B809C806DA67EA68FA698AA6D80A8
:100C90007E808F809884E114F1040105110509F02C
:100CA000B3C3621473048404950408F03DC100E0EA
:100CB000201600E0300601E0400600E0500688F40F
:100CC0001FEF211631044104510439F030F048E09F
:100CD000E42EF12C012D112D18C0EE24FF248701E4
:100CE00014C020E0221620E0320620E0420621E077
:100CF000520630F038E1E32EF12C012D112D05C004
:100D000020E1E22EF12C012D112DD201C1010E2C7A
:100D100004C0B695A795979587950A94D2F78C50FD
:100D20009D4FDC012C9180E290E0A0E0B0E08E19B4
:100D30009F09A00BB10B7C018D01E21AF10801099A
:100D40001109E114F10401051105A1F10E2C04C0F3
:100D5000220C331C441C551C0A94D2F7A4019301A5
:100D60000E2C04C0220F331F441F551F0A94D2F7C4
:100D700080E290E08E199F096DA47EA48FA498A8AC
:100D800004C096948794779467948A95D2F7622AE0
:100D9000732A842A952AADA4BEA4CFA4D8A804C0DF
:100DA000AA0CBB1CCC1CDD1CEA94D2F7ADA6BEA6D7
:100DB000CFA6D8AA6201EE24FF24CDAADEAAEFAA0C
:100DC000F8AE920181012070307009AF1AAF2BAFDD
:100DD0003CAFC401B301A70196010E94A13A7B0177
:100DE0008C01C401B3012DA93EA94FA958AD0E94A1
:100DF000A13AC901DA013C014D01C401B30129AD99
:100E00003AAD4BAD5CAD0E945B3A9B01AC018701F2
:100E1000FF24EE24ADA4BEA4CFA4D8A8C601AA275F
:100E2000BB2757016801A82AB92ACA2ADB2AA216B9
:100E3000B306C406D506E0F4089461087108810879
:100E40009108A20CB31CC41CD51CA214B304C40486
:100E5000D50470F0A216B306C406D50648F408946B
:100E60006108710881089108A20CB31CC41CD51C30
:100E7000A21AB30AC40AD50AC601B5012DA93EA912
:100E80004FA958AD0E94A13A7B018C01C601B50162
:100E90002DA93EA94FA958AD0E94A13AC901DA0176
:100EA0005C016D01C601B50129AD3AAD4BAD5CAD3C
:100EB0000E945B3A9B01AC018701FF24EE248DA5C3
:100EC0009EA5AFA5B8A9A070B070E82AF92A0A2B90
:100ED0001B2BE216F30604071507C0F40894A108BB
:100EE000B108C108D108E20CF31C041D151DE21461
:100EF000F3040405150550F0E216F3060407150780
:100F000028F40894A108B108C108D108D301992791
:100F1000882786017501E82AF92A0A2B1B2BE9AAE2
:100F2000FAAA0BAB1CABCFC4211431044104510409
:100F300071F461E070E080E090E020E030E040E0BB
:100F400050E00E94A13AC901DA011C012D0100E024
:100F5000201600E0300601E0400600E0500688F46C
:100F60001FEF211631044104510431F028F048E00C
:100F700050E060E070E017C040E050E060E070E0FA
:100F800012C020E0221620E0320620E0420621E0D6
:100F9000520628F048E150E060E070E004C040E113
:100FA00050E060E070E0D201C101042E04C0B695AB
:100FB000A795979587950A94D2F78C509D4FDC01A1
:100FC0002C91E0E2EE2EF12C012D112DD801C7015C
:100FD000841B950BA60BB70B821B9109A109B109C4
:100FE0000097A105B10561F464015301A218B3088B
:100FF000C408D50831E0632E712C812C912C1EC1C0
:101000006F968FAF6F97082E04C0220C331C441CC0
:10101000551C0A94D2F7EE2DE81B640153010E2EE5
:1010200004C0D694C794B794A7940A94D2F7A401A5
:1010300093016F960FAC6F9704C0220F331F441FAC
:10104000551F0A94D2F76DA47EA48FA498A80E2EE3
:1010500004C096948794779467940A94D2F7840195
:101060007301E22AF32A042B152BE9A6FAA60BA793
:101070001CA73201882499249201810120703070CC
:1010800021960CAF1DAF2EAF3FAF2197C601B50122
:10109000A40193010E94A13A7B018C01C601B50114
:1010A000A40193010E94A13AC901DA0125968CAFEF
:1010B0009DAFAEAFBFAF2597BC01CD0121962CAD42
:1010C0003DAD4EAD5FAD21970E945B3A9B01AC01F7
:1010D0008701FF24EE24A9A4BAA4CBA4DCA4C601F2
:1010E000AA27BB275C016D01AE28BF28C02AD12AE0
:1010F000A216B306C406D50660F525966CAD7DAD87
:101100008EAD9FAD259761507040804090402596F0
:101110006CAF7DAF8EAF9FAF2597A20CB31CC41CE4
:10112000D51CA214B304C404D50498F0A216B306C7
:10113000C406D50670F461507040804090402596FA
:101140006CAF7DAF8EAF9FAF2597A20CB31CC41CB4
:10115000D51CA21AB30AC40AD50AC601B501A40156
:1011600093010E94A13A7B018C01C601B501A40143
:1011700093010E94A13AC901DA013C014D01C40169
:10118000B30121962CAD3DAD4EAD5FAD21970E94D0
:101190005B3A9B01AC018701FF24EE2489A59AA547
:1011A000ABA5BCA5A070B07057016801A82AB92AE8
:1011B000CA2ADB2AA216B306C406D506E0F40894B0
:1011C0006108710881089108A20CB31CC41CD51CCD
:1011D000A214B304C404D50470F0A216B306C40666
:1011E000D50648F408946108710881089108A20C9A
:1011F000B31CC41CD51C8DA59EA5AFA5B8A96F9620
:101200000FAC6F9704C0880F991FAA1FBB1F0A94C9
:10121000D2F78DA79EA7AFA7B8ABA21AB30AC40A8C
:10122000D50A2596ECACFDAC0EAD1FAD2597D701C8
:1012300099278827682A792A8A2A9B2A82012227C5
:10124000332729960CAF1DAF2EAF3FAF2997A201D0
:101250009101407050702D962CAF3DAF4EAF5FAFF7
:101260002D97C601B50129962CAD3DAD4EAD5FADB4
:1012700029970E94A13A7B018C01C601B5012996EC
:101280002CAD3DAD4EAD5FAD29970E94A13AC9018D
:10129000DA0161968CAF9DAFAEAFBFAF6197BC0175
:1012A000CD012D962CAD3DAD4EAD5FAD2D970E947D
:1012B0005B3A9B01AC018701FF24EE24ADA4BEA4E0
:1012C000CFA4D8A8C601AA27BB2757016801A82A1E
:1012D000B92ACA2ADB2AA216B306C406D50660F5C7
:1012E00061966CAD7DAD8EAD9FAD619761507040E4
:1012F0008040904061966CAF7DAF8EAF9FAF61979D
:10130000A20CB31CC41CD51CA214B304C404D50481
:1013100098F0A216B306C406D50670F4615070406A
:101320008040904061966CAF7DAF8EAF9FAF61976C
:10133000A20CB31CC41CD51CA21AB30AC40AD50A39
:10134000C601B50129962CAD3DAD4EAD5FAD2997D7
:101350000E94A13A7B018C01C601B50129962CADF2
:101360003DAD4EAD5FAD29970E94A13AC901DA01AA
:101370005C016D01C601B5012D962CAD3DAD4EADA4
:101380005FAD2D970E945B3A9B01AC018701FF2462
:10139000EE248DA59EA5AFA5B8A9A070B070E82ACF
:1013A000F92A0A2B1B2BE216F30604071507C0F4D3
:1013B0000894A108B108C108D108E20CF31C041D6F
:1013C000151DE214F3040405150550F0E216F306AA
:1013D0000407150728F40894A108B108C108D1082A
:1013E0006196ECACFDAC0EAD1FAD6197D7019927AE
:1013F000882796018501082B192B2A2B3B2B09AB3B
:101400001AAB2BAB3CAB62C26E147F048006910614
:1014100008F451C220E0E21620E0F20621E00207C3
:1014200020E0120788F43FEFE316F10401051105EF
:1014300031F028F048E050E060E070E017C040E094
:1014400050E060E070E012C040E0E41640E0F406D6
:1014500040E0040741E0140728F048E150E060E074
:1014600070E004C040E150E060E070E0D801C701E6
:10147000042E04C0B695A795979587950A94D2F740
:101480008C509D4FDC012C9130E2A32EB12CC12C4D
:10149000D12CD601C501841B950BA60BB70B821B63
:1014A0009109A109B1090097A105B10589F4E614D4
:1014B000F7040805190508F4F2C16DA47EA48FA4F1
:1014C00098A8621473048404950408F0E8C1F3C179
:1014D0006E968FAF6E97082E04C0EE0CFF1C001F97
:1014E000111F0A94D2F76A2D681BD201C101062E82
:1014F00004C0B695A795979587950A94D2F75C0195
:101500006D01AE28BF28C02AD12AADA2BEA2CFA2AB
:10151000D8A6720161016E960FAC6E9704C0CC0C18
:10152000DD1CEE1CFF1C0A94D2F7C9A2DAA2EBA2C2
:10153000FCA264015301062E04C0D694C794B7944C
:10154000A7940A94D2F7D401C3016E960FAC6E979C
:1015500004C0880F991FAA1FBB1F0A94D2F7EDA4DD
:10156000FEA40FA518A904C016950795F794E79453
:101570006A95D2F737014801682A792A8A2A9B2A74
:101580006D8E7E8E8F8E98A2EDA0FEA00FA118A565
:10159000380188249924980187012070307065965D
:1015A0000CAF1DAF2EAF3FAF6597C601B501A401CB
:1015B00093010E94A13A7B018C01C601B501A401EF
:1015C00093010E94A13AC901DA011C012D01C20157
:1015D000B10165962CAD3DAD4EAD5FAD65970E94F6
:1015E0005B3A9B01AC018701FF24EE24AD8CBE8CDD
:1015F000CF8CD8A0C601AA27BB2757016801A82A0B
:10160000B92ACA2ADB2AA216B306C406D50600F5F3
:1016100008942108310841085108EDA0FEA00FA14F
:1016200018A5AE0CBF1CC01ED11EAE14BF04C00650
:10163000D10670F0A216B306C406D50648F4089485
:101640002108310841085108AE0CBF1CC01ED11E34
:10165000A21AB30AC40AD50AC601B501A4019301AE
:101660000E94A13A7B018C01C601B501A40193013E
:101670000E94A13AC901DA013C014D01C401B30144
:1016800065962CAD3DAD4EAD5FAD65970E945B3A62
:101690009B01AC018701FF24EE248D8D9E8DAF8DC3
:1016A000B8A1A070B07057016801A82AB92ACA2A47
:1016B000DB2AA216B306C406D50600F50894610815
:1016C0007108810891086DA17EA18FA198A5A60E31
:1016D000B71EC81ED91EA616B706C806D90670F0D2
:1016E000A216B306C406D50648F40894610871082A
:1016F00081089108A60EB71EC81ED91ED601C501C5
:10170000821B930BA40BB50B898F9A8FAB8FBC8F69
:10171000D1019927882764015301A82AB92ACA2A26
:10172000DB2AA9AABAAACBAADCAA860175012FEFE7
:101730003FEF40E050E0E222F32204231523A6010C
:10174000662777276D964CAF5DAF6EAF7FAF6D9715
:10175000A9A0BAA0CBA0DCA06FEF7FEF80E090E063
:10176000A622B722C822D92289A19AA1ABA1BCA1E5
:101770001D0144245524C801B701A60195010E940A
:101780005B3A69966CAF7DAF8EAF9FAF6997C8012A
:10179000B701A20191010E945B3A3B014C016D9699
:1017A0006CAD7DAD8EAD9FAD6D97A60195010E948C
:1017B0005B3A7B018C016D966CAD7DAD8EAD9FADBE
:1017C0006D97A20191010E945B3A5B016C01A80137
:1017D0009701260D371D481D591D69966CAC7DACCF
:1017E0008EAC9FAC6997C401AA27BB27280F391F6D
:1017F0004A1F5B1F2E153F054007510748F4E12C97
:10180000F12C61E0062F112DAE0CBF1CC01ED11EA5
:10181000CA01AA27BB27BC01CD016A0D7B1D8C1D07
:101820009D1D698C7A8C8B8C9C8C6616770688063D
:10183000990640F1661577058805990509F043C0BA
:10184000D9019927882769962CAD3DAD4EAD5FAD86
:10185000699740705070820F931FA41FB51F2DA56C
:101860003EA54FA558A96E960FAC6E9704C0220FE7
:10187000331F441F551F0A94D2F7281739074A0708
:101880005B0708F509A91AA92BA93CA9015010402A
:101890002040304009AB1AAB2BAB3CAB14C06624E4
:1018A0007724430121E030E040E050E029AB3AAB3F
:1018B0004BAB5CAB0BC066247724430119AA1AAA70
:1018C0001BAA1CAA03C0662477244301FE0171965B
:1018D00088E0DF011D928A95E9F7A9A8BAA8CBA8EC
:1018E000DCA8A98ABA8ACB8ADC8A6D8A7E8A8F8A2A
:1018F000988E29A93A894B895C89662D7E898F89C2
:10190000988DC25ADF4FE2E10C94FA3A0F931F937D
:10191000CF93DF9380EA96E061EF74E00E94F22DAE
:101920008EE494E060E00E94C11A85EA96E00E948D
:10193000793060E072EC81E090E041E00E947B242D
:1019400081E00E94952285E096E060E040E00E9400
:101950001A268EE061E00E9481218EE061E00E9403
:101960009F2108EF13E0E801888161E00E94812156
:10197000229684E0CE30D807B9F7F801808161E083
:101980000E949F210E5F1F4F0C171D07B1F7DF91BB
:10199000CF911F910F910895AF92BF92CF92DF9296
:1019A000EF92FF920F931F935C01BC01672F772783
:1019B00062956F7080E090E00E94DD379B01AC0182
:1019C00060E070E080E090E40E94F6387B018C01DA
:1019D0008FEF9FE0A822B922CC24DD24C601B501F7
:1019E0000E94DD375B016C01C801B7012AE037EDC9
:1019F00043E25CE30E9493389B01AC01C601B50150
:101A00000E9493381F910F91FF90EF90DF90CF903D
:101A1000BF90AF9008954F925F926F927F928F9296
:101A20009F92AF92BF92CF92DF92EF92FF920F936D
:101A30001F93DF93CF9300D000D0CDB7DEB780EAFD
:101A400096E064ED74E00E94F22D80EA96E060E09A
:101A500072E00E94392E80EA96E06CE074E00E9409
:101A6000202E8EE494E06CE074E00E945F1C0197ED
:101A700009F010C380EA96E060EB74E00E94F22D5A
:101A80008EE494E06CE074E00E94E01980932C04F2
:101A9000813009F0FAC280EA96E069E172E00E94C2
:101AA000392E4091030550E060E070E080EA96E056
:101AB0002AE030E00E94EB2E80EA96E068E372E0D4
:101AC0000E94392E8EE494E0609103050E949C18D8
:101AD000482F552747FD5095652F752F80EA96E0D2
:101AE0002AE030E00E94EB2E80EA96E06BE974E099
:101AF0000E94F22D8EE494E06091030543E050E0F3
:101B00000E94F81780EA96E069E874E00E94C32D0D
:101B100010E00AC0E12FF0E0EB5FFA4F80EA96E0B8
:101B200060810E94A22D1F5F80910405181790F319
:101B300080EA96E00E94B42D80EA96E06FE674E0B9
:101B40000E94C32D10E00AC0E12FF0E0EB5FFA4FD6
:101B500080EA96E060810E940D2E1F5F809104054F
:101B6000181790F380EA96E00E94B42D80EA96E080
:101B70000E94B42D81E08093280480EA96E06AE513
:101B800074E00E94F22D8EE494E06091030544E23B
:101B900050E028E234E001E00E948317892B31F401
:101BA00080EA96E06DE274E00E94F22D81E0898384
:101BB0001A828EE494E06091030542E250E09E01B7
:101BC0002F5F3F4F02E00E94831790932F04809372
:101BD0002E04892B09F0F2C080EA96E068E174E0F7
:101BE0000E94F22D8EE494E06091030541E250E002
:101BF0000E94F817109230040E94D11F5B016C0103
:101C000080E090E0A0E0B0E080934404909345042D
:101C1000A0934604B09347043C014D017FC080EA85
:101C200096E06FEE73E00E94F22D50904B05442435
:101C3000E0904A05FF24E428F52880EA96E06EE368
:101C400072E00E94392E00E010E080EA96E0B801D0
:101C5000A7012AE030E00E94292F80EA96E066E59D
:101C600072E00E94202E10914F0500E060914E0519
:101C700070E0602B712B7695679576956795882730
:101C800077FD8095982F0E94DF3720E030E040E01C
:101C90005DE30E94933860934404709345048093FD
:101CA00046049093470480EA96E065E672E00E945D
:101CB000392E40914404509145046091460470913E
:101CC000470480EA96E00E94DF2E80EA96E00E94B8
:101CD000B42DC401B30120914404309145044091D6
:101CE0004604509147040E94DC363B014C01809130
:101CF00030048F5F8093300410922F0410922E04D2
:101D000002C00F97B9F10E94D11F6A157B058C059F
:101D10009D0520F40E94D11F5B016C01809130046D
:101D200090E02091290430912A048217930714F53A
:101D30000E94D11F6A197B098C099D096053754760
:101D400080409040B8F480EA96E066E074E00E943B
:101D5000F22D8EE494E048E853E160E070E00E94E8
:101D6000741490E090932F0480932E048531910594
:101D700041F655CF6091300470E0882777FD80955B
:101D8000982F0E94DF379B01AC01C401B3010E9470
:101D900044379B01AC0120934404309345044093A5
:101DA00046045093470440E022E001E314E00E941F
:101DB0001B3BC80161E00E945E230AC080EA96E0F6
:101DC0006BED73E00E94F22D80EA96E00E94B42D44
:101DD000109228048EE494E06091030544E250E000
:101DE00028E234E001E00E948317892B51F080EA59
:101DF00096E066EB73E00E94F22D80EA96E00E9486
:101E0000B42D81E08093280480EA96E061EA73E0D3
:101E10000E94F22D8EE494E06091030544E450E0CA
:101E200028E234E001E00E948317892B31F480EA34
:101E300096E067E773E00E94F22D81E08B831C82BD
:101E40008EE494E06091030542E450E09E012D5F32
:101E50003F4F02E00E94831790932F0480932E043B
:101E6000892B09F0E4C080EA96E062E673E00E9404
:101E7000F22D8EE494E06091030541E450E00E946D
:101E8000F817109230040E94D11F5B016C0180E0B2
:101E900090E0A0E0B0E08093400490934104A093D0
:101EA0004204B09343043C014D0171C080EA96E0C6
:101EB00069E373E00E94F22D50904B054424E090BA
:101EC0004A05FF24E428F52880EA96E06EE372E0F4
:101ED0000E94392E00E010E080EA96E0B801A701E8
:101EE0002AE030E00E94292F80EA96E066E572E061
:101EF0000E94202E10914F0500E080914E0590E049
:101F0000802B912B0E94CC0C609340047093410471
:101F1000809342049093430480EA96E06AE772E07B
:101F20000E94392E40914004509141046091420436
:101F30007091430480EA96E00E94DF2E80EA96E0EA
:101F40000E94B42DC401B30120914004309141049A
:101F500040914204509143040E94DC363B014C0105
:101F6000809130048F5F8093300410922F04109280
:101F70002E0402C00F97B9F10E94D11F6A157B058C
:101F80008C059D0520F40E94D11F5B016C0180919E
:101F9000300490E02091290430912A04821793079D
:101FA00014F50E94D11F6A197B098C099D096053A1
:101FB000754780409040B8F480EA96E060E573E0B1
:101FC0000E94F22D8EE494E048E853E160E070E076
:101FD0000E94741490E090932F0480932E04853116
:101FE000910541F663CF6091300470E0882777FD5A
:101FF0008095982F0E94DF379B01AC01C401B3018B
:102000000E9444379B01AC0120934004309341046B
:10201000409342045093430440E022E001E314E083
:102020000E941B3BC80161E00E945E230AC080EA57
:1020300096E065E273E00E94F22D80EA96E00E944D
:10204000B42D109228048EE494E06091030544E4DA
:1020500050E028E234E001E00E948317892B51F020
:1020600080EA96E06CEF72E00E94F22D80EA96E042
:102070000E94B42D8EE494E0609103050E94D31871
:1020800080EA96E060EE72E009C080EA96E062EDD8
:1020900072E004C080EA96E068EB72E00E94F22DE4
:1020A00080EA96E00E94B42D8EE494E060E00E9405
:1020B000C11A80EA96E06BE972E00E94F22D80EA94
:1020C00096E06CE872E00E94392E80EA96E06AE1C0
:1020D00074E00E94202E8EE494E06AE174E00E9495
:1020E0005F1C019709F0DEC180EA96E067E772E0C5
:1020F0000E94F22D8EE494E06AE174E00E94E019FF
:1021000080932D04813009F0C8C180EA96E069E12E
:1021100072E00E94392E4091030550E060E070E0CB
:1021200080EA96E02AE030E00E94EB2E80EA96E01A
:1021300068E372E00E94392E8EE494E0609103051A
:102140000E949C18482F552747FD5095652F752FE5
:1021500080EA96E02AE030E00E94EB2E80EA96E0EA
:1021600062E672E00E94F22D8EE494E06091030535
:1021700043E050E00E94F81780EA96E060E572E0E4
:102180000E94C32D10E00AC0E12FF0E0EB5FFA4F90
:1021900080EA96E060810E94A22D1F5F8091040575
:1021A000181790F380EA96E00E94B42D80EA96E03A
:1021B00066E372E00E94C32D10E00AC0E12FF0E058
:1021C000EB5FFA4F80EA96E060810E940D2E1F5F60
:1021D00080910405181790F380EA96E00E94B42DD0
:1021E00080EA96E00E94B42D81E08093280480EA82
:1021F00096E061E272E00E94F22D8EE494E060913C
:10220000030544E250E028E234E001E00E94831735
:10221000892B31F480EA96E064EF71E00E94F22DA0
:1022200081E08B831C828EE494E06091030542E29E
:1022300050E09E012D5F3F4F02E00E948317909374
:102240002F0480932E04892B09F0F2C080EA96E0D7
:102250006FED71E00E94F22D8EE494E06091030531
:1022600041E250E00E94F817109230040E94D11F02
:102270005B016C0180E090E0A0E0B0E08093480456
:1022800090934904A0934A04B0934B043C014D0140
:102290007FC080EA96E066EB71E00E94F22D5090DC
:1022A0004B054424E0904A05FF24E428F52880EA01
:1022B00096E06EE372E00E94392E00E010E080EAC2
:1022C00096E0B801A7012AE030E00E94292F80EAB9
:1022D00096E066E572E00E94202E10914F0500E026
:1022E00060914E0570E0602B712B76956795769521
:1022F0006795882777FD8095982F0E94DF3720E02B
:1023000030E040E05DE30E949338609348047093AE
:10231000490480934A0490934B0480EA96E065EA6E
:1023200072E00E94392E4091480450914904609116
:102330004A0470914B0480EA96E00E94DF2E80EA06
:1023400096E00E94B42DC401B3012091480430915D
:10235000490440914A0450914B040E94DC363B01F1
:102360004C01809130048F5F8093300410922F04D1
:1023700010922E0402C00F97B9F10E94D11F6A1566
:102380007B058C059D0520F40E94D11F5B016C012B
:102390008091300490E02091290430912A04821722
:1023A000930714F50E94D11F6A197B098C099D09B6
:1023B0006053754780409040B8F480EA96E06DEC39
:1023C00071E00E94F22D8EE494E048E853E160E071
:1023D00070E00E94741490E090932F0480932E0478
:1023E0008531910541F655CF6091300470E0882722
:1023F00077FD8095982F0E94DF379B01AC01C401C7
:10240000B3010E9444379B01AC01209348043093F0
:10241000490440934A0450934B0440E022E001E316
:1024200014E00E941B3BC80161E00E945E230AC0C9
:1024300080EA96E062EA71E00E94F22D80EA96E07E
:102440000E94B42D109228048EE494E0609103055C
:1024500044E250E028E234E001E00E948317892B37
:1024600051F080EA96E06DE771E00E94F22D80EA7B
:1024700096E00E94B42D8EE494E0609103050E94E2
:10248000D31880EA96E06FE671E00E94F22D8AEBA5
:1024900092E061E00E945E230BC080EA96E061E674
:1024A00071E004C080EA96E06EE471E00E94F22DD3
:1024B00080EA96E00E94B42D0EC081E00E945A226C
:1024C0008F3619F48EE060E004C0833621F48EE08C
:1024D00061E00E949F2181E00E943622892B69F7EA
:1024E00060914004709141048091420490914304B2
:1024F00020E030E04CE053E40E944037882364F44D
:1025000080914C0490914D048A30910529F00196F8
:1025100090934D0480934C04609140047091410469
:10252000809142049091430420E030E040E253E483
:102530000E948F3818165CF480914C0490914D04E1
:10254000009729F0019790934D0480934C0400D09C
:1025500000D040914C0450914D04662757FD609582
:10256000762F8BE090E0A0E0B0E0EDB7FEB781837E
:102570009283A383B48385EA96E000E010E020E034
:1025800030E0EAE0CE2ED12CE12CF12C88249924E5
:1025900054010E94632F6B0148EFE42E43E0F42EB8
:1025A00000E010E00F900F900F900F900C151D059C
:1025B00024F4F701808160E003C0F701808161E0CD
:1025C0000E949F210F5F1F4F82E090E0E80EF91EEE
:1025D0000B30110559F70F900F900F900F90CF917E
:1025E000DF911F910F91FF90EF90DF90CF90BF9000
:1025F000AF909F908F907F906F905F904F900895D5
:10260000FC01E950FF4F8081E75FF040882309F427
:10261000C4C0E750FF4F8081E95FF040882309F58F
:10262000E650FF4F80818230A1F0833030F4882360
:1026300071F0813009F0B1C008C0843071F084308D
:1026400050F0853009F0A9C00AC082E0089581E009
:10265000089583E0089584E0089585E0089586E074
:102660000895813041F4E650FF4F8081882309F0BE
:1026700094C087E00895823089F4E650FF4F80814E
:10268000813031F0813030F0823009F086C004C0F2
:1026900089E0089588E008958AE008958330E9F498
:1026A000E650FF4F8081823091F0833030F48823F0
:1026B00061F0813009F071C006C0833051F0843080
:1026C00009F06BC008C08CE008958BE008958DE0A0
:1026D00008958EE008958FE00895843011F5E65056
:1026E000FF4F80818330A9F0843028F4813059F085
:1026F000823068F40AC0853081F0853060F0863021
:1027000009F04BC00CC081E1089580E1089582E199
:10271000089583E1089584E1089585E1089586E1AF
:1027200008958530D9F4E650FF4F8081823081F0E2
:10273000833028F4882351F0813079F505C0833047
:1027400049F0843051F508C088E1089587E1089583
:1027500089E108958AE108958BE10895863059F45E
:10276000E650FF4F8081882321F08130B1F48DE164
:1027700008958CE10895873081F4E650FF4F808101
:10278000813029F0813028F0823039F404C08FE1A3
:1027900008958EE1089580E2089580E00895CF9332
:1027A000DF93FC0180E092ECA1E0B0E080839183B4
:1027B000A283B383E055FF4F11821082E05BF040AB
:1027C000CF018A5B9F4FDC0186E0ED0119928A956B
:1027D000E9F7EB5AFF4F8FE08083399782E08193CE
:1027E000119211928BE4819382E381931192108272
:1027F000389680E094E091838083DF91CF910895B3
:102800008EE494E00E94CF130895CF93DF93EC0100
:102810008D599F4FFC018FE1DF011D928A95E9F7E9
:10282000CE57DF4F2881C258D04081E056C0FE010C
:10283000E80FF11DEE57FF4F90818F5FFE01E80F0B
:10284000F11DEE57FF4FE081482F4F5FE930F1F463
:10285000E92F903208F0EFE190E02E2F30E0215088
:1028600030400CC0AC0FBD1FAD59BF4FFE01E80F8B
:10287000F11DEE57FF4F80818C939F5F892F840F4E
:10288000A92FB0E0A217B3076CF325C0E830F9F424
:10289000E92F903208F0EFE190E02E2F30E0215048
:1028A00030400CC0AC0FBD1FAD59BF4FFE01E80F4B
:1028B000F11DEE57FF4F80818C939F5F892F840F0E
:1028C000A92FB0E0A217B3076CF382E00AC0892FEA
:1028D000840F815002C081E004C0821708F4A7CFA2
:1028E00080E0DF91CF9108958F929F92AF92BF9237
:1028F000CF92DF92EF92FF920F931F93CF93DF93CC
:10290000EC014A015B018C0109501F4F81E4D801A1
:102910001D928A95E9F762C08C810E943622049745
:102920000CF455C08C810E945A22F80180838038B3
:1029300009F04DC08C810E945A228E0108501F4F11
:10294000D8018C938C810E945A22C750DF4F888314
:10295000C95FD0408C810E945A22C650DF4F8883C5
:10296000CA5FD0400E94D11F6B017C018C810E9404
:102970003622F801208130E0821793070CF04EC018
:102980000E94D11F6C197D098E099F096815790570
:102990008A059B0508F042C00E94D11F6C157D0579
:1029A0008E059F0518F7DECF8C810E945A22D70131
:1029B0008D937D010F5F1F4F02341105F9F0F60171
:1029C000808190E003968017910774F717C00E94EA
:1029D000D11F6C157D058E059F0520F40E94D11F27
:1029E0006B017C010E94D11F6C197D098E099F0922
:1029F000681579058A059B0508F48ECFCE010E94E3
:102A00000013DF91CF911F910F91FF90EF90DF9016
:102A1000CF90BF90AF909F908F9008959BEFE92E3D
:102A2000F12CEC0EFD1E04E010E088EFC82ED12C36
:102A3000CC0EDD1EC4CFBF92CF92DF92EF92FF92F9
:102A40000F931F93CF93DF93EC01C62EB42E059600
:102A5000FC0181E4DF011D928A95E9F70E94D11FF4
:102A60007B018C01DD2418C08C810E945A22FE015A
:102A7000ED0DF11D8583D394DC1438F5B0E4BD155C
:102A800020F10E94D11F6E157F058007910720F469
:102A90000E94D11F7B018C01DC1428F08C810E94E4
:102AA0003622892B91F00E94D11F6E197F09800B6D
:102AB000910B643171058105910538F48C810E9478
:102AC00036221816190684F2DCCFDE01A055BF4F5E
:102AD00081E0B81661F4FE01ED0DF11D948180E0F6
:102AE000238130E0822B932B8D939C9302C01D9207
:102AF0001C92DD2041F4C055DF4F8FEF9FEF99838B
:102B00008883C05BD040FE01E055FF4F80819181FA
:102B1000DF91CF911F910F91FF90EF90DF90CF90B9
:102B2000BF900895CF93DF93EC018C818823A1F4AB
:102B300085EA96E00E946830688179818A819B816C
:102B40004C810E947B248C810E9495228FE261E05F
:102B50000E9481218FE215C08130B1F485EA96E0B0
:102B60000E949230688179818A819B814C810E9488
:102B70007B248C810E94952284E061E00E94812167
:102B800084E061E00E949F218C81882351F4809130
:102B9000C9089091CA08A091CB08B091CC08846074
:102BA0000BC0813089F48091C9089091CA08A09126
:102BB000CB08B091CC0888608093C9089093CA086C
:102BC000A093CB08B093CC08CE0148EE53E060E070
:102BD00070E00E9474148E3109F481E0DF91CF918E
:102BE0000895AF92BF92CF92DF92EF92FF920F9330
:102BF0001F93CF93DF937C015AE5C52ED12CC80ECD
:102C0000D91EF601808191818F51974019F420E0FF
:102C100030E053C08701045A1F4FE60142E6A42E5C
:102C2000B12CAE0CBF1C6881798185EA96E0F80171
:102C300041918F010E942D30688179816F5F7F4FB4
:102C4000798368830A151B0571F785EA96E0F80118
:102C500040810E942D30F6018081918101969183FF
:102C6000808387010D591F4FE701C65ADF4F82E865
:102C700090E0E80EF91E6881798185EA96E0F80116
:102C800041918F010E942D30688179816F5F7F4F64
:102C9000798368830E151F0571F785EA96E040EF8A
:102CA0000E942D30688179816F5F7F4F85EA96E0C1
:102CB00040EF0E942D3021E030E0C901DF91CF913B
:102CC0001F910F91FF90EF90DF90CF90BF90AF904A
:102CD0000895DF92EF92FF920F931F93CF93DF93AC
:102CE000EC01C950DF4F8881C75FD040803839F090
:102CF000C750DF4F8881C95FD040863041F47CE502
:102D0000E72EF12CEC0EFD1ED70195E009C0C65050
:102D1000DF4F8881CA5FD040882389F380E068C094
:102D2000FE01E90FF11DE350FF4F80818D9391501B
:102D3000B8F7FE01EE59FF4FC550DF4F8881808301
:102D40002A962881C550D140203208F02FE1CE01CB
:102D50008E579F4FFC0181E2DF011D928A95E9F7B2
:102D600030E0422F50E00AC0FE01E80FF91FEB5F90
:102D7000FE4F8081E358F04080833F5F832F90E0D7
:102D8000481759078CF7613029F4CE010E940514C9
:102D9000D82E0BC09E012D593F4FC90160E270E053
:102DA0004FE150E00E94AF3BDD248E010A5B1F4FD4
:102DB000C701B80146E050E00E94A23B0097B9F07D
:102DC000FE01EE54FF4F80819181019691838083B3
:102DD000D801F70186E001900D928150E1F7CE0114
:102DE0006D2D0E94F115892B11F482E001C081E064
:102DF000DF91CF911F910F91FF90EF90DF90089599
:102E00006F927F929F92AF92BF92CF92DF92EF929A
:102E1000FF920F931F93DF93CF93CDB7DEB75C0183
:102E2000F62EE42ED22EC02E912E6DB67EB68CE3F9
:102E3000861718F421E030E052C0262F30E02B5FD7
:102E40003F4FEDB7FEB7E21BF30B0FB6F894FEBF92
:102E50000FBEEDBF0DB71EB70F5F1F4FC80160E07B
:102E600070E0A9010E94AF3BF4E0FF0EF801F08290
:102E7000FCEFFF0EF8011182F282E382D482FF2080
:102E800021F4F5E0EF2EF12C15C0D8018C2D992DF1
:102E90009C01F901819115968C93159711968E2FAF
:102EA0008C198F15B8F3FA94EF2CFF2486E090E08C
:102EB000E80EF91EF50184810E949522DD2408C0E8
:102EC000E00FF11F8081F50164810E942B23D394D0
:102ED000ED2DF0E0EE15FF0598F320E030E0C9019C
:102EE0000FB6F8947EBE0FBE6DBECF91DF911F91DD
:102EF0000F91FF90EF90DF90CF90BF90AF909F9099
:102F00007F906F900895CF92DF92EF92FF920F9390
:102F10001F93DF93CF93CDB7DEB77C01702FCDB673
:102F2000DEB6802F90E00496ADB7BEB7A81BB90BF4
:102F30000FB6F894BEBF0FBEADBF0DB71EB70F5F83
:102F40001F4F11966C93F801418352837383D8010C
:102F500040E050E009C0F901E40FF51F80811396AD
:102F60008C9313974F5F5F4F11964717A0F37C5FC9
:102F7000C701672F44E025E00E940017C70167E002
:102F800041E00E941B15892B01F5C70148EE53E073
:102F900060E070E00E947414813111F090E01AC07A
:102FA000F701E055FF4F4DEF50E0E40EF51ED7015D
:102FB0009C9180E02E917D0144E05FEFE40EF51ED0
:102FC00030E0822B932B91838083F701E055FF4FF4
:102FD000808191810FB6F894DEBE0FBECDBECF9139
:102FE000DF911F910F91FF90EF90DF90CF900895A8
:102FF0009F92AF92BF92CF92DF92EF92FF920F9388
:103000001F93DF93CF9300D00F92CDB7DEB77C0133
:10301000962E6A01A6EBAA2EB12CA80EB91E81E449
:10302000D5011D928A95E9F769834A83DB82C7013E
:1030300063E044E024E08E010F5F1F4F0E94001701
:10304000C70167E041E00E941B15E0EBF0E0EE0EE7
:10305000FF1ED7010D911C91E0E5FFEFEE0EFF1E64
:103060000115110509F058C0C70140ED57E060E0B7
:1030700070E00E947414882319F401E010E04CC041
:10308000853119F0082F10E047C02DEF30E0E20E37
:10309000F31ED7014C91F7012291DF018E917D0142
:1030A000E5E0FFEFEE0EFF1E8915B1F5942F80E0ED
:1030B00030E0822B932B8C159D0571F52FEF30E0BE
:1030C000E20EF31ED7018C91E1E0FFEFEE0EFF1E42
:1030D000873110F086E102C0882321F020E0482FDC
:1030E00050E015C081E0D5018C93E7EBF0E0EE0EE7
:1030F000FF1E80E3D7018C930FC0F701E80FF91F83
:10310000E150FF4F8081E954F04080832F5F822F90
:1031100090E0481759078CF7C8010F900F900F9057
:10312000CF91DF911F910F91FF90EF90DF90CF90A3
:10313000BF90AF909F900895EF92FF920F931F93CF
:10314000DF93CF930F92CDB7DEB77C01698361E047
:1031500043E021E08E010F5F1F4F0E940017C7015F
:1031600066E040E00E941B15F70191858981981760
:1031700089F420EB30E0E20EF31EF70180819181AB
:1031800020E53FEFE20EF31E8F5F9F4F19F0F7012E
:10319000828501C080E00F90CF91DF911F910F9148
:1031A000FF90EF900895EF92FF920F931F93DF939C
:1031B000CF930F92CDB7DEB77C01698361E043E026
:1031C00020E08E010F5F1F4F0E940017C70167E0CC
:1031D00041E00E941B1525EB30E0E20EF31EF701E3
:1031E00090812BE43FEFE20EF31EF70181859817E3
:1031F00019F021E030E02CC0F701938580E02285B2
:1032000030E0282B392B80EB90E0E80EF91EF70117
:103210003183208380E59FEFE80EF91E21153105EB
:10322000B9F4C70140E157E260E070E00E94741415
:103230008F3061F4EDEFF0E0EE0EFF1EF7019081AC
:1032400080E0229130E0282B392B02C0282F30E07B
:10325000C9010F90CF91DF911F910F91FF90EF90D7
:1032600008958F929F92AF92BF92CF92DF92EF928A
:10327000FF920F931F93DF93CF93CDB7DEB7659780
:103280000FB6F894DEBF0FBECDBF5C014A01D22E4F
:10329000C32E85EA96E0AE014F5F5F4F0E94363045
:1032A0002D2D3C2DC901AC018815990508F4A40108
:1032B0000A30110518F40AE010E006C02CE00138CD
:1032C000120710F000E81CE0970181E0253F380765
:1032D00010F024EF31E08E818F838D8188878C817F
:1032E00089878B818A878A818B8789818C871D86D4
:1032F0008E869F86488B598B0A8B1B8B2C8B3D8B24
:10330000C5016FE046E023E08E01095F1F4F0E9478
:103310000017C50167E040E00E941B15F50192858A
:1033200080E0218530E0282B392B80EB90E0A80E3F
:10333000B91EF5013183208380E59FEFA80EB91EE9
:103340002115310549F5F501838525EB30E0A20E05
:10335000B31EF50180832BE43FEFA20EB31EC5011F
:1033600048EE53E060E070E00E947414182F64E6A9
:1033700070E080E090E00E9467201B3059F48CEFF1
:1033800090E0A80EB91EF5018081853019F421E086
:1033900030E002C0212F30E0C90165960FB6F894E5
:1033A000DEBF0FBECDBFCF91DF911F910F91FF9078
:1033B000EF90DF90CF90BF90AF909F908F90089547
:1033C000EF92FF920F931F934CE350E02CE430E018
:1033D00004E610E0EE24FF240E9431191F910F91A2
:1033E000FF90EF900895BF92CF92DF92EF92FF92FD
:1033F0000F931F93DF93CF9300D00F92CDB7DEB71B
:103400007C01D62EC42EB22E69834A832B8363E0BF
:1034100046E026E08E010F5F1F4F0E940017C70194
:1034200066E041E00E941B1520EB30E0E20EF31E47
:10343000F7018081918120E53FEFE20EF31E892B99
:1034400091F481E590E0E80EF91EF701D1927F0139
:10345000C08222E030E0E20EF31EF701B0822CEAD7
:103460003FEFE20EF31EF701E055FF4F808191819F
:103470000F900F900F90CF91DF911F910F91FF90C0
:10348000EF90DF90CF90BF900895FC01262FDC01D4
:10349000AE5ABF4FEF5AFF4F60814C910E94F31913
:1034A0000895EF92FF920F931F937C0160E046E036
:1034B00024E000E010E00E940017C70166E041E050
:1034C0000E941B151F910F91FF90EF900895FF929E
:1034D0000F931F93CF93DF93EC010E94511ACE01FB
:1034E00061E00E94451A892B19F0E2E0FE2E07C028
:1034F000CC5ADF4F81E08883C455D040FF248E0131
:10350000065A1F4FF8016081718185EA96E040EF0D
:103510000E942D30F801608171816F5F7F4F85EAD5
:1035200096E040EF0E942D3080E0FF2009F481E01A
:10353000DF91CF911F910F91FF900895EF92FF922D
:103540000F931F937C0161E049E020E000E010E070
:103550000E94001764EF71E080E090E00E94672015
:10356000C70148EE53E060E070E00E94741490E000
:10357000813009F491E0892F1F910F91FF90EF9016
:103580000895CF93DF93EC01623018F081E08C83D3
:1035900001C06C838C81882331F486E161E00E9454
:1035A000812186E107C0813041F486E061E00E941C
:1035B000812186E061E00E949F2164E670E080E066
:1035C00090E00E946720CE010E9492158130A1F107
:1035D000C850DF4F8881C85FD0408C3071F4C7502D
:1035E000DF4F8881C95FD040882339F4C650DF4F50
:1035F0008881CA5FD0408823F9F0CE010E949E1ACC
:103600008823D1F480EA96E06EE175E00E94F22D05
:1036100085EA96E06CE041E00E94AB3060E375E73C
:1036200080E090E00E94672085EA96E06CE040E050
:103630000E94AB3080E003C0CE010E94671ADF9188
:10364000CF910895AF92BF92DF92EF92FF920F93C6
:103650001F93DF93CF93CDB7DEB765970FB6F8947E
:10366000DEBF0FBECDBF5C016D8B603110F08FE00F
:103670008D8B19821A821B821C8246E0D42EFE0199
:103680003596DF018D2D1D928A95E9F7C50161E020
:1036900047E02CE08E010B5E1F4F0E940017C50112
:1036A00064E040E00E941B15B5016B5F7F4F85EA27
:1036B00096E07E010894E11CF11CA70124E00E9421
:1036C000B42F1B861C861D861E86FE013F96DF01D9
:1036D0001D92DA94E9F7EEEFF4E0659174918E01B2
:1036E000055F1F4FC8010E949B3BC701B8010E94A4
:1036F000C13B009719F021E030E009C0E5E5F0E0BA
:10370000AE0EBF1E8D89D5018C9320E030E0C9013B
:1037100065960FB6F894DEBF0FBECDBFCF91DF9197
:103720001F910F91FF90EF90DF90BF90AF900895A1
:103730004F925F926F927F929F92AF92BF92CF9281
:10374000DF92EF92FF920F931F93CF93DF93EC01E1
:103750002B01D42E72EBE72EF12CE80EF91EF701A7
:103760001182108266E4662E712C680E791E86E046
:10377000F30111928A95E9F7CE01622F0E94221B74
:103780008E010C5A1F4FF8018081813081F0CE01EB
:1037900061E00E94451A892B21F481E0F8018083C1
:1037A00006C08FEF9FEFF7019183808369C08E0180
:1037B000045B1F4FCE0161E046E022E00E9400174B
:1037C000CE0166E041E00E941B15892B09F058C02C
:1037D0008D2D90E028EE33E0AC01429FC001439F65
:1037E000900D529F900D11245C01CC24B7FCC09425
:1037F000DC2C51EEA51653E9B50654E0C50650E0A1
:10380000D50638F050EEA52E53E9B52E54E0C52E5E
:10381000D12C0E94D11F7B018C011DC0CE0160E024
:103820000E946916C301B20146E050E00E94A23B2B
:10383000009719F49924939401C099240E94D11FF0
:103840006E157F058007910720F40E94D11F7B0130
:103850008C01992071F50E94D11F6E197F09800B90
:10386000910B6A157B058C059D0510F5CE0148EE80
:1038700053E060E070E00E9474148C31F1F6CECF1A
:10388000FE01E055FF4F8081918102C0892D90E0BB
:10389000DF91CF911F910F91FF90EF90DF90CF902C
:1038A000BF90AF909F907F906F905F904F900895E2
:1038B0009924CE010E94511A892B41F3E1CFEF9256
:1038C000FF920F931F93DF93CF9300D000D000D0CF
:1038D000CDB7DEB77C018B01FB0101900020E9F739
:1038E0003197E61BF70B3E9710F0FB011486C801D9
:1038F0000E94CA3B85EA96E0B8018E010F5F1F4F18
:10390000A8010E943630C701B8014EE12FE00E94A5
:10391000981B26960FB6F894DEBF0FBECDBFCF9191
:10392000DF911F910F91FF90EF900895482F613222
:1039300010F081E0089580918805843011F082E0D4
:1039400008956093D105A0EBB5E0842F9C01F901A7
:1039500002C081918D938E2F841B8617D0F380E057
:103960000895589859988091B90081608093B90062
:103970008091B90082608093B9008091BC0080681A
:103980008093BC008091BC0080618093BC008091DA
:10399000BC008F7B8093BC008091BC008F7D8093A6
:1039A000BC008091BC00877F8093BC008091C908D7
:1039B0009091CA08A091CB08B091CC0886FD14C0A4
:1039C0008091C9089091CA08A091CB08B091CC0809
:1039D00090FD0AC08091C9089091CA08A091CB08B7
:1039E000B091CC0893FF04C08091BC008B7F03C0D2
:1039F0008091BC0084608093BC008091BC008E7F6D
:103A00008093BC0080916400806880936400089576
:103A100010928805E4E6F0E080818F778083589AE1
:103A2000599AE9EBF0E080818E7F808380818D7FE1
:103A3000808381E48093B80085E48093BC0080E2B9
:103A4000EEE8F5E0DF01982F1D929A95E9F7E0EB9B
:103A5000F5E0DF01982F1D929A95E9F7E2EDF5E088
:103A6000DF011D928A95E9F70895882349F01092A5
:103A7000F4051092F5051092F6051092F70513C0A3
:103A80008091F4059091F505A091F605B091F705A8
:103A90000196A11DB11D8093F4059093F505A093A7
:103AA000F605B093F7058091F4059091F505A09186
:103AB000F605B091F705805A9648A140B04010F441
:103AC00080E008951092F4051092F5051092F60525
:103AD0001092F7050E94081D81E0089585ED8093FE
:103AE000BC0081E00E94351D05C080E00E94351DAC
:103AF000882321F48091BC0084FDF7CF10928805C3
:103B000008951F920F920FB60F920BB60F921124C9
:103B10002F933F934F935F936F937F938F939F93D5
:103B2000AF93BF93EF93FF938091B90090E0887FAC
:103B300090708036910509F4C3C081369105CCF5AB
:103B40008832910509F47BC089329105B4F4803143
:103B5000910509F46FC0813191053CF4009709F497
:103B60000EC1089709F00FC165C08831910509F4AD
:103B700066C0809709F007C177C08034910509F4C9
:103B80008DC08134910544F48033910509F472C0ED
:103B9000C89709F0F8C072C08035910509F472C069
:103BA0008835910509F47FC08834910509F0EBC090
:103BB000E8C08839910509F4D8C089399105ECF439
:103BC0008837910509F47CC0893791054CF4883613
:103BD000910509F475C08037910509F0D4C070C013
:103BE0008838910509F4C1C08039910509F46EC087
:103BF0008038910509F0C7C069C0803B910509F480
:103C00008CC0813B91054CF4803A910509F470C059
:103C1000883A910509F0B7C080C0803C910509F44D
:103C2000A8C0883C910509F4A4C0883B910509F01F
:103C3000AAC088C0809189058093BB0013C0909171
:103C4000AE058091AF05981708F09BC09091AE0526
:103C5000E92FF0E0E257FA4F80818093BB009F5F2D
:103C60009093AE0585EC82C00E946E1D80E2809329
:103C7000F30589C080E38093F30583C088E38093D4
:103C8000F30577C08091AE059091BB00E82FF0E07E
:103C9000E257FA4F90838F5F8093AE059091AE0507
:103CA0008091AF055FC08091AE059091BB00E82F79
:103CB000F0E0E257FA4F90838F5F8093AE0561C0CA
:103CC00083E0809388051092F205CCCF8091F205B5
:103CD000803208F04AC08091F2059091BB00E82F35
:103CE000F0E0EE52FA4F90838F5F8093F205BACFE7
:103CF0008091F205803230F4E091F205F0E0EE526E
:103D0000FA4F10826091F205E0918C05F0918D05DB
:103D100082ED95E070E009952CC084E080938805E1
:103D20001092D0051092D105E0918A05F0918B0593
:103D300009958091D105882329F481E08093D105EC
:103D40001092B0059091D005E92FF0E0E055FA4FC0
:103D500080818093BB009F5F9093D0059091D005A8
:103D60008091D105981708F47DCF85E88093BC0039
:103D70000AC085EC8093BC001092880504C01092A4
:103D8000F3050E946E1DFF91EF91BF91AF919F913E
:103D90008F917F916F915F914F913F912F910F90F4
:103DA0000BBE0F900FBE0F901F901895DF92EF92F1
:103DB000FF920F931F93E82E062FF72E142FD22E6B
:103DC000413210F081E051C081E00E94351D05C0F4
:103DD00080E00E94351D882321F480918805882386
:103DE000B9F782E0809388058FEF8093F3051092F6
:103DF000AE051093AF05AEE8B5E0202F3F2DC90109
:103E0000FC0102C081918D938E2F801B8117D0F30E
:103E10008E2D90E0880F991F8093890585EE809301
:103E2000BC0081E00E94351DDD2041F40BC080E024
:103E30000E94351D882311F085E017C08091880508
:103E40008230A9F38091F3058F3F11F480E00DC01B
:103E50008091F305803211F482E007C08091F30570
:103E6000803311F084E001C083E01F910F91FF9037
:103E7000EF90DF9008950F931F93CF93DF93182F48
:103E8000EB01042F413210F081E03CC081E00E9440
:103E9000351D05C080E00E94351D882321F48091E6
:103EA00088058823B9F781E0809388058FEF809398
:103EB000F3051092AE050093AF05110F116010933A
:103EC000890585EE8093BC0081E00E94351D08C005
:103ED00080E00E94351D882319F020E030E00FC0FB
:103EE000809188058130A1F3F8CFFE01E20FF31F26
:103EF000D901A257BA4F8C9180832F5F3F4F201773
:103F0000A0F380E0DF91CF911F910F9108951F9250
:103F10000F920FB60F9211248F939F93AF93BF937D
:103F20008091DB089091DC08A091DD08B091DE085B
:103F30000196A11DB11D8093DB089093DC08A0932E
:103F4000DD08B093DE08BF91AF919F918F910F90E4
:103F50000FBE0F901F9018951F920F920FB60F92E1
:103F600011248F939F93AF93BF938091DF0890911B
:103F7000E008A091E108B091E2080196A11DB11DF1
:103F80008093DF089093E008A093E108B093E208E3
:103F9000BF91AF919F918F910F900FBE0F901F9087
:103FA00018958F929F92AF92BF92CF92DF92EF922D
:103FB000FF920F931F938FB7F894A090DB08B090F7
:103FC000DC08C090DD08D090DE088FBF9501A60107
:103FD00060E070E080E090E001E00E949205122F26
:103FE000F32EE42ED52EC62EB72EA82E892E02E053
:103FF0000E949205B92F210FE1E0211708F0E0E0BF
:104000003F0DF1E03F1508F0F0E09E2E930EE1E049
:10401000931608F0E0E0FE2B4E0DA1E04E1508F0DF
:10402000A0E0FF2EF40EE1E0F41608F0E0E0AE2B85
:104030005D0DF1E05D1508F0F0E00A2F050FE1E0FD
:10404000051708F0E0E0FE2B6C0DA1E06C1508F000
:10405000A0E01F2F160FE1E0161708F0E0E0AE2BEE
:104060007B0DF1E07B1508F0F0E0A70FE1E0A7176A
:1040700008F0E0E0FE2B8A0D91E08A1508F090E050
:10408000F80FE1E0F81708F0E0E09E2BB80D392DAD
:104090004F2D502F612F7A2F8F2F9B0FE9E0AE2EDF
:1040A000BB24CC24DD24EE24FF2400E010E00E9499
:1040B0001106952FB901842F1F910F91FF90EF905A
:1040C000DF90CF90BF90AF909F908F900895AF9268
:1040D000BF92CF92DF92EF92FF920F931F935B01FB
:1040E0006C0107C00E94D11F6E157F0580079107E4
:1040F00020F40E94D11F7B018C010E94D11F6E19F8
:104100007F09800B910B6A157B058C059D0550F38B
:104110001F910F91FF90EF90DF90CF90BF90AF90E5
:1041200008958430910570F0BC0180E090E00E9419
:10413000DD3726E636E646EE5FE30E9493380E94BE
:10414000B13703C0BC01660F771F6150704061F04A
:104150006150704049F0FB01EE0FFF1F31978FB7A0
:10416000F8943197F1F78FBF0895789484B7877FDB
:1041700084BF1092DB081092DC081092DD081092C8
:10418000DE0884B5826084BD84B5816084BD85B558
:10419000826085BD85B5816085BDEEE6F0E08081F9
:1041A00081608083E1E8F0E08081826080838081AB
:1041B00081608083E0E8F0E0808181608083E1EBD2
:1041C000F0E0808184608083E1E9F0E080818460B8
:1041D0008083E0EBF0E0808181608083E0E9F0E0C3
:1041E000808181608083E4E6F0E080818E7F80833F
:1041F000ECE7F0E080818F7780838081806480832A
:10420000EAE7F0E08081846080838081826080833F
:104210008081806880831092C1001092C900089547
:104220009091F805982B9093F80580FF32C080910B
:1042300064008E7F8093640080917C008F778093F0
:104240007C0080917C00806480937C0080917A0067
:10425000846080937A0080917A00826080937A00F3
:1042600080917A00806880937A00809164008F77D3
:1042700080936400809164008B7F809364008091C0
:1042800064008D7F80936400809165008E7F8093B1
:10429000650008951F920F920FB60F920BB60F9202
:1042A00011242F933F934F935F936F937F938F933B
:1042B0009F93AF93BF93EF93FF93F89481E0809324
:1042C0002B04E0E6F0E080818068808380818F7B32
:1042D000808383E060E00E949F217894FF91EF91BA
:1042E000BF91AF919F918F917F916F915F914F910E
:1042F0003F912F910F900BBE0F900FBE0F901F900C
:104300001895282F30E0C901825A964FFC019491EC
:10431000255D364FF9018491882381F0E82FF0E084
:10432000ED5EF64FE491F0E0662329F480819095EC
:104330008923808308958081892B80830895482F65
:1043400050E0CA018F56964FFC012491CA01825A4F
:10435000964FFC019491455D564FFA0134913323F9
:10436000C1F1222331F1233021F4809180008F7735
:1043700005C0243031F4809180008F7D80938000CF
:1043800018C0213019F484B58F7704C0223021F48D
:1043900084B58F7D84BD0DC0263021F48091B0009E
:1043A0008F7705C0273029F48091B0008F7D8093EE
:1043B000B000E32FF0E0E55EF64FE491F0E0662315
:1043C00029F4808190958923808308958081892BA9
:1043D00080830895482F50E0CA018F56964FFC0104
:1043E0002491CA01825A964FFC019491455D564F23
:1043F000FA013491332319F420E030E035C0222350
:1044000031F1233021F4809180008F7705C0243072
:1044100031F4809180008F7D8093800018C021301E
:1044200019F484B58F7704C0223021F484B58F7DD0
:1044300084BD0DC0263021F48091B0008F7705C077
:10444000273029F48091B0008F7D8093B000E32F56
:10445000F0E0ED5DF64FE491F0E0808120E030E0A7
:10446000892311F021E030E0C9010895882389F4FF
:104470008091F9059091FA0580509E4F2091FB059F
:104480003091FC05821B930B60E072E00E948E3A33
:1044900008958091FD059091FE0580509E4F2091DA
:1044A000FF0530910006821B930B60E072E00E94D2
:1044B0008E3A08958823D1F44091FB055091FC0574
:1044C0008091F9059091FA058417950751F1FA0149
:1044D000ED51F54F2081CA01019660E072E00E9423
:1044E0008E3A9093FC058093FB0519C04091FF051F
:1044F000509100068091FD059091FE058417950767
:1045000081F0FA01ED51F74F2081CA01019660E078
:1045100072E00E948E3A909300068093FF0530E08F
:1045200002C02FEF3FEFC9010895882349F410928C
:10453000FC051092FB051092FA051092F9050895FA
:10454000109200061092FF051092FE051092FD05D4
:1045500008951F920F920FB60F920BB60F9211246F
:104560002F933F934F935F936F937F938F939F937B
:10457000AF93BF93EF93FF934091C600E091F9058D
:10458000F091FA05CF01019660E072E00E948E3A48
:104590009C018091FB059091FC052817390739F0A3
:1045A000ED51F54F40833093FA052093F905FF91C3
:1045B000EF91BF91AF919F918F917F916F915F919B
:1045C0004F913F912F910F900BBE0F900FBE0F9008
:1045D0001F9018951F920F920FB60F920BB60F9265
:1045E00011242F933F934F935F936F937F938F93F8
:1045F0009F93AF93BF93EF93FF934091CE00E091D1
:10460000FD05F091FE05CF01019660E072E00E9489
:104610008E3A9C018091FF0590910006281739077A
:1046200039F0ED51F74F40833093FE052093FD059F
:10463000FF91EF91BF91AF919F918F917F916F917A
:104640005F914F913F912F910F900BBE0F900FBE36
:104650000F901F901895982F662339F48091C00011
:1046600085FFFCCF9093C60008958091C80085FF18
:10467000FCCF9093CE000895882341F48091C00030
:1046800085FFFCCF8DE08093C60008C08091C800F4
:1046900085FFFCCF8DE08093CE0008C08091C000E4
:1046A00085FFFCCF8AE08093C60008958091C80002
:1046B00085FFFCCF8AE08093CE000895FC0110C0F6
:1046C0003196662339F48091C00085FFFCCF90932A
:1046D000C60006C08091C80085FFFCCF9093CE0035
:1046E0009081992369F708952F923F924F925F929C
:1046F0006F927F928F929F92AF92BF92CF92DF92F2
:10470000EF92FF920F931F93DF93CF93CDB7DEB756
:10471000A1970FB6F894DEBF0FBECDBF6B017C0131
:1047200029013A0109A3611571058105910591F4EB
:10473000002341F48091C00085FFFCCF80E380938B
:10474000C6005BC08091C80085FFFCCF80E38093EA
:10475000CE0053C08824992454011E010894211CC2
:10476000311C8101080D191DC701B601A301920179
:104770000E94A13AF80160830894811C911CA11C3D
:10478000B11CC701B601A30192010E94A13AC9015F
:10479000DA016C017D01C114D104E104F10409F7CF
:1047A0009101280D391DBE016F5F7F4FD501C401F6
:1047B0000197A109B109AC01481959091BC0FA01B7
:1047C000E20FF31FE081EA3010F4E05D01C0E95C24
:1047D000F9A1FF2339F48091C00085FFFCCFE0935D
:1047E000C60006C08091C80085FFFCCFE093CE00D4
:1047F000215030406217730711F7A1960FB6F89455
:10480000DEBF0FBECDBFCF91DF911F910F91FF9003
:10481000EF90DF90CF90BF90AF909F908F907F9060
:104820006F905F904F903F902F900895282F992779
:1048300087FD9095807F907034E0959587953A95A7
:10484000E1F78A301CF0982F995C02C0982F905D98
:10485000822F8F708A301CF0282F295C02C0282FED
:10486000205D662339F48091C00085FFFCCF9093D2
:10487000C60006C08091C80085FFFCCF9093CE0093
:10488000662339F48091C00085FFFCCF2093C600D9
:1048900008958091C80085FFFCCF2093CE00089535
:1048A0000F931F938B019C01E42F97FF18C04423A3
:1048B00041F48091C00085FFFCCF8DE28093C6005B
:1048C00007C08091C80085FFFCCF8DE28093CE00A9
:1048D00030952095109501951F4F2F4F3F4FC901DF
:1048E000B8012AE030E040E050E00E2F0E9474232F
:1048F0001F910F910895EF92FF920F931F937B01E9
:104900008C014423C1F588E00E941021C801B70141
:1049100022E030E040E050E00E94C33A2050304FA7
:10492000414F5F4FCA01B901A80197010E94C33AE4
:10493000C901DA010197A109B109292F3A2F4B2F9B
:10494000552747FD5A950196A11DB11D2093C5001D
:1049500081508093C4008091C10080618093C10028
:104960008091C10088608093C1008091C1008068FF
:104970008093C10037C080E10E941021C801B701B7
:1049800022E030E040E050E00E94C33A2050304F37
:10499000414F5F4FCA01B901A80197010E94C33A74
:1049A000C901DA010197A109B109292F3A2F4B2F2B
:1049B000552747FD5A950196A11DB11D2093CD00A5
:1049C00081508093CC008091C90080618093C900A0
:1049D0008091C90088608093C9008091C900806877
:1049E0008093C9001F910F91FF90EF9008950E944E
:1049F000B52085EA96E00E942130853440F081E3BD
:104A000061E00E94812181E361E00E949F2185EAAB
:104A100096E061E070E00E9429308130B1F480912D
:104A2000C9089091CA08A091CB08B091CC089068B1
:104A30008093C9089093CA08A093CB08B093CC0880
:104A400081E090E060E00E94303E87E20E94EA212F
:104A5000892B09F44FC085EA96E060E070E00E947F
:104A600029308A3009F046C087E096E00E94F52B95
:104A700087E096E00E940C2A87E096E00E94BC2B1B
:104A800080912006482F50E080912206481B510952
:104A900080911F06282F30E080912306281B3109C2
:104AA000121613065CF48CE390E0BC01269FC00153
:104AB000279F900D369F900D11240EC037FF0EC01A
:104AC0008CE390E0BC01269FC001279F900D369F8C
:104AD000900D1124805F914F480F591F43305105AD
:104AE00048F48091D8089091D90880629093D908B1
:104AF0008093D80887E096E00E94F52B87E096E047
:104B00000E94A82887E096E00E94972887E096E018
:104B10000E941E2C63E070E080E090E00E9467201D
:104B20008091C9089091CA08A091CB08B091CC0897
:104B3000A1FF5EC063E070E080E090E00E9467202B
:104B400086E161E00E94812163E070E080E090E016
:104B50000E94672086E161E00E949F2163E070E08F
:104B600080E090E00E9467200E94562C63E070E095
:104B700080E090E00E94672081E00E942F2C63E09B
:104B800070E080E090E00E94672084E00E943D2C6D
:104B900063E070E080E090E00E94672080E00E9487
:104BA000382C63E070E080E090E00E9467200E9473
:104BB0002B2C63E070E080E090E00E9467208AE99F
:104BC00096E066E00E94752C63E070E080E090E083
:104BD0000E94672086E161E00E94812186E160E019
:104BE0000E949F2163E070E080E090E00E946720D7
:104BF00063E070E080E090E00E94672085EA96E044
:104C00000E94FA31609301067093020680930306B6
:104C1000909304068091010690910206A0910306EC
:104C2000B09104060E94903B0E94860C0E940B0DDE
:104C3000FDCF08950F931F93062F142F8AE161E093
:104C40000E94812188E161E00E948121002321F0FE
:104C5000013009F048C020C0112371F48AE161E0FD
:104C60000E949F218091C9089091CA08A091CB0809
:104C7000B091CC0882602FC01130A9F58AE160E0C4
:104C80000E949F218091C9089091CA08A091CB08E9
:104C9000B091CC088D7F1FC0112371F488E161E0D1
:104CA0000E949F218091C9089091CA08A091CB08C9
:104CB000B091CC0881600FC01130A9F488E160E0A8
:104CC0000E949F218091C9089091CA08A091CB08A9
:104CD000B091CC088E7F8093C9089093CA08A093A6
:104CE000CB08B093CC081F910F91089589E261E041
:104CF0000E94812188E261E00E9481218CEE96E091
:104D00000E9434330895FC01148A158A168A178A82
:104D1000108E118E128E138E148E158E168E178E87
:104D200010A211A212A213A280E090E0A0E0B0E0D5
:104D300084A395A3A6A3B7A30895109298061092F2
:104D40001A060895EF92FF920F931F93DF93CF936C
:104D5000CDB7DEB7EC970FB6F894DEBF0FBECDBF70
:104D60008C01E7EFF6E065917491B5E1EB2EF12C43
:104D7000EC0EFD1EC7010E949B3BE9EFF6E065913A
:104D80007491CE0101960E949B3BD80156968C915E
:104D9000843009F46DC0853048F4823069F1833085
:104DA00008F048C0813009F000C10AC0863009F41B
:104DB0009BC0863008F47AC0873009F0F6C0B2C0D4
:104DC000EDB7FEB774970FB6F894FEBF0FBEEDBFF8
:104DD0003196075D1F4FADB7BEB712961C930E9369
:104DE00011970952104084E690E093838283F58204
:104DF000E48281ED92E0B3C08DB79EB744970FB6C1
:104E0000F8949EBF0FBE8DBFEDB7FEB73196075D1C
:104E10001F4FADB7BEB712961C930E931197095250
:104E2000104084E690E093838283F582E48285EDEE
:104E300092E095C08DB79EB744970FB6F8949EBF89
:104E40000FBE8DBFEDB7FEB73196075D1F4FADB7F3
:104E5000BEB712961C930E9311970952104084E628
:104E600090E093838283F582E48289ED92E077C0BB
:104E70008DB79EB744970FB6F8949EBF0FBE8DBFF7
:104E8000EDB7FEB73196075D1F4FADB7BEB71296AF
:104E90001C930E9311970952104084E690E093837F
:104EA0008283F582E4828DED92E059C08DB79EB782
:104EB00044970FB6F8949EBF0FBE8DBFEDB7FEB7F7
:104EC0003196075D1F4FADB7BEB712961C930E9378
:104ED00011970952104084E690E093838283F58213
:104EE000E48281EE92E03BC08DB79EB744970FB647
:104EF000F8949EBF0FBE8DBFEDB7FEB73196075D2C
:104F00001F4FADB7BEB712961C930E93119709525F
:104F1000104084E690E093838283F582E48285EEFC
:104F200092E01DC08DB79EB744970FB6F8949EBF10
:104F30000FBE8DBFEDB7FEB73196075D1F4FADB702
:104F4000BEB712961C930E9311970952104084E637
:104F500090E093838283F582E48289EE92E09783E6
:104F60008683D80154968C915497808711865596E4
:104F70008C915597828713865A968C915A9784877D
:104F8000158657968C9157978687178658968C91D9
:104F90005897808B118A59968C91828B138A0E9424
:104FA000D43BEDB7FEB774961DC000D000D000D042
:104FB000EDB7FEB73196075D1F4FADB7BEB712967E
:104FC0001C930E9311970952104084E690E093834E
:104FD0008283CE010196958384830E94D43BEDB7F2
:104FE000FEB736960FB6F894FEBF0FBEEDBF980120
:104FF000275D3F4FC901EC960FB6F894DEBF0FBE98
:10500000CDBFCF91DF911F910F91FF90EF90089549
:105010001F93CF93DF93EC01162F8091F206882324
:1050200021F48CEE96E00E94B1338CEE96E068E6B7
:1050300070E00E9424328CEE96E0612F0E943E3395
:10504000C10FD11D8CEE96E068810E943E338CEE3C
:1050500096E00E946D33DF91CF911F910895FF92EA
:105060000F931F93CF93DF938C01F62E8091F2065E
:10507000882321F48CEE96E00E94B1338CEE96E00A
:1050800068E670E00E9424328CEE96E06F2D0E945C
:105090003E338CEE96E00E946D338CEE96E068E62F
:1050A00070E041E050E00E94AE33C0E0D0E08CEE12
:1050B00096E00E942E32882329F4CA30D10511F0DF
:1050C0002196F5CF8CEE96E00E9434320F0D111D23
:1050D000F80180838CEE96E00E946D33DF91CF91D2
:1050E0001F910F91FF9008950F931F938C016FE014
:1050F0000E942F28F801878583701F910F910895D2
:10510000CF93DF93EC010E947428882319F0CE56C8
:10511000DF4F8883809116068C7F8093160687E088
:1051200096E06FE00E940828DF91CF9108950F93D9
:105130001F938C016EE00E942F28F80186858D7FD9
:105140008687C8016EE00E9408281F910F9108957C
:105150000F931F938C016EE00E942F28F801868523
:105160008E7F8687C8016EE00E9408281F910F91EC
:105170000895AF92BF92CF92DF92FF920F931F9349
:10518000CF93DF938C01F62E8091F206882321F4D1
:105190008CEE96E00E94B1338CEE96E068E670E00B
:1051A0000E9424328CEE96E060E070E00E946A3348
:1051B0008CEE96E00E946D338CEE96E068E670E02F
:1051C00043E150E00E94AE33C0E0D0E0CC24DD24C7
:1051D000AF2CBB245AE0F52E0DC18CEE96E00E9458
:1051E0002E32882309F403C18CEE96E00E943432FB
:1051F000282FF801EC0FFD1F8083C630D10509F47C
:1052000082C0C730D105B8F4C230D10509F44EC010
:10521000C330D10538F4209769F1C130D10509F0C8
:10522000E4C036C0C430D10509F451C0C530D10541
:1052300008F05BC049C0CA30D10509F49BC0CB302F
:10524000D10558F4C830D10509F478C090E02F702A
:10525000C930D10508F081C064C0CC30D10509F453
:10526000A7C0CC30D10508F494C0CD30D10509F0E9
:10527000BCC0ADC090E044E0959587954A95E1F7B4
:105280008F9DC00111242F70280FF801218FADC010
:1052900090E034E0959587953A95E1F78F9DC001B0
:1052A00011242F70280FF801208F9FC090E0B4E0E8
:1052B00095958795BA95E1F78F9DC00111242F70C0
:1052C000280FF801278B91C0F801868B8EC090E0E3
:1052D000A4E095958795AA95E1F78F9DC0011124CB
:1052E0002F70280FF801228F80C090E0F4E0959590
:1052F0008795FA95E1F78F9DC00111242F70280F33
:10530000F801258B72C090E0E4E095958795EA95C9
:10531000E1F78F9DC00111242F70280FF801248B15
:1053200064C074E0959587957A95E1F787708F9DB5
:10533000C0011124280FF801238F57C090E064E0CA
:10534000959587956A95E1F787708F9DC001112427
:105350002F70280FF801248F48C054E09595879549
:105360005A95E1F783708F9DC0011124280FF80131
:10537000258F3BC090E044E0959587954A95E1F7ED
:1053800083708F9DC00111242F70280FF801268F84
:105390002CC090E034E0959587953A95E1F78770B9
:1053A0008F9DC00111242F70280FF801278F1DC079
:1053B00090E0B4E095958795BA95E1F783708F9D5D
:1053C000C00111242F70280FF80120A30EC090E017
:1053D000A4E095958795AA95E1F783708F9DC0010C
:1053E00011242F70280FF80121A3219603C00894DF
:1053F000C11CD11CAC16BD0628F0FAE0CF16D104B2
:1054000008F4EBCEDF91CF911F910F91FF90DF90C9
:10541000CF90BF90AF900895AF92BF92CF92DF929E
:10542000EF92FF920F931F93DF93CF93CDB7DEB729
:10543000C857D0400FB6F894DEBF0FBECDBF6C0189
:105440006AE00E94B92849E2A42EB12CAC0CBD1C24
:1054500084E6D5011D928A95E9F7E5EDF6E06591C0
:1054600074918E010F5F1F4FC8010E949B3BC501C5
:10547000B8010E94B63BF60182A1823009F476C0E1
:10548000833030F4882371F0813009F03CC11AC0B8
:10549000843009F4F2C0843008F4AEC0853009F0DD
:1054A00032C127C1E7EDF6E065917491C8010E9411
:1054B0009B3BC501B8010E94B63BE5EEF6E0659165
:1054C00074910FC0E9EDF6E065917491C8010E94F6
:1054D0009B3BC501B8010E94B63BE5EEF6E0659145
:1054E00074918E01075D1F4FC8010E949B3B8DB7D1
:1054F0009EB70E970FB6F8949EBF0FBE8DBFEDB747
:10550000FEB7319631E5E32EF12CEC0EFD1EADB762
:10551000BEB71296FC92EE92119788E290E09383C8
:10552000828315830483D6015E968C915E97868371
:1055300017825D968C915D97808711865C968C9121
:105540005C97828713865B968C91848715860E9470
:10555000D43BEDB7FEB73E960FB6F894FEBF0FBE34
:10556000EDBFC501B7010E94B63BF3C0EBEDF6E01D
:1055700065917491C8010E949B3BC501B8010E94CE
:10558000B63BE7EEF6E0659174918E01075D1F4F23
:10559000C8010E949B3B8DB79EB70C970FB6F8943D
:1055A0009EBF0FBE8DBFEDB7FEB7319621E5E22E4F
:1055B000F12CEC0EFD1EADB7BEB71296FC92EE922A
:1055C000119788E290E09383828315830483D60148
:1055D0005D968C915D97868317825C968C915C9723
:1055E000808711865B968C91828713860E94D43BBC
:1055F000EDB7FEB73C96B0CFEDEDF6E06591749156
:10560000C8010E949B3BC501B8010E94B63BE9EE70
:10561000F6E0659174918E01075D1F4FC8010E94ED
:105620009B3B8DB79EB70A970FB6F8949EBF0FBEEF
:105630008DBFEDB7FEB7319691E5E92EF12CEC0E5A
:10564000FD1EADB7BEB71296FC92EE92119788E29E
:1056500090E09383828315830483D6015C968C91BA
:105660005C97868317825B968C91808711860E9457
:10567000D43BEDB7FEB73A966FCFEFEDF6E065910C
:105680007491C8010E949B3BC501B8010E94B63BC2
:10569000EBEEF6E0659174918E01075D1F4FC80136
:1056A0000E949B3B8DB79EB708970FB6F8949EBF9C
:1056B0000FBE8DBFEDB7FEB7319681E5E82EF12C18
:1056C000EC0EFD1EADB7BEB71296FC92EE9211978E
:1056D00088E290E09383828315830483D6015B96EE
:1056E0008C91868317820E94D43BEDB7FEB7389623
:1056F00033CFE1EEF6E065917491C8010E949B3BC7
:10570000C501B80130CFE3EEF6E0659174918E01EA
:105710000F5F1F4FC8010E949B3B00D000D000D0FC
:10572000EDB7FEB73196ADB7BEB71296BC92AE924A
:10573000119784E690E093838283158304830E940B
:10574000D43BEDB7FEB736960FB6F894FEBF0FBE4A
:10575000EDBFC501C858DF4F0FB6F894DEBF0FBECE
:10576000CDBFCF91DF911F910F91FF90EF90DF9010
:10577000CF90BF90AF9008950F931F938C0166E078
:105780000E94B928C8010E94A2261F910F91089576
:105790000F931F93CF93DF93EC01042F68A780E34F
:1057A00061E00E94812118A5112379F0113091F454
:1057B00080E361E00E949F21013019F482E08B8B2D
:1057C00009C0002339F41B8B05C080E360E00E9410
:1057D0009F211B8A6AE070E080E090E00E946720D1
:1057E000DF91CF911F910F9108950F931F938C011B
:1057F00061E040E00E94C82BC8010E948028C801D7
:105800000E948326C8016DE00E94B9288BE261E006
:105810000E9481218BE260E00E949F211F910F91E5
:1058200008958091F206882341F08091080788232B
:1058300021F485E096E00E94762608950F931F9349
:105840008C010E94112CC80160E040E00E94C82B2E
:105850001F910F9108958CB58F7B8CBD089588237F
:1058600019F48CB5806202C08CB58F7D8CBD089513
:105870009CB5937F982B9CBD08959CB5282F2370D1
:105880009C7F292B2CBD9DB581709E7F982B9DBD43
:10589000089510929B0610929A0610929C06109200
:1058A0009D0610929E0610929F0608958EE161E07B
:1058B0000E9481218FE161E00E9481218DE161E000
:1058C0000E9481218EE160E00E949F218FE160E0D3
:1058D0000E949F218DE161E00E949F218CB5806133
:1058E0008CBD8CB580648CBD08951F93162F8DE1FF
:1058F00061E00E94812182E261E00E9481218DE1CC
:1059000061E00E949F2182E261E00E949F218091DC
:10591000C9089091CA08A091CB08B091CC08A2FF09
:1059200008C088E061E00E94812188E061E00E9477
:105930009F218091C9089091CA08A091CB08B0918D
:10594000CC0896FF08C089E061E00E94812189E0CF
:1059500061E00E949F218091C9089091CA08A0919E
:10596000CB08B091CC08A3FF08C082E061E00E94A0
:10597000812182E061E00E949F218091C90890917D
:10598000CA08A091CB08B091CC08A4FF08C082E25D
:1059900061E00E94812182E261E00E949F21133038
:1059A000C9F0143028F4113069F0123068F408C0DE
:1059B000153041F11530D0F0163009F062C02FC01B
:1059C0008DE12BC082E229C085EA96E00E949230E8
:1059D0008CE223C08091C9089091CA08A091CB089D
:1059E000B091CC08A2FF4DC088E017C08091C908D3
:1059F0009091CA08A091CB08B091CC0896FF41C005
:105A000089E00BC08091C9089091CA08A091CB0889
:105A1000B091CC08A3FF35C082E060E030C08DE1DA
:105A200061E00E949F2182E261E00E949F218091BB
:105A3000C9089091CA08A091CB08B091CC08A2FFE8
:105A400004C088E061E00E949F218091C908909184
:105A5000CA08A091CB08B091CC0896FF04C089E099
:105A600061E00E949F218091C9089091CA08A0918D
:105A7000CB08B091CC08A3FF04C082E061E00E9493
:105A80009F211F9108951092A0060895CF93DF9350
:105A9000EC018091C9089091CA08A091CB08B091FF
:105AA000CC0882FF0BC063E070E080E090E00E94D1
:105AB00067208BE061E00E949F2106C063E070E0F8
:105AC00080E090E00E94672089818093C5008A81F0
:105AD0008093C4008B818093C2008C818093CA0024
